{
	"contracts/TinToken.sol": {
		"TinToken": {
			"abi": [
				{
					"inputs": [
						{
							"internalType": "uint256",
							"name": "initialSupply",
							"type": "uint256"
						}
					],
					"stateMutability": "nonpayable",
					"type": "constructor"
				},
				{
					"anonymous": false,
					"inputs": [
						{
							"indexed": true,
							"internalType": "address",
							"name": "owner",
							"type": "address"
						},
						{
							"indexed": true,
							"internalType": "address",
							"name": "to",
							"type": "address"
						},
						{
							"indexed": false,
							"internalType": "uint256",
							"name": "amount",
							"type": "uint256"
						}
					],
					"name": "Approval",
					"type": "event"
				},
				{
					"anonymous": false,
					"inputs": [
						{
							"indexed": true,
							"internalType": "address",
							"name": "from",
							"type": "address"
						},
						{
							"indexed": true,
							"internalType": "address",
							"name": "to",
							"type": "address"
						},
						{
							"indexed": false,
							"internalType": "uint256",
							"name": "amount",
							"type": "uint256"
						}
					],
					"name": "Transfer",
					"type": "event"
				},
				{
					"stateMutability": "payable",
					"type": "fallback"
				},
				{
					"inputs": [
						{
							"internalType": "address",
							"name": "owner",
							"type": "address"
						},
						{
							"internalType": "address",
							"name": "spender",
							"type": "address"
						}
					],
					"name": "allowance",
					"outputs": [
						{
							"internalType": "uint256",
							"name": "",
							"type": "uint256"
						}
					],
					"stateMutability": "view",
					"type": "function"
				},
				{
					"inputs": [
						{
							"internalType": "address",
							"name": "spender",
							"type": "address"
						},
						{
							"internalType": "uint256",
							"name": "amount",
							"type": "uint256"
						}
					],
					"name": "approve",
					"outputs": [],
					"stateMutability": "nonpayable",
					"type": "function"
				},
				{
					"inputs": [
						{
							"internalType": "address",
							"name": "account",
							"type": "address"
						}
					],
					"name": "balanceOf",
					"outputs": [
						{
							"internalType": "uint256",
							"name": "",
							"type": "uint256"
						}
					],
					"stateMutability": "view",
					"type": "function"
				},
				{
					"inputs": [
						{
							"internalType": "uint256",
							"name": "amount",
							"type": "uint256"
						}
					],
					"name": "burn",
					"outputs": [],
					"stateMutability": "nonpayable",
					"type": "function"
				},
				{
					"inputs": [],
					"name": "decimals",
					"outputs": [
						{
							"internalType": "uint256",
							"name": "",
							"type": "uint256"
						}
					],
					"stateMutability": "pure",
					"type": "function"
				},
				{
					"inputs": [
						{
							"internalType": "uint256",
							"name": "amount",
							"type": "uint256"
						}
					],
					"name": "mint",
					"outputs": [],
					"stateMutability": "nonpayable",
					"type": "function"
				},
				{
					"inputs": [],
					"name": "name",
					"outputs": [
						{
							"internalType": "string",
							"name": "",
							"type": "string"
						}
					],
					"stateMutability": "view",
					"type": "function"
				},
				{
					"inputs": [],
					"name": "symbol",
					"outputs": [
						{
							"internalType": "string",
							"name": "",
							"type": "string"
						}
					],
					"stateMutability": "view",
					"type": "function"
				},
				{
					"inputs": [],
					"name": "totalSupply",
					"outputs": [
						{
							"internalType": "uint256",
							"name": "",
							"type": "uint256"
						}
					],
					"stateMutability": "view",
					"type": "function"
				},
				{
					"inputs": [
						{
							"internalType": "address",
							"name": "to",
							"type": "address"
						},
						{
							"internalType": "uint256",
							"name": "amount",
							"type": "uint256"
						}
					],
					"name": "transfer",
					"outputs": [],
					"stateMutability": "nonpayable",
					"type": "function"
				},
				{
					"inputs": [
						{
							"internalType": "address",
							"name": "sender",
							"type": "address"
						},
						{
							"internalType": "address",
							"name": "recipient",
							"type": "address"
						},
						{
							"internalType": "uint256",
							"name": "amount",
							"type": "uint256"
						}
					],
					"name": "transferFrom",
					"outputs": [],
					"stateMutability": "nonpayable",
					"type": "function"
				},
				{
					"stateMutability": "payable",
					"type": "receive"
				}
			],
			"devdoc": {
				"kind": "dev",
				"methods": {},
				"version": 1
			},
			"evm": {
				"assembly": "    /* \"contracts/TinToken.sol\":81:2733  contract TinToken is IERC20 {... */\n  mstore(0x40, 0x80)\n    /* \"contracts/TinToken.sol\":256:287  string public name = \"TinToken\" */\n  mload(0x40)\n  dup1\n  0x40\n  add\n  0x40\n  mstore\n  dup1\n  0x08\n  dup2\n  mstore\n  0x20\n  add\n  0x54696e546f6b656e000000000000000000000000000000000000000000000000\n  dup2\n  mstore\n  pop\n  0x04\n  swap1\n  dup1\n  mload\n  swap1\n  0x20\n  add\n  swap1\n  tag_1\n  swap3\n  swap2\n  swap1\n  tag_2\n  jump\t// in\ntag_1:\n  pop\n    /* \"contracts/TinToken.sol\":293:321  string public symbol = \"TTN\" */\n  mload(0x40)\n  dup1\n  0x40\n  add\n  0x40\n  mstore\n  dup1\n  0x03\n  dup2\n  mstore\n  0x20\n  add\n  0x54544e0000000000000000000000000000000000000000000000000000000000\n  dup2\n  mstore\n  pop\n  0x05\n  swap1\n  dup1\n  mload\n  swap1\n  0x20\n  add\n  swap1\n  tag_3\n  swap3\n  swap2\n  swap1\n  tag_2\n  jump\t// in\ntag_3:\n  pop\n    /* \"contracts/TinToken.sol\":328:396  constructor(uint initialSupply) {... */\n  callvalue\n  dup1\n  iszero\n  tag_4\n  jumpi\n  0x00\n  dup1\n  revert\ntag_4:\n  pop\n  mload(0x40)\n  sub(codesize, bytecodeSize)\n  dup1\n  bytecodeSize\n  dup4\n  codecopy\n  dup2\n  dup2\n  add\n  0x40\n  mstore\n  dup2\n  add\n  swap1\n  tag_5\n  swap2\n  swap1\n  tag_6\n  jump\t// in\ntag_5:\n    /* \"contracts/TinToken.sol\":370:389  mint(initialSupply) */\n  tag_9\n    /* \"contracts/TinToken.sol\":375:388  initialSupply */\n  dup2\n    /* \"contracts/TinToken.sol\":370:374  mint */\n  shl(0x20, tag_10)\n    /* \"contracts/TinToken.sol\":370:389  mint(initialSupply) */\n  0x20\n  shr\n  jump\t// in\ntag_9:\n    /* \"contracts/TinToken.sol\":328:396  constructor(uint initialSupply) {... */\n  pop\n    /* \"contracts/TinToken.sol\":81:2733  contract TinToken is IERC20 {... */\n  jump(tag_11)\n    /* \"contracts/TinToken.sol\":2257:2434  function mint(uint amount) public onlyOwner {... */\ntag_10:\n    /* \"contracts/TinToken.sol\":596:601  owner */\n  0x00\n  dup1\n  sload\n  swap1\n  0x0100\n  exp\n  swap1\n  div\n  0xffffffffffffffffffffffffffffffffffffffff\n  and\n    /* \"contracts/TinToken.sol\":582:601  msg.sender == owner */\n  0xffffffffffffffffffffffffffffffffffffffff\n  and\n    /* \"contracts/TinToken.sol\":582:592  msg.sender */\n  caller\n    /* \"contracts/TinToken.sol\":582:601  msg.sender == owner */\n  0xffffffffffffffffffffffffffffffffffffffff\n  and\n  eq\n    /* \"contracts/TinToken.sol\":574:627  require(msg.sender == owner, \"You are not an owner!\") */\n  tag_13\n  jumpi\n  mload(0x40)\n  0x08c379a000000000000000000000000000000000000000000000000000000000\n  dup2\n  mstore\n  0x04\n  add\n  tag_14\n  swap1\n  tag_15\n  jump\t// in\ntag_14:\n  mload(0x40)\n  dup1\n  swap2\n  sub\n  swap1\n  revert\ntag_13:\n    /* \"contracts/TinToken.sol\":2335:2341  amount */\n  dup1\n    /* \"contracts/TinToken.sol\":2311:2319  balances */\n  0x02\n    /* \"contracts/TinToken.sol\":2311:2331  balances[msg.sender] */\n  0x00\n    /* \"contracts/TinToken.sol\":2320:2330  msg.sender */\n  caller\n    /* \"contracts/TinToken.sol\":2311:2331  balances[msg.sender] */\n  0xffffffffffffffffffffffffffffffffffffffff\n  and\n  0xffffffffffffffffffffffffffffffffffffffff\n  and\n  dup2\n  mstore\n  0x20\n  add\n  swap1\n  dup2\n  mstore\n  0x20\n  add\n  0x00\n  keccak256\n  0x00\n    /* \"contracts/TinToken.sol\":2311:2341  balances[msg.sender] += amount */\n  dup3\n  dup3\n  sload\n  tag_17\n  swap2\n  swap1\n  tag_18\n  jump\t// in\ntag_17:\n  swap3\n  pop\n  pop\n  dup2\n  swap1\n  sstore\n  pop\n    /* \"contracts/TinToken.sol\":2366:2372  amount */\n  dup1\n    /* \"contracts/TinToken.sol\":2351:2362  totalTokens */\n  0x01\n  0x00\n    /* \"contracts/TinToken.sol\":2351:2372  totalTokens += amount */\n  dup3\n  dup3\n  sload\n  tag_19\n  swap2\n  swap1\n  tag_18\n  jump\t// in\ntag_19:\n  swap3\n  pop\n  pop\n  dup2\n  swap1\n  sstore\n  pop\n    /* \"contracts/TinToken.sol\":2408:2418  msg.sender */\n  caller\n    /* \"contracts/TinToken.sol\":2387:2427  Transfer(address(0), msg.sender, amount) */\n  0xffffffffffffffffffffffffffffffffffffffff\n  and\n    /* \"contracts/TinToken.sol\":2404:2405  0 */\n  0x00\n    /* \"contracts/TinToken.sol\":2387:2427  Transfer(address(0), msg.sender, amount) */\n  0xffffffffffffffffffffffffffffffffffffffff\n  and\n  0xddf252ad1be2c89b69c2b068fc378daa952ba7f163c4a11628f55a4df523b3ef\n    /* \"contracts/TinToken.sol\":2420:2426  amount */\n  dup4\n    /* \"contracts/TinToken.sol\":2387:2427  Transfer(address(0), msg.sender, amount) */\n  mload(0x40)\n  tag_20\n  swap2\n  swap1\n  tag_21\n  jump\t// in\ntag_20:\n  mload(0x40)\n  dup1\n  swap2\n  sub\n  swap1\n  log3\n    /* \"contracts/TinToken.sol\":2257:2434  function mint(uint amount) public onlyOwner {... */\n  pop\n  jump\t// out\n    /* \"contracts/TinToken.sol\":81:2733  contract TinToken is IERC20 {... */\ntag_2:\n  dup3\n  dup1\n  sload\n  tag_22\n  swap1\n  tag_23\n  jump\t// in\ntag_22:\n  swap1\n  0x00\n  mstore\n  keccak256(0x00, 0x20)\n  swap1\n  0x1f\n  add\n  0x20\n  swap1\n  div\n  dup2\n  add\n  swap3\n  dup3\n  tag_25\n  jumpi\n  0x00\n  dup6\n  sstore\n  jump(tag_24)\ntag_25:\n  dup3\n  0x1f\n  lt\n  tag_26\n  jumpi\n  dup1\n  mload\n  not(0xff)\n  and\n  dup4\n  dup1\n  add\n  or\n  dup6\n  sstore\n  jump(tag_24)\ntag_26:\n  dup3\n  dup1\n  add\n  0x01\n  add\n  dup6\n  sstore\n  dup3\n  iszero\n  tag_24\n  jumpi\n  swap2\n  dup3\n  add\ntag_27:\n  dup3\n  dup2\n  gt\n  iszero\n  tag_28\n  jumpi\n  dup3\n  mload\n  dup3\n  sstore\n  swap2\n  0x20\n  add\n  swap2\n  swap1\n  0x01\n  add\n  swap1\n  jump(tag_27)\ntag_28:\ntag_24:\n  pop\n  swap1\n  pop\n  tag_29\n  swap2\n  swap1\n  tag_30\n  jump\t// in\ntag_29:\n  pop\n  swap1\n  jump\t// out\ntag_30:\ntag_31:\n  dup1\n  dup3\n  gt\n  iszero\n  tag_32\n  jumpi\n  0x00\n  dup2\n  0x00\n  swap1\n  sstore\n  pop\n  0x01\n  add\n  jump(tag_31)\ntag_32:\n  pop\n  swap1\n  jump\t// out\n    /* \"#utility.yul\":7:150   */\ntag_34:\n    /* \"#utility.yul\":64:69   */\n  0x00\n    /* \"#utility.yul\":95:101   */\n  dup2\n    /* \"#utility.yul\":89:102   */\n  mload\n    /* \"#utility.yul\":80:102   */\n  swap1\n  pop\n    /* \"#utility.yul\":111:144   */\n  tag_36\n    /* \"#utility.yul\":138:143   */\n  dup2\n    /* \"#utility.yul\":111:144   */\n  tag_37\n  jump\t// in\ntag_36:\n    /* \"#utility.yul\":7:150   */\n  swap3\n  swap2\n  pop\n  pop\n  jump\t// out\n    /* \"#utility.yul\":156:507   */\ntag_6:\n    /* \"#utility.yul\":226:232   */\n  0x00\n    /* \"#utility.yul\":275:277   */\n  0x20\n    /* \"#utility.yul\":263:272   */\n  dup3\n    /* \"#utility.yul\":254:261   */\n  dup5\n    /* \"#utility.yul\":250:273   */\n  sub\n    /* \"#utility.yul\":246:278   */\n  slt\n    /* \"#utility.yul\":243:362   */\n  iszero\n  tag_39\n  jumpi\n    /* \"#utility.yul\":281:360   */\n  tag_40\n  tag_41\n  jump\t// in\ntag_40:\n    /* \"#utility.yul\":243:362   */\ntag_39:\n    /* \"#utility.yul\":401:402   */\n  0x00\n    /* \"#utility.yul\":426:490   */\n  tag_42\n    /* \"#utility.yul\":482:489   */\n  dup5\n    /* \"#utility.yul\":473:479   */\n  dup3\n    /* \"#utility.yul\":462:471   */\n  dup6\n    /* \"#utility.yul\":458:480   */\n  add\n    /* \"#utility.yul\":426:490   */\n  tag_34\n  jump\t// in\ntag_42:\n    /* \"#utility.yul\":416:490   */\n  swap2\n  pop\n    /* \"#utility.yul\":372:500   */\n  pop\n    /* \"#utility.yul\":156:507   */\n  swap3\n  swap2\n  pop\n  pop\n  jump\t// out\n    /* \"#utility.yul\":513:879   */\ntag_43:\n    /* \"#utility.yul\":655:658   */\n  0x00\n    /* \"#utility.yul\":676:743   */\n  tag_45\n    /* \"#utility.yul\":740:742   */\n  0x15\n    /* \"#utility.yul\":735:738   */\n  dup4\n    /* \"#utility.yul\":676:743   */\n  tag_46\n  jump\t// in\ntag_45:\n    /* \"#utility.yul\":669:743   */\n  swap2\n  pop\n    /* \"#utility.yul\":752:845   */\n  tag_47\n    /* \"#utility.yul\":841:844   */\n  dup3\n    /* \"#utility.yul\":752:845   */\n  tag_48\n  jump\t// in\ntag_47:\n    /* \"#utility.yul\":870:872   */\n  0x20\n    /* \"#utility.yul\":865:868   */\n  dup3\n    /* \"#utility.yul\":861:873   */\n  add\n    /* \"#utility.yul\":854:873   */\n  swap1\n  pop\n    /* \"#utility.yul\":513:879   */\n  swap2\n  swap1\n  pop\n  jump\t// out\n    /* \"#utility.yul\":885:1003   */\ntag_49:\n    /* \"#utility.yul\":972:996   */\n  tag_51\n    /* \"#utility.yul\":990:995   */\n  dup2\n    /* \"#utility.yul\":972:996   */\n  tag_52\n  jump\t// in\ntag_51:\n    /* \"#utility.yul\":967:970   */\n  dup3\n    /* \"#utility.yul\":960:997   */\n  mstore\n    /* \"#utility.yul\":885:1003   */\n  pop\n  pop\n  jump\t// out\n    /* \"#utility.yul\":1009:1428   */\ntag_15:\n    /* \"#utility.yul\":1175:1179   */\n  0x00\n    /* \"#utility.yul\":1213:1215   */\n  0x20\n    /* \"#utility.yul\":1202:1211   */\n  dup3\n    /* \"#utility.yul\":1198:1216   */\n  add\n    /* \"#utility.yul\":1190:1216   */\n  swap1\n  pop\n    /* \"#utility.yul\":1262:1271   */\n  dup2\n    /* \"#utility.yul\":1256:1260   */\n  dup2\n    /* \"#utility.yul\":1252:1272   */\n  sub\n    /* \"#utility.yul\":1248:1249   */\n  0x00\n    /* \"#utility.yul\":1237:1246   */\n  dup4\n    /* \"#utility.yul\":1233:1250   */\n  add\n    /* \"#utility.yul\":1226:1273   */\n  mstore\n    /* \"#utility.yul\":1290:1421   */\n  tag_54\n    /* \"#utility.yul\":1416:1420   */\n  dup2\n    /* \"#utility.yul\":1290:1421   */\n  tag_43\n  jump\t// in\ntag_54:\n    /* \"#utility.yul\":1282:1421   */\n  swap1\n  pop\n    /* \"#utility.yul\":1009:1428   */\n  swap2\n  swap1\n  pop\n  jump\t// out\n    /* \"#utility.yul\":1434:1656   */\ntag_21:\n    /* \"#utility.yul\":1527:1531   */\n  0x00\n    /* \"#utility.yul\":1565:1567   */\n  0x20\n    /* \"#utility.yul\":1554:1563   */\n  dup3\n    /* \"#utility.yul\":1550:1568   */\n  add\n    /* \"#utility.yul\":1542:1568   */\n  swap1\n  pop\n    /* \"#utility.yul\":1578:1649   */\n  tag_56\n    /* \"#utility.yul\":1646:1647   */\n  0x00\n    /* \"#utility.yul\":1635:1644   */\n  dup4\n    /* \"#utility.yul\":1631:1648   */\n  add\n    /* \"#utility.yul\":1622:1628   */\n  dup5\n    /* \"#utility.yul\":1578:1649   */\n  tag_49\n  jump\t// in\ntag_56:\n    /* \"#utility.yul\":1434:1656   */\n  swap3\n  swap2\n  pop\n  pop\n  jump\t// out\n    /* \"#utility.yul\":1743:1912   */\ntag_46:\n    /* \"#utility.yul\":1827:1838   */\n  0x00\n    /* \"#utility.yul\":1861:1867   */\n  dup3\n    /* \"#utility.yul\":1856:1859   */\n  dup3\n    /* \"#utility.yul\":1849:1868   */\n  mstore\n    /* \"#utility.yul\":1901:1905   */\n  0x20\n    /* \"#utility.yul\":1896:1899   */\n  dup3\n    /* \"#utility.yul\":1892:1906   */\n  add\n    /* \"#utility.yul\":1877:1906   */\n  swap1\n  pop\n    /* \"#utility.yul\":1743:1912   */\n  swap3\n  swap2\n  pop\n  pop\n  jump\t// out\n    /* \"#utility.yul\":1918:2223   */\ntag_18:\n    /* \"#utility.yul\":1958:1961   */\n  0x00\n    /* \"#utility.yul\":1977:1997   */\n  tag_61\n    /* \"#utility.yul\":1995:1996   */\n  dup3\n    /* \"#utility.yul\":1977:1997   */\n  tag_52\n  jump\t// in\ntag_61:\n    /* \"#utility.yul\":1972:1997   */\n  swap2\n  pop\n    /* \"#utility.yul\":2011:2031   */\n  tag_62\n    /* \"#utility.yul\":2029:2030   */\n  dup4\n    /* \"#utility.yul\":2011:2031   */\n  tag_52\n  jump\t// in\ntag_62:\n    /* \"#utility.yul\":2006:2031   */\n  swap3\n  pop\n    /* \"#utility.yul\":2165:2166   */\n  dup3\n    /* \"#utility.yul\":2097:2163   */\n  0xffffffffffffffffffffffffffffffffffffffffffffffffffffffffffffffff\n    /* \"#utility.yul\":2093:2167   */\n  sub\n    /* \"#utility.yul\":2090:2091   */\n  dup3\n    /* \"#utility.yul\":2087:2168   */\n  gt\n    /* \"#utility.yul\":2084:2191   */\n  iszero\n  tag_63\n  jumpi\n    /* \"#utility.yul\":2171:2189   */\n  tag_64\n  tag_65\n  jump\t// in\ntag_64:\n    /* \"#utility.yul\":2084:2191   */\ntag_63:\n    /* \"#utility.yul\":2215:2216   */\n  dup3\n    /* \"#utility.yul\":2212:2213   */\n  dup3\n    /* \"#utility.yul\":2208:2217   */\n  add\n    /* \"#utility.yul\":2201:2217   */\n  swap1\n  pop\n    /* \"#utility.yul\":1918:2223   */\n  swap3\n  swap2\n  pop\n  pop\n  jump\t// out\n    /* \"#utility.yul\":2229:2306   */\ntag_52:\n    /* \"#utility.yul\":2266:2273   */\n  0x00\n    /* \"#utility.yul\":2295:2300   */\n  dup2\n    /* \"#utility.yul\":2284:2300   */\n  swap1\n  pop\n    /* \"#utility.yul\":2229:2306   */\n  swap2\n  swap1\n  pop\n  jump\t// out\n    /* \"#utility.yul\":2312:2632   */\ntag_23:\n    /* \"#utility.yul\":2356:2362   */\n  0x00\n    /* \"#utility.yul\":2393:2394   */\n  0x02\n    /* \"#utility.yul\":2387:2391   */\n  dup3\n    /* \"#utility.yul\":2383:2395   */\n  div\n    /* \"#utility.yul\":2373:2395   */\n  swap1\n  pop\n    /* \"#utility.yul\":2440:2441   */\n  0x01\n    /* \"#utility.yul\":2434:2438   */\n  dup3\n    /* \"#utility.yul\":2430:2442   */\n  and\n    /* \"#utility.yul\":2461:2479   */\n  dup1\n    /* \"#utility.yul\":2451:2532   */\n  tag_68\n  jumpi\n    /* \"#utility.yul\":2517:2521   */\n  0x7f\n    /* \"#utility.yul\":2509:2515   */\n  dup3\n    /* \"#utility.yul\":2505:2522   */\n  and\n    /* \"#utility.yul\":2495:2522   */\n  swap2\n  pop\n    /* \"#utility.yul\":2451:2532   */\ntag_68:\n    /* \"#utility.yul\":2579:2581   */\n  0x20\n    /* \"#utility.yul\":2571:2577   */\n  dup3\n    /* \"#utility.yul\":2568:2582   */\n  lt\n    /* \"#utility.yul\":2548:2566   */\n  dup2\n    /* \"#utility.yul\":2545:2583   */\n  eq\n    /* \"#utility.yul\":2542:2626   */\n  iszero\n  tag_69\n  jumpi\n    /* \"#utility.yul\":2598:2616   */\n  tag_70\n  tag_71\n  jump\t// in\ntag_70:\n    /* \"#utility.yul\":2542:2626   */\ntag_69:\n    /* \"#utility.yul\":2363:2632   */\n  pop\n    /* \"#utility.yul\":2312:2632   */\n  swap2\n  swap1\n  pop\n  jump\t// out\n    /* \"#utility.yul\":2638:2818   */\ntag_65:\n    /* \"#utility.yul\":2686:2763   */\n  0x4e487b7100000000000000000000000000000000000000000000000000000000\n    /* \"#utility.yul\":2683:2684   */\n  0x00\n    /* \"#utility.yul\":2676:2764   */\n  mstore\n    /* \"#utility.yul\":2783:2787   */\n  0x11\n    /* \"#utility.yul\":2780:2781   */\n  0x04\n    /* \"#utility.yul\":2773:2788   */\n  mstore\n    /* \"#utility.yul\":2807:2811   */\n  0x24\n    /* \"#utility.yul\":2804:2805   */\n  0x00\n    /* \"#utility.yul\":2797:2812   */\n  revert\n    /* \"#utility.yul\":2824:3004   */\ntag_71:\n    /* \"#utility.yul\":2872:2949   */\n  0x4e487b7100000000000000000000000000000000000000000000000000000000\n    /* \"#utility.yul\":2869:2870   */\n  0x00\n    /* \"#utility.yul\":2862:2950   */\n  mstore\n    /* \"#utility.yul\":2969:2973   */\n  0x22\n    /* \"#utility.yul\":2966:2967   */\n  0x04\n    /* \"#utility.yul\":2959:2974   */\n  mstore\n    /* \"#utility.yul\":2993:2997   */\n  0x24\n    /* \"#utility.yul\":2990:2991   */\n  0x00\n    /* \"#utility.yul\":2983:2998   */\n  revert\n    /* \"#utility.yul\":3133:3250   */\ntag_41:\n    /* \"#utility.yul\":3242:3243   */\n  0x00\n    /* \"#utility.yul\":3239:3240   */\n  dup1\n    /* \"#utility.yul\":3232:3244   */\n  revert\n    /* \"#utility.yul\":3256:3427   */\ntag_48:\n    /* \"#utility.yul\":3396:3419   */\n  0x596f7520617265206e6f7420616e206f776e6572210000000000000000000000\n    /* \"#utility.yul\":3392:3393   */\n  0x00\n    /* \"#utility.yul\":3384:3390   */\n  dup3\n    /* \"#utility.yul\":3380:3394   */\n  add\n    /* \"#utility.yul\":3373:3420   */\n  mstore\n    /* \"#utility.yul\":3256:3427   */\n  pop\n  jump\t// out\n    /* \"#utility.yul\":3433:3555   */\ntag_37:\n    /* \"#utility.yul\":3506:3530   */\n  tag_79\n    /* \"#utility.yul\":3524:3529   */\n  dup2\n    /* \"#utility.yul\":3506:3530   */\n  tag_52\n  jump\t// in\ntag_79:\n    /* \"#utility.yul\":3499:3504   */\n  dup2\n    /* \"#utility.yul\":3496:3531   */\n  eq\n    /* \"#utility.yul\":3486:3549   */\n  tag_80\n  jumpi\n    /* \"#utility.yul\":3545:3546   */\n  0x00\n    /* \"#utility.yul\":3542:3543   */\n  dup1\n    /* \"#utility.yul\":3535:3547   */\n  revert\n    /* \"#utility.yul\":3486:3549   */\ntag_80:\n    /* \"#utility.yul\":3433:3555   */\n  pop\n  jump\t// out\n    /* \"contracts/TinToken.sol\":81:2733  contract TinToken is IERC20 {... */\ntag_11:\n  dataSize(sub_0)\n  dup1\n  dataOffset(sub_0)\n  0x00\n  codecopy\n  0x00\n  return\nstop\n\nsub_0: assembly {\n        /* \"contracts/TinToken.sol\":81:2733  contract TinToken is IERC20 {... */\n      mstore(0x40, 0x80)\n      jumpi(tag_1, lt(calldatasize, 0x04))\n      shr(0xe0, calldataload(0x00))\n      dup1\n      0x42966c68\n      gt\n      tag_14\n      jumpi\n      dup1\n      0x42966c68\n      eq\n      tag_8\n      jumpi\n      dup1\n      0x70a08231\n      eq\n      tag_9\n      jumpi\n      dup1\n      0x95d89b41\n      eq\n      tag_10\n      jumpi\n      dup1\n      0xa0712d68\n      eq\n      tag_11\n      jumpi\n      dup1\n      0xa9059cbb\n      eq\n      tag_12\n      jumpi\n      dup1\n      0xdd62ed3e\n      eq\n      tag_13\n      jumpi\n      jump(tag_2)\n    tag_14:\n      dup1\n      0x06fdde03\n      eq\n      tag_3\n      jumpi\n      dup1\n      0x095ea7b3\n      eq\n      tag_4\n      jumpi\n      dup1\n      0x18160ddd\n      eq\n      tag_5\n      jumpi\n      dup1\n      0x23b872dd\n      eq\n      tag_6\n      jumpi\n      dup1\n      0x313ce567\n      eq\n      tag_7\n      jumpi\n      jump(tag_2)\n    tag_1:\n      jumpi(tag_2, calldatasize)\n      stop\n    tag_2:\n      stop\n        /* \"contracts/TinToken.sol\":256:287  string public name = \"TinToken\" */\n    tag_3:\n      callvalue\n      dup1\n      iszero\n      tag_19\n      jumpi\n      0x00\n      dup1\n      revert\n    tag_19:\n      pop\n      tag_20\n      tag_21\n      jump\t// in\n    tag_20:\n      mload(0x40)\n      tag_22\n      swap2\n      swap1\n      tag_23\n      jump\t// in\n    tag_22:\n      mload(0x40)\n      dup1\n      swap2\n      sub\n      swap1\n      return\n        /* \"contracts/TinToken.sol\":1642:1816  function approve(address spender, uint amount) external override {... */\n    tag_4:\n      callvalue\n      dup1\n      iszero\n      tag_24\n      jumpi\n      0x00\n      dup1\n      revert\n    tag_24:\n      pop\n      tag_25\n      0x04\n      dup1\n      calldatasize\n      sub\n      dup2\n      add\n      swap1\n      tag_26\n      swap2\n      swap1\n      tag_27\n      jump\t// in\n    tag_26:\n      tag_28\n      jump\t// in\n    tag_25:\n      stop\n        /* \"contracts/TinToken.sol\":737:830  function totalSupply() public override view returns(uint) {... */\n    tag_5:\n      callvalue\n      dup1\n      iszero\n      tag_29\n      jumpi\n      0x00\n      dup1\n      revert\n    tag_29:\n      pop\n      tag_30\n      tag_31\n      jump\t// in\n    tag_30:\n      mload(0x40)\n      tag_32\n      swap2\n      swap1\n      tag_33\n      jump\t// in\n    tag_32:\n      mload(0x40)\n      dup1\n      swap2\n      sub\n      swap1\n      return\n        /* \"contracts/TinToken.sol\":1953:2251  function transferFrom(address sender, address recipient, uint amount) external override enoughTokens(sender, amount) {... */\n    tag_6:\n      callvalue\n      dup1\n      iszero\n      tag_34\n      jumpi\n      0x00\n      dup1\n      revert\n    tag_34:\n      pop\n      tag_35\n      0x04\n      dup1\n      calldatasize\n      sub\n      dup2\n      add\n      swap1\n      tag_36\n      swap2\n      swap1\n      tag_37\n      jump\t// in\n    tag_36:\n      tag_38\n      jump\t// in\n    tag_35:\n      stop\n        /* \"contracts/TinToken.sol\":651:731  function decimals() public override pure returns(uint) {... */\n    tag_7:\n      callvalue\n      dup1\n      iszero\n      tag_39\n      jumpi\n      0x00\n      dup1\n      revert\n    tag_39:\n      pop\n      tag_40\n      tag_41\n      jump\t// in\n    tag_40:\n      mload(0x40)\n      tag_42\n      swap2\n      swap1\n      tag_33\n      jump\t// in\n    tag_42:\n      mload(0x40)\n      dup1\n      swap2\n      sub\n      swap1\n      return\n        /* \"contracts/TinToken.sol\":2440:2650  function burn(uint amount) public enoughTokens(msg.sender, amount) onlyOwner {... */\n    tag_8:\n      callvalue\n      dup1\n      iszero\n      tag_43\n      jumpi\n      0x00\n      dup1\n      revert\n    tag_43:\n      pop\n      tag_44\n      0x04\n      dup1\n      calldatasize\n      sub\n      dup2\n      add\n      swap1\n      tag_45\n      swap2\n      swap1\n      tag_46\n      jump\t// in\n    tag_45:\n      tag_47\n      jump\t// in\n    tag_44:\n      stop\n        /* \"contracts/TinToken.sol\":836:948  function balanceOf(address account) public override view returns(uint) {... */\n    tag_9:\n      callvalue\n      dup1\n      iszero\n      tag_48\n      jumpi\n      0x00\n      dup1\n      revert\n    tag_48:\n      pop\n      tag_49\n      0x04\n      dup1\n      calldatasize\n      sub\n      dup2\n      add\n      swap1\n      tag_50\n      swap2\n      swap1\n      tag_51\n      jump\t// in\n    tag_50:\n      tag_52\n      jump\t// in\n    tag_49:\n      mload(0x40)\n      tag_53\n      swap2\n      swap1\n      tag_33\n      jump\t// in\n    tag_53:\n      mload(0x40)\n      dup1\n      swap2\n      sub\n      swap1\n      return\n        /* \"contracts/TinToken.sol\":293:321  string public symbol = \"TTN\" */\n    tag_10:\n      callvalue\n      dup1\n      iszero\n      tag_54\n      jumpi\n      0x00\n      dup1\n      revert\n    tag_54:\n      pop\n      tag_55\n      tag_56\n      jump\t// in\n    tag_55:\n      mload(0x40)\n      tag_57\n      swap2\n      swap1\n      tag_23\n      jump\t// in\n    tag_57:\n      mload(0x40)\n      dup1\n      swap2\n      sub\n      swap1\n      return\n        /* \"contracts/TinToken.sol\":2257:2434  function mint(uint amount) public onlyOwner {... */\n    tag_11:\n      callvalue\n      dup1\n      iszero\n      tag_58\n      jumpi\n      0x00\n      dup1\n      revert\n    tag_58:\n      pop\n      tag_59\n      0x04\n      dup1\n      calldatasize\n      sub\n      dup2\n      add\n      swap1\n      tag_60\n      swap2\n      swap1\n      tag_46\n      jump\t// in\n    tag_60:\n      tag_61\n      jump\t// in\n    tag_59:\n      stop\n        /* \"contracts/TinToken.sol\":1074:1294  function transfer(address to, uint amount) external override enoughTokens(msg.sender, amount) {... */\n    tag_12:\n      callvalue\n      dup1\n      iszero\n      tag_62\n      jumpi\n      0x00\n      dup1\n      revert\n    tag_62:\n      pop\n      tag_63\n      0x04\n      dup1\n      calldatasize\n      sub\n      dup2\n      add\n      swap1\n      tag_64\n      swap2\n      swap1\n      tag_27\n      jump\t// in\n    tag_64:\n      tag_65\n      jump\t// in\n    tag_63:\n      stop\n        /* \"contracts/TinToken.sol\":1401:1539  function allowance(address owner, address spender) external override view returns(uint) {... */\n    tag_13:\n      callvalue\n      dup1\n      iszero\n      tag_66\n      jumpi\n      0x00\n      dup1\n      revert\n    tag_66:\n      pop\n      tag_67\n      0x04\n      dup1\n      calldatasize\n      sub\n      dup2\n      add\n      swap1\n      tag_68\n      swap2\n      swap1\n      tag_69\n      jump\t// in\n    tag_68:\n      tag_70\n      jump\t// in\n    tag_67:\n      mload(0x40)\n      tag_71\n      swap2\n      swap1\n      tag_33\n      jump\t// in\n    tag_71:\n      mload(0x40)\n      dup1\n      swap2\n      sub\n      swap1\n      return\n        /* \"contracts/TinToken.sol\":256:287  string public name = \"TinToken\" */\n    tag_21:\n      0x04\n      dup1\n      sload\n      tag_72\n      swap1\n      tag_73\n      jump\t// in\n    tag_72:\n      dup1\n      0x1f\n      add\n      0x20\n      dup1\n      swap2\n      div\n      mul\n      0x20\n      add\n      mload(0x40)\n      swap1\n      dup2\n      add\n      0x40\n      mstore\n      dup1\n      swap3\n      swap2\n      swap1\n      dup2\n      dup2\n      mstore\n      0x20\n      add\n      dup3\n      dup1\n      sload\n      tag_74\n      swap1\n      tag_73\n      jump\t// in\n    tag_74:\n      dup1\n      iszero\n      tag_75\n      jumpi\n      dup1\n      0x1f\n      lt\n      tag_76\n      jumpi\n      0x0100\n      dup1\n      dup4\n      sload\n      div\n      mul\n      dup4\n      mstore\n      swap2\n      0x20\n      add\n      swap2\n      jump(tag_75)\n    tag_76:\n      dup3\n      add\n      swap2\n      swap1\n      0x00\n      mstore\n      keccak256(0x00, 0x20)\n      swap1\n    tag_77:\n      dup2\n      sload\n      dup2\n      mstore\n      swap1\n      0x01\n      add\n      swap1\n      0x20\n      add\n      dup1\n      dup4\n      gt\n      tag_77\n      jumpi\n      dup3\n      swap1\n      sub\n      0x1f\n      and\n      dup3\n      add\n      swap2\n    tag_75:\n      pop\n      pop\n      pop\n      pop\n      pop\n      dup2\n      jump\t// out\n        /* \"contracts/TinToken.sol\":1642:1816  function approve(address spender, uint amount) external override {... */\n    tag_28:\n        /* \"contracts/TinToken.sol\":1751:1757  amount */\n      dup1\n        /* \"contracts/TinToken.sol\":1717:1727  allowances */\n      0x03\n        /* \"contracts/TinToken.sol\":1717:1739  allowances[msg.sender] */\n      0x00\n        /* \"contracts/TinToken.sol\":1728:1738  msg.sender */\n      caller\n        /* \"contracts/TinToken.sol\":1717:1739  allowances[msg.sender] */\n      0xffffffffffffffffffffffffffffffffffffffff\n      and\n      0xffffffffffffffffffffffffffffffffffffffff\n      and\n      dup2\n      mstore\n      0x20\n      add\n      swap1\n      dup2\n      mstore\n      0x20\n      add\n      0x00\n      keccak256\n        /* \"contracts/TinToken.sol\":1717:1748  allowances[msg.sender][spender] */\n      0x00\n        /* \"contracts/TinToken.sol\":1740:1747  spender */\n      dup5\n        /* \"contracts/TinToken.sol\":1717:1748  allowances[msg.sender][spender] */\n      0xffffffffffffffffffffffffffffffffffffffff\n      and\n      0xffffffffffffffffffffffffffffffffffffffff\n      and\n      dup2\n      mstore\n      0x20\n      add\n      swap1\n      dup2\n      mstore\n      0x20\n      add\n      0x00\n      keccak256\n        /* \"contracts/TinToken.sol\":1717:1757  allowances[msg.sender][spender] = amount */\n      dup2\n      swap1\n      sstore\n      pop\n        /* \"contracts/TinToken.sol\":1793:1800  spender */\n      dup2\n        /* \"contracts/TinToken.sol\":1772:1809  Approval(msg.sender, spender, amount) */\n      0xffffffffffffffffffffffffffffffffffffffff\n      and\n        /* \"contracts/TinToken.sol\":1781:1791  msg.sender */\n      caller\n        /* \"contracts/TinToken.sol\":1772:1809  Approval(msg.sender, spender, amount) */\n      0xffffffffffffffffffffffffffffffffffffffff\n      and\n      0x8c5be1e5ebec7d5bd14f71427d1e84f3dd0314c0f7b2291e5b200ac8c7c3b925\n        /* \"contracts/TinToken.sol\":1802:1808  amount */\n      dup4\n        /* \"contracts/TinToken.sol\":1772:1809  Approval(msg.sender, spender, amount) */\n      mload(0x40)\n      tag_79\n      swap2\n      swap1\n      tag_33\n      jump\t// in\n    tag_79:\n      mload(0x40)\n      dup1\n      swap2\n      sub\n      swap1\n      log3\n        /* \"contracts/TinToken.sol\":1642:1816  function approve(address spender, uint amount) external override {... */\n      pop\n      pop\n      jump\t// out\n        /* \"contracts/TinToken.sol\":737:830  function totalSupply() public override view returns(uint) {... */\n    tag_31:\n        /* \"contracts/TinToken.sol\":789:793  uint */\n      0x00\n        /* \"contracts/TinToken.sol\":812:823  totalTokens */\n      sload(0x01)\n        /* \"contracts/TinToken.sol\":805:823  return totalTokens */\n      swap1\n      pop\n        /* \"contracts/TinToken.sol\":737:830  function totalSupply() public override view returns(uint) {... */\n      swap1\n      jump\t// out\n        /* \"contracts/TinToken.sol\":1953:2251  function transferFrom(address sender, address recipient, uint amount) external override enoughTokens(sender, amount) {... */\n    tag_38:\n        /* \"contracts/TinToken.sol\":2054:2060  sender */\n      dup3\n        /* \"contracts/TinToken.sol\":2062:2068  amount */\n      dup2\n        /* \"contracts/TinToken.sol\":491:498  _amount */\n      dup1\n        /* \"contracts/TinToken.sol\":471:487  balanceOf(_from) */\n      tag_82\n        /* \"contracts/TinToken.sol\":481:486  _from */\n      dup4\n        /* \"contracts/TinToken.sol\":471:480  balanceOf */\n      tag_52\n        /* \"contracts/TinToken.sol\":471:487  balanceOf(_from) */\n      jump\t// in\n    tag_82:\n        /* \"contracts/TinToken.sol\":471:498  balanceOf(_from) >= _amount */\n      lt\n      iszero\n        /* \"contracts/TinToken.sol\":463:521  require(balanceOf(_from) >= _amount, \"Not enough tokens!\") */\n      tag_83\n      jumpi\n      mload(0x40)\n      0x08c379a000000000000000000000000000000000000000000000000000000000\n      dup2\n      mstore\n      0x04\n      add\n      tag_84\n      swap1\n      tag_85\n      jump\t// in\n    tag_84:\n      mload(0x40)\n      dup1\n      swap2\n      sub\n      swap1\n      revert\n    tag_83:\n        /* \"contracts/TinToken.sol\":2113:2119  amount */\n      dup3\n        /* \"contracts/TinToken.sol\":2080:2090  allowances */\n      0x03\n        /* \"contracts/TinToken.sol\":2080:2098  allowances[sender] */\n      0x00\n        /* \"contracts/TinToken.sol\":2091:2097  sender */\n      dup8\n        /* \"contracts/TinToken.sol\":2080:2098  allowances[sender] */\n      0xffffffffffffffffffffffffffffffffffffffff\n      and\n      0xffffffffffffffffffffffffffffffffffffffff\n      and\n      dup2\n      mstore\n      0x20\n      add\n      swap1\n      dup2\n      mstore\n      0x20\n      add\n      0x00\n      keccak256\n        /* \"contracts/TinToken.sol\":2080:2109  allowances[sender][recipient] */\n      0x00\n        /* \"contracts/TinToken.sol\":2099:2108  recipient */\n      dup7\n        /* \"contracts/TinToken.sol\":2080:2109  allowances[sender][recipient] */\n      0xffffffffffffffffffffffffffffffffffffffff\n      and\n      0xffffffffffffffffffffffffffffffffffffffff\n      and\n      dup2\n      mstore\n      0x20\n      add\n      swap1\n      dup2\n      mstore\n      0x20\n      add\n      0x00\n      keccak256\n      0x00\n        /* \"contracts/TinToken.sol\":2080:2119  allowances[sender][recipient] -= amount */\n      dup3\n      dup3\n      sload\n      tag_87\n      swap2\n      swap1\n      tag_88\n      jump\t// in\n    tag_87:\n      swap3\n      pop\n      pop\n      dup2\n      swap1\n      sstore\n      pop\n        /* \"contracts/TinToken.sol\":2149:2155  amount */\n      dup3\n        /* \"contracts/TinToken.sol\":2129:2137  balances */\n      0x02\n        /* \"contracts/TinToken.sol\":2129:2145  balances[sender] */\n      0x00\n        /* \"contracts/TinToken.sol\":2138:2144  sender */\n      dup8\n        /* \"contracts/TinToken.sol\":2129:2145  balances[sender] */\n      0xffffffffffffffffffffffffffffffffffffffff\n      and\n      0xffffffffffffffffffffffffffffffffffffffff\n      and\n      dup2\n      mstore\n      0x20\n      add\n      swap1\n      dup2\n      mstore\n      0x20\n      add\n      0x00\n      keccak256\n      0x00\n        /* \"contracts/TinToken.sol\":2129:2155  balances[sender] -= amount */\n      dup3\n      dup3\n      sload\n      tag_89\n      swap2\n      swap1\n      tag_88\n      jump\t// in\n    tag_89:\n      swap3\n      pop\n      pop\n      dup2\n      swap1\n      sstore\n      pop\n        /* \"contracts/TinToken.sol\":2188:2194  amount */\n      dup3\n        /* \"contracts/TinToken.sol\":2165:2173  balances */\n      0x02\n        /* \"contracts/TinToken.sol\":2165:2184  balances[recipient] */\n      0x00\n        /* \"contracts/TinToken.sol\":2174:2183  recipient */\n      dup7\n        /* \"contracts/TinToken.sol\":2165:2184  balances[recipient] */\n      0xffffffffffffffffffffffffffffffffffffffff\n      and\n      0xffffffffffffffffffffffffffffffffffffffff\n      and\n      dup2\n      mstore\n      0x20\n      add\n      swap1\n      dup2\n      mstore\n      0x20\n      add\n      0x00\n      keccak256\n      0x00\n        /* \"contracts/TinToken.sol\":2165:2194  balances[recipient] += amount */\n      dup3\n      dup3\n      sload\n      tag_90\n      swap2\n      swap1\n      tag_91\n      jump\t// in\n    tag_90:\n      swap3\n      pop\n      pop\n      dup2\n      swap1\n      sstore\n      pop\n        /* \"contracts/TinToken.sol\":2226:2235  recipient */\n      dup4\n        /* \"contracts/TinToken.sol\":2209:2244  Transfer(sender, recipient, amount) */\n      0xffffffffffffffffffffffffffffffffffffffff\n      and\n        /* \"contracts/TinToken.sol\":2218:2224  sender */\n      dup6\n        /* \"contracts/TinToken.sol\":2209:2244  Transfer(sender, recipient, amount) */\n      0xffffffffffffffffffffffffffffffffffffffff\n      and\n      0xddf252ad1be2c89b69c2b068fc378daa952ba7f163c4a11628f55a4df523b3ef\n        /* \"contracts/TinToken.sol\":2237:2243  amount */\n      dup6\n        /* \"contracts/TinToken.sol\":2209:2244  Transfer(sender, recipient, amount) */\n      mload(0x40)\n      tag_92\n      swap2\n      swap1\n      tag_33\n      jump\t// in\n    tag_92:\n      mload(0x40)\n      dup1\n      swap2\n      sub\n      swap1\n      log3\n        /* \"contracts/TinToken.sol\":1953:2251  function transferFrom(address sender, address recipient, uint amount) external override enoughTokens(sender, amount) {... */\n      pop\n      pop\n      pop\n      pop\n      pop\n      jump\t// out\n        /* \"contracts/TinToken.sol\":651:731  function decimals() public override pure returns(uint) {... */\n    tag_41:\n        /* \"contracts/TinToken.sol\":700:704  uint */\n      0x00\n        /* \"contracts/TinToken.sol\":651:731  function decimals() public override pure returns(uint) {... */\n      swap1\n      jump\t// out\n        /* \"contracts/TinToken.sol\":2440:2650  function burn(uint amount) public enoughTokens(msg.sender, amount) onlyOwner {... */\n    tag_47:\n        /* \"contracts/TinToken.sol\":2487:2497  msg.sender */\n      caller\n        /* \"contracts/TinToken.sol\":2499:2505  amount */\n      dup2\n        /* \"contracts/TinToken.sol\":491:498  _amount */\n      dup1\n        /* \"contracts/TinToken.sol\":471:487  balanceOf(_from) */\n      tag_95\n        /* \"contracts/TinToken.sol\":481:486  _from */\n      dup4\n        /* \"contracts/TinToken.sol\":471:480  balanceOf */\n      tag_52\n        /* \"contracts/TinToken.sol\":471:487  balanceOf(_from) */\n      jump\t// in\n    tag_95:\n        /* \"contracts/TinToken.sol\":471:498  balanceOf(_from) >= _amount */\n      lt\n      iszero\n        /* \"contracts/TinToken.sol\":463:521  require(balanceOf(_from) >= _amount, \"Not enough tokens!\") */\n      tag_96\n      jumpi\n      mload(0x40)\n      0x08c379a000000000000000000000000000000000000000000000000000000000\n      dup2\n      mstore\n      0x04\n      add\n      tag_97\n      swap1\n      tag_85\n      jump\t// in\n    tag_97:\n      mload(0x40)\n      dup1\n      swap2\n      sub\n      swap1\n      revert\n    tag_96:\n        /* \"contracts/TinToken.sol\":596:601  owner */\n      0x00\n      dup1\n      sload\n      swap1\n      0x0100\n      exp\n      swap1\n      div\n      0xffffffffffffffffffffffffffffffffffffffff\n      and\n        /* \"contracts/TinToken.sol\":582:601  msg.sender == owner */\n      0xffffffffffffffffffffffffffffffffffffffff\n      and\n        /* \"contracts/TinToken.sol\":582:592  msg.sender */\n      caller\n        /* \"contracts/TinToken.sol\":582:601  msg.sender == owner */\n      0xffffffffffffffffffffffffffffffffffffffff\n      and\n      eq\n        /* \"contracts/TinToken.sol\":574:627  require(msg.sender == owner, \"You are not an owner!\") */\n      tag_99\n      jumpi\n      mload(0x40)\n      0x08c379a000000000000000000000000000000000000000000000000000000000\n      dup2\n      mstore\n      0x04\n      add\n      tag_100\n      swap1\n      tag_101\n      jump\t// in\n    tag_100:\n      mload(0x40)\n      dup1\n      swap2\n      sub\n      swap1\n      revert\n    tag_99:\n        /* \"contracts/TinToken.sol\":2551:2557  amount */\n      dup3\n        /* \"contracts/TinToken.sol\":2527:2535  balances */\n      0x02\n        /* \"contracts/TinToken.sol\":2527:2547  balances[msg.sender] */\n      0x00\n        /* \"contracts/TinToken.sol\":2536:2546  msg.sender */\n      caller\n        /* \"contracts/TinToken.sol\":2527:2547  balances[msg.sender] */\n      0xffffffffffffffffffffffffffffffffffffffff\n      and\n      0xffffffffffffffffffffffffffffffffffffffff\n      and\n      dup2\n      mstore\n      0x20\n      add\n      swap1\n      dup2\n      mstore\n      0x20\n      add\n      0x00\n      keccak256\n      0x00\n        /* \"contracts/TinToken.sol\":2527:2557  balances[msg.sender] -= amount */\n      dup3\n      dup3\n      sload\n      tag_103\n      swap2\n      swap1\n      tag_88\n      jump\t// in\n    tag_103:\n      swap3\n      pop\n      pop\n      dup2\n      swap1\n      sstore\n      pop\n        /* \"contracts/TinToken.sol\":2582:2588  amount */\n      dup3\n        /* \"contracts/TinToken.sol\":2567:2578  totalTokens */\n      0x01\n      0x00\n        /* \"contracts/TinToken.sol\":2567:2588  totalTokens -= amount */\n      dup3\n      dup3\n      sload\n      tag_104\n      swap2\n      swap1\n      tag_88\n      jump\t// in\n    tag_104:\n      swap3\n      pop\n      pop\n      dup2\n      swap1\n      sstore\n      pop\n        /* \"contracts/TinToken.sol\":2632:2633  0 */\n      0x00\n        /* \"contracts/TinToken.sol\":2603:2643  Transfer(msg.sender, address(0), amount) */\n      0xffffffffffffffffffffffffffffffffffffffff\n      and\n        /* \"contracts/TinToken.sol\":2612:2622  msg.sender */\n      caller\n        /* \"contracts/TinToken.sol\":2603:2643  Transfer(msg.sender, address(0), amount) */\n      0xffffffffffffffffffffffffffffffffffffffff\n      and\n      0xddf252ad1be2c89b69c2b068fc378daa952ba7f163c4a11628f55a4df523b3ef\n        /* \"contracts/TinToken.sol\":2636:2642  amount */\n      dup6\n        /* \"contracts/TinToken.sol\":2603:2643  Transfer(msg.sender, address(0), amount) */\n      mload(0x40)\n      tag_105\n      swap2\n      swap1\n      tag_33\n      jump\t// in\n    tag_105:\n      mload(0x40)\n      dup1\n      swap2\n      sub\n      swap1\n      log3\n        /* \"contracts/TinToken.sol\":2440:2650  function burn(uint amount) public enoughTokens(msg.sender, amount) onlyOwner {... */\n      pop\n      pop\n      pop\n      jump\t// out\n        /* \"contracts/TinToken.sol\":836:948  function balanceOf(address account) public override view returns(uint) {... */\n    tag_52:\n        /* \"contracts/TinToken.sol\":901:905  uint */\n      0x00\n        /* \"contracts/TinToken.sol\":924:932  balances */\n      0x02\n        /* \"contracts/TinToken.sol\":924:941  balances[account] */\n      0x00\n        /* \"contracts/TinToken.sol\":933:940  account */\n      dup4\n        /* \"contracts/TinToken.sol\":924:941  balances[account] */\n      0xffffffffffffffffffffffffffffffffffffffff\n      and\n      0xffffffffffffffffffffffffffffffffffffffff\n      and\n      dup2\n      mstore\n      0x20\n      add\n      swap1\n      dup2\n      mstore\n      0x20\n      add\n      0x00\n      keccak256\n      sload\n        /* \"contracts/TinToken.sol\":917:941  return balances[account] */\n      swap1\n      pop\n        /* \"contracts/TinToken.sol\":836:948  function balanceOf(address account) public override view returns(uint) {... */\n      swap2\n      swap1\n      pop\n      jump\t// out\n        /* \"contracts/TinToken.sol\":293:321  string public symbol = \"TTN\" */\n    tag_56:\n      0x05\n      dup1\n      sload\n      tag_107\n      swap1\n      tag_73\n      jump\t// in\n    tag_107:\n      dup1\n      0x1f\n      add\n      0x20\n      dup1\n      swap2\n      div\n      mul\n      0x20\n      add\n      mload(0x40)\n      swap1\n      dup2\n      add\n      0x40\n      mstore\n      dup1\n      swap3\n      swap2\n      swap1\n      dup2\n      dup2\n      mstore\n      0x20\n      add\n      dup3\n      dup1\n      sload\n      tag_108\n      swap1\n      tag_73\n      jump\t// in\n    tag_108:\n      dup1\n      iszero\n      tag_109\n      jumpi\n      dup1\n      0x1f\n      lt\n      tag_110\n      jumpi\n      0x0100\n      dup1\n      dup4\n      sload\n      div\n      mul\n      dup4\n      mstore\n      swap2\n      0x20\n      add\n      swap2\n      jump(tag_109)\n    tag_110:\n      dup3\n      add\n      swap2\n      swap1\n      0x00\n      mstore\n      keccak256(0x00, 0x20)\n      swap1\n    tag_111:\n      dup2\n      sload\n      dup2\n      mstore\n      swap1\n      0x01\n      add\n      swap1\n      0x20\n      add\n      dup1\n      dup4\n      gt\n      tag_111\n      jumpi\n      dup3\n      swap1\n      sub\n      0x1f\n      and\n      dup3\n      add\n      swap2\n    tag_109:\n      pop\n      pop\n      pop\n      pop\n      pop\n      dup2\n      jump\t// out\n        /* \"contracts/TinToken.sol\":2257:2434  function mint(uint amount) public onlyOwner {... */\n    tag_61:\n        /* \"contracts/TinToken.sol\":596:601  owner */\n      0x00\n      dup1\n      sload\n      swap1\n      0x0100\n      exp\n      swap1\n      div\n      0xffffffffffffffffffffffffffffffffffffffff\n      and\n        /* \"contracts/TinToken.sol\":582:601  msg.sender == owner */\n      0xffffffffffffffffffffffffffffffffffffffff\n      and\n        /* \"contracts/TinToken.sol\":582:592  msg.sender */\n      caller\n        /* \"contracts/TinToken.sol\":582:601  msg.sender == owner */\n      0xffffffffffffffffffffffffffffffffffffffff\n      and\n      eq\n        /* \"contracts/TinToken.sol\":574:627  require(msg.sender == owner, \"You are not an owner!\") */\n      tag_113\n      jumpi\n      mload(0x40)\n      0x08c379a000000000000000000000000000000000000000000000000000000000\n      dup2\n      mstore\n      0x04\n      add\n      tag_114\n      swap1\n      tag_101\n      jump\t// in\n    tag_114:\n      mload(0x40)\n      dup1\n      swap2\n      sub\n      swap1\n      revert\n    tag_113:\n        /* \"contracts/TinToken.sol\":2335:2341  amount */\n      dup1\n        /* \"contracts/TinToken.sol\":2311:2319  balances */\n      0x02\n        /* \"contracts/TinToken.sol\":2311:2331  balances[msg.sender] */\n      0x00\n        /* \"contracts/TinToken.sol\":2320:2330  msg.sender */\n      caller\n        /* \"contracts/TinToken.sol\":2311:2331  balances[msg.sender] */\n      0xffffffffffffffffffffffffffffffffffffffff\n      and\n      0xffffffffffffffffffffffffffffffffffffffff\n      and\n      dup2\n      mstore\n      0x20\n      add\n      swap1\n      dup2\n      mstore\n      0x20\n      add\n      0x00\n      keccak256\n      0x00\n        /* \"contracts/TinToken.sol\":2311:2341  balances[msg.sender] += amount */\n      dup3\n      dup3\n      sload\n      tag_116\n      swap2\n      swap1\n      tag_91\n      jump\t// in\n    tag_116:\n      swap3\n      pop\n      pop\n      dup2\n      swap1\n      sstore\n      pop\n        /* \"contracts/TinToken.sol\":2366:2372  amount */\n      dup1\n        /* \"contracts/TinToken.sol\":2351:2362  totalTokens */\n      0x01\n      0x00\n        /* \"contracts/TinToken.sol\":2351:2372  totalTokens += amount */\n      dup3\n      dup3\n      sload\n      tag_117\n      swap2\n      swap1\n      tag_91\n      jump\t// in\n    tag_117:\n      swap3\n      pop\n      pop\n      dup2\n      swap1\n      sstore\n      pop\n        /* \"contracts/TinToken.sol\":2408:2418  msg.sender */\n      caller\n        /* \"contracts/TinToken.sol\":2387:2427  Transfer(address(0), msg.sender, amount) */\n      0xffffffffffffffffffffffffffffffffffffffff\n      and\n        /* \"contracts/TinToken.sol\":2404:2405  0 */\n      0x00\n        /* \"contracts/TinToken.sol\":2387:2427  Transfer(address(0), msg.sender, amount) */\n      0xffffffffffffffffffffffffffffffffffffffff\n      and\n      0xddf252ad1be2c89b69c2b068fc378daa952ba7f163c4a11628f55a4df523b3ef\n        /* \"contracts/TinToken.sol\":2420:2426  amount */\n      dup4\n        /* \"contracts/TinToken.sol\":2387:2427  Transfer(address(0), msg.sender, amount) */\n      mload(0x40)\n      tag_118\n      swap2\n      swap1\n      tag_33\n      jump\t// in\n    tag_118:\n      mload(0x40)\n      dup1\n      swap2\n      sub\n      swap1\n      log3\n        /* \"contracts/TinToken.sol\":2257:2434  function mint(uint amount) public onlyOwner {... */\n      pop\n      jump\t// out\n        /* \"contracts/TinToken.sol\":1074:1294  function transfer(address to, uint amount) external override enoughTokens(msg.sender, amount) {... */\n    tag_65:\n        /* \"contracts/TinToken.sol\":1148:1158  msg.sender */\n      caller\n        /* \"contracts/TinToken.sol\":1160:1166  amount */\n      dup2\n        /* \"contracts/TinToken.sol\":491:498  _amount */\n      dup1\n        /* \"contracts/TinToken.sol\":471:487  balanceOf(_from) */\n      tag_120\n        /* \"contracts/TinToken.sol\":481:486  _from */\n      dup4\n        /* \"contracts/TinToken.sol\":471:480  balanceOf */\n      tag_52\n        /* \"contracts/TinToken.sol\":471:487  balanceOf(_from) */\n      jump\t// in\n    tag_120:\n        /* \"contracts/TinToken.sol\":471:498  balanceOf(_from) >= _amount */\n      lt\n      iszero\n        /* \"contracts/TinToken.sol\":463:521  require(balanceOf(_from) >= _amount, \"Not enough tokens!\") */\n      tag_121\n      jumpi\n      mload(0x40)\n      0x08c379a000000000000000000000000000000000000000000000000000000000\n      dup2\n      mstore\n      0x04\n      add\n      tag_122\n      swap1\n      tag_85\n      jump\t// in\n    tag_122:\n      mload(0x40)\n      dup1\n      swap2\n      sub\n      swap1\n      revert\n    tag_121:\n        /* \"contracts/TinToken.sol\":1202:1208  amount */\n      dup3\n        /* \"contracts/TinToken.sol\":1178:1186  balances */\n      0x02\n        /* \"contracts/TinToken.sol\":1178:1198  balances[msg.sender] */\n      0x00\n        /* \"contracts/TinToken.sol\":1187:1197  msg.sender */\n      caller\n        /* \"contracts/TinToken.sol\":1178:1198  balances[msg.sender] */\n      0xffffffffffffffffffffffffffffffffffffffff\n      and\n      0xffffffffffffffffffffffffffffffffffffffff\n      and\n      dup2\n      mstore\n      0x20\n      add\n      swap1\n      dup2\n      mstore\n      0x20\n      add\n      0x00\n      keccak256\n      0x00\n        /* \"contracts/TinToken.sol\":1178:1208  balances[msg.sender] -= amount */\n      dup3\n      dup3\n      sload\n      tag_124\n      swap2\n      swap1\n      tag_88\n      jump\t// in\n    tag_124:\n      swap3\n      pop\n      pop\n      dup2\n      swap1\n      sstore\n      pop\n        /* \"contracts/TinToken.sol\":1234:1240  amount */\n      dup3\n        /* \"contracts/TinToken.sol\":1218:1226  balances */\n      0x02\n        /* \"contracts/TinToken.sol\":1218:1230  balances[to] */\n      0x00\n        /* \"contracts/TinToken.sol\":1227:1229  to */\n      dup7\n        /* \"contracts/TinToken.sol\":1218:1230  balances[to] */\n      0xffffffffffffffffffffffffffffffffffffffff\n      and\n      0xffffffffffffffffffffffffffffffffffffffff\n      and\n      dup2\n      mstore\n      0x20\n      add\n      swap1\n      dup2\n      mstore\n      0x20\n      add\n      0x00\n      keccak256\n      0x00\n        /* \"contracts/TinToken.sol\":1218:1240  balances[to] += amount */\n      dup3\n      dup3\n      sload\n      tag_125\n      swap2\n      swap1\n      tag_91\n      jump\t// in\n    tag_125:\n      swap3\n      pop\n      pop\n      dup2\n      swap1\n      sstore\n      pop\n        /* \"contracts/TinToken.sol\":1276:1278  to */\n      dup4\n        /* \"contracts/TinToken.sol\":1255:1287  Transfer(msg.sender, to ,amount) */\n      0xffffffffffffffffffffffffffffffffffffffff\n      and\n        /* \"contracts/TinToken.sol\":1264:1274  msg.sender */\n      caller\n        /* \"contracts/TinToken.sol\":1255:1287  Transfer(msg.sender, to ,amount) */\n      0xffffffffffffffffffffffffffffffffffffffff\n      and\n      0xddf252ad1be2c89b69c2b068fc378daa952ba7f163c4a11628f55a4df523b3ef\n        /* \"contracts/TinToken.sol\":1280:1286  amount */\n      dup6\n        /* \"contracts/TinToken.sol\":1255:1287  Transfer(msg.sender, to ,amount) */\n      mload(0x40)\n      tag_126\n      swap2\n      swap1\n      tag_33\n      jump\t// in\n    tag_126:\n      mload(0x40)\n      dup1\n      swap2\n      sub\n      swap1\n      log3\n        /* \"contracts/TinToken.sol\":1074:1294  function transfer(address to, uint amount) external override enoughTokens(msg.sender, amount) {... */\n      pop\n      pop\n      pop\n      pop\n      jump\t// out\n        /* \"contracts/TinToken.sol\":1401:1539  function allowance(address owner, address spender) external override view returns(uint) {... */\n    tag_70:\n        /* \"contracts/TinToken.sol\":1483:1487  uint */\n      0x00\n        /* \"contracts/TinToken.sol\":1506:1516  allowances */\n      0x03\n        /* \"contracts/TinToken.sol\":1506:1523  allowances[owner] */\n      0x00\n        /* \"contracts/TinToken.sol\":1517:1522  owner */\n      dup5\n        /* \"contracts/TinToken.sol\":1506:1523  allowances[owner] */\n      0xffffffffffffffffffffffffffffffffffffffff\n      and\n      0xffffffffffffffffffffffffffffffffffffffff\n      and\n      dup2\n      mstore\n      0x20\n      add\n      swap1\n      dup2\n      mstore\n      0x20\n      add\n      0x00\n      keccak256\n        /* \"contracts/TinToken.sol\":1506:1532  allowances[owner][spender] */\n      0x00\n        /* \"contracts/TinToken.sol\":1524:1531  spender */\n      dup4\n        /* \"contracts/TinToken.sol\":1506:1532  allowances[owner][spender] */\n      0xffffffffffffffffffffffffffffffffffffffff\n      and\n      0xffffffffffffffffffffffffffffffffffffffff\n      and\n      dup2\n      mstore\n      0x20\n      add\n      swap1\n      dup2\n      mstore\n      0x20\n      add\n      0x00\n      keccak256\n      sload\n        /* \"contracts/TinToken.sol\":1499:1532  return allowances[owner][spender] */\n      swap1\n      pop\n        /* \"contracts/TinToken.sol\":1401:1539  function allowance(address owner, address spender) external override view returns(uint) {... */\n      swap3\n      swap2\n      pop\n      pop\n      jump\t// out\n        /* \"#utility.yul\":7:146   */\n    tag_129:\n        /* \"#utility.yul\":53:58   */\n      0x00\n        /* \"#utility.yul\":91:97   */\n      dup2\n        /* \"#utility.yul\":78:98   */\n      calldataload\n        /* \"#utility.yul\":69:98   */\n      swap1\n      pop\n        /* \"#utility.yul\":107:140   */\n      tag_131\n        /* \"#utility.yul\":134:139   */\n      dup2\n        /* \"#utility.yul\":107:140   */\n      tag_132\n      jump\t// in\n    tag_131:\n        /* \"#utility.yul\":7:146   */\n      swap3\n      swap2\n      pop\n      pop\n      jump\t// out\n        /* \"#utility.yul\":152:291   */\n    tag_133:\n        /* \"#utility.yul\":198:203   */\n      0x00\n        /* \"#utility.yul\":236:242   */\n      dup2\n        /* \"#utility.yul\":223:243   */\n      calldataload\n        /* \"#utility.yul\":214:243   */\n      swap1\n      pop\n        /* \"#utility.yul\":252:285   */\n      tag_135\n        /* \"#utility.yul\":279:284   */\n      dup2\n        /* \"#utility.yul\":252:285   */\n      tag_136\n      jump\t// in\n    tag_135:\n        /* \"#utility.yul\":152:291   */\n      swap3\n      swap2\n      pop\n      pop\n      jump\t// out\n        /* \"#utility.yul\":297:626   */\n    tag_51:\n        /* \"#utility.yul\":356:362   */\n      0x00\n        /* \"#utility.yul\":405:407   */\n      0x20\n        /* \"#utility.yul\":393:402   */\n      dup3\n        /* \"#utility.yul\":384:391   */\n      dup5\n        /* \"#utility.yul\":380:403   */\n      sub\n        /* \"#utility.yul\":376:408   */\n      slt\n        /* \"#utility.yul\":373:492   */\n      iszero\n      tag_138\n      jumpi\n        /* \"#utility.yul\":411:490   */\n      tag_139\n      tag_140\n      jump\t// in\n    tag_139:\n        /* \"#utility.yul\":373:492   */\n    tag_138:\n        /* \"#utility.yul\":531:532   */\n      0x00\n        /* \"#utility.yul\":556:609   */\n      tag_141\n        /* \"#utility.yul\":601:608   */\n      dup5\n        /* \"#utility.yul\":592:598   */\n      dup3\n        /* \"#utility.yul\":581:590   */\n      dup6\n        /* \"#utility.yul\":577:599   */\n      add\n        /* \"#utility.yul\":556:609   */\n      tag_129\n      jump\t// in\n    tag_141:\n        /* \"#utility.yul\":546:609   */\n      swap2\n      pop\n        /* \"#utility.yul\":502:619   */\n      pop\n        /* \"#utility.yul\":297:626   */\n      swap3\n      swap2\n      pop\n      pop\n      jump\t// out\n        /* \"#utility.yul\":632:1106   */\n    tag_69:\n        /* \"#utility.yul\":700:706   */\n      0x00\n        /* \"#utility.yul\":708:714   */\n      dup1\n        /* \"#utility.yul\":757:759   */\n      0x40\n        /* \"#utility.yul\":745:754   */\n      dup4\n        /* \"#utility.yul\":736:743   */\n      dup6\n        /* \"#utility.yul\":732:755   */\n      sub\n        /* \"#utility.yul\":728:760   */\n      slt\n        /* \"#utility.yul\":725:844   */\n      iszero\n      tag_143\n      jumpi\n        /* \"#utility.yul\":763:842   */\n      tag_144\n      tag_140\n      jump\t// in\n    tag_144:\n        /* \"#utility.yul\":725:844   */\n    tag_143:\n        /* \"#utility.yul\":883:884   */\n      0x00\n        /* \"#utility.yul\":908:961   */\n      tag_145\n        /* \"#utility.yul\":953:960   */\n      dup6\n        /* \"#utility.yul\":944:950   */\n      dup3\n        /* \"#utility.yul\":933:942   */\n      dup7\n        /* \"#utility.yul\":929:951   */\n      add\n        /* \"#utility.yul\":908:961   */\n      tag_129\n      jump\t// in\n    tag_145:\n        /* \"#utility.yul\":898:961   */\n      swap3\n      pop\n        /* \"#utility.yul\":854:971   */\n      pop\n        /* \"#utility.yul\":1010:1012   */\n      0x20\n        /* \"#utility.yul\":1036:1089   */\n      tag_146\n        /* \"#utility.yul\":1081:1088   */\n      dup6\n        /* \"#utility.yul\":1072:1078   */\n      dup3\n        /* \"#utility.yul\":1061:1070   */\n      dup7\n        /* \"#utility.yul\":1057:1079   */\n      add\n        /* \"#utility.yul\":1036:1089   */\n      tag_129\n      jump\t// in\n    tag_146:\n        /* \"#utility.yul\":1026:1089   */\n      swap2\n      pop\n        /* \"#utility.yul\":981:1099   */\n      pop\n        /* \"#utility.yul\":632:1106   */\n      swap3\n      pop\n      swap3\n      swap1\n      pop\n      jump\t// out\n        /* \"#utility.yul\":1112:1731   */\n    tag_37:\n        /* \"#utility.yul\":1189:1195   */\n      0x00\n        /* \"#utility.yul\":1197:1203   */\n      dup1\n        /* \"#utility.yul\":1205:1211   */\n      0x00\n        /* \"#utility.yul\":1254:1256   */\n      0x60\n        /* \"#utility.yul\":1242:1251   */\n      dup5\n        /* \"#utility.yul\":1233:1240   */\n      dup7\n        /* \"#utility.yul\":1229:1252   */\n      sub\n        /* \"#utility.yul\":1225:1257   */\n      slt\n        /* \"#utility.yul\":1222:1341   */\n      iszero\n      tag_148\n      jumpi\n        /* \"#utility.yul\":1260:1339   */\n      tag_149\n      tag_140\n      jump\t// in\n    tag_149:\n        /* \"#utility.yul\":1222:1341   */\n    tag_148:\n        /* \"#utility.yul\":1380:1381   */\n      0x00\n        /* \"#utility.yul\":1405:1458   */\n      tag_150\n        /* \"#utility.yul\":1450:1457   */\n      dup7\n        /* \"#utility.yul\":1441:1447   */\n      dup3\n        /* \"#utility.yul\":1430:1439   */\n      dup8\n        /* \"#utility.yul\":1426:1448   */\n      add\n        /* \"#utility.yul\":1405:1458   */\n      tag_129\n      jump\t// in\n    tag_150:\n        /* \"#utility.yul\":1395:1458   */\n      swap4\n      pop\n        /* \"#utility.yul\":1351:1468   */\n      pop\n        /* \"#utility.yul\":1507:1509   */\n      0x20\n        /* \"#utility.yul\":1533:1586   */\n      tag_151\n        /* \"#utility.yul\":1578:1585   */\n      dup7\n        /* \"#utility.yul\":1569:1575   */\n      dup3\n        /* \"#utility.yul\":1558:1567   */\n      dup8\n        /* \"#utility.yul\":1554:1576   */\n      add\n        /* \"#utility.yul\":1533:1586   */\n      tag_129\n      jump\t// in\n    tag_151:\n        /* \"#utility.yul\":1523:1586   */\n      swap3\n      pop\n        /* \"#utility.yul\":1478:1596   */\n      pop\n        /* \"#utility.yul\":1635:1637   */\n      0x40\n        /* \"#utility.yul\":1661:1714   */\n      tag_152\n        /* \"#utility.yul\":1706:1713   */\n      dup7\n        /* \"#utility.yul\":1697:1703   */\n      dup3\n        /* \"#utility.yul\":1686:1695   */\n      dup8\n        /* \"#utility.yul\":1682:1704   */\n      add\n        /* \"#utility.yul\":1661:1714   */\n      tag_133\n      jump\t// in\n    tag_152:\n        /* \"#utility.yul\":1651:1714   */\n      swap2\n      pop\n        /* \"#utility.yul\":1606:1724   */\n      pop\n        /* \"#utility.yul\":1112:1731   */\n      swap3\n      pop\n      swap3\n      pop\n      swap3\n      jump\t// out\n        /* \"#utility.yul\":1737:2211   */\n    tag_27:\n        /* \"#utility.yul\":1805:1811   */\n      0x00\n        /* \"#utility.yul\":1813:1819   */\n      dup1\n        /* \"#utility.yul\":1862:1864   */\n      0x40\n        /* \"#utility.yul\":1850:1859   */\n      dup4\n        /* \"#utility.yul\":1841:1848   */\n      dup6\n        /* \"#utility.yul\":1837:1860   */\n      sub\n        /* \"#utility.yul\":1833:1865   */\n      slt\n        /* \"#utility.yul\":1830:1949   */\n      iszero\n      tag_154\n      jumpi\n        /* \"#utility.yul\":1868:1947   */\n      tag_155\n      tag_140\n      jump\t// in\n    tag_155:\n        /* \"#utility.yul\":1830:1949   */\n    tag_154:\n        /* \"#utility.yul\":1988:1989   */\n      0x00\n        /* \"#utility.yul\":2013:2066   */\n      tag_156\n        /* \"#utility.yul\":2058:2065   */\n      dup6\n        /* \"#utility.yul\":2049:2055   */\n      dup3\n        /* \"#utility.yul\":2038:2047   */\n      dup7\n        /* \"#utility.yul\":2034:2056   */\n      add\n        /* \"#utility.yul\":2013:2066   */\n      tag_129\n      jump\t// in\n    tag_156:\n        /* \"#utility.yul\":2003:2066   */\n      swap3\n      pop\n        /* \"#utility.yul\":1959:2076   */\n      pop\n        /* \"#utility.yul\":2115:2117   */\n      0x20\n        /* \"#utility.yul\":2141:2194   */\n      tag_157\n        /* \"#utility.yul\":2186:2193   */\n      dup6\n        /* \"#utility.yul\":2177:2183   */\n      dup3\n        /* \"#utility.yul\":2166:2175   */\n      dup7\n        /* \"#utility.yul\":2162:2184   */\n      add\n        /* \"#utility.yul\":2141:2194   */\n      tag_133\n      jump\t// in\n    tag_157:\n        /* \"#utility.yul\":2131:2194   */\n      swap2\n      pop\n        /* \"#utility.yul\":2086:2204   */\n      pop\n        /* \"#utility.yul\":1737:2211   */\n      swap3\n      pop\n      swap3\n      swap1\n      pop\n      jump\t// out\n        /* \"#utility.yul\":2217:2546   */\n    tag_46:\n        /* \"#utility.yul\":2276:2282   */\n      0x00\n        /* \"#utility.yul\":2325:2327   */\n      0x20\n        /* \"#utility.yul\":2313:2322   */\n      dup3\n        /* \"#utility.yul\":2304:2311   */\n      dup5\n        /* \"#utility.yul\":2300:2323   */\n      sub\n        /* \"#utility.yul\":2296:2328   */\n      slt\n        /* \"#utility.yul\":2293:2412   */\n      iszero\n      tag_159\n      jumpi\n        /* \"#utility.yul\":2331:2410   */\n      tag_160\n      tag_140\n      jump\t// in\n    tag_160:\n        /* \"#utility.yul\":2293:2412   */\n    tag_159:\n        /* \"#utility.yul\":2451:2452   */\n      0x00\n        /* \"#utility.yul\":2476:2529   */\n      tag_161\n        /* \"#utility.yul\":2521:2528   */\n      dup5\n        /* \"#utility.yul\":2512:2518   */\n      dup3\n        /* \"#utility.yul\":2501:2510   */\n      dup6\n        /* \"#utility.yul\":2497:2519   */\n      add\n        /* \"#utility.yul\":2476:2529   */\n      tag_133\n      jump\t// in\n    tag_161:\n        /* \"#utility.yul\":2466:2529   */\n      swap2\n      pop\n        /* \"#utility.yul\":2422:2539   */\n      pop\n        /* \"#utility.yul\":2217:2546   */\n      swap3\n      swap2\n      pop\n      pop\n      jump\t// out\n        /* \"#utility.yul\":2552:2916   */\n    tag_162:\n        /* \"#utility.yul\":2640:2643   */\n      0x00\n        /* \"#utility.yul\":2668:2707   */\n      tag_164\n        /* \"#utility.yul\":2701:2706   */\n      dup3\n        /* \"#utility.yul\":2668:2707   */\n      tag_165\n      jump\t// in\n    tag_164:\n        /* \"#utility.yul\":2723:2794   */\n      tag_166\n        /* \"#utility.yul\":2787:2793   */\n      dup2\n        /* \"#utility.yul\":2782:2785   */\n      dup6\n        /* \"#utility.yul\":2723:2794   */\n      tag_167\n      jump\t// in\n    tag_166:\n        /* \"#utility.yul\":2716:2794   */\n      swap4\n      pop\n        /* \"#utility.yul\":2803:2855   */\n      tag_168\n        /* \"#utility.yul\":2848:2854   */\n      dup2\n        /* \"#utility.yul\":2843:2846   */\n      dup6\n        /* \"#utility.yul\":2836:2840   */\n      0x20\n        /* \"#utility.yul\":2829:2834   */\n      dup7\n        /* \"#utility.yul\":2825:2841   */\n      add\n        /* \"#utility.yul\":2803:2855   */\n      tag_169\n      jump\t// in\n    tag_168:\n        /* \"#utility.yul\":2880:2909   */\n      tag_170\n        /* \"#utility.yul\":2902:2908   */\n      dup2\n        /* \"#utility.yul\":2880:2909   */\n      tag_171\n      jump\t// in\n    tag_170:\n        /* \"#utility.yul\":2875:2878   */\n      dup5\n        /* \"#utility.yul\":2871:2910   */\n      add\n        /* \"#utility.yul\":2864:2910   */\n      swap2\n      pop\n        /* \"#utility.yul\":2644:2916   */\n      pop\n        /* \"#utility.yul\":2552:2916   */\n      swap3\n      swap2\n      pop\n      pop\n      jump\t// out\n        /* \"#utility.yul\":2922:3288   */\n    tag_172:\n        /* \"#utility.yul\":3064:3067   */\n      0x00\n        /* \"#utility.yul\":3085:3152   */\n      tag_174\n        /* \"#utility.yul\":3149:3151   */\n      0x15\n        /* \"#utility.yul\":3144:3147   */\n      dup4\n        /* \"#utility.yul\":3085:3152   */\n      tag_167\n      jump\t// in\n    tag_174:\n        /* \"#utility.yul\":3078:3152   */\n      swap2\n      pop\n        /* \"#utility.yul\":3161:3254   */\n      tag_175\n        /* \"#utility.yul\":3250:3253   */\n      dup3\n        /* \"#utility.yul\":3161:3254   */\n      tag_176\n      jump\t// in\n    tag_175:\n        /* \"#utility.yul\":3279:3281   */\n      0x20\n        /* \"#utility.yul\":3274:3277   */\n      dup3\n        /* \"#utility.yul\":3270:3282   */\n      add\n        /* \"#utility.yul\":3263:3282   */\n      swap1\n      pop\n        /* \"#utility.yul\":2922:3288   */\n      swap2\n      swap1\n      pop\n      jump\t// out\n        /* \"#utility.yul\":3294:3660   */\n    tag_177:\n        /* \"#utility.yul\":3436:3439   */\n      0x00\n        /* \"#utility.yul\":3457:3524   */\n      tag_179\n        /* \"#utility.yul\":3521:3523   */\n      0x12\n        /* \"#utility.yul\":3516:3519   */\n      dup4\n        /* \"#utility.yul\":3457:3524   */\n      tag_167\n      jump\t// in\n    tag_179:\n        /* \"#utility.yul\":3450:3524   */\n      swap2\n      pop\n        /* \"#utility.yul\":3533:3626   */\n      tag_180\n        /* \"#utility.yul\":3622:3625   */\n      dup3\n        /* \"#utility.yul\":3533:3626   */\n      tag_181\n      jump\t// in\n    tag_180:\n        /* \"#utility.yul\":3651:3653   */\n      0x20\n        /* \"#utility.yul\":3646:3649   */\n      dup3\n        /* \"#utility.yul\":3642:3654   */\n      add\n        /* \"#utility.yul\":3635:3654   */\n      swap1\n      pop\n        /* \"#utility.yul\":3294:3660   */\n      swap2\n      swap1\n      pop\n      jump\t// out\n        /* \"#utility.yul\":3666:3784   */\n    tag_182:\n        /* \"#utility.yul\":3753:3777   */\n      tag_184\n        /* \"#utility.yul\":3771:3776   */\n      dup2\n        /* \"#utility.yul\":3753:3777   */\n      tag_185\n      jump\t// in\n    tag_184:\n        /* \"#utility.yul\":3748:3751   */\n      dup3\n        /* \"#utility.yul\":3741:3778   */\n      mstore\n        /* \"#utility.yul\":3666:3784   */\n      pop\n      pop\n      jump\t// out\n        /* \"#utility.yul\":3790:4103   */\n    tag_23:\n        /* \"#utility.yul\":3903:3907   */\n      0x00\n        /* \"#utility.yul\":3941:3943   */\n      0x20\n        /* \"#utility.yul\":3930:3939   */\n      dup3\n        /* \"#utility.yul\":3926:3944   */\n      add\n        /* \"#utility.yul\":3918:3944   */\n      swap1\n      pop\n        /* \"#utility.yul\":3990:3999   */\n      dup2\n        /* \"#utility.yul\":3984:3988   */\n      dup2\n        /* \"#utility.yul\":3980:4000   */\n      sub\n        /* \"#utility.yul\":3976:3977   */\n      0x00\n        /* \"#utility.yul\":3965:3974   */\n      dup4\n        /* \"#utility.yul\":3961:3978   */\n      add\n        /* \"#utility.yul\":3954:4001   */\n      mstore\n        /* \"#utility.yul\":4018:4096   */\n      tag_187\n        /* \"#utility.yul\":4091:4095   */\n      dup2\n        /* \"#utility.yul\":4082:4088   */\n      dup5\n        /* \"#utility.yul\":4018:4096   */\n      tag_162\n      jump\t// in\n    tag_187:\n        /* \"#utility.yul\":4010:4096   */\n      swap1\n      pop\n        /* \"#utility.yul\":3790:4103   */\n      swap3\n      swap2\n      pop\n      pop\n      jump\t// out\n        /* \"#utility.yul\":4109:4528   */\n    tag_101:\n        /* \"#utility.yul\":4275:4279   */\n      0x00\n        /* \"#utility.yul\":4313:4315   */\n      0x20\n        /* \"#utility.yul\":4302:4311   */\n      dup3\n        /* \"#utility.yul\":4298:4316   */\n      add\n        /* \"#utility.yul\":4290:4316   */\n      swap1\n      pop\n        /* \"#utility.yul\":4362:4371   */\n      dup2\n        /* \"#utility.yul\":4356:4360   */\n      dup2\n        /* \"#utility.yul\":4352:4372   */\n      sub\n        /* \"#utility.yul\":4348:4349   */\n      0x00\n        /* \"#utility.yul\":4337:4346   */\n      dup4\n        /* \"#utility.yul\":4333:4350   */\n      add\n        /* \"#utility.yul\":4326:4373   */\n      mstore\n        /* \"#utility.yul\":4390:4521   */\n      tag_189\n        /* \"#utility.yul\":4516:4520   */\n      dup2\n        /* \"#utility.yul\":4390:4521   */\n      tag_172\n      jump\t// in\n    tag_189:\n        /* \"#utility.yul\":4382:4521   */\n      swap1\n      pop\n        /* \"#utility.yul\":4109:4528   */\n      swap2\n      swap1\n      pop\n      jump\t// out\n        /* \"#utility.yul\":4534:4953   */\n    tag_85:\n        /* \"#utility.yul\":4700:4704   */\n      0x00\n        /* \"#utility.yul\":4738:4740   */\n      0x20\n        /* \"#utility.yul\":4727:4736   */\n      dup3\n        /* \"#utility.yul\":4723:4741   */\n      add\n        /* \"#utility.yul\":4715:4741   */\n      swap1\n      pop\n        /* \"#utility.yul\":4787:4796   */\n      dup2\n        /* \"#utility.yul\":4781:4785   */\n      dup2\n        /* \"#utility.yul\":4777:4797   */\n      sub\n        /* \"#utility.yul\":4773:4774   */\n      0x00\n        /* \"#utility.yul\":4762:4771   */\n      dup4\n        /* \"#utility.yul\":4758:4775   */\n      add\n        /* \"#utility.yul\":4751:4798   */\n      mstore\n        /* \"#utility.yul\":4815:4946   */\n      tag_191\n        /* \"#utility.yul\":4941:4945   */\n      dup2\n        /* \"#utility.yul\":4815:4946   */\n      tag_177\n      jump\t// in\n    tag_191:\n        /* \"#utility.yul\":4807:4946   */\n      swap1\n      pop\n        /* \"#utility.yul\":4534:4953   */\n      swap2\n      swap1\n      pop\n      jump\t// out\n        /* \"#utility.yul\":4959:5181   */\n    tag_33:\n        /* \"#utility.yul\":5052:5056   */\n      0x00\n        /* \"#utility.yul\":5090:5092   */\n      0x20\n        /* \"#utility.yul\":5079:5088   */\n      dup3\n        /* \"#utility.yul\":5075:5093   */\n      add\n        /* \"#utility.yul\":5067:5093   */\n      swap1\n      pop\n        /* \"#utility.yul\":5103:5174   */\n      tag_193\n        /* \"#utility.yul\":5171:5172   */\n      0x00\n        /* \"#utility.yul\":5160:5169   */\n      dup4\n        /* \"#utility.yul\":5156:5173   */\n      add\n        /* \"#utility.yul\":5147:5153   */\n      dup5\n        /* \"#utility.yul\":5103:5174   */\n      tag_182\n      jump\t// in\n    tag_193:\n        /* \"#utility.yul\":4959:5181   */\n      swap3\n      swap2\n      pop\n      pop\n      jump\t// out\n        /* \"#utility.yul\":5268:5367   */\n    tag_165:\n        /* \"#utility.yul\":5320:5326   */\n      0x00\n        /* \"#utility.yul\":5354:5359   */\n      dup2\n        /* \"#utility.yul\":5348:5360   */\n      mload\n        /* \"#utility.yul\":5338:5360   */\n      swap1\n      pop\n        /* \"#utility.yul\":5268:5367   */\n      swap2\n      swap1\n      pop\n      jump\t// out\n        /* \"#utility.yul\":5373:5542   */\n    tag_167:\n        /* \"#utility.yul\":5457:5468   */\n      0x00\n        /* \"#utility.yul\":5491:5497   */\n      dup3\n        /* \"#utility.yul\":5486:5489   */\n      dup3\n        /* \"#utility.yul\":5479:5498   */\n      mstore\n        /* \"#utility.yul\":5531:5535   */\n      0x20\n        /* \"#utility.yul\":5526:5529   */\n      dup3\n        /* \"#utility.yul\":5522:5536   */\n      add\n        /* \"#utility.yul\":5507:5536   */\n      swap1\n      pop\n        /* \"#utility.yul\":5373:5542   */\n      swap3\n      swap2\n      pop\n      pop\n      jump\t// out\n        /* \"#utility.yul\":5548:5853   */\n    tag_91:\n        /* \"#utility.yul\":5588:5591   */\n      0x00\n        /* \"#utility.yul\":5607:5627   */\n      tag_199\n        /* \"#utility.yul\":5625:5626   */\n      dup3\n        /* \"#utility.yul\":5607:5627   */\n      tag_185\n      jump\t// in\n    tag_199:\n        /* \"#utility.yul\":5602:5627   */\n      swap2\n      pop\n        /* \"#utility.yul\":5641:5661   */\n      tag_200\n        /* \"#utility.yul\":5659:5660   */\n      dup4\n        /* \"#utility.yul\":5641:5661   */\n      tag_185\n      jump\t// in\n    tag_200:\n        /* \"#utility.yul\":5636:5661   */\n      swap3\n      pop\n        /* \"#utility.yul\":5795:5796   */\n      dup3\n        /* \"#utility.yul\":5727:5793   */\n      0xffffffffffffffffffffffffffffffffffffffffffffffffffffffffffffffff\n        /* \"#utility.yul\":5723:5797   */\n      sub\n        /* \"#utility.yul\":5720:5721   */\n      dup3\n        /* \"#utility.yul\":5717:5798   */\n      gt\n        /* \"#utility.yul\":5714:5821   */\n      iszero\n      tag_201\n      jumpi\n        /* \"#utility.yul\":5801:5819   */\n      tag_202\n      tag_203\n      jump\t// in\n    tag_202:\n        /* \"#utility.yul\":5714:5821   */\n    tag_201:\n        /* \"#utility.yul\":5845:5846   */\n      dup3\n        /* \"#utility.yul\":5842:5843   */\n      dup3\n        /* \"#utility.yul\":5838:5847   */\n      add\n        /* \"#utility.yul\":5831:5847   */\n      swap1\n      pop\n        /* \"#utility.yul\":5548:5853   */\n      swap3\n      swap2\n      pop\n      pop\n      jump\t// out\n        /* \"#utility.yul\":5859:6050   */\n    tag_88:\n        /* \"#utility.yul\":5899:5903   */\n      0x00\n        /* \"#utility.yul\":5919:5939   */\n      tag_205\n        /* \"#utility.yul\":5937:5938   */\n      dup3\n        /* \"#utility.yul\":5919:5939   */\n      tag_185\n      jump\t// in\n    tag_205:\n        /* \"#utility.yul\":5914:5939   */\n      swap2\n      pop\n        /* \"#utility.yul\":5953:5973   */\n      tag_206\n        /* \"#utility.yul\":5971:5972   */\n      dup4\n        /* \"#utility.yul\":5953:5973   */\n      tag_185\n      jump\t// in\n    tag_206:\n        /* \"#utility.yul\":5948:5973   */\n      swap3\n      pop\n        /* \"#utility.yul\":5992:5993   */\n      dup3\n        /* \"#utility.yul\":5989:5990   */\n      dup3\n        /* \"#utility.yul\":5986:5994   */\n      lt\n        /* \"#utility.yul\":5983:6017   */\n      iszero\n      tag_207\n      jumpi\n        /* \"#utility.yul\":5997:6015   */\n      tag_208\n      tag_203\n      jump\t// in\n    tag_208:\n        /* \"#utility.yul\":5983:6017   */\n    tag_207:\n        /* \"#utility.yul\":6042:6043   */\n      dup3\n        /* \"#utility.yul\":6039:6040   */\n      dup3\n        /* \"#utility.yul\":6035:6044   */\n      sub\n        /* \"#utility.yul\":6027:6044   */\n      swap1\n      pop\n        /* \"#utility.yul\":5859:6050   */\n      swap3\n      swap2\n      pop\n      pop\n      jump\t// out\n        /* \"#utility.yul\":6056:6152   */\n    tag_209:\n        /* \"#utility.yul\":6093:6100   */\n      0x00\n        /* \"#utility.yul\":6122:6146   */\n      tag_211\n        /* \"#utility.yul\":6140:6145   */\n      dup3\n        /* \"#utility.yul\":6122:6146   */\n      tag_212\n      jump\t// in\n    tag_211:\n        /* \"#utility.yul\":6111:6146   */\n      swap1\n      pop\n        /* \"#utility.yul\":6056:6152   */\n      swap2\n      swap1\n      pop\n      jump\t// out\n        /* \"#utility.yul\":6158:6284   */\n    tag_212:\n        /* \"#utility.yul\":6195:6202   */\n      0x00\n        /* \"#utility.yul\":6235:6277   */\n      0xffffffffffffffffffffffffffffffffffffffff\n        /* \"#utility.yul\":6228:6233   */\n      dup3\n        /* \"#utility.yul\":6224:6278   */\n      and\n        /* \"#utility.yul\":6213:6278   */\n      swap1\n      pop\n        /* \"#utility.yul\":6158:6284   */\n      swap2\n      swap1\n      pop\n      jump\t// out\n        /* \"#utility.yul\":6290:6367   */\n    tag_185:\n        /* \"#utility.yul\":6327:6334   */\n      0x00\n        /* \"#utility.yul\":6356:6361   */\n      dup2\n        /* \"#utility.yul\":6345:6361   */\n      swap1\n      pop\n        /* \"#utility.yul\":6290:6367   */\n      swap2\n      swap1\n      pop\n      jump\t// out\n        /* \"#utility.yul\":6373:6680   */\n    tag_169:\n        /* \"#utility.yul\":6441:6442   */\n      0x00\n        /* \"#utility.yul\":6451:6564   */\n    tag_216:\n        /* \"#utility.yul\":6465:6471   */\n      dup4\n        /* \"#utility.yul\":6462:6463   */\n      dup2\n        /* \"#utility.yul\":6459:6472   */\n      lt\n        /* \"#utility.yul\":6451:6564   */\n      iszero\n      tag_218\n      jumpi\n        /* \"#utility.yul\":6550:6551   */\n      dup1\n        /* \"#utility.yul\":6545:6548   */\n      dup3\n        /* \"#utility.yul\":6541:6552   */\n      add\n        /* \"#utility.yul\":6535:6553   */\n      mload\n        /* \"#utility.yul\":6531:6532   */\n      dup2\n        /* \"#utility.yul\":6526:6529   */\n      dup5\n        /* \"#utility.yul\":6522:6533   */\n      add\n        /* \"#utility.yul\":6515:6554   */\n      mstore\n        /* \"#utility.yul\":6487:6489   */\n      0x20\n        /* \"#utility.yul\":6484:6485   */\n      dup2\n        /* \"#utility.yul\":6480:6490   */\n      add\n        /* \"#utility.yul\":6475:6490   */\n      swap1\n      pop\n        /* \"#utility.yul\":6451:6564   */\n      jump(tag_216)\n    tag_218:\n        /* \"#utility.yul\":6582:6588   */\n      dup4\n        /* \"#utility.yul\":6579:6580   */\n      dup2\n        /* \"#utility.yul\":6576:6589   */\n      gt\n        /* \"#utility.yul\":6573:6674   */\n      iszero\n      tag_219\n      jumpi\n        /* \"#utility.yul\":6662:6663   */\n      0x00\n        /* \"#utility.yul\":6653:6659   */\n      dup5\n        /* \"#utility.yul\":6648:6651   */\n      dup5\n        /* \"#utility.yul\":6644:6660   */\n      add\n        /* \"#utility.yul\":6637:6664   */\n      mstore\n        /* \"#utility.yul\":6573:6674   */\n    tag_219:\n        /* \"#utility.yul\":6422:6680   */\n      pop\n        /* \"#utility.yul\":6373:6680   */\n      pop\n      pop\n      pop\n      jump\t// out\n        /* \"#utility.yul\":6686:7006   */\n    tag_73:\n        /* \"#utility.yul\":6730:6736   */\n      0x00\n        /* \"#utility.yul\":6767:6768   */\n      0x02\n        /* \"#utility.yul\":6761:6765   */\n      dup3\n        /* \"#utility.yul\":6757:6769   */\n      div\n        /* \"#utility.yul\":6747:6769   */\n      swap1\n      pop\n        /* \"#utility.yul\":6814:6815   */\n      0x01\n        /* \"#utility.yul\":6808:6812   */\n      dup3\n        /* \"#utility.yul\":6804:6816   */\n      and\n        /* \"#utility.yul\":6835:6853   */\n      dup1\n        /* \"#utility.yul\":6825:6906   */\n      tag_221\n      jumpi\n        /* \"#utility.yul\":6891:6895   */\n      0x7f\n        /* \"#utility.yul\":6883:6889   */\n      dup3\n        /* \"#utility.yul\":6879:6896   */\n      and\n        /* \"#utility.yul\":6869:6896   */\n      swap2\n      pop\n        /* \"#utility.yul\":6825:6906   */\n    tag_221:\n        /* \"#utility.yul\":6953:6955   */\n      0x20\n        /* \"#utility.yul\":6945:6951   */\n      dup3\n        /* \"#utility.yul\":6942:6956   */\n      lt\n        /* \"#utility.yul\":6922:6940   */\n      dup2\n        /* \"#utility.yul\":6919:6957   */\n      eq\n        /* \"#utility.yul\":6916:7000   */\n      iszero\n      tag_222\n      jumpi\n        /* \"#utility.yul\":6972:6990   */\n      tag_223\n      tag_224\n      jump\t// in\n    tag_223:\n        /* \"#utility.yul\":6916:7000   */\n    tag_222:\n        /* \"#utility.yul\":6737:7006   */\n      pop\n        /* \"#utility.yul\":6686:7006   */\n      swap2\n      swap1\n      pop\n      jump\t// out\n        /* \"#utility.yul\":7012:7192   */\n    tag_203:\n        /* \"#utility.yul\":7060:7137   */\n      0x4e487b7100000000000000000000000000000000000000000000000000000000\n        /* \"#utility.yul\":7057:7058   */\n      0x00\n        /* \"#utility.yul\":7050:7138   */\n      mstore\n        /* \"#utility.yul\":7157:7161   */\n      0x11\n        /* \"#utility.yul\":7154:7155   */\n      0x04\n        /* \"#utility.yul\":7147:7162   */\n      mstore\n        /* \"#utility.yul\":7181:7185   */\n      0x24\n        /* \"#utility.yul\":7178:7179   */\n      0x00\n        /* \"#utility.yul\":7171:7186   */\n      revert\n        /* \"#utility.yul\":7198:7378   */\n    tag_224:\n        /* \"#utility.yul\":7246:7323   */\n      0x4e487b7100000000000000000000000000000000000000000000000000000000\n        /* \"#utility.yul\":7243:7244   */\n      0x00\n        /* \"#utility.yul\":7236:7324   */\n      mstore\n        /* \"#utility.yul\":7343:7347   */\n      0x22\n        /* \"#utility.yul\":7340:7341   */\n      0x04\n        /* \"#utility.yul\":7333:7348   */\n      mstore\n        /* \"#utility.yul\":7367:7371   */\n      0x24\n        /* \"#utility.yul\":7364:7365   */\n      0x00\n        /* \"#utility.yul\":7357:7372   */\n      revert\n        /* \"#utility.yul\":7507:7624   */\n    tag_140:\n        /* \"#utility.yul\":7616:7617   */\n      0x00\n        /* \"#utility.yul\":7613:7614   */\n      dup1\n        /* \"#utility.yul\":7606:7618   */\n      revert\n        /* \"#utility.yul\":7630:7732   */\n    tag_171:\n        /* \"#utility.yul\":7671:7677   */\n      0x00\n        /* \"#utility.yul\":7722:7724   */\n      0x1f\n        /* \"#utility.yul\":7718:7725   */\n      not\n        /* \"#utility.yul\":7713:7715   */\n      0x1f\n        /* \"#utility.yul\":7706:7711   */\n      dup4\n        /* \"#utility.yul\":7702:7716   */\n      add\n        /* \"#utility.yul\":7698:7726   */\n      and\n        /* \"#utility.yul\":7688:7726   */\n      swap1\n      pop\n        /* \"#utility.yul\":7630:7732   */\n      swap2\n      swap1\n      pop\n      jump\t// out\n        /* \"#utility.yul\":7738:7909   */\n    tag_176:\n        /* \"#utility.yul\":7878:7901   */\n      0x596f7520617265206e6f7420616e206f776e6572210000000000000000000000\n        /* \"#utility.yul\":7874:7875   */\n      0x00\n        /* \"#utility.yul\":7866:7872   */\n      dup3\n        /* \"#utility.yul\":7862:7876   */\n      add\n        /* \"#utility.yul\":7855:7902   */\n      mstore\n        /* \"#utility.yul\":7738:7909   */\n      pop\n      jump\t// out\n        /* \"#utility.yul\":7915:8083   */\n    tag_181:\n        /* \"#utility.yul\":8055:8075   */\n      0x4e6f7420656e6f75676820746f6b656e73210000000000000000000000000000\n        /* \"#utility.yul\":8051:8052   */\n      0x00\n        /* \"#utility.yul\":8043:8049   */\n      dup3\n        /* \"#utility.yul\":8039:8053   */\n      add\n        /* \"#utility.yul\":8032:8076   */\n      mstore\n        /* \"#utility.yul\":7915:8083   */\n      pop\n      jump\t// out\n        /* \"#utility.yul\":8089:8211   */\n    tag_132:\n        /* \"#utility.yul\":8162:8186   */\n      tag_234\n        /* \"#utility.yul\":8180:8185   */\n      dup2\n        /* \"#utility.yul\":8162:8186   */\n      tag_209\n      jump\t// in\n    tag_234:\n        /* \"#utility.yul\":8155:8160   */\n      dup2\n        /* \"#utility.yul\":8152:8187   */\n      eq\n        /* \"#utility.yul\":8142:8205   */\n      tag_235\n      jumpi\n        /* \"#utility.yul\":8201:8202   */\n      0x00\n        /* \"#utility.yul\":8198:8199   */\n      dup1\n        /* \"#utility.yul\":8191:8203   */\n      revert\n        /* \"#utility.yul\":8142:8205   */\n    tag_235:\n        /* \"#utility.yul\":8089:8211   */\n      pop\n      jump\t// out\n        /* \"#utility.yul\":8217:8339   */\n    tag_136:\n        /* \"#utility.yul\":8290:8314   */\n      tag_237\n        /* \"#utility.yul\":8308:8313   */\n      dup2\n        /* \"#utility.yul\":8290:8314   */\n      tag_185\n      jump\t// in\n    tag_237:\n        /* \"#utility.yul\":8283:8288   */\n      dup2\n        /* \"#utility.yul\":8280:8315   */\n      eq\n        /* \"#utility.yul\":8270:8333   */\n      tag_238\n      jumpi\n        /* \"#utility.yul\":8329:8330   */\n      0x00\n        /* \"#utility.yul\":8326:8327   */\n      dup1\n        /* \"#utility.yul\":8319:8331   */\n      revert\n        /* \"#utility.yul\":8270:8333   */\n    tag_238:\n        /* \"#utility.yul\":8217:8339   */\n      pop\n      jump\t// out\n\n    auxdata: 0xa264697066735822122037421830af0069f54a01fffe5371e3ab72f9de48f19f18653b6fc274009c7d0b64736f6c63430008070033\n}\n",
				"bytecode": {
					"linkReferences": {},
					"object": "60806040526040518060400160405280600881526020017f54696e546f6b656e00000000000000000000000000000000000000000000000081525060049080519060200190620000519291906200025a565b506040518060400160405280600381526020017f54544e0000000000000000000000000000000000000000000000000000000000815250600590805190602001906200009f9291906200025a565b50348015620000ad57600080fd5b50604051620015f9380380620015f98339818101604052810190620000d3919062000321565b620000e481620000eb60201b60201c565b506200051e565b60008054906101000a900473ffffffffffffffffffffffffffffffffffffffff1673ffffffffffffffffffffffffffffffffffffffff163373ffffffffffffffffffffffffffffffffffffffff16146200017c576040517f08c379a000000000000000000000000000000000000000000000000000000000815260040162000173906200038b565b60405180910390fd5b80600260003373ffffffffffffffffffffffffffffffffffffffff1673ffffffffffffffffffffffffffffffffffffffff1681526020019081526020016000206000828254620001cd9190620003db565b925050819055508060016000828254620001e89190620003db565b925050819055503373ffffffffffffffffffffffffffffffffffffffff16600073ffffffffffffffffffffffffffffffffffffffff167fddf252ad1be2c89b69c2b068fc378daa952ba7f163c4a11628f55a4df523b3ef836040516200024f9190620003ad565b60405180910390a350565b828054620002689062000442565b90600052602060002090601f0160209004810192826200028c5760008555620002d8565b82601f10620002a757805160ff1916838001178555620002d8565b82800160010185558215620002d8579182015b82811115620002d7578251825591602001919060010190620002ba565b5b509050620002e79190620002eb565b5090565b5b8082111562000306576000816000905550600101620002ec565b5090565b6000815190506200031b8162000504565b92915050565b6000602082840312156200033a5762000339620004d6565b5b60006200034a848285016200030a565b91505092915050565b600062000362601583620003ca565b91506200036f82620004db565b602082019050919050565b620003858162000438565b82525050565b60006020820190508181036000830152620003a68162000353565b9050919050565b6000602082019050620003c460008301846200037a565b92915050565b600082825260208201905092915050565b6000620003e88262000438565b9150620003f58362000438565b9250827fffffffffffffffffffffffffffffffffffffffffffffffffffffffffffffffff038211156200042d576200042c62000478565b5b828201905092915050565b6000819050919050565b600060028204905060018216806200045b57607f821691505b60208210811415620004725762000471620004a7565b5b50919050565b7f4e487b7100000000000000000000000000000000000000000000000000000000600052601160045260246000fd5b7f4e487b7100000000000000000000000000000000000000000000000000000000600052602260045260246000fd5b600080fd5b7f596f7520617265206e6f7420616e206f776e6572210000000000000000000000600082015250565b6200050f8162000438565b81146200051b57600080fd5b50565b6110cb806200052e6000396000f3fe6080604052600436106100a05760003560e01c806342966c681161006457806342966c681461017c57806370a08231146101a557806395d89b41146101e2578063a0712d681461020d578063a9059cbb14610236578063dd62ed3e1461025f576100a7565b806306fdde03146100a9578063095ea7b3146100d457806318160ddd146100fd57806323b872dd14610128578063313ce56714610151576100a7565b366100a757005b005b3480156100b557600080fd5b506100be61029c565b6040516100cb9190610ddd565b60405180910390f35b3480156100e057600080fd5b506100fb60048036038101906100f69190610ce2565b61032a565b005b34801561010957600080fd5b50610112610414565b60405161011f9190610e3f565b60405180910390f35b34801561013457600080fd5b5061014f600480360381019061014a9190610c8f565b61041e565b005b34801561015d57600080fd5b50610166610616565b6040516101739190610e3f565b60405180910390f35b34801561018857600080fd5b506101a3600480360381019061019e9190610d22565b61061b565b005b3480156101b157600080fd5b506101cc60048036038101906101c79190610c22565b6107d0565b6040516101d99190610e3f565b60405180910390f35b3480156101ee57600080fd5b506101f7610819565b6040516102049190610ddd565b60405180910390f35b34801561021957600080fd5b50610234600480360381019061022f9190610d22565b6108a7565b005b34801561024257600080fd5b5061025d60048036038101906102589190610ce2565b610a0d565b005b34801561026b57600080fd5b5061028660048036038101906102819190610c4f565b610b71565b6040516102939190610e3f565b60405180910390f35b600480546102a990610f6f565b80601f01602080910402602001604051908101604052809291908181526020018280546102d590610f6f565b80156103225780601f106102f757610100808354040283529160200191610322565b820191906000526020600020905b81548152906001019060200180831161030557829003601f168201915b505050505081565b80600360003373ffffffffffffffffffffffffffffffffffffffff1673ffffffffffffffffffffffffffffffffffffffff16815260200190815260200160002060008473ffffffffffffffffffffffffffffffffffffffff1673ffffffffffffffffffffffffffffffffffffffff168152602001908152602001600020819055508173ffffffffffffffffffffffffffffffffffffffff163373ffffffffffffffffffffffffffffffffffffffff167f8c5be1e5ebec7d5bd14f71427d1e84f3dd0314c0f7b2291e5b200ac8c7c3b925836040516104089190610e3f565b60405180910390a35050565b6000600154905090565b82818061042a836107d0565b101561046b576040517f08c379a000000000000000000000000000000000000000000000000000000000815260040161046290610e1f565b60405180910390fd5b82600360008773ffffffffffffffffffffffffffffffffffffffff1673ffffffffffffffffffffffffffffffffffffffff16815260200190815260200160002060008673ffffffffffffffffffffffffffffffffffffffff1673ffffffffffffffffffffffffffffffffffffffff16815260200190815260200160002060008282546104f79190610ecc565b9250508190555082600260008773ffffffffffffffffffffffffffffffffffffffff1673ffffffffffffffffffffffffffffffffffffffff168152602001908152602001600020600082825461054d9190610ecc565b9250508190555082600260008673ffffffffffffffffffffffffffffffffffffffff1673ffffffffffffffffffffffffffffffffffffffff16815260200190815260200160002060008282546105a39190610e76565b925050819055508373ffffffffffffffffffffffffffffffffffffffff168573ffffffffffffffffffffffffffffffffffffffff167fddf252ad1be2c89b69c2b068fc378daa952ba7f163c4a11628f55a4df523b3ef856040516106079190610e3f565b60405180910390a35050505050565b600090565b338180610627836107d0565b1015610668576040517f08c379a000000000000000000000000000000000000000000000000000000000815260040161065f90610e1f565b60405180910390fd5b60008054906101000a900473ffffffffffffffffffffffffffffffffffffffff1673ffffffffffffffffffffffffffffffffffffffff163373ffffffffffffffffffffffffffffffffffffffff16146106f6576040517f08c379a00000000000000000000000000000000000000000000000000000000081526004016106ed90610dff565b60405180910390fd5b82600260003373ffffffffffffffffffffffffffffffffffffffff1673ffffffffffffffffffffffffffffffffffffffff16815260200190815260200160002060008282546107459190610ecc565b92505081905550826001600082825461075e9190610ecc565b92505081905550600073ffffffffffffffffffffffffffffffffffffffff163373ffffffffffffffffffffffffffffffffffffffff167fddf252ad1be2c89b69c2b068fc378daa952ba7f163c4a11628f55a4df523b3ef856040516107c39190610e3f565b60405180910390a3505050565b6000600260008373ffffffffffffffffffffffffffffffffffffffff1673ffffffffffffffffffffffffffffffffffffffff168152602001908152602001600020549050919050565b6005805461082690610f6f565b80601f016020809104026020016040519081016040528092919081815260200182805461085290610f6f565b801561089f5780601f106108745761010080835404028352916020019161089f565b820191906000526020600020905b81548152906001019060200180831161088257829003601f168201915b505050505081565b60008054906101000a900473ffffffffffffffffffffffffffffffffffffffff1673ffffffffffffffffffffffffffffffffffffffff163373ffffffffffffffffffffffffffffffffffffffff1614610935576040517f08c379a000000000000000000000000000000000000000000000000000000000815260040161092c90610dff565b60405180910390fd5b80600260003373ffffffffffffffffffffffffffffffffffffffff1673ffffffffffffffffffffffffffffffffffffffff16815260200190815260200160002060008282546109849190610e76565b92505081905550806001600082825461099d9190610e76565b925050819055503373ffffffffffffffffffffffffffffffffffffffff16600073ffffffffffffffffffffffffffffffffffffffff167fddf252ad1be2c89b69c2b068fc378daa952ba7f163c4a11628f55a4df523b3ef83604051610a029190610e3f565b60405180910390a350565b338180610a19836107d0565b1015610a5a576040517f08c379a0000000000000000000000000000000000000000000000000000000008152600401610a5190610e1f565b60405180910390fd5b82600260003373ffffffffffffffffffffffffffffffffffffffff1673ffffffffffffffffffffffffffffffffffffffff1681526020019081526020016000206000828254610aa99190610ecc565b9250508190555082600260008673ffffffffffffffffffffffffffffffffffffffff1673ffffffffffffffffffffffffffffffffffffffff1681526020019081526020016000206000828254610aff9190610e76565b925050819055508373ffffffffffffffffffffffffffffffffffffffff163373ffffffffffffffffffffffffffffffffffffffff167fddf252ad1be2c89b69c2b068fc378daa952ba7f163c4a11628f55a4df523b3ef85604051610b639190610e3f565b60405180910390a350505050565b6000600360008473ffffffffffffffffffffffffffffffffffffffff1673ffffffffffffffffffffffffffffffffffffffff16815260200190815260200160002060008373ffffffffffffffffffffffffffffffffffffffff1673ffffffffffffffffffffffffffffffffffffffff16815260200190815260200160002054905092915050565b600081359050610c0781611067565b92915050565b600081359050610c1c8161107e565b92915050565b600060208284031215610c3857610c37610fff565b5b6000610c4684828501610bf8565b91505092915050565b60008060408385031215610c6657610c65610fff565b5b6000610c7485828601610bf8565b9250506020610c8585828601610bf8565b9150509250929050565b600080600060608486031215610ca857610ca7610fff565b5b6000610cb686828701610bf8565b9350506020610cc786828701610bf8565b9250506040610cd886828701610c0d565b9150509250925092565b60008060408385031215610cf957610cf8610fff565b5b6000610d0785828601610bf8565b9250506020610d1885828601610c0d565b9150509250929050565b600060208284031215610d3857610d37610fff565b5b6000610d4684828501610c0d565b91505092915050565b6000610d5a82610e5a565b610d648185610e65565b9350610d74818560208601610f3c565b610d7d81611004565b840191505092915050565b6000610d95601583610e65565b9150610da082611015565b602082019050919050565b6000610db8601283610e65565b9150610dc38261103e565b602082019050919050565b610dd781610f32565b82525050565b60006020820190508181036000830152610df78184610d4f565b905092915050565b60006020820190508181036000830152610e1881610d88565b9050919050565b60006020820190508181036000830152610e3881610dab565b9050919050565b6000602082019050610e546000830184610dce565b92915050565b600081519050919050565b600082825260208201905092915050565b6000610e8182610f32565b9150610e8c83610f32565b9250827fffffffffffffffffffffffffffffffffffffffffffffffffffffffffffffffff03821115610ec157610ec0610fa1565b5b828201905092915050565b6000610ed782610f32565b9150610ee283610f32565b925082821015610ef557610ef4610fa1565b5b828203905092915050565b6000610f0b82610f12565b9050919050565b600073ffffffffffffffffffffffffffffffffffffffff82169050919050565b6000819050919050565b60005b83811015610f5a578082015181840152602081019050610f3f565b83811115610f69576000848401525b50505050565b60006002820490506001821680610f8757607f821691505b60208210811415610f9b57610f9a610fd0565b5b50919050565b7f4e487b7100000000000000000000000000000000000000000000000000000000600052601160045260246000fd5b7f4e487b7100000000000000000000000000000000000000000000000000000000600052602260045260246000fd5b600080fd5b6000601f19601f8301169050919050565b7f596f7520617265206e6f7420616e206f776e6572210000000000000000000000600082015250565b7f4e6f7420656e6f75676820746f6b656e73210000000000000000000000000000600082015250565b61107081610f00565b811461107b57600080fd5b50565b61108781610f32565b811461109257600080fd5b5056fea264697066735822122037421830af0069f54a01fffe5371e3ab72f9de48f19f18653b6fc274009c7d0b64736f6c63430008070033",
					"opcodes": "PUSH1 0x80 PUSH1 0x40 MSTORE PUSH1 0x40 MLOAD DUP1 PUSH1 0x40 ADD PUSH1 0x40 MSTORE DUP1 PUSH1 0x8 DUP2 MSTORE PUSH1 0x20 ADD PUSH32 0x54696E546F6B656E000000000000000000000000000000000000000000000000 DUP2 MSTORE POP PUSH1 0x4 SWAP1 DUP1 MLOAD SWAP1 PUSH1 0x20 ADD SWAP1 PUSH3 0x51 SWAP3 SWAP2 SWAP1 PUSH3 0x25A JUMP JUMPDEST POP PUSH1 0x40 MLOAD DUP1 PUSH1 0x40 ADD PUSH1 0x40 MSTORE DUP1 PUSH1 0x3 DUP2 MSTORE PUSH1 0x20 ADD PUSH32 0x54544E0000000000000000000000000000000000000000000000000000000000 DUP2 MSTORE POP PUSH1 0x5 SWAP1 DUP1 MLOAD SWAP1 PUSH1 0x20 ADD SWAP1 PUSH3 0x9F SWAP3 SWAP2 SWAP1 PUSH3 0x25A JUMP JUMPDEST POP CALLVALUE DUP1 ISZERO PUSH3 0xAD JUMPI PUSH1 0x0 DUP1 REVERT JUMPDEST POP PUSH1 0x40 MLOAD PUSH3 0x15F9 CODESIZE SUB DUP1 PUSH3 0x15F9 DUP4 CODECOPY DUP2 DUP2 ADD PUSH1 0x40 MSTORE DUP2 ADD SWAP1 PUSH3 0xD3 SWAP2 SWAP1 PUSH3 0x321 JUMP JUMPDEST PUSH3 0xE4 DUP2 PUSH3 0xEB PUSH1 0x20 SHL PUSH1 0x20 SHR JUMP JUMPDEST POP PUSH3 0x51E JUMP JUMPDEST PUSH1 0x0 DUP1 SLOAD SWAP1 PUSH2 0x100 EXP SWAP1 DIV PUSH20 0xFFFFFFFFFFFFFFFFFFFFFFFFFFFFFFFFFFFFFFFF AND PUSH20 0xFFFFFFFFFFFFFFFFFFFFFFFFFFFFFFFFFFFFFFFF AND CALLER PUSH20 0xFFFFFFFFFFFFFFFFFFFFFFFFFFFFFFFFFFFFFFFF AND EQ PUSH3 0x17C JUMPI PUSH1 0x40 MLOAD PUSH32 0x8C379A000000000000000000000000000000000000000000000000000000000 DUP2 MSTORE PUSH1 0x4 ADD PUSH3 0x173 SWAP1 PUSH3 0x38B JUMP JUMPDEST PUSH1 0x40 MLOAD DUP1 SWAP2 SUB SWAP1 REVERT JUMPDEST DUP1 PUSH1 0x2 PUSH1 0x0 CALLER PUSH20 0xFFFFFFFFFFFFFFFFFFFFFFFFFFFFFFFFFFFFFFFF AND PUSH20 0xFFFFFFFFFFFFFFFFFFFFFFFFFFFFFFFFFFFFFFFF AND DUP2 MSTORE PUSH1 0x20 ADD SWAP1 DUP2 MSTORE PUSH1 0x20 ADD PUSH1 0x0 KECCAK256 PUSH1 0x0 DUP3 DUP3 SLOAD PUSH3 0x1CD SWAP2 SWAP1 PUSH3 0x3DB JUMP JUMPDEST SWAP3 POP POP DUP2 SWAP1 SSTORE POP DUP1 PUSH1 0x1 PUSH1 0x0 DUP3 DUP3 SLOAD PUSH3 0x1E8 SWAP2 SWAP1 PUSH3 0x3DB JUMP JUMPDEST SWAP3 POP POP DUP2 SWAP1 SSTORE POP CALLER PUSH20 0xFFFFFFFFFFFFFFFFFFFFFFFFFFFFFFFFFFFFFFFF AND PUSH1 0x0 PUSH20 0xFFFFFFFFFFFFFFFFFFFFFFFFFFFFFFFFFFFFFFFF AND PUSH32 0xDDF252AD1BE2C89B69C2B068FC378DAA952BA7F163C4A11628F55A4DF523B3EF DUP4 PUSH1 0x40 MLOAD PUSH3 0x24F SWAP2 SWAP1 PUSH3 0x3AD JUMP JUMPDEST PUSH1 0x40 MLOAD DUP1 SWAP2 SUB SWAP1 LOG3 POP JUMP JUMPDEST DUP3 DUP1 SLOAD PUSH3 0x268 SWAP1 PUSH3 0x442 JUMP JUMPDEST SWAP1 PUSH1 0x0 MSTORE PUSH1 0x20 PUSH1 0x0 KECCAK256 SWAP1 PUSH1 0x1F ADD PUSH1 0x20 SWAP1 DIV DUP2 ADD SWAP3 DUP3 PUSH3 0x28C JUMPI PUSH1 0x0 DUP6 SSTORE PUSH3 0x2D8 JUMP JUMPDEST DUP3 PUSH1 0x1F LT PUSH3 0x2A7 JUMPI DUP1 MLOAD PUSH1 0xFF NOT AND DUP4 DUP1 ADD OR DUP6 SSTORE PUSH3 0x2D8 JUMP JUMPDEST DUP3 DUP1 ADD PUSH1 0x1 ADD DUP6 SSTORE DUP3 ISZERO PUSH3 0x2D8 JUMPI SWAP2 DUP3 ADD JUMPDEST DUP3 DUP2 GT ISZERO PUSH3 0x2D7 JUMPI DUP3 MLOAD DUP3 SSTORE SWAP2 PUSH1 0x20 ADD SWAP2 SWAP1 PUSH1 0x1 ADD SWAP1 PUSH3 0x2BA JUMP JUMPDEST JUMPDEST POP SWAP1 POP PUSH3 0x2E7 SWAP2 SWAP1 PUSH3 0x2EB JUMP JUMPDEST POP SWAP1 JUMP JUMPDEST JUMPDEST DUP1 DUP3 GT ISZERO PUSH3 0x306 JUMPI PUSH1 0x0 DUP2 PUSH1 0x0 SWAP1 SSTORE POP PUSH1 0x1 ADD PUSH3 0x2EC JUMP JUMPDEST POP SWAP1 JUMP JUMPDEST PUSH1 0x0 DUP2 MLOAD SWAP1 POP PUSH3 0x31B DUP2 PUSH3 0x504 JUMP JUMPDEST SWAP3 SWAP2 POP POP JUMP JUMPDEST PUSH1 0x0 PUSH1 0x20 DUP3 DUP5 SUB SLT ISZERO PUSH3 0x33A JUMPI PUSH3 0x339 PUSH3 0x4D6 JUMP JUMPDEST JUMPDEST PUSH1 0x0 PUSH3 0x34A DUP5 DUP3 DUP6 ADD PUSH3 0x30A JUMP JUMPDEST SWAP2 POP POP SWAP3 SWAP2 POP POP JUMP JUMPDEST PUSH1 0x0 PUSH3 0x362 PUSH1 0x15 DUP4 PUSH3 0x3CA JUMP JUMPDEST SWAP2 POP PUSH3 0x36F DUP3 PUSH3 0x4DB JUMP JUMPDEST PUSH1 0x20 DUP3 ADD SWAP1 POP SWAP2 SWAP1 POP JUMP JUMPDEST PUSH3 0x385 DUP2 PUSH3 0x438 JUMP JUMPDEST DUP3 MSTORE POP POP JUMP JUMPDEST PUSH1 0x0 PUSH1 0x20 DUP3 ADD SWAP1 POP DUP2 DUP2 SUB PUSH1 0x0 DUP4 ADD MSTORE PUSH3 0x3A6 DUP2 PUSH3 0x353 JUMP JUMPDEST SWAP1 POP SWAP2 SWAP1 POP JUMP JUMPDEST PUSH1 0x0 PUSH1 0x20 DUP3 ADD SWAP1 POP PUSH3 0x3C4 PUSH1 0x0 DUP4 ADD DUP5 PUSH3 0x37A JUMP JUMPDEST SWAP3 SWAP2 POP POP JUMP JUMPDEST PUSH1 0x0 DUP3 DUP3 MSTORE PUSH1 0x20 DUP3 ADD SWAP1 POP SWAP3 SWAP2 POP POP JUMP JUMPDEST PUSH1 0x0 PUSH3 0x3E8 DUP3 PUSH3 0x438 JUMP JUMPDEST SWAP2 POP PUSH3 0x3F5 DUP4 PUSH3 0x438 JUMP JUMPDEST SWAP3 POP DUP3 PUSH32 0xFFFFFFFFFFFFFFFFFFFFFFFFFFFFFFFFFFFFFFFFFFFFFFFFFFFFFFFFFFFFFFFF SUB DUP3 GT ISZERO PUSH3 0x42D JUMPI PUSH3 0x42C PUSH3 0x478 JUMP JUMPDEST JUMPDEST DUP3 DUP3 ADD SWAP1 POP SWAP3 SWAP2 POP POP JUMP JUMPDEST PUSH1 0x0 DUP2 SWAP1 POP SWAP2 SWAP1 POP JUMP JUMPDEST PUSH1 0x0 PUSH1 0x2 DUP3 DIV SWAP1 POP PUSH1 0x1 DUP3 AND DUP1 PUSH3 0x45B JUMPI PUSH1 0x7F DUP3 AND SWAP2 POP JUMPDEST PUSH1 0x20 DUP3 LT DUP2 EQ ISZERO PUSH3 0x472 JUMPI PUSH3 0x471 PUSH3 0x4A7 JUMP JUMPDEST JUMPDEST POP SWAP2 SWAP1 POP JUMP JUMPDEST PUSH32 0x4E487B7100000000000000000000000000000000000000000000000000000000 PUSH1 0x0 MSTORE PUSH1 0x11 PUSH1 0x4 MSTORE PUSH1 0x24 PUSH1 0x0 REVERT JUMPDEST PUSH32 0x4E487B7100000000000000000000000000000000000000000000000000000000 PUSH1 0x0 MSTORE PUSH1 0x22 PUSH1 0x4 MSTORE PUSH1 0x24 PUSH1 0x0 REVERT JUMPDEST PUSH1 0x0 DUP1 REVERT JUMPDEST PUSH32 0x596F7520617265206E6F7420616E206F776E6572210000000000000000000000 PUSH1 0x0 DUP3 ADD MSTORE POP JUMP JUMPDEST PUSH3 0x50F DUP2 PUSH3 0x438 JUMP JUMPDEST DUP2 EQ PUSH3 0x51B JUMPI PUSH1 0x0 DUP1 REVERT JUMPDEST POP JUMP JUMPDEST PUSH2 0x10CB DUP1 PUSH3 0x52E PUSH1 0x0 CODECOPY PUSH1 0x0 RETURN INVALID PUSH1 0x80 PUSH1 0x40 MSTORE PUSH1 0x4 CALLDATASIZE LT PUSH2 0xA0 JUMPI PUSH1 0x0 CALLDATALOAD PUSH1 0xE0 SHR DUP1 PUSH4 0x42966C68 GT PUSH2 0x64 JUMPI DUP1 PUSH4 0x42966C68 EQ PUSH2 0x17C JUMPI DUP1 PUSH4 0x70A08231 EQ PUSH2 0x1A5 JUMPI DUP1 PUSH4 0x95D89B41 EQ PUSH2 0x1E2 JUMPI DUP1 PUSH4 0xA0712D68 EQ PUSH2 0x20D JUMPI DUP1 PUSH4 0xA9059CBB EQ PUSH2 0x236 JUMPI DUP1 PUSH4 0xDD62ED3E EQ PUSH2 0x25F JUMPI PUSH2 0xA7 JUMP JUMPDEST DUP1 PUSH4 0x6FDDE03 EQ PUSH2 0xA9 JUMPI DUP1 PUSH4 0x95EA7B3 EQ PUSH2 0xD4 JUMPI DUP1 PUSH4 0x18160DDD EQ PUSH2 0xFD JUMPI DUP1 PUSH4 0x23B872DD EQ PUSH2 0x128 JUMPI DUP1 PUSH4 0x313CE567 EQ PUSH2 0x151 JUMPI PUSH2 0xA7 JUMP JUMPDEST CALLDATASIZE PUSH2 0xA7 JUMPI STOP JUMPDEST STOP JUMPDEST CALLVALUE DUP1 ISZERO PUSH2 0xB5 JUMPI PUSH1 0x0 DUP1 REVERT JUMPDEST POP PUSH2 0xBE PUSH2 0x29C JUMP JUMPDEST PUSH1 0x40 MLOAD PUSH2 0xCB SWAP2 SWAP1 PUSH2 0xDDD JUMP JUMPDEST PUSH1 0x40 MLOAD DUP1 SWAP2 SUB SWAP1 RETURN JUMPDEST CALLVALUE DUP1 ISZERO PUSH2 0xE0 JUMPI PUSH1 0x0 DUP1 REVERT JUMPDEST POP PUSH2 0xFB PUSH1 0x4 DUP1 CALLDATASIZE SUB DUP2 ADD SWAP1 PUSH2 0xF6 SWAP2 SWAP1 PUSH2 0xCE2 JUMP JUMPDEST PUSH2 0x32A JUMP JUMPDEST STOP JUMPDEST CALLVALUE DUP1 ISZERO PUSH2 0x109 JUMPI PUSH1 0x0 DUP1 REVERT JUMPDEST POP PUSH2 0x112 PUSH2 0x414 JUMP JUMPDEST PUSH1 0x40 MLOAD PUSH2 0x11F SWAP2 SWAP1 PUSH2 0xE3F JUMP JUMPDEST PUSH1 0x40 MLOAD DUP1 SWAP2 SUB SWAP1 RETURN JUMPDEST CALLVALUE DUP1 ISZERO PUSH2 0x134 JUMPI PUSH1 0x0 DUP1 REVERT JUMPDEST POP PUSH2 0x14F PUSH1 0x4 DUP1 CALLDATASIZE SUB DUP2 ADD SWAP1 PUSH2 0x14A SWAP2 SWAP1 PUSH2 0xC8F JUMP JUMPDEST PUSH2 0x41E JUMP JUMPDEST STOP JUMPDEST CALLVALUE DUP1 ISZERO PUSH2 0x15D JUMPI PUSH1 0x0 DUP1 REVERT JUMPDEST POP PUSH2 0x166 PUSH2 0x616 JUMP JUMPDEST PUSH1 0x40 MLOAD PUSH2 0x173 SWAP2 SWAP1 PUSH2 0xE3F JUMP JUMPDEST PUSH1 0x40 MLOAD DUP1 SWAP2 SUB SWAP1 RETURN JUMPDEST CALLVALUE DUP1 ISZERO PUSH2 0x188 JUMPI PUSH1 0x0 DUP1 REVERT JUMPDEST POP PUSH2 0x1A3 PUSH1 0x4 DUP1 CALLDATASIZE SUB DUP2 ADD SWAP1 PUSH2 0x19E SWAP2 SWAP1 PUSH2 0xD22 JUMP JUMPDEST PUSH2 0x61B JUMP JUMPDEST STOP JUMPDEST CALLVALUE DUP1 ISZERO PUSH2 0x1B1 JUMPI PUSH1 0x0 DUP1 REVERT JUMPDEST POP PUSH2 0x1CC PUSH1 0x4 DUP1 CALLDATASIZE SUB DUP2 ADD SWAP1 PUSH2 0x1C7 SWAP2 SWAP1 PUSH2 0xC22 JUMP JUMPDEST PUSH2 0x7D0 JUMP JUMPDEST PUSH1 0x40 MLOAD PUSH2 0x1D9 SWAP2 SWAP1 PUSH2 0xE3F JUMP JUMPDEST PUSH1 0x40 MLOAD DUP1 SWAP2 SUB SWAP1 RETURN JUMPDEST CALLVALUE DUP1 ISZERO PUSH2 0x1EE JUMPI PUSH1 0x0 DUP1 REVERT JUMPDEST POP PUSH2 0x1F7 PUSH2 0x819 JUMP JUMPDEST PUSH1 0x40 MLOAD PUSH2 0x204 SWAP2 SWAP1 PUSH2 0xDDD JUMP JUMPDEST PUSH1 0x40 MLOAD DUP1 SWAP2 SUB SWAP1 RETURN JUMPDEST CALLVALUE DUP1 ISZERO PUSH2 0x219 JUMPI PUSH1 0x0 DUP1 REVERT JUMPDEST POP PUSH2 0x234 PUSH1 0x4 DUP1 CALLDATASIZE SUB DUP2 ADD SWAP1 PUSH2 0x22F SWAP2 SWAP1 PUSH2 0xD22 JUMP JUMPDEST PUSH2 0x8A7 JUMP JUMPDEST STOP JUMPDEST CALLVALUE DUP1 ISZERO PUSH2 0x242 JUMPI PUSH1 0x0 DUP1 REVERT JUMPDEST POP PUSH2 0x25D PUSH1 0x4 DUP1 CALLDATASIZE SUB DUP2 ADD SWAP1 PUSH2 0x258 SWAP2 SWAP1 PUSH2 0xCE2 JUMP JUMPDEST PUSH2 0xA0D JUMP JUMPDEST STOP JUMPDEST CALLVALUE DUP1 ISZERO PUSH2 0x26B JUMPI PUSH1 0x0 DUP1 REVERT JUMPDEST POP PUSH2 0x286 PUSH1 0x4 DUP1 CALLDATASIZE SUB DUP2 ADD SWAP1 PUSH2 0x281 SWAP2 SWAP1 PUSH2 0xC4F JUMP JUMPDEST PUSH2 0xB71 JUMP JUMPDEST PUSH1 0x40 MLOAD PUSH2 0x293 SWAP2 SWAP1 PUSH2 0xE3F JUMP JUMPDEST PUSH1 0x40 MLOAD DUP1 SWAP2 SUB SWAP1 RETURN JUMPDEST PUSH1 0x4 DUP1 SLOAD PUSH2 0x2A9 SWAP1 PUSH2 0xF6F JUMP JUMPDEST DUP1 PUSH1 0x1F ADD PUSH1 0x20 DUP1 SWAP2 DIV MUL PUSH1 0x20 ADD PUSH1 0x40 MLOAD SWAP1 DUP2 ADD PUSH1 0x40 MSTORE DUP1 SWAP3 SWAP2 SWAP1 DUP2 DUP2 MSTORE PUSH1 0x20 ADD DUP3 DUP1 SLOAD PUSH2 0x2D5 SWAP1 PUSH2 0xF6F JUMP JUMPDEST DUP1 ISZERO PUSH2 0x322 JUMPI DUP1 PUSH1 0x1F LT PUSH2 0x2F7 JUMPI PUSH2 0x100 DUP1 DUP4 SLOAD DIV MUL DUP4 MSTORE SWAP2 PUSH1 0x20 ADD SWAP2 PUSH2 0x322 JUMP JUMPDEST DUP3 ADD SWAP2 SWAP1 PUSH1 0x0 MSTORE PUSH1 0x20 PUSH1 0x0 KECCAK256 SWAP1 JUMPDEST DUP2 SLOAD DUP2 MSTORE SWAP1 PUSH1 0x1 ADD SWAP1 PUSH1 0x20 ADD DUP1 DUP4 GT PUSH2 0x305 JUMPI DUP3 SWAP1 SUB PUSH1 0x1F AND DUP3 ADD SWAP2 JUMPDEST POP POP POP POP POP DUP2 JUMP JUMPDEST DUP1 PUSH1 0x3 PUSH1 0x0 CALLER PUSH20 0xFFFFFFFFFFFFFFFFFFFFFFFFFFFFFFFFFFFFFFFF AND PUSH20 0xFFFFFFFFFFFFFFFFFFFFFFFFFFFFFFFFFFFFFFFF AND DUP2 MSTORE PUSH1 0x20 ADD SWAP1 DUP2 MSTORE PUSH1 0x20 ADD PUSH1 0x0 KECCAK256 PUSH1 0x0 DUP5 PUSH20 0xFFFFFFFFFFFFFFFFFFFFFFFFFFFFFFFFFFFFFFFF AND PUSH20 0xFFFFFFFFFFFFFFFFFFFFFFFFFFFFFFFFFFFFFFFF AND DUP2 MSTORE PUSH1 0x20 ADD SWAP1 DUP2 MSTORE PUSH1 0x20 ADD PUSH1 0x0 KECCAK256 DUP2 SWAP1 SSTORE POP DUP2 PUSH20 0xFFFFFFFFFFFFFFFFFFFFFFFFFFFFFFFFFFFFFFFF AND CALLER PUSH20 0xFFFFFFFFFFFFFFFFFFFFFFFFFFFFFFFFFFFFFFFF AND PUSH32 0x8C5BE1E5EBEC7D5BD14F71427D1E84F3DD0314C0F7B2291E5B200AC8C7C3B925 DUP4 PUSH1 0x40 MLOAD PUSH2 0x408 SWAP2 SWAP1 PUSH2 0xE3F JUMP JUMPDEST PUSH1 0x40 MLOAD DUP1 SWAP2 SUB SWAP1 LOG3 POP POP JUMP JUMPDEST PUSH1 0x0 PUSH1 0x1 SLOAD SWAP1 POP SWAP1 JUMP JUMPDEST DUP3 DUP2 DUP1 PUSH2 0x42A DUP4 PUSH2 0x7D0 JUMP JUMPDEST LT ISZERO PUSH2 0x46B JUMPI PUSH1 0x40 MLOAD PUSH32 0x8C379A000000000000000000000000000000000000000000000000000000000 DUP2 MSTORE PUSH1 0x4 ADD PUSH2 0x462 SWAP1 PUSH2 0xE1F JUMP JUMPDEST PUSH1 0x40 MLOAD DUP1 SWAP2 SUB SWAP1 REVERT JUMPDEST DUP3 PUSH1 0x3 PUSH1 0x0 DUP8 PUSH20 0xFFFFFFFFFFFFFFFFFFFFFFFFFFFFFFFFFFFFFFFF AND PUSH20 0xFFFFFFFFFFFFFFFFFFFFFFFFFFFFFFFFFFFFFFFF AND DUP2 MSTORE PUSH1 0x20 ADD SWAP1 DUP2 MSTORE PUSH1 0x20 ADD PUSH1 0x0 KECCAK256 PUSH1 0x0 DUP7 PUSH20 0xFFFFFFFFFFFFFFFFFFFFFFFFFFFFFFFFFFFFFFFF AND PUSH20 0xFFFFFFFFFFFFFFFFFFFFFFFFFFFFFFFFFFFFFFFF AND DUP2 MSTORE PUSH1 0x20 ADD SWAP1 DUP2 MSTORE PUSH1 0x20 ADD PUSH1 0x0 KECCAK256 PUSH1 0x0 DUP3 DUP3 SLOAD PUSH2 0x4F7 SWAP2 SWAP1 PUSH2 0xECC JUMP JUMPDEST SWAP3 POP POP DUP2 SWAP1 SSTORE POP DUP3 PUSH1 0x2 PUSH1 0x0 DUP8 PUSH20 0xFFFFFFFFFFFFFFFFFFFFFFFFFFFFFFFFFFFFFFFF AND PUSH20 0xFFFFFFFFFFFFFFFFFFFFFFFFFFFFFFFFFFFFFFFF AND DUP2 MSTORE PUSH1 0x20 ADD SWAP1 DUP2 MSTORE PUSH1 0x20 ADD PUSH1 0x0 KECCAK256 PUSH1 0x0 DUP3 DUP3 SLOAD PUSH2 0x54D SWAP2 SWAP1 PUSH2 0xECC JUMP JUMPDEST SWAP3 POP POP DUP2 SWAP1 SSTORE POP DUP3 PUSH1 0x2 PUSH1 0x0 DUP7 PUSH20 0xFFFFFFFFFFFFFFFFFFFFFFFFFFFFFFFFFFFFFFFF AND PUSH20 0xFFFFFFFFFFFFFFFFFFFFFFFFFFFFFFFFFFFFFFFF AND DUP2 MSTORE PUSH1 0x20 ADD SWAP1 DUP2 MSTORE PUSH1 0x20 ADD PUSH1 0x0 KECCAK256 PUSH1 0x0 DUP3 DUP3 SLOAD PUSH2 0x5A3 SWAP2 SWAP1 PUSH2 0xE76 JUMP JUMPDEST SWAP3 POP POP DUP2 SWAP1 SSTORE POP DUP4 PUSH20 0xFFFFFFFFFFFFFFFFFFFFFFFFFFFFFFFFFFFFFFFF AND DUP6 PUSH20 0xFFFFFFFFFFFFFFFFFFFFFFFFFFFFFFFFFFFFFFFF AND PUSH32 0xDDF252AD1BE2C89B69C2B068FC378DAA952BA7F163C4A11628F55A4DF523B3EF DUP6 PUSH1 0x40 MLOAD PUSH2 0x607 SWAP2 SWAP1 PUSH2 0xE3F JUMP JUMPDEST PUSH1 0x40 MLOAD DUP1 SWAP2 SUB SWAP1 LOG3 POP POP POP POP POP JUMP JUMPDEST PUSH1 0x0 SWAP1 JUMP JUMPDEST CALLER DUP2 DUP1 PUSH2 0x627 DUP4 PUSH2 0x7D0 JUMP JUMPDEST LT ISZERO PUSH2 0x668 JUMPI PUSH1 0x40 MLOAD PUSH32 0x8C379A000000000000000000000000000000000000000000000000000000000 DUP2 MSTORE PUSH1 0x4 ADD PUSH2 0x65F SWAP1 PUSH2 0xE1F JUMP JUMPDEST PUSH1 0x40 MLOAD DUP1 SWAP2 SUB SWAP1 REVERT JUMPDEST PUSH1 0x0 DUP1 SLOAD SWAP1 PUSH2 0x100 EXP SWAP1 DIV PUSH20 0xFFFFFFFFFFFFFFFFFFFFFFFFFFFFFFFFFFFFFFFF AND PUSH20 0xFFFFFFFFFFFFFFFFFFFFFFFFFFFFFFFFFFFFFFFF AND CALLER PUSH20 0xFFFFFFFFFFFFFFFFFFFFFFFFFFFFFFFFFFFFFFFF AND EQ PUSH2 0x6F6 JUMPI PUSH1 0x40 MLOAD PUSH32 0x8C379A000000000000000000000000000000000000000000000000000000000 DUP2 MSTORE PUSH1 0x4 ADD PUSH2 0x6ED SWAP1 PUSH2 0xDFF JUMP JUMPDEST PUSH1 0x40 MLOAD DUP1 SWAP2 SUB SWAP1 REVERT JUMPDEST DUP3 PUSH1 0x2 PUSH1 0x0 CALLER PUSH20 0xFFFFFFFFFFFFFFFFFFFFFFFFFFFFFFFFFFFFFFFF AND PUSH20 0xFFFFFFFFFFFFFFFFFFFFFFFFFFFFFFFFFFFFFFFF AND DUP2 MSTORE PUSH1 0x20 ADD SWAP1 DUP2 MSTORE PUSH1 0x20 ADD PUSH1 0x0 KECCAK256 PUSH1 0x0 DUP3 DUP3 SLOAD PUSH2 0x745 SWAP2 SWAP1 PUSH2 0xECC JUMP JUMPDEST SWAP3 POP POP DUP2 SWAP1 SSTORE POP DUP3 PUSH1 0x1 PUSH1 0x0 DUP3 DUP3 SLOAD PUSH2 0x75E SWAP2 SWAP1 PUSH2 0xECC JUMP JUMPDEST SWAP3 POP POP DUP2 SWAP1 SSTORE POP PUSH1 0x0 PUSH20 0xFFFFFFFFFFFFFFFFFFFFFFFFFFFFFFFFFFFFFFFF AND CALLER PUSH20 0xFFFFFFFFFFFFFFFFFFFFFFFFFFFFFFFFFFFFFFFF AND PUSH32 0xDDF252AD1BE2C89B69C2B068FC378DAA952BA7F163C4A11628F55A4DF523B3EF DUP6 PUSH1 0x40 MLOAD PUSH2 0x7C3 SWAP2 SWAP1 PUSH2 0xE3F JUMP JUMPDEST PUSH1 0x40 MLOAD DUP1 SWAP2 SUB SWAP1 LOG3 POP POP POP JUMP JUMPDEST PUSH1 0x0 PUSH1 0x2 PUSH1 0x0 DUP4 PUSH20 0xFFFFFFFFFFFFFFFFFFFFFFFFFFFFFFFFFFFFFFFF AND PUSH20 0xFFFFFFFFFFFFFFFFFFFFFFFFFFFFFFFFFFFFFFFF AND DUP2 MSTORE PUSH1 0x20 ADD SWAP1 DUP2 MSTORE PUSH1 0x20 ADD PUSH1 0x0 KECCAK256 SLOAD SWAP1 POP SWAP2 SWAP1 POP JUMP JUMPDEST PUSH1 0x5 DUP1 SLOAD PUSH2 0x826 SWAP1 PUSH2 0xF6F JUMP JUMPDEST DUP1 PUSH1 0x1F ADD PUSH1 0x20 DUP1 SWAP2 DIV MUL PUSH1 0x20 ADD PUSH1 0x40 MLOAD SWAP1 DUP2 ADD PUSH1 0x40 MSTORE DUP1 SWAP3 SWAP2 SWAP1 DUP2 DUP2 MSTORE PUSH1 0x20 ADD DUP3 DUP1 SLOAD PUSH2 0x852 SWAP1 PUSH2 0xF6F JUMP JUMPDEST DUP1 ISZERO PUSH2 0x89F JUMPI DUP1 PUSH1 0x1F LT PUSH2 0x874 JUMPI PUSH2 0x100 DUP1 DUP4 SLOAD DIV MUL DUP4 MSTORE SWAP2 PUSH1 0x20 ADD SWAP2 PUSH2 0x89F JUMP JUMPDEST DUP3 ADD SWAP2 SWAP1 PUSH1 0x0 MSTORE PUSH1 0x20 PUSH1 0x0 KECCAK256 SWAP1 JUMPDEST DUP2 SLOAD DUP2 MSTORE SWAP1 PUSH1 0x1 ADD SWAP1 PUSH1 0x20 ADD DUP1 DUP4 GT PUSH2 0x882 JUMPI DUP3 SWAP1 SUB PUSH1 0x1F AND DUP3 ADD SWAP2 JUMPDEST POP POP POP POP POP DUP2 JUMP JUMPDEST PUSH1 0x0 DUP1 SLOAD SWAP1 PUSH2 0x100 EXP SWAP1 DIV PUSH20 0xFFFFFFFFFFFFFFFFFFFFFFFFFFFFFFFFFFFFFFFF AND PUSH20 0xFFFFFFFFFFFFFFFFFFFFFFFFFFFFFFFFFFFFFFFF AND CALLER PUSH20 0xFFFFFFFFFFFFFFFFFFFFFFFFFFFFFFFFFFFFFFFF AND EQ PUSH2 0x935 JUMPI PUSH1 0x40 MLOAD PUSH32 0x8C379A000000000000000000000000000000000000000000000000000000000 DUP2 MSTORE PUSH1 0x4 ADD PUSH2 0x92C SWAP1 PUSH2 0xDFF JUMP JUMPDEST PUSH1 0x40 MLOAD DUP1 SWAP2 SUB SWAP1 REVERT JUMPDEST DUP1 PUSH1 0x2 PUSH1 0x0 CALLER PUSH20 0xFFFFFFFFFFFFFFFFFFFFFFFFFFFFFFFFFFFFFFFF AND PUSH20 0xFFFFFFFFFFFFFFFFFFFFFFFFFFFFFFFFFFFFFFFF AND DUP2 MSTORE PUSH1 0x20 ADD SWAP1 DUP2 MSTORE PUSH1 0x20 ADD PUSH1 0x0 KECCAK256 PUSH1 0x0 DUP3 DUP3 SLOAD PUSH2 0x984 SWAP2 SWAP1 PUSH2 0xE76 JUMP JUMPDEST SWAP3 POP POP DUP2 SWAP1 SSTORE POP DUP1 PUSH1 0x1 PUSH1 0x0 DUP3 DUP3 SLOAD PUSH2 0x99D SWAP2 SWAP1 PUSH2 0xE76 JUMP JUMPDEST SWAP3 POP POP DUP2 SWAP1 SSTORE POP CALLER PUSH20 0xFFFFFFFFFFFFFFFFFFFFFFFFFFFFFFFFFFFFFFFF AND PUSH1 0x0 PUSH20 0xFFFFFFFFFFFFFFFFFFFFFFFFFFFFFFFFFFFFFFFF AND PUSH32 0xDDF252AD1BE2C89B69C2B068FC378DAA952BA7F163C4A11628F55A4DF523B3EF DUP4 PUSH1 0x40 MLOAD PUSH2 0xA02 SWAP2 SWAP1 PUSH2 0xE3F JUMP JUMPDEST PUSH1 0x40 MLOAD DUP1 SWAP2 SUB SWAP1 LOG3 POP JUMP JUMPDEST CALLER DUP2 DUP1 PUSH2 0xA19 DUP4 PUSH2 0x7D0 JUMP JUMPDEST LT ISZERO PUSH2 0xA5A JUMPI PUSH1 0x40 MLOAD PUSH32 0x8C379A000000000000000000000000000000000000000000000000000000000 DUP2 MSTORE PUSH1 0x4 ADD PUSH2 0xA51 SWAP1 PUSH2 0xE1F JUMP JUMPDEST PUSH1 0x40 MLOAD DUP1 SWAP2 SUB SWAP1 REVERT JUMPDEST DUP3 PUSH1 0x2 PUSH1 0x0 CALLER PUSH20 0xFFFFFFFFFFFFFFFFFFFFFFFFFFFFFFFFFFFFFFFF AND PUSH20 0xFFFFFFFFFFFFFFFFFFFFFFFFFFFFFFFFFFFFFFFF AND DUP2 MSTORE PUSH1 0x20 ADD SWAP1 DUP2 MSTORE PUSH1 0x20 ADD PUSH1 0x0 KECCAK256 PUSH1 0x0 DUP3 DUP3 SLOAD PUSH2 0xAA9 SWAP2 SWAP1 PUSH2 0xECC JUMP JUMPDEST SWAP3 POP POP DUP2 SWAP1 SSTORE POP DUP3 PUSH1 0x2 PUSH1 0x0 DUP7 PUSH20 0xFFFFFFFFFFFFFFFFFFFFFFFFFFFFFFFFFFFFFFFF AND PUSH20 0xFFFFFFFFFFFFFFFFFFFFFFFFFFFFFFFFFFFFFFFF AND DUP2 MSTORE PUSH1 0x20 ADD SWAP1 DUP2 MSTORE PUSH1 0x20 ADD PUSH1 0x0 KECCAK256 PUSH1 0x0 DUP3 DUP3 SLOAD PUSH2 0xAFF SWAP2 SWAP1 PUSH2 0xE76 JUMP JUMPDEST SWAP3 POP POP DUP2 SWAP1 SSTORE POP DUP4 PUSH20 0xFFFFFFFFFFFFFFFFFFFFFFFFFFFFFFFFFFFFFFFF AND CALLER PUSH20 0xFFFFFFFFFFFFFFFFFFFFFFFFFFFFFFFFFFFFFFFF AND PUSH32 0xDDF252AD1BE2C89B69C2B068FC378DAA952BA7F163C4A11628F55A4DF523B3EF DUP6 PUSH1 0x40 MLOAD PUSH2 0xB63 SWAP2 SWAP1 PUSH2 0xE3F JUMP JUMPDEST PUSH1 0x40 MLOAD DUP1 SWAP2 SUB SWAP1 LOG3 POP POP POP POP JUMP JUMPDEST PUSH1 0x0 PUSH1 0x3 PUSH1 0x0 DUP5 PUSH20 0xFFFFFFFFFFFFFFFFFFFFFFFFFFFFFFFFFFFFFFFF AND PUSH20 0xFFFFFFFFFFFFFFFFFFFFFFFFFFFFFFFFFFFFFFFF AND DUP2 MSTORE PUSH1 0x20 ADD SWAP1 DUP2 MSTORE PUSH1 0x20 ADD PUSH1 0x0 KECCAK256 PUSH1 0x0 DUP4 PUSH20 0xFFFFFFFFFFFFFFFFFFFFFFFFFFFFFFFFFFFFFFFF AND PUSH20 0xFFFFFFFFFFFFFFFFFFFFFFFFFFFFFFFFFFFFFFFF AND DUP2 MSTORE PUSH1 0x20 ADD SWAP1 DUP2 MSTORE PUSH1 0x20 ADD PUSH1 0x0 KECCAK256 SLOAD SWAP1 POP SWAP3 SWAP2 POP POP JUMP JUMPDEST PUSH1 0x0 DUP2 CALLDATALOAD SWAP1 POP PUSH2 0xC07 DUP2 PUSH2 0x1067 JUMP JUMPDEST SWAP3 SWAP2 POP POP JUMP JUMPDEST PUSH1 0x0 DUP2 CALLDATALOAD SWAP1 POP PUSH2 0xC1C DUP2 PUSH2 0x107E JUMP JUMPDEST SWAP3 SWAP2 POP POP JUMP JUMPDEST PUSH1 0x0 PUSH1 0x20 DUP3 DUP5 SUB SLT ISZERO PUSH2 0xC38 JUMPI PUSH2 0xC37 PUSH2 0xFFF JUMP JUMPDEST JUMPDEST PUSH1 0x0 PUSH2 0xC46 DUP5 DUP3 DUP6 ADD PUSH2 0xBF8 JUMP JUMPDEST SWAP2 POP POP SWAP3 SWAP2 POP POP JUMP JUMPDEST PUSH1 0x0 DUP1 PUSH1 0x40 DUP4 DUP6 SUB SLT ISZERO PUSH2 0xC66 JUMPI PUSH2 0xC65 PUSH2 0xFFF JUMP JUMPDEST JUMPDEST PUSH1 0x0 PUSH2 0xC74 DUP6 DUP3 DUP7 ADD PUSH2 0xBF8 JUMP JUMPDEST SWAP3 POP POP PUSH1 0x20 PUSH2 0xC85 DUP6 DUP3 DUP7 ADD PUSH2 0xBF8 JUMP JUMPDEST SWAP2 POP POP SWAP3 POP SWAP3 SWAP1 POP JUMP JUMPDEST PUSH1 0x0 DUP1 PUSH1 0x0 PUSH1 0x60 DUP5 DUP7 SUB SLT ISZERO PUSH2 0xCA8 JUMPI PUSH2 0xCA7 PUSH2 0xFFF JUMP JUMPDEST JUMPDEST PUSH1 0x0 PUSH2 0xCB6 DUP7 DUP3 DUP8 ADD PUSH2 0xBF8 JUMP JUMPDEST SWAP4 POP POP PUSH1 0x20 PUSH2 0xCC7 DUP7 DUP3 DUP8 ADD PUSH2 0xBF8 JUMP JUMPDEST SWAP3 POP POP PUSH1 0x40 PUSH2 0xCD8 DUP7 DUP3 DUP8 ADD PUSH2 0xC0D JUMP JUMPDEST SWAP2 POP POP SWAP3 POP SWAP3 POP SWAP3 JUMP JUMPDEST PUSH1 0x0 DUP1 PUSH1 0x40 DUP4 DUP6 SUB SLT ISZERO PUSH2 0xCF9 JUMPI PUSH2 0xCF8 PUSH2 0xFFF JUMP JUMPDEST JUMPDEST PUSH1 0x0 PUSH2 0xD07 DUP6 DUP3 DUP7 ADD PUSH2 0xBF8 JUMP JUMPDEST SWAP3 POP POP PUSH1 0x20 PUSH2 0xD18 DUP6 DUP3 DUP7 ADD PUSH2 0xC0D JUMP JUMPDEST SWAP2 POP POP SWAP3 POP SWAP3 SWAP1 POP JUMP JUMPDEST PUSH1 0x0 PUSH1 0x20 DUP3 DUP5 SUB SLT ISZERO PUSH2 0xD38 JUMPI PUSH2 0xD37 PUSH2 0xFFF JUMP JUMPDEST JUMPDEST PUSH1 0x0 PUSH2 0xD46 DUP5 DUP3 DUP6 ADD PUSH2 0xC0D JUMP JUMPDEST SWAP2 POP POP SWAP3 SWAP2 POP POP JUMP JUMPDEST PUSH1 0x0 PUSH2 0xD5A DUP3 PUSH2 0xE5A JUMP JUMPDEST PUSH2 0xD64 DUP2 DUP6 PUSH2 0xE65 JUMP JUMPDEST SWAP4 POP PUSH2 0xD74 DUP2 DUP6 PUSH1 0x20 DUP7 ADD PUSH2 0xF3C JUMP JUMPDEST PUSH2 0xD7D DUP2 PUSH2 0x1004 JUMP JUMPDEST DUP5 ADD SWAP2 POP POP SWAP3 SWAP2 POP POP JUMP JUMPDEST PUSH1 0x0 PUSH2 0xD95 PUSH1 0x15 DUP4 PUSH2 0xE65 JUMP JUMPDEST SWAP2 POP PUSH2 0xDA0 DUP3 PUSH2 0x1015 JUMP JUMPDEST PUSH1 0x20 DUP3 ADD SWAP1 POP SWAP2 SWAP1 POP JUMP JUMPDEST PUSH1 0x0 PUSH2 0xDB8 PUSH1 0x12 DUP4 PUSH2 0xE65 JUMP JUMPDEST SWAP2 POP PUSH2 0xDC3 DUP3 PUSH2 0x103E JUMP JUMPDEST PUSH1 0x20 DUP3 ADD SWAP1 POP SWAP2 SWAP1 POP JUMP JUMPDEST PUSH2 0xDD7 DUP2 PUSH2 0xF32 JUMP JUMPDEST DUP3 MSTORE POP POP JUMP JUMPDEST PUSH1 0x0 PUSH1 0x20 DUP3 ADD SWAP1 POP DUP2 DUP2 SUB PUSH1 0x0 DUP4 ADD MSTORE PUSH2 0xDF7 DUP2 DUP5 PUSH2 0xD4F JUMP JUMPDEST SWAP1 POP SWAP3 SWAP2 POP POP JUMP JUMPDEST PUSH1 0x0 PUSH1 0x20 DUP3 ADD SWAP1 POP DUP2 DUP2 SUB PUSH1 0x0 DUP4 ADD MSTORE PUSH2 0xE18 DUP2 PUSH2 0xD88 JUMP JUMPDEST SWAP1 POP SWAP2 SWAP1 POP JUMP JUMPDEST PUSH1 0x0 PUSH1 0x20 DUP3 ADD SWAP1 POP DUP2 DUP2 SUB PUSH1 0x0 DUP4 ADD MSTORE PUSH2 0xE38 DUP2 PUSH2 0xDAB JUMP JUMPDEST SWAP1 POP SWAP2 SWAP1 POP JUMP JUMPDEST PUSH1 0x0 PUSH1 0x20 DUP3 ADD SWAP1 POP PUSH2 0xE54 PUSH1 0x0 DUP4 ADD DUP5 PUSH2 0xDCE JUMP JUMPDEST SWAP3 SWAP2 POP POP JUMP JUMPDEST PUSH1 0x0 DUP2 MLOAD SWAP1 POP SWAP2 SWAP1 POP JUMP JUMPDEST PUSH1 0x0 DUP3 DUP3 MSTORE PUSH1 0x20 DUP3 ADD SWAP1 POP SWAP3 SWAP2 POP POP JUMP JUMPDEST PUSH1 0x0 PUSH2 0xE81 DUP3 PUSH2 0xF32 JUMP JUMPDEST SWAP2 POP PUSH2 0xE8C DUP4 PUSH2 0xF32 JUMP JUMPDEST SWAP3 POP DUP3 PUSH32 0xFFFFFFFFFFFFFFFFFFFFFFFFFFFFFFFFFFFFFFFFFFFFFFFFFFFFFFFFFFFFFFFF SUB DUP3 GT ISZERO PUSH2 0xEC1 JUMPI PUSH2 0xEC0 PUSH2 0xFA1 JUMP JUMPDEST JUMPDEST DUP3 DUP3 ADD SWAP1 POP SWAP3 SWAP2 POP POP JUMP JUMPDEST PUSH1 0x0 PUSH2 0xED7 DUP3 PUSH2 0xF32 JUMP JUMPDEST SWAP2 POP PUSH2 0xEE2 DUP4 PUSH2 0xF32 JUMP JUMPDEST SWAP3 POP DUP3 DUP3 LT ISZERO PUSH2 0xEF5 JUMPI PUSH2 0xEF4 PUSH2 0xFA1 JUMP JUMPDEST JUMPDEST DUP3 DUP3 SUB SWAP1 POP SWAP3 SWAP2 POP POP JUMP JUMPDEST PUSH1 0x0 PUSH2 0xF0B DUP3 PUSH2 0xF12 JUMP JUMPDEST SWAP1 POP SWAP2 SWAP1 POP JUMP JUMPDEST PUSH1 0x0 PUSH20 0xFFFFFFFFFFFFFFFFFFFFFFFFFFFFFFFFFFFFFFFF DUP3 AND SWAP1 POP SWAP2 SWAP1 POP JUMP JUMPDEST PUSH1 0x0 DUP2 SWAP1 POP SWAP2 SWAP1 POP JUMP JUMPDEST PUSH1 0x0 JUMPDEST DUP4 DUP2 LT ISZERO PUSH2 0xF5A JUMPI DUP1 DUP3 ADD MLOAD DUP2 DUP5 ADD MSTORE PUSH1 0x20 DUP2 ADD SWAP1 POP PUSH2 0xF3F JUMP JUMPDEST DUP4 DUP2 GT ISZERO PUSH2 0xF69 JUMPI PUSH1 0x0 DUP5 DUP5 ADD MSTORE JUMPDEST POP POP POP POP JUMP JUMPDEST PUSH1 0x0 PUSH1 0x2 DUP3 DIV SWAP1 POP PUSH1 0x1 DUP3 AND DUP1 PUSH2 0xF87 JUMPI PUSH1 0x7F DUP3 AND SWAP2 POP JUMPDEST PUSH1 0x20 DUP3 LT DUP2 EQ ISZERO PUSH2 0xF9B JUMPI PUSH2 0xF9A PUSH2 0xFD0 JUMP JUMPDEST JUMPDEST POP SWAP2 SWAP1 POP JUMP JUMPDEST PUSH32 0x4E487B7100000000000000000000000000000000000000000000000000000000 PUSH1 0x0 MSTORE PUSH1 0x11 PUSH1 0x4 MSTORE PUSH1 0x24 PUSH1 0x0 REVERT JUMPDEST PUSH32 0x4E487B7100000000000000000000000000000000000000000000000000000000 PUSH1 0x0 MSTORE PUSH1 0x22 PUSH1 0x4 MSTORE PUSH1 0x24 PUSH1 0x0 REVERT JUMPDEST PUSH1 0x0 DUP1 REVERT JUMPDEST PUSH1 0x0 PUSH1 0x1F NOT PUSH1 0x1F DUP4 ADD AND SWAP1 POP SWAP2 SWAP1 POP JUMP JUMPDEST PUSH32 0x596F7520617265206E6F7420616E206F776E6572210000000000000000000000 PUSH1 0x0 DUP3 ADD MSTORE POP JUMP JUMPDEST PUSH32 0x4E6F7420656E6F75676820746F6B656E73210000000000000000000000000000 PUSH1 0x0 DUP3 ADD MSTORE POP JUMP JUMPDEST PUSH2 0x1070 DUP2 PUSH2 0xF00 JUMP JUMPDEST DUP2 EQ PUSH2 0x107B JUMPI PUSH1 0x0 DUP1 REVERT JUMPDEST POP JUMP JUMPDEST PUSH2 0x1087 DUP2 PUSH2 0xF32 JUMP JUMPDEST DUP2 EQ PUSH2 0x1092 JUMPI PUSH1 0x0 DUP1 REVERT JUMPDEST POP JUMP INVALID LOG2 PUSH5 0x6970667358 0x22 SLT KECCAK256 CALLDATACOPY TIMESTAMP XOR ADDRESS 0xAF STOP PUSH10 0xF54A01FFFE5371E3AB72 0xF9 0xDE BASEFEE CALL SWAP16 XOR PUSH6 0x3B6FC274009C PUSH30 0xB64736F6C63430008070033000000000000000000000000000000000000 "
				},
				"gasEstimates": {
					"creation": {
						"codeDepositCost": "859800",
						"executionCost": "infinite",
						"totalCost": "infinite"
					},
					"external": {
						"": "196",
						"allowance(address,address)": "infinite",
						"approve(address,uint256)": "infinite",
						"balanceOf(address)": "2863",
						"burn(uint256)": "infinite",
						"decimals()": "418",
						"mint(uint256)": "infinite",
						"name()": "infinite",
						"symbol()": "infinite",
						"totalSupply()": "2482",
						"transfer(address,uint256)": "infinite",
						"transferFrom(address,address,uint256)": "infinite"
					}
				},
				"methodIdentifiers": {
					"allowance(address,address)": "dd62ed3e",
					"approve(address,uint256)": "095ea7b3",
					"balanceOf(address)": "70a08231",
					"burn(uint256)": "42966c68",
					"decimals()": "313ce567",
					"mint(uint256)": "a0712d68",
					"name()": "06fdde03",
					"symbol()": "95d89b41",
					"totalSupply()": "18160ddd",
					"transfer(address,uint256)": "a9059cbb",
					"transferFrom(address,address,uint256)": "23b872dd"
				}
			},
			"storageLayout": {
				"storage": [
					{
						"astId": 74,
						"contract": "contracts/TinToken.sol:TinToken",
						"label": "owner",
						"offset": 0,
						"slot": "0",
						"type": "t_address"
					},
					{
						"astId": 76,
						"contract": "contracts/TinToken.sol:TinToken",
						"label": "totalTokens",
						"offset": 0,
						"slot": "1",
						"type": "t_uint256"
					},
					{
						"astId": 80,
						"contract": "contracts/TinToken.sol:TinToken",
						"label": "balances",
						"offset": 0,
						"slot": "2",
						"type": "t_mapping(t_address,t_uint256)"
					},
					{
						"astId": 86,
						"contract": "contracts/TinToken.sol:TinToken",
						"label": "allowances",
						"offset": 0,
						"slot": "3",
						"type": "t_mapping(t_address,t_mapping(t_address,t_uint256))"
					},
					{
						"astId": 89,
						"contract": "contracts/TinToken.sol:TinToken",
						"label": "name",
						"offset": 0,
						"slot": "4",
						"type": "t_string_storage"
					},
					{
						"astId": 92,
						"contract": "contracts/TinToken.sol:TinToken",
						"label": "symbol",
						"offset": 0,
						"slot": "5",
						"type": "t_string_storage"
					}
				],
				"types": {
					"t_address": {
						"encoding": "inplace",
						"label": "address",
						"numberOfBytes": "20"
					},
					"t_mapping(t_address,t_mapping(t_address,t_uint256))": {
						"encoding": "mapping",
						"key": "t_address",
						"label": "mapping(address => mapping(address => uint256))",
						"numberOfBytes": "32",
						"value": "t_mapping(t_address,t_uint256)"
					},
					"t_mapping(t_address,t_uint256)": {
						"encoding": "mapping",
						"key": "t_address",
						"label": "mapping(address => uint256)",
						"numberOfBytes": "32",
						"value": "t_uint256"
					},
					"t_string_storage": {
						"encoding": "bytes",
						"label": "string",
						"numberOfBytes": "32"
					},
					"t_uint256": {
						"encoding": "inplace",
						"label": "uint256",
						"numberOfBytes": "32"
					}
				}
			},
			"userdoc": {
				"kind": "user",
				"methods": {},
				"version": 1
			}
		}
	}
}