{
	"contracts/MarketPlace.sol": {
		"MarketPlace": {
			"abi": [
				{
					"inputs": [
						{
							"internalType": "contract IERC20",
							"name": "_token",
							"type": "address"
						}
					],
					"stateMutability": "nonpayable",
					"type": "constructor"
				},
				{
					"anonymous": false,
					"inputs": [
						{
							"indexed": true,
							"internalType": "address",
							"name": "buyer",
							"type": "address"
						},
						{
							"indexed": false,
							"internalType": "uint256",
							"name": "amount",
							"type": "uint256"
						}
					],
					"name": "Bought",
					"type": "event"
				},
				{
					"anonymous": false,
					"inputs": [
						{
							"indexed": true,
							"internalType": "address",
							"name": "seller",
							"type": "address"
						},
						{
							"indexed": false,
							"internalType": "uint256",
							"name": "amount",
							"type": "uint256"
						}
					],
					"name": "Sell",
					"type": "event"
				},
				{
					"inputs": [],
					"name": "thisAddr",
					"outputs": [
						{
							"internalType": "address",
							"name": "",
							"type": "address"
						}
					],
					"stateMutability": "view",
					"type": "function"
				},
				{
					"inputs": [],
					"name": "token",
					"outputs": [
						{
							"internalType": "contract IERC20",
							"name": "",
							"type": "address"
						}
					],
					"stateMutability": "view",
					"type": "function"
				}
			],
			"devdoc": {
				"kind": "dev",
				"methods": {},
				"version": 1
			},
			"evm": {
				"assembly": "    /* \"contracts/MarketPlace.sol\":84:495  contract MarketPlace {... */\n  mstore(0x40, 0x80)\n    /* \"contracts/MarketPlace.sol\":189:193  this */\n  address\n    /* \"contracts/MarketPlace.sol\":155:194  address public thisAddr = address(this) */\n  0x02\n  exp(0x0100, 0x00)\n  dup2\n  sload\n  dup2\n  0xffffffffffffffffffffffffffffffffffffffff\n  mul\n  not\n  and\n  swap1\n  dup4\n  0xffffffffffffffffffffffffffffffffffffffff\n  and\n  mul\n  or\n  swap1\n  sstore\n  pop\n    /* \"contracts/MarketPlace.sol\":309:395  constructor(IERC20 _token) {... */\n  callvalue\n  dup1\n  iszero\n  tag_1\n  jumpi\n  0x00\n  dup1\n  revert\ntag_1:\n  pop\n  mload(0x40)\n  sub(codesize, bytecodeSize)\n  dup1\n  bytecodeSize\n  dup4\n  codecopy\n  dup2\n  dup2\n  add\n  0x40\n  mstore\n  dup2\n  add\n  swap1\n  tag_2\n  swap2\n  swap1\n  tag_3\n  jump\t// in\ntag_2:\n    /* \"contracts/MarketPlace.sol\":354:360  _token */\n  dup1\n    /* \"contracts/MarketPlace.sol\":346:351  token */\n  0x00\n  dup1\n    /* \"contracts/MarketPlace.sol\":346:360  token = _token */\n  0x0100\n  exp\n  dup2\n  sload\n  dup2\n  0xffffffffffffffffffffffffffffffffffffffff\n  mul\n  not\n  and\n  swap1\n  dup4\n  0xffffffffffffffffffffffffffffffffffffffff\n  and\n  mul\n  or\n  swap1\n  sstore\n  pop\n    /* \"contracts/MarketPlace.sol\":378:388  msg.sender */\n  caller\n    /* \"contracts/MarketPlace.sol\":370:375  owner */\n  0x01\n  0x00\n    /* \"contracts/MarketPlace.sol\":370:388  owner = msg.sender */\n  0x0100\n  exp\n  dup2\n  sload\n  dup2\n  0xffffffffffffffffffffffffffffffffffffffff\n  mul\n  not\n  and\n  swap1\n  dup4\n  0xffffffffffffffffffffffffffffffffffffffff\n  and\n  mul\n  or\n  swap1\n  sstore\n  pop\n    /* \"contracts/MarketPlace.sol\":309:395  constructor(IERC20 _token) {... */\n  pop\n    /* \"contracts/MarketPlace.sol\":84:495  contract MarketPlace {... */\n  jump(tag_6)\n    /* \"#utility.yul\":7:176   */\ntag_8:\n    /* \"#utility.yul\":77:82   */\n  0x00\n    /* \"#utility.yul\":108:114   */\n  dup2\n    /* \"#utility.yul\":102:115   */\n  mload\n    /* \"#utility.yul\":93:115   */\n  swap1\n  pop\n    /* \"#utility.yul\":124:170   */\n  tag_10\n    /* \"#utility.yul\":164:169   */\n  dup2\n    /* \"#utility.yul\":124:170   */\n  tag_11\n  jump\t// in\ntag_10:\n    /* \"#utility.yul\":7:176   */\n  swap3\n  swap2\n  pop\n  pop\n  jump\t// out\n    /* \"#utility.yul\":182:559   */\ntag_3:\n    /* \"#utility.yul\":265:271   */\n  0x00\n    /* \"#utility.yul\":314:316   */\n  0x20\n    /* \"#utility.yul\":302:311   */\n  dup3\n    /* \"#utility.yul\":293:300   */\n  dup5\n    /* \"#utility.yul\":289:312   */\n  sub\n    /* \"#utility.yul\":285:317   */\n  slt\n    /* \"#utility.yul\":282:401   */\n  iszero\n  tag_13\n  jumpi\n    /* \"#utility.yul\":320:399   */\n  tag_14\n  tag_15\n  jump\t// in\ntag_14:\n    /* \"#utility.yul\":282:401   */\ntag_13:\n    /* \"#utility.yul\":440:441   */\n  0x00\n    /* \"#utility.yul\":465:542   */\n  tag_16\n    /* \"#utility.yul\":534:541   */\n  dup5\n    /* \"#utility.yul\":525:531   */\n  dup3\n    /* \"#utility.yul\":514:523   */\n  dup6\n    /* \"#utility.yul\":510:532   */\n  add\n    /* \"#utility.yul\":465:542   */\n  tag_8\n  jump\t// in\ntag_16:\n    /* \"#utility.yul\":455:542   */\n  swap2\n  pop\n    /* \"#utility.yul\":411:552   */\n  pop\n    /* \"#utility.yul\":182:559   */\n  swap3\n  swap2\n  pop\n  pop\n  jump\t// out\n    /* \"#utility.yul\":646:742   */\ntag_19:\n    /* \"#utility.yul\":683:690   */\n  0x00\n    /* \"#utility.yul\":712:736   */\n  tag_21\n    /* \"#utility.yul\":730:735   */\n  dup3\n    /* \"#utility.yul\":712:736   */\n  tag_22\n  jump\t// in\ntag_21:\n    /* \"#utility.yul\":701:736   */\n  swap1\n  pop\n    /* \"#utility.yul\":646:742   */\n  swap2\n  swap1\n  pop\n  jump\t// out\n    /* \"#utility.yul\":748:857   */\ntag_23:\n    /* \"#utility.yul\":798:805   */\n  0x00\n    /* \"#utility.yul\":827:851   */\n  tag_25\n    /* \"#utility.yul\":845:850   */\n  dup3\n    /* \"#utility.yul\":827:851   */\n  tag_19\n  jump\t// in\ntag_25:\n    /* \"#utility.yul\":816:851   */\n  swap1\n  pop\n    /* \"#utility.yul\":748:857   */\n  swap2\n  swap1\n  pop\n  jump\t// out\n    /* \"#utility.yul\":863:989   */\ntag_22:\n    /* \"#utility.yul\":900:907   */\n  0x00\n    /* \"#utility.yul\":940:982   */\n  0xffffffffffffffffffffffffffffffffffffffff\n    /* \"#utility.yul\":933:938   */\n  dup3\n    /* \"#utility.yul\":929:983   */\n  and\n    /* \"#utility.yul\":918:983   */\n  swap1\n  pop\n    /* \"#utility.yul\":863:989   */\n  swap2\n  swap1\n  pop\n  jump\t// out\n    /* \"#utility.yul\":1118:1235   */\ntag_15:\n    /* \"#utility.yul\":1227:1228   */\n  0x00\n    /* \"#utility.yul\":1224:1225   */\n  dup1\n    /* \"#utility.yul\":1217:1229   */\n  revert\n    /* \"#utility.yul\":1241:1389   */\ntag_11:\n    /* \"#utility.yul\":1327:1364   */\n  tag_31\n    /* \"#utility.yul\":1358:1363   */\n  dup2\n    /* \"#utility.yul\":1327:1364   */\n  tag_23\n  jump\t// in\ntag_31:\n    /* \"#utility.yul\":1320:1325   */\n  dup2\n    /* \"#utility.yul\":1317:1365   */\n  eq\n    /* \"#utility.yul\":1307:1383   */\n  tag_32\n  jumpi\n    /* \"#utility.yul\":1379:1380   */\n  0x00\n    /* \"#utility.yul\":1376:1377   */\n  dup1\n    /* \"#utility.yul\":1369:1381   */\n  revert\n    /* \"#utility.yul\":1307:1383   */\ntag_32:\n    /* \"#utility.yul\":1241:1389   */\n  pop\n  jump\t// out\n    /* \"contracts/MarketPlace.sol\":84:495  contract MarketPlace {... */\ntag_6:\n  dataSize(sub_0)\n  dup1\n  dataOffset(sub_0)\n  0x00\n  codecopy\n  0x00\n  return\nstop\n\nsub_0: assembly {\n        /* \"contracts/MarketPlace.sol\":84:495  contract MarketPlace {... */\n      mstore(0x40, 0x80)\n      callvalue\n      dup1\n      iszero\n      tag_1\n      jumpi\n      0x00\n      dup1\n      revert\n    tag_1:\n      pop\n      jumpi(tag_2, lt(calldatasize, 0x04))\n      shr(0xe0, calldataload(0x00))\n      dup1\n      0xd9ef58a5\n      eq\n      tag_3\n      jumpi\n      dup1\n      0xfc0c546a\n      eq\n      tag_4\n      jumpi\n    tag_2:\n      0x00\n      dup1\n      revert\n        /* \"contracts/MarketPlace.sol\":155:194  address public thisAddr = address(this) */\n    tag_3:\n      tag_5\n      tag_6\n      jump\t// in\n    tag_5:\n      mload(0x40)\n      tag_7\n      swap2\n      swap1\n      tag_8\n      jump\t// in\n    tag_7:\n      mload(0x40)\n      dup1\n      swap2\n      sub\n      swap1\n      return\n        /* \"contracts/MarketPlace.sol\":111:130  IERC20 public token */\n    tag_4:\n      tag_9\n      tag_10\n      jump\t// in\n    tag_9:\n      mload(0x40)\n      tag_11\n      swap2\n      swap1\n      tag_12\n      jump\t// in\n    tag_11:\n      mload(0x40)\n      dup1\n      swap2\n      sub\n      swap1\n      return\n        /* \"contracts/MarketPlace.sol\":155:194  address public thisAddr = address(this) */\n    tag_6:\n      0x02\n      0x00\n      swap1\n      sload\n      swap1\n      0x0100\n      exp\n      swap1\n      div\n      0xffffffffffffffffffffffffffffffffffffffff\n      and\n      dup2\n      jump\t// out\n        /* \"contracts/MarketPlace.sol\":111:130  IERC20 public token */\n    tag_10:\n      0x00\n      dup1\n      sload\n      swap1\n      0x0100\n      exp\n      swap1\n      div\n      0xffffffffffffffffffffffffffffffffffffffff\n      and\n      dup2\n      jump\t// out\n        /* \"#utility.yul\":7:125   */\n    tag_14:\n        /* \"#utility.yul\":94:118   */\n      tag_16\n        /* \"#utility.yul\":112:117   */\n      dup2\n        /* \"#utility.yul\":94:118   */\n      tag_17\n      jump\t// in\n    tag_16:\n        /* \"#utility.yul\":89:92   */\n      dup3\n        /* \"#utility.yul\":82:119   */\n      mstore\n        /* \"#utility.yul\":7:125   */\n      pop\n      pop\n      jump\t// out\n        /* \"#utility.yul\":131:288   */\n    tag_18:\n        /* \"#utility.yul\":231:281   */\n      tag_20\n        /* \"#utility.yul\":275:280   */\n      dup2\n        /* \"#utility.yul\":231:281   */\n      tag_21\n      jump\t// in\n    tag_20:\n        /* \"#utility.yul\":226:229   */\n      dup3\n        /* \"#utility.yul\":219:282   */\n      mstore\n        /* \"#utility.yul\":131:288   */\n      pop\n      pop\n      jump\t// out\n        /* \"#utility.yul\":294:516   */\n    tag_8:\n        /* \"#utility.yul\":387:391   */\n      0x00\n        /* \"#utility.yul\":425:427   */\n      0x20\n        /* \"#utility.yul\":414:423   */\n      dup3\n        /* \"#utility.yul\":410:428   */\n      add\n        /* \"#utility.yul\":402:428   */\n      swap1\n      pop\n        /* \"#utility.yul\":438:509   */\n      tag_23\n        /* \"#utility.yul\":506:507   */\n      0x00\n        /* \"#utility.yul\":495:504   */\n      dup4\n        /* \"#utility.yul\":491:508   */\n      add\n        /* \"#utility.yul\":482:488   */\n      dup5\n        /* \"#utility.yul\":438:509   */\n      tag_14\n      jump\t// in\n    tag_23:\n        /* \"#utility.yul\":294:516   */\n      swap3\n      swap2\n      pop\n      pop\n      jump\t// out\n        /* \"#utility.yul\":522:770   */\n    tag_12:\n        /* \"#utility.yul\":628:632   */\n      0x00\n        /* \"#utility.yul\":666:668   */\n      0x20\n        /* \"#utility.yul\":655:664   */\n      dup3\n        /* \"#utility.yul\":651:669   */\n      add\n        /* \"#utility.yul\":643:669   */\n      swap1\n      pop\n        /* \"#utility.yul\":679:763   */\n      tag_25\n        /* \"#utility.yul\":760:761   */\n      0x00\n        /* \"#utility.yul\":749:758   */\n      dup4\n        /* \"#utility.yul\":745:762   */\n      add\n        /* \"#utility.yul\":736:742   */\n      dup5\n        /* \"#utility.yul\":679:763   */\n      tag_18\n      jump\t// in\n    tag_25:\n        /* \"#utility.yul\":522:770   */\n      swap3\n      swap2\n      pop\n      pop\n      jump\t// out\n        /* \"#utility.yul\":776:872   */\n    tag_17:\n        /* \"#utility.yul\":813:820   */\n      0x00\n        /* \"#utility.yul\":842:866   */\n      tag_27\n        /* \"#utility.yul\":860:865   */\n      dup3\n        /* \"#utility.yul\":842:866   */\n      tag_28\n      jump\t// in\n    tag_27:\n        /* \"#utility.yul\":831:866   */\n      swap1\n      pop\n        /* \"#utility.yul\":776:872   */\n      swap2\n      swap1\n      pop\n      jump\t// out\n        /* \"#utility.yul\":878:1004   */\n    tag_28:\n        /* \"#utility.yul\":915:922   */\n      0x00\n        /* \"#utility.yul\":955:997   */\n      0xffffffffffffffffffffffffffffffffffffffff\n        /* \"#utility.yul\":948:953   */\n      dup3\n        /* \"#utility.yul\":944:998   */\n      and\n        /* \"#utility.yul\":933:998   */\n      swap1\n      pop\n        /* \"#utility.yul\":878:1004   */\n      swap2\n      swap1\n      pop\n      jump\t// out\n        /* \"#utility.yul\":1010:1149   */\n    tag_21:\n        /* \"#utility.yul\":1073:1082   */\n      0x00\n        /* \"#utility.yul\":1106:1143   */\n      tag_31\n        /* \"#utility.yul\":1137:1142   */\n      dup3\n        /* \"#utility.yul\":1106:1143   */\n      tag_32\n      jump\t// in\n    tag_31:\n        /* \"#utility.yul\":1093:1143   */\n      swap1\n      pop\n        /* \"#utility.yul\":1010:1149   */\n      swap2\n      swap1\n      pop\n      jump\t// out\n        /* \"#utility.yul\":1155:1281   */\n    tag_32:\n        /* \"#utility.yul\":1205:1214   */\n      0x00\n        /* \"#utility.yul\":1238:1275   */\n      tag_34\n        /* \"#utility.yul\":1269:1274   */\n      dup3\n        /* \"#utility.yul\":1238:1275   */\n      tag_35\n      jump\t// in\n    tag_34:\n        /* \"#utility.yul\":1225:1275   */\n      swap1\n      pop\n        /* \"#utility.yul\":1155:1281   */\n      swap2\n      swap1\n      pop\n      jump\t// out\n        /* \"#utility.yul\":1287:1400   */\n    tag_35:\n        /* \"#utility.yul\":1337:1346   */\n      0x00\n        /* \"#utility.yul\":1370:1394   */\n      tag_37\n        /* \"#utility.yul\":1388:1393   */\n      dup3\n        /* \"#utility.yul\":1370:1394   */\n      tag_28\n      jump\t// in\n    tag_37:\n        /* \"#utility.yul\":1357:1394   */\n      swap1\n      pop\n        /* \"#utility.yul\":1287:1400   */\n      swap2\n      swap1\n      pop\n      jump\t// out\n\n    auxdata: 0xa2646970667358221220b56137d098dc041a69269c7cb297319fdb8cec9dcd70b5ba5293265e8021fb8264736f6c63430008070033\n}\n",
				"bytecode": {
					"linkReferences": {},
					"object": "608060405230600260006101000a81548173ffffffffffffffffffffffffffffffffffffffff021916908373ffffffffffffffffffffffffffffffffffffffff16021790555034801561005157600080fd5b5060405161035e38038061035e8339818101604052810190610073919061010f565b806000806101000a81548173ffffffffffffffffffffffffffffffffffffffff021916908373ffffffffffffffffffffffffffffffffffffffff16021790555033600160006101000a81548173ffffffffffffffffffffffffffffffffffffffff021916908373ffffffffffffffffffffffffffffffffffffffff1602179055505061019c565b60008151905061010981610185565b92915050565b60006020828403121561012557610124610180565b5b6000610133848285016100fa565b91505092915050565b600061014782610160565b9050919050565b60006101598261013c565b9050919050565b600073ffffffffffffffffffffffffffffffffffffffff82169050919050565b600080fd5b61018e8161014e565b811461019957600080fd5b50565b6101b3806101ab6000396000f3fe608060405234801561001057600080fd5b50600436106100365760003560e01c8063d9ef58a51461003b578063fc0c546a14610059575b600080fd5b610043610077565b60405161005091906100df565b60405180910390f35b61006161009d565b60405161006e91906100fa565b60405180910390f35b600260009054906101000a900473ffffffffffffffffffffffffffffffffffffffff1681565b60008054906101000a900473ffffffffffffffffffffffffffffffffffffffff1681565b6100ca81610115565b82525050565b6100d981610147565b82525050565b60006020820190506100f460008301846100c1565b92915050565b600060208201905061010f60008301846100d0565b92915050565b600061012082610127565b9050919050565b600073ffffffffffffffffffffffffffffffffffffffff82169050919050565b600061015282610159565b9050919050565b60006101648261016b565b9050919050565b600061017682610127565b905091905056fea2646970667358221220b56137d098dc041a69269c7cb297319fdb8cec9dcd70b5ba5293265e8021fb8264736f6c63430008070033",
					"opcodes": "PUSH1 0x80 PUSH1 0x40 MSTORE ADDRESS PUSH1 0x2 PUSH1 0x0 PUSH2 0x100 EXP DUP2 SLOAD DUP2 PUSH20 0xFFFFFFFFFFFFFFFFFFFFFFFFFFFFFFFFFFFFFFFF MUL NOT AND SWAP1 DUP4 PUSH20 0xFFFFFFFFFFFFFFFFFFFFFFFFFFFFFFFFFFFFFFFF AND MUL OR SWAP1 SSTORE POP CALLVALUE DUP1 ISZERO PUSH2 0x51 JUMPI PUSH1 0x0 DUP1 REVERT JUMPDEST POP PUSH1 0x40 MLOAD PUSH2 0x35E CODESIZE SUB DUP1 PUSH2 0x35E DUP4 CODECOPY DUP2 DUP2 ADD PUSH1 0x40 MSTORE DUP2 ADD SWAP1 PUSH2 0x73 SWAP2 SWAP1 PUSH2 0x10F JUMP JUMPDEST DUP1 PUSH1 0x0 DUP1 PUSH2 0x100 EXP DUP2 SLOAD DUP2 PUSH20 0xFFFFFFFFFFFFFFFFFFFFFFFFFFFFFFFFFFFFFFFF MUL NOT AND SWAP1 DUP4 PUSH20 0xFFFFFFFFFFFFFFFFFFFFFFFFFFFFFFFFFFFFFFFF AND MUL OR SWAP1 SSTORE POP CALLER PUSH1 0x1 PUSH1 0x0 PUSH2 0x100 EXP DUP2 SLOAD DUP2 PUSH20 0xFFFFFFFFFFFFFFFFFFFFFFFFFFFFFFFFFFFFFFFF MUL NOT AND SWAP1 DUP4 PUSH20 0xFFFFFFFFFFFFFFFFFFFFFFFFFFFFFFFFFFFFFFFF AND MUL OR SWAP1 SSTORE POP POP PUSH2 0x19C JUMP JUMPDEST PUSH1 0x0 DUP2 MLOAD SWAP1 POP PUSH2 0x109 DUP2 PUSH2 0x185 JUMP JUMPDEST SWAP3 SWAP2 POP POP JUMP JUMPDEST PUSH1 0x0 PUSH1 0x20 DUP3 DUP5 SUB SLT ISZERO PUSH2 0x125 JUMPI PUSH2 0x124 PUSH2 0x180 JUMP JUMPDEST JUMPDEST PUSH1 0x0 PUSH2 0x133 DUP5 DUP3 DUP6 ADD PUSH2 0xFA JUMP JUMPDEST SWAP2 POP POP SWAP3 SWAP2 POP POP JUMP JUMPDEST PUSH1 0x0 PUSH2 0x147 DUP3 PUSH2 0x160 JUMP JUMPDEST SWAP1 POP SWAP2 SWAP1 POP JUMP JUMPDEST PUSH1 0x0 PUSH2 0x159 DUP3 PUSH2 0x13C JUMP JUMPDEST SWAP1 POP SWAP2 SWAP1 POP JUMP JUMPDEST PUSH1 0x0 PUSH20 0xFFFFFFFFFFFFFFFFFFFFFFFFFFFFFFFFFFFFFFFF DUP3 AND SWAP1 POP SWAP2 SWAP1 POP JUMP JUMPDEST PUSH1 0x0 DUP1 REVERT JUMPDEST PUSH2 0x18E DUP2 PUSH2 0x14E JUMP JUMPDEST DUP2 EQ PUSH2 0x199 JUMPI PUSH1 0x0 DUP1 REVERT JUMPDEST POP JUMP JUMPDEST PUSH2 0x1B3 DUP1 PUSH2 0x1AB PUSH1 0x0 CODECOPY PUSH1 0x0 RETURN INVALID PUSH1 0x80 PUSH1 0x40 MSTORE CALLVALUE DUP1 ISZERO PUSH2 0x10 JUMPI PUSH1 0x0 DUP1 REVERT JUMPDEST POP PUSH1 0x4 CALLDATASIZE LT PUSH2 0x36 JUMPI PUSH1 0x0 CALLDATALOAD PUSH1 0xE0 SHR DUP1 PUSH4 0xD9EF58A5 EQ PUSH2 0x3B JUMPI DUP1 PUSH4 0xFC0C546A EQ PUSH2 0x59 JUMPI JUMPDEST PUSH1 0x0 DUP1 REVERT JUMPDEST PUSH2 0x43 PUSH2 0x77 JUMP JUMPDEST PUSH1 0x40 MLOAD PUSH2 0x50 SWAP2 SWAP1 PUSH2 0xDF JUMP JUMPDEST PUSH1 0x40 MLOAD DUP1 SWAP2 SUB SWAP1 RETURN JUMPDEST PUSH2 0x61 PUSH2 0x9D JUMP JUMPDEST PUSH1 0x40 MLOAD PUSH2 0x6E SWAP2 SWAP1 PUSH2 0xFA JUMP JUMPDEST PUSH1 0x40 MLOAD DUP1 SWAP2 SUB SWAP1 RETURN JUMPDEST PUSH1 0x2 PUSH1 0x0 SWAP1 SLOAD SWAP1 PUSH2 0x100 EXP SWAP1 DIV PUSH20 0xFFFFFFFFFFFFFFFFFFFFFFFFFFFFFFFFFFFFFFFF AND DUP2 JUMP JUMPDEST PUSH1 0x0 DUP1 SLOAD SWAP1 PUSH2 0x100 EXP SWAP1 DIV PUSH20 0xFFFFFFFFFFFFFFFFFFFFFFFFFFFFFFFFFFFFFFFF AND DUP2 JUMP JUMPDEST PUSH2 0xCA DUP2 PUSH2 0x115 JUMP JUMPDEST DUP3 MSTORE POP POP JUMP JUMPDEST PUSH2 0xD9 DUP2 PUSH2 0x147 JUMP JUMPDEST DUP3 MSTORE POP POP JUMP JUMPDEST PUSH1 0x0 PUSH1 0x20 DUP3 ADD SWAP1 POP PUSH2 0xF4 PUSH1 0x0 DUP4 ADD DUP5 PUSH2 0xC1 JUMP JUMPDEST SWAP3 SWAP2 POP POP JUMP JUMPDEST PUSH1 0x0 PUSH1 0x20 DUP3 ADD SWAP1 POP PUSH2 0x10F PUSH1 0x0 DUP4 ADD DUP5 PUSH2 0xD0 JUMP JUMPDEST SWAP3 SWAP2 POP POP JUMP JUMPDEST PUSH1 0x0 PUSH2 0x120 DUP3 PUSH2 0x127 JUMP JUMPDEST SWAP1 POP SWAP2 SWAP1 POP JUMP JUMPDEST PUSH1 0x0 PUSH20 0xFFFFFFFFFFFFFFFFFFFFFFFFFFFFFFFFFFFFFFFF DUP3 AND SWAP1 POP SWAP2 SWAP1 POP JUMP JUMPDEST PUSH1 0x0 PUSH2 0x152 DUP3 PUSH2 0x159 JUMP JUMPDEST SWAP1 POP SWAP2 SWAP1 POP JUMP JUMPDEST PUSH1 0x0 PUSH2 0x164 DUP3 PUSH2 0x16B JUMP JUMPDEST SWAP1 POP SWAP2 SWAP1 POP JUMP JUMPDEST PUSH1 0x0 PUSH2 0x176 DUP3 PUSH2 0x127 JUMP JUMPDEST SWAP1 POP SWAP2 SWAP1 POP JUMP INVALID LOG2 PUSH5 0x6970667358 0x22 SLT KECCAK256 0xB5 PUSH2 0x37D0 SWAP9 0xDC DIV BYTE PUSH10 0x269C7CB297319FDB8CEC SWAP14 0xCD PUSH17 0xB5BA5293265E8021FB8264736F6C634300 ADDMOD SMOD STOP CALLER "
				},
				"gasEstimates": {
					"creation": {
						"codeDepositCost": "87000",
						"executionCost": "infinite",
						"totalCost": "infinite"
					},
					"external": {
						"thisAddr()": "2492",
						"token()": "2597"
					}
				},
				"methodIdentifiers": {
					"thisAddr()": "d9ef58a5",
					"token()": "fc0c546a"
				}
			},
			"storageLayout": {
				"storage": [
					{
						"astId": 73,
						"contract": "contracts/MarketPlace.sol:MarketPlace",
						"label": "token",
						"offset": 0,
						"slot": "0",
						"type": "t_contract(IERC20)67"
					},
					{
						"astId": 75,
						"contract": "contracts/MarketPlace.sol:MarketPlace",
						"label": "owner",
						"offset": 0,
						"slot": "1",
						"type": "t_address"
					},
					{
						"astId": 81,
						"contract": "contracts/MarketPlace.sol:MarketPlace",
						"label": "thisAddr",
						"offset": 0,
						"slot": "2",
						"type": "t_address"
					}
				],
				"types": {
					"t_address": {
						"encoding": "inplace",
						"label": "address",
						"numberOfBytes": "20"
					},
					"t_contract(IERC20)67": {
						"encoding": "inplace",
						"label": "contract IERC20",
						"numberOfBytes": "20"
					}
				}
			},
			"userdoc": {
				"kind": "user",
				"methods": {},
				"version": 1
			}
		}
	}
}