{
	"contracts/MarketPlace.sol": {
		"MarketPlace": {
			"abi": [
				{
					"inputs": [
						{
							"internalType": "contract IERC20",
							"name": "_token",
							"type": "address"
						}
					],
					"stateMutability": "nonpayable",
					"type": "constructor"
				},
				{
					"anonymous": false,
					"inputs": [
						{
							"indexed": true,
							"internalType": "address",
							"name": "buyer",
							"type": "address"
						},
						{
							"indexed": false,
							"internalType": "uint256",
							"name": "amount",
							"type": "uint256"
						}
					],
					"name": "Bought",
					"type": "event"
				},
				{
					"anonymous": false,
					"inputs": [
						{
							"indexed": true,
							"internalType": "address",
							"name": "seller",
							"type": "address"
						},
						{
							"indexed": false,
							"internalType": "uint256",
							"name": "amount",
							"type": "uint256"
						}
					],
					"name": "Sell",
					"type": "event"
				},
				{
					"inputs": [],
					"name": "buy",
					"outputs": [],
					"stateMutability": "payable",
					"type": "function"
				},
				{
					"inputs": [],
					"name": "marketBalance",
					"outputs": [
						{
							"internalType": "uint256",
							"name": "",
							"type": "uint256"
						}
					],
					"stateMutability": "view",
					"type": "function"
				},
				{
					"inputs": [],
					"name": "thisAddr",
					"outputs": [
						{
							"internalType": "address",
							"name": "",
							"type": "address"
						}
					],
					"stateMutability": "view",
					"type": "function"
				},
				{
					"inputs": [],
					"name": "token",
					"outputs": [
						{
							"internalType": "contract IERC20",
							"name": "",
							"type": "address"
						}
					],
					"stateMutability": "view",
					"type": "function"
				}
			],
			"devdoc": {
				"kind": "dev",
				"methods": {},
				"version": 1
			},
			"evm": {
				"assembly": "    /* \"contracts/MarketPlace.sol\":84:733  contract MarketPlace {... */\n  mstore(0x40, 0x80)\n    /* \"contracts/MarketPlace.sol\":189:193  this */\n  address\n    /* \"contracts/MarketPlace.sol\":155:194  address public thisAddr = address(this) */\n  0x02\n  exp(0x0100, 0x00)\n  dup2\n  sload\n  dup2\n  0xffffffffffffffffffffffffffffffffffffffff\n  mul\n  not\n  and\n  swap1\n  dup4\n  0xffffffffffffffffffffffffffffffffffffffff\n  and\n  mul\n  or\n  swap1\n  sstore\n  pop\n    /* \"contracts/MarketPlace.sol\":309:395  constructor(IERC20 _token) {... */\n  callvalue\n  dup1\n  iszero\n  tag_1\n  jumpi\n  0x00\n  dup1\n  revert\ntag_1:\n  pop\n  mload(0x40)\n  sub(codesize, bytecodeSize)\n  dup1\n  bytecodeSize\n  dup4\n  codecopy\n  dup2\n  dup2\n  add\n  0x40\n  mstore\n  dup2\n  add\n  swap1\n  tag_2\n  swap2\n  swap1\n  tag_3\n  jump\t// in\ntag_2:\n    /* \"contracts/MarketPlace.sol\":354:360  _token */\n  dup1\n    /* \"contracts/MarketPlace.sol\":346:351  token */\n  0x00\n  dup1\n    /* \"contracts/MarketPlace.sol\":346:360  token = _token */\n  0x0100\n  exp\n  dup2\n  sload\n  dup2\n  0xffffffffffffffffffffffffffffffffffffffff\n  mul\n  not\n  and\n  swap1\n  dup4\n  0xffffffffffffffffffffffffffffffffffffffff\n  and\n  mul\n  or\n  swap1\n  sstore\n  pop\n    /* \"contracts/MarketPlace.sol\":378:388  msg.sender */\n  caller\n    /* \"contracts/MarketPlace.sol\":370:375  owner */\n  0x01\n  0x00\n    /* \"contracts/MarketPlace.sol\":370:388  owner = msg.sender */\n  0x0100\n  exp\n  dup2\n  sload\n  dup2\n  0xffffffffffffffffffffffffffffffffffffffff\n  mul\n  not\n  and\n  swap1\n  dup4\n  0xffffffffffffffffffffffffffffffffffffffff\n  and\n  mul\n  or\n  swap1\n  sstore\n  pop\n    /* \"contracts/MarketPlace.sol\":309:395  constructor(IERC20 _token) {... */\n  pop\n    /* \"contracts/MarketPlace.sol\":84:733  contract MarketPlace {... */\n  jump(tag_6)\n    /* \"#utility.yul\":7:176   */\ntag_8:\n    /* \"#utility.yul\":77:82   */\n  0x00\n    /* \"#utility.yul\":108:114   */\n  dup2\n    /* \"#utility.yul\":102:115   */\n  mload\n    /* \"#utility.yul\":93:115   */\n  swap1\n  pop\n    /* \"#utility.yul\":124:170   */\n  tag_10\n    /* \"#utility.yul\":164:169   */\n  dup2\n    /* \"#utility.yul\":124:170   */\n  tag_11\n  jump\t// in\ntag_10:\n    /* \"#utility.yul\":7:176   */\n  swap3\n  swap2\n  pop\n  pop\n  jump\t// out\n    /* \"#utility.yul\":182:559   */\ntag_3:\n    /* \"#utility.yul\":265:271   */\n  0x00\n    /* \"#utility.yul\":314:316   */\n  0x20\n    /* \"#utility.yul\":302:311   */\n  dup3\n    /* \"#utility.yul\":293:300   */\n  dup5\n    /* \"#utility.yul\":289:312   */\n  sub\n    /* \"#utility.yul\":285:317   */\n  slt\n    /* \"#utility.yul\":282:401   */\n  iszero\n  tag_13\n  jumpi\n    /* \"#utility.yul\":320:399   */\n  tag_14\n  tag_15\n  jump\t// in\ntag_14:\n    /* \"#utility.yul\":282:401   */\ntag_13:\n    /* \"#utility.yul\":440:441   */\n  0x00\n    /* \"#utility.yul\":465:542   */\n  tag_16\n    /* \"#utility.yul\":534:541   */\n  dup5\n    /* \"#utility.yul\":525:531   */\n  dup3\n    /* \"#utility.yul\":514:523   */\n  dup6\n    /* \"#utility.yul\":510:532   */\n  add\n    /* \"#utility.yul\":465:542   */\n  tag_8\n  jump\t// in\ntag_16:\n    /* \"#utility.yul\":455:542   */\n  swap2\n  pop\n    /* \"#utility.yul\":411:552   */\n  pop\n    /* \"#utility.yul\":182:559   */\n  swap3\n  swap2\n  pop\n  pop\n  jump\t// out\n    /* \"#utility.yul\":646:742   */\ntag_19:\n    /* \"#utility.yul\":683:690   */\n  0x00\n    /* \"#utility.yul\":712:736   */\n  tag_21\n    /* \"#utility.yul\":730:735   */\n  dup3\n    /* \"#utility.yul\":712:736   */\n  tag_22\n  jump\t// in\ntag_21:\n    /* \"#utility.yul\":701:736   */\n  swap1\n  pop\n    /* \"#utility.yul\":646:742   */\n  swap2\n  swap1\n  pop\n  jump\t// out\n    /* \"#utility.yul\":748:857   */\ntag_23:\n    /* \"#utility.yul\":798:805   */\n  0x00\n    /* \"#utility.yul\":827:851   */\n  tag_25\n    /* \"#utility.yul\":845:850   */\n  dup3\n    /* \"#utility.yul\":827:851   */\n  tag_19\n  jump\t// in\ntag_25:\n    /* \"#utility.yul\":816:851   */\n  swap1\n  pop\n    /* \"#utility.yul\":748:857   */\n  swap2\n  swap1\n  pop\n  jump\t// out\n    /* \"#utility.yul\":863:989   */\ntag_22:\n    /* \"#utility.yul\":900:907   */\n  0x00\n    /* \"#utility.yul\":940:982   */\n  0xffffffffffffffffffffffffffffffffffffffff\n    /* \"#utility.yul\":933:938   */\n  dup3\n    /* \"#utility.yul\":929:983   */\n  and\n    /* \"#utility.yul\":918:983   */\n  swap1\n  pop\n    /* \"#utility.yul\":863:989   */\n  swap2\n  swap1\n  pop\n  jump\t// out\n    /* \"#utility.yul\":1118:1235   */\ntag_15:\n    /* \"#utility.yul\":1227:1228   */\n  0x00\n    /* \"#utility.yul\":1224:1225   */\n  dup1\n    /* \"#utility.yul\":1217:1229   */\n  revert\n    /* \"#utility.yul\":1241:1389   */\ntag_11:\n    /* \"#utility.yul\":1327:1364   */\n  tag_31\n    /* \"#utility.yul\":1358:1363   */\n  dup2\n    /* \"#utility.yul\":1327:1364   */\n  tag_23\n  jump\t// in\ntag_31:\n    /* \"#utility.yul\":1320:1325   */\n  dup2\n    /* \"#utility.yul\":1317:1365   */\n  eq\n    /* \"#utility.yul\":1307:1383   */\n  tag_32\n  jumpi\n    /* \"#utility.yul\":1379:1380   */\n  0x00\n    /* \"#utility.yul\":1376:1377   */\n  dup1\n    /* \"#utility.yul\":1369:1381   */\n  revert\n    /* \"#utility.yul\":1307:1383   */\ntag_32:\n    /* \"#utility.yul\":1241:1389   */\n  pop\n  jump\t// out\n    /* \"contracts/MarketPlace.sol\":84:733  contract MarketPlace {... */\ntag_6:\n  dataSize(sub_0)\n  dup1\n  dataOffset(sub_0)\n  0x00\n  codecopy\n  0x00\n  return\nstop\n\nsub_0: assembly {\n        /* \"contracts/MarketPlace.sol\":84:733  contract MarketPlace {... */\n      mstore(0x40, 0x80)\n      jumpi(tag_1, lt(calldatasize, 0x04))\n      shr(0xe0, calldataload(0x00))\n      dup1\n      0xa6f2ae3a\n      eq\n      tag_2\n      jumpi\n      dup1\n      0xd9ef58a5\n      eq\n      tag_3\n      jumpi\n      dup1\n      0xfc0c546a\n      eq\n      tag_4\n      jumpi\n      dup1\n      0xfca02c21\n      eq\n      tag_5\n      jumpi\n    tag_1:\n      0x00\n      dup1\n      revert\n        /* \"contracts/MarketPlace.sol\":596:634  function buy() public payable {... */\n    tag_2:\n      tag_6\n      tag_7\n      jump\t// in\n    tag_6:\n      stop\n        /* \"contracts/MarketPlace.sol\":155:194  address public thisAddr = address(this) */\n    tag_3:\n      callvalue\n      dup1\n      iszero\n      tag_8\n      jumpi\n      0x00\n      dup1\n      revert\n    tag_8:\n      pop\n      tag_9\n      tag_10\n      jump\t// in\n    tag_9:\n      mload(0x40)\n      tag_11\n      swap2\n      swap1\n      tag_12\n      jump\t// in\n    tag_11:\n      mload(0x40)\n      dup1\n      swap2\n      sub\n      swap1\n      return\n        /* \"contracts/MarketPlace.sol\":111:130  IERC20 public token */\n    tag_4:\n      callvalue\n      dup1\n      iszero\n      tag_13\n      jumpi\n      0x00\n      dup1\n      revert\n    tag_13:\n      pop\n      tag_14\n      tag_15\n      jump\t// in\n    tag_14:\n      mload(0x40)\n      tag_16\n      swap2\n      swap1\n      tag_17\n      jump\t// in\n    tag_16:\n      mload(0x40)\n      dup1\n      swap2\n      sub\n      swap1\n      return\n        /* \"contracts/MarketPlace.sol\":499:590  function marketBalance() public view returns(uint) {... */\n    tag_5:\n      callvalue\n      dup1\n      iszero\n      tag_18\n      jumpi\n      0x00\n      dup1\n      revert\n    tag_18:\n      pop\n      tag_19\n      tag_20\n      jump\t// in\n    tag_19:\n      mload(0x40)\n      tag_21\n      swap2\n      swap1\n      tag_22\n      jump\t// in\n    tag_21:\n      mload(0x40)\n      dup1\n      swap2\n      sub\n      swap1\n      return\n        /* \"contracts/MarketPlace.sol\":596:634  function buy() public payable {... */\n    tag_7:\n      jump\t// out\n        /* \"contracts/MarketPlace.sol\":155:194  address public thisAddr = address(this) */\n    tag_10:\n      0x02\n      0x00\n      swap1\n      sload\n      swap1\n      0x0100\n      exp\n      swap1\n      div\n      0xffffffffffffffffffffffffffffffffffffffff\n      and\n      dup2\n      jump\t// out\n        /* \"contracts/MarketPlace.sol\":111:130  IERC20 public token */\n    tag_15:\n      0x00\n      dup1\n      sload\n      swap1\n      0x0100\n      exp\n      swap1\n      div\n      0xffffffffffffffffffffffffffffffffffffffff\n      and\n      dup2\n      jump\t// out\n        /* \"contracts/MarketPlace.sol\":499:590  function marketBalance() public view returns(uint) {... */\n    tag_20:\n        /* \"contracts/MarketPlace.sol\":544:548  uint */\n      0x00\n        /* \"contracts/MarketPlace.sol\":567:575  thisAddr */\n      0x02\n      0x00\n      swap1\n      sload\n      swap1\n      0x0100\n      exp\n      swap1\n      div\n      0xffffffffffffffffffffffffffffffffffffffff\n      and\n        /* \"contracts/MarketPlace.sol\":567:583  thisAddr.balance */\n      0xffffffffffffffffffffffffffffffffffffffff\n      and\n      balance\n        /* \"contracts/MarketPlace.sol\":560:583  return thisAddr.balance */\n      swap1\n      pop\n        /* \"contracts/MarketPlace.sol\":499:590  function marketBalance() public view returns(uint) {... */\n      swap1\n      jump\t// out\n        /* \"#utility.yul\":7:125   */\n    tag_26:\n        /* \"#utility.yul\":94:118   */\n      tag_28\n        /* \"#utility.yul\":112:117   */\n      dup2\n        /* \"#utility.yul\":94:118   */\n      tag_29\n      jump\t// in\n    tag_28:\n        /* \"#utility.yul\":89:92   */\n      dup3\n        /* \"#utility.yul\":82:119   */\n      mstore\n        /* \"#utility.yul\":7:125   */\n      pop\n      pop\n      jump\t// out\n        /* \"#utility.yul\":131:288   */\n    tag_30:\n        /* \"#utility.yul\":231:281   */\n      tag_32\n        /* \"#utility.yul\":275:280   */\n      dup2\n        /* \"#utility.yul\":231:281   */\n      tag_33\n      jump\t// in\n    tag_32:\n        /* \"#utility.yul\":226:229   */\n      dup3\n        /* \"#utility.yul\":219:282   */\n      mstore\n        /* \"#utility.yul\":131:288   */\n      pop\n      pop\n      jump\t// out\n        /* \"#utility.yul\":294:412   */\n    tag_34:\n        /* \"#utility.yul\":381:405   */\n      tag_36\n        /* \"#utility.yul\":399:404   */\n      dup2\n        /* \"#utility.yul\":381:405   */\n      tag_37\n      jump\t// in\n    tag_36:\n        /* \"#utility.yul\":376:379   */\n      dup3\n        /* \"#utility.yul\":369:406   */\n      mstore\n        /* \"#utility.yul\":294:412   */\n      pop\n      pop\n      jump\t// out\n        /* \"#utility.yul\":418:640   */\n    tag_12:\n        /* \"#utility.yul\":511:515   */\n      0x00\n        /* \"#utility.yul\":549:551   */\n      0x20\n        /* \"#utility.yul\":538:547   */\n      dup3\n        /* \"#utility.yul\":534:552   */\n      add\n        /* \"#utility.yul\":526:552   */\n      swap1\n      pop\n        /* \"#utility.yul\":562:633   */\n      tag_39\n        /* \"#utility.yul\":630:631   */\n      0x00\n        /* \"#utility.yul\":619:628   */\n      dup4\n        /* \"#utility.yul\":615:632   */\n      add\n        /* \"#utility.yul\":606:612   */\n      dup5\n        /* \"#utility.yul\":562:633   */\n      tag_26\n      jump\t// in\n    tag_39:\n        /* \"#utility.yul\":418:640   */\n      swap3\n      swap2\n      pop\n      pop\n      jump\t// out\n        /* \"#utility.yul\":646:894   */\n    tag_17:\n        /* \"#utility.yul\":752:756   */\n      0x00\n        /* \"#utility.yul\":790:792   */\n      0x20\n        /* \"#utility.yul\":779:788   */\n      dup3\n        /* \"#utility.yul\":775:793   */\n      add\n        /* \"#utility.yul\":767:793   */\n      swap1\n      pop\n        /* \"#utility.yul\":803:887   */\n      tag_41\n        /* \"#utility.yul\":884:885   */\n      0x00\n        /* \"#utility.yul\":873:882   */\n      dup4\n        /* \"#utility.yul\":869:886   */\n      add\n        /* \"#utility.yul\":860:866   */\n      dup5\n        /* \"#utility.yul\":803:887   */\n      tag_30\n      jump\t// in\n    tag_41:\n        /* \"#utility.yul\":646:894   */\n      swap3\n      swap2\n      pop\n      pop\n      jump\t// out\n        /* \"#utility.yul\":900:1122   */\n    tag_22:\n        /* \"#utility.yul\":993:997   */\n      0x00\n        /* \"#utility.yul\":1031:1033   */\n      0x20\n        /* \"#utility.yul\":1020:1029   */\n      dup3\n        /* \"#utility.yul\":1016:1034   */\n      add\n        /* \"#utility.yul\":1008:1034   */\n      swap1\n      pop\n        /* \"#utility.yul\":1044:1115   */\n      tag_43\n        /* \"#utility.yul\":1112:1113   */\n      0x00\n        /* \"#utility.yul\":1101:1110   */\n      dup4\n        /* \"#utility.yul\":1097:1114   */\n      add\n        /* \"#utility.yul\":1088:1094   */\n      dup5\n        /* \"#utility.yul\":1044:1115   */\n      tag_34\n      jump\t// in\n    tag_43:\n        /* \"#utility.yul\":900:1122   */\n      swap3\n      swap2\n      pop\n      pop\n      jump\t// out\n        /* \"#utility.yul\":1128:1224   */\n    tag_29:\n        /* \"#utility.yul\":1165:1172   */\n      0x00\n        /* \"#utility.yul\":1194:1218   */\n      tag_45\n        /* \"#utility.yul\":1212:1217   */\n      dup3\n        /* \"#utility.yul\":1194:1218   */\n      tag_46\n      jump\t// in\n    tag_45:\n        /* \"#utility.yul\":1183:1218   */\n      swap1\n      pop\n        /* \"#utility.yul\":1128:1224   */\n      swap2\n      swap1\n      pop\n      jump\t// out\n        /* \"#utility.yul\":1230:1356   */\n    tag_46:\n        /* \"#utility.yul\":1267:1274   */\n      0x00\n        /* \"#utility.yul\":1307:1349   */\n      0xffffffffffffffffffffffffffffffffffffffff\n        /* \"#utility.yul\":1300:1305   */\n      dup3\n        /* \"#utility.yul\":1296:1350   */\n      and\n        /* \"#utility.yul\":1285:1350   */\n      swap1\n      pop\n        /* \"#utility.yul\":1230:1356   */\n      swap2\n      swap1\n      pop\n      jump\t// out\n        /* \"#utility.yul\":1362:1439   */\n    tag_37:\n        /* \"#utility.yul\":1399:1406   */\n      0x00\n        /* \"#utility.yul\":1428:1433   */\n      dup2\n        /* \"#utility.yul\":1417:1433   */\n      swap1\n      pop\n        /* \"#utility.yul\":1362:1439   */\n      swap2\n      swap1\n      pop\n      jump\t// out\n        /* \"#utility.yul\":1445:1584   */\n    tag_33:\n        /* \"#utility.yul\":1508:1517   */\n      0x00\n        /* \"#utility.yul\":1541:1578   */\n      tag_50\n        /* \"#utility.yul\":1572:1577   */\n      dup3\n        /* \"#utility.yul\":1541:1578   */\n      tag_51\n      jump\t// in\n    tag_50:\n        /* \"#utility.yul\":1528:1578   */\n      swap1\n      pop\n        /* \"#utility.yul\":1445:1584   */\n      swap2\n      swap1\n      pop\n      jump\t// out\n        /* \"#utility.yul\":1590:1716   */\n    tag_51:\n        /* \"#utility.yul\":1640:1649   */\n      0x00\n        /* \"#utility.yul\":1673:1710   */\n      tag_53\n        /* \"#utility.yul\":1704:1709   */\n      dup3\n        /* \"#utility.yul\":1673:1710   */\n      tag_54\n      jump\t// in\n    tag_53:\n        /* \"#utility.yul\":1660:1710   */\n      swap1\n      pop\n        /* \"#utility.yul\":1590:1716   */\n      swap2\n      swap1\n      pop\n      jump\t// out\n        /* \"#utility.yul\":1722:1835   */\n    tag_54:\n        /* \"#utility.yul\":1772:1781   */\n      0x00\n        /* \"#utility.yul\":1805:1829   */\n      tag_56\n        /* \"#utility.yul\":1823:1828   */\n      dup3\n        /* \"#utility.yul\":1805:1829   */\n      tag_46\n      jump\t// in\n    tag_56:\n        /* \"#utility.yul\":1792:1829   */\n      swap1\n      pop\n        /* \"#utility.yul\":1722:1835   */\n      swap2\n      swap1\n      pop\n      jump\t// out\n\n    auxdata: 0xa264697066735822122016d48eca7953b02e58b080bb51b9f03d072f8fe1ba0c2b50e41465f2ff45632e64736f6c63430008070033\n}\n",
				"bytecode": {
					"linkReferences": {},
					"object": "608060405230600260006101000a81548173ffffffffffffffffffffffffffffffffffffffff021916908373ffffffffffffffffffffffffffffffffffffffff16021790555034801561005157600080fd5b5060405161042d38038061042d8339818101604052810190610073919061010f565b806000806101000a81548173ffffffffffffffffffffffffffffffffffffffff021916908373ffffffffffffffffffffffffffffffffffffffff16021790555033600160006101000a81548173ffffffffffffffffffffffffffffffffffffffff021916908373ffffffffffffffffffffffffffffffffffffffff1602179055505061019c565b60008151905061010981610185565b92915050565b60006020828403121561012557610124610180565b5b6000610133848285016100fa565b91505092915050565b600061014782610160565b9050919050565b60006101598261013c565b9050919050565b600073ffffffffffffffffffffffffffffffffffffffff82169050919050565b600080fd5b61018e8161014e565b811461019957600080fd5b50565b610282806101ab6000396000f3fe60806040526004361061003f5760003560e01c8063a6f2ae3a14610044578063d9ef58a51461004e578063fc0c546a14610079578063fca02c21146100a4575b600080fd5b61004c6100cf565b005b34801561005a57600080fd5b506100636100d1565b6040516100709190610189565b60405180910390f35b34801561008557600080fd5b5061008e6100f7565b60405161009b91906101a4565b60405180910390f35b3480156100b057600080fd5b506100b961011b565b6040516100c691906101bf565b60405180910390f35b565b600260009054906101000a900473ffffffffffffffffffffffffffffffffffffffff1681565b60008054906101000a900473ffffffffffffffffffffffffffffffffffffffff1681565b6000600260009054906101000a900473ffffffffffffffffffffffffffffffffffffffff1673ffffffffffffffffffffffffffffffffffffffff1631905090565b610165816101da565b82525050565b61017481610216565b82525050565b6101838161020c565b82525050565b600060208201905061019e600083018461015c565b92915050565b60006020820190506101b9600083018461016b565b92915050565b60006020820190506101d4600083018461017a565b92915050565b60006101e5826101ec565b9050919050565b600073ffffffffffffffffffffffffffffffffffffffff82169050919050565b6000819050919050565b600061022182610228565b9050919050565b60006102338261023a565b9050919050565b6000610245826101ec565b905091905056fea264697066735822122016d48eca7953b02e58b080bb51b9f03d072f8fe1ba0c2b50e41465f2ff45632e64736f6c63430008070033",
					"opcodes": "PUSH1 0x80 PUSH1 0x40 MSTORE ADDRESS PUSH1 0x2 PUSH1 0x0 PUSH2 0x100 EXP DUP2 SLOAD DUP2 PUSH20 0xFFFFFFFFFFFFFFFFFFFFFFFFFFFFFFFFFFFFFFFF MUL NOT AND SWAP1 DUP4 PUSH20 0xFFFFFFFFFFFFFFFFFFFFFFFFFFFFFFFFFFFFFFFF AND MUL OR SWAP1 SSTORE POP CALLVALUE DUP1 ISZERO PUSH2 0x51 JUMPI PUSH1 0x0 DUP1 REVERT JUMPDEST POP PUSH1 0x40 MLOAD PUSH2 0x42D CODESIZE SUB DUP1 PUSH2 0x42D DUP4 CODECOPY DUP2 DUP2 ADD PUSH1 0x40 MSTORE DUP2 ADD SWAP1 PUSH2 0x73 SWAP2 SWAP1 PUSH2 0x10F JUMP JUMPDEST DUP1 PUSH1 0x0 DUP1 PUSH2 0x100 EXP DUP2 SLOAD DUP2 PUSH20 0xFFFFFFFFFFFFFFFFFFFFFFFFFFFFFFFFFFFFFFFF MUL NOT AND SWAP1 DUP4 PUSH20 0xFFFFFFFFFFFFFFFFFFFFFFFFFFFFFFFFFFFFFFFF AND MUL OR SWAP1 SSTORE POP CALLER PUSH1 0x1 PUSH1 0x0 PUSH2 0x100 EXP DUP2 SLOAD DUP2 PUSH20 0xFFFFFFFFFFFFFFFFFFFFFFFFFFFFFFFFFFFFFFFF MUL NOT AND SWAP1 DUP4 PUSH20 0xFFFFFFFFFFFFFFFFFFFFFFFFFFFFFFFFFFFFFFFF AND MUL OR SWAP1 SSTORE POP POP PUSH2 0x19C JUMP JUMPDEST PUSH1 0x0 DUP2 MLOAD SWAP1 POP PUSH2 0x109 DUP2 PUSH2 0x185 JUMP JUMPDEST SWAP3 SWAP2 POP POP JUMP JUMPDEST PUSH1 0x0 PUSH1 0x20 DUP3 DUP5 SUB SLT ISZERO PUSH2 0x125 JUMPI PUSH2 0x124 PUSH2 0x180 JUMP JUMPDEST JUMPDEST PUSH1 0x0 PUSH2 0x133 DUP5 DUP3 DUP6 ADD PUSH2 0xFA JUMP JUMPDEST SWAP2 POP POP SWAP3 SWAP2 POP POP JUMP JUMPDEST PUSH1 0x0 PUSH2 0x147 DUP3 PUSH2 0x160 JUMP JUMPDEST SWAP1 POP SWAP2 SWAP1 POP JUMP JUMPDEST PUSH1 0x0 PUSH2 0x159 DUP3 PUSH2 0x13C JUMP JUMPDEST SWAP1 POP SWAP2 SWAP1 POP JUMP JUMPDEST PUSH1 0x0 PUSH20 0xFFFFFFFFFFFFFFFFFFFFFFFFFFFFFFFFFFFFFFFF DUP3 AND SWAP1 POP SWAP2 SWAP1 POP JUMP JUMPDEST PUSH1 0x0 DUP1 REVERT JUMPDEST PUSH2 0x18E DUP2 PUSH2 0x14E JUMP JUMPDEST DUP2 EQ PUSH2 0x199 JUMPI PUSH1 0x0 DUP1 REVERT JUMPDEST POP JUMP JUMPDEST PUSH2 0x282 DUP1 PUSH2 0x1AB PUSH1 0x0 CODECOPY PUSH1 0x0 RETURN INVALID PUSH1 0x80 PUSH1 0x40 MSTORE PUSH1 0x4 CALLDATASIZE LT PUSH2 0x3F JUMPI PUSH1 0x0 CALLDATALOAD PUSH1 0xE0 SHR DUP1 PUSH4 0xA6F2AE3A EQ PUSH2 0x44 JUMPI DUP1 PUSH4 0xD9EF58A5 EQ PUSH2 0x4E JUMPI DUP1 PUSH4 0xFC0C546A EQ PUSH2 0x79 JUMPI DUP1 PUSH4 0xFCA02C21 EQ PUSH2 0xA4 JUMPI JUMPDEST PUSH1 0x0 DUP1 REVERT JUMPDEST PUSH2 0x4C PUSH2 0xCF JUMP JUMPDEST STOP JUMPDEST CALLVALUE DUP1 ISZERO PUSH2 0x5A JUMPI PUSH1 0x0 DUP1 REVERT JUMPDEST POP PUSH2 0x63 PUSH2 0xD1 JUMP JUMPDEST PUSH1 0x40 MLOAD PUSH2 0x70 SWAP2 SWAP1 PUSH2 0x189 JUMP JUMPDEST PUSH1 0x40 MLOAD DUP1 SWAP2 SUB SWAP1 RETURN JUMPDEST CALLVALUE DUP1 ISZERO PUSH2 0x85 JUMPI PUSH1 0x0 DUP1 REVERT JUMPDEST POP PUSH2 0x8E PUSH2 0xF7 JUMP JUMPDEST PUSH1 0x40 MLOAD PUSH2 0x9B SWAP2 SWAP1 PUSH2 0x1A4 JUMP JUMPDEST PUSH1 0x40 MLOAD DUP1 SWAP2 SUB SWAP1 RETURN JUMPDEST CALLVALUE DUP1 ISZERO PUSH2 0xB0 JUMPI PUSH1 0x0 DUP1 REVERT JUMPDEST POP PUSH2 0xB9 PUSH2 0x11B JUMP JUMPDEST PUSH1 0x40 MLOAD PUSH2 0xC6 SWAP2 SWAP1 PUSH2 0x1BF JUMP JUMPDEST PUSH1 0x40 MLOAD DUP1 SWAP2 SUB SWAP1 RETURN JUMPDEST JUMP JUMPDEST PUSH1 0x2 PUSH1 0x0 SWAP1 SLOAD SWAP1 PUSH2 0x100 EXP SWAP1 DIV PUSH20 0xFFFFFFFFFFFFFFFFFFFFFFFFFFFFFFFFFFFFFFFF AND DUP2 JUMP JUMPDEST PUSH1 0x0 DUP1 SLOAD SWAP1 PUSH2 0x100 EXP SWAP1 DIV PUSH20 0xFFFFFFFFFFFFFFFFFFFFFFFFFFFFFFFFFFFFFFFF AND DUP2 JUMP JUMPDEST PUSH1 0x0 PUSH1 0x2 PUSH1 0x0 SWAP1 SLOAD SWAP1 PUSH2 0x100 EXP SWAP1 DIV PUSH20 0xFFFFFFFFFFFFFFFFFFFFFFFFFFFFFFFFFFFFFFFF AND PUSH20 0xFFFFFFFFFFFFFFFFFFFFFFFFFFFFFFFFFFFFFFFF AND BALANCE SWAP1 POP SWAP1 JUMP JUMPDEST PUSH2 0x165 DUP2 PUSH2 0x1DA JUMP JUMPDEST DUP3 MSTORE POP POP JUMP JUMPDEST PUSH2 0x174 DUP2 PUSH2 0x216 JUMP JUMPDEST DUP3 MSTORE POP POP JUMP JUMPDEST PUSH2 0x183 DUP2 PUSH2 0x20C JUMP JUMPDEST DUP3 MSTORE POP POP JUMP JUMPDEST PUSH1 0x0 PUSH1 0x20 DUP3 ADD SWAP1 POP PUSH2 0x19E PUSH1 0x0 DUP4 ADD DUP5 PUSH2 0x15C JUMP JUMPDEST SWAP3 SWAP2 POP POP JUMP JUMPDEST PUSH1 0x0 PUSH1 0x20 DUP3 ADD SWAP1 POP PUSH2 0x1B9 PUSH1 0x0 DUP4 ADD DUP5 PUSH2 0x16B JUMP JUMPDEST SWAP3 SWAP2 POP POP JUMP JUMPDEST PUSH1 0x0 PUSH1 0x20 DUP3 ADD SWAP1 POP PUSH2 0x1D4 PUSH1 0x0 DUP4 ADD DUP5 PUSH2 0x17A JUMP JUMPDEST SWAP3 SWAP2 POP POP JUMP JUMPDEST PUSH1 0x0 PUSH2 0x1E5 DUP3 PUSH2 0x1EC JUMP JUMPDEST SWAP1 POP SWAP2 SWAP1 POP JUMP JUMPDEST PUSH1 0x0 PUSH20 0xFFFFFFFFFFFFFFFFFFFFFFFFFFFFFFFFFFFFFFFF DUP3 AND SWAP1 POP SWAP2 SWAP1 POP JUMP JUMPDEST PUSH1 0x0 DUP2 SWAP1 POP SWAP2 SWAP1 POP JUMP JUMPDEST PUSH1 0x0 PUSH2 0x221 DUP3 PUSH2 0x228 JUMP JUMPDEST SWAP1 POP SWAP2 SWAP1 POP JUMP JUMPDEST PUSH1 0x0 PUSH2 0x233 DUP3 PUSH2 0x23A JUMP JUMPDEST SWAP1 POP SWAP2 SWAP1 POP JUMP JUMPDEST PUSH1 0x0 PUSH2 0x245 DUP3 PUSH2 0x1EC JUMP JUMPDEST SWAP1 POP SWAP2 SWAP1 POP JUMP INVALID LOG2 PUSH5 0x6970667358 0x22 SLT KECCAK256 AND 0xD4 DUP15 0xCA PUSH26 0x53B02E58B080BB51B9F03D072F8FE1BA0C2B50E41465F2FF4563 0x2E PUSH5 0x736F6C6343 STOP ADDMOD SMOD STOP CALLER "
				},
				"gasEstimates": {
					"creation": {
						"codeDepositCost": "128400",
						"executionCost": "infinite",
						"totalCost": "infinite"
					},
					"external": {
						"buy()": "98",
						"marketBalance()": "5123",
						"thisAddr()": "2514",
						"token()": "2619"
					},
					"internal": {
						"_rate()": "infinite"
					}
				},
				"methodIdentifiers": {
					"buy()": "a6f2ae3a",
					"marketBalance()": "fca02c21",
					"thisAddr()": "d9ef58a5",
					"token()": "fc0c546a"
				}
			},
			"storageLayout": {
				"storage": [
					{
						"astId": 73,
						"contract": "contracts/MarketPlace.sol:MarketPlace",
						"label": "token",
						"offset": 0,
						"slot": "0",
						"type": "t_contract(IERC20)67"
					},
					{
						"astId": 75,
						"contract": "contracts/MarketPlace.sol:MarketPlace",
						"label": "owner",
						"offset": 0,
						"slot": "1",
						"type": "t_address"
					},
					{
						"astId": 81,
						"contract": "contracts/MarketPlace.sol:MarketPlace",
						"label": "thisAddr",
						"offset": 0,
						"slot": "2",
						"type": "t_address"
					}
				],
				"types": {
					"t_address": {
						"encoding": "inplace",
						"label": "address",
						"numberOfBytes": "20"
					},
					"t_contract(IERC20)67": {
						"encoding": "inplace",
						"label": "contract IERC20",
						"numberOfBytes": "20"
					}
				}
			},
			"userdoc": {
				"kind": "user",
				"methods": {},
				"version": 1
			}
		}
	}
}