{
	"contracts/MarketPlace.sol": {
		"MarketPlace": {
			"abi": [
				{
					"inputs": [
						{
							"internalType": "contract IERC20",
							"name": "_token",
							"type": "address"
						}
					],
					"stateMutability": "nonpayable",
					"type": "constructor"
				},
				{
					"anonymous": false,
					"inputs": [
						{
							"indexed": true,
							"internalType": "address",
							"name": "buyer",
							"type": "address"
						},
						{
							"indexed": false,
							"internalType": "uint256",
							"name": "amount",
							"type": "uint256"
						}
					],
					"name": "Bought",
					"type": "event"
				},
				{
					"anonymous": false,
					"inputs": [
						{
							"indexed": true,
							"internalType": "address",
							"name": "seller",
							"type": "address"
						},
						{
							"indexed": false,
							"internalType": "uint256",
							"name": "amount",
							"type": "uint256"
						}
					],
					"name": "Sell",
					"type": "event"
				},
				{
					"inputs": [],
					"name": "buy",
					"outputs": [],
					"stateMutability": "payable",
					"type": "function"
				},
				{
					"inputs": [],
					"name": "marketBalance",
					"outputs": [
						{
							"internalType": "uint256",
							"name": "",
							"type": "uint256"
						}
					],
					"stateMutability": "view",
					"type": "function"
				},
				{
					"inputs": [
						{
							"internalType": "uint256",
							"name": "amount",
							"type": "uint256"
						}
					],
					"name": "sell",
					"outputs": [],
					"stateMutability": "payable",
					"type": "function"
				},
				{
					"inputs": [],
					"name": "thisAddr",
					"outputs": [
						{
							"internalType": "address",
							"name": "",
							"type": "address"
						}
					],
					"stateMutability": "view",
					"type": "function"
				},
				{
					"inputs": [],
					"name": "token",
					"outputs": [
						{
							"internalType": "contract IERC20",
							"name": "",
							"type": "address"
						}
					],
					"stateMutability": "view",
					"type": "function"
				},
				{
					"inputs": [
						{
							"internalType": "uint256",
							"name": "amount",
							"type": "uint256"
						}
					],
					"name": "withdraw",
					"outputs": [],
					"stateMutability": "nonpayable",
					"type": "function"
				}
			],
			"devdoc": {
				"kind": "dev",
				"methods": {},
				"version": 1
			},
			"evm": {
				"assembly": "    /* \"contracts/MarketPlace.sol\":84:1608  contract MarketPlace {... */\n  mstore(0x40, 0x80)\n    /* \"contracts/MarketPlace.sol\":189:193  this */\n  address\n    /* \"contracts/MarketPlace.sol\":155:194  address public thisAddr = address(this) */\n  0x02\n  exp(0x0100, 0x00)\n  dup2\n  sload\n  dup2\n  0xffffffffffffffffffffffffffffffffffffffff\n  mul\n  not\n  and\n  swap1\n  dup4\n  0xffffffffffffffffffffffffffffffffffffffff\n  and\n  mul\n  or\n  swap1\n  sstore\n  pop\n    /* \"contracts/MarketPlace.sol\":309:395  constructor(IERC20 _token) {... */\n  callvalue\n  dup1\n  iszero\n  tag_1\n  jumpi\n  0x00\n  dup1\n  revert\ntag_1:\n  pop\n  mload(0x40)\n  sub(codesize, bytecodeSize)\n  dup1\n  bytecodeSize\n  dup4\n  codecopy\n  dup2\n  dup2\n  add\n  0x40\n  mstore\n  dup2\n  add\n  swap1\n  tag_2\n  swap2\n  swap1\n  tag_3\n  jump\t// in\ntag_2:\n    /* \"contracts/MarketPlace.sol\":354:360  _token */\n  dup1\n    /* \"contracts/MarketPlace.sol\":346:351  token */\n  0x00\n  dup1\n    /* \"contracts/MarketPlace.sol\":346:360  token = _token */\n  0x0100\n  exp\n  dup2\n  sload\n  dup2\n  0xffffffffffffffffffffffffffffffffffffffff\n  mul\n  not\n  and\n  swap1\n  dup4\n  0xffffffffffffffffffffffffffffffffffffffff\n  and\n  mul\n  or\n  swap1\n  sstore\n  pop\n    /* \"contracts/MarketPlace.sol\":378:388  msg.sender */\n  caller\n    /* \"contracts/MarketPlace.sol\":370:375  owner */\n  0x01\n  0x00\n    /* \"contracts/MarketPlace.sol\":370:388  owner = msg.sender */\n  0x0100\n  exp\n  dup2\n  sload\n  dup2\n  0xffffffffffffffffffffffffffffffffffffffff\n  mul\n  not\n  and\n  swap1\n  dup4\n  0xffffffffffffffffffffffffffffffffffffffff\n  and\n  mul\n  or\n  swap1\n  sstore\n  pop\n    /* \"contracts/MarketPlace.sol\":309:395  constructor(IERC20 _token) {... */\n  pop\n    /* \"contracts/MarketPlace.sol\":84:1608  contract MarketPlace {... */\n  jump(tag_6)\n    /* \"#utility.yul\":7:176   */\ntag_8:\n    /* \"#utility.yul\":77:82   */\n  0x00\n    /* \"#utility.yul\":108:114   */\n  dup2\n    /* \"#utility.yul\":102:115   */\n  mload\n    /* \"#utility.yul\":93:115   */\n  swap1\n  pop\n    /* \"#utility.yul\":124:170   */\n  tag_10\n    /* \"#utility.yul\":164:169   */\n  dup2\n    /* \"#utility.yul\":124:170   */\n  tag_11\n  jump\t// in\ntag_10:\n    /* \"#utility.yul\":7:176   */\n  swap3\n  swap2\n  pop\n  pop\n  jump\t// out\n    /* \"#utility.yul\":182:559   */\ntag_3:\n    /* \"#utility.yul\":265:271   */\n  0x00\n    /* \"#utility.yul\":314:316   */\n  0x20\n    /* \"#utility.yul\":302:311   */\n  dup3\n    /* \"#utility.yul\":293:300   */\n  dup5\n    /* \"#utility.yul\":289:312   */\n  sub\n    /* \"#utility.yul\":285:317   */\n  slt\n    /* \"#utility.yul\":282:401   */\n  iszero\n  tag_13\n  jumpi\n    /* \"#utility.yul\":320:399   */\n  tag_14\n  tag_15\n  jump\t// in\ntag_14:\n    /* \"#utility.yul\":282:401   */\ntag_13:\n    /* \"#utility.yul\":440:441   */\n  0x00\n    /* \"#utility.yul\":465:542   */\n  tag_16\n    /* \"#utility.yul\":534:541   */\n  dup5\n    /* \"#utility.yul\":525:531   */\n  dup3\n    /* \"#utility.yul\":514:523   */\n  dup6\n    /* \"#utility.yul\":510:532   */\n  add\n    /* \"#utility.yul\":465:542   */\n  tag_8\n  jump\t// in\ntag_16:\n    /* \"#utility.yul\":455:542   */\n  swap2\n  pop\n    /* \"#utility.yul\":411:552   */\n  pop\n    /* \"#utility.yul\":182:559   */\n  swap3\n  swap2\n  pop\n  pop\n  jump\t// out\n    /* \"#utility.yul\":646:742   */\ntag_19:\n    /* \"#utility.yul\":683:690   */\n  0x00\n    /* \"#utility.yul\":712:736   */\n  tag_21\n    /* \"#utility.yul\":730:735   */\n  dup3\n    /* \"#utility.yul\":712:736   */\n  tag_22\n  jump\t// in\ntag_21:\n    /* \"#utility.yul\":701:736   */\n  swap1\n  pop\n    /* \"#utility.yul\":646:742   */\n  swap2\n  swap1\n  pop\n  jump\t// out\n    /* \"#utility.yul\":748:857   */\ntag_23:\n    /* \"#utility.yul\":798:805   */\n  0x00\n    /* \"#utility.yul\":827:851   */\n  tag_25\n    /* \"#utility.yul\":845:850   */\n  dup3\n    /* \"#utility.yul\":827:851   */\n  tag_19\n  jump\t// in\ntag_25:\n    /* \"#utility.yul\":816:851   */\n  swap1\n  pop\n    /* \"#utility.yul\":748:857   */\n  swap2\n  swap1\n  pop\n  jump\t// out\n    /* \"#utility.yul\":863:989   */\ntag_22:\n    /* \"#utility.yul\":900:907   */\n  0x00\n    /* \"#utility.yul\":940:982   */\n  0xffffffffffffffffffffffffffffffffffffffff\n    /* \"#utility.yul\":933:938   */\n  dup3\n    /* \"#utility.yul\":929:983   */\n  and\n    /* \"#utility.yul\":918:983   */\n  swap1\n  pop\n    /* \"#utility.yul\":863:989   */\n  swap2\n  swap1\n  pop\n  jump\t// out\n    /* \"#utility.yul\":1118:1235   */\ntag_15:\n    /* \"#utility.yul\":1227:1228   */\n  0x00\n    /* \"#utility.yul\":1224:1225   */\n  dup1\n    /* \"#utility.yul\":1217:1229   */\n  revert\n    /* \"#utility.yul\":1241:1389   */\ntag_11:\n    /* \"#utility.yul\":1327:1364   */\n  tag_31\n    /* \"#utility.yul\":1358:1363   */\n  dup2\n    /* \"#utility.yul\":1327:1364   */\n  tag_23\n  jump\t// in\ntag_31:\n    /* \"#utility.yul\":1320:1325   */\n  dup2\n    /* \"#utility.yul\":1317:1365   */\n  eq\n    /* \"#utility.yul\":1307:1383   */\n  tag_32\n  jumpi\n    /* \"#utility.yul\":1379:1380   */\n  0x00\n    /* \"#utility.yul\":1376:1377   */\n  dup1\n    /* \"#utility.yul\":1369:1381   */\n  revert\n    /* \"#utility.yul\":1307:1383   */\ntag_32:\n    /* \"#utility.yul\":1241:1389   */\n  pop\n  jump\t// out\n    /* \"contracts/MarketPlace.sol\":84:1608  contract MarketPlace {... */\ntag_6:\n  dataSize(sub_0)\n  dup1\n  dataOffset(sub_0)\n  0x00\n  codecopy\n  0x00\n  return\nstop\n\nsub_0: assembly {\n        /* \"contracts/MarketPlace.sol\":84:1608  contract MarketPlace {... */\n      mstore(0x40, 0x80)\n      jumpi(tag_1, lt(calldatasize, 0x04))\n      shr(0xe0, calldataload(0x00))\n      dup1\n      0x2e1a7d4d\n      eq\n      tag_2\n      jumpi\n      dup1\n      0xa6f2ae3a\n      eq\n      tag_3\n      jumpi\n      dup1\n      0xd9ef58a5\n      eq\n      tag_4\n      jumpi\n      dup1\n      0xe4849b32\n      eq\n      tag_5\n      jumpi\n      dup1\n      0xfc0c546a\n      eq\n      tag_6\n      jumpi\n      dup1\n      0xfca02c21\n      eq\n      tag_7\n      jumpi\n    tag_1:\n      0x00\n      dup1\n      revert\n        /* \"contracts/MarketPlace.sol\":1358:1524  function withdraw(uint amount) public onlyOwner {... */\n    tag_2:\n      callvalue\n      dup1\n      iszero\n      tag_8\n      jumpi\n      0x00\n      dup1\n      revert\n    tag_8:\n      pop\n      tag_9\n      0x04\n      dup1\n      calldatasize\n      sub\n      dup2\n      add\n      swap1\n      tag_10\n      swap2\n      swap1\n      tag_11\n      jump\t// in\n    tag_10:\n      tag_12\n      jump\t// in\n    tag_9:\n      stop\n        /* \"contracts/MarketPlace.sol\":596:961  function buy() public payable {... */\n    tag_3:\n      tag_13\n      tag_14\n      jump\t// in\n    tag_13:\n      stop\n        /* \"contracts/MarketPlace.sol\":155:194  address public thisAddr = address(this) */\n    tag_4:\n      callvalue\n      dup1\n      iszero\n      tag_15\n      jumpi\n      0x00\n      dup1\n      revert\n    tag_15:\n      pop\n      tag_16\n      tag_17\n      jump\t// in\n    tag_16:\n      mload(0x40)\n      tag_18\n      swap2\n      swap1\n      tag_19\n      jump\t// in\n    tag_18:\n      mload(0x40)\n      dup1\n      swap2\n      sub\n      swap1\n      return\n        /* \"contracts/MarketPlace.sol\":967:1352  function sell(uint amount) public payable {... */\n    tag_5:\n      tag_20\n      0x04\n      dup1\n      calldatasize\n      sub\n      dup2\n      add\n      swap1\n      tag_21\n      swap2\n      swap1\n      tag_11\n      jump\t// in\n    tag_21:\n      tag_22\n      jump\t// in\n    tag_20:\n      stop\n        /* \"contracts/MarketPlace.sol\":111:130  IERC20 public token */\n    tag_6:\n      callvalue\n      dup1\n      iszero\n      tag_23\n      jumpi\n      0x00\n      dup1\n      revert\n    tag_23:\n      pop\n      tag_24\n      tag_25\n      jump\t// in\n    tag_24:\n      mload(0x40)\n      tag_26\n      swap2\n      swap1\n      tag_27\n      jump\t// in\n    tag_26:\n      mload(0x40)\n      dup1\n      swap2\n      sub\n      swap1\n      return\n        /* \"contracts/MarketPlace.sol\":499:590  function marketBalance() public view returns(uint) {... */\n    tag_7:\n      callvalue\n      dup1\n      iszero\n      tag_28\n      jumpi\n      0x00\n      dup1\n      revert\n    tag_28:\n      pop\n      tag_29\n      tag_30\n      jump\t// in\n    tag_29:\n      mload(0x40)\n      tag_31\n      swap2\n      swap1\n      tag_32\n      jump\t// in\n    tag_31:\n      mload(0x40)\n      dup1\n      swap2\n      sub\n      swap1\n      return\n        /* \"contracts/MarketPlace.sol\":1358:1524  function withdraw(uint amount) public onlyOwner {... */\n    tag_12:\n        /* \"contracts/MarketPlace.sol\":454:459  owner */\n      0x01\n      0x00\n      swap1\n      sload\n      swap1\n      0x0100\n      exp\n      swap1\n      div\n      0xffffffffffffffffffffffffffffffffffffffff\n      and\n        /* \"contracts/MarketPlace.sol\":440:459  msg.sender == owner */\n      0xffffffffffffffffffffffffffffffffffffffff\n      and\n        /* \"contracts/MarketPlace.sol\":440:450  msg.sender */\n      caller\n        /* \"contracts/MarketPlace.sol\":440:459  msg.sender == owner */\n      0xffffffffffffffffffffffffffffffffffffffff\n      and\n      eq\n        /* \"contracts/MarketPlace.sol\":432:475  require(msg.sender == owner, \"Only owner!\") */\n      tag_34\n      jumpi\n      mload(0x40)\n      0x08c379a000000000000000000000000000000000000000000000000000000000\n      dup2\n      mstore\n      0x04\n      add\n      tag_35\n      swap1\n      tag_36\n      jump\t// in\n    tag_35:\n      mload(0x40)\n      dup1\n      swap2\n      sub\n      swap1\n      revert\n    tag_34:\n        /* \"contracts/MarketPlace.sol\":1434:1449  marketBalance() */\n      tag_38\n        /* \"contracts/MarketPlace.sol\":1434:1447  marketBalance */\n      tag_30\n        /* \"contracts/MarketPlace.sol\":1434:1449  marketBalance() */\n      jump\t// in\n    tag_38:\n        /* \"contracts/MarketPlace.sol\":1424:1430  amount */\n      dup2\n        /* \"contracts/MarketPlace.sol\":1424:1449  amount <= marketBalance() */\n      gt\n      iszero\n        /* \"contracts/MarketPlace.sol\":1416:1471  require(amount <= marketBalance(), \"Not enough funds!\") */\n      tag_39\n      jumpi\n      mload(0x40)\n      0x08c379a000000000000000000000000000000000000000000000000000000000\n      dup2\n      mstore\n      0x04\n      add\n      tag_40\n      swap1\n      tag_41\n      jump\t// in\n    tag_40:\n      mload(0x40)\n      dup1\n      swap2\n      sub\n      swap1\n      revert\n    tag_39:\n        /* \"contracts/MarketPlace.sol\":1489:1499  msg.sender */\n      caller\n        /* \"contracts/MarketPlace.sol\":1481:1509  payable(msg.sender).transfer */\n      0xffffffffffffffffffffffffffffffffffffffff\n      and\n        /* \"contracts/MarketPlace.sol\":1481:1517  payable(msg.sender).transfer(amount) */\n      0x08fc\n        /* \"contracts/MarketPlace.sol\":1510:1516  amount */\n      dup3\n        /* \"contracts/MarketPlace.sol\":1481:1517  payable(msg.sender).transfer(amount) */\n      swap1\n      dup2\n      iszero\n      mul\n      swap1\n      mload(0x40)\n      0x00\n      mload(0x40)\n      dup1\n      dup4\n      sub\n      dup2\n      dup6\n      dup9\n      dup9\n      call\n      swap4\n      pop\n      pop\n      pop\n      pop\n      iszero\n      dup1\n      iszero\n      tag_43\n      jumpi\n      returndatasize\n      0x00\n      dup1\n      returndatacopy\n      revert(0x00, returndatasize)\n    tag_43:\n      pop\n        /* \"contracts/MarketPlace.sol\":1358:1524  function withdraw(uint amount) public onlyOwner {... */\n      pop\n      jump\t// out\n        /* \"contracts/MarketPlace.sol\":596:961  function buy() public payable {... */\n    tag_14:\n        /* \"contracts/MarketPlace.sol\":657:664  _rate() */\n      tag_45\n        /* \"contracts/MarketPlace.sol\":657:662  _rate */\n      tag_46\n        /* \"contracts/MarketPlace.sol\":657:664  _rate() */\n      jump\t// in\n    tag_45:\n        /* \"contracts/MarketPlace.sol\":644:653  msg.value */\n      callvalue\n        /* \"contracts/MarketPlace.sol\":644:664  msg.value >= _rate() */\n      lt\n      iszero\n        /* \"contracts/MarketPlace.sol\":636:682  require(msg.value >= _rate(), \"Incorrect sum\") */\n      tag_47\n      jumpi\n      mload(0x40)\n      0x08c379a000000000000000000000000000000000000000000000000000000000\n      dup2\n      mstore\n      0x04\n      add\n      tag_48\n      swap1\n      tag_49\n      jump\t// in\n    tag_48:\n      mload(0x40)\n      dup1\n      swap2\n      sub\n      swap1\n      revert\n    tag_47:\n        /* \"contracts/MarketPlace.sol\":692:712  uint tokensAvailable */\n      0x00\n        /* \"contracts/MarketPlace.sol\":715:720  token */\n      dup1\n      0x00\n      swap1\n      sload\n      swap1\n      0x0100\n      exp\n      swap1\n      div\n      0xffffffffffffffffffffffffffffffffffffffff\n      and\n        /* \"contracts/MarketPlace.sol\":715:730  token.balanceOf */\n      0xffffffffffffffffffffffffffffffffffffffff\n      and\n      0x70a08231\n        /* \"contracts/MarketPlace.sol\":731:739  thisAddr */\n      0x02\n      0x00\n      swap1\n      sload\n      swap1\n      0x0100\n      exp\n      swap1\n      div\n      0xffffffffffffffffffffffffffffffffffffffff\n      and\n        /* \"contracts/MarketPlace.sol\":715:740  token.balanceOf(thisAddr) */\n      mload(0x40)\n      dup3\n      0xffffffff\n      and\n      0xe0\n      shl\n      dup2\n      mstore\n      0x04\n      add\n      tag_50\n      swap2\n      swap1\n      tag_19\n      jump\t// in\n    tag_50:\n      0x20\n      mload(0x40)\n      dup1\n      dup4\n      sub\n      dup2\n      dup7\n      dup1\n      extcodesize\n      iszero\n      dup1\n      iszero\n      tag_51\n      jumpi\n      0x00\n      dup1\n      revert\n    tag_51:\n      pop\n      gas\n      staticcall\n      iszero\n      dup1\n      iszero\n      tag_53\n      jumpi\n      returndatasize\n      0x00\n      dup1\n      returndatacopy\n      revert(0x00, returndatasize)\n    tag_53:\n      pop\n      pop\n      pop\n      pop\n      mload(0x40)\n      returndatasize\n      not(0x1f)\n      0x1f\n      dup3\n      add\n      and\n      dup3\n      add\n      dup1\n      0x40\n      mstore\n      pop\n      dup2\n      add\n      swap1\n      tag_54\n      swap2\n      swap1\n      tag_55\n      jump\t// in\n    tag_54:\n        /* \"contracts/MarketPlace.sol\":692:740  uint tokensAvailable = token.balanceOf(thisAddr) */\n      swap1\n      pop\n        /* \"contracts/MarketPlace.sol\":750:766  uint tokensToBuy */\n      0x00\n        /* \"contracts/MarketPlace.sol\":781:788  _rate() */\n      tag_56\n        /* \"contracts/MarketPlace.sol\":781:786  _rate */\n      tag_46\n        /* \"contracts/MarketPlace.sol\":781:788  _rate() */\n      jump\t// in\n    tag_56:\n        /* \"contracts/MarketPlace.sol\":769:778  msg.value */\n      callvalue\n        /* \"contracts/MarketPlace.sol\":769:788  msg.value / _rate() */\n      tag_57\n      swap2\n      swap1\n      tag_58\n      jump\t// in\n    tag_57:\n        /* \"contracts/MarketPlace.sol\":750:788  uint tokensToBuy = msg.value / _rate() */\n      swap1\n      pop\n        /* \"contracts/MarketPlace.sol\":821:836  tokensAvailable */\n      dup2\n        /* \"contracts/MarketPlace.sol\":806:817  tokensToBuy */\n      dup2\n        /* \"contracts/MarketPlace.sol\":806:836  tokensToBuy <= tokensAvailable */\n      gt\n      iszero\n        /* \"contracts/MarketPlace.sol\":798:859  require(tokensToBuy <= tokensAvailable, \"Not enouth tokens!\") */\n      tag_59\n      jumpi\n      mload(0x40)\n      0x08c379a000000000000000000000000000000000000000000000000000000000\n      dup2\n      mstore\n      0x04\n      add\n      tag_60\n      swap1\n      tag_61\n      jump\t// in\n    tag_60:\n      mload(0x40)\n      dup1\n      swap2\n      sub\n      swap1\n      revert\n    tag_59:\n        /* \"contracts/MarketPlace.sol\":869:874  token */\n      0x00\n      dup1\n      sload\n      swap1\n      0x0100\n      exp\n      swap1\n      div\n      0xffffffffffffffffffffffffffffffffffffffff\n      and\n        /* \"contracts/MarketPlace.sol\":869:883  token.transfer */\n      0xffffffffffffffffffffffffffffffffffffffff\n      and\n      0xa9059cbb\n        /* \"contracts/MarketPlace.sol\":884:894  msg.sender */\n      caller\n        /* \"contracts/MarketPlace.sol\":896:907  tokensToBuy */\n      dup4\n        /* \"contracts/MarketPlace.sol\":869:908  token.transfer(msg.sender, tokensToBuy) */\n      mload(0x40)\n      dup4\n      0xffffffff\n      and\n      0xe0\n      shl\n      dup2\n      mstore\n      0x04\n      add\n      tag_62\n      swap3\n      swap2\n      swap1\n      tag_63\n      jump\t// in\n    tag_62:\n      0x00\n      mload(0x40)\n      dup1\n      dup4\n      sub\n      dup2\n      0x00\n      dup8\n      dup1\n      extcodesize\n      iszero\n      dup1\n      iszero\n      tag_64\n      jumpi\n      0x00\n      dup1\n      revert\n    tag_64:\n      pop\n      gas\n      call\n      iszero\n      dup1\n      iszero\n      tag_66\n      jumpi\n      returndatasize\n      0x00\n      dup1\n      returndatacopy\n      revert(0x00, returndatasize)\n    tag_66:\n      pop\n      pop\n      pop\n      pop\n        /* \"contracts/MarketPlace.sol\":930:940  msg.sender */\n      caller\n        /* \"contracts/MarketPlace.sol\":923:954  Bought(msg.sender, tokensToBuy) */\n      0xffffffffffffffffffffffffffffffffffffffff\n      and\n      0xc55650ccda1011e1cdc769b1fbf546ebb8c97800b6072b49e06cd560305b1d67\n        /* \"contracts/MarketPlace.sol\":942:953  tokensToBuy */\n      dup3\n        /* \"contracts/MarketPlace.sol\":923:954  Bought(msg.sender, tokensToBuy) */\n      mload(0x40)\n      tag_67\n      swap2\n      swap1\n      tag_32\n      jump\t// in\n    tag_67:\n      mload(0x40)\n      dup1\n      swap2\n      sub\n      swap1\n      log2\n        /* \"contracts/MarketPlace.sol\":626:961  {... */\n      pop\n      pop\n        /* \"contracts/MarketPlace.sol\":596:961  function buy() public payable {... */\n      jump\t// out\n        /* \"contracts/MarketPlace.sol\":155:194  address public thisAddr = address(this) */\n    tag_17:\n      0x02\n      0x00\n      swap1\n      sload\n      swap1\n      0x0100\n      exp\n      swap1\n      div\n      0xffffffffffffffffffffffffffffffffffffffff\n      and\n      dup2\n      jump\t// out\n        /* \"contracts/MarketPlace.sol\":967:1352  function sell(uint amount) public payable {... */\n    tag_22:\n        /* \"contracts/MarketPlace.sol\":1036:1037  0 */\n      0x00\n        /* \"contracts/MarketPlace.sol\":1027:1033  amount */\n      dup2\n        /* \"contracts/MarketPlace.sol\":1027:1037  amount > 0 */\n      gt\n        /* \"contracts/MarketPlace.sol\":1019:1071  require(amount > 0, \"Tokens must be greater than 0\") */\n      tag_69\n      jumpi\n      mload(0x40)\n      0x08c379a000000000000000000000000000000000000000000000000000000000\n      dup2\n      mstore\n      0x04\n      add\n      tag_70\n      swap1\n      tag_71\n      jump\t// in\n    tag_70:\n      mload(0x40)\n      dup1\n      swap2\n      sub\n      swap1\n      revert\n    tag_69:\n        /* \"contracts/MarketPlace.sol\":1081:1095  uint allowance */\n      0x00\n        /* \"contracts/MarketPlace.sol\":1098:1103  token */\n      dup1\n      0x00\n      swap1\n      sload\n      swap1\n      0x0100\n      exp\n      swap1\n      div\n      0xffffffffffffffffffffffffffffffffffffffff\n      and\n        /* \"contracts/MarketPlace.sol\":1098:1113  token.allowance */\n      0xffffffffffffffffffffffffffffffffffffffff\n      and\n      0xdd62ed3e\n        /* \"contracts/MarketPlace.sol\":1114:1124  msg.sender */\n      caller\n        /* \"contracts/MarketPlace.sol\":1126:1134  thisAddr */\n      0x02\n      0x00\n      swap1\n      sload\n      swap1\n      0x0100\n      exp\n      swap1\n      div\n      0xffffffffffffffffffffffffffffffffffffffff\n      and\n        /* \"contracts/MarketPlace.sol\":1098:1135  token.allowance(msg.sender, thisAddr) */\n      mload(0x40)\n      dup4\n      0xffffffff\n      and\n      0xe0\n      shl\n      dup2\n      mstore\n      0x04\n      add\n      tag_72\n      swap3\n      swap2\n      swap1\n      tag_73\n      jump\t// in\n    tag_72:\n      0x20\n      mload(0x40)\n      dup1\n      dup4\n      sub\n      dup2\n      dup7\n      dup1\n      extcodesize\n      iszero\n      dup1\n      iszero\n      tag_74\n      jumpi\n      0x00\n      dup1\n      revert\n    tag_74:\n      pop\n      gas\n      staticcall\n      iszero\n      dup1\n      iszero\n      tag_76\n      jumpi\n      returndatasize\n      0x00\n      dup1\n      returndatacopy\n      revert(0x00, returndatasize)\n    tag_76:\n      pop\n      pop\n      pop\n      pop\n      mload(0x40)\n      returndatasize\n      not(0x1f)\n      0x1f\n      dup3\n      add\n      and\n      dup3\n      add\n      dup1\n      0x40\n      mstore\n      pop\n      dup2\n      add\n      swap1\n      tag_77\n      swap2\n      swap1\n      tag_55\n      jump\t// in\n    tag_77:\n        /* \"contracts/MarketPlace.sol\":1081:1135  uint allowance = token.allowance(msg.sender, thisAddr) */\n      swap1\n      pop\n        /* \"contracts/MarketPlace.sol\":1166:1172  amount */\n      dup2\n        /* \"contracts/MarketPlace.sol\":1153:1162  allowance */\n      dup2\n        /* \"contracts/MarketPlace.sol\":1153:1172  allowance >= amount */\n      lt\n      iszero\n        /* \"contracts/MarketPlace.sol\":1145:1192  require(allowance >= amount, \"Wrong allowance\") */\n      tag_78\n      jumpi\n      mload(0x40)\n      0x08c379a000000000000000000000000000000000000000000000000000000000\n      dup2\n      mstore\n      0x04\n      add\n      tag_79\n      swap1\n      tag_80\n      jump\t// in\n    tag_79:\n      mload(0x40)\n      dup1\n      swap2\n      sub\n      swap1\n      revert\n    tag_78:\n        /* \"contracts/MarketPlace.sol\":1202:1207  token */\n      0x00\n      dup1\n      sload\n      swap1\n      0x0100\n      exp\n      swap1\n      div\n      0xffffffffffffffffffffffffffffffffffffffff\n      and\n        /* \"contracts/MarketPlace.sol\":1202:1220  token.transferFrom */\n      0xffffffffffffffffffffffffffffffffffffffff\n      and\n      0x23b872dd\n        /* \"contracts/MarketPlace.sol\":1221:1231  msg.sender */\n      caller\n        /* \"contracts/MarketPlace.sol\":1233:1241  thisAddr */\n      0x02\n      0x00\n      swap1\n      sload\n      swap1\n      0x0100\n      exp\n      swap1\n      div\n      0xffffffffffffffffffffffffffffffffffffffff\n      and\n        /* \"contracts/MarketPlace.sol\":1243:1249  amount */\n      dup6\n        /* \"contracts/MarketPlace.sol\":1202:1250  token.transferFrom(msg.sender, thisAddr, amount) */\n      mload(0x40)\n      dup5\n      0xffffffff\n      and\n      0xe0\n      shl\n      dup2\n      mstore\n      0x04\n      add\n      tag_81\n      swap4\n      swap3\n      swap2\n      swap1\n      tag_82\n      jump\t// in\n    tag_81:\n      0x00\n      mload(0x40)\n      dup1\n      dup4\n      sub\n      dup2\n      0x00\n      dup8\n      dup1\n      extcodesize\n      iszero\n      dup1\n      iszero\n      tag_83\n      jumpi\n      0x00\n      dup1\n      revert\n    tag_83:\n      pop\n      gas\n      call\n      iszero\n      dup1\n      iszero\n      tag_85\n      jumpi\n      returndatasize\n      0x00\n      dup1\n      returndatacopy\n      revert(0x00, returndatasize)\n    tag_85:\n      pop\n      pop\n      pop\n      pop\n        /* \"contracts/MarketPlace.sol\":1268:1278  msg.sender */\n      caller\n        /* \"contracts/MarketPlace.sol\":1260:1288  payable(msg.sender).transfer */\n      0xffffffffffffffffffffffffffffffffffffffff\n      and\n        /* \"contracts/MarketPlace.sol\":1260:1306  payable(msg.sender).transfer(amount * _rate()) */\n      0x08fc\n        /* \"contracts/MarketPlace.sol\":1298:1305  _rate() */\n      tag_86\n        /* \"contracts/MarketPlace.sol\":1298:1303  _rate */\n      tag_46\n        /* \"contracts/MarketPlace.sol\":1298:1305  _rate() */\n      jump\t// in\n    tag_86:\n        /* \"contracts/MarketPlace.sol\":1289:1295  amount */\n      dup5\n        /* \"contracts/MarketPlace.sol\":1289:1305  amount * _rate() */\n      tag_87\n      swap2\n      swap1\n      tag_88\n      jump\t// in\n    tag_87:\n        /* \"contracts/MarketPlace.sol\":1260:1306  payable(msg.sender).transfer(amount * _rate()) */\n      swap1\n      dup2\n      iszero\n      mul\n      swap1\n      mload(0x40)\n      0x00\n      mload(0x40)\n      dup1\n      dup4\n      sub\n      dup2\n      dup6\n      dup9\n      dup9\n      call\n      swap4\n      pop\n      pop\n      pop\n      pop\n      iszero\n      dup1\n      iszero\n      tag_90\n      jumpi\n      returndatasize\n      0x00\n      dup1\n      returndatacopy\n      revert(0x00, returndatasize)\n    tag_90:\n      pop\n        /* \"contracts/MarketPlace.sol\":1326:1336  msg.sender */\n      caller\n        /* \"contracts/MarketPlace.sol\":1321:1345  Sell(msg.sender, amount) */\n      0xffffffffffffffffffffffffffffffffffffffff\n      and\n      0x5e5e995ce3133561afceaa51a9a154d5db228cd7525d34df5185582c18d3df09\n        /* \"contracts/MarketPlace.sol\":1338:1344  amount */\n      dup4\n        /* \"contracts/MarketPlace.sol\":1321:1345  Sell(msg.sender, amount) */\n      mload(0x40)\n      tag_91\n      swap2\n      swap1\n      tag_32\n      jump\t// in\n    tag_91:\n      mload(0x40)\n      dup1\n      swap2\n      sub\n      swap1\n      log2\n        /* \"contracts/MarketPlace.sol\":1009:1352  {... */\n      pop\n        /* \"contracts/MarketPlace.sol\":967:1352  function sell(uint amount) public payable {... */\n      pop\n      jump\t// out\n        /* \"contracts/MarketPlace.sol\":111:130  IERC20 public token */\n    tag_25:\n      0x00\n      dup1\n      sload\n      swap1\n      0x0100\n      exp\n      swap1\n      div\n      0xffffffffffffffffffffffffffffffffffffffff\n      and\n      dup2\n      jump\t// out\n        /* \"contracts/MarketPlace.sol\":499:590  function marketBalance() public view returns(uint) {... */\n    tag_30:\n        /* \"contracts/MarketPlace.sol\":544:548  uint */\n      0x00\n        /* \"contracts/MarketPlace.sol\":567:575  thisAddr */\n      0x02\n      0x00\n      swap1\n      sload\n      swap1\n      0x0100\n      exp\n      swap1\n      div\n      0xffffffffffffffffffffffffffffffffffffffff\n      and\n        /* \"contracts/MarketPlace.sol\":567:583  thisAddr.balance */\n      0xffffffffffffffffffffffffffffffffffffffff\n      and\n      balance\n        /* \"contracts/MarketPlace.sol\":560:583  return thisAddr.balance */\n      swap1\n      pop\n        /* \"contracts/MarketPlace.sol\":499:590  function marketBalance() public view returns(uint) {... */\n      swap1\n      jump\t// out\n        /* \"contracts/MarketPlace.sol\":1530:1606  function _rate() private pure returns(uint) {... */\n    tag_46:\n        /* \"contracts/MarketPlace.sol\":1568:1572  uint */\n      0x00\n        /* \"contracts/MarketPlace.sol\":1591:1598  1 ether */\n      0x0de0b6b3a7640000\n        /* \"contracts/MarketPlace.sol\":1584:1598  return 1 ether */\n      swap1\n      pop\n        /* \"contracts/MarketPlace.sol\":1530:1606  function _rate() private pure returns(uint) {... */\n      swap1\n      jump\t// out\n        /* \"#utility.yul\":7:146   */\n    tag_95:\n        /* \"#utility.yul\":53:58   */\n      0x00\n        /* \"#utility.yul\":91:97   */\n      dup2\n        /* \"#utility.yul\":78:98   */\n      calldataload\n        /* \"#utility.yul\":69:98   */\n      swap1\n      pop\n        /* \"#utility.yul\":107:140   */\n      tag_97\n        /* \"#utility.yul\":134:139   */\n      dup2\n        /* \"#utility.yul\":107:140   */\n      tag_98\n      jump\t// in\n    tag_97:\n        /* \"#utility.yul\":7:146   */\n      swap3\n      swap2\n      pop\n      pop\n      jump\t// out\n        /* \"#utility.yul\":152:295   */\n    tag_99:\n        /* \"#utility.yul\":209:214   */\n      0x00\n        /* \"#utility.yul\":240:246   */\n      dup2\n        /* \"#utility.yul\":234:247   */\n      mload\n        /* \"#utility.yul\":225:247   */\n      swap1\n      pop\n        /* \"#utility.yul\":256:289   */\n      tag_101\n        /* \"#utility.yul\":283:288   */\n      dup2\n        /* \"#utility.yul\":256:289   */\n      tag_98\n      jump\t// in\n    tag_101:\n        /* \"#utility.yul\":152:295   */\n      swap3\n      swap2\n      pop\n      pop\n      jump\t// out\n        /* \"#utility.yul\":301:630   */\n    tag_11:\n        /* \"#utility.yul\":360:366   */\n      0x00\n        /* \"#utility.yul\":409:411   */\n      0x20\n        /* \"#utility.yul\":397:406   */\n      dup3\n        /* \"#utility.yul\":388:395   */\n      dup5\n        /* \"#utility.yul\":384:407   */\n      sub\n        /* \"#utility.yul\":380:412   */\n      slt\n        /* \"#utility.yul\":377:496   */\n      iszero\n      tag_103\n      jumpi\n        /* \"#utility.yul\":415:494   */\n      tag_104\n      tag_105\n      jump\t// in\n    tag_104:\n        /* \"#utility.yul\":377:496   */\n    tag_103:\n        /* \"#utility.yul\":535:536   */\n      0x00\n        /* \"#utility.yul\":560:613   */\n      tag_106\n        /* \"#utility.yul\":605:612   */\n      dup5\n        /* \"#utility.yul\":596:602   */\n      dup3\n        /* \"#utility.yul\":585:594   */\n      dup6\n        /* \"#utility.yul\":581:603   */\n      add\n        /* \"#utility.yul\":560:613   */\n      tag_95\n      jump\t// in\n    tag_106:\n        /* \"#utility.yul\":550:613   */\n      swap2\n      pop\n        /* \"#utility.yul\":506:623   */\n      pop\n        /* \"#utility.yul\":301:630   */\n      swap3\n      swap2\n      pop\n      pop\n      jump\t// out\n        /* \"#utility.yul\":636:987   */\n    tag_55:\n        /* \"#utility.yul\":706:712   */\n      0x00\n        /* \"#utility.yul\":755:757   */\n      0x20\n        /* \"#utility.yul\":743:752   */\n      dup3\n        /* \"#utility.yul\":734:741   */\n      dup5\n        /* \"#utility.yul\":730:753   */\n      sub\n        /* \"#utility.yul\":726:758   */\n      slt\n        /* \"#utility.yul\":723:842   */\n      iszero\n      tag_108\n      jumpi\n        /* \"#utility.yul\":761:840   */\n      tag_109\n      tag_105\n      jump\t// in\n    tag_109:\n        /* \"#utility.yul\":723:842   */\n    tag_108:\n        /* \"#utility.yul\":881:882   */\n      0x00\n        /* \"#utility.yul\":906:970   */\n      tag_110\n        /* \"#utility.yul\":962:969   */\n      dup5\n        /* \"#utility.yul\":953:959   */\n      dup3\n        /* \"#utility.yul\":942:951   */\n      dup6\n        /* \"#utility.yul\":938:960   */\n      add\n        /* \"#utility.yul\":906:970   */\n      tag_99\n      jump\t// in\n    tag_110:\n        /* \"#utility.yul\":896:970   */\n      swap2\n      pop\n        /* \"#utility.yul\":852:980   */\n      pop\n        /* \"#utility.yul\":636:987   */\n      swap3\n      swap2\n      pop\n      pop\n      jump\t// out\n        /* \"#utility.yul\":993:1111   */\n    tag_111:\n        /* \"#utility.yul\":1080:1104   */\n      tag_113\n        /* \"#utility.yul\":1098:1103   */\n      dup2\n        /* \"#utility.yul\":1080:1104   */\n      tag_114\n      jump\t// in\n    tag_113:\n        /* \"#utility.yul\":1075:1078   */\n      dup3\n        /* \"#utility.yul\":1068:1105   */\n      mstore\n        /* \"#utility.yul\":993:1111   */\n      pop\n      pop\n      jump\t// out\n        /* \"#utility.yul\":1117:1274   */\n    tag_115:\n        /* \"#utility.yul\":1217:1267   */\n      tag_117\n        /* \"#utility.yul\":1261:1266   */\n      dup2\n        /* \"#utility.yul\":1217:1267   */\n      tag_118\n      jump\t// in\n    tag_117:\n        /* \"#utility.yul\":1212:1215   */\n      dup3\n        /* \"#utility.yul\":1205:1268   */\n      mstore\n        /* \"#utility.yul\":1117:1274   */\n      pop\n      pop\n      jump\t// out\n        /* \"#utility.yul\":1280:1646   */\n    tag_119:\n        /* \"#utility.yul\":1422:1425   */\n      0x00\n        /* \"#utility.yul\":1443:1510   */\n      tag_121\n        /* \"#utility.yul\":1507:1509   */\n      0x0d\n        /* \"#utility.yul\":1502:1505   */\n      dup4\n        /* \"#utility.yul\":1443:1510   */\n      tag_122\n      jump\t// in\n    tag_121:\n        /* \"#utility.yul\":1436:1510   */\n      swap2\n      pop\n        /* \"#utility.yul\":1519:1612   */\n      tag_123\n        /* \"#utility.yul\":1608:1611   */\n      dup3\n        /* \"#utility.yul\":1519:1612   */\n      tag_124\n      jump\t// in\n    tag_123:\n        /* \"#utility.yul\":1637:1639   */\n      0x20\n        /* \"#utility.yul\":1632:1635   */\n      dup3\n        /* \"#utility.yul\":1628:1640   */\n      add\n        /* \"#utility.yul\":1621:1640   */\n      swap1\n      pop\n        /* \"#utility.yul\":1280:1646   */\n      swap2\n      swap1\n      pop\n      jump\t// out\n        /* \"#utility.yul\":1652:2018   */\n    tag_125:\n        /* \"#utility.yul\":1794:1797   */\n      0x00\n        /* \"#utility.yul\":1815:1882   */\n      tag_127\n        /* \"#utility.yul\":1879:1881   */\n      0x0f\n        /* \"#utility.yul\":1874:1877   */\n      dup4\n        /* \"#utility.yul\":1815:1882   */\n      tag_122\n      jump\t// in\n    tag_127:\n        /* \"#utility.yul\":1808:1882   */\n      swap2\n      pop\n        /* \"#utility.yul\":1891:1984   */\n      tag_128\n        /* \"#utility.yul\":1980:1983   */\n      dup3\n        /* \"#utility.yul\":1891:1984   */\n      tag_129\n      jump\t// in\n    tag_128:\n        /* \"#utility.yul\":2009:2011   */\n      0x20\n        /* \"#utility.yul\":2004:2007   */\n      dup3\n        /* \"#utility.yul\":2000:2012   */\n      add\n        /* \"#utility.yul\":1993:2012   */\n      swap1\n      pop\n        /* \"#utility.yul\":1652:2018   */\n      swap2\n      swap1\n      pop\n      jump\t// out\n        /* \"#utility.yul\":2024:2390   */\n    tag_130:\n        /* \"#utility.yul\":2166:2169   */\n      0x00\n        /* \"#utility.yul\":2187:2254   */\n      tag_132\n        /* \"#utility.yul\":2251:2253   */\n      0x1d\n        /* \"#utility.yul\":2246:2249   */\n      dup4\n        /* \"#utility.yul\":2187:2254   */\n      tag_122\n      jump\t// in\n    tag_132:\n        /* \"#utility.yul\":2180:2254   */\n      swap2\n      pop\n        /* \"#utility.yul\":2263:2356   */\n      tag_133\n        /* \"#utility.yul\":2352:2355   */\n      dup3\n        /* \"#utility.yul\":2263:2356   */\n      tag_134\n      jump\t// in\n    tag_133:\n        /* \"#utility.yul\":2381:2383   */\n      0x20\n        /* \"#utility.yul\":2376:2379   */\n      dup3\n        /* \"#utility.yul\":2372:2384   */\n      add\n        /* \"#utility.yul\":2365:2384   */\n      swap1\n      pop\n        /* \"#utility.yul\":2024:2390   */\n      swap2\n      swap1\n      pop\n      jump\t// out\n        /* \"#utility.yul\":2396:2762   */\n    tag_135:\n        /* \"#utility.yul\":2538:2541   */\n      0x00\n        /* \"#utility.yul\":2559:2626   */\n      tag_137\n        /* \"#utility.yul\":2623:2625   */\n      0x11\n        /* \"#utility.yul\":2618:2621   */\n      dup4\n        /* \"#utility.yul\":2559:2626   */\n      tag_122\n      jump\t// in\n    tag_137:\n        /* \"#utility.yul\":2552:2626   */\n      swap2\n      pop\n        /* \"#utility.yul\":2635:2728   */\n      tag_138\n        /* \"#utility.yul\":2724:2727   */\n      dup3\n        /* \"#utility.yul\":2635:2728   */\n      tag_139\n      jump\t// in\n    tag_138:\n        /* \"#utility.yul\":2753:2755   */\n      0x20\n        /* \"#utility.yul\":2748:2751   */\n      dup3\n        /* \"#utility.yul\":2744:2756   */\n      add\n        /* \"#utility.yul\":2737:2756   */\n      swap1\n      pop\n        /* \"#utility.yul\":2396:2762   */\n      swap2\n      swap1\n      pop\n      jump\t// out\n        /* \"#utility.yul\":2768:3134   */\n    tag_140:\n        /* \"#utility.yul\":2910:2913   */\n      0x00\n        /* \"#utility.yul\":2931:2998   */\n      tag_142\n        /* \"#utility.yul\":2995:2997   */\n      0x0b\n        /* \"#utility.yul\":2990:2993   */\n      dup4\n        /* \"#utility.yul\":2931:2998   */\n      tag_122\n      jump\t// in\n    tag_142:\n        /* \"#utility.yul\":2924:2998   */\n      swap2\n      pop\n        /* \"#utility.yul\":3007:3100   */\n      tag_143\n        /* \"#utility.yul\":3096:3099   */\n      dup3\n        /* \"#utility.yul\":3007:3100   */\n      tag_144\n      jump\t// in\n    tag_143:\n        /* \"#utility.yul\":3125:3127   */\n      0x20\n        /* \"#utility.yul\":3120:3123   */\n      dup3\n        /* \"#utility.yul\":3116:3128   */\n      add\n        /* \"#utility.yul\":3109:3128   */\n      swap1\n      pop\n        /* \"#utility.yul\":2768:3134   */\n      swap2\n      swap1\n      pop\n      jump\t// out\n        /* \"#utility.yul\":3140:3506   */\n    tag_145:\n        /* \"#utility.yul\":3282:3285   */\n      0x00\n        /* \"#utility.yul\":3303:3370   */\n      tag_147\n        /* \"#utility.yul\":3367:3369   */\n      0x12\n        /* \"#utility.yul\":3362:3365   */\n      dup4\n        /* \"#utility.yul\":3303:3370   */\n      tag_122\n      jump\t// in\n    tag_147:\n        /* \"#utility.yul\":3296:3370   */\n      swap2\n      pop\n        /* \"#utility.yul\":3379:3472   */\n      tag_148\n        /* \"#utility.yul\":3468:3471   */\n      dup3\n        /* \"#utility.yul\":3379:3472   */\n      tag_149\n      jump\t// in\n    tag_148:\n        /* \"#utility.yul\":3497:3499   */\n      0x20\n        /* \"#utility.yul\":3492:3495   */\n      dup3\n        /* \"#utility.yul\":3488:3500   */\n      add\n        /* \"#utility.yul\":3481:3500   */\n      swap1\n      pop\n        /* \"#utility.yul\":3140:3506   */\n      swap2\n      swap1\n      pop\n      jump\t// out\n        /* \"#utility.yul\":3512:3630   */\n    tag_150:\n        /* \"#utility.yul\":3599:3623   */\n      tag_152\n        /* \"#utility.yul\":3617:3622   */\n      dup2\n        /* \"#utility.yul\":3599:3623   */\n      tag_153\n      jump\t// in\n    tag_152:\n        /* \"#utility.yul\":3594:3597   */\n      dup3\n        /* \"#utility.yul\":3587:3624   */\n      mstore\n        /* \"#utility.yul\":3512:3630   */\n      pop\n      pop\n      jump\t// out\n        /* \"#utility.yul\":3636:3858   */\n    tag_19:\n        /* \"#utility.yul\":3729:3733   */\n      0x00\n        /* \"#utility.yul\":3767:3769   */\n      0x20\n        /* \"#utility.yul\":3756:3765   */\n      dup3\n        /* \"#utility.yul\":3752:3770   */\n      add\n        /* \"#utility.yul\":3744:3770   */\n      swap1\n      pop\n        /* \"#utility.yul\":3780:3851   */\n      tag_155\n        /* \"#utility.yul\":3848:3849   */\n      0x00\n        /* \"#utility.yul\":3837:3846   */\n      dup4\n        /* \"#utility.yul\":3833:3850   */\n      add\n        /* \"#utility.yul\":3824:3830   */\n      dup5\n        /* \"#utility.yul\":3780:3851   */\n      tag_111\n      jump\t// in\n    tag_155:\n        /* \"#utility.yul\":3636:3858   */\n      swap3\n      swap2\n      pop\n      pop\n      jump\t// out\n        /* \"#utility.yul\":3864:4196   */\n    tag_73:\n        /* \"#utility.yul\":3985:3989   */\n      0x00\n        /* \"#utility.yul\":4023:4025   */\n      0x40\n        /* \"#utility.yul\":4012:4021   */\n      dup3\n        /* \"#utility.yul\":4008:4026   */\n      add\n        /* \"#utility.yul\":4000:4026   */\n      swap1\n      pop\n        /* \"#utility.yul\":4036:4107   */\n      tag_157\n        /* \"#utility.yul\":4104:4105   */\n      0x00\n        /* \"#utility.yul\":4093:4102   */\n      dup4\n        /* \"#utility.yul\":4089:4106   */\n      add\n        /* \"#utility.yul\":4080:4086   */\n      dup6\n        /* \"#utility.yul\":4036:4107   */\n      tag_111\n      jump\t// in\n    tag_157:\n        /* \"#utility.yul\":4117:4189   */\n      tag_158\n        /* \"#utility.yul\":4185:4187   */\n      0x20\n        /* \"#utility.yul\":4174:4183   */\n      dup4\n        /* \"#utility.yul\":4170:4188   */\n      add\n        /* \"#utility.yul\":4161:4167   */\n      dup5\n        /* \"#utility.yul\":4117:4189   */\n      tag_111\n      jump\t// in\n    tag_158:\n        /* \"#utility.yul\":3864:4196   */\n      swap4\n      swap3\n      pop\n      pop\n      pop\n      jump\t// out\n        /* \"#utility.yul\":4202:4644   */\n    tag_82:\n        /* \"#utility.yul\":4351:4355   */\n      0x00\n        /* \"#utility.yul\":4389:4391   */\n      0x60\n        /* \"#utility.yul\":4378:4387   */\n      dup3\n        /* \"#utility.yul\":4374:4392   */\n      add\n        /* \"#utility.yul\":4366:4392   */\n      swap1\n      pop\n        /* \"#utility.yul\":4402:4473   */\n      tag_160\n        /* \"#utility.yul\":4470:4471   */\n      0x00\n        /* \"#utility.yul\":4459:4468   */\n      dup4\n        /* \"#utility.yul\":4455:4472   */\n      add\n        /* \"#utility.yul\":4446:4452   */\n      dup7\n        /* \"#utility.yul\":4402:4473   */\n      tag_111\n      jump\t// in\n    tag_160:\n        /* \"#utility.yul\":4483:4555   */\n      tag_161\n        /* \"#utility.yul\":4551:4553   */\n      0x20\n        /* \"#utility.yul\":4540:4549   */\n      dup4\n        /* \"#utility.yul\":4536:4554   */\n      add\n        /* \"#utility.yul\":4527:4533   */\n      dup6\n        /* \"#utility.yul\":4483:4555   */\n      tag_111\n      jump\t// in\n    tag_161:\n        /* \"#utility.yul\":4565:4637   */\n      tag_162\n        /* \"#utility.yul\":4633:4635   */\n      0x40\n        /* \"#utility.yul\":4622:4631   */\n      dup4\n        /* \"#utility.yul\":4618:4636   */\n      add\n        /* \"#utility.yul\":4609:4615   */\n      dup5\n        /* \"#utility.yul\":4565:4637   */\n      tag_150\n      jump\t// in\n    tag_162:\n        /* \"#utility.yul\":4202:4644   */\n      swap5\n      swap4\n      pop\n      pop\n      pop\n      pop\n      jump\t// out\n        /* \"#utility.yul\":4650:4982   */\n    tag_63:\n        /* \"#utility.yul\":4771:4775   */\n      0x00\n        /* \"#utility.yul\":4809:4811   */\n      0x40\n        /* \"#utility.yul\":4798:4807   */\n      dup3\n        /* \"#utility.yul\":4794:4812   */\n      add\n        /* \"#utility.yul\":4786:4812   */\n      swap1\n      pop\n        /* \"#utility.yul\":4822:4893   */\n      tag_164\n        /* \"#utility.yul\":4890:4891   */\n      0x00\n        /* \"#utility.yul\":4879:4888   */\n      dup4\n        /* \"#utility.yul\":4875:4892   */\n      add\n        /* \"#utility.yul\":4866:4872   */\n      dup6\n        /* \"#utility.yul\":4822:4893   */\n      tag_111\n      jump\t// in\n    tag_164:\n        /* \"#utility.yul\":4903:4975   */\n      tag_165\n        /* \"#utility.yul\":4971:4973   */\n      0x20\n        /* \"#utility.yul\":4960:4969   */\n      dup4\n        /* \"#utility.yul\":4956:4974   */\n      add\n        /* \"#utility.yul\":4947:4953   */\n      dup5\n        /* \"#utility.yul\":4903:4975   */\n      tag_150\n      jump\t// in\n    tag_165:\n        /* \"#utility.yul\":4650:4982   */\n      swap4\n      swap3\n      pop\n      pop\n      pop\n      jump\t// out\n        /* \"#utility.yul\":4988:5236   */\n    tag_27:\n        /* \"#utility.yul\":5094:5098   */\n      0x00\n        /* \"#utility.yul\":5132:5134   */\n      0x20\n        /* \"#utility.yul\":5121:5130   */\n      dup3\n        /* \"#utility.yul\":5117:5135   */\n      add\n        /* \"#utility.yul\":5109:5135   */\n      swap1\n      pop\n        /* \"#utility.yul\":5145:5229   */\n      tag_167\n        /* \"#utility.yul\":5226:5227   */\n      0x00\n        /* \"#utility.yul\":5215:5224   */\n      dup4\n        /* \"#utility.yul\":5211:5228   */\n      add\n        /* \"#utility.yul\":5202:5208   */\n      dup5\n        /* \"#utility.yul\":5145:5229   */\n      tag_115\n      jump\t// in\n    tag_167:\n        /* \"#utility.yul\":4988:5236   */\n      swap3\n      swap2\n      pop\n      pop\n      jump\t// out\n        /* \"#utility.yul\":5242:5661   */\n    tag_49:\n        /* \"#utility.yul\":5408:5412   */\n      0x00\n        /* \"#utility.yul\":5446:5448   */\n      0x20\n        /* \"#utility.yul\":5435:5444   */\n      dup3\n        /* \"#utility.yul\":5431:5449   */\n      add\n        /* \"#utility.yul\":5423:5449   */\n      swap1\n      pop\n        /* \"#utility.yul\":5495:5504   */\n      dup2\n        /* \"#utility.yul\":5489:5493   */\n      dup2\n        /* \"#utility.yul\":5485:5505   */\n      sub\n        /* \"#utility.yul\":5481:5482   */\n      0x00\n        /* \"#utility.yul\":5470:5479   */\n      dup4\n        /* \"#utility.yul\":5466:5483   */\n      add\n        /* \"#utility.yul\":5459:5506   */\n      mstore\n        /* \"#utility.yul\":5523:5654   */\n      tag_169\n        /* \"#utility.yul\":5649:5653   */\n      dup2\n        /* \"#utility.yul\":5523:5654   */\n      tag_119\n      jump\t// in\n    tag_169:\n        /* \"#utility.yul\":5515:5654   */\n      swap1\n      pop\n        /* \"#utility.yul\":5242:5661   */\n      swap2\n      swap1\n      pop\n      jump\t// out\n        /* \"#utility.yul\":5667:6086   */\n    tag_80:\n        /* \"#utility.yul\":5833:5837   */\n      0x00\n        /* \"#utility.yul\":5871:5873   */\n      0x20\n        /* \"#utility.yul\":5860:5869   */\n      dup3\n        /* \"#utility.yul\":5856:5874   */\n      add\n        /* \"#utility.yul\":5848:5874   */\n      swap1\n      pop\n        /* \"#utility.yul\":5920:5929   */\n      dup2\n        /* \"#utility.yul\":5914:5918   */\n      dup2\n        /* \"#utility.yul\":5910:5930   */\n      sub\n        /* \"#utility.yul\":5906:5907   */\n      0x00\n        /* \"#utility.yul\":5895:5904   */\n      dup4\n        /* \"#utility.yul\":5891:5908   */\n      add\n        /* \"#utility.yul\":5884:5931   */\n      mstore\n        /* \"#utility.yul\":5948:6079   */\n      tag_171\n        /* \"#utility.yul\":6074:6078   */\n      dup2\n        /* \"#utility.yul\":5948:6079   */\n      tag_125\n      jump\t// in\n    tag_171:\n        /* \"#utility.yul\":5940:6079   */\n      swap1\n      pop\n        /* \"#utility.yul\":5667:6086   */\n      swap2\n      swap1\n      pop\n      jump\t// out\n        /* \"#utility.yul\":6092:6511   */\n    tag_71:\n        /* \"#utility.yul\":6258:6262   */\n      0x00\n        /* \"#utility.yul\":6296:6298   */\n      0x20\n        /* \"#utility.yul\":6285:6294   */\n      dup3\n        /* \"#utility.yul\":6281:6299   */\n      add\n        /* \"#utility.yul\":6273:6299   */\n      swap1\n      pop\n        /* \"#utility.yul\":6345:6354   */\n      dup2\n        /* \"#utility.yul\":6339:6343   */\n      dup2\n        /* \"#utility.yul\":6335:6355   */\n      sub\n        /* \"#utility.yul\":6331:6332   */\n      0x00\n        /* \"#utility.yul\":6320:6329   */\n      dup4\n        /* \"#utility.yul\":6316:6333   */\n      add\n        /* \"#utility.yul\":6309:6356   */\n      mstore\n        /* \"#utility.yul\":6373:6504   */\n      tag_173\n        /* \"#utility.yul\":6499:6503   */\n      dup2\n        /* \"#utility.yul\":6373:6504   */\n      tag_130\n      jump\t// in\n    tag_173:\n        /* \"#utility.yul\":6365:6504   */\n      swap1\n      pop\n        /* \"#utility.yul\":6092:6511   */\n      swap2\n      swap1\n      pop\n      jump\t// out\n        /* \"#utility.yul\":6517:6936   */\n    tag_41:\n        /* \"#utility.yul\":6683:6687   */\n      0x00\n        /* \"#utility.yul\":6721:6723   */\n      0x20\n        /* \"#utility.yul\":6710:6719   */\n      dup3\n        /* \"#utility.yul\":6706:6724   */\n      add\n        /* \"#utility.yul\":6698:6724   */\n      swap1\n      pop\n        /* \"#utility.yul\":6770:6779   */\n      dup2\n        /* \"#utility.yul\":6764:6768   */\n      dup2\n        /* \"#utility.yul\":6760:6780   */\n      sub\n        /* \"#utility.yul\":6756:6757   */\n      0x00\n        /* \"#utility.yul\":6745:6754   */\n      dup4\n        /* \"#utility.yul\":6741:6758   */\n      add\n        /* \"#utility.yul\":6734:6781   */\n      mstore\n        /* \"#utility.yul\":6798:6929   */\n      tag_175\n        /* \"#utility.yul\":6924:6928   */\n      dup2\n        /* \"#utility.yul\":6798:6929   */\n      tag_135\n      jump\t// in\n    tag_175:\n        /* \"#utility.yul\":6790:6929   */\n      swap1\n      pop\n        /* \"#utility.yul\":6517:6936   */\n      swap2\n      swap1\n      pop\n      jump\t// out\n        /* \"#utility.yul\":6942:7361   */\n    tag_36:\n        /* \"#utility.yul\":7108:7112   */\n      0x00\n        /* \"#utility.yul\":7146:7148   */\n      0x20\n        /* \"#utility.yul\":7135:7144   */\n      dup3\n        /* \"#utility.yul\":7131:7149   */\n      add\n        /* \"#utility.yul\":7123:7149   */\n      swap1\n      pop\n        /* \"#utility.yul\":7195:7204   */\n      dup2\n        /* \"#utility.yul\":7189:7193   */\n      dup2\n        /* \"#utility.yul\":7185:7205   */\n      sub\n        /* \"#utility.yul\":7181:7182   */\n      0x00\n        /* \"#utility.yul\":7170:7179   */\n      dup4\n        /* \"#utility.yul\":7166:7183   */\n      add\n        /* \"#utility.yul\":7159:7206   */\n      mstore\n        /* \"#utility.yul\":7223:7354   */\n      tag_177\n        /* \"#utility.yul\":7349:7353   */\n      dup2\n        /* \"#utility.yul\":7223:7354   */\n      tag_140\n      jump\t// in\n    tag_177:\n        /* \"#utility.yul\":7215:7354   */\n      swap1\n      pop\n        /* \"#utility.yul\":6942:7361   */\n      swap2\n      swap1\n      pop\n      jump\t// out\n        /* \"#utility.yul\":7367:7786   */\n    tag_61:\n        /* \"#utility.yul\":7533:7537   */\n      0x00\n        /* \"#utility.yul\":7571:7573   */\n      0x20\n        /* \"#utility.yul\":7560:7569   */\n      dup3\n        /* \"#utility.yul\":7556:7574   */\n      add\n        /* \"#utility.yul\":7548:7574   */\n      swap1\n      pop\n        /* \"#utility.yul\":7620:7629   */\n      dup2\n        /* \"#utility.yul\":7614:7618   */\n      dup2\n        /* \"#utility.yul\":7610:7630   */\n      sub\n        /* \"#utility.yul\":7606:7607   */\n      0x00\n        /* \"#utility.yul\":7595:7604   */\n      dup4\n        /* \"#utility.yul\":7591:7608   */\n      add\n        /* \"#utility.yul\":7584:7631   */\n      mstore\n        /* \"#utility.yul\":7648:7779   */\n      tag_179\n        /* \"#utility.yul\":7774:7778   */\n      dup2\n        /* \"#utility.yul\":7648:7779   */\n      tag_145\n      jump\t// in\n    tag_179:\n        /* \"#utility.yul\":7640:7779   */\n      swap1\n      pop\n        /* \"#utility.yul\":7367:7786   */\n      swap2\n      swap1\n      pop\n      jump\t// out\n        /* \"#utility.yul\":7792:8014   */\n    tag_32:\n        /* \"#utility.yul\":7885:7889   */\n      0x00\n        /* \"#utility.yul\":7923:7925   */\n      0x20\n        /* \"#utility.yul\":7912:7921   */\n      dup3\n        /* \"#utility.yul\":7908:7926   */\n      add\n        /* \"#utility.yul\":7900:7926   */\n      swap1\n      pop\n        /* \"#utility.yul\":7936:8007   */\n      tag_181\n        /* \"#utility.yul\":8004:8005   */\n      0x00\n        /* \"#utility.yul\":7993:8002   */\n      dup4\n        /* \"#utility.yul\":7989:8006   */\n      add\n        /* \"#utility.yul\":7980:7986   */\n      dup5\n        /* \"#utility.yul\":7936:8007   */\n      tag_150\n      jump\t// in\n    tag_181:\n        /* \"#utility.yul\":7792:8014   */\n      swap3\n      swap2\n      pop\n      pop\n      jump\t// out\n        /* \"#utility.yul\":8101:8270   */\n    tag_122:\n        /* \"#utility.yul\":8185:8196   */\n      0x00\n        /* \"#utility.yul\":8219:8225   */\n      dup3\n        /* \"#utility.yul\":8214:8217   */\n      dup3\n        /* \"#utility.yul\":8207:8226   */\n      mstore\n        /* \"#utility.yul\":8259:8263   */\n      0x20\n        /* \"#utility.yul\":8254:8257   */\n      dup3\n        /* \"#utility.yul\":8250:8264   */\n      add\n        /* \"#utility.yul\":8235:8264   */\n      swap1\n      pop\n        /* \"#utility.yul\":8101:8270   */\n      swap3\n      swap2\n      pop\n      pop\n      jump\t// out\n        /* \"#utility.yul\":8276:8461   */\n    tag_58:\n        /* \"#utility.yul\":8316:8317   */\n      0x00\n        /* \"#utility.yul\":8333:8353   */\n      tag_186\n        /* \"#utility.yul\":8351:8352   */\n      dup3\n        /* \"#utility.yul\":8333:8353   */\n      tag_153\n      jump\t// in\n    tag_186:\n        /* \"#utility.yul\":8328:8353   */\n      swap2\n      pop\n        /* \"#utility.yul\":8367:8387   */\n      tag_187\n        /* \"#utility.yul\":8385:8386   */\n      dup4\n        /* \"#utility.yul\":8367:8387   */\n      tag_153\n      jump\t// in\n    tag_187:\n        /* \"#utility.yul\":8362:8387   */\n      swap3\n      pop\n        /* \"#utility.yul\":8406:8407   */\n      dup3\n        /* \"#utility.yul\":8396:8431   */\n      tag_188\n      jumpi\n        /* \"#utility.yul\":8411:8429   */\n      tag_189\n      tag_190\n      jump\t// in\n    tag_189:\n        /* \"#utility.yul\":8396:8431   */\n    tag_188:\n        /* \"#utility.yul\":8453:8454   */\n      dup3\n        /* \"#utility.yul\":8450:8451   */\n      dup3\n        /* \"#utility.yul\":8446:8455   */\n      div\n        /* \"#utility.yul\":8441:8455   */\n      swap1\n      pop\n        /* \"#utility.yul\":8276:8461   */\n      swap3\n      swap2\n      pop\n      pop\n      jump\t// out\n        /* \"#utility.yul\":8467:8815   */\n    tag_88:\n        /* \"#utility.yul\":8507:8514   */\n      0x00\n        /* \"#utility.yul\":8530:8550   */\n      tag_192\n        /* \"#utility.yul\":8548:8549   */\n      dup3\n        /* \"#utility.yul\":8530:8550   */\n      tag_153\n      jump\t// in\n    tag_192:\n        /* \"#utility.yul\":8525:8550   */\n      swap2\n      pop\n        /* \"#utility.yul\":8564:8584   */\n      tag_193\n        /* \"#utility.yul\":8582:8583   */\n      dup4\n        /* \"#utility.yul\":8564:8584   */\n      tag_153\n      jump\t// in\n    tag_193:\n        /* \"#utility.yul\":8559:8584   */\n      swap3\n      pop\n        /* \"#utility.yul\":8752:8753   */\n      dup2\n        /* \"#utility.yul\":8684:8750   */\n      0xffffffffffffffffffffffffffffffffffffffffffffffffffffffffffffffff\n        /* \"#utility.yul\":8680:8754   */\n      div\n        /* \"#utility.yul\":8677:8678   */\n      dup4\n        /* \"#utility.yul\":8674:8755   */\n      gt\n        /* \"#utility.yul\":8669:8670   */\n      dup3\n        /* \"#utility.yul\":8662:8671   */\n      iszero\n        /* \"#utility.yul\":8655:8672   */\n      iszero\n        /* \"#utility.yul\":8651:8756   */\n      and\n        /* \"#utility.yul\":8648:8779   */\n      iszero\n      tag_194\n      jumpi\n        /* \"#utility.yul\":8759:8777   */\n      tag_195\n      tag_196\n      jump\t// in\n    tag_195:\n        /* \"#utility.yul\":8648:8779   */\n    tag_194:\n        /* \"#utility.yul\":8807:8808   */\n      dup3\n        /* \"#utility.yul\":8804:8805   */\n      dup3\n        /* \"#utility.yul\":8800:8809   */\n      mul\n        /* \"#utility.yul\":8789:8809   */\n      swap1\n      pop\n        /* \"#utility.yul\":8467:8815   */\n      swap3\n      swap2\n      pop\n      pop\n      jump\t// out\n        /* \"#utility.yul\":8821:8917   */\n    tag_114:\n        /* \"#utility.yul\":8858:8865   */\n      0x00\n        /* \"#utility.yul\":8887:8911   */\n      tag_198\n        /* \"#utility.yul\":8905:8910   */\n      dup3\n        /* \"#utility.yul\":8887:8911   */\n      tag_199\n      jump\t// in\n    tag_198:\n        /* \"#utility.yul\":8876:8911   */\n      swap1\n      pop\n        /* \"#utility.yul\":8821:8917   */\n      swap2\n      swap1\n      pop\n      jump\t// out\n        /* \"#utility.yul\":8923:9049   */\n    tag_199:\n        /* \"#utility.yul\":8960:8967   */\n      0x00\n        /* \"#utility.yul\":9000:9042   */\n      0xffffffffffffffffffffffffffffffffffffffff\n        /* \"#utility.yul\":8993:8998   */\n      dup3\n        /* \"#utility.yul\":8989:9043   */\n      and\n        /* \"#utility.yul\":8978:9043   */\n      swap1\n      pop\n        /* \"#utility.yul\":8923:9049   */\n      swap2\n      swap1\n      pop\n      jump\t// out\n        /* \"#utility.yul\":9055:9132   */\n    tag_153:\n        /* \"#utility.yul\":9092:9099   */\n      0x00\n        /* \"#utility.yul\":9121:9126   */\n      dup2\n        /* \"#utility.yul\":9110:9126   */\n      swap1\n      pop\n        /* \"#utility.yul\":9055:9132   */\n      swap2\n      swap1\n      pop\n      jump\t// out\n        /* \"#utility.yul\":9138:9277   */\n    tag_118:\n        /* \"#utility.yul\":9201:9210   */\n      0x00\n        /* \"#utility.yul\":9234:9271   */\n      tag_203\n        /* \"#utility.yul\":9265:9270   */\n      dup3\n        /* \"#utility.yul\":9234:9271   */\n      tag_204\n      jump\t// in\n    tag_203:\n        /* \"#utility.yul\":9221:9271   */\n      swap1\n      pop\n        /* \"#utility.yul\":9138:9277   */\n      swap2\n      swap1\n      pop\n      jump\t// out\n        /* \"#utility.yul\":9283:9409   */\n    tag_204:\n        /* \"#utility.yul\":9333:9342   */\n      0x00\n        /* \"#utility.yul\":9366:9403   */\n      tag_206\n        /* \"#utility.yul\":9397:9402   */\n      dup3\n        /* \"#utility.yul\":9366:9403   */\n      tag_207\n      jump\t// in\n    tag_206:\n        /* \"#utility.yul\":9353:9403   */\n      swap1\n      pop\n        /* \"#utility.yul\":9283:9409   */\n      swap2\n      swap1\n      pop\n      jump\t// out\n        /* \"#utility.yul\":9415:9528   */\n    tag_207:\n        /* \"#utility.yul\":9465:9474   */\n      0x00\n        /* \"#utility.yul\":9498:9522   */\n      tag_209\n        /* \"#utility.yul\":9516:9521   */\n      dup3\n        /* \"#utility.yul\":9498:9522   */\n      tag_199\n      jump\t// in\n    tag_209:\n        /* \"#utility.yul\":9485:9522   */\n      swap1\n      pop\n        /* \"#utility.yul\":9415:9528   */\n      swap2\n      swap1\n      pop\n      jump\t// out\n        /* \"#utility.yul\":9534:9714   */\n    tag_196:\n        /* \"#utility.yul\":9582:9659   */\n      0x4e487b7100000000000000000000000000000000000000000000000000000000\n        /* \"#utility.yul\":9579:9580   */\n      0x00\n        /* \"#utility.yul\":9572:9660   */\n      mstore\n        /* \"#utility.yul\":9679:9683   */\n      0x11\n        /* \"#utility.yul\":9676:9677   */\n      0x04\n        /* \"#utility.yul\":9669:9684   */\n      mstore\n        /* \"#utility.yul\":9703:9707   */\n      0x24\n        /* \"#utility.yul\":9700:9701   */\n      0x00\n        /* \"#utility.yul\":9693:9708   */\n      revert\n        /* \"#utility.yul\":9720:9900   */\n    tag_190:\n        /* \"#utility.yul\":9768:9845   */\n      0x4e487b7100000000000000000000000000000000000000000000000000000000\n        /* \"#utility.yul\":9765:9766   */\n      0x00\n        /* \"#utility.yul\":9758:9846   */\n      mstore\n        /* \"#utility.yul\":9865:9869   */\n      0x12\n        /* \"#utility.yul\":9862:9863   */\n      0x04\n        /* \"#utility.yul\":9855:9870   */\n      mstore\n        /* \"#utility.yul\":9889:9893   */\n      0x24\n        /* \"#utility.yul\":9886:9887   */\n      0x00\n        /* \"#utility.yul\":9879:9894   */\n      revert\n        /* \"#utility.yul\":10029:10146   */\n    tag_105:\n        /* \"#utility.yul\":10138:10139   */\n      0x00\n        /* \"#utility.yul\":10135:10136   */\n      dup1\n        /* \"#utility.yul\":10128:10140   */\n      revert\n        /* \"#utility.yul\":10152:10315   */\n    tag_124:\n        /* \"#utility.yul\":10292:10307   */\n      0x496e636f72726563742073756d00000000000000000000000000000000000000\n        /* \"#utility.yul\":10288:10289   */\n      0x00\n        /* \"#utility.yul\":10280:10286   */\n      dup3\n        /* \"#utility.yul\":10276:10290   */\n      add\n        /* \"#utility.yul\":10269:10308   */\n      mstore\n        /* \"#utility.yul\":10152:10315   */\n      pop\n      jump\t// out\n        /* \"#utility.yul\":10321:10486   */\n    tag_129:\n        /* \"#utility.yul\":10461:10478   */\n      0x57726f6e6720616c6c6f77616e63650000000000000000000000000000000000\n        /* \"#utility.yul\":10457:10458   */\n      0x00\n        /* \"#utility.yul\":10449:10455   */\n      dup3\n        /* \"#utility.yul\":10445:10459   */\n      add\n        /* \"#utility.yul\":10438:10479   */\n      mstore\n        /* \"#utility.yul\":10321:10486   */\n      pop\n      jump\t// out\n        /* \"#utility.yul\":10492:10671   */\n    tag_134:\n        /* \"#utility.yul\":10632:10663   */\n      0x546f6b656e73206d7573742062652067726561746572207468616e2030000000\n        /* \"#utility.yul\":10628:10629   */\n      0x00\n        /* \"#utility.yul\":10620:10626   */\n      dup3\n        /* \"#utility.yul\":10616:10630   */\n      add\n        /* \"#utility.yul\":10609:10664   */\n      mstore\n        /* \"#utility.yul\":10492:10671   */\n      pop\n      jump\t// out\n        /* \"#utility.yul\":10677:10844   */\n    tag_139:\n        /* \"#utility.yul\":10817:10836   */\n      0x4e6f7420656e6f7567682066756e647321000000000000000000000000000000\n        /* \"#utility.yul\":10813:10814   */\n      0x00\n        /* \"#utility.yul\":10805:10811   */\n      dup3\n        /* \"#utility.yul\":10801:10815   */\n      add\n        /* \"#utility.yul\":10794:10837   */\n      mstore\n        /* \"#utility.yul\":10677:10844   */\n      pop\n      jump\t// out\n        /* \"#utility.yul\":10850:11011   */\n    tag_144:\n        /* \"#utility.yul\":10990:11003   */\n      0x4f6e6c79206f776e657221000000000000000000000000000000000000000000\n        /* \"#utility.yul\":10986:10987   */\n      0x00\n        /* \"#utility.yul\":10978:10984   */\n      dup3\n        /* \"#utility.yul\":10974:10988   */\n      add\n        /* \"#utility.yul\":10967:11004   */\n      mstore\n        /* \"#utility.yul\":10850:11011   */\n      pop\n      jump\t// out\n        /* \"#utility.yul\":11017:11185   */\n    tag_149:\n        /* \"#utility.yul\":11157:11177   */\n      0x4e6f7420656e6f75746820746f6b656e73210000000000000000000000000000\n        /* \"#utility.yul\":11153:11154   */\n      0x00\n        /* \"#utility.yul\":11145:11151   */\n      dup3\n        /* \"#utility.yul\":11141:11155   */\n      add\n        /* \"#utility.yul\":11134:11178   */\n      mstore\n        /* \"#utility.yul\":11017:11185   */\n      pop\n      jump\t// out\n        /* \"#utility.yul\":11191:11313   */\n    tag_98:\n        /* \"#utility.yul\":11264:11288   */\n      tag_222\n        /* \"#utility.yul\":11282:11287   */\n      dup2\n        /* \"#utility.yul\":11264:11288   */\n      tag_153\n      jump\t// in\n    tag_222:\n        /* \"#utility.yul\":11257:11262   */\n      dup2\n        /* \"#utility.yul\":11254:11289   */\n      eq\n        /* \"#utility.yul\":11244:11307   */\n      tag_223\n      jumpi\n        /* \"#utility.yul\":11303:11304   */\n      0x00\n        /* \"#utility.yul\":11300:11301   */\n      dup1\n        /* \"#utility.yul\":11293:11305   */\n      revert\n        /* \"#utility.yul\":11244:11307   */\n    tag_223:\n        /* \"#utility.yul\":11191:11313   */\n      pop\n      jump\t// out\n\n    auxdata: 0xa26469706673582212209700169c2236580897cd4939c68a8d6ec3b99a5458d60d24b618c4fc1517b61e64736f6c63430008070033\n}\n",
				"bytecode": {
					"linkReferences": {},
					"object": "608060405230600260006101000a81548173ffffffffffffffffffffffffffffffffffffffff021916908373ffffffffffffffffffffffffffffffffffffffff1602179055503480156200005257600080fd5b5060405162000f8138038062000f81833981810160405281019062000078919062000117565b806000806101000a81548173ffffffffffffffffffffffffffffffffffffffff021916908373ffffffffffffffffffffffffffffffffffffffff16021790555033600160006101000a81548173ffffffffffffffffffffffffffffffffffffffff021916908373ffffffffffffffffffffffffffffffffffffffff16021790555050620001b0565b600081519050620001118162000196565b92915050565b60006020828403121562000130576200012f62000191565b5b6000620001408482850162000100565b91505092915050565b6000620001568262000171565b9050919050565b60006200016a8262000149565b9050919050565b600073ffffffffffffffffffffffffffffffffffffffff82169050919050565b600080fd5b620001a1816200015d565b8114620001ad57600080fd5b50565b610dc180620001c06000396000f3fe6080604052600436106100555760003560e01c80632e1a7d4d1461005a578063a6f2ae3a14610083578063d9ef58a51461008d578063e4849b32146100b8578063fc0c546a146100d4578063fca02c21146100ff575b600080fd5b34801561006657600080fd5b50610081600480360381019061007c919061081a565b61012a565b005b61008b61024e565b005b34801561009957600080fd5b506100a26104a1565b6040516100af9190610973565b60405180910390f35b6100d260048036038101906100cd919061081a565b6104c7565b005b3480156100e057600080fd5b506100e961077b565b6040516100f69190610a17565b60405180910390f35b34801561010b57600080fd5b5061011461079f565b6040516101219190610af2565b60405180910390f35b600160009054906101000a900473ffffffffffffffffffffffffffffffffffffffff1673ffffffffffffffffffffffffffffffffffffffff163373ffffffffffffffffffffffffffffffffffffffff16146101ba576040517f08c379a00000000000000000000000000000000000000000000000000000000081526004016101b190610ab2565b60405180910390fd5b6101c261079f565b811115610204576040517f08c379a00000000000000000000000000000000000000000000000000000000081526004016101fb90610a92565b60405180910390fd5b3373ffffffffffffffffffffffffffffffffffffffff166108fc829081150290604051600060405180830381858888f1935050505015801561024a573d6000803e3d6000fd5b5050565b6102566107e0565b341015610298576040517f08c379a000000000000000000000000000000000000000000000000000000000815260040161028f90610a32565b60405180910390fd5b60008060009054906101000a900473ffffffffffffffffffffffffffffffffffffffff1673ffffffffffffffffffffffffffffffffffffffff166370a08231600260009054906101000a900473ffffffffffffffffffffffffffffffffffffffff166040518263ffffffff1660e01b81526004016103169190610973565b60206040518083038186803b15801561032e57600080fd5b505afa158015610342573d6000803e3d6000fd5b505050506040513d601f19601f820116820180604052508101906103669190610847565b905060006103726107e0565b3461037d9190610b1e565b9050818111156103c2576040517f08c379a00000000000000000000000000000000000000000000000000000000081526004016103b990610ad2565b60405180910390fd5b60008054906101000a900473ffffffffffffffffffffffffffffffffffffffff1673ffffffffffffffffffffffffffffffffffffffff1663a9059cbb33836040518363ffffffff1660e01b815260040161041d9291906109ee565b600060405180830381600087803b15801561043757600080fd5b505af115801561044b573d6000803e3d6000fd5b505050503373ffffffffffffffffffffffffffffffffffffffff167fc55650ccda1011e1cdc769b1fbf546ebb8c97800b6072b49e06cd560305b1d67826040516104959190610af2565b60405180910390a25050565b600260009054906101000a900473ffffffffffffffffffffffffffffffffffffffff1681565b6000811161050a576040517f08c379a000000000000000000000000000000000000000000000000000000000815260040161050190610a72565b60405180910390fd5b60008060009054906101000a900473ffffffffffffffffffffffffffffffffffffffff1673ffffffffffffffffffffffffffffffffffffffff1663dd62ed3e33600260009054906101000a900473ffffffffffffffffffffffffffffffffffffffff166040518363ffffffff1660e01b815260040161058a92919061098e565b60206040518083038186803b1580156105a257600080fd5b505afa1580156105b6573d6000803e3d6000fd5b505050506040513d601f19601f820116820180604052508101906105da9190610847565b90508181101561061f576040517f08c379a000000000000000000000000000000000000000000000000000000000815260040161061690610a52565b60405180910390fd5b60008054906101000a900473ffffffffffffffffffffffffffffffffffffffff1673ffffffffffffffffffffffffffffffffffffffff166323b872dd33600260009054906101000a900473ffffffffffffffffffffffffffffffffffffffff16856040518463ffffffff1660e01b815260040161069e939291906109b7565b600060405180830381600087803b1580156106b857600080fd5b505af11580156106cc573d6000803e3d6000fd5b505050503373ffffffffffffffffffffffffffffffffffffffff166108fc6106f26107e0565b846106fd9190610b4f565b9081150290604051600060405180830381858888f19350505050158015610728573d6000803e3d6000fd5b503373ffffffffffffffffffffffffffffffffffffffff167f5e5e995ce3133561afceaa51a9a154d5db228cd7525d34df5185582c18d3df098360405161076f9190610af2565b60405180910390a25050565b60008054906101000a900473ffffffffffffffffffffffffffffffffffffffff1681565b6000600260009054906101000a900473ffffffffffffffffffffffffffffffffffffffff1673ffffffffffffffffffffffffffffffffffffffff1631905090565b6000670de0b6b3a7640000905090565b6000813590506107ff81610d74565b92915050565b60008151905061081481610d74565b92915050565b6000602082840312156108305761082f610c79565b5b600061083e848285016107f0565b91505092915050565b60006020828403121561085d5761085c610c79565b5b600061086b84828501610805565b91505092915050565b61087d81610ba9565b82525050565b61088c81610be5565b82525050565b600061089f600d83610b0d565b91506108aa82610c7e565b602082019050919050565b60006108c2600f83610b0d565b91506108cd82610ca7565b602082019050919050565b60006108e5601d83610b0d565b91506108f082610cd0565b602082019050919050565b6000610908601183610b0d565b915061091382610cf9565b602082019050919050565b600061092b600b83610b0d565b915061093682610d22565b602082019050919050565b600061094e601283610b0d565b915061095982610d4b565b602082019050919050565b61096d81610bdb565b82525050565b60006020820190506109886000830184610874565b92915050565b60006040820190506109a36000830185610874565b6109b06020830184610874565b9392505050565b60006060820190506109cc6000830186610874565b6109d96020830185610874565b6109e66040830184610964565b949350505050565b6000604082019050610a036000830185610874565b610a106020830184610964565b9392505050565b6000602082019050610a2c6000830184610883565b92915050565b60006020820190508181036000830152610a4b81610892565b9050919050565b60006020820190508181036000830152610a6b816108b5565b9050919050565b60006020820190508181036000830152610a8b816108d8565b9050919050565b60006020820190508181036000830152610aab816108fb565b9050919050565b60006020820190508181036000830152610acb8161091e565b9050919050565b60006020820190508181036000830152610aeb81610941565b9050919050565b6000602082019050610b076000830184610964565b92915050565b600082825260208201905092915050565b6000610b2982610bdb565b9150610b3483610bdb565b925082610b4457610b43610c4a565b5b828204905092915050565b6000610b5a82610bdb565b9150610b6583610bdb565b9250817fffffffffffffffffffffffffffffffffffffffffffffffffffffffffffffffff0483118215151615610b9e57610b9d610c1b565b5b828202905092915050565b6000610bb482610bbb565b9050919050565b600073ffffffffffffffffffffffffffffffffffffffff82169050919050565b6000819050919050565b6000610bf082610bf7565b9050919050565b6000610c0282610c09565b9050919050565b6000610c1482610bbb565b9050919050565b7f4e487b7100000000000000000000000000000000000000000000000000000000600052601160045260246000fd5b7f4e487b7100000000000000000000000000000000000000000000000000000000600052601260045260246000fd5b600080fd5b7f496e636f72726563742073756d00000000000000000000000000000000000000600082015250565b7f57726f6e6720616c6c6f77616e63650000000000000000000000000000000000600082015250565b7f546f6b656e73206d7573742062652067726561746572207468616e2030000000600082015250565b7f4e6f7420656e6f7567682066756e647321000000000000000000000000000000600082015250565b7f4f6e6c79206f776e657221000000000000000000000000000000000000000000600082015250565b7f4e6f7420656e6f75746820746f6b656e73210000000000000000000000000000600082015250565b610d7d81610bdb565b8114610d8857600080fd5b5056fea26469706673582212209700169c2236580897cd4939c68a8d6ec3b99a5458d60d24b618c4fc1517b61e64736f6c63430008070033",
					"opcodes": "PUSH1 0x80 PUSH1 0x40 MSTORE ADDRESS PUSH1 0x2 PUSH1 0x0 PUSH2 0x100 EXP DUP2 SLOAD DUP2 PUSH20 0xFFFFFFFFFFFFFFFFFFFFFFFFFFFFFFFFFFFFFFFF MUL NOT AND SWAP1 DUP4 PUSH20 0xFFFFFFFFFFFFFFFFFFFFFFFFFFFFFFFFFFFFFFFF AND MUL OR SWAP1 SSTORE POP CALLVALUE DUP1 ISZERO PUSH3 0x52 JUMPI PUSH1 0x0 DUP1 REVERT JUMPDEST POP PUSH1 0x40 MLOAD PUSH3 0xF81 CODESIZE SUB DUP1 PUSH3 0xF81 DUP4 CODECOPY DUP2 DUP2 ADD PUSH1 0x40 MSTORE DUP2 ADD SWAP1 PUSH3 0x78 SWAP2 SWAP1 PUSH3 0x117 JUMP JUMPDEST DUP1 PUSH1 0x0 DUP1 PUSH2 0x100 EXP DUP2 SLOAD DUP2 PUSH20 0xFFFFFFFFFFFFFFFFFFFFFFFFFFFFFFFFFFFFFFFF MUL NOT AND SWAP1 DUP4 PUSH20 0xFFFFFFFFFFFFFFFFFFFFFFFFFFFFFFFFFFFFFFFF AND MUL OR SWAP1 SSTORE POP CALLER PUSH1 0x1 PUSH1 0x0 PUSH2 0x100 EXP DUP2 SLOAD DUP2 PUSH20 0xFFFFFFFFFFFFFFFFFFFFFFFFFFFFFFFFFFFFFFFF MUL NOT AND SWAP1 DUP4 PUSH20 0xFFFFFFFFFFFFFFFFFFFFFFFFFFFFFFFFFFFFFFFF AND MUL OR SWAP1 SSTORE POP POP PUSH3 0x1B0 JUMP JUMPDEST PUSH1 0x0 DUP2 MLOAD SWAP1 POP PUSH3 0x111 DUP2 PUSH3 0x196 JUMP JUMPDEST SWAP3 SWAP2 POP POP JUMP JUMPDEST PUSH1 0x0 PUSH1 0x20 DUP3 DUP5 SUB SLT ISZERO PUSH3 0x130 JUMPI PUSH3 0x12F PUSH3 0x191 JUMP JUMPDEST JUMPDEST PUSH1 0x0 PUSH3 0x140 DUP5 DUP3 DUP6 ADD PUSH3 0x100 JUMP JUMPDEST SWAP2 POP POP SWAP3 SWAP2 POP POP JUMP JUMPDEST PUSH1 0x0 PUSH3 0x156 DUP3 PUSH3 0x171 JUMP JUMPDEST SWAP1 POP SWAP2 SWAP1 POP JUMP JUMPDEST PUSH1 0x0 PUSH3 0x16A DUP3 PUSH3 0x149 JUMP JUMPDEST SWAP1 POP SWAP2 SWAP1 POP JUMP JUMPDEST PUSH1 0x0 PUSH20 0xFFFFFFFFFFFFFFFFFFFFFFFFFFFFFFFFFFFFFFFF DUP3 AND SWAP1 POP SWAP2 SWAP1 POP JUMP JUMPDEST PUSH1 0x0 DUP1 REVERT JUMPDEST PUSH3 0x1A1 DUP2 PUSH3 0x15D JUMP JUMPDEST DUP2 EQ PUSH3 0x1AD JUMPI PUSH1 0x0 DUP1 REVERT JUMPDEST POP JUMP JUMPDEST PUSH2 0xDC1 DUP1 PUSH3 0x1C0 PUSH1 0x0 CODECOPY PUSH1 0x0 RETURN INVALID PUSH1 0x80 PUSH1 0x40 MSTORE PUSH1 0x4 CALLDATASIZE LT PUSH2 0x55 JUMPI PUSH1 0x0 CALLDATALOAD PUSH1 0xE0 SHR DUP1 PUSH4 0x2E1A7D4D EQ PUSH2 0x5A JUMPI DUP1 PUSH4 0xA6F2AE3A EQ PUSH2 0x83 JUMPI DUP1 PUSH4 0xD9EF58A5 EQ PUSH2 0x8D JUMPI DUP1 PUSH4 0xE4849B32 EQ PUSH2 0xB8 JUMPI DUP1 PUSH4 0xFC0C546A EQ PUSH2 0xD4 JUMPI DUP1 PUSH4 0xFCA02C21 EQ PUSH2 0xFF JUMPI JUMPDEST PUSH1 0x0 DUP1 REVERT JUMPDEST CALLVALUE DUP1 ISZERO PUSH2 0x66 JUMPI PUSH1 0x0 DUP1 REVERT JUMPDEST POP PUSH2 0x81 PUSH1 0x4 DUP1 CALLDATASIZE SUB DUP2 ADD SWAP1 PUSH2 0x7C SWAP2 SWAP1 PUSH2 0x81A JUMP JUMPDEST PUSH2 0x12A JUMP JUMPDEST STOP JUMPDEST PUSH2 0x8B PUSH2 0x24E JUMP JUMPDEST STOP JUMPDEST CALLVALUE DUP1 ISZERO PUSH2 0x99 JUMPI PUSH1 0x0 DUP1 REVERT JUMPDEST POP PUSH2 0xA2 PUSH2 0x4A1 JUMP JUMPDEST PUSH1 0x40 MLOAD PUSH2 0xAF SWAP2 SWAP1 PUSH2 0x973 JUMP JUMPDEST PUSH1 0x40 MLOAD DUP1 SWAP2 SUB SWAP1 RETURN JUMPDEST PUSH2 0xD2 PUSH1 0x4 DUP1 CALLDATASIZE SUB DUP2 ADD SWAP1 PUSH2 0xCD SWAP2 SWAP1 PUSH2 0x81A JUMP JUMPDEST PUSH2 0x4C7 JUMP JUMPDEST STOP JUMPDEST CALLVALUE DUP1 ISZERO PUSH2 0xE0 JUMPI PUSH1 0x0 DUP1 REVERT JUMPDEST POP PUSH2 0xE9 PUSH2 0x77B JUMP JUMPDEST PUSH1 0x40 MLOAD PUSH2 0xF6 SWAP2 SWAP1 PUSH2 0xA17 JUMP JUMPDEST PUSH1 0x40 MLOAD DUP1 SWAP2 SUB SWAP1 RETURN JUMPDEST CALLVALUE DUP1 ISZERO PUSH2 0x10B JUMPI PUSH1 0x0 DUP1 REVERT JUMPDEST POP PUSH2 0x114 PUSH2 0x79F JUMP JUMPDEST PUSH1 0x40 MLOAD PUSH2 0x121 SWAP2 SWAP1 PUSH2 0xAF2 JUMP JUMPDEST PUSH1 0x40 MLOAD DUP1 SWAP2 SUB SWAP1 RETURN JUMPDEST PUSH1 0x1 PUSH1 0x0 SWAP1 SLOAD SWAP1 PUSH2 0x100 EXP SWAP1 DIV PUSH20 0xFFFFFFFFFFFFFFFFFFFFFFFFFFFFFFFFFFFFFFFF AND PUSH20 0xFFFFFFFFFFFFFFFFFFFFFFFFFFFFFFFFFFFFFFFF AND CALLER PUSH20 0xFFFFFFFFFFFFFFFFFFFFFFFFFFFFFFFFFFFFFFFF AND EQ PUSH2 0x1BA JUMPI PUSH1 0x40 MLOAD PUSH32 0x8C379A000000000000000000000000000000000000000000000000000000000 DUP2 MSTORE PUSH1 0x4 ADD PUSH2 0x1B1 SWAP1 PUSH2 0xAB2 JUMP JUMPDEST PUSH1 0x40 MLOAD DUP1 SWAP2 SUB SWAP1 REVERT JUMPDEST PUSH2 0x1C2 PUSH2 0x79F JUMP JUMPDEST DUP2 GT ISZERO PUSH2 0x204 JUMPI PUSH1 0x40 MLOAD PUSH32 0x8C379A000000000000000000000000000000000000000000000000000000000 DUP2 MSTORE PUSH1 0x4 ADD PUSH2 0x1FB SWAP1 PUSH2 0xA92 JUMP JUMPDEST PUSH1 0x40 MLOAD DUP1 SWAP2 SUB SWAP1 REVERT JUMPDEST CALLER PUSH20 0xFFFFFFFFFFFFFFFFFFFFFFFFFFFFFFFFFFFFFFFF AND PUSH2 0x8FC DUP3 SWAP1 DUP2 ISZERO MUL SWAP1 PUSH1 0x40 MLOAD PUSH1 0x0 PUSH1 0x40 MLOAD DUP1 DUP4 SUB DUP2 DUP6 DUP9 DUP9 CALL SWAP4 POP POP POP POP ISZERO DUP1 ISZERO PUSH2 0x24A JUMPI RETURNDATASIZE PUSH1 0x0 DUP1 RETURNDATACOPY RETURNDATASIZE PUSH1 0x0 REVERT JUMPDEST POP POP JUMP JUMPDEST PUSH2 0x256 PUSH2 0x7E0 JUMP JUMPDEST CALLVALUE LT ISZERO PUSH2 0x298 JUMPI PUSH1 0x40 MLOAD PUSH32 0x8C379A000000000000000000000000000000000000000000000000000000000 DUP2 MSTORE PUSH1 0x4 ADD PUSH2 0x28F SWAP1 PUSH2 0xA32 JUMP JUMPDEST PUSH1 0x40 MLOAD DUP1 SWAP2 SUB SWAP1 REVERT JUMPDEST PUSH1 0x0 DUP1 PUSH1 0x0 SWAP1 SLOAD SWAP1 PUSH2 0x100 EXP SWAP1 DIV PUSH20 0xFFFFFFFFFFFFFFFFFFFFFFFFFFFFFFFFFFFFFFFF AND PUSH20 0xFFFFFFFFFFFFFFFFFFFFFFFFFFFFFFFFFFFFFFFF AND PUSH4 0x70A08231 PUSH1 0x2 PUSH1 0x0 SWAP1 SLOAD SWAP1 PUSH2 0x100 EXP SWAP1 DIV PUSH20 0xFFFFFFFFFFFFFFFFFFFFFFFFFFFFFFFFFFFFFFFF AND PUSH1 0x40 MLOAD DUP3 PUSH4 0xFFFFFFFF AND PUSH1 0xE0 SHL DUP2 MSTORE PUSH1 0x4 ADD PUSH2 0x316 SWAP2 SWAP1 PUSH2 0x973 JUMP JUMPDEST PUSH1 0x20 PUSH1 0x40 MLOAD DUP1 DUP4 SUB DUP2 DUP7 DUP1 EXTCODESIZE ISZERO DUP1 ISZERO PUSH2 0x32E JUMPI PUSH1 0x0 DUP1 REVERT JUMPDEST POP GAS STATICCALL ISZERO DUP1 ISZERO PUSH2 0x342 JUMPI RETURNDATASIZE PUSH1 0x0 DUP1 RETURNDATACOPY RETURNDATASIZE PUSH1 0x0 REVERT JUMPDEST POP POP POP POP PUSH1 0x40 MLOAD RETURNDATASIZE PUSH1 0x1F NOT PUSH1 0x1F DUP3 ADD AND DUP3 ADD DUP1 PUSH1 0x40 MSTORE POP DUP2 ADD SWAP1 PUSH2 0x366 SWAP2 SWAP1 PUSH2 0x847 JUMP JUMPDEST SWAP1 POP PUSH1 0x0 PUSH2 0x372 PUSH2 0x7E0 JUMP JUMPDEST CALLVALUE PUSH2 0x37D SWAP2 SWAP1 PUSH2 0xB1E JUMP JUMPDEST SWAP1 POP DUP2 DUP2 GT ISZERO PUSH2 0x3C2 JUMPI PUSH1 0x40 MLOAD PUSH32 0x8C379A000000000000000000000000000000000000000000000000000000000 DUP2 MSTORE PUSH1 0x4 ADD PUSH2 0x3B9 SWAP1 PUSH2 0xAD2 JUMP JUMPDEST PUSH1 0x40 MLOAD DUP1 SWAP2 SUB SWAP1 REVERT JUMPDEST PUSH1 0x0 DUP1 SLOAD SWAP1 PUSH2 0x100 EXP SWAP1 DIV PUSH20 0xFFFFFFFFFFFFFFFFFFFFFFFFFFFFFFFFFFFFFFFF AND PUSH20 0xFFFFFFFFFFFFFFFFFFFFFFFFFFFFFFFFFFFFFFFF AND PUSH4 0xA9059CBB CALLER DUP4 PUSH1 0x40 MLOAD DUP4 PUSH4 0xFFFFFFFF AND PUSH1 0xE0 SHL DUP2 MSTORE PUSH1 0x4 ADD PUSH2 0x41D SWAP3 SWAP2 SWAP1 PUSH2 0x9EE JUMP JUMPDEST PUSH1 0x0 PUSH1 0x40 MLOAD DUP1 DUP4 SUB DUP2 PUSH1 0x0 DUP8 DUP1 EXTCODESIZE ISZERO DUP1 ISZERO PUSH2 0x437 JUMPI PUSH1 0x0 DUP1 REVERT JUMPDEST POP GAS CALL ISZERO DUP1 ISZERO PUSH2 0x44B JUMPI RETURNDATASIZE PUSH1 0x0 DUP1 RETURNDATACOPY RETURNDATASIZE PUSH1 0x0 REVERT JUMPDEST POP POP POP POP CALLER PUSH20 0xFFFFFFFFFFFFFFFFFFFFFFFFFFFFFFFFFFFFFFFF AND PUSH32 0xC55650CCDA1011E1CDC769B1FBF546EBB8C97800B6072B49E06CD560305B1D67 DUP3 PUSH1 0x40 MLOAD PUSH2 0x495 SWAP2 SWAP1 PUSH2 0xAF2 JUMP JUMPDEST PUSH1 0x40 MLOAD DUP1 SWAP2 SUB SWAP1 LOG2 POP POP JUMP JUMPDEST PUSH1 0x2 PUSH1 0x0 SWAP1 SLOAD SWAP1 PUSH2 0x100 EXP SWAP1 DIV PUSH20 0xFFFFFFFFFFFFFFFFFFFFFFFFFFFFFFFFFFFFFFFF AND DUP2 JUMP JUMPDEST PUSH1 0x0 DUP2 GT PUSH2 0x50A JUMPI PUSH1 0x40 MLOAD PUSH32 0x8C379A000000000000000000000000000000000000000000000000000000000 DUP2 MSTORE PUSH1 0x4 ADD PUSH2 0x501 SWAP1 PUSH2 0xA72 JUMP JUMPDEST PUSH1 0x40 MLOAD DUP1 SWAP2 SUB SWAP1 REVERT JUMPDEST PUSH1 0x0 DUP1 PUSH1 0x0 SWAP1 SLOAD SWAP1 PUSH2 0x100 EXP SWAP1 DIV PUSH20 0xFFFFFFFFFFFFFFFFFFFFFFFFFFFFFFFFFFFFFFFF AND PUSH20 0xFFFFFFFFFFFFFFFFFFFFFFFFFFFFFFFFFFFFFFFF AND PUSH4 0xDD62ED3E CALLER PUSH1 0x2 PUSH1 0x0 SWAP1 SLOAD SWAP1 PUSH2 0x100 EXP SWAP1 DIV PUSH20 0xFFFFFFFFFFFFFFFFFFFFFFFFFFFFFFFFFFFFFFFF AND PUSH1 0x40 MLOAD DUP4 PUSH4 0xFFFFFFFF AND PUSH1 0xE0 SHL DUP2 MSTORE PUSH1 0x4 ADD PUSH2 0x58A SWAP3 SWAP2 SWAP1 PUSH2 0x98E JUMP JUMPDEST PUSH1 0x20 PUSH1 0x40 MLOAD DUP1 DUP4 SUB DUP2 DUP7 DUP1 EXTCODESIZE ISZERO DUP1 ISZERO PUSH2 0x5A2 JUMPI PUSH1 0x0 DUP1 REVERT JUMPDEST POP GAS STATICCALL ISZERO DUP1 ISZERO PUSH2 0x5B6 JUMPI RETURNDATASIZE PUSH1 0x0 DUP1 RETURNDATACOPY RETURNDATASIZE PUSH1 0x0 REVERT JUMPDEST POP POP POP POP PUSH1 0x40 MLOAD RETURNDATASIZE PUSH1 0x1F NOT PUSH1 0x1F DUP3 ADD AND DUP3 ADD DUP1 PUSH1 0x40 MSTORE POP DUP2 ADD SWAP1 PUSH2 0x5DA SWAP2 SWAP1 PUSH2 0x847 JUMP JUMPDEST SWAP1 POP DUP2 DUP2 LT ISZERO PUSH2 0x61F JUMPI PUSH1 0x40 MLOAD PUSH32 0x8C379A000000000000000000000000000000000000000000000000000000000 DUP2 MSTORE PUSH1 0x4 ADD PUSH2 0x616 SWAP1 PUSH2 0xA52 JUMP JUMPDEST PUSH1 0x40 MLOAD DUP1 SWAP2 SUB SWAP1 REVERT JUMPDEST PUSH1 0x0 DUP1 SLOAD SWAP1 PUSH2 0x100 EXP SWAP1 DIV PUSH20 0xFFFFFFFFFFFFFFFFFFFFFFFFFFFFFFFFFFFFFFFF AND PUSH20 0xFFFFFFFFFFFFFFFFFFFFFFFFFFFFFFFFFFFFFFFF AND PUSH4 0x23B872DD CALLER PUSH1 0x2 PUSH1 0x0 SWAP1 SLOAD SWAP1 PUSH2 0x100 EXP SWAP1 DIV PUSH20 0xFFFFFFFFFFFFFFFFFFFFFFFFFFFFFFFFFFFFFFFF AND DUP6 PUSH1 0x40 MLOAD DUP5 PUSH4 0xFFFFFFFF AND PUSH1 0xE0 SHL DUP2 MSTORE PUSH1 0x4 ADD PUSH2 0x69E SWAP4 SWAP3 SWAP2 SWAP1 PUSH2 0x9B7 JUMP JUMPDEST PUSH1 0x0 PUSH1 0x40 MLOAD DUP1 DUP4 SUB DUP2 PUSH1 0x0 DUP8 DUP1 EXTCODESIZE ISZERO DUP1 ISZERO PUSH2 0x6B8 JUMPI PUSH1 0x0 DUP1 REVERT JUMPDEST POP GAS CALL ISZERO DUP1 ISZERO PUSH2 0x6CC JUMPI RETURNDATASIZE PUSH1 0x0 DUP1 RETURNDATACOPY RETURNDATASIZE PUSH1 0x0 REVERT JUMPDEST POP POP POP POP CALLER PUSH20 0xFFFFFFFFFFFFFFFFFFFFFFFFFFFFFFFFFFFFFFFF AND PUSH2 0x8FC PUSH2 0x6F2 PUSH2 0x7E0 JUMP JUMPDEST DUP5 PUSH2 0x6FD SWAP2 SWAP1 PUSH2 0xB4F JUMP JUMPDEST SWAP1 DUP2 ISZERO MUL SWAP1 PUSH1 0x40 MLOAD PUSH1 0x0 PUSH1 0x40 MLOAD DUP1 DUP4 SUB DUP2 DUP6 DUP9 DUP9 CALL SWAP4 POP POP POP POP ISZERO DUP1 ISZERO PUSH2 0x728 JUMPI RETURNDATASIZE PUSH1 0x0 DUP1 RETURNDATACOPY RETURNDATASIZE PUSH1 0x0 REVERT JUMPDEST POP CALLER PUSH20 0xFFFFFFFFFFFFFFFFFFFFFFFFFFFFFFFFFFFFFFFF AND PUSH32 0x5E5E995CE3133561AFCEAA51A9A154D5DB228CD7525D34DF5185582C18D3DF09 DUP4 PUSH1 0x40 MLOAD PUSH2 0x76F SWAP2 SWAP1 PUSH2 0xAF2 JUMP JUMPDEST PUSH1 0x40 MLOAD DUP1 SWAP2 SUB SWAP1 LOG2 POP POP JUMP JUMPDEST PUSH1 0x0 DUP1 SLOAD SWAP1 PUSH2 0x100 EXP SWAP1 DIV PUSH20 0xFFFFFFFFFFFFFFFFFFFFFFFFFFFFFFFFFFFFFFFF AND DUP2 JUMP JUMPDEST PUSH1 0x0 PUSH1 0x2 PUSH1 0x0 SWAP1 SLOAD SWAP1 PUSH2 0x100 EXP SWAP1 DIV PUSH20 0xFFFFFFFFFFFFFFFFFFFFFFFFFFFFFFFFFFFFFFFF AND PUSH20 0xFFFFFFFFFFFFFFFFFFFFFFFFFFFFFFFFFFFFFFFF AND BALANCE SWAP1 POP SWAP1 JUMP JUMPDEST PUSH1 0x0 PUSH8 0xDE0B6B3A7640000 SWAP1 POP SWAP1 JUMP JUMPDEST PUSH1 0x0 DUP2 CALLDATALOAD SWAP1 POP PUSH2 0x7FF DUP2 PUSH2 0xD74 JUMP JUMPDEST SWAP3 SWAP2 POP POP JUMP JUMPDEST PUSH1 0x0 DUP2 MLOAD SWAP1 POP PUSH2 0x814 DUP2 PUSH2 0xD74 JUMP JUMPDEST SWAP3 SWAP2 POP POP JUMP JUMPDEST PUSH1 0x0 PUSH1 0x20 DUP3 DUP5 SUB SLT ISZERO PUSH2 0x830 JUMPI PUSH2 0x82F PUSH2 0xC79 JUMP JUMPDEST JUMPDEST PUSH1 0x0 PUSH2 0x83E DUP5 DUP3 DUP6 ADD PUSH2 0x7F0 JUMP JUMPDEST SWAP2 POP POP SWAP3 SWAP2 POP POP JUMP JUMPDEST PUSH1 0x0 PUSH1 0x20 DUP3 DUP5 SUB SLT ISZERO PUSH2 0x85D JUMPI PUSH2 0x85C PUSH2 0xC79 JUMP JUMPDEST JUMPDEST PUSH1 0x0 PUSH2 0x86B DUP5 DUP3 DUP6 ADD PUSH2 0x805 JUMP JUMPDEST SWAP2 POP POP SWAP3 SWAP2 POP POP JUMP JUMPDEST PUSH2 0x87D DUP2 PUSH2 0xBA9 JUMP JUMPDEST DUP3 MSTORE POP POP JUMP JUMPDEST PUSH2 0x88C DUP2 PUSH2 0xBE5 JUMP JUMPDEST DUP3 MSTORE POP POP JUMP JUMPDEST PUSH1 0x0 PUSH2 0x89F PUSH1 0xD DUP4 PUSH2 0xB0D JUMP JUMPDEST SWAP2 POP PUSH2 0x8AA DUP3 PUSH2 0xC7E JUMP JUMPDEST PUSH1 0x20 DUP3 ADD SWAP1 POP SWAP2 SWAP1 POP JUMP JUMPDEST PUSH1 0x0 PUSH2 0x8C2 PUSH1 0xF DUP4 PUSH2 0xB0D JUMP JUMPDEST SWAP2 POP PUSH2 0x8CD DUP3 PUSH2 0xCA7 JUMP JUMPDEST PUSH1 0x20 DUP3 ADD SWAP1 POP SWAP2 SWAP1 POP JUMP JUMPDEST PUSH1 0x0 PUSH2 0x8E5 PUSH1 0x1D DUP4 PUSH2 0xB0D JUMP JUMPDEST SWAP2 POP PUSH2 0x8F0 DUP3 PUSH2 0xCD0 JUMP JUMPDEST PUSH1 0x20 DUP3 ADD SWAP1 POP SWAP2 SWAP1 POP JUMP JUMPDEST PUSH1 0x0 PUSH2 0x908 PUSH1 0x11 DUP4 PUSH2 0xB0D JUMP JUMPDEST SWAP2 POP PUSH2 0x913 DUP3 PUSH2 0xCF9 JUMP JUMPDEST PUSH1 0x20 DUP3 ADD SWAP1 POP SWAP2 SWAP1 POP JUMP JUMPDEST PUSH1 0x0 PUSH2 0x92B PUSH1 0xB DUP4 PUSH2 0xB0D JUMP JUMPDEST SWAP2 POP PUSH2 0x936 DUP3 PUSH2 0xD22 JUMP JUMPDEST PUSH1 0x20 DUP3 ADD SWAP1 POP SWAP2 SWAP1 POP JUMP JUMPDEST PUSH1 0x0 PUSH2 0x94E PUSH1 0x12 DUP4 PUSH2 0xB0D JUMP JUMPDEST SWAP2 POP PUSH2 0x959 DUP3 PUSH2 0xD4B JUMP JUMPDEST PUSH1 0x20 DUP3 ADD SWAP1 POP SWAP2 SWAP1 POP JUMP JUMPDEST PUSH2 0x96D DUP2 PUSH2 0xBDB JUMP JUMPDEST DUP3 MSTORE POP POP JUMP JUMPDEST PUSH1 0x0 PUSH1 0x20 DUP3 ADD SWAP1 POP PUSH2 0x988 PUSH1 0x0 DUP4 ADD DUP5 PUSH2 0x874 JUMP JUMPDEST SWAP3 SWAP2 POP POP JUMP JUMPDEST PUSH1 0x0 PUSH1 0x40 DUP3 ADD SWAP1 POP PUSH2 0x9A3 PUSH1 0x0 DUP4 ADD DUP6 PUSH2 0x874 JUMP JUMPDEST PUSH2 0x9B0 PUSH1 0x20 DUP4 ADD DUP5 PUSH2 0x874 JUMP JUMPDEST SWAP4 SWAP3 POP POP POP JUMP JUMPDEST PUSH1 0x0 PUSH1 0x60 DUP3 ADD SWAP1 POP PUSH2 0x9CC PUSH1 0x0 DUP4 ADD DUP7 PUSH2 0x874 JUMP JUMPDEST PUSH2 0x9D9 PUSH1 0x20 DUP4 ADD DUP6 PUSH2 0x874 JUMP JUMPDEST PUSH2 0x9E6 PUSH1 0x40 DUP4 ADD DUP5 PUSH2 0x964 JUMP JUMPDEST SWAP5 SWAP4 POP POP POP POP JUMP JUMPDEST PUSH1 0x0 PUSH1 0x40 DUP3 ADD SWAP1 POP PUSH2 0xA03 PUSH1 0x0 DUP4 ADD DUP6 PUSH2 0x874 JUMP JUMPDEST PUSH2 0xA10 PUSH1 0x20 DUP4 ADD DUP5 PUSH2 0x964 JUMP JUMPDEST SWAP4 SWAP3 POP POP POP JUMP JUMPDEST PUSH1 0x0 PUSH1 0x20 DUP3 ADD SWAP1 POP PUSH2 0xA2C PUSH1 0x0 DUP4 ADD DUP5 PUSH2 0x883 JUMP JUMPDEST SWAP3 SWAP2 POP POP JUMP JUMPDEST PUSH1 0x0 PUSH1 0x20 DUP3 ADD SWAP1 POP DUP2 DUP2 SUB PUSH1 0x0 DUP4 ADD MSTORE PUSH2 0xA4B DUP2 PUSH2 0x892 JUMP JUMPDEST SWAP1 POP SWAP2 SWAP1 POP JUMP JUMPDEST PUSH1 0x0 PUSH1 0x20 DUP3 ADD SWAP1 POP DUP2 DUP2 SUB PUSH1 0x0 DUP4 ADD MSTORE PUSH2 0xA6B DUP2 PUSH2 0x8B5 JUMP JUMPDEST SWAP1 POP SWAP2 SWAP1 POP JUMP JUMPDEST PUSH1 0x0 PUSH1 0x20 DUP3 ADD SWAP1 POP DUP2 DUP2 SUB PUSH1 0x0 DUP4 ADD MSTORE PUSH2 0xA8B DUP2 PUSH2 0x8D8 JUMP JUMPDEST SWAP1 POP SWAP2 SWAP1 POP JUMP JUMPDEST PUSH1 0x0 PUSH1 0x20 DUP3 ADD SWAP1 POP DUP2 DUP2 SUB PUSH1 0x0 DUP4 ADD MSTORE PUSH2 0xAAB DUP2 PUSH2 0x8FB JUMP JUMPDEST SWAP1 POP SWAP2 SWAP1 POP JUMP JUMPDEST PUSH1 0x0 PUSH1 0x20 DUP3 ADD SWAP1 POP DUP2 DUP2 SUB PUSH1 0x0 DUP4 ADD MSTORE PUSH2 0xACB DUP2 PUSH2 0x91E JUMP JUMPDEST SWAP1 POP SWAP2 SWAP1 POP JUMP JUMPDEST PUSH1 0x0 PUSH1 0x20 DUP3 ADD SWAP1 POP DUP2 DUP2 SUB PUSH1 0x0 DUP4 ADD MSTORE PUSH2 0xAEB DUP2 PUSH2 0x941 JUMP JUMPDEST SWAP1 POP SWAP2 SWAP1 POP JUMP JUMPDEST PUSH1 0x0 PUSH1 0x20 DUP3 ADD SWAP1 POP PUSH2 0xB07 PUSH1 0x0 DUP4 ADD DUP5 PUSH2 0x964 JUMP JUMPDEST SWAP3 SWAP2 POP POP JUMP JUMPDEST PUSH1 0x0 DUP3 DUP3 MSTORE PUSH1 0x20 DUP3 ADD SWAP1 POP SWAP3 SWAP2 POP POP JUMP JUMPDEST PUSH1 0x0 PUSH2 0xB29 DUP3 PUSH2 0xBDB JUMP JUMPDEST SWAP2 POP PUSH2 0xB34 DUP4 PUSH2 0xBDB JUMP JUMPDEST SWAP3 POP DUP3 PUSH2 0xB44 JUMPI PUSH2 0xB43 PUSH2 0xC4A JUMP JUMPDEST JUMPDEST DUP3 DUP3 DIV SWAP1 POP SWAP3 SWAP2 POP POP JUMP JUMPDEST PUSH1 0x0 PUSH2 0xB5A DUP3 PUSH2 0xBDB JUMP JUMPDEST SWAP2 POP PUSH2 0xB65 DUP4 PUSH2 0xBDB JUMP JUMPDEST SWAP3 POP DUP2 PUSH32 0xFFFFFFFFFFFFFFFFFFFFFFFFFFFFFFFFFFFFFFFFFFFFFFFFFFFFFFFFFFFFFFFF DIV DUP4 GT DUP3 ISZERO ISZERO AND ISZERO PUSH2 0xB9E JUMPI PUSH2 0xB9D PUSH2 0xC1B JUMP JUMPDEST JUMPDEST DUP3 DUP3 MUL SWAP1 POP SWAP3 SWAP2 POP POP JUMP JUMPDEST PUSH1 0x0 PUSH2 0xBB4 DUP3 PUSH2 0xBBB JUMP JUMPDEST SWAP1 POP SWAP2 SWAP1 POP JUMP JUMPDEST PUSH1 0x0 PUSH20 0xFFFFFFFFFFFFFFFFFFFFFFFFFFFFFFFFFFFFFFFF DUP3 AND SWAP1 POP SWAP2 SWAP1 POP JUMP JUMPDEST PUSH1 0x0 DUP2 SWAP1 POP SWAP2 SWAP1 POP JUMP JUMPDEST PUSH1 0x0 PUSH2 0xBF0 DUP3 PUSH2 0xBF7 JUMP JUMPDEST SWAP1 POP SWAP2 SWAP1 POP JUMP JUMPDEST PUSH1 0x0 PUSH2 0xC02 DUP3 PUSH2 0xC09 JUMP JUMPDEST SWAP1 POP SWAP2 SWAP1 POP JUMP JUMPDEST PUSH1 0x0 PUSH2 0xC14 DUP3 PUSH2 0xBBB JUMP JUMPDEST SWAP1 POP SWAP2 SWAP1 POP JUMP JUMPDEST PUSH32 0x4E487B7100000000000000000000000000000000000000000000000000000000 PUSH1 0x0 MSTORE PUSH1 0x11 PUSH1 0x4 MSTORE PUSH1 0x24 PUSH1 0x0 REVERT JUMPDEST PUSH32 0x4E487B7100000000000000000000000000000000000000000000000000000000 PUSH1 0x0 MSTORE PUSH1 0x12 PUSH1 0x4 MSTORE PUSH1 0x24 PUSH1 0x0 REVERT JUMPDEST PUSH1 0x0 DUP1 REVERT JUMPDEST PUSH32 0x496E636F72726563742073756D00000000000000000000000000000000000000 PUSH1 0x0 DUP3 ADD MSTORE POP JUMP JUMPDEST PUSH32 0x57726F6E6720616C6C6F77616E63650000000000000000000000000000000000 PUSH1 0x0 DUP3 ADD MSTORE POP JUMP JUMPDEST PUSH32 0x546F6B656E73206D7573742062652067726561746572207468616E2030000000 PUSH1 0x0 DUP3 ADD MSTORE POP JUMP JUMPDEST PUSH32 0x4E6F7420656E6F7567682066756E647321000000000000000000000000000000 PUSH1 0x0 DUP3 ADD MSTORE POP JUMP JUMPDEST PUSH32 0x4F6E6C79206F776E657221000000000000000000000000000000000000000000 PUSH1 0x0 DUP3 ADD MSTORE POP JUMP JUMPDEST PUSH32 0x4E6F7420656E6F75746820746F6B656E73210000000000000000000000000000 PUSH1 0x0 DUP3 ADD MSTORE POP JUMP JUMPDEST PUSH2 0xD7D DUP2 PUSH2 0xBDB JUMP JUMPDEST DUP2 EQ PUSH2 0xD88 JUMPI PUSH1 0x0 DUP1 REVERT JUMPDEST POP JUMP INVALID LOG2 PUSH5 0x6970667358 0x22 SLT KECCAK256 SWAP8 STOP AND SWAP13 0x22 CALLDATASIZE PC ADDMOD SWAP8 0xCD 0x49 CODECOPY 0xC6 DUP11 DUP14 PUSH15 0xC3B99A5458D60D24B618C4FC1517B6 0x1E PUSH5 0x736F6C6343 STOP ADDMOD SMOD STOP CALLER "
				},
				"gasEstimates": {
					"creation": {
						"codeDepositCost": "704200",
						"executionCost": "infinite",
						"totalCost": "infinite"
					},
					"external": {
						"buy()": "infinite",
						"marketBalance()": "5167",
						"sell(uint256)": "infinite",
						"thisAddr()": "2536",
						"token()": "2663",
						"withdraw(uint256)": "infinite"
					},
					"internal": {
						"_rate()": "23"
					}
				},
				"methodIdentifiers": {
					"buy()": "a6f2ae3a",
					"marketBalance()": "fca02c21",
					"sell(uint256)": "e4849b32",
					"thisAddr()": "d9ef58a5",
					"token()": "fc0c546a",
					"withdraw(uint256)": "2e1a7d4d"
				}
			},
			"storageLayout": {
				"storage": [
					{
						"astId": 73,
						"contract": "contracts/MarketPlace.sol:MarketPlace",
						"label": "token",
						"offset": 0,
						"slot": "0",
						"type": "t_contract(IERC20)67"
					},
					{
						"astId": 75,
						"contract": "contracts/MarketPlace.sol:MarketPlace",
						"label": "owner",
						"offset": 0,
						"slot": "1",
						"type": "t_address"
					},
					{
						"astId": 81,
						"contract": "contracts/MarketPlace.sol:MarketPlace",
						"label": "thisAddr",
						"offset": 0,
						"slot": "2",
						"type": "t_address"
					}
				],
				"types": {
					"t_address": {
						"encoding": "inplace",
						"label": "address",
						"numberOfBytes": "20"
					},
					"t_contract(IERC20)67": {
						"encoding": "inplace",
						"label": "contract IERC20",
						"numberOfBytes": "20"
					}
				}
			},
			"userdoc": {
				"kind": "user",
				"methods": {},
				"version": 1
			}
		}
	}
}