{
	"contracts/TinToken.sol": {
		"TinToken": {
			"abi": [
				{
					"inputs": [],
					"stateMutability": "nonpayable",
					"type": "constructor"
				},
				{
					"anonymous": false,
					"inputs": [
						{
							"indexed": true,
							"internalType": "address",
							"name": "owner",
							"type": "address"
						},
						{
							"indexed": true,
							"internalType": "address",
							"name": "to",
							"type": "address"
						},
						{
							"indexed": false,
							"internalType": "uint256",
							"name": "amount",
							"type": "uint256"
						}
					],
					"name": "Approval",
					"type": "event"
				},
				{
					"anonymous": false,
					"inputs": [
						{
							"indexed": true,
							"internalType": "address",
							"name": "from",
							"type": "address"
						},
						{
							"indexed": true,
							"internalType": "address",
							"name": "to",
							"type": "address"
						},
						{
							"indexed": false,
							"internalType": "uint256",
							"name": "amount",
							"type": "uint256"
						}
					],
					"name": "Transfer",
					"type": "event"
				},
				{
					"stateMutability": "payable",
					"type": "fallback"
				},
				{
					"inputs": [
						{
							"internalType": "address",
							"name": "owner",
							"type": "address"
						},
						{
							"internalType": "address",
							"name": "spender",
							"type": "address"
						}
					],
					"name": "allowance",
					"outputs": [
						{
							"internalType": "uint256",
							"name": "",
							"type": "uint256"
						}
					],
					"stateMutability": "view",
					"type": "function"
				},
				{
					"inputs": [
						{
							"internalType": "address",
							"name": "spender",
							"type": "address"
						},
						{
							"internalType": "uint256",
							"name": "amount",
							"type": "uint256"
						}
					],
					"name": "approve",
					"outputs": [],
					"stateMutability": "nonpayable",
					"type": "function"
				},
				{
					"inputs": [
						{
							"internalType": "address",
							"name": "account",
							"type": "address"
						}
					],
					"name": "balanceOf",
					"outputs": [
						{
							"internalType": "uint256",
							"name": "",
							"type": "uint256"
						}
					],
					"stateMutability": "view",
					"type": "function"
				},
				{
					"inputs": [
						{
							"internalType": "uint256",
							"name": "amount",
							"type": "uint256"
						}
					],
					"name": "burn",
					"outputs": [],
					"stateMutability": "nonpayable",
					"type": "function"
				},
				{
					"inputs": [],
					"name": "decimals",
					"outputs": [
						{
							"internalType": "uint256",
							"name": "",
							"type": "uint256"
						}
					],
					"stateMutability": "pure",
					"type": "function"
				},
				{
					"inputs": [
						{
							"internalType": "uint256",
							"name": "amount",
							"type": "uint256"
						}
					],
					"name": "mint",
					"outputs": [],
					"stateMutability": "nonpayable",
					"type": "function"
				},
				{
					"inputs": [],
					"name": "name",
					"outputs": [
						{
							"internalType": "string",
							"name": "",
							"type": "string"
						}
					],
					"stateMutability": "view",
					"type": "function"
				},
				{
					"inputs": [
						{
							"internalType": "address",
							"name": "_newUser",
							"type": "address"
						}
					],
					"name": "registrationBonus",
					"outputs": [],
					"stateMutability": "nonpayable",
					"type": "function"
				},
				{
					"inputs": [],
					"name": "symbol",
					"outputs": [
						{
							"internalType": "string",
							"name": "",
							"type": "string"
						}
					],
					"stateMutability": "view",
					"type": "function"
				},
				{
					"inputs": [],
					"name": "thisOwner",
					"outputs": [
						{
							"internalType": "address",
							"name": "",
							"type": "address"
						}
					],
					"stateMutability": "view",
					"type": "function"
				},
				{
					"inputs": [],
					"name": "totalSupply",
					"outputs": [
						{
							"internalType": "uint256",
							"name": "",
							"type": "uint256"
						}
					],
					"stateMutability": "view",
					"type": "function"
				},
				{
					"inputs": [
						{
							"internalType": "address",
							"name": "to",
							"type": "address"
						},
						{
							"internalType": "uint256",
							"name": "amount",
							"type": "uint256"
						}
					],
					"name": "transfer",
					"outputs": [],
					"stateMutability": "nonpayable",
					"type": "function"
				},
				{
					"inputs": [
						{
							"internalType": "address",
							"name": "sender",
							"type": "address"
						},
						{
							"internalType": "address",
							"name": "recipient",
							"type": "address"
						},
						{
							"internalType": "uint256",
							"name": "amount",
							"type": "uint256"
						}
					],
					"name": "transferFrom",
					"outputs": [],
					"stateMutability": "nonpayable",
					"type": "function"
				},
				{
					"stateMutability": "payable",
					"type": "receive"
				}
			],
			"devdoc": {
				"kind": "dev",
				"methods": {},
				"version": 1
			},
			"evm": {
				"assembly": "    /* \"contracts/TinToken.sol\":81:2443  contract TinToken is IERC20 {... */\n  mstore(0x40, 0x80)\n    /* \"contracts/TinToken.sol\":164:174  1000000000 */\n  0x3b9aca00\n    /* \"contracts/TinToken.sol\":145:174  uint startSupply = 1000000000 */\n  0x01\n  sstore\n    /* \"contracts/TinToken.sol\":302:333  string public name = \"TinToken\" */\n  mload(0x40)\n  dup1\n  0x40\n  add\n  0x40\n  mstore\n  dup1\n  0x08\n  dup2\n  mstore\n  0x20\n  add\n  0x54696e546f6b656e000000000000000000000000000000000000000000000000\n  dup2\n  mstore\n  pop\n  0x05\n  swap1\n  dup1\n  mload\n  swap1\n  0x20\n  add\n  swap1\n  tag_1\n  swap3\n  swap2\n  swap1\n  tag_2\n  jump\t// in\ntag_1:\n  pop\n    /* \"contracts/TinToken.sol\":339:367  string public symbol = \"TTN\" */\n  mload(0x40)\n  dup1\n  0x40\n  add\n  0x40\n  mstore\n  dup1\n  0x03\n  dup2\n  mstore\n  0x20\n  add\n  0x54544e0000000000000000000000000000000000000000000000000000000000\n  dup2\n  mstore\n  pop\n  0x06\n  swap1\n  dup1\n  mload\n  swap1\n  0x20\n  add\n  swap1\n  tag_3\n  swap3\n  swap2\n  swap1\n  tag_2\n  jump\t// in\ntag_3:\n  pop\n    /* \"contracts/TinToken.sol\":374:454  constructor() {... */\n  callvalue\n  dup1\n  iszero\n  tag_4\n  jumpi\n  0x00\n  dup1\n  revert\ntag_4:\n  pop\n    /* \"contracts/TinToken.sol\":410:420  msg.sender */\n  caller\n    /* \"contracts/TinToken.sol\":398:407  thisOwner */\n  0x00\n  dup1\n    /* \"contracts/TinToken.sol\":398:420  thisOwner = msg.sender */\n  0x0100\n  exp\n  dup2\n  sload\n  dup2\n  0xffffffffffffffffffffffffffffffffffffffff\n  mul\n  not\n  and\n  swap1\n  dup4\n  0xffffffffffffffffffffffffffffffffffffffff\n  and\n  mul\n  or\n  swap1\n  sstore\n  pop\n    /* \"contracts/TinToken.sol\":430:447  mint(startSupply) */\n  tag_7\n    /* \"contracts/TinToken.sol\":435:446  startSupply */\n  sload(0x01)\n    /* \"contracts/TinToken.sol\":430:434  mint */\n  shl(0x20, tag_8)\n    /* \"contracts/TinToken.sol\":430:447  mint(startSupply) */\n  0x20\n  shr\n  jump\t// in\ntag_7:\n    /* \"contracts/TinToken.sol\":81:2443  contract TinToken is IERC20 {... */\n  jump(tag_9)\n    /* \"contracts/TinToken.sol\":1868:2045  function mint(uint amount) public onlyOwner {... */\ntag_8:\n    /* \"contracts/TinToken.sol\":654:663  thisOwner */\n  0x00\n  dup1\n  sload\n  swap1\n  0x0100\n  exp\n  swap1\n  div\n  0xffffffffffffffffffffffffffffffffffffffff\n  and\n    /* \"contracts/TinToken.sol\":640:663  msg.sender == thisOwner */\n  0xffffffffffffffffffffffffffffffffffffffff\n  and\n    /* \"contracts/TinToken.sol\":640:650  msg.sender */\n  caller\n    /* \"contracts/TinToken.sol\":640:663  msg.sender == thisOwner */\n  0xffffffffffffffffffffffffffffffffffffffff\n  and\n  eq\n    /* \"contracts/TinToken.sol\":632:689  require(msg.sender == thisOwner, \"You are not an owner!\") */\n  tag_11\n  jumpi\n  mload(0x40)\n  0x08c379a000000000000000000000000000000000000000000000000000000000\n  dup2\n  mstore\n  0x04\n  add\n  tag_12\n  swap1\n  tag_13\n  jump\t// in\ntag_12:\n  mload(0x40)\n  dup1\n  swap2\n  sub\n  swap1\n  revert\ntag_11:\n    /* \"contracts/TinToken.sol\":1946:1952  amount */\n  dup1\n    /* \"contracts/TinToken.sol\":1922:1930  balances */\n  0x03\n    /* \"contracts/TinToken.sol\":1922:1942  balances[msg.sender] */\n  0x00\n    /* \"contracts/TinToken.sol\":1931:1941  msg.sender */\n  caller\n    /* \"contracts/TinToken.sol\":1922:1942  balances[msg.sender] */\n  0xffffffffffffffffffffffffffffffffffffffff\n  and\n  0xffffffffffffffffffffffffffffffffffffffff\n  and\n  dup2\n  mstore\n  0x20\n  add\n  swap1\n  dup2\n  mstore\n  0x20\n  add\n  0x00\n  keccak256\n  0x00\n    /* \"contracts/TinToken.sol\":1922:1952  balances[msg.sender] += amount */\n  dup3\n  dup3\n  sload\n  tag_15\n  swap2\n  swap1\n  tag_16\n  jump\t// in\ntag_15:\n  swap3\n  pop\n  pop\n  dup2\n  swap1\n  sstore\n  pop\n    /* \"contracts/TinToken.sol\":1977:1983  amount */\n  dup1\n    /* \"contracts/TinToken.sol\":1962:1973  totalTokens */\n  0x02\n  0x00\n    /* \"contracts/TinToken.sol\":1962:1983  totalTokens += amount */\n  dup3\n  dup3\n  sload\n  tag_17\n  swap2\n  swap1\n  tag_16\n  jump\t// in\ntag_17:\n  swap3\n  pop\n  pop\n  dup2\n  swap1\n  sstore\n  pop\n    /* \"contracts/TinToken.sol\":2019:2029  msg.sender */\n  caller\n    /* \"contracts/TinToken.sol\":1998:2038  Transfer(address(0), msg.sender, amount) */\n  0xffffffffffffffffffffffffffffffffffffffff\n  and\n    /* \"contracts/TinToken.sol\":2015:2016  0 */\n  0x00\n    /* \"contracts/TinToken.sol\":1998:2038  Transfer(address(0), msg.sender, amount) */\n  0xffffffffffffffffffffffffffffffffffffffff\n  and\n  0xddf252ad1be2c89b69c2b068fc378daa952ba7f163c4a11628f55a4df523b3ef\n    /* \"contracts/TinToken.sol\":2031:2037  amount */\n  dup4\n    /* \"contracts/TinToken.sol\":1998:2038  Transfer(address(0), msg.sender, amount) */\n  mload(0x40)\n  tag_18\n  swap2\n  swap1\n  tag_19\n  jump\t// in\ntag_18:\n  mload(0x40)\n  dup1\n  swap2\n  sub\n  swap1\n  log3\n    /* \"contracts/TinToken.sol\":1868:2045  function mint(uint amount) public onlyOwner {... */\n  pop\n  jump\t// out\n    /* \"contracts/TinToken.sol\":81:2443  contract TinToken is IERC20 {... */\ntag_2:\n  dup3\n  dup1\n  sload\n  tag_20\n  swap1\n  tag_21\n  jump\t// in\ntag_20:\n  swap1\n  0x00\n  mstore\n  keccak256(0x00, 0x20)\n  swap1\n  0x1f\n  add\n  0x20\n  swap1\n  div\n  dup2\n  add\n  swap3\n  dup3\n  tag_23\n  jumpi\n  0x00\n  dup6\n  sstore\n  jump(tag_22)\ntag_23:\n  dup3\n  0x1f\n  lt\n  tag_24\n  jumpi\n  dup1\n  mload\n  not(0xff)\n  and\n  dup4\n  dup1\n  add\n  or\n  dup6\n  sstore\n  jump(tag_22)\ntag_24:\n  dup3\n  dup1\n  add\n  0x01\n  add\n  dup6\n  sstore\n  dup3\n  iszero\n  tag_22\n  jumpi\n  swap2\n  dup3\n  add\ntag_25:\n  dup3\n  dup2\n  gt\n  iszero\n  tag_26\n  jumpi\n  dup3\n  mload\n  dup3\n  sstore\n  swap2\n  0x20\n  add\n  swap2\n  swap1\n  0x01\n  add\n  swap1\n  jump(tag_25)\ntag_26:\ntag_22:\n  pop\n  swap1\n  pop\n  tag_27\n  swap2\n  swap1\n  tag_28\n  jump\t// in\ntag_27:\n  pop\n  swap1\n  jump\t// out\ntag_28:\ntag_29:\n  dup1\n  dup3\n  gt\n  iszero\n  tag_30\n  jumpi\n  0x00\n  dup2\n  0x00\n  swap1\n  sstore\n  pop\n  0x01\n  add\n  jump(tag_29)\ntag_30:\n  pop\n  swap1\n  jump\t// out\n    /* \"#utility.yul\":7:373   */\ntag_32:\n    /* \"#utility.yul\":149:152   */\n  0x00\n    /* \"#utility.yul\":170:237   */\n  tag_34\n    /* \"#utility.yul\":234:236   */\n  0x15\n    /* \"#utility.yul\":229:232   */\n  dup4\n    /* \"#utility.yul\":170:237   */\n  tag_35\n  jump\t// in\ntag_34:\n    /* \"#utility.yul\":163:237   */\n  swap2\n  pop\n    /* \"#utility.yul\":246:339   */\n  tag_36\n    /* \"#utility.yul\":335:338   */\n  dup3\n    /* \"#utility.yul\":246:339   */\n  tag_37\n  jump\t// in\ntag_36:\n    /* \"#utility.yul\":364:366   */\n  0x20\n    /* \"#utility.yul\":359:362   */\n  dup3\n    /* \"#utility.yul\":355:367   */\n  add\n    /* \"#utility.yul\":348:367   */\n  swap1\n  pop\n    /* \"#utility.yul\":7:373   */\n  swap2\n  swap1\n  pop\n  jump\t// out\n    /* \"#utility.yul\":379:497   */\ntag_38:\n    /* \"#utility.yul\":466:490   */\n  tag_40\n    /* \"#utility.yul\":484:489   */\n  dup2\n    /* \"#utility.yul\":466:490   */\n  tag_41\n  jump\t// in\ntag_40:\n    /* \"#utility.yul\":461:464   */\n  dup3\n    /* \"#utility.yul\":454:491   */\n  mstore\n    /* \"#utility.yul\":379:497   */\n  pop\n  pop\n  jump\t// out\n    /* \"#utility.yul\":503:922   */\ntag_13:\n    /* \"#utility.yul\":669:673   */\n  0x00\n    /* \"#utility.yul\":707:709   */\n  0x20\n    /* \"#utility.yul\":696:705   */\n  dup3\n    /* \"#utility.yul\":692:710   */\n  add\n    /* \"#utility.yul\":684:710   */\n  swap1\n  pop\n    /* \"#utility.yul\":756:765   */\n  dup2\n    /* \"#utility.yul\":750:754   */\n  dup2\n    /* \"#utility.yul\":746:766   */\n  sub\n    /* \"#utility.yul\":742:743   */\n  0x00\n    /* \"#utility.yul\":731:740   */\n  dup4\n    /* \"#utility.yul\":727:744   */\n  add\n    /* \"#utility.yul\":720:767   */\n  mstore\n    /* \"#utility.yul\":784:915   */\n  tag_43\n    /* \"#utility.yul\":910:914   */\n  dup2\n    /* \"#utility.yul\":784:915   */\n  tag_32\n  jump\t// in\ntag_43:\n    /* \"#utility.yul\":776:915   */\n  swap1\n  pop\n    /* \"#utility.yul\":503:922   */\n  swap2\n  swap1\n  pop\n  jump\t// out\n    /* \"#utility.yul\":928:1150   */\ntag_19:\n    /* \"#utility.yul\":1021:1025   */\n  0x00\n    /* \"#utility.yul\":1059:1061   */\n  0x20\n    /* \"#utility.yul\":1048:1057   */\n  dup3\n    /* \"#utility.yul\":1044:1062   */\n  add\n    /* \"#utility.yul\":1036:1062   */\n  swap1\n  pop\n    /* \"#utility.yul\":1072:1143   */\n  tag_45\n    /* \"#utility.yul\":1140:1141   */\n  0x00\n    /* \"#utility.yul\":1129:1138   */\n  dup4\n    /* \"#utility.yul\":1125:1142   */\n  add\n    /* \"#utility.yul\":1116:1122   */\n  dup5\n    /* \"#utility.yul\":1072:1143   */\n  tag_38\n  jump\t// in\ntag_45:\n    /* \"#utility.yul\":928:1150   */\n  swap3\n  swap2\n  pop\n  pop\n  jump\t// out\n    /* \"#utility.yul\":1156:1325   */\ntag_35:\n    /* \"#utility.yul\":1240:1251   */\n  0x00\n    /* \"#utility.yul\":1274:1280   */\n  dup3\n    /* \"#utility.yul\":1269:1272   */\n  dup3\n    /* \"#utility.yul\":1262:1281   */\n  mstore\n    /* \"#utility.yul\":1314:1318   */\n  0x20\n    /* \"#utility.yul\":1309:1312   */\n  dup3\n    /* \"#utility.yul\":1305:1319   */\n  add\n    /* \"#utility.yul\":1290:1319   */\n  swap1\n  pop\n    /* \"#utility.yul\":1156:1325   */\n  swap3\n  swap2\n  pop\n  pop\n  jump\t// out\n    /* \"#utility.yul\":1331:1636   */\ntag_16:\n    /* \"#utility.yul\":1371:1374   */\n  0x00\n    /* \"#utility.yul\":1390:1410   */\n  tag_48\n    /* \"#utility.yul\":1408:1409   */\n  dup3\n    /* \"#utility.yul\":1390:1410   */\n  tag_41\n  jump\t// in\ntag_48:\n    /* \"#utility.yul\":1385:1410   */\n  swap2\n  pop\n    /* \"#utility.yul\":1424:1444   */\n  tag_49\n    /* \"#utility.yul\":1442:1443   */\n  dup4\n    /* \"#utility.yul\":1424:1444   */\n  tag_41\n  jump\t// in\ntag_49:\n    /* \"#utility.yul\":1419:1444   */\n  swap3\n  pop\n    /* \"#utility.yul\":1578:1579   */\n  dup3\n    /* \"#utility.yul\":1510:1576   */\n  0xffffffffffffffffffffffffffffffffffffffffffffffffffffffffffffffff\n    /* \"#utility.yul\":1506:1580   */\n  sub\n    /* \"#utility.yul\":1503:1504   */\n  dup3\n    /* \"#utility.yul\":1500:1581   */\n  gt\n    /* \"#utility.yul\":1497:1604   */\n  iszero\n  tag_50\n  jumpi\n    /* \"#utility.yul\":1584:1602   */\n  tag_51\n  tag_52\n  jump\t// in\ntag_51:\n    /* \"#utility.yul\":1497:1604   */\ntag_50:\n    /* \"#utility.yul\":1628:1629   */\n  dup3\n    /* \"#utility.yul\":1625:1626   */\n  dup3\n    /* \"#utility.yul\":1621:1630   */\n  add\n    /* \"#utility.yul\":1614:1630   */\n  swap1\n  pop\n    /* \"#utility.yul\":1331:1636   */\n  swap3\n  swap2\n  pop\n  pop\n  jump\t// out\n    /* \"#utility.yul\":1642:1719   */\ntag_41:\n    /* \"#utility.yul\":1679:1686   */\n  0x00\n    /* \"#utility.yul\":1708:1713   */\n  dup2\n    /* \"#utility.yul\":1697:1713   */\n  swap1\n  pop\n    /* \"#utility.yul\":1642:1719   */\n  swap2\n  swap1\n  pop\n  jump\t// out\n    /* \"#utility.yul\":1725:2045   */\ntag_21:\n    /* \"#utility.yul\":1769:1775   */\n  0x00\n    /* \"#utility.yul\":1806:1807   */\n  0x02\n    /* \"#utility.yul\":1800:1804   */\n  dup3\n    /* \"#utility.yul\":1796:1808   */\n  div\n    /* \"#utility.yul\":1786:1808   */\n  swap1\n  pop\n    /* \"#utility.yul\":1853:1854   */\n  0x01\n    /* \"#utility.yul\":1847:1851   */\n  dup3\n    /* \"#utility.yul\":1843:1855   */\n  and\n    /* \"#utility.yul\":1874:1892   */\n  dup1\n    /* \"#utility.yul\":1864:1945   */\n  tag_55\n  jumpi\n    /* \"#utility.yul\":1930:1934   */\n  0x7f\n    /* \"#utility.yul\":1922:1928   */\n  dup3\n    /* \"#utility.yul\":1918:1935   */\n  and\n    /* \"#utility.yul\":1908:1935   */\n  swap2\n  pop\n    /* \"#utility.yul\":1864:1945   */\ntag_55:\n    /* \"#utility.yul\":1992:1994   */\n  0x20\n    /* \"#utility.yul\":1984:1990   */\n  dup3\n    /* \"#utility.yul\":1981:1995   */\n  lt\n    /* \"#utility.yul\":1961:1979   */\n  dup2\n    /* \"#utility.yul\":1958:1996   */\n  eq\n    /* \"#utility.yul\":1955:2039   */\n  iszero\n  tag_56\n  jumpi\n    /* \"#utility.yul\":2011:2029   */\n  tag_57\n  tag_58\n  jump\t// in\ntag_57:\n    /* \"#utility.yul\":1955:2039   */\ntag_56:\n    /* \"#utility.yul\":1776:2045   */\n  pop\n    /* \"#utility.yul\":1725:2045   */\n  swap2\n  swap1\n  pop\n  jump\t// out\n    /* \"#utility.yul\":2051:2231   */\ntag_52:\n    /* \"#utility.yul\":2099:2176   */\n  0x4e487b7100000000000000000000000000000000000000000000000000000000\n    /* \"#utility.yul\":2096:2097   */\n  0x00\n    /* \"#utility.yul\":2089:2177   */\n  mstore\n    /* \"#utility.yul\":2196:2200   */\n  0x11\n    /* \"#utility.yul\":2193:2194   */\n  0x04\n    /* \"#utility.yul\":2186:2201   */\n  mstore\n    /* \"#utility.yul\":2220:2224   */\n  0x24\n    /* \"#utility.yul\":2217:2218   */\n  0x00\n    /* \"#utility.yul\":2210:2225   */\n  revert\n    /* \"#utility.yul\":2237:2417   */\ntag_58:\n    /* \"#utility.yul\":2285:2362   */\n  0x4e487b7100000000000000000000000000000000000000000000000000000000\n    /* \"#utility.yul\":2282:2283   */\n  0x00\n    /* \"#utility.yul\":2275:2363   */\n  mstore\n    /* \"#utility.yul\":2382:2386   */\n  0x22\n    /* \"#utility.yul\":2379:2380   */\n  0x04\n    /* \"#utility.yul\":2372:2387   */\n  mstore\n    /* \"#utility.yul\":2406:2410   */\n  0x24\n    /* \"#utility.yul\":2403:2404   */\n  0x00\n    /* \"#utility.yul\":2396:2411   */\n  revert\n    /* \"#utility.yul\":2423:2594   */\ntag_37:\n    /* \"#utility.yul\":2563:2586   */\n  0x596f7520617265206e6f7420616e206f776e6572210000000000000000000000\n    /* \"#utility.yul\":2559:2560   */\n  0x00\n    /* \"#utility.yul\":2551:2557   */\n  dup3\n    /* \"#utility.yul\":2547:2561   */\n  add\n    /* \"#utility.yul\":2540:2587   */\n  mstore\n    /* \"#utility.yul\":2423:2594   */\n  pop\n  jump\t// out\n    /* \"contracts/TinToken.sol\":81:2443  contract TinToken is IERC20 {... */\ntag_9:\n  dataSize(sub_0)\n  dup1\n  dataOffset(sub_0)\n  0x00\n  codecopy\n  0x00\n  return\nstop\n\nsub_0: assembly {\n        /* \"contracts/TinToken.sol\":81:2443  contract TinToken is IERC20 {... */\n      mstore(0x40, 0x80)\n      jumpi(tag_1, lt(calldatasize, 0x04))\n      shr(0xe0, calldataload(0x00))\n      dup1\n      0x70a08231\n      gt\n      tag_16\n      jumpi\n      dup1\n      0xa0712d68\n      gt\n      tag_17\n      jumpi\n      dup1\n      0xa0712d68\n      eq\n      tag_12\n      jumpi\n      dup1\n      0xa9059cbb\n      eq\n      tag_13\n      jumpi\n      dup1\n      0xdd62ed3e\n      eq\n      tag_14\n      jumpi\n      dup1\n      0xe7c9922f\n      eq\n      tag_15\n      jumpi\n      jump(tag_2)\n    tag_17:\n      dup1\n      0x70a08231\n      eq\n      tag_9\n      jumpi\n      dup1\n      0x8ac32e45\n      eq\n      tag_10\n      jumpi\n      dup1\n      0x95d89b41\n      eq\n      tag_11\n      jumpi\n      jump(tag_2)\n    tag_16:\n      dup1\n      0x06fdde03\n      eq\n      tag_3\n      jumpi\n      dup1\n      0x095ea7b3\n      eq\n      tag_4\n      jumpi\n      dup1\n      0x18160ddd\n      eq\n      tag_5\n      jumpi\n      dup1\n      0x23b872dd\n      eq\n      tag_6\n      jumpi\n      dup1\n      0x313ce567\n      eq\n      tag_7\n      jumpi\n      dup1\n      0x42966c68\n      eq\n      tag_8\n      jumpi\n      jump(tag_2)\n    tag_1:\n      jumpi(tag_2, calldatasize)\n      stop\n    tag_2:\n      stop\n        /* \"contracts/TinToken.sol\":302:333  string public name = \"TinToken\" */\n    tag_3:\n      callvalue\n      dup1\n      iszero\n      tag_22\n      jumpi\n      0x00\n      dup1\n      revert\n    tag_22:\n      pop\n      tag_23\n      tag_24\n      jump\t// in\n    tag_23:\n      mload(0x40)\n      tag_25\n      swap2\n      swap1\n      tag_26\n      jump\t// in\n    tag_25:\n      mload(0x40)\n      dup1\n      swap2\n      sub\n      swap1\n      return\n        /* \"contracts/TinToken.sol\":1386:1560  function approve(address spender, uint amount) external override {... */\n    tag_4:\n      callvalue\n      dup1\n      iszero\n      tag_27\n      jumpi\n      0x00\n      dup1\n      revert\n    tag_27:\n      pop\n      tag_28\n      0x04\n      dup1\n      calldatasize\n      sub\n      dup2\n      add\n      swap1\n      tag_29\n      swap2\n      swap1\n      tag_30\n      jump\t// in\n    tag_29:\n      tag_31\n      jump\t// in\n    tag_28:\n      stop\n        /* \"contracts/TinToken.sol\":799:892  function totalSupply() public override view returns(uint) {... */\n    tag_5:\n      callvalue\n      dup1\n      iszero\n      tag_32\n      jumpi\n      0x00\n      dup1\n      revert\n    tag_32:\n      pop\n      tag_33\n      tag_34\n      jump\t// in\n    tag_33:\n      mload(0x40)\n      tag_35\n      swap2\n      swap1\n      tag_36\n      jump\t// in\n    tag_35:\n      mload(0x40)\n      dup1\n      swap2\n      sub\n      swap1\n      return\n        /* \"contracts/TinToken.sol\":1566:1862  function transferFrom(address sender, address recipient, uint amount) public override enoughTokens(sender, amount) {... */\n    tag_6:\n      callvalue\n      dup1\n      iszero\n      tag_37\n      jumpi\n      0x00\n      dup1\n      revert\n    tag_37:\n      pop\n      tag_38\n      0x04\n      dup1\n      calldatasize\n      sub\n      dup2\n      add\n      swap1\n      tag_39\n      swap2\n      swap1\n      tag_40\n      jump\t// in\n    tag_39:\n      tag_41\n      jump\t// in\n    tag_38:\n      stop\n        /* \"contracts/TinToken.sol\":713:793  function decimals() public override pure returns(uint) {... */\n    tag_7:\n      callvalue\n      dup1\n      iszero\n      tag_42\n      jumpi\n      0x00\n      dup1\n      revert\n    tag_42:\n      pop\n      tag_43\n      tag_44\n      jump\t// in\n    tag_43:\n      mload(0x40)\n      tag_45\n      swap2\n      swap1\n      tag_36\n      jump\t// in\n    tag_45:\n      mload(0x40)\n      dup1\n      swap2\n      sub\n      swap1\n      return\n        /* \"contracts/TinToken.sol\":2051:2261  function burn(uint amount) public enoughTokens(msg.sender, amount) onlyOwner {... */\n    tag_8:\n      callvalue\n      dup1\n      iszero\n      tag_46\n      jumpi\n      0x00\n      dup1\n      revert\n    tag_46:\n      pop\n      tag_47\n      0x04\n      dup1\n      calldatasize\n      sub\n      dup2\n      add\n      swap1\n      tag_48\n      swap2\n      swap1\n      tag_49\n      jump\t// in\n    tag_48:\n      tag_50\n      jump\t// in\n    tag_47:\n      stop\n        /* \"contracts/TinToken.sol\":898:1010  function balanceOf(address account) public override view returns(uint) {... */\n    tag_9:\n      callvalue\n      dup1\n      iszero\n      tag_51\n      jumpi\n      0x00\n      dup1\n      revert\n    tag_51:\n      pop\n      tag_52\n      0x04\n      dup1\n      calldatasize\n      sub\n      dup2\n      add\n      swap1\n      tag_53\n      swap2\n      swap1\n      tag_54\n      jump\t// in\n    tag_53:\n      tag_55\n      jump\t// in\n    tag_52:\n      mload(0x40)\n      tag_56\n      swap2\n      swap1\n      tag_36\n      jump\t// in\n    tag_56:\n      mload(0x40)\n      dup1\n      swap2\n      sub\n      swap1\n      return\n        /* \"contracts/TinToken.sol\":2267:2360  function registrationBonus(address _newUser) public {... */\n    tag_10:\n      callvalue\n      dup1\n      iszero\n      tag_57\n      jumpi\n      0x00\n      dup1\n      revert\n    tag_57:\n      pop\n      tag_58\n      0x04\n      dup1\n      calldatasize\n      sub\n      dup2\n      add\n      swap1\n      tag_59\n      swap2\n      swap1\n      tag_54\n      jump\t// in\n    tag_59:\n      tag_60\n      jump\t// in\n    tag_58:\n      stop\n        /* \"contracts/TinToken.sol\":339:367  string public symbol = \"TTN\" */\n    tag_11:\n      callvalue\n      dup1\n      iszero\n      tag_61\n      jumpi\n      0x00\n      dup1\n      revert\n    tag_61:\n      pop\n      tag_62\n      tag_63\n      jump\t// in\n    tag_62:\n      mload(0x40)\n      tag_64\n      swap2\n      swap1\n      tag_26\n      jump\t// in\n    tag_64:\n      mload(0x40)\n      dup1\n      swap2\n      sub\n      swap1\n      return\n        /* \"contracts/TinToken.sol\":1868:2045  function mint(uint amount) public onlyOwner {... */\n    tag_12:\n      callvalue\n      dup1\n      iszero\n      tag_65\n      jumpi\n      0x00\n      dup1\n      revert\n    tag_65:\n      pop\n      tag_66\n      0x04\n      dup1\n      calldatasize\n      sub\n      dup2\n      add\n      swap1\n      tag_67\n      swap2\n      swap1\n      tag_49\n      jump\t// in\n    tag_67:\n      tag_68\n      jump\t// in\n    tag_66:\n      stop\n        /* \"contracts/TinToken.sol\":1016:1236  function transfer(address to, uint amount) external override enoughTokens(msg.sender, amount) {... */\n    tag_13:\n      callvalue\n      dup1\n      iszero\n      tag_69\n      jumpi\n      0x00\n      dup1\n      revert\n    tag_69:\n      pop\n      tag_70\n      0x04\n      dup1\n      calldatasize\n      sub\n      dup2\n      add\n      swap1\n      tag_71\n      swap2\n      swap1\n      tag_30\n      jump\t// in\n    tag_71:\n      tag_72\n      jump\t// in\n    tag_70:\n      stop\n        /* \"contracts/TinToken.sol\":1242:1380  function allowance(address owner, address spender) external override view returns(uint) {... */\n    tag_14:\n      callvalue\n      dup1\n      iszero\n      tag_73\n      jumpi\n      0x00\n      dup1\n      revert\n    tag_73:\n      pop\n      tag_74\n      0x04\n      dup1\n      calldatasize\n      sub\n      dup2\n      add\n      swap1\n      tag_75\n      swap2\n      swap1\n      tag_76\n      jump\t// in\n    tag_75:\n      tag_77\n      jump\t// in\n    tag_74:\n      mload(0x40)\n      tag_78\n      swap2\n      swap1\n      tag_36\n      jump\t// in\n    tag_78:\n      mload(0x40)\n      dup1\n      swap2\n      sub\n      swap1\n      return\n        /* \"contracts/TinToken.sol\":115:139  address public thisOwner */\n    tag_15:\n      callvalue\n      dup1\n      iszero\n      tag_79\n      jumpi\n      0x00\n      dup1\n      revert\n    tag_79:\n      pop\n      tag_80\n      tag_81\n      jump\t// in\n    tag_80:\n      mload(0x40)\n      tag_82\n      swap2\n      swap1\n      tag_83\n      jump\t// in\n    tag_82:\n      mload(0x40)\n      dup1\n      swap2\n      sub\n      swap1\n      return\n        /* \"contracts/TinToken.sol\":302:333  string public name = \"TinToken\" */\n    tag_24:\n      0x05\n      dup1\n      sload\n      tag_84\n      swap1\n      tag_85\n      jump\t// in\n    tag_84:\n      dup1\n      0x1f\n      add\n      0x20\n      dup1\n      swap2\n      div\n      mul\n      0x20\n      add\n      mload(0x40)\n      swap1\n      dup2\n      add\n      0x40\n      mstore\n      dup1\n      swap3\n      swap2\n      swap1\n      dup2\n      dup2\n      mstore\n      0x20\n      add\n      dup3\n      dup1\n      sload\n      tag_86\n      swap1\n      tag_85\n      jump\t// in\n    tag_86:\n      dup1\n      iszero\n      tag_87\n      jumpi\n      dup1\n      0x1f\n      lt\n      tag_88\n      jumpi\n      0x0100\n      dup1\n      dup4\n      sload\n      div\n      mul\n      dup4\n      mstore\n      swap2\n      0x20\n      add\n      swap2\n      jump(tag_87)\n    tag_88:\n      dup3\n      add\n      swap2\n      swap1\n      0x00\n      mstore\n      keccak256(0x00, 0x20)\n      swap1\n    tag_89:\n      dup2\n      sload\n      dup2\n      mstore\n      swap1\n      0x01\n      add\n      swap1\n      0x20\n      add\n      dup1\n      dup4\n      gt\n      tag_89\n      jumpi\n      dup3\n      swap1\n      sub\n      0x1f\n      and\n      dup3\n      add\n      swap2\n    tag_87:\n      pop\n      pop\n      pop\n      pop\n      pop\n      dup2\n      jump\t// out\n        /* \"contracts/TinToken.sol\":1386:1560  function approve(address spender, uint amount) external override {... */\n    tag_31:\n        /* \"contracts/TinToken.sol\":1495:1501  amount */\n      dup1\n        /* \"contracts/TinToken.sol\":1461:1471  allowances */\n      0x04\n        /* \"contracts/TinToken.sol\":1461:1483  allowances[msg.sender] */\n      0x00\n        /* \"contracts/TinToken.sol\":1472:1482  msg.sender */\n      caller\n        /* \"contracts/TinToken.sol\":1461:1483  allowances[msg.sender] */\n      0xffffffffffffffffffffffffffffffffffffffff\n      and\n      0xffffffffffffffffffffffffffffffffffffffff\n      and\n      dup2\n      mstore\n      0x20\n      add\n      swap1\n      dup2\n      mstore\n      0x20\n      add\n      0x00\n      keccak256\n        /* \"contracts/TinToken.sol\":1461:1492  allowances[msg.sender][spender] */\n      0x00\n        /* \"contracts/TinToken.sol\":1484:1491  spender */\n      dup5\n        /* \"contracts/TinToken.sol\":1461:1492  allowances[msg.sender][spender] */\n      0xffffffffffffffffffffffffffffffffffffffff\n      and\n      0xffffffffffffffffffffffffffffffffffffffff\n      and\n      dup2\n      mstore\n      0x20\n      add\n      swap1\n      dup2\n      mstore\n      0x20\n      add\n      0x00\n      keccak256\n        /* \"contracts/TinToken.sol\":1461:1501  allowances[msg.sender][spender] = amount */\n      dup2\n      swap1\n      sstore\n      pop\n        /* \"contracts/TinToken.sol\":1537:1544  spender */\n      dup2\n        /* \"contracts/TinToken.sol\":1516:1553  Approval(msg.sender, spender, amount) */\n      0xffffffffffffffffffffffffffffffffffffffff\n      and\n        /* \"contracts/TinToken.sol\":1525:1535  msg.sender */\n      caller\n        /* \"contracts/TinToken.sol\":1516:1553  Approval(msg.sender, spender, amount) */\n      0xffffffffffffffffffffffffffffffffffffffff\n      and\n      0x8c5be1e5ebec7d5bd14f71427d1e84f3dd0314c0f7b2291e5b200ac8c7c3b925\n        /* \"contracts/TinToken.sol\":1546:1552  amount */\n      dup4\n        /* \"contracts/TinToken.sol\":1516:1553  Approval(msg.sender, spender, amount) */\n      mload(0x40)\n      tag_91\n      swap2\n      swap1\n      tag_36\n      jump\t// in\n    tag_91:\n      mload(0x40)\n      dup1\n      swap2\n      sub\n      swap1\n      log3\n        /* \"contracts/TinToken.sol\":1386:1560  function approve(address spender, uint amount) external override {... */\n      pop\n      pop\n      jump\t// out\n        /* \"contracts/TinToken.sol\":799:892  function totalSupply() public override view returns(uint) {... */\n    tag_34:\n        /* \"contracts/TinToken.sol\":851:855  uint */\n      0x00\n        /* \"contracts/TinToken.sol\":874:885  totalTokens */\n      sload(0x02)\n        /* \"contracts/TinToken.sol\":867:885  return totalTokens */\n      swap1\n      pop\n        /* \"contracts/TinToken.sol\":799:892  function totalSupply() public override view returns(uint) {... */\n      swap1\n      jump\t// out\n        /* \"contracts/TinToken.sol\":1566:1862  function transferFrom(address sender, address recipient, uint amount) public override enoughTokens(sender, amount) {... */\n    tag_41:\n        /* \"contracts/TinToken.sol\":1665:1671  sender */\n      dup3\n        /* \"contracts/TinToken.sol\":1673:1679  amount */\n      dup2\n        /* \"contracts/TinToken.sol\":549:556  _amount */\n      dup1\n        /* \"contracts/TinToken.sol\":529:545  balanceOf(_from) */\n      tag_94\n        /* \"contracts/TinToken.sol\":539:544  _from */\n      dup4\n        /* \"contracts/TinToken.sol\":529:538  balanceOf */\n      tag_55\n        /* \"contracts/TinToken.sol\":529:545  balanceOf(_from) */\n      jump\t// in\n    tag_94:\n        /* \"contracts/TinToken.sol\":529:556  balanceOf(_from) >= _amount */\n      lt\n      iszero\n        /* \"contracts/TinToken.sol\":521:579  require(balanceOf(_from) >= _amount, \"Not enough tokens!\") */\n      tag_95\n      jumpi\n      mload(0x40)\n      0x08c379a000000000000000000000000000000000000000000000000000000000\n      dup2\n      mstore\n      0x04\n      add\n      tag_96\n      swap1\n      tag_97\n      jump\t// in\n    tag_96:\n      mload(0x40)\n      dup1\n      swap2\n      sub\n      swap1\n      revert\n    tag_95:\n        /* \"contracts/TinToken.sol\":1724:1730  amount */\n      dup3\n        /* \"contracts/TinToken.sol\":1691:1701  allowances */\n      0x04\n        /* \"contracts/TinToken.sol\":1691:1709  allowances[sender] */\n      0x00\n        /* \"contracts/TinToken.sol\":1702:1708  sender */\n      dup8\n        /* \"contracts/TinToken.sol\":1691:1709  allowances[sender] */\n      0xffffffffffffffffffffffffffffffffffffffff\n      and\n      0xffffffffffffffffffffffffffffffffffffffff\n      and\n      dup2\n      mstore\n      0x20\n      add\n      swap1\n      dup2\n      mstore\n      0x20\n      add\n      0x00\n      keccak256\n        /* \"contracts/TinToken.sol\":1691:1720  allowances[sender][recipient] */\n      0x00\n        /* \"contracts/TinToken.sol\":1710:1719  recipient */\n      dup7\n        /* \"contracts/TinToken.sol\":1691:1720  allowances[sender][recipient] */\n      0xffffffffffffffffffffffffffffffffffffffff\n      and\n      0xffffffffffffffffffffffffffffffffffffffff\n      and\n      dup2\n      mstore\n      0x20\n      add\n      swap1\n      dup2\n      mstore\n      0x20\n      add\n      0x00\n      keccak256\n      0x00\n        /* \"contracts/TinToken.sol\":1691:1730  allowances[sender][recipient] -= amount */\n      dup3\n      dup3\n      sload\n      tag_99\n      swap2\n      swap1\n      tag_100\n      jump\t// in\n    tag_99:\n      swap3\n      pop\n      pop\n      dup2\n      swap1\n      sstore\n      pop\n        /* \"contracts/TinToken.sol\":1760:1766  amount */\n      dup3\n        /* \"contracts/TinToken.sol\":1740:1748  balances */\n      0x03\n        /* \"contracts/TinToken.sol\":1740:1756  balances[sender] */\n      0x00\n        /* \"contracts/TinToken.sol\":1749:1755  sender */\n      dup8\n        /* \"contracts/TinToken.sol\":1740:1756  balances[sender] */\n      0xffffffffffffffffffffffffffffffffffffffff\n      and\n      0xffffffffffffffffffffffffffffffffffffffff\n      and\n      dup2\n      mstore\n      0x20\n      add\n      swap1\n      dup2\n      mstore\n      0x20\n      add\n      0x00\n      keccak256\n      0x00\n        /* \"contracts/TinToken.sol\":1740:1766  balances[sender] -= amount */\n      dup3\n      dup3\n      sload\n      tag_101\n      swap2\n      swap1\n      tag_100\n      jump\t// in\n    tag_101:\n      swap3\n      pop\n      pop\n      dup2\n      swap1\n      sstore\n      pop\n        /* \"contracts/TinToken.sol\":1799:1805  amount */\n      dup3\n        /* \"contracts/TinToken.sol\":1776:1784  balances */\n      0x03\n        /* \"contracts/TinToken.sol\":1776:1795  balances[recipient] */\n      0x00\n        /* \"contracts/TinToken.sol\":1785:1794  recipient */\n      dup7\n        /* \"contracts/TinToken.sol\":1776:1795  balances[recipient] */\n      0xffffffffffffffffffffffffffffffffffffffff\n      and\n      0xffffffffffffffffffffffffffffffffffffffff\n      and\n      dup2\n      mstore\n      0x20\n      add\n      swap1\n      dup2\n      mstore\n      0x20\n      add\n      0x00\n      keccak256\n      0x00\n        /* \"contracts/TinToken.sol\":1776:1805  balances[recipient] += amount */\n      dup3\n      dup3\n      sload\n      tag_102\n      swap2\n      swap1\n      tag_103\n      jump\t// in\n    tag_102:\n      swap3\n      pop\n      pop\n      dup2\n      swap1\n      sstore\n      pop\n        /* \"contracts/TinToken.sol\":1837:1846  recipient */\n      dup4\n        /* \"contracts/TinToken.sol\":1820:1855  Transfer(sender, recipient, amount) */\n      0xffffffffffffffffffffffffffffffffffffffff\n      and\n        /* \"contracts/TinToken.sol\":1829:1835  sender */\n      dup6\n        /* \"contracts/TinToken.sol\":1820:1855  Transfer(sender, recipient, amount) */\n      0xffffffffffffffffffffffffffffffffffffffff\n      and\n      0xddf252ad1be2c89b69c2b068fc378daa952ba7f163c4a11628f55a4df523b3ef\n        /* \"contracts/TinToken.sol\":1848:1854  amount */\n      dup6\n        /* \"contracts/TinToken.sol\":1820:1855  Transfer(sender, recipient, amount) */\n      mload(0x40)\n      tag_104\n      swap2\n      swap1\n      tag_36\n      jump\t// in\n    tag_104:\n      mload(0x40)\n      dup1\n      swap2\n      sub\n      swap1\n      log3\n        /* \"contracts/TinToken.sol\":1566:1862  function transferFrom(address sender, address recipient, uint amount) public override enoughTokens(sender, amount) {... */\n      pop\n      pop\n      pop\n      pop\n      pop\n      jump\t// out\n        /* \"contracts/TinToken.sol\":713:793  function decimals() public override pure returns(uint) {... */\n    tag_44:\n        /* \"contracts/TinToken.sol\":762:766  uint */\n      0x00\n        /* \"contracts/TinToken.sol\":785:786  3 */\n      0x03\n        /* \"contracts/TinToken.sol\":778:786  return 3 */\n      swap1\n      pop\n        /* \"contracts/TinToken.sol\":713:793  function decimals() public override pure returns(uint) {... */\n      swap1\n      jump\t// out\n        /* \"contracts/TinToken.sol\":2051:2261  function burn(uint amount) public enoughTokens(msg.sender, amount) onlyOwner {... */\n    tag_50:\n        /* \"contracts/TinToken.sol\":2098:2108  msg.sender */\n      caller\n        /* \"contracts/TinToken.sol\":2110:2116  amount */\n      dup2\n        /* \"contracts/TinToken.sol\":549:556  _amount */\n      dup1\n        /* \"contracts/TinToken.sol\":529:545  balanceOf(_from) */\n      tag_107\n        /* \"contracts/TinToken.sol\":539:544  _from */\n      dup4\n        /* \"contracts/TinToken.sol\":529:538  balanceOf */\n      tag_55\n        /* \"contracts/TinToken.sol\":529:545  balanceOf(_from) */\n      jump\t// in\n    tag_107:\n        /* \"contracts/TinToken.sol\":529:556  balanceOf(_from) >= _amount */\n      lt\n      iszero\n        /* \"contracts/TinToken.sol\":521:579  require(balanceOf(_from) >= _amount, \"Not enough tokens!\") */\n      tag_108\n      jumpi\n      mload(0x40)\n      0x08c379a000000000000000000000000000000000000000000000000000000000\n      dup2\n      mstore\n      0x04\n      add\n      tag_109\n      swap1\n      tag_97\n      jump\t// in\n    tag_109:\n      mload(0x40)\n      dup1\n      swap2\n      sub\n      swap1\n      revert\n    tag_108:\n        /* \"contracts/TinToken.sol\":654:663  thisOwner */\n      0x00\n      dup1\n      sload\n      swap1\n      0x0100\n      exp\n      swap1\n      div\n      0xffffffffffffffffffffffffffffffffffffffff\n      and\n        /* \"contracts/TinToken.sol\":640:663  msg.sender == thisOwner */\n      0xffffffffffffffffffffffffffffffffffffffff\n      and\n        /* \"contracts/TinToken.sol\":640:650  msg.sender */\n      caller\n        /* \"contracts/TinToken.sol\":640:663  msg.sender == thisOwner */\n      0xffffffffffffffffffffffffffffffffffffffff\n      and\n      eq\n        /* \"contracts/TinToken.sol\":632:689  require(msg.sender == thisOwner, \"You are not an owner!\") */\n      tag_111\n      jumpi\n      mload(0x40)\n      0x08c379a000000000000000000000000000000000000000000000000000000000\n      dup2\n      mstore\n      0x04\n      add\n      tag_112\n      swap1\n      tag_113\n      jump\t// in\n    tag_112:\n      mload(0x40)\n      dup1\n      swap2\n      sub\n      swap1\n      revert\n    tag_111:\n        /* \"contracts/TinToken.sol\":2162:2168  amount */\n      dup3\n        /* \"contracts/TinToken.sol\":2138:2146  balances */\n      0x03\n        /* \"contracts/TinToken.sol\":2138:2158  balances[msg.sender] */\n      0x00\n        /* \"contracts/TinToken.sol\":2147:2157  msg.sender */\n      caller\n        /* \"contracts/TinToken.sol\":2138:2158  balances[msg.sender] */\n      0xffffffffffffffffffffffffffffffffffffffff\n      and\n      0xffffffffffffffffffffffffffffffffffffffff\n      and\n      dup2\n      mstore\n      0x20\n      add\n      swap1\n      dup2\n      mstore\n      0x20\n      add\n      0x00\n      keccak256\n      0x00\n        /* \"contracts/TinToken.sol\":2138:2168  balances[msg.sender] -= amount */\n      dup3\n      dup3\n      sload\n      tag_115\n      swap2\n      swap1\n      tag_100\n      jump\t// in\n    tag_115:\n      swap3\n      pop\n      pop\n      dup2\n      swap1\n      sstore\n      pop\n        /* \"contracts/TinToken.sol\":2193:2199  amount */\n      dup3\n        /* \"contracts/TinToken.sol\":2178:2189  totalTokens */\n      0x02\n      0x00\n        /* \"contracts/TinToken.sol\":2178:2199  totalTokens -= amount */\n      dup3\n      dup3\n      sload\n      tag_116\n      swap2\n      swap1\n      tag_100\n      jump\t// in\n    tag_116:\n      swap3\n      pop\n      pop\n      dup2\n      swap1\n      sstore\n      pop\n        /* \"contracts/TinToken.sol\":2243:2244  0 */\n      0x00\n        /* \"contracts/TinToken.sol\":2214:2254  Transfer(msg.sender, address(0), amount) */\n      0xffffffffffffffffffffffffffffffffffffffff\n      and\n        /* \"contracts/TinToken.sol\":2223:2233  msg.sender */\n      caller\n        /* \"contracts/TinToken.sol\":2214:2254  Transfer(msg.sender, address(0), amount) */\n      0xffffffffffffffffffffffffffffffffffffffff\n      and\n      0xddf252ad1be2c89b69c2b068fc378daa952ba7f163c4a11628f55a4df523b3ef\n        /* \"contracts/TinToken.sol\":2247:2253  amount */\n      dup6\n        /* \"contracts/TinToken.sol\":2214:2254  Transfer(msg.sender, address(0), amount) */\n      mload(0x40)\n      tag_117\n      swap2\n      swap1\n      tag_36\n      jump\t// in\n    tag_117:\n      mload(0x40)\n      dup1\n      swap2\n      sub\n      swap1\n      log3\n        /* \"contracts/TinToken.sol\":2051:2261  function burn(uint amount) public enoughTokens(msg.sender, amount) onlyOwner {... */\n      pop\n      pop\n      pop\n      jump\t// out\n        /* \"contracts/TinToken.sol\":898:1010  function balanceOf(address account) public override view returns(uint) {... */\n    tag_55:\n        /* \"contracts/TinToken.sol\":963:967  uint */\n      0x00\n        /* \"contracts/TinToken.sol\":986:994  balances */\n      0x03\n        /* \"contracts/TinToken.sol\":986:1003  balances[account] */\n      0x00\n        /* \"contracts/TinToken.sol\":995:1002  account */\n      dup4\n        /* \"contracts/TinToken.sol\":986:1003  balances[account] */\n      0xffffffffffffffffffffffffffffffffffffffff\n      and\n      0xffffffffffffffffffffffffffffffffffffffff\n      and\n      dup2\n      mstore\n      0x20\n      add\n      swap1\n      dup2\n      mstore\n      0x20\n      add\n      0x00\n      keccak256\n      sload\n        /* \"contracts/TinToken.sol\":979:1003  return balances[account] */\n      swap1\n      pop\n        /* \"contracts/TinToken.sol\":898:1010  function balanceOf(address account) public override view returns(uint) {... */\n      swap2\n      swap1\n      pop\n      jump\t// out\n        /* \"contracts/TinToken.sol\":2267:2360  function registrationBonus(address _newUser) public {... */\n    tag_60:\n        /* \"contracts/TinToken.sol\":2351:2353  10 */\n      0x0a\n        /* \"contracts/TinToken.sol\":2329:2337  balances */\n      0x03\n        /* \"contracts/TinToken.sol\":2329:2347  balances[_newUser] */\n      0x00\n        /* \"contracts/TinToken.sol\":2338:2346  _newUser */\n      dup4\n        /* \"contracts/TinToken.sol\":2329:2347  balances[_newUser] */\n      0xffffffffffffffffffffffffffffffffffffffff\n      and\n      0xffffffffffffffffffffffffffffffffffffffff\n      and\n      dup2\n      mstore\n      0x20\n      add\n      swap1\n      dup2\n      mstore\n      0x20\n      add\n      0x00\n      keccak256\n      0x00\n        /* \"contracts/TinToken.sol\":2329:2353  balances[_newUser] += 10 */\n      dup3\n      dup3\n      sload\n      tag_120\n      swap2\n      swap1\n      tag_103\n      jump\t// in\n    tag_120:\n      swap3\n      pop\n      pop\n      dup2\n      swap1\n      sstore\n      pop\n        /* \"contracts/TinToken.sol\":2267:2360  function registrationBonus(address _newUser) public {... */\n      pop\n      jump\t// out\n        /* \"contracts/TinToken.sol\":339:367  string public symbol = \"TTN\" */\n    tag_63:\n      0x06\n      dup1\n      sload\n      tag_121\n      swap1\n      tag_85\n      jump\t// in\n    tag_121:\n      dup1\n      0x1f\n      add\n      0x20\n      dup1\n      swap2\n      div\n      mul\n      0x20\n      add\n      mload(0x40)\n      swap1\n      dup2\n      add\n      0x40\n      mstore\n      dup1\n      swap3\n      swap2\n      swap1\n      dup2\n      dup2\n      mstore\n      0x20\n      add\n      dup3\n      dup1\n      sload\n      tag_122\n      swap1\n      tag_85\n      jump\t// in\n    tag_122:\n      dup1\n      iszero\n      tag_123\n      jumpi\n      dup1\n      0x1f\n      lt\n      tag_124\n      jumpi\n      0x0100\n      dup1\n      dup4\n      sload\n      div\n      mul\n      dup4\n      mstore\n      swap2\n      0x20\n      add\n      swap2\n      jump(tag_123)\n    tag_124:\n      dup3\n      add\n      swap2\n      swap1\n      0x00\n      mstore\n      keccak256(0x00, 0x20)\n      swap1\n    tag_125:\n      dup2\n      sload\n      dup2\n      mstore\n      swap1\n      0x01\n      add\n      swap1\n      0x20\n      add\n      dup1\n      dup4\n      gt\n      tag_125\n      jumpi\n      dup3\n      swap1\n      sub\n      0x1f\n      and\n      dup3\n      add\n      swap2\n    tag_123:\n      pop\n      pop\n      pop\n      pop\n      pop\n      dup2\n      jump\t// out\n        /* \"contracts/TinToken.sol\":1868:2045  function mint(uint amount) public onlyOwner {... */\n    tag_68:\n        /* \"contracts/TinToken.sol\":654:663  thisOwner */\n      0x00\n      dup1\n      sload\n      swap1\n      0x0100\n      exp\n      swap1\n      div\n      0xffffffffffffffffffffffffffffffffffffffff\n      and\n        /* \"contracts/TinToken.sol\":640:663  msg.sender == thisOwner */\n      0xffffffffffffffffffffffffffffffffffffffff\n      and\n        /* \"contracts/TinToken.sol\":640:650  msg.sender */\n      caller\n        /* \"contracts/TinToken.sol\":640:663  msg.sender == thisOwner */\n      0xffffffffffffffffffffffffffffffffffffffff\n      and\n      eq\n        /* \"contracts/TinToken.sol\":632:689  require(msg.sender == thisOwner, \"You are not an owner!\") */\n      tag_127\n      jumpi\n      mload(0x40)\n      0x08c379a000000000000000000000000000000000000000000000000000000000\n      dup2\n      mstore\n      0x04\n      add\n      tag_128\n      swap1\n      tag_113\n      jump\t// in\n    tag_128:\n      mload(0x40)\n      dup1\n      swap2\n      sub\n      swap1\n      revert\n    tag_127:\n        /* \"contracts/TinToken.sol\":1946:1952  amount */\n      dup1\n        /* \"contracts/TinToken.sol\":1922:1930  balances */\n      0x03\n        /* \"contracts/TinToken.sol\":1922:1942  balances[msg.sender] */\n      0x00\n        /* \"contracts/TinToken.sol\":1931:1941  msg.sender */\n      caller\n        /* \"contracts/TinToken.sol\":1922:1942  balances[msg.sender] */\n      0xffffffffffffffffffffffffffffffffffffffff\n      and\n      0xffffffffffffffffffffffffffffffffffffffff\n      and\n      dup2\n      mstore\n      0x20\n      add\n      swap1\n      dup2\n      mstore\n      0x20\n      add\n      0x00\n      keccak256\n      0x00\n        /* \"contracts/TinToken.sol\":1922:1952  balances[msg.sender] += amount */\n      dup3\n      dup3\n      sload\n      tag_130\n      swap2\n      swap1\n      tag_103\n      jump\t// in\n    tag_130:\n      swap3\n      pop\n      pop\n      dup2\n      swap1\n      sstore\n      pop\n        /* \"contracts/TinToken.sol\":1977:1983  amount */\n      dup1\n        /* \"contracts/TinToken.sol\":1962:1973  totalTokens */\n      0x02\n      0x00\n        /* \"contracts/TinToken.sol\":1962:1983  totalTokens += amount */\n      dup3\n      dup3\n      sload\n      tag_131\n      swap2\n      swap1\n      tag_103\n      jump\t// in\n    tag_131:\n      swap3\n      pop\n      pop\n      dup2\n      swap1\n      sstore\n      pop\n        /* \"contracts/TinToken.sol\":2019:2029  msg.sender */\n      caller\n        /* \"contracts/TinToken.sol\":1998:2038  Transfer(address(0), msg.sender, amount) */\n      0xffffffffffffffffffffffffffffffffffffffff\n      and\n        /* \"contracts/TinToken.sol\":2015:2016  0 */\n      0x00\n        /* \"contracts/TinToken.sol\":1998:2038  Transfer(address(0), msg.sender, amount) */\n      0xffffffffffffffffffffffffffffffffffffffff\n      and\n      0xddf252ad1be2c89b69c2b068fc378daa952ba7f163c4a11628f55a4df523b3ef\n        /* \"contracts/TinToken.sol\":2031:2037  amount */\n      dup4\n        /* \"contracts/TinToken.sol\":1998:2038  Transfer(address(0), msg.sender, amount) */\n      mload(0x40)\n      tag_132\n      swap2\n      swap1\n      tag_36\n      jump\t// in\n    tag_132:\n      mload(0x40)\n      dup1\n      swap2\n      sub\n      swap1\n      log3\n        /* \"contracts/TinToken.sol\":1868:2045  function mint(uint amount) public onlyOwner {... */\n      pop\n      jump\t// out\n        /* \"contracts/TinToken.sol\":1016:1236  function transfer(address to, uint amount) external override enoughTokens(msg.sender, amount) {... */\n    tag_72:\n        /* \"contracts/TinToken.sol\":1090:1100  msg.sender */\n      caller\n        /* \"contracts/TinToken.sol\":1102:1108  amount */\n      dup2\n        /* \"contracts/TinToken.sol\":549:556  _amount */\n      dup1\n        /* \"contracts/TinToken.sol\":529:545  balanceOf(_from) */\n      tag_134\n        /* \"contracts/TinToken.sol\":539:544  _from */\n      dup4\n        /* \"contracts/TinToken.sol\":529:538  balanceOf */\n      tag_55\n        /* \"contracts/TinToken.sol\":529:545  balanceOf(_from) */\n      jump\t// in\n    tag_134:\n        /* \"contracts/TinToken.sol\":529:556  balanceOf(_from) >= _amount */\n      lt\n      iszero\n        /* \"contracts/TinToken.sol\":521:579  require(balanceOf(_from) >= _amount, \"Not enough tokens!\") */\n      tag_135\n      jumpi\n      mload(0x40)\n      0x08c379a000000000000000000000000000000000000000000000000000000000\n      dup2\n      mstore\n      0x04\n      add\n      tag_136\n      swap1\n      tag_97\n      jump\t// in\n    tag_136:\n      mload(0x40)\n      dup1\n      swap2\n      sub\n      swap1\n      revert\n    tag_135:\n        /* \"contracts/TinToken.sol\":1144:1150  amount */\n      dup3\n        /* \"contracts/TinToken.sol\":1120:1128  balances */\n      0x03\n        /* \"contracts/TinToken.sol\":1120:1140  balances[msg.sender] */\n      0x00\n        /* \"contracts/TinToken.sol\":1129:1139  msg.sender */\n      caller\n        /* \"contracts/TinToken.sol\":1120:1140  balances[msg.sender] */\n      0xffffffffffffffffffffffffffffffffffffffff\n      and\n      0xffffffffffffffffffffffffffffffffffffffff\n      and\n      dup2\n      mstore\n      0x20\n      add\n      swap1\n      dup2\n      mstore\n      0x20\n      add\n      0x00\n      keccak256\n      0x00\n        /* \"contracts/TinToken.sol\":1120:1150  balances[msg.sender] -= amount */\n      dup3\n      dup3\n      sload\n      tag_138\n      swap2\n      swap1\n      tag_100\n      jump\t// in\n    tag_138:\n      swap3\n      pop\n      pop\n      dup2\n      swap1\n      sstore\n      pop\n        /* \"contracts/TinToken.sol\":1176:1182  amount */\n      dup3\n        /* \"contracts/TinToken.sol\":1160:1168  balances */\n      0x03\n        /* \"contracts/TinToken.sol\":1160:1172  balances[to] */\n      0x00\n        /* \"contracts/TinToken.sol\":1169:1171  to */\n      dup7\n        /* \"contracts/TinToken.sol\":1160:1172  balances[to] */\n      0xffffffffffffffffffffffffffffffffffffffff\n      and\n      0xffffffffffffffffffffffffffffffffffffffff\n      and\n      dup2\n      mstore\n      0x20\n      add\n      swap1\n      dup2\n      mstore\n      0x20\n      add\n      0x00\n      keccak256\n      0x00\n        /* \"contracts/TinToken.sol\":1160:1182  balances[to] += amount */\n      dup3\n      dup3\n      sload\n      tag_139\n      swap2\n      swap1\n      tag_103\n      jump\t// in\n    tag_139:\n      swap3\n      pop\n      pop\n      dup2\n      swap1\n      sstore\n      pop\n        /* \"contracts/TinToken.sol\":1218:1220  to */\n      dup4\n        /* \"contracts/TinToken.sol\":1197:1229  Transfer(msg.sender, to ,amount) */\n      0xffffffffffffffffffffffffffffffffffffffff\n      and\n        /* \"contracts/TinToken.sol\":1206:1216  msg.sender */\n      caller\n        /* \"contracts/TinToken.sol\":1197:1229  Transfer(msg.sender, to ,amount) */\n      0xffffffffffffffffffffffffffffffffffffffff\n      and\n      0xddf252ad1be2c89b69c2b068fc378daa952ba7f163c4a11628f55a4df523b3ef\n        /* \"contracts/TinToken.sol\":1222:1228  amount */\n      dup6\n        /* \"contracts/TinToken.sol\":1197:1229  Transfer(msg.sender, to ,amount) */\n      mload(0x40)\n      tag_140\n      swap2\n      swap1\n      tag_36\n      jump\t// in\n    tag_140:\n      mload(0x40)\n      dup1\n      swap2\n      sub\n      swap1\n      log3\n        /* \"contracts/TinToken.sol\":1016:1236  function transfer(address to, uint amount) external override enoughTokens(msg.sender, amount) {... */\n      pop\n      pop\n      pop\n      pop\n      jump\t// out\n        /* \"contracts/TinToken.sol\":1242:1380  function allowance(address owner, address spender) external override view returns(uint) {... */\n    tag_77:\n        /* \"contracts/TinToken.sol\":1324:1328  uint */\n      0x00\n        /* \"contracts/TinToken.sol\":1347:1357  allowances */\n      0x04\n        /* \"contracts/TinToken.sol\":1347:1364  allowances[owner] */\n      0x00\n        /* \"contracts/TinToken.sol\":1358:1363  owner */\n      dup5\n        /* \"contracts/TinToken.sol\":1347:1364  allowances[owner] */\n      0xffffffffffffffffffffffffffffffffffffffff\n      and\n      0xffffffffffffffffffffffffffffffffffffffff\n      and\n      dup2\n      mstore\n      0x20\n      add\n      swap1\n      dup2\n      mstore\n      0x20\n      add\n      0x00\n      keccak256\n        /* \"contracts/TinToken.sol\":1347:1373  allowances[owner][spender] */\n      0x00\n        /* \"contracts/TinToken.sol\":1365:1372  spender */\n      dup4\n        /* \"contracts/TinToken.sol\":1347:1373  allowances[owner][spender] */\n      0xffffffffffffffffffffffffffffffffffffffff\n      and\n      0xffffffffffffffffffffffffffffffffffffffff\n      and\n      dup2\n      mstore\n      0x20\n      add\n      swap1\n      dup2\n      mstore\n      0x20\n      add\n      0x00\n      keccak256\n      sload\n        /* \"contracts/TinToken.sol\":1340:1373  return allowances[owner][spender] */\n      swap1\n      pop\n        /* \"contracts/TinToken.sol\":1242:1380  function allowance(address owner, address spender) external override view returns(uint) {... */\n      swap3\n      swap2\n      pop\n      pop\n      jump\t// out\n        /* \"contracts/TinToken.sol\":115:139  address public thisOwner */\n    tag_81:\n      0x00\n      dup1\n      sload\n      swap1\n      0x0100\n      exp\n      swap1\n      div\n      0xffffffffffffffffffffffffffffffffffffffff\n      and\n      dup2\n      jump\t// out\n        /* \"#utility.yul\":7:146   */\n    tag_143:\n        /* \"#utility.yul\":53:58   */\n      0x00\n        /* \"#utility.yul\":91:97   */\n      dup2\n        /* \"#utility.yul\":78:98   */\n      calldataload\n        /* \"#utility.yul\":69:98   */\n      swap1\n      pop\n        /* \"#utility.yul\":107:140   */\n      tag_145\n        /* \"#utility.yul\":134:139   */\n      dup2\n        /* \"#utility.yul\":107:140   */\n      tag_146\n      jump\t// in\n    tag_145:\n        /* \"#utility.yul\":7:146   */\n      swap3\n      swap2\n      pop\n      pop\n      jump\t// out\n        /* \"#utility.yul\":152:291   */\n    tag_147:\n        /* \"#utility.yul\":198:203   */\n      0x00\n        /* \"#utility.yul\":236:242   */\n      dup2\n        /* \"#utility.yul\":223:243   */\n      calldataload\n        /* \"#utility.yul\":214:243   */\n      swap1\n      pop\n        /* \"#utility.yul\":252:285   */\n      tag_149\n        /* \"#utility.yul\":279:284   */\n      dup2\n        /* \"#utility.yul\":252:285   */\n      tag_150\n      jump\t// in\n    tag_149:\n        /* \"#utility.yul\":152:291   */\n      swap3\n      swap2\n      pop\n      pop\n      jump\t// out\n        /* \"#utility.yul\":297:626   */\n    tag_54:\n        /* \"#utility.yul\":356:362   */\n      0x00\n        /* \"#utility.yul\":405:407   */\n      0x20\n        /* \"#utility.yul\":393:402   */\n      dup3\n        /* \"#utility.yul\":384:391   */\n      dup5\n        /* \"#utility.yul\":380:403   */\n      sub\n        /* \"#utility.yul\":376:408   */\n      slt\n        /* \"#utility.yul\":373:492   */\n      iszero\n      tag_152\n      jumpi\n        /* \"#utility.yul\":411:490   */\n      tag_153\n      tag_154\n      jump\t// in\n    tag_153:\n        /* \"#utility.yul\":373:492   */\n    tag_152:\n        /* \"#utility.yul\":531:532   */\n      0x00\n        /* \"#utility.yul\":556:609   */\n      tag_155\n        /* \"#utility.yul\":601:608   */\n      dup5\n        /* \"#utility.yul\":592:598   */\n      dup3\n        /* \"#utility.yul\":581:590   */\n      dup6\n        /* \"#utility.yul\":577:599   */\n      add\n        /* \"#utility.yul\":556:609   */\n      tag_143\n      jump\t// in\n    tag_155:\n        /* \"#utility.yul\":546:609   */\n      swap2\n      pop\n        /* \"#utility.yul\":502:619   */\n      pop\n        /* \"#utility.yul\":297:626   */\n      swap3\n      swap2\n      pop\n      pop\n      jump\t// out\n        /* \"#utility.yul\":632:1106   */\n    tag_76:\n        /* \"#utility.yul\":700:706   */\n      0x00\n        /* \"#utility.yul\":708:714   */\n      dup1\n        /* \"#utility.yul\":757:759   */\n      0x40\n        /* \"#utility.yul\":745:754   */\n      dup4\n        /* \"#utility.yul\":736:743   */\n      dup6\n        /* \"#utility.yul\":732:755   */\n      sub\n        /* \"#utility.yul\":728:760   */\n      slt\n        /* \"#utility.yul\":725:844   */\n      iszero\n      tag_157\n      jumpi\n        /* \"#utility.yul\":763:842   */\n      tag_158\n      tag_154\n      jump\t// in\n    tag_158:\n        /* \"#utility.yul\":725:844   */\n    tag_157:\n        /* \"#utility.yul\":883:884   */\n      0x00\n        /* \"#utility.yul\":908:961   */\n      tag_159\n        /* \"#utility.yul\":953:960   */\n      dup6\n        /* \"#utility.yul\":944:950   */\n      dup3\n        /* \"#utility.yul\":933:942   */\n      dup7\n        /* \"#utility.yul\":929:951   */\n      add\n        /* \"#utility.yul\":908:961   */\n      tag_143\n      jump\t// in\n    tag_159:\n        /* \"#utility.yul\":898:961   */\n      swap3\n      pop\n        /* \"#utility.yul\":854:971   */\n      pop\n        /* \"#utility.yul\":1010:1012   */\n      0x20\n        /* \"#utility.yul\":1036:1089   */\n      tag_160\n        /* \"#utility.yul\":1081:1088   */\n      dup6\n        /* \"#utility.yul\":1072:1078   */\n      dup3\n        /* \"#utility.yul\":1061:1070   */\n      dup7\n        /* \"#utility.yul\":1057:1079   */\n      add\n        /* \"#utility.yul\":1036:1089   */\n      tag_143\n      jump\t// in\n    tag_160:\n        /* \"#utility.yul\":1026:1089   */\n      swap2\n      pop\n        /* \"#utility.yul\":981:1099   */\n      pop\n        /* \"#utility.yul\":632:1106   */\n      swap3\n      pop\n      swap3\n      swap1\n      pop\n      jump\t// out\n        /* \"#utility.yul\":1112:1731   */\n    tag_40:\n        /* \"#utility.yul\":1189:1195   */\n      0x00\n        /* \"#utility.yul\":1197:1203   */\n      dup1\n        /* \"#utility.yul\":1205:1211   */\n      0x00\n        /* \"#utility.yul\":1254:1256   */\n      0x60\n        /* \"#utility.yul\":1242:1251   */\n      dup5\n        /* \"#utility.yul\":1233:1240   */\n      dup7\n        /* \"#utility.yul\":1229:1252   */\n      sub\n        /* \"#utility.yul\":1225:1257   */\n      slt\n        /* \"#utility.yul\":1222:1341   */\n      iszero\n      tag_162\n      jumpi\n        /* \"#utility.yul\":1260:1339   */\n      tag_163\n      tag_154\n      jump\t// in\n    tag_163:\n        /* \"#utility.yul\":1222:1341   */\n    tag_162:\n        /* \"#utility.yul\":1380:1381   */\n      0x00\n        /* \"#utility.yul\":1405:1458   */\n      tag_164\n        /* \"#utility.yul\":1450:1457   */\n      dup7\n        /* \"#utility.yul\":1441:1447   */\n      dup3\n        /* \"#utility.yul\":1430:1439   */\n      dup8\n        /* \"#utility.yul\":1426:1448   */\n      add\n        /* \"#utility.yul\":1405:1458   */\n      tag_143\n      jump\t// in\n    tag_164:\n        /* \"#utility.yul\":1395:1458   */\n      swap4\n      pop\n        /* \"#utility.yul\":1351:1468   */\n      pop\n        /* \"#utility.yul\":1507:1509   */\n      0x20\n        /* \"#utility.yul\":1533:1586   */\n      tag_165\n        /* \"#utility.yul\":1578:1585   */\n      dup7\n        /* \"#utility.yul\":1569:1575   */\n      dup3\n        /* \"#utility.yul\":1558:1567   */\n      dup8\n        /* \"#utility.yul\":1554:1576   */\n      add\n        /* \"#utility.yul\":1533:1586   */\n      tag_143\n      jump\t// in\n    tag_165:\n        /* \"#utility.yul\":1523:1586   */\n      swap3\n      pop\n        /* \"#utility.yul\":1478:1596   */\n      pop\n        /* \"#utility.yul\":1635:1637   */\n      0x40\n        /* \"#utility.yul\":1661:1714   */\n      tag_166\n        /* \"#utility.yul\":1706:1713   */\n      dup7\n        /* \"#utility.yul\":1697:1703   */\n      dup3\n        /* \"#utility.yul\":1686:1695   */\n      dup8\n        /* \"#utility.yul\":1682:1704   */\n      add\n        /* \"#utility.yul\":1661:1714   */\n      tag_147\n      jump\t// in\n    tag_166:\n        /* \"#utility.yul\":1651:1714   */\n      swap2\n      pop\n        /* \"#utility.yul\":1606:1724   */\n      pop\n        /* \"#utility.yul\":1112:1731   */\n      swap3\n      pop\n      swap3\n      pop\n      swap3\n      jump\t// out\n        /* \"#utility.yul\":1737:2211   */\n    tag_30:\n        /* \"#utility.yul\":1805:1811   */\n      0x00\n        /* \"#utility.yul\":1813:1819   */\n      dup1\n        /* \"#utility.yul\":1862:1864   */\n      0x40\n        /* \"#utility.yul\":1850:1859   */\n      dup4\n        /* \"#utility.yul\":1841:1848   */\n      dup6\n        /* \"#utility.yul\":1837:1860   */\n      sub\n        /* \"#utility.yul\":1833:1865   */\n      slt\n        /* \"#utility.yul\":1830:1949   */\n      iszero\n      tag_168\n      jumpi\n        /* \"#utility.yul\":1868:1947   */\n      tag_169\n      tag_154\n      jump\t// in\n    tag_169:\n        /* \"#utility.yul\":1830:1949   */\n    tag_168:\n        /* \"#utility.yul\":1988:1989   */\n      0x00\n        /* \"#utility.yul\":2013:2066   */\n      tag_170\n        /* \"#utility.yul\":2058:2065   */\n      dup6\n        /* \"#utility.yul\":2049:2055   */\n      dup3\n        /* \"#utility.yul\":2038:2047   */\n      dup7\n        /* \"#utility.yul\":2034:2056   */\n      add\n        /* \"#utility.yul\":2013:2066   */\n      tag_143\n      jump\t// in\n    tag_170:\n        /* \"#utility.yul\":2003:2066   */\n      swap3\n      pop\n        /* \"#utility.yul\":1959:2076   */\n      pop\n        /* \"#utility.yul\":2115:2117   */\n      0x20\n        /* \"#utility.yul\":2141:2194   */\n      tag_171\n        /* \"#utility.yul\":2186:2193   */\n      dup6\n        /* \"#utility.yul\":2177:2183   */\n      dup3\n        /* \"#utility.yul\":2166:2175   */\n      dup7\n        /* \"#utility.yul\":2162:2184   */\n      add\n        /* \"#utility.yul\":2141:2194   */\n      tag_147\n      jump\t// in\n    tag_171:\n        /* \"#utility.yul\":2131:2194   */\n      swap2\n      pop\n        /* \"#utility.yul\":2086:2204   */\n      pop\n        /* \"#utility.yul\":1737:2211   */\n      swap3\n      pop\n      swap3\n      swap1\n      pop\n      jump\t// out\n        /* \"#utility.yul\":2217:2546   */\n    tag_49:\n        /* \"#utility.yul\":2276:2282   */\n      0x00\n        /* \"#utility.yul\":2325:2327   */\n      0x20\n        /* \"#utility.yul\":2313:2322   */\n      dup3\n        /* \"#utility.yul\":2304:2311   */\n      dup5\n        /* \"#utility.yul\":2300:2323   */\n      sub\n        /* \"#utility.yul\":2296:2328   */\n      slt\n        /* \"#utility.yul\":2293:2412   */\n      iszero\n      tag_173\n      jumpi\n        /* \"#utility.yul\":2331:2410   */\n      tag_174\n      tag_154\n      jump\t// in\n    tag_174:\n        /* \"#utility.yul\":2293:2412   */\n    tag_173:\n        /* \"#utility.yul\":2451:2452   */\n      0x00\n        /* \"#utility.yul\":2476:2529   */\n      tag_175\n        /* \"#utility.yul\":2521:2528   */\n      dup5\n        /* \"#utility.yul\":2512:2518   */\n      dup3\n        /* \"#utility.yul\":2501:2510   */\n      dup6\n        /* \"#utility.yul\":2497:2519   */\n      add\n        /* \"#utility.yul\":2476:2529   */\n      tag_147\n      jump\t// in\n    tag_175:\n        /* \"#utility.yul\":2466:2529   */\n      swap2\n      pop\n        /* \"#utility.yul\":2422:2539   */\n      pop\n        /* \"#utility.yul\":2217:2546   */\n      swap3\n      swap2\n      pop\n      pop\n      jump\t// out\n        /* \"#utility.yul\":2552:2670   */\n    tag_176:\n        /* \"#utility.yul\":2639:2663   */\n      tag_178\n        /* \"#utility.yul\":2657:2662   */\n      dup2\n        /* \"#utility.yul\":2639:2663   */\n      tag_179\n      jump\t// in\n    tag_178:\n        /* \"#utility.yul\":2634:2637   */\n      dup3\n        /* \"#utility.yul\":2627:2664   */\n      mstore\n        /* \"#utility.yul\":2552:2670   */\n      pop\n      pop\n      jump\t// out\n        /* \"#utility.yul\":2676:3040   */\n    tag_180:\n        /* \"#utility.yul\":2764:2767   */\n      0x00\n        /* \"#utility.yul\":2792:2831   */\n      tag_182\n        /* \"#utility.yul\":2825:2830   */\n      dup3\n        /* \"#utility.yul\":2792:2831   */\n      tag_183\n      jump\t// in\n    tag_182:\n        /* \"#utility.yul\":2847:2918   */\n      tag_184\n        /* \"#utility.yul\":2911:2917   */\n      dup2\n        /* \"#utility.yul\":2906:2909   */\n      dup6\n        /* \"#utility.yul\":2847:2918   */\n      tag_185\n      jump\t// in\n    tag_184:\n        /* \"#utility.yul\":2840:2918   */\n      swap4\n      pop\n        /* \"#utility.yul\":2927:2979   */\n      tag_186\n        /* \"#utility.yul\":2972:2978   */\n      dup2\n        /* \"#utility.yul\":2967:2970   */\n      dup6\n        /* \"#utility.yul\":2960:2964   */\n      0x20\n        /* \"#utility.yul\":2953:2958   */\n      dup7\n        /* \"#utility.yul\":2949:2965   */\n      add\n        /* \"#utility.yul\":2927:2979   */\n      tag_187\n      jump\t// in\n    tag_186:\n        /* \"#utility.yul\":3004:3033   */\n      tag_188\n        /* \"#utility.yul\":3026:3032   */\n      dup2\n        /* \"#utility.yul\":3004:3033   */\n      tag_189\n      jump\t// in\n    tag_188:\n        /* \"#utility.yul\":2999:3002   */\n      dup5\n        /* \"#utility.yul\":2995:3034   */\n      add\n        /* \"#utility.yul\":2988:3034   */\n      swap2\n      pop\n        /* \"#utility.yul\":2768:3040   */\n      pop\n        /* \"#utility.yul\":2676:3040   */\n      swap3\n      swap2\n      pop\n      pop\n      jump\t// out\n        /* \"#utility.yul\":3046:3412   */\n    tag_190:\n        /* \"#utility.yul\":3188:3191   */\n      0x00\n        /* \"#utility.yul\":3209:3276   */\n      tag_192\n        /* \"#utility.yul\":3273:3275   */\n      0x15\n        /* \"#utility.yul\":3268:3271   */\n      dup4\n        /* \"#utility.yul\":3209:3276   */\n      tag_185\n      jump\t// in\n    tag_192:\n        /* \"#utility.yul\":3202:3276   */\n      swap2\n      pop\n        /* \"#utility.yul\":3285:3378   */\n      tag_193\n        /* \"#utility.yul\":3374:3377   */\n      dup3\n        /* \"#utility.yul\":3285:3378   */\n      tag_194\n      jump\t// in\n    tag_193:\n        /* \"#utility.yul\":3403:3405   */\n      0x20\n        /* \"#utility.yul\":3398:3401   */\n      dup3\n        /* \"#utility.yul\":3394:3406   */\n      add\n        /* \"#utility.yul\":3387:3406   */\n      swap1\n      pop\n        /* \"#utility.yul\":3046:3412   */\n      swap2\n      swap1\n      pop\n      jump\t// out\n        /* \"#utility.yul\":3418:3784   */\n    tag_195:\n        /* \"#utility.yul\":3560:3563   */\n      0x00\n        /* \"#utility.yul\":3581:3648   */\n      tag_197\n        /* \"#utility.yul\":3645:3647   */\n      0x12\n        /* \"#utility.yul\":3640:3643   */\n      dup4\n        /* \"#utility.yul\":3581:3648   */\n      tag_185\n      jump\t// in\n    tag_197:\n        /* \"#utility.yul\":3574:3648   */\n      swap2\n      pop\n        /* \"#utility.yul\":3657:3750   */\n      tag_198\n        /* \"#utility.yul\":3746:3749   */\n      dup3\n        /* \"#utility.yul\":3657:3750   */\n      tag_199\n      jump\t// in\n    tag_198:\n        /* \"#utility.yul\":3775:3777   */\n      0x20\n        /* \"#utility.yul\":3770:3773   */\n      dup3\n        /* \"#utility.yul\":3766:3778   */\n      add\n        /* \"#utility.yul\":3759:3778   */\n      swap1\n      pop\n        /* \"#utility.yul\":3418:3784   */\n      swap2\n      swap1\n      pop\n      jump\t// out\n        /* \"#utility.yul\":3790:3908   */\n    tag_200:\n        /* \"#utility.yul\":3877:3901   */\n      tag_202\n        /* \"#utility.yul\":3895:3900   */\n      dup2\n        /* \"#utility.yul\":3877:3901   */\n      tag_203\n      jump\t// in\n    tag_202:\n        /* \"#utility.yul\":3872:3875   */\n      dup3\n        /* \"#utility.yul\":3865:3902   */\n      mstore\n        /* \"#utility.yul\":3790:3908   */\n      pop\n      pop\n      jump\t// out\n        /* \"#utility.yul\":3914:4136   */\n    tag_83:\n        /* \"#utility.yul\":4007:4011   */\n      0x00\n        /* \"#utility.yul\":4045:4047   */\n      0x20\n        /* \"#utility.yul\":4034:4043   */\n      dup3\n        /* \"#utility.yul\":4030:4048   */\n      add\n        /* \"#utility.yul\":4022:4048   */\n      swap1\n      pop\n        /* \"#utility.yul\":4058:4129   */\n      tag_205\n        /* \"#utility.yul\":4126:4127   */\n      0x00\n        /* \"#utility.yul\":4115:4124   */\n      dup4\n        /* \"#utility.yul\":4111:4128   */\n      add\n        /* \"#utility.yul\":4102:4108   */\n      dup5\n        /* \"#utility.yul\":4058:4129   */\n      tag_176\n      jump\t// in\n    tag_205:\n        /* \"#utility.yul\":3914:4136   */\n      swap3\n      swap2\n      pop\n      pop\n      jump\t// out\n        /* \"#utility.yul\":4142:4455   */\n    tag_26:\n        /* \"#utility.yul\":4255:4259   */\n      0x00\n        /* \"#utility.yul\":4293:4295   */\n      0x20\n        /* \"#utility.yul\":4282:4291   */\n      dup3\n        /* \"#utility.yul\":4278:4296   */\n      add\n        /* \"#utility.yul\":4270:4296   */\n      swap1\n      pop\n        /* \"#utility.yul\":4342:4351   */\n      dup2\n        /* \"#utility.yul\":4336:4340   */\n      dup2\n        /* \"#utility.yul\":4332:4352   */\n      sub\n        /* \"#utility.yul\":4328:4329   */\n      0x00\n        /* \"#utility.yul\":4317:4326   */\n      dup4\n        /* \"#utility.yul\":4313:4330   */\n      add\n        /* \"#utility.yul\":4306:4353   */\n      mstore\n        /* \"#utility.yul\":4370:4448   */\n      tag_207\n        /* \"#utility.yul\":4443:4447   */\n      dup2\n        /* \"#utility.yul\":4434:4440   */\n      dup5\n        /* \"#utility.yul\":4370:4448   */\n      tag_180\n      jump\t// in\n    tag_207:\n        /* \"#utility.yul\":4362:4448   */\n      swap1\n      pop\n        /* \"#utility.yul\":4142:4455   */\n      swap3\n      swap2\n      pop\n      pop\n      jump\t// out\n        /* \"#utility.yul\":4461:4880   */\n    tag_113:\n        /* \"#utility.yul\":4627:4631   */\n      0x00\n        /* \"#utility.yul\":4665:4667   */\n      0x20\n        /* \"#utility.yul\":4654:4663   */\n      dup3\n        /* \"#utility.yul\":4650:4668   */\n      add\n        /* \"#utility.yul\":4642:4668   */\n      swap1\n      pop\n        /* \"#utility.yul\":4714:4723   */\n      dup2\n        /* \"#utility.yul\":4708:4712   */\n      dup2\n        /* \"#utility.yul\":4704:4724   */\n      sub\n        /* \"#utility.yul\":4700:4701   */\n      0x00\n        /* \"#utility.yul\":4689:4698   */\n      dup4\n        /* \"#utility.yul\":4685:4702   */\n      add\n        /* \"#utility.yul\":4678:4725   */\n      mstore\n        /* \"#utility.yul\":4742:4873   */\n      tag_209\n        /* \"#utility.yul\":4868:4872   */\n      dup2\n        /* \"#utility.yul\":4742:4873   */\n      tag_190\n      jump\t// in\n    tag_209:\n        /* \"#utility.yul\":4734:4873   */\n      swap1\n      pop\n        /* \"#utility.yul\":4461:4880   */\n      swap2\n      swap1\n      pop\n      jump\t// out\n        /* \"#utility.yul\":4886:5305   */\n    tag_97:\n        /* \"#utility.yul\":5052:5056   */\n      0x00\n        /* \"#utility.yul\":5090:5092   */\n      0x20\n        /* \"#utility.yul\":5079:5088   */\n      dup3\n        /* \"#utility.yul\":5075:5093   */\n      add\n        /* \"#utility.yul\":5067:5093   */\n      swap1\n      pop\n        /* \"#utility.yul\":5139:5148   */\n      dup2\n        /* \"#utility.yul\":5133:5137   */\n      dup2\n        /* \"#utility.yul\":5129:5149   */\n      sub\n        /* \"#utility.yul\":5125:5126   */\n      0x00\n        /* \"#utility.yul\":5114:5123   */\n      dup4\n        /* \"#utility.yul\":5110:5127   */\n      add\n        /* \"#utility.yul\":5103:5150   */\n      mstore\n        /* \"#utility.yul\":5167:5298   */\n      tag_211\n        /* \"#utility.yul\":5293:5297   */\n      dup2\n        /* \"#utility.yul\":5167:5298   */\n      tag_195\n      jump\t// in\n    tag_211:\n        /* \"#utility.yul\":5159:5298   */\n      swap1\n      pop\n        /* \"#utility.yul\":4886:5305   */\n      swap2\n      swap1\n      pop\n      jump\t// out\n        /* \"#utility.yul\":5311:5533   */\n    tag_36:\n        /* \"#utility.yul\":5404:5408   */\n      0x00\n        /* \"#utility.yul\":5442:5444   */\n      0x20\n        /* \"#utility.yul\":5431:5440   */\n      dup3\n        /* \"#utility.yul\":5427:5445   */\n      add\n        /* \"#utility.yul\":5419:5445   */\n      swap1\n      pop\n        /* \"#utility.yul\":5455:5526   */\n      tag_213\n        /* \"#utility.yul\":5523:5524   */\n      0x00\n        /* \"#utility.yul\":5512:5521   */\n      dup4\n        /* \"#utility.yul\":5508:5525   */\n      add\n        /* \"#utility.yul\":5499:5505   */\n      dup5\n        /* \"#utility.yul\":5455:5526   */\n      tag_200\n      jump\t// in\n    tag_213:\n        /* \"#utility.yul\":5311:5533   */\n      swap3\n      swap2\n      pop\n      pop\n      jump\t// out\n        /* \"#utility.yul\":5620:5719   */\n    tag_183:\n        /* \"#utility.yul\":5672:5678   */\n      0x00\n        /* \"#utility.yul\":5706:5711   */\n      dup2\n        /* \"#utility.yul\":5700:5712   */\n      mload\n        /* \"#utility.yul\":5690:5712   */\n      swap1\n      pop\n        /* \"#utility.yul\":5620:5719   */\n      swap2\n      swap1\n      pop\n      jump\t// out\n        /* \"#utility.yul\":5725:5894   */\n    tag_185:\n        /* \"#utility.yul\":5809:5820   */\n      0x00\n        /* \"#utility.yul\":5843:5849   */\n      dup3\n        /* \"#utility.yul\":5838:5841   */\n      dup3\n        /* \"#utility.yul\":5831:5850   */\n      mstore\n        /* \"#utility.yul\":5883:5887   */\n      0x20\n        /* \"#utility.yul\":5878:5881   */\n      dup3\n        /* \"#utility.yul\":5874:5888   */\n      add\n        /* \"#utility.yul\":5859:5888   */\n      swap1\n      pop\n        /* \"#utility.yul\":5725:5894   */\n      swap3\n      swap2\n      pop\n      pop\n      jump\t// out\n        /* \"#utility.yul\":5900:6205   */\n    tag_103:\n        /* \"#utility.yul\":5940:5943   */\n      0x00\n        /* \"#utility.yul\":5959:5979   */\n      tag_219\n        /* \"#utility.yul\":5977:5978   */\n      dup3\n        /* \"#utility.yul\":5959:5979   */\n      tag_203\n      jump\t// in\n    tag_219:\n        /* \"#utility.yul\":5954:5979   */\n      swap2\n      pop\n        /* \"#utility.yul\":5993:6013   */\n      tag_220\n        /* \"#utility.yul\":6011:6012   */\n      dup4\n        /* \"#utility.yul\":5993:6013   */\n      tag_203\n      jump\t// in\n    tag_220:\n        /* \"#utility.yul\":5988:6013   */\n      swap3\n      pop\n        /* \"#utility.yul\":6147:6148   */\n      dup3\n        /* \"#utility.yul\":6079:6145   */\n      0xffffffffffffffffffffffffffffffffffffffffffffffffffffffffffffffff\n        /* \"#utility.yul\":6075:6149   */\n      sub\n        /* \"#utility.yul\":6072:6073   */\n      dup3\n        /* \"#utility.yul\":6069:6150   */\n      gt\n        /* \"#utility.yul\":6066:6173   */\n      iszero\n      tag_221\n      jumpi\n        /* \"#utility.yul\":6153:6171   */\n      tag_222\n      tag_223\n      jump\t// in\n    tag_222:\n        /* \"#utility.yul\":6066:6173   */\n    tag_221:\n        /* \"#utility.yul\":6197:6198   */\n      dup3\n        /* \"#utility.yul\":6194:6195   */\n      dup3\n        /* \"#utility.yul\":6190:6199   */\n      add\n        /* \"#utility.yul\":6183:6199   */\n      swap1\n      pop\n        /* \"#utility.yul\":5900:6205   */\n      swap3\n      swap2\n      pop\n      pop\n      jump\t// out\n        /* \"#utility.yul\":6211:6402   */\n    tag_100:\n        /* \"#utility.yul\":6251:6255   */\n      0x00\n        /* \"#utility.yul\":6271:6291   */\n      tag_225\n        /* \"#utility.yul\":6289:6290   */\n      dup3\n        /* \"#utility.yul\":6271:6291   */\n      tag_203\n      jump\t// in\n    tag_225:\n        /* \"#utility.yul\":6266:6291   */\n      swap2\n      pop\n        /* \"#utility.yul\":6305:6325   */\n      tag_226\n        /* \"#utility.yul\":6323:6324   */\n      dup4\n        /* \"#utility.yul\":6305:6325   */\n      tag_203\n      jump\t// in\n    tag_226:\n        /* \"#utility.yul\":6300:6325   */\n      swap3\n      pop\n        /* \"#utility.yul\":6344:6345   */\n      dup3\n        /* \"#utility.yul\":6341:6342   */\n      dup3\n        /* \"#utility.yul\":6338:6346   */\n      lt\n        /* \"#utility.yul\":6335:6369   */\n      iszero\n      tag_227\n      jumpi\n        /* \"#utility.yul\":6349:6367   */\n      tag_228\n      tag_223\n      jump\t// in\n    tag_228:\n        /* \"#utility.yul\":6335:6369   */\n    tag_227:\n        /* \"#utility.yul\":6394:6395   */\n      dup3\n        /* \"#utility.yul\":6391:6392   */\n      dup3\n        /* \"#utility.yul\":6387:6396   */\n      sub\n        /* \"#utility.yul\":6379:6396   */\n      swap1\n      pop\n        /* \"#utility.yul\":6211:6402   */\n      swap3\n      swap2\n      pop\n      pop\n      jump\t// out\n        /* \"#utility.yul\":6408:6504   */\n    tag_179:\n        /* \"#utility.yul\":6445:6452   */\n      0x00\n        /* \"#utility.yul\":6474:6498   */\n      tag_230\n        /* \"#utility.yul\":6492:6497   */\n      dup3\n        /* \"#utility.yul\":6474:6498   */\n      tag_231\n      jump\t// in\n    tag_230:\n        /* \"#utility.yul\":6463:6498   */\n      swap1\n      pop\n        /* \"#utility.yul\":6408:6504   */\n      swap2\n      swap1\n      pop\n      jump\t// out\n        /* \"#utility.yul\":6510:6636   */\n    tag_231:\n        /* \"#utility.yul\":6547:6554   */\n      0x00\n        /* \"#utility.yul\":6587:6629   */\n      0xffffffffffffffffffffffffffffffffffffffff\n        /* \"#utility.yul\":6580:6585   */\n      dup3\n        /* \"#utility.yul\":6576:6630   */\n      and\n        /* \"#utility.yul\":6565:6630   */\n      swap1\n      pop\n        /* \"#utility.yul\":6510:6636   */\n      swap2\n      swap1\n      pop\n      jump\t// out\n        /* \"#utility.yul\":6642:6719   */\n    tag_203:\n        /* \"#utility.yul\":6679:6686   */\n      0x00\n        /* \"#utility.yul\":6708:6713   */\n      dup2\n        /* \"#utility.yul\":6697:6713   */\n      swap1\n      pop\n        /* \"#utility.yul\":6642:6719   */\n      swap2\n      swap1\n      pop\n      jump\t// out\n        /* \"#utility.yul\":6725:7032   */\n    tag_187:\n        /* \"#utility.yul\":6793:6794   */\n      0x00\n        /* \"#utility.yul\":6803:6916   */\n    tag_235:\n        /* \"#utility.yul\":6817:6823   */\n      dup4\n        /* \"#utility.yul\":6814:6815   */\n      dup2\n        /* \"#utility.yul\":6811:6824   */\n      lt\n        /* \"#utility.yul\":6803:6916   */\n      iszero\n      tag_237\n      jumpi\n        /* \"#utility.yul\":6902:6903   */\n      dup1\n        /* \"#utility.yul\":6897:6900   */\n      dup3\n        /* \"#utility.yul\":6893:6904   */\n      add\n        /* \"#utility.yul\":6887:6905   */\n      mload\n        /* \"#utility.yul\":6883:6884   */\n      dup2\n        /* \"#utility.yul\":6878:6881   */\n      dup5\n        /* \"#utility.yul\":6874:6885   */\n      add\n        /* \"#utility.yul\":6867:6906   */\n      mstore\n        /* \"#utility.yul\":6839:6841   */\n      0x20\n        /* \"#utility.yul\":6836:6837   */\n      dup2\n        /* \"#utility.yul\":6832:6842   */\n      add\n        /* \"#utility.yul\":6827:6842   */\n      swap1\n      pop\n        /* \"#utility.yul\":6803:6916   */\n      jump(tag_235)\n    tag_237:\n        /* \"#utility.yul\":6934:6940   */\n      dup4\n        /* \"#utility.yul\":6931:6932   */\n      dup2\n        /* \"#utility.yul\":6928:6941   */\n      gt\n        /* \"#utility.yul\":6925:7026   */\n      iszero\n      tag_238\n      jumpi\n        /* \"#utility.yul\":7014:7015   */\n      0x00\n        /* \"#utility.yul\":7005:7011   */\n      dup5\n        /* \"#utility.yul\":7000:7003   */\n      dup5\n        /* \"#utility.yul\":6996:7012   */\n      add\n        /* \"#utility.yul\":6989:7016   */\n      mstore\n        /* \"#utility.yul\":6925:7026   */\n    tag_238:\n        /* \"#utility.yul\":6774:7032   */\n      pop\n        /* \"#utility.yul\":6725:7032   */\n      pop\n      pop\n      pop\n      jump\t// out\n        /* \"#utility.yul\":7038:7358   */\n    tag_85:\n        /* \"#utility.yul\":7082:7088   */\n      0x00\n        /* \"#utility.yul\":7119:7120   */\n      0x02\n        /* \"#utility.yul\":7113:7117   */\n      dup3\n        /* \"#utility.yul\":7109:7121   */\n      div\n        /* \"#utility.yul\":7099:7121   */\n      swap1\n      pop\n        /* \"#utility.yul\":7166:7167   */\n      0x01\n        /* \"#utility.yul\":7160:7164   */\n      dup3\n        /* \"#utility.yul\":7156:7168   */\n      and\n        /* \"#utility.yul\":7187:7205   */\n      dup1\n        /* \"#utility.yul\":7177:7258   */\n      tag_240\n      jumpi\n        /* \"#utility.yul\":7243:7247   */\n      0x7f\n        /* \"#utility.yul\":7235:7241   */\n      dup3\n        /* \"#utility.yul\":7231:7248   */\n      and\n        /* \"#utility.yul\":7221:7248   */\n      swap2\n      pop\n        /* \"#utility.yul\":7177:7258   */\n    tag_240:\n        /* \"#utility.yul\":7305:7307   */\n      0x20\n        /* \"#utility.yul\":7297:7303   */\n      dup3\n        /* \"#utility.yul\":7294:7308   */\n      lt\n        /* \"#utility.yul\":7274:7292   */\n      dup2\n        /* \"#utility.yul\":7271:7309   */\n      eq\n        /* \"#utility.yul\":7268:7352   */\n      iszero\n      tag_241\n      jumpi\n        /* \"#utility.yul\":7324:7342   */\n      tag_242\n      tag_243\n      jump\t// in\n    tag_242:\n        /* \"#utility.yul\":7268:7352   */\n    tag_241:\n        /* \"#utility.yul\":7089:7358   */\n      pop\n        /* \"#utility.yul\":7038:7358   */\n      swap2\n      swap1\n      pop\n      jump\t// out\n        /* \"#utility.yul\":7364:7544   */\n    tag_223:\n        /* \"#utility.yul\":7412:7489   */\n      0x4e487b7100000000000000000000000000000000000000000000000000000000\n        /* \"#utility.yul\":7409:7410   */\n      0x00\n        /* \"#utility.yul\":7402:7490   */\n      mstore\n        /* \"#utility.yul\":7509:7513   */\n      0x11\n        /* \"#utility.yul\":7506:7507   */\n      0x04\n        /* \"#utility.yul\":7499:7514   */\n      mstore\n        /* \"#utility.yul\":7533:7537   */\n      0x24\n        /* \"#utility.yul\":7530:7531   */\n      0x00\n        /* \"#utility.yul\":7523:7538   */\n      revert\n        /* \"#utility.yul\":7550:7730   */\n    tag_243:\n        /* \"#utility.yul\":7598:7675   */\n      0x4e487b7100000000000000000000000000000000000000000000000000000000\n        /* \"#utility.yul\":7595:7596   */\n      0x00\n        /* \"#utility.yul\":7588:7676   */\n      mstore\n        /* \"#utility.yul\":7695:7699   */\n      0x22\n        /* \"#utility.yul\":7692:7693   */\n      0x04\n        /* \"#utility.yul\":7685:7700   */\n      mstore\n        /* \"#utility.yul\":7719:7723   */\n      0x24\n        /* \"#utility.yul\":7716:7717   */\n      0x00\n        /* \"#utility.yul\":7709:7724   */\n      revert\n        /* \"#utility.yul\":7859:7976   */\n    tag_154:\n        /* \"#utility.yul\":7968:7969   */\n      0x00\n        /* \"#utility.yul\":7965:7966   */\n      dup1\n        /* \"#utility.yul\":7958:7970   */\n      revert\n        /* \"#utility.yul\":7982:8084   */\n    tag_189:\n        /* \"#utility.yul\":8023:8029   */\n      0x00\n        /* \"#utility.yul\":8074:8076   */\n      0x1f\n        /* \"#utility.yul\":8070:8077   */\n      not\n        /* \"#utility.yul\":8065:8067   */\n      0x1f\n        /* \"#utility.yul\":8058:8063   */\n      dup4\n        /* \"#utility.yul\":8054:8068   */\n      add\n        /* \"#utility.yul\":8050:8078   */\n      and\n        /* \"#utility.yul\":8040:8078   */\n      swap1\n      pop\n        /* \"#utility.yul\":7982:8084   */\n      swap2\n      swap1\n      pop\n      jump\t// out\n        /* \"#utility.yul\":8090:8261   */\n    tag_194:\n        /* \"#utility.yul\":8230:8253   */\n      0x596f7520617265206e6f7420616e206f776e6572210000000000000000000000\n        /* \"#utility.yul\":8226:8227   */\n      0x00\n        /* \"#utility.yul\":8218:8224   */\n      dup3\n        /* \"#utility.yul\":8214:8228   */\n      add\n        /* \"#utility.yul\":8207:8254   */\n      mstore\n        /* \"#utility.yul\":8090:8261   */\n      pop\n      jump\t// out\n        /* \"#utility.yul\":8267:8435   */\n    tag_199:\n        /* \"#utility.yul\":8407:8427   */\n      0x4e6f7420656e6f75676820746f6b656e73210000000000000000000000000000\n        /* \"#utility.yul\":8403:8404   */\n      0x00\n        /* \"#utility.yul\":8395:8401   */\n      dup3\n        /* \"#utility.yul\":8391:8405   */\n      add\n        /* \"#utility.yul\":8384:8428   */\n      mstore\n        /* \"#utility.yul\":8267:8435   */\n      pop\n      jump\t// out\n        /* \"#utility.yul\":8441:8563   */\n    tag_146:\n        /* \"#utility.yul\":8514:8538   */\n      tag_253\n        /* \"#utility.yul\":8532:8537   */\n      dup2\n        /* \"#utility.yul\":8514:8538   */\n      tag_179\n      jump\t// in\n    tag_253:\n        /* \"#utility.yul\":8507:8512   */\n      dup2\n        /* \"#utility.yul\":8504:8539   */\n      eq\n        /* \"#utility.yul\":8494:8557   */\n      tag_254\n      jumpi\n        /* \"#utility.yul\":8553:8554   */\n      0x00\n        /* \"#utility.yul\":8550:8551   */\n      dup1\n        /* \"#utility.yul\":8543:8555   */\n      revert\n        /* \"#utility.yul\":8494:8557   */\n    tag_254:\n        /* \"#utility.yul\":8441:8563   */\n      pop\n      jump\t// out\n        /* \"#utility.yul\":8569:8691   */\n    tag_150:\n        /* \"#utility.yul\":8642:8666   */\n      tag_256\n        /* \"#utility.yul\":8660:8665   */\n      dup2\n        /* \"#utility.yul\":8642:8666   */\n      tag_203\n      jump\t// in\n    tag_256:\n        /* \"#utility.yul\":8635:8640   */\n      dup2\n        /* \"#utility.yul\":8632:8667   */\n      eq\n        /* \"#utility.yul\":8622:8685   */\n      tag_257\n      jumpi\n        /* \"#utility.yul\":8681:8682   */\n      0x00\n        /* \"#utility.yul\":8678:8679   */\n      dup1\n        /* \"#utility.yul\":8671:8683   */\n      revert\n        /* \"#utility.yul\":8622:8685   */\n    tag_257:\n        /* \"#utility.yul\":8569:8691   */\n      pop\n      jump\t// out\n\n    auxdata: 0xa264697066735822122086dabfd3419e8bebc1bf8f645551925233cb221b03b175bf2bdaa49ed4e7805964736f6c63430008070033\n}\n",
				"bytecode": {
					"linkReferences": {},
					"object": "6080604052633b9aca006001556040518060400160405280600881526020017f54696e546f6b656e00000000000000000000000000000000000000000000000081525060059080519060200190620000599291906200027e565b506040518060400160405280600381526020017f54544e000000000000000000000000000000000000000000000000000000000081525060069080519060200190620000a79291906200027e565b50348015620000b557600080fd5b50336000806101000a81548173ffffffffffffffffffffffffffffffffffffffff021916908373ffffffffffffffffffffffffffffffffffffffff160217905550620001096001546200010f60201b60201c565b620004da565b60008054906101000a900473ffffffffffffffffffffffffffffffffffffffff1673ffffffffffffffffffffffffffffffffffffffff163373ffffffffffffffffffffffffffffffffffffffff1614620001a0576040517f08c379a0000000000000000000000000000000000000000000000000000000008152600401620001979062000366565b60405180910390fd5b80600360003373ffffffffffffffffffffffffffffffffffffffff1673ffffffffffffffffffffffffffffffffffffffff1681526020019081526020016000206000828254620001f19190620003b6565b9250508190555080600260008282546200020c9190620003b6565b925050819055503373ffffffffffffffffffffffffffffffffffffffff16600073ffffffffffffffffffffffffffffffffffffffff167fddf252ad1be2c89b69c2b068fc378daa952ba7f163c4a11628f55a4df523b3ef8360405162000273919062000388565b60405180910390a350565b8280546200028c906200041d565b90600052602060002090601f016020900481019282620002b05760008555620002fc565b82601f10620002cb57805160ff1916838001178555620002fc565b82800160010185558215620002fc579182015b82811115620002fb578251825591602001919060010190620002de565b5b5090506200030b91906200030f565b5090565b5b808211156200032a57600081600090555060010162000310565b5090565b60006200033d601583620003a5565b91506200034a82620004b1565b602082019050919050565b620003608162000413565b82525050565b6000602082019050818103600083015262000381816200032e565b9050919050565b60006020820190506200039f600083018462000355565b92915050565b600082825260208201905092915050565b6000620003c38262000413565b9150620003d08362000413565b9250827fffffffffffffffffffffffffffffffffffffffffffffffffffffffffffffffff0382111562000408576200040762000453565b5b828201905092915050565b6000819050919050565b600060028204905060018216806200043657607f821691505b602082108114156200044d576200044c62000482565b5b50919050565b7f4e487b7100000000000000000000000000000000000000000000000000000000600052601160045260246000fd5b7f4e487b7100000000000000000000000000000000000000000000000000000000600052602260045260246000fd5b7f596f7520617265206e6f7420616e206f776e6572210000000000000000000000600082015250565b6111f180620004ea6000396000f3fe6080604052600436106100c65760003560e01c806370a082311161007f578063a0712d6811610059578063a0712d681461025c578063a9059cbb14610285578063dd62ed3e146102ae578063e7c9922f146102eb576100cd565b806370a08231146101cb5780638ac32e451461020857806395d89b4114610231576100cd565b806306fdde03146100cf578063095ea7b3146100fa57806318160ddd1461012357806323b872dd1461014e578063313ce5671461017757806342966c68146101a2576100cd565b366100cd57005b005b3480156100db57600080fd5b506100e4610316565b6040516100f19190610f03565b60405180910390f35b34801561010657600080fd5b50610121600480360381019061011c9190610dde565b6103a4565b005b34801561012f57600080fd5b5061013861048e565b6040516101459190610f65565b60405180910390f35b34801561015a57600080fd5b5061017560048036038101906101709190610d8b565b610498565b005b34801561018357600080fd5b5061018c610690565b6040516101999190610f65565b60405180910390f35b3480156101ae57600080fd5b506101c960048036038101906101c49190610e1e565b610699565b005b3480156101d757600080fd5b506101f260048036038101906101ed9190610d1e565b61084e565b6040516101ff9190610f65565b60405180910390f35b34801561021457600080fd5b5061022f600480360381019061022a9190610d1e565b610897565b005b34801561023d57600080fd5b506102466108f1565b6040516102539190610f03565b60405180910390f35b34801561026857600080fd5b50610283600480360381019061027e9190610e1e565b61097f565b005b34801561029157600080fd5b506102ac60048036038101906102a79190610dde565b610ae5565b005b3480156102ba57600080fd5b506102d560048036038101906102d09190610d4b565b610c49565b6040516102e29190610f65565b60405180910390f35b3480156102f757600080fd5b50610300610cd0565b60405161030d9190610ee8565b60405180910390f35b6005805461032390611095565b80601f016020809104026020016040519081016040528092919081815260200182805461034f90611095565b801561039c5780601f106103715761010080835404028352916020019161039c565b820191906000526020600020905b81548152906001019060200180831161037f57829003601f168201915b505050505081565b80600460003373ffffffffffffffffffffffffffffffffffffffff1673ffffffffffffffffffffffffffffffffffffffff16815260200190815260200160002060008473ffffffffffffffffffffffffffffffffffffffff1673ffffffffffffffffffffffffffffffffffffffff168152602001908152602001600020819055508173ffffffffffffffffffffffffffffffffffffffff163373ffffffffffffffffffffffffffffffffffffffff167f8c5be1e5ebec7d5bd14f71427d1e84f3dd0314c0f7b2291e5b200ac8c7c3b925836040516104829190610f65565b60405180910390a35050565b6000600254905090565b8281806104a48361084e565b10156104e5576040517f08c379a00000000000000000000000000000000000000000000000000000000081526004016104dc90610f45565b60405180910390fd5b82600460008773ffffffffffffffffffffffffffffffffffffffff1673ffffffffffffffffffffffffffffffffffffffff16815260200190815260200160002060008673ffffffffffffffffffffffffffffffffffffffff1673ffffffffffffffffffffffffffffffffffffffff16815260200190815260200160002060008282546105719190610ff2565b9250508190555082600360008773ffffffffffffffffffffffffffffffffffffffff1673ffffffffffffffffffffffffffffffffffffffff16815260200190815260200160002060008282546105c79190610ff2565b9250508190555082600360008673ffffffffffffffffffffffffffffffffffffffff1673ffffffffffffffffffffffffffffffffffffffff168152602001908152602001600020600082825461061d9190610f9c565b925050819055508373ffffffffffffffffffffffffffffffffffffffff168573ffffffffffffffffffffffffffffffffffffffff167fddf252ad1be2c89b69c2b068fc378daa952ba7f163c4a11628f55a4df523b3ef856040516106819190610f65565b60405180910390a35050505050565b60006003905090565b3381806106a58361084e565b10156106e6576040517f08c379a00000000000000000000000000000000000000000000000000000000081526004016106dd90610f45565b60405180910390fd5b60008054906101000a900473ffffffffffffffffffffffffffffffffffffffff1673ffffffffffffffffffffffffffffffffffffffff163373ffffffffffffffffffffffffffffffffffffffff1614610774576040517f08c379a000000000000000000000000000000000000000000000000000000000815260040161076b90610f25565b60405180910390fd5b82600360003373ffffffffffffffffffffffffffffffffffffffff1673ffffffffffffffffffffffffffffffffffffffff16815260200190815260200160002060008282546107c39190610ff2565b9250508190555082600260008282546107dc9190610ff2565b92505081905550600073ffffffffffffffffffffffffffffffffffffffff163373ffffffffffffffffffffffffffffffffffffffff167fddf252ad1be2c89b69c2b068fc378daa952ba7f163c4a11628f55a4df523b3ef856040516108419190610f65565b60405180910390a3505050565b6000600360008373ffffffffffffffffffffffffffffffffffffffff1673ffffffffffffffffffffffffffffffffffffffff168152602001908152602001600020549050919050565b600a600360008373ffffffffffffffffffffffffffffffffffffffff1673ffffffffffffffffffffffffffffffffffffffff16815260200190815260200160002060008282546108e79190610f9c565b9250508190555050565b600680546108fe90611095565b80601f016020809104026020016040519081016040528092919081815260200182805461092a90611095565b80156109775780601f1061094c57610100808354040283529160200191610977565b820191906000526020600020905b81548152906001019060200180831161095a57829003601f168201915b505050505081565b60008054906101000a900473ffffffffffffffffffffffffffffffffffffffff1673ffffffffffffffffffffffffffffffffffffffff163373ffffffffffffffffffffffffffffffffffffffff1614610a0d576040517f08c379a0000000000000000000000000000000000000000000000000000000008152600401610a0490610f25565b60405180910390fd5b80600360003373ffffffffffffffffffffffffffffffffffffffff1673ffffffffffffffffffffffffffffffffffffffff1681526020019081526020016000206000828254610a5c9190610f9c565b925050819055508060026000828254610a759190610f9c565b925050819055503373ffffffffffffffffffffffffffffffffffffffff16600073ffffffffffffffffffffffffffffffffffffffff167fddf252ad1be2c89b69c2b068fc378daa952ba7f163c4a11628f55a4df523b3ef83604051610ada9190610f65565b60405180910390a350565b338180610af18361084e565b1015610b32576040517f08c379a0000000000000000000000000000000000000000000000000000000008152600401610b2990610f45565b60405180910390fd5b82600360003373ffffffffffffffffffffffffffffffffffffffff1673ffffffffffffffffffffffffffffffffffffffff1681526020019081526020016000206000828254610b819190610ff2565b9250508190555082600360008673ffffffffffffffffffffffffffffffffffffffff1673ffffffffffffffffffffffffffffffffffffffff1681526020019081526020016000206000828254610bd79190610f9c565b925050819055508373ffffffffffffffffffffffffffffffffffffffff163373ffffffffffffffffffffffffffffffffffffffff167fddf252ad1be2c89b69c2b068fc378daa952ba7f163c4a11628f55a4df523b3ef85604051610c3b9190610f65565b60405180910390a350505050565b6000600460008473ffffffffffffffffffffffffffffffffffffffff1673ffffffffffffffffffffffffffffffffffffffff16815260200190815260200160002060008373ffffffffffffffffffffffffffffffffffffffff1673ffffffffffffffffffffffffffffffffffffffff16815260200190815260200160002054905092915050565b60008054906101000a900473ffffffffffffffffffffffffffffffffffffffff1681565b600081359050610d038161118d565b92915050565b600081359050610d18816111a4565b92915050565b600060208284031215610d3457610d33611125565b5b6000610d4284828501610cf4565b91505092915050565b60008060408385031215610d6257610d61611125565b5b6000610d7085828601610cf4565b9250506020610d8185828601610cf4565b9150509250929050565b600080600060608486031215610da457610da3611125565b5b6000610db286828701610cf4565b9350506020610dc386828701610cf4565b9250506040610dd486828701610d09565b9150509250925092565b60008060408385031215610df557610df4611125565b5b6000610e0385828601610cf4565b9250506020610e1485828601610d09565b9150509250929050565b600060208284031215610e3457610e33611125565b5b6000610e4284828501610d09565b91505092915050565b610e5481611026565b82525050565b6000610e6582610f80565b610e6f8185610f8b565b9350610e7f818560208601611062565b610e888161112a565b840191505092915050565b6000610ea0601583610f8b565b9150610eab8261113b565b602082019050919050565b6000610ec3601283610f8b565b9150610ece82611164565b602082019050919050565b610ee281611058565b82525050565b6000602082019050610efd6000830184610e4b565b92915050565b60006020820190508181036000830152610f1d8184610e5a565b905092915050565b60006020820190508181036000830152610f3e81610e93565b9050919050565b60006020820190508181036000830152610f5e81610eb6565b9050919050565b6000602082019050610f7a6000830184610ed9565b92915050565b600081519050919050565b600082825260208201905092915050565b6000610fa782611058565b9150610fb283611058565b9250827fffffffffffffffffffffffffffffffffffffffffffffffffffffffffffffffff03821115610fe757610fe66110c7565b5b828201905092915050565b6000610ffd82611058565b915061100883611058565b92508282101561101b5761101a6110c7565b5b828203905092915050565b600061103182611038565b9050919050565b600073ffffffffffffffffffffffffffffffffffffffff82169050919050565b6000819050919050565b60005b83811015611080578082015181840152602081019050611065565b8381111561108f576000848401525b50505050565b600060028204905060018216806110ad57607f821691505b602082108114156110c1576110c06110f6565b5b50919050565b7f4e487b7100000000000000000000000000000000000000000000000000000000600052601160045260246000fd5b7f4e487b7100000000000000000000000000000000000000000000000000000000600052602260045260246000fd5b600080fd5b6000601f19601f8301169050919050565b7f596f7520617265206e6f7420616e206f776e6572210000000000000000000000600082015250565b7f4e6f7420656e6f75676820746f6b656e73210000000000000000000000000000600082015250565b61119681611026565b81146111a157600080fd5b50565b6111ad81611058565b81146111b857600080fd5b5056fea264697066735822122086dabfd3419e8bebc1bf8f645551925233cb221b03b175bf2bdaa49ed4e7805964736f6c63430008070033",
					"opcodes": "PUSH1 0x80 PUSH1 0x40 MSTORE PUSH4 0x3B9ACA00 PUSH1 0x1 SSTORE PUSH1 0x40 MLOAD DUP1 PUSH1 0x40 ADD PUSH1 0x40 MSTORE DUP1 PUSH1 0x8 DUP2 MSTORE PUSH1 0x20 ADD PUSH32 0x54696E546F6B656E000000000000000000000000000000000000000000000000 DUP2 MSTORE POP PUSH1 0x5 SWAP1 DUP1 MLOAD SWAP1 PUSH1 0x20 ADD SWAP1 PUSH3 0x59 SWAP3 SWAP2 SWAP1 PUSH3 0x27E JUMP JUMPDEST POP PUSH1 0x40 MLOAD DUP1 PUSH1 0x40 ADD PUSH1 0x40 MSTORE DUP1 PUSH1 0x3 DUP2 MSTORE PUSH1 0x20 ADD PUSH32 0x54544E0000000000000000000000000000000000000000000000000000000000 DUP2 MSTORE POP PUSH1 0x6 SWAP1 DUP1 MLOAD SWAP1 PUSH1 0x20 ADD SWAP1 PUSH3 0xA7 SWAP3 SWAP2 SWAP1 PUSH3 0x27E JUMP JUMPDEST POP CALLVALUE DUP1 ISZERO PUSH3 0xB5 JUMPI PUSH1 0x0 DUP1 REVERT JUMPDEST POP CALLER PUSH1 0x0 DUP1 PUSH2 0x100 EXP DUP2 SLOAD DUP2 PUSH20 0xFFFFFFFFFFFFFFFFFFFFFFFFFFFFFFFFFFFFFFFF MUL NOT AND SWAP1 DUP4 PUSH20 0xFFFFFFFFFFFFFFFFFFFFFFFFFFFFFFFFFFFFFFFF AND MUL OR SWAP1 SSTORE POP PUSH3 0x109 PUSH1 0x1 SLOAD PUSH3 0x10F PUSH1 0x20 SHL PUSH1 0x20 SHR JUMP JUMPDEST PUSH3 0x4DA JUMP JUMPDEST PUSH1 0x0 DUP1 SLOAD SWAP1 PUSH2 0x100 EXP SWAP1 DIV PUSH20 0xFFFFFFFFFFFFFFFFFFFFFFFFFFFFFFFFFFFFFFFF AND PUSH20 0xFFFFFFFFFFFFFFFFFFFFFFFFFFFFFFFFFFFFFFFF AND CALLER PUSH20 0xFFFFFFFFFFFFFFFFFFFFFFFFFFFFFFFFFFFFFFFF AND EQ PUSH3 0x1A0 JUMPI PUSH1 0x40 MLOAD PUSH32 0x8C379A000000000000000000000000000000000000000000000000000000000 DUP2 MSTORE PUSH1 0x4 ADD PUSH3 0x197 SWAP1 PUSH3 0x366 JUMP JUMPDEST PUSH1 0x40 MLOAD DUP1 SWAP2 SUB SWAP1 REVERT JUMPDEST DUP1 PUSH1 0x3 PUSH1 0x0 CALLER PUSH20 0xFFFFFFFFFFFFFFFFFFFFFFFFFFFFFFFFFFFFFFFF AND PUSH20 0xFFFFFFFFFFFFFFFFFFFFFFFFFFFFFFFFFFFFFFFF AND DUP2 MSTORE PUSH1 0x20 ADD SWAP1 DUP2 MSTORE PUSH1 0x20 ADD PUSH1 0x0 KECCAK256 PUSH1 0x0 DUP3 DUP3 SLOAD PUSH3 0x1F1 SWAP2 SWAP1 PUSH3 0x3B6 JUMP JUMPDEST SWAP3 POP POP DUP2 SWAP1 SSTORE POP DUP1 PUSH1 0x2 PUSH1 0x0 DUP3 DUP3 SLOAD PUSH3 0x20C SWAP2 SWAP1 PUSH3 0x3B6 JUMP JUMPDEST SWAP3 POP POP DUP2 SWAP1 SSTORE POP CALLER PUSH20 0xFFFFFFFFFFFFFFFFFFFFFFFFFFFFFFFFFFFFFFFF AND PUSH1 0x0 PUSH20 0xFFFFFFFFFFFFFFFFFFFFFFFFFFFFFFFFFFFFFFFF AND PUSH32 0xDDF252AD1BE2C89B69C2B068FC378DAA952BA7F163C4A11628F55A4DF523B3EF DUP4 PUSH1 0x40 MLOAD PUSH3 0x273 SWAP2 SWAP1 PUSH3 0x388 JUMP JUMPDEST PUSH1 0x40 MLOAD DUP1 SWAP2 SUB SWAP1 LOG3 POP JUMP JUMPDEST DUP3 DUP1 SLOAD PUSH3 0x28C SWAP1 PUSH3 0x41D JUMP JUMPDEST SWAP1 PUSH1 0x0 MSTORE PUSH1 0x20 PUSH1 0x0 KECCAK256 SWAP1 PUSH1 0x1F ADD PUSH1 0x20 SWAP1 DIV DUP2 ADD SWAP3 DUP3 PUSH3 0x2B0 JUMPI PUSH1 0x0 DUP6 SSTORE PUSH3 0x2FC JUMP JUMPDEST DUP3 PUSH1 0x1F LT PUSH3 0x2CB JUMPI DUP1 MLOAD PUSH1 0xFF NOT AND DUP4 DUP1 ADD OR DUP6 SSTORE PUSH3 0x2FC JUMP JUMPDEST DUP3 DUP1 ADD PUSH1 0x1 ADD DUP6 SSTORE DUP3 ISZERO PUSH3 0x2FC JUMPI SWAP2 DUP3 ADD JUMPDEST DUP3 DUP2 GT ISZERO PUSH3 0x2FB JUMPI DUP3 MLOAD DUP3 SSTORE SWAP2 PUSH1 0x20 ADD SWAP2 SWAP1 PUSH1 0x1 ADD SWAP1 PUSH3 0x2DE JUMP JUMPDEST JUMPDEST POP SWAP1 POP PUSH3 0x30B SWAP2 SWAP1 PUSH3 0x30F JUMP JUMPDEST POP SWAP1 JUMP JUMPDEST JUMPDEST DUP1 DUP3 GT ISZERO PUSH3 0x32A JUMPI PUSH1 0x0 DUP2 PUSH1 0x0 SWAP1 SSTORE POP PUSH1 0x1 ADD PUSH3 0x310 JUMP JUMPDEST POP SWAP1 JUMP JUMPDEST PUSH1 0x0 PUSH3 0x33D PUSH1 0x15 DUP4 PUSH3 0x3A5 JUMP JUMPDEST SWAP2 POP PUSH3 0x34A DUP3 PUSH3 0x4B1 JUMP JUMPDEST PUSH1 0x20 DUP3 ADD SWAP1 POP SWAP2 SWAP1 POP JUMP JUMPDEST PUSH3 0x360 DUP2 PUSH3 0x413 JUMP JUMPDEST DUP3 MSTORE POP POP JUMP JUMPDEST PUSH1 0x0 PUSH1 0x20 DUP3 ADD SWAP1 POP DUP2 DUP2 SUB PUSH1 0x0 DUP4 ADD MSTORE PUSH3 0x381 DUP2 PUSH3 0x32E JUMP JUMPDEST SWAP1 POP SWAP2 SWAP1 POP JUMP JUMPDEST PUSH1 0x0 PUSH1 0x20 DUP3 ADD SWAP1 POP PUSH3 0x39F PUSH1 0x0 DUP4 ADD DUP5 PUSH3 0x355 JUMP JUMPDEST SWAP3 SWAP2 POP POP JUMP JUMPDEST PUSH1 0x0 DUP3 DUP3 MSTORE PUSH1 0x20 DUP3 ADD SWAP1 POP SWAP3 SWAP2 POP POP JUMP JUMPDEST PUSH1 0x0 PUSH3 0x3C3 DUP3 PUSH3 0x413 JUMP JUMPDEST SWAP2 POP PUSH3 0x3D0 DUP4 PUSH3 0x413 JUMP JUMPDEST SWAP3 POP DUP3 PUSH32 0xFFFFFFFFFFFFFFFFFFFFFFFFFFFFFFFFFFFFFFFFFFFFFFFFFFFFFFFFFFFFFFFF SUB DUP3 GT ISZERO PUSH3 0x408 JUMPI PUSH3 0x407 PUSH3 0x453 JUMP JUMPDEST JUMPDEST DUP3 DUP3 ADD SWAP1 POP SWAP3 SWAP2 POP POP JUMP JUMPDEST PUSH1 0x0 DUP2 SWAP1 POP SWAP2 SWAP1 POP JUMP JUMPDEST PUSH1 0x0 PUSH1 0x2 DUP3 DIV SWAP1 POP PUSH1 0x1 DUP3 AND DUP1 PUSH3 0x436 JUMPI PUSH1 0x7F DUP3 AND SWAP2 POP JUMPDEST PUSH1 0x20 DUP3 LT DUP2 EQ ISZERO PUSH3 0x44D JUMPI PUSH3 0x44C PUSH3 0x482 JUMP JUMPDEST JUMPDEST POP SWAP2 SWAP1 POP JUMP JUMPDEST PUSH32 0x4E487B7100000000000000000000000000000000000000000000000000000000 PUSH1 0x0 MSTORE PUSH1 0x11 PUSH1 0x4 MSTORE PUSH1 0x24 PUSH1 0x0 REVERT JUMPDEST PUSH32 0x4E487B7100000000000000000000000000000000000000000000000000000000 PUSH1 0x0 MSTORE PUSH1 0x22 PUSH1 0x4 MSTORE PUSH1 0x24 PUSH1 0x0 REVERT JUMPDEST PUSH32 0x596F7520617265206E6F7420616E206F776E6572210000000000000000000000 PUSH1 0x0 DUP3 ADD MSTORE POP JUMP JUMPDEST PUSH2 0x11F1 DUP1 PUSH3 0x4EA PUSH1 0x0 CODECOPY PUSH1 0x0 RETURN INVALID PUSH1 0x80 PUSH1 0x40 MSTORE PUSH1 0x4 CALLDATASIZE LT PUSH2 0xC6 JUMPI PUSH1 0x0 CALLDATALOAD PUSH1 0xE0 SHR DUP1 PUSH4 0x70A08231 GT PUSH2 0x7F JUMPI DUP1 PUSH4 0xA0712D68 GT PUSH2 0x59 JUMPI DUP1 PUSH4 0xA0712D68 EQ PUSH2 0x25C JUMPI DUP1 PUSH4 0xA9059CBB EQ PUSH2 0x285 JUMPI DUP1 PUSH4 0xDD62ED3E EQ PUSH2 0x2AE JUMPI DUP1 PUSH4 0xE7C9922F EQ PUSH2 0x2EB JUMPI PUSH2 0xCD JUMP JUMPDEST DUP1 PUSH4 0x70A08231 EQ PUSH2 0x1CB JUMPI DUP1 PUSH4 0x8AC32E45 EQ PUSH2 0x208 JUMPI DUP1 PUSH4 0x95D89B41 EQ PUSH2 0x231 JUMPI PUSH2 0xCD JUMP JUMPDEST DUP1 PUSH4 0x6FDDE03 EQ PUSH2 0xCF JUMPI DUP1 PUSH4 0x95EA7B3 EQ PUSH2 0xFA JUMPI DUP1 PUSH4 0x18160DDD EQ PUSH2 0x123 JUMPI DUP1 PUSH4 0x23B872DD EQ PUSH2 0x14E JUMPI DUP1 PUSH4 0x313CE567 EQ PUSH2 0x177 JUMPI DUP1 PUSH4 0x42966C68 EQ PUSH2 0x1A2 JUMPI PUSH2 0xCD JUMP JUMPDEST CALLDATASIZE PUSH2 0xCD JUMPI STOP JUMPDEST STOP JUMPDEST CALLVALUE DUP1 ISZERO PUSH2 0xDB JUMPI PUSH1 0x0 DUP1 REVERT JUMPDEST POP PUSH2 0xE4 PUSH2 0x316 JUMP JUMPDEST PUSH1 0x40 MLOAD PUSH2 0xF1 SWAP2 SWAP1 PUSH2 0xF03 JUMP JUMPDEST PUSH1 0x40 MLOAD DUP1 SWAP2 SUB SWAP1 RETURN JUMPDEST CALLVALUE DUP1 ISZERO PUSH2 0x106 JUMPI PUSH1 0x0 DUP1 REVERT JUMPDEST POP PUSH2 0x121 PUSH1 0x4 DUP1 CALLDATASIZE SUB DUP2 ADD SWAP1 PUSH2 0x11C SWAP2 SWAP1 PUSH2 0xDDE JUMP JUMPDEST PUSH2 0x3A4 JUMP JUMPDEST STOP JUMPDEST CALLVALUE DUP1 ISZERO PUSH2 0x12F JUMPI PUSH1 0x0 DUP1 REVERT JUMPDEST POP PUSH2 0x138 PUSH2 0x48E JUMP JUMPDEST PUSH1 0x40 MLOAD PUSH2 0x145 SWAP2 SWAP1 PUSH2 0xF65 JUMP JUMPDEST PUSH1 0x40 MLOAD DUP1 SWAP2 SUB SWAP1 RETURN JUMPDEST CALLVALUE DUP1 ISZERO PUSH2 0x15A JUMPI PUSH1 0x0 DUP1 REVERT JUMPDEST POP PUSH2 0x175 PUSH1 0x4 DUP1 CALLDATASIZE SUB DUP2 ADD SWAP1 PUSH2 0x170 SWAP2 SWAP1 PUSH2 0xD8B JUMP JUMPDEST PUSH2 0x498 JUMP JUMPDEST STOP JUMPDEST CALLVALUE DUP1 ISZERO PUSH2 0x183 JUMPI PUSH1 0x0 DUP1 REVERT JUMPDEST POP PUSH2 0x18C PUSH2 0x690 JUMP JUMPDEST PUSH1 0x40 MLOAD PUSH2 0x199 SWAP2 SWAP1 PUSH2 0xF65 JUMP JUMPDEST PUSH1 0x40 MLOAD DUP1 SWAP2 SUB SWAP1 RETURN JUMPDEST CALLVALUE DUP1 ISZERO PUSH2 0x1AE JUMPI PUSH1 0x0 DUP1 REVERT JUMPDEST POP PUSH2 0x1C9 PUSH1 0x4 DUP1 CALLDATASIZE SUB DUP2 ADD SWAP1 PUSH2 0x1C4 SWAP2 SWAP1 PUSH2 0xE1E JUMP JUMPDEST PUSH2 0x699 JUMP JUMPDEST STOP JUMPDEST CALLVALUE DUP1 ISZERO PUSH2 0x1D7 JUMPI PUSH1 0x0 DUP1 REVERT JUMPDEST POP PUSH2 0x1F2 PUSH1 0x4 DUP1 CALLDATASIZE SUB DUP2 ADD SWAP1 PUSH2 0x1ED SWAP2 SWAP1 PUSH2 0xD1E JUMP JUMPDEST PUSH2 0x84E JUMP JUMPDEST PUSH1 0x40 MLOAD PUSH2 0x1FF SWAP2 SWAP1 PUSH2 0xF65 JUMP JUMPDEST PUSH1 0x40 MLOAD DUP1 SWAP2 SUB SWAP1 RETURN JUMPDEST CALLVALUE DUP1 ISZERO PUSH2 0x214 JUMPI PUSH1 0x0 DUP1 REVERT JUMPDEST POP PUSH2 0x22F PUSH1 0x4 DUP1 CALLDATASIZE SUB DUP2 ADD SWAP1 PUSH2 0x22A SWAP2 SWAP1 PUSH2 0xD1E JUMP JUMPDEST PUSH2 0x897 JUMP JUMPDEST STOP JUMPDEST CALLVALUE DUP1 ISZERO PUSH2 0x23D JUMPI PUSH1 0x0 DUP1 REVERT JUMPDEST POP PUSH2 0x246 PUSH2 0x8F1 JUMP JUMPDEST PUSH1 0x40 MLOAD PUSH2 0x253 SWAP2 SWAP1 PUSH2 0xF03 JUMP JUMPDEST PUSH1 0x40 MLOAD DUP1 SWAP2 SUB SWAP1 RETURN JUMPDEST CALLVALUE DUP1 ISZERO PUSH2 0x268 JUMPI PUSH1 0x0 DUP1 REVERT JUMPDEST POP PUSH2 0x283 PUSH1 0x4 DUP1 CALLDATASIZE SUB DUP2 ADD SWAP1 PUSH2 0x27E SWAP2 SWAP1 PUSH2 0xE1E JUMP JUMPDEST PUSH2 0x97F JUMP JUMPDEST STOP JUMPDEST CALLVALUE DUP1 ISZERO PUSH2 0x291 JUMPI PUSH1 0x0 DUP1 REVERT JUMPDEST POP PUSH2 0x2AC PUSH1 0x4 DUP1 CALLDATASIZE SUB DUP2 ADD SWAP1 PUSH2 0x2A7 SWAP2 SWAP1 PUSH2 0xDDE JUMP JUMPDEST PUSH2 0xAE5 JUMP JUMPDEST STOP JUMPDEST CALLVALUE DUP1 ISZERO PUSH2 0x2BA JUMPI PUSH1 0x0 DUP1 REVERT JUMPDEST POP PUSH2 0x2D5 PUSH1 0x4 DUP1 CALLDATASIZE SUB DUP2 ADD SWAP1 PUSH2 0x2D0 SWAP2 SWAP1 PUSH2 0xD4B JUMP JUMPDEST PUSH2 0xC49 JUMP JUMPDEST PUSH1 0x40 MLOAD PUSH2 0x2E2 SWAP2 SWAP1 PUSH2 0xF65 JUMP JUMPDEST PUSH1 0x40 MLOAD DUP1 SWAP2 SUB SWAP1 RETURN JUMPDEST CALLVALUE DUP1 ISZERO PUSH2 0x2F7 JUMPI PUSH1 0x0 DUP1 REVERT JUMPDEST POP PUSH2 0x300 PUSH2 0xCD0 JUMP JUMPDEST PUSH1 0x40 MLOAD PUSH2 0x30D SWAP2 SWAP1 PUSH2 0xEE8 JUMP JUMPDEST PUSH1 0x40 MLOAD DUP1 SWAP2 SUB SWAP1 RETURN JUMPDEST PUSH1 0x5 DUP1 SLOAD PUSH2 0x323 SWAP1 PUSH2 0x1095 JUMP JUMPDEST DUP1 PUSH1 0x1F ADD PUSH1 0x20 DUP1 SWAP2 DIV MUL PUSH1 0x20 ADD PUSH1 0x40 MLOAD SWAP1 DUP2 ADD PUSH1 0x40 MSTORE DUP1 SWAP3 SWAP2 SWAP1 DUP2 DUP2 MSTORE PUSH1 0x20 ADD DUP3 DUP1 SLOAD PUSH2 0x34F SWAP1 PUSH2 0x1095 JUMP JUMPDEST DUP1 ISZERO PUSH2 0x39C JUMPI DUP1 PUSH1 0x1F LT PUSH2 0x371 JUMPI PUSH2 0x100 DUP1 DUP4 SLOAD DIV MUL DUP4 MSTORE SWAP2 PUSH1 0x20 ADD SWAP2 PUSH2 0x39C JUMP JUMPDEST DUP3 ADD SWAP2 SWAP1 PUSH1 0x0 MSTORE PUSH1 0x20 PUSH1 0x0 KECCAK256 SWAP1 JUMPDEST DUP2 SLOAD DUP2 MSTORE SWAP1 PUSH1 0x1 ADD SWAP1 PUSH1 0x20 ADD DUP1 DUP4 GT PUSH2 0x37F JUMPI DUP3 SWAP1 SUB PUSH1 0x1F AND DUP3 ADD SWAP2 JUMPDEST POP POP POP POP POP DUP2 JUMP JUMPDEST DUP1 PUSH1 0x4 PUSH1 0x0 CALLER PUSH20 0xFFFFFFFFFFFFFFFFFFFFFFFFFFFFFFFFFFFFFFFF AND PUSH20 0xFFFFFFFFFFFFFFFFFFFFFFFFFFFFFFFFFFFFFFFF AND DUP2 MSTORE PUSH1 0x20 ADD SWAP1 DUP2 MSTORE PUSH1 0x20 ADD PUSH1 0x0 KECCAK256 PUSH1 0x0 DUP5 PUSH20 0xFFFFFFFFFFFFFFFFFFFFFFFFFFFFFFFFFFFFFFFF AND PUSH20 0xFFFFFFFFFFFFFFFFFFFFFFFFFFFFFFFFFFFFFFFF AND DUP2 MSTORE PUSH1 0x20 ADD SWAP1 DUP2 MSTORE PUSH1 0x20 ADD PUSH1 0x0 KECCAK256 DUP2 SWAP1 SSTORE POP DUP2 PUSH20 0xFFFFFFFFFFFFFFFFFFFFFFFFFFFFFFFFFFFFFFFF AND CALLER PUSH20 0xFFFFFFFFFFFFFFFFFFFFFFFFFFFFFFFFFFFFFFFF AND PUSH32 0x8C5BE1E5EBEC7D5BD14F71427D1E84F3DD0314C0F7B2291E5B200AC8C7C3B925 DUP4 PUSH1 0x40 MLOAD PUSH2 0x482 SWAP2 SWAP1 PUSH2 0xF65 JUMP JUMPDEST PUSH1 0x40 MLOAD DUP1 SWAP2 SUB SWAP1 LOG3 POP POP JUMP JUMPDEST PUSH1 0x0 PUSH1 0x2 SLOAD SWAP1 POP SWAP1 JUMP JUMPDEST DUP3 DUP2 DUP1 PUSH2 0x4A4 DUP4 PUSH2 0x84E JUMP JUMPDEST LT ISZERO PUSH2 0x4E5 JUMPI PUSH1 0x40 MLOAD PUSH32 0x8C379A000000000000000000000000000000000000000000000000000000000 DUP2 MSTORE PUSH1 0x4 ADD PUSH2 0x4DC SWAP1 PUSH2 0xF45 JUMP JUMPDEST PUSH1 0x40 MLOAD DUP1 SWAP2 SUB SWAP1 REVERT JUMPDEST DUP3 PUSH1 0x4 PUSH1 0x0 DUP8 PUSH20 0xFFFFFFFFFFFFFFFFFFFFFFFFFFFFFFFFFFFFFFFF AND PUSH20 0xFFFFFFFFFFFFFFFFFFFFFFFFFFFFFFFFFFFFFFFF AND DUP2 MSTORE PUSH1 0x20 ADD SWAP1 DUP2 MSTORE PUSH1 0x20 ADD PUSH1 0x0 KECCAK256 PUSH1 0x0 DUP7 PUSH20 0xFFFFFFFFFFFFFFFFFFFFFFFFFFFFFFFFFFFFFFFF AND PUSH20 0xFFFFFFFFFFFFFFFFFFFFFFFFFFFFFFFFFFFFFFFF AND DUP2 MSTORE PUSH1 0x20 ADD SWAP1 DUP2 MSTORE PUSH1 0x20 ADD PUSH1 0x0 KECCAK256 PUSH1 0x0 DUP3 DUP3 SLOAD PUSH2 0x571 SWAP2 SWAP1 PUSH2 0xFF2 JUMP JUMPDEST SWAP3 POP POP DUP2 SWAP1 SSTORE POP DUP3 PUSH1 0x3 PUSH1 0x0 DUP8 PUSH20 0xFFFFFFFFFFFFFFFFFFFFFFFFFFFFFFFFFFFFFFFF AND PUSH20 0xFFFFFFFFFFFFFFFFFFFFFFFFFFFFFFFFFFFFFFFF AND DUP2 MSTORE PUSH1 0x20 ADD SWAP1 DUP2 MSTORE PUSH1 0x20 ADD PUSH1 0x0 KECCAK256 PUSH1 0x0 DUP3 DUP3 SLOAD PUSH2 0x5C7 SWAP2 SWAP1 PUSH2 0xFF2 JUMP JUMPDEST SWAP3 POP POP DUP2 SWAP1 SSTORE POP DUP3 PUSH1 0x3 PUSH1 0x0 DUP7 PUSH20 0xFFFFFFFFFFFFFFFFFFFFFFFFFFFFFFFFFFFFFFFF AND PUSH20 0xFFFFFFFFFFFFFFFFFFFFFFFFFFFFFFFFFFFFFFFF AND DUP2 MSTORE PUSH1 0x20 ADD SWAP1 DUP2 MSTORE PUSH1 0x20 ADD PUSH1 0x0 KECCAK256 PUSH1 0x0 DUP3 DUP3 SLOAD PUSH2 0x61D SWAP2 SWAP1 PUSH2 0xF9C JUMP JUMPDEST SWAP3 POP POP DUP2 SWAP1 SSTORE POP DUP4 PUSH20 0xFFFFFFFFFFFFFFFFFFFFFFFFFFFFFFFFFFFFFFFF AND DUP6 PUSH20 0xFFFFFFFFFFFFFFFFFFFFFFFFFFFFFFFFFFFFFFFF AND PUSH32 0xDDF252AD1BE2C89B69C2B068FC378DAA952BA7F163C4A11628F55A4DF523B3EF DUP6 PUSH1 0x40 MLOAD PUSH2 0x681 SWAP2 SWAP1 PUSH2 0xF65 JUMP JUMPDEST PUSH1 0x40 MLOAD DUP1 SWAP2 SUB SWAP1 LOG3 POP POP POP POP POP JUMP JUMPDEST PUSH1 0x0 PUSH1 0x3 SWAP1 POP SWAP1 JUMP JUMPDEST CALLER DUP2 DUP1 PUSH2 0x6A5 DUP4 PUSH2 0x84E JUMP JUMPDEST LT ISZERO PUSH2 0x6E6 JUMPI PUSH1 0x40 MLOAD PUSH32 0x8C379A000000000000000000000000000000000000000000000000000000000 DUP2 MSTORE PUSH1 0x4 ADD PUSH2 0x6DD SWAP1 PUSH2 0xF45 JUMP JUMPDEST PUSH1 0x40 MLOAD DUP1 SWAP2 SUB SWAP1 REVERT JUMPDEST PUSH1 0x0 DUP1 SLOAD SWAP1 PUSH2 0x100 EXP SWAP1 DIV PUSH20 0xFFFFFFFFFFFFFFFFFFFFFFFFFFFFFFFFFFFFFFFF AND PUSH20 0xFFFFFFFFFFFFFFFFFFFFFFFFFFFFFFFFFFFFFFFF AND CALLER PUSH20 0xFFFFFFFFFFFFFFFFFFFFFFFFFFFFFFFFFFFFFFFF AND EQ PUSH2 0x774 JUMPI PUSH1 0x40 MLOAD PUSH32 0x8C379A000000000000000000000000000000000000000000000000000000000 DUP2 MSTORE PUSH1 0x4 ADD PUSH2 0x76B SWAP1 PUSH2 0xF25 JUMP JUMPDEST PUSH1 0x40 MLOAD DUP1 SWAP2 SUB SWAP1 REVERT JUMPDEST DUP3 PUSH1 0x3 PUSH1 0x0 CALLER PUSH20 0xFFFFFFFFFFFFFFFFFFFFFFFFFFFFFFFFFFFFFFFF AND PUSH20 0xFFFFFFFFFFFFFFFFFFFFFFFFFFFFFFFFFFFFFFFF AND DUP2 MSTORE PUSH1 0x20 ADD SWAP1 DUP2 MSTORE PUSH1 0x20 ADD PUSH1 0x0 KECCAK256 PUSH1 0x0 DUP3 DUP3 SLOAD PUSH2 0x7C3 SWAP2 SWAP1 PUSH2 0xFF2 JUMP JUMPDEST SWAP3 POP POP DUP2 SWAP1 SSTORE POP DUP3 PUSH1 0x2 PUSH1 0x0 DUP3 DUP3 SLOAD PUSH2 0x7DC SWAP2 SWAP1 PUSH2 0xFF2 JUMP JUMPDEST SWAP3 POP POP DUP2 SWAP1 SSTORE POP PUSH1 0x0 PUSH20 0xFFFFFFFFFFFFFFFFFFFFFFFFFFFFFFFFFFFFFFFF AND CALLER PUSH20 0xFFFFFFFFFFFFFFFFFFFFFFFFFFFFFFFFFFFFFFFF AND PUSH32 0xDDF252AD1BE2C89B69C2B068FC378DAA952BA7F163C4A11628F55A4DF523B3EF DUP6 PUSH1 0x40 MLOAD PUSH2 0x841 SWAP2 SWAP1 PUSH2 0xF65 JUMP JUMPDEST PUSH1 0x40 MLOAD DUP1 SWAP2 SUB SWAP1 LOG3 POP POP POP JUMP JUMPDEST PUSH1 0x0 PUSH1 0x3 PUSH1 0x0 DUP4 PUSH20 0xFFFFFFFFFFFFFFFFFFFFFFFFFFFFFFFFFFFFFFFF AND PUSH20 0xFFFFFFFFFFFFFFFFFFFFFFFFFFFFFFFFFFFFFFFF AND DUP2 MSTORE PUSH1 0x20 ADD SWAP1 DUP2 MSTORE PUSH1 0x20 ADD PUSH1 0x0 KECCAK256 SLOAD SWAP1 POP SWAP2 SWAP1 POP JUMP JUMPDEST PUSH1 0xA PUSH1 0x3 PUSH1 0x0 DUP4 PUSH20 0xFFFFFFFFFFFFFFFFFFFFFFFFFFFFFFFFFFFFFFFF AND PUSH20 0xFFFFFFFFFFFFFFFFFFFFFFFFFFFFFFFFFFFFFFFF AND DUP2 MSTORE PUSH1 0x20 ADD SWAP1 DUP2 MSTORE PUSH1 0x20 ADD PUSH1 0x0 KECCAK256 PUSH1 0x0 DUP3 DUP3 SLOAD PUSH2 0x8E7 SWAP2 SWAP1 PUSH2 0xF9C JUMP JUMPDEST SWAP3 POP POP DUP2 SWAP1 SSTORE POP POP JUMP JUMPDEST PUSH1 0x6 DUP1 SLOAD PUSH2 0x8FE SWAP1 PUSH2 0x1095 JUMP JUMPDEST DUP1 PUSH1 0x1F ADD PUSH1 0x20 DUP1 SWAP2 DIV MUL PUSH1 0x20 ADD PUSH1 0x40 MLOAD SWAP1 DUP2 ADD PUSH1 0x40 MSTORE DUP1 SWAP3 SWAP2 SWAP1 DUP2 DUP2 MSTORE PUSH1 0x20 ADD DUP3 DUP1 SLOAD PUSH2 0x92A SWAP1 PUSH2 0x1095 JUMP JUMPDEST DUP1 ISZERO PUSH2 0x977 JUMPI DUP1 PUSH1 0x1F LT PUSH2 0x94C JUMPI PUSH2 0x100 DUP1 DUP4 SLOAD DIV MUL DUP4 MSTORE SWAP2 PUSH1 0x20 ADD SWAP2 PUSH2 0x977 JUMP JUMPDEST DUP3 ADD SWAP2 SWAP1 PUSH1 0x0 MSTORE PUSH1 0x20 PUSH1 0x0 KECCAK256 SWAP1 JUMPDEST DUP2 SLOAD DUP2 MSTORE SWAP1 PUSH1 0x1 ADD SWAP1 PUSH1 0x20 ADD DUP1 DUP4 GT PUSH2 0x95A JUMPI DUP3 SWAP1 SUB PUSH1 0x1F AND DUP3 ADD SWAP2 JUMPDEST POP POP POP POP POP DUP2 JUMP JUMPDEST PUSH1 0x0 DUP1 SLOAD SWAP1 PUSH2 0x100 EXP SWAP1 DIV PUSH20 0xFFFFFFFFFFFFFFFFFFFFFFFFFFFFFFFFFFFFFFFF AND PUSH20 0xFFFFFFFFFFFFFFFFFFFFFFFFFFFFFFFFFFFFFFFF AND CALLER PUSH20 0xFFFFFFFFFFFFFFFFFFFFFFFFFFFFFFFFFFFFFFFF AND EQ PUSH2 0xA0D JUMPI PUSH1 0x40 MLOAD PUSH32 0x8C379A000000000000000000000000000000000000000000000000000000000 DUP2 MSTORE PUSH1 0x4 ADD PUSH2 0xA04 SWAP1 PUSH2 0xF25 JUMP JUMPDEST PUSH1 0x40 MLOAD DUP1 SWAP2 SUB SWAP1 REVERT JUMPDEST DUP1 PUSH1 0x3 PUSH1 0x0 CALLER PUSH20 0xFFFFFFFFFFFFFFFFFFFFFFFFFFFFFFFFFFFFFFFF AND PUSH20 0xFFFFFFFFFFFFFFFFFFFFFFFFFFFFFFFFFFFFFFFF AND DUP2 MSTORE PUSH1 0x20 ADD SWAP1 DUP2 MSTORE PUSH1 0x20 ADD PUSH1 0x0 KECCAK256 PUSH1 0x0 DUP3 DUP3 SLOAD PUSH2 0xA5C SWAP2 SWAP1 PUSH2 0xF9C JUMP JUMPDEST SWAP3 POP POP DUP2 SWAP1 SSTORE POP DUP1 PUSH1 0x2 PUSH1 0x0 DUP3 DUP3 SLOAD PUSH2 0xA75 SWAP2 SWAP1 PUSH2 0xF9C JUMP JUMPDEST SWAP3 POP POP DUP2 SWAP1 SSTORE POP CALLER PUSH20 0xFFFFFFFFFFFFFFFFFFFFFFFFFFFFFFFFFFFFFFFF AND PUSH1 0x0 PUSH20 0xFFFFFFFFFFFFFFFFFFFFFFFFFFFFFFFFFFFFFFFF AND PUSH32 0xDDF252AD1BE2C89B69C2B068FC378DAA952BA7F163C4A11628F55A4DF523B3EF DUP4 PUSH1 0x40 MLOAD PUSH2 0xADA SWAP2 SWAP1 PUSH2 0xF65 JUMP JUMPDEST PUSH1 0x40 MLOAD DUP1 SWAP2 SUB SWAP1 LOG3 POP JUMP JUMPDEST CALLER DUP2 DUP1 PUSH2 0xAF1 DUP4 PUSH2 0x84E JUMP JUMPDEST LT ISZERO PUSH2 0xB32 JUMPI PUSH1 0x40 MLOAD PUSH32 0x8C379A000000000000000000000000000000000000000000000000000000000 DUP2 MSTORE PUSH1 0x4 ADD PUSH2 0xB29 SWAP1 PUSH2 0xF45 JUMP JUMPDEST PUSH1 0x40 MLOAD DUP1 SWAP2 SUB SWAP1 REVERT JUMPDEST DUP3 PUSH1 0x3 PUSH1 0x0 CALLER PUSH20 0xFFFFFFFFFFFFFFFFFFFFFFFFFFFFFFFFFFFFFFFF AND PUSH20 0xFFFFFFFFFFFFFFFFFFFFFFFFFFFFFFFFFFFFFFFF AND DUP2 MSTORE PUSH1 0x20 ADD SWAP1 DUP2 MSTORE PUSH1 0x20 ADD PUSH1 0x0 KECCAK256 PUSH1 0x0 DUP3 DUP3 SLOAD PUSH2 0xB81 SWAP2 SWAP1 PUSH2 0xFF2 JUMP JUMPDEST SWAP3 POP POP DUP2 SWAP1 SSTORE POP DUP3 PUSH1 0x3 PUSH1 0x0 DUP7 PUSH20 0xFFFFFFFFFFFFFFFFFFFFFFFFFFFFFFFFFFFFFFFF AND PUSH20 0xFFFFFFFFFFFFFFFFFFFFFFFFFFFFFFFFFFFFFFFF AND DUP2 MSTORE PUSH1 0x20 ADD SWAP1 DUP2 MSTORE PUSH1 0x20 ADD PUSH1 0x0 KECCAK256 PUSH1 0x0 DUP3 DUP3 SLOAD PUSH2 0xBD7 SWAP2 SWAP1 PUSH2 0xF9C JUMP JUMPDEST SWAP3 POP POP DUP2 SWAP1 SSTORE POP DUP4 PUSH20 0xFFFFFFFFFFFFFFFFFFFFFFFFFFFFFFFFFFFFFFFF AND CALLER PUSH20 0xFFFFFFFFFFFFFFFFFFFFFFFFFFFFFFFFFFFFFFFF AND PUSH32 0xDDF252AD1BE2C89B69C2B068FC378DAA952BA7F163C4A11628F55A4DF523B3EF DUP6 PUSH1 0x40 MLOAD PUSH2 0xC3B SWAP2 SWAP1 PUSH2 0xF65 JUMP JUMPDEST PUSH1 0x40 MLOAD DUP1 SWAP2 SUB SWAP1 LOG3 POP POP POP POP JUMP JUMPDEST PUSH1 0x0 PUSH1 0x4 PUSH1 0x0 DUP5 PUSH20 0xFFFFFFFFFFFFFFFFFFFFFFFFFFFFFFFFFFFFFFFF AND PUSH20 0xFFFFFFFFFFFFFFFFFFFFFFFFFFFFFFFFFFFFFFFF AND DUP2 MSTORE PUSH1 0x20 ADD SWAP1 DUP2 MSTORE PUSH1 0x20 ADD PUSH1 0x0 KECCAK256 PUSH1 0x0 DUP4 PUSH20 0xFFFFFFFFFFFFFFFFFFFFFFFFFFFFFFFFFFFFFFFF AND PUSH20 0xFFFFFFFFFFFFFFFFFFFFFFFFFFFFFFFFFFFFFFFF AND DUP2 MSTORE PUSH1 0x20 ADD SWAP1 DUP2 MSTORE PUSH1 0x20 ADD PUSH1 0x0 KECCAK256 SLOAD SWAP1 POP SWAP3 SWAP2 POP POP JUMP JUMPDEST PUSH1 0x0 DUP1 SLOAD SWAP1 PUSH2 0x100 EXP SWAP1 DIV PUSH20 0xFFFFFFFFFFFFFFFFFFFFFFFFFFFFFFFFFFFFFFFF AND DUP2 JUMP JUMPDEST PUSH1 0x0 DUP2 CALLDATALOAD SWAP1 POP PUSH2 0xD03 DUP2 PUSH2 0x118D JUMP JUMPDEST SWAP3 SWAP2 POP POP JUMP JUMPDEST PUSH1 0x0 DUP2 CALLDATALOAD SWAP1 POP PUSH2 0xD18 DUP2 PUSH2 0x11A4 JUMP JUMPDEST SWAP3 SWAP2 POP POP JUMP JUMPDEST PUSH1 0x0 PUSH1 0x20 DUP3 DUP5 SUB SLT ISZERO PUSH2 0xD34 JUMPI PUSH2 0xD33 PUSH2 0x1125 JUMP JUMPDEST JUMPDEST PUSH1 0x0 PUSH2 0xD42 DUP5 DUP3 DUP6 ADD PUSH2 0xCF4 JUMP JUMPDEST SWAP2 POP POP SWAP3 SWAP2 POP POP JUMP JUMPDEST PUSH1 0x0 DUP1 PUSH1 0x40 DUP4 DUP6 SUB SLT ISZERO PUSH2 0xD62 JUMPI PUSH2 0xD61 PUSH2 0x1125 JUMP JUMPDEST JUMPDEST PUSH1 0x0 PUSH2 0xD70 DUP6 DUP3 DUP7 ADD PUSH2 0xCF4 JUMP JUMPDEST SWAP3 POP POP PUSH1 0x20 PUSH2 0xD81 DUP6 DUP3 DUP7 ADD PUSH2 0xCF4 JUMP JUMPDEST SWAP2 POP POP SWAP3 POP SWAP3 SWAP1 POP JUMP JUMPDEST PUSH1 0x0 DUP1 PUSH1 0x0 PUSH1 0x60 DUP5 DUP7 SUB SLT ISZERO PUSH2 0xDA4 JUMPI PUSH2 0xDA3 PUSH2 0x1125 JUMP JUMPDEST JUMPDEST PUSH1 0x0 PUSH2 0xDB2 DUP7 DUP3 DUP8 ADD PUSH2 0xCF4 JUMP JUMPDEST SWAP4 POP POP PUSH1 0x20 PUSH2 0xDC3 DUP7 DUP3 DUP8 ADD PUSH2 0xCF4 JUMP JUMPDEST SWAP3 POP POP PUSH1 0x40 PUSH2 0xDD4 DUP7 DUP3 DUP8 ADD PUSH2 0xD09 JUMP JUMPDEST SWAP2 POP POP SWAP3 POP SWAP3 POP SWAP3 JUMP JUMPDEST PUSH1 0x0 DUP1 PUSH1 0x40 DUP4 DUP6 SUB SLT ISZERO PUSH2 0xDF5 JUMPI PUSH2 0xDF4 PUSH2 0x1125 JUMP JUMPDEST JUMPDEST PUSH1 0x0 PUSH2 0xE03 DUP6 DUP3 DUP7 ADD PUSH2 0xCF4 JUMP JUMPDEST SWAP3 POP POP PUSH1 0x20 PUSH2 0xE14 DUP6 DUP3 DUP7 ADD PUSH2 0xD09 JUMP JUMPDEST SWAP2 POP POP SWAP3 POP SWAP3 SWAP1 POP JUMP JUMPDEST PUSH1 0x0 PUSH1 0x20 DUP3 DUP5 SUB SLT ISZERO PUSH2 0xE34 JUMPI PUSH2 0xE33 PUSH2 0x1125 JUMP JUMPDEST JUMPDEST PUSH1 0x0 PUSH2 0xE42 DUP5 DUP3 DUP6 ADD PUSH2 0xD09 JUMP JUMPDEST SWAP2 POP POP SWAP3 SWAP2 POP POP JUMP JUMPDEST PUSH2 0xE54 DUP2 PUSH2 0x1026 JUMP JUMPDEST DUP3 MSTORE POP POP JUMP JUMPDEST PUSH1 0x0 PUSH2 0xE65 DUP3 PUSH2 0xF80 JUMP JUMPDEST PUSH2 0xE6F DUP2 DUP6 PUSH2 0xF8B JUMP JUMPDEST SWAP4 POP PUSH2 0xE7F DUP2 DUP6 PUSH1 0x20 DUP7 ADD PUSH2 0x1062 JUMP JUMPDEST PUSH2 0xE88 DUP2 PUSH2 0x112A JUMP JUMPDEST DUP5 ADD SWAP2 POP POP SWAP3 SWAP2 POP POP JUMP JUMPDEST PUSH1 0x0 PUSH2 0xEA0 PUSH1 0x15 DUP4 PUSH2 0xF8B JUMP JUMPDEST SWAP2 POP PUSH2 0xEAB DUP3 PUSH2 0x113B JUMP JUMPDEST PUSH1 0x20 DUP3 ADD SWAP1 POP SWAP2 SWAP1 POP JUMP JUMPDEST PUSH1 0x0 PUSH2 0xEC3 PUSH1 0x12 DUP4 PUSH2 0xF8B JUMP JUMPDEST SWAP2 POP PUSH2 0xECE DUP3 PUSH2 0x1164 JUMP JUMPDEST PUSH1 0x20 DUP3 ADD SWAP1 POP SWAP2 SWAP1 POP JUMP JUMPDEST PUSH2 0xEE2 DUP2 PUSH2 0x1058 JUMP JUMPDEST DUP3 MSTORE POP POP JUMP JUMPDEST PUSH1 0x0 PUSH1 0x20 DUP3 ADD SWAP1 POP PUSH2 0xEFD PUSH1 0x0 DUP4 ADD DUP5 PUSH2 0xE4B JUMP JUMPDEST SWAP3 SWAP2 POP POP JUMP JUMPDEST PUSH1 0x0 PUSH1 0x20 DUP3 ADD SWAP1 POP DUP2 DUP2 SUB PUSH1 0x0 DUP4 ADD MSTORE PUSH2 0xF1D DUP2 DUP5 PUSH2 0xE5A JUMP JUMPDEST SWAP1 POP SWAP3 SWAP2 POP POP JUMP JUMPDEST PUSH1 0x0 PUSH1 0x20 DUP3 ADD SWAP1 POP DUP2 DUP2 SUB PUSH1 0x0 DUP4 ADD MSTORE PUSH2 0xF3E DUP2 PUSH2 0xE93 JUMP JUMPDEST SWAP1 POP SWAP2 SWAP1 POP JUMP JUMPDEST PUSH1 0x0 PUSH1 0x20 DUP3 ADD SWAP1 POP DUP2 DUP2 SUB PUSH1 0x0 DUP4 ADD MSTORE PUSH2 0xF5E DUP2 PUSH2 0xEB6 JUMP JUMPDEST SWAP1 POP SWAP2 SWAP1 POP JUMP JUMPDEST PUSH1 0x0 PUSH1 0x20 DUP3 ADD SWAP1 POP PUSH2 0xF7A PUSH1 0x0 DUP4 ADD DUP5 PUSH2 0xED9 JUMP JUMPDEST SWAP3 SWAP2 POP POP JUMP JUMPDEST PUSH1 0x0 DUP2 MLOAD SWAP1 POP SWAP2 SWAP1 POP JUMP JUMPDEST PUSH1 0x0 DUP3 DUP3 MSTORE PUSH1 0x20 DUP3 ADD SWAP1 POP SWAP3 SWAP2 POP POP JUMP JUMPDEST PUSH1 0x0 PUSH2 0xFA7 DUP3 PUSH2 0x1058 JUMP JUMPDEST SWAP2 POP PUSH2 0xFB2 DUP4 PUSH2 0x1058 JUMP JUMPDEST SWAP3 POP DUP3 PUSH32 0xFFFFFFFFFFFFFFFFFFFFFFFFFFFFFFFFFFFFFFFFFFFFFFFFFFFFFFFFFFFFFFFF SUB DUP3 GT ISZERO PUSH2 0xFE7 JUMPI PUSH2 0xFE6 PUSH2 0x10C7 JUMP JUMPDEST JUMPDEST DUP3 DUP3 ADD SWAP1 POP SWAP3 SWAP2 POP POP JUMP JUMPDEST PUSH1 0x0 PUSH2 0xFFD DUP3 PUSH2 0x1058 JUMP JUMPDEST SWAP2 POP PUSH2 0x1008 DUP4 PUSH2 0x1058 JUMP JUMPDEST SWAP3 POP DUP3 DUP3 LT ISZERO PUSH2 0x101B JUMPI PUSH2 0x101A PUSH2 0x10C7 JUMP JUMPDEST JUMPDEST DUP3 DUP3 SUB SWAP1 POP SWAP3 SWAP2 POP POP JUMP JUMPDEST PUSH1 0x0 PUSH2 0x1031 DUP3 PUSH2 0x1038 JUMP JUMPDEST SWAP1 POP SWAP2 SWAP1 POP JUMP JUMPDEST PUSH1 0x0 PUSH20 0xFFFFFFFFFFFFFFFFFFFFFFFFFFFFFFFFFFFFFFFF DUP3 AND SWAP1 POP SWAP2 SWAP1 POP JUMP JUMPDEST PUSH1 0x0 DUP2 SWAP1 POP SWAP2 SWAP1 POP JUMP JUMPDEST PUSH1 0x0 JUMPDEST DUP4 DUP2 LT ISZERO PUSH2 0x1080 JUMPI DUP1 DUP3 ADD MLOAD DUP2 DUP5 ADD MSTORE PUSH1 0x20 DUP2 ADD SWAP1 POP PUSH2 0x1065 JUMP JUMPDEST DUP4 DUP2 GT ISZERO PUSH2 0x108F JUMPI PUSH1 0x0 DUP5 DUP5 ADD MSTORE JUMPDEST POP POP POP POP JUMP JUMPDEST PUSH1 0x0 PUSH1 0x2 DUP3 DIV SWAP1 POP PUSH1 0x1 DUP3 AND DUP1 PUSH2 0x10AD JUMPI PUSH1 0x7F DUP3 AND SWAP2 POP JUMPDEST PUSH1 0x20 DUP3 LT DUP2 EQ ISZERO PUSH2 0x10C1 JUMPI PUSH2 0x10C0 PUSH2 0x10F6 JUMP JUMPDEST JUMPDEST POP SWAP2 SWAP1 POP JUMP JUMPDEST PUSH32 0x4E487B7100000000000000000000000000000000000000000000000000000000 PUSH1 0x0 MSTORE PUSH1 0x11 PUSH1 0x4 MSTORE PUSH1 0x24 PUSH1 0x0 REVERT JUMPDEST PUSH32 0x4E487B7100000000000000000000000000000000000000000000000000000000 PUSH1 0x0 MSTORE PUSH1 0x22 PUSH1 0x4 MSTORE PUSH1 0x24 PUSH1 0x0 REVERT JUMPDEST PUSH1 0x0 DUP1 REVERT JUMPDEST PUSH1 0x0 PUSH1 0x1F NOT PUSH1 0x1F DUP4 ADD AND SWAP1 POP SWAP2 SWAP1 POP JUMP JUMPDEST PUSH32 0x596F7520617265206E6F7420616E206F776E6572210000000000000000000000 PUSH1 0x0 DUP3 ADD MSTORE POP JUMP JUMPDEST PUSH32 0x4E6F7420656E6F75676820746F6B656E73210000000000000000000000000000 PUSH1 0x0 DUP3 ADD MSTORE POP JUMP JUMPDEST PUSH2 0x1196 DUP2 PUSH2 0x1026 JUMP JUMPDEST DUP2 EQ PUSH2 0x11A1 JUMPI PUSH1 0x0 DUP1 REVERT JUMPDEST POP JUMP JUMPDEST PUSH2 0x11AD DUP2 PUSH2 0x1058 JUMP JUMPDEST DUP2 EQ PUSH2 0x11B8 JUMPI PUSH1 0x0 DUP1 REVERT JUMPDEST POP JUMP INVALID LOG2 PUSH5 0x6970667358 0x22 SLT KECCAK256 DUP7 0xDA 0xBF 0xD3 COINBASE SWAP15 DUP12 0xEB 0xC1 0xBF DUP16 PUSH5 0x5551925233 0xCB 0x22 SHL SUB 0xB1 PUSH22 0xBF2BDAA49ED4E7805964736F6C634300080700330000 "
				},
				"gasEstimates": {
					"creation": {
						"codeDepositCost": "918600",
						"executionCost": "infinite",
						"totalCost": "infinite"
					},
					"external": {
						"": "218",
						"allowance(address,address)": "infinite",
						"approve(address,uint256)": "infinite",
						"balanceOf(address)": "2864",
						"burn(uint256)": "infinite",
						"decimals()": "426",
						"mint(uint256)": "infinite",
						"name()": "infinite",
						"registrationBonus(address)": "infinite",
						"symbol()": "infinite",
						"thisOwner()": "2599",
						"totalSupply()": "2482",
						"transfer(address,uint256)": "infinite",
						"transferFrom(address,address,uint256)": "infinite"
					}
				},
				"methodIdentifiers": {
					"allowance(address,address)": "dd62ed3e",
					"approve(address,uint256)": "095ea7b3",
					"balanceOf(address)": "70a08231",
					"burn(uint256)": "42966c68",
					"decimals()": "313ce567",
					"mint(uint256)": "a0712d68",
					"name()": "06fdde03",
					"registrationBonus(address)": "8ac32e45",
					"symbol()": "95d89b41",
					"thisOwner()": "e7c9922f",
					"totalSupply()": "18160ddd",
					"transfer(address,uint256)": "a9059cbb",
					"transferFrom(address,address,uint256)": "23b872dd"
				}
			},
			"storageLayout": {
				"storage": [
					{
						"astId": 74,
						"contract": "contracts/TinToken.sol:TinToken",
						"label": "thisOwner",
						"offset": 0,
						"slot": "0",
						"type": "t_address"
					},
					{
						"astId": 77,
						"contract": "contracts/TinToken.sol:TinToken",
						"label": "startSupply",
						"offset": 0,
						"slot": "1",
						"type": "t_uint256"
					},
					{
						"astId": 79,
						"contract": "contracts/TinToken.sol:TinToken",
						"label": "totalTokens",
						"offset": 0,
						"slot": "2",
						"type": "t_uint256"
					},
					{
						"astId": 83,
						"contract": "contracts/TinToken.sol:TinToken",
						"label": "balances",
						"offset": 0,
						"slot": "3",
						"type": "t_mapping(t_address,t_uint256)"
					},
					{
						"astId": 89,
						"contract": "contracts/TinToken.sol:TinToken",
						"label": "allowances",
						"offset": 0,
						"slot": "4",
						"type": "t_mapping(t_address,t_mapping(t_address,t_uint256))"
					},
					{
						"astId": 92,
						"contract": "contracts/TinToken.sol:TinToken",
						"label": "name",
						"offset": 0,
						"slot": "5",
						"type": "t_string_storage"
					},
					{
						"astId": 95,
						"contract": "contracts/TinToken.sol:TinToken",
						"label": "symbol",
						"offset": 0,
						"slot": "6",
						"type": "t_string_storage"
					}
				],
				"types": {
					"t_address": {
						"encoding": "inplace",
						"label": "address",
						"numberOfBytes": "20"
					},
					"t_mapping(t_address,t_mapping(t_address,t_uint256))": {
						"encoding": "mapping",
						"key": "t_address",
						"label": "mapping(address => mapping(address => uint256))",
						"numberOfBytes": "32",
						"value": "t_mapping(t_address,t_uint256)"
					},
					"t_mapping(t_address,t_uint256)": {
						"encoding": "mapping",
						"key": "t_address",
						"label": "mapping(address => uint256)",
						"numberOfBytes": "32",
						"value": "t_uint256"
					},
					"t_string_storage": {
						"encoding": "bytes",
						"label": "string",
						"numberOfBytes": "32"
					},
					"t_uint256": {
						"encoding": "inplace",
						"label": "uint256",
						"numberOfBytes": "32"
					}
				}
			},
			"userdoc": {
				"kind": "user",
				"methods": {},
				"version": 1
			}
		}
	}
}