{
	"contracts/TinToken.sol": {
		"TinToken": {
			"abi": [
				{
					"inputs": [
						{
							"internalType": "uint256",
							"name": "startSupply",
							"type": "uint256"
						}
					],
					"stateMutability": "nonpayable",
					"type": "constructor"
				},
				{
					"anonymous": false,
					"inputs": [
						{
							"indexed": true,
							"internalType": "address",
							"name": "owner",
							"type": "address"
						},
						{
							"indexed": true,
							"internalType": "address",
							"name": "to",
							"type": "address"
						},
						{
							"indexed": false,
							"internalType": "uint256",
							"name": "amount",
							"type": "uint256"
						}
					],
					"name": "Approval",
					"type": "event"
				},
				{
					"anonymous": false,
					"inputs": [
						{
							"indexed": true,
							"internalType": "address",
							"name": "from",
							"type": "address"
						},
						{
							"indexed": true,
							"internalType": "address",
							"name": "to",
							"type": "address"
						},
						{
							"indexed": false,
							"internalType": "uint256",
							"name": "amount",
							"type": "uint256"
						}
					],
					"name": "Transfer",
					"type": "event"
				},
				{
					"stateMutability": "payable",
					"type": "fallback"
				},
				{
					"inputs": [
						{
							"internalType": "address",
							"name": "owner",
							"type": "address"
						},
						{
							"internalType": "address",
							"name": "spender",
							"type": "address"
						}
					],
					"name": "allowance",
					"outputs": [
						{
							"internalType": "uint256",
							"name": "",
							"type": "uint256"
						}
					],
					"stateMutability": "view",
					"type": "function"
				},
				{
					"inputs": [
						{
							"internalType": "address",
							"name": "spender",
							"type": "address"
						},
						{
							"internalType": "uint256",
							"name": "amount",
							"type": "uint256"
						}
					],
					"name": "approve",
					"outputs": [],
					"stateMutability": "nonpayable",
					"type": "function"
				},
				{
					"inputs": [
						{
							"internalType": "address",
							"name": "account",
							"type": "address"
						}
					],
					"name": "balanceOf",
					"outputs": [
						{
							"internalType": "uint256",
							"name": "",
							"type": "uint256"
						}
					],
					"stateMutability": "view",
					"type": "function"
				},
				{
					"inputs": [
						{
							"internalType": "uint256",
							"name": "amount",
							"type": "uint256"
						}
					],
					"name": "burn",
					"outputs": [],
					"stateMutability": "nonpayable",
					"type": "function"
				},
				{
					"inputs": [],
					"name": "decimals",
					"outputs": [
						{
							"internalType": "uint256",
							"name": "",
							"type": "uint256"
						}
					],
					"stateMutability": "pure",
					"type": "function"
				},
				{
					"inputs": [
						{
							"internalType": "uint256",
							"name": "amount",
							"type": "uint256"
						}
					],
					"name": "mint",
					"outputs": [],
					"stateMutability": "nonpayable",
					"type": "function"
				},
				{
					"inputs": [],
					"name": "name",
					"outputs": [
						{
							"internalType": "string",
							"name": "",
							"type": "string"
						}
					],
					"stateMutability": "view",
					"type": "function"
				},
				{
					"inputs": [],
					"name": "symbol",
					"outputs": [
						{
							"internalType": "string",
							"name": "",
							"type": "string"
						}
					],
					"stateMutability": "view",
					"type": "function"
				},
				{
					"inputs": [],
					"name": "thisOwner",
					"outputs": [
						{
							"internalType": "address",
							"name": "",
							"type": "address"
						}
					],
					"stateMutability": "view",
					"type": "function"
				},
				{
					"inputs": [],
					"name": "totalSupply",
					"outputs": [
						{
							"internalType": "uint256",
							"name": "",
							"type": "uint256"
						}
					],
					"stateMutability": "view",
					"type": "function"
				},
				{
					"inputs": [
						{
							"internalType": "address",
							"name": "to",
							"type": "address"
						},
						{
							"internalType": "uint256",
							"name": "amount",
							"type": "uint256"
						}
					],
					"name": "transfer",
					"outputs": [],
					"stateMutability": "nonpayable",
					"type": "function"
				},
				{
					"inputs": [
						{
							"internalType": "address",
							"name": "sender",
							"type": "address"
						},
						{
							"internalType": "address",
							"name": "recipient",
							"type": "address"
						},
						{
							"internalType": "uint256",
							"name": "amount",
							"type": "uint256"
						}
					],
					"name": "transferFrom",
					"outputs": [],
					"stateMutability": "nonpayable",
					"type": "function"
				},
				{
					"stateMutability": "payable",
					"type": "receive"
				}
			],
			"devdoc": {
				"kind": "dev",
				"methods": {},
				"version": 1
			},
			"evm": {
				"assembly": "    /* \"contracts/TinToken.sol\":81:2360  contract TinToken is IERC20 {... */\n  mstore(0x40, 0x80)\n    /* \"contracts/TinToken.sol\":164:174  1000000000 */\n  0x3b9aca00\n    /* \"contracts/TinToken.sol\":145:174  uint startSupply = 1000000000 */\n  0x01\n  sstore\n    /* \"contracts/TinToken.sol\":302:333  string public name = \"TinToken\" */\n  mload(0x40)\n  dup1\n  0x40\n  add\n  0x40\n  mstore\n  dup1\n  0x08\n  dup2\n  mstore\n  0x20\n  add\n  0x54696e546f6b656e000000000000000000000000000000000000000000000000\n  dup2\n  mstore\n  pop\n  0x05\n  swap1\n  dup1\n  mload\n  swap1\n  0x20\n  add\n  swap1\n  tag_1\n  swap3\n  swap2\n  swap1\n  tag_2\n  jump\t// in\ntag_1:\n  pop\n    /* \"contracts/TinToken.sol\":339:367  string public symbol = \"TTN\" */\n  mload(0x40)\n  dup1\n  0x40\n  add\n  0x40\n  mstore\n  dup1\n  0x03\n  dup2\n  mstore\n  0x20\n  add\n  0x54544e0000000000000000000000000000000000000000000000000000000000\n  dup2\n  mstore\n  pop\n  0x06\n  swap1\n  dup1\n  mload\n  swap1\n  0x20\n  add\n  swap1\n  tag_3\n  swap3\n  swap2\n  swap1\n  tag_2\n  jump\t// in\ntag_3:\n  pop\n    /* \"contracts/TinToken.sol\":374:470  constructor(uint startSupply) {... */\n  callvalue\n  dup1\n  iszero\n  tag_4\n  jumpi\n  0x00\n  dup1\n  revert\ntag_4:\n  pop\n  mload(0x40)\n  sub(codesize, bytecodeSize)\n  dup1\n  bytecodeSize\n  dup4\n  codecopy\n  dup2\n  dup2\n  add\n  0x40\n  mstore\n  dup2\n  add\n  swap1\n  tag_5\n  swap2\n  swap1\n  tag_6\n  jump\t// in\ntag_5:\n    /* \"contracts/TinToken.sol\":426:436  msg.sender */\n  caller\n    /* \"contracts/TinToken.sol\":414:423  thisOwner */\n  0x00\n  dup1\n    /* \"contracts/TinToken.sol\":414:436  thisOwner = msg.sender */\n  0x0100\n  exp\n  dup2\n  sload\n  dup2\n  0xffffffffffffffffffffffffffffffffffffffff\n  mul\n  not\n  and\n  swap1\n  dup4\n  0xffffffffffffffffffffffffffffffffffffffff\n  and\n  mul\n  or\n  swap1\n  sstore\n  pop\n    /* \"contracts/TinToken.sol\":446:463  mint(startSupply) */\n  tag_9\n    /* \"contracts/TinToken.sol\":451:462  startSupply */\n  dup2\n    /* \"contracts/TinToken.sol\":446:450  mint */\n  shl(0x20, tag_10)\n    /* \"contracts/TinToken.sol\":446:463  mint(startSupply) */\n  0x20\n  shr\n  jump\t// in\ntag_9:\n    /* \"contracts/TinToken.sol\":374:470  constructor(uint startSupply) {... */\n  pop\n    /* \"contracts/TinToken.sol\":81:2360  contract TinToken is IERC20 {... */\n  jump(tag_11)\n    /* \"contracts/TinToken.sol\":1884:2061  function mint(uint amount) public onlyOwner {... */\ntag_10:\n    /* \"contracts/TinToken.sol\":670:679  thisOwner */\n  0x00\n  dup1\n  sload\n  swap1\n  0x0100\n  exp\n  swap1\n  div\n  0xffffffffffffffffffffffffffffffffffffffff\n  and\n    /* \"contracts/TinToken.sol\":656:679  msg.sender == thisOwner */\n  0xffffffffffffffffffffffffffffffffffffffff\n  and\n    /* \"contracts/TinToken.sol\":656:666  msg.sender */\n  caller\n    /* \"contracts/TinToken.sol\":656:679  msg.sender == thisOwner */\n  0xffffffffffffffffffffffffffffffffffffffff\n  and\n  eq\n    /* \"contracts/TinToken.sol\":648:705  require(msg.sender == thisOwner, \"You are not an owner!\") */\n  tag_13\n  jumpi\n  mload(0x40)\n  0x08c379a000000000000000000000000000000000000000000000000000000000\n  dup2\n  mstore\n  0x04\n  add\n  tag_14\n  swap1\n  tag_15\n  jump\t// in\ntag_14:\n  mload(0x40)\n  dup1\n  swap2\n  sub\n  swap1\n  revert\ntag_13:\n    /* \"contracts/TinToken.sol\":1962:1968  amount */\n  dup1\n    /* \"contracts/TinToken.sol\":1938:1946  balances */\n  0x03\n    /* \"contracts/TinToken.sol\":1938:1958  balances[msg.sender] */\n  0x00\n    /* \"contracts/TinToken.sol\":1947:1957  msg.sender */\n  caller\n    /* \"contracts/TinToken.sol\":1938:1958  balances[msg.sender] */\n  0xffffffffffffffffffffffffffffffffffffffff\n  and\n  0xffffffffffffffffffffffffffffffffffffffff\n  and\n  dup2\n  mstore\n  0x20\n  add\n  swap1\n  dup2\n  mstore\n  0x20\n  add\n  0x00\n  keccak256\n  0x00\n    /* \"contracts/TinToken.sol\":1938:1968  balances[msg.sender] += amount */\n  dup3\n  dup3\n  sload\n  tag_17\n  swap2\n  swap1\n  tag_18\n  jump\t// in\ntag_17:\n  swap3\n  pop\n  pop\n  dup2\n  swap1\n  sstore\n  pop\n    /* \"contracts/TinToken.sol\":1993:1999  amount */\n  dup1\n    /* \"contracts/TinToken.sol\":1978:1989  totalTokens */\n  0x02\n  0x00\n    /* \"contracts/TinToken.sol\":1978:1999  totalTokens += amount */\n  dup3\n  dup3\n  sload\n  tag_19\n  swap2\n  swap1\n  tag_18\n  jump\t// in\ntag_19:\n  swap3\n  pop\n  pop\n  dup2\n  swap1\n  sstore\n  pop\n    /* \"contracts/TinToken.sol\":2035:2045  msg.sender */\n  caller\n    /* \"contracts/TinToken.sol\":2014:2054  Transfer(address(0), msg.sender, amount) */\n  0xffffffffffffffffffffffffffffffffffffffff\n  and\n    /* \"contracts/TinToken.sol\":2031:2032  0 */\n  0x00\n    /* \"contracts/TinToken.sol\":2014:2054  Transfer(address(0), msg.sender, amount) */\n  0xffffffffffffffffffffffffffffffffffffffff\n  and\n  0xddf252ad1be2c89b69c2b068fc378daa952ba7f163c4a11628f55a4df523b3ef\n    /* \"contracts/TinToken.sol\":2047:2053  amount */\n  dup4\n    /* \"contracts/TinToken.sol\":2014:2054  Transfer(address(0), msg.sender, amount) */\n  mload(0x40)\n  tag_20\n  swap2\n  swap1\n  tag_21\n  jump\t// in\ntag_20:\n  mload(0x40)\n  dup1\n  swap2\n  sub\n  swap1\n  log3\n    /* \"contracts/TinToken.sol\":1884:2061  function mint(uint amount) public onlyOwner {... */\n  pop\n  jump\t// out\n    /* \"contracts/TinToken.sol\":81:2360  contract TinToken is IERC20 {... */\ntag_2:\n  dup3\n  dup1\n  sload\n  tag_22\n  swap1\n  tag_23\n  jump\t// in\ntag_22:\n  swap1\n  0x00\n  mstore\n  keccak256(0x00, 0x20)\n  swap1\n  0x1f\n  add\n  0x20\n  swap1\n  div\n  dup2\n  add\n  swap3\n  dup3\n  tag_25\n  jumpi\n  0x00\n  dup6\n  sstore\n  jump(tag_24)\ntag_25:\n  dup3\n  0x1f\n  lt\n  tag_26\n  jumpi\n  dup1\n  mload\n  not(0xff)\n  and\n  dup4\n  dup1\n  add\n  or\n  dup6\n  sstore\n  jump(tag_24)\ntag_26:\n  dup3\n  dup1\n  add\n  0x01\n  add\n  dup6\n  sstore\n  dup3\n  iszero\n  tag_24\n  jumpi\n  swap2\n  dup3\n  add\ntag_27:\n  dup3\n  dup2\n  gt\n  iszero\n  tag_28\n  jumpi\n  dup3\n  mload\n  dup3\n  sstore\n  swap2\n  0x20\n  add\n  swap2\n  swap1\n  0x01\n  add\n  swap1\n  jump(tag_27)\ntag_28:\ntag_24:\n  pop\n  swap1\n  pop\n  tag_29\n  swap2\n  swap1\n  tag_30\n  jump\t// in\ntag_29:\n  pop\n  swap1\n  jump\t// out\ntag_30:\ntag_31:\n  dup1\n  dup3\n  gt\n  iszero\n  tag_32\n  jumpi\n  0x00\n  dup2\n  0x00\n  swap1\n  sstore\n  pop\n  0x01\n  add\n  jump(tag_31)\ntag_32:\n  pop\n  swap1\n  jump\t// out\n    /* \"#utility.yul\":7:150   */\ntag_34:\n    /* \"#utility.yul\":64:69   */\n  0x00\n    /* \"#utility.yul\":95:101   */\n  dup2\n    /* \"#utility.yul\":89:102   */\n  mload\n    /* \"#utility.yul\":80:102   */\n  swap1\n  pop\n    /* \"#utility.yul\":111:144   */\n  tag_36\n    /* \"#utility.yul\":138:143   */\n  dup2\n    /* \"#utility.yul\":111:144   */\n  tag_37\n  jump\t// in\ntag_36:\n    /* \"#utility.yul\":7:150   */\n  swap3\n  swap2\n  pop\n  pop\n  jump\t// out\n    /* \"#utility.yul\":156:507   */\ntag_6:\n    /* \"#utility.yul\":226:232   */\n  0x00\n    /* \"#utility.yul\":275:277   */\n  0x20\n    /* \"#utility.yul\":263:272   */\n  dup3\n    /* \"#utility.yul\":254:261   */\n  dup5\n    /* \"#utility.yul\":250:273   */\n  sub\n    /* \"#utility.yul\":246:278   */\n  slt\n    /* \"#utility.yul\":243:362   */\n  iszero\n  tag_39\n  jumpi\n    /* \"#utility.yul\":281:360   */\n  tag_40\n  tag_41\n  jump\t// in\ntag_40:\n    /* \"#utility.yul\":243:362   */\ntag_39:\n    /* \"#utility.yul\":401:402   */\n  0x00\n    /* \"#utility.yul\":426:490   */\n  tag_42\n    /* \"#utility.yul\":482:489   */\n  dup5\n    /* \"#utility.yul\":473:479   */\n  dup3\n    /* \"#utility.yul\":462:471   */\n  dup6\n    /* \"#utility.yul\":458:480   */\n  add\n    /* \"#utility.yul\":426:490   */\n  tag_34\n  jump\t// in\ntag_42:\n    /* \"#utility.yul\":416:490   */\n  swap2\n  pop\n    /* \"#utility.yul\":372:500   */\n  pop\n    /* \"#utility.yul\":156:507   */\n  swap3\n  swap2\n  pop\n  pop\n  jump\t// out\n    /* \"#utility.yul\":513:879   */\ntag_43:\n    /* \"#utility.yul\":655:658   */\n  0x00\n    /* \"#utility.yul\":676:743   */\n  tag_45\n    /* \"#utility.yul\":740:742   */\n  0x15\n    /* \"#utility.yul\":735:738   */\n  dup4\n    /* \"#utility.yul\":676:743   */\n  tag_46\n  jump\t// in\ntag_45:\n    /* \"#utility.yul\":669:743   */\n  swap2\n  pop\n    /* \"#utility.yul\":752:845   */\n  tag_47\n    /* \"#utility.yul\":841:844   */\n  dup3\n    /* \"#utility.yul\":752:845   */\n  tag_48\n  jump\t// in\ntag_47:\n    /* \"#utility.yul\":870:872   */\n  0x20\n    /* \"#utility.yul\":865:868   */\n  dup3\n    /* \"#utility.yul\":861:873   */\n  add\n    /* \"#utility.yul\":854:873   */\n  swap1\n  pop\n    /* \"#utility.yul\":513:879   */\n  swap2\n  swap1\n  pop\n  jump\t// out\n    /* \"#utility.yul\":885:1003   */\ntag_49:\n    /* \"#utility.yul\":972:996   */\n  tag_51\n    /* \"#utility.yul\":990:995   */\n  dup2\n    /* \"#utility.yul\":972:996   */\n  tag_52\n  jump\t// in\ntag_51:\n    /* \"#utility.yul\":967:970   */\n  dup3\n    /* \"#utility.yul\":960:997   */\n  mstore\n    /* \"#utility.yul\":885:1003   */\n  pop\n  pop\n  jump\t// out\n    /* \"#utility.yul\":1009:1428   */\ntag_15:\n    /* \"#utility.yul\":1175:1179   */\n  0x00\n    /* \"#utility.yul\":1213:1215   */\n  0x20\n    /* \"#utility.yul\":1202:1211   */\n  dup3\n    /* \"#utility.yul\":1198:1216   */\n  add\n    /* \"#utility.yul\":1190:1216   */\n  swap1\n  pop\n    /* \"#utility.yul\":1262:1271   */\n  dup2\n    /* \"#utility.yul\":1256:1260   */\n  dup2\n    /* \"#utility.yul\":1252:1272   */\n  sub\n    /* \"#utility.yul\":1248:1249   */\n  0x00\n    /* \"#utility.yul\":1237:1246   */\n  dup4\n    /* \"#utility.yul\":1233:1250   */\n  add\n    /* \"#utility.yul\":1226:1273   */\n  mstore\n    /* \"#utility.yul\":1290:1421   */\n  tag_54\n    /* \"#utility.yul\":1416:1420   */\n  dup2\n    /* \"#utility.yul\":1290:1421   */\n  tag_43\n  jump\t// in\ntag_54:\n    /* \"#utility.yul\":1282:1421   */\n  swap1\n  pop\n    /* \"#utility.yul\":1009:1428   */\n  swap2\n  swap1\n  pop\n  jump\t// out\n    /* \"#utility.yul\":1434:1656   */\ntag_21:\n    /* \"#utility.yul\":1527:1531   */\n  0x00\n    /* \"#utility.yul\":1565:1567   */\n  0x20\n    /* \"#utility.yul\":1554:1563   */\n  dup3\n    /* \"#utility.yul\":1550:1568   */\n  add\n    /* \"#utility.yul\":1542:1568   */\n  swap1\n  pop\n    /* \"#utility.yul\":1578:1649   */\n  tag_56\n    /* \"#utility.yul\":1646:1647   */\n  0x00\n    /* \"#utility.yul\":1635:1644   */\n  dup4\n    /* \"#utility.yul\":1631:1648   */\n  add\n    /* \"#utility.yul\":1622:1628   */\n  dup5\n    /* \"#utility.yul\":1578:1649   */\n  tag_49\n  jump\t// in\ntag_56:\n    /* \"#utility.yul\":1434:1656   */\n  swap3\n  swap2\n  pop\n  pop\n  jump\t// out\n    /* \"#utility.yul\":1743:1912   */\ntag_46:\n    /* \"#utility.yul\":1827:1838   */\n  0x00\n    /* \"#utility.yul\":1861:1867   */\n  dup3\n    /* \"#utility.yul\":1856:1859   */\n  dup3\n    /* \"#utility.yul\":1849:1868   */\n  mstore\n    /* \"#utility.yul\":1901:1905   */\n  0x20\n    /* \"#utility.yul\":1896:1899   */\n  dup3\n    /* \"#utility.yul\":1892:1906   */\n  add\n    /* \"#utility.yul\":1877:1906   */\n  swap1\n  pop\n    /* \"#utility.yul\":1743:1912   */\n  swap3\n  swap2\n  pop\n  pop\n  jump\t// out\n    /* \"#utility.yul\":1918:2223   */\ntag_18:\n    /* \"#utility.yul\":1958:1961   */\n  0x00\n    /* \"#utility.yul\":1977:1997   */\n  tag_61\n    /* \"#utility.yul\":1995:1996   */\n  dup3\n    /* \"#utility.yul\":1977:1997   */\n  tag_52\n  jump\t// in\ntag_61:\n    /* \"#utility.yul\":1972:1997   */\n  swap2\n  pop\n    /* \"#utility.yul\":2011:2031   */\n  tag_62\n    /* \"#utility.yul\":2029:2030   */\n  dup4\n    /* \"#utility.yul\":2011:2031   */\n  tag_52\n  jump\t// in\ntag_62:\n    /* \"#utility.yul\":2006:2031   */\n  swap3\n  pop\n    /* \"#utility.yul\":2165:2166   */\n  dup3\n    /* \"#utility.yul\":2097:2163   */\n  0xffffffffffffffffffffffffffffffffffffffffffffffffffffffffffffffff\n    /* \"#utility.yul\":2093:2167   */\n  sub\n    /* \"#utility.yul\":2090:2091   */\n  dup3\n    /* \"#utility.yul\":2087:2168   */\n  gt\n    /* \"#utility.yul\":2084:2191   */\n  iszero\n  tag_63\n  jumpi\n    /* \"#utility.yul\":2171:2189   */\n  tag_64\n  tag_65\n  jump\t// in\ntag_64:\n    /* \"#utility.yul\":2084:2191   */\ntag_63:\n    /* \"#utility.yul\":2215:2216   */\n  dup3\n    /* \"#utility.yul\":2212:2213   */\n  dup3\n    /* \"#utility.yul\":2208:2217   */\n  add\n    /* \"#utility.yul\":2201:2217   */\n  swap1\n  pop\n    /* \"#utility.yul\":1918:2223   */\n  swap3\n  swap2\n  pop\n  pop\n  jump\t// out\n    /* \"#utility.yul\":2229:2306   */\ntag_52:\n    /* \"#utility.yul\":2266:2273   */\n  0x00\n    /* \"#utility.yul\":2295:2300   */\n  dup2\n    /* \"#utility.yul\":2284:2300   */\n  swap1\n  pop\n    /* \"#utility.yul\":2229:2306   */\n  swap2\n  swap1\n  pop\n  jump\t// out\n    /* \"#utility.yul\":2312:2632   */\ntag_23:\n    /* \"#utility.yul\":2356:2362   */\n  0x00\n    /* \"#utility.yul\":2393:2394   */\n  0x02\n    /* \"#utility.yul\":2387:2391   */\n  dup3\n    /* \"#utility.yul\":2383:2395   */\n  div\n    /* \"#utility.yul\":2373:2395   */\n  swap1\n  pop\n    /* \"#utility.yul\":2440:2441   */\n  0x01\n    /* \"#utility.yul\":2434:2438   */\n  dup3\n    /* \"#utility.yul\":2430:2442   */\n  and\n    /* \"#utility.yul\":2461:2479   */\n  dup1\n    /* \"#utility.yul\":2451:2532   */\n  tag_68\n  jumpi\n    /* \"#utility.yul\":2517:2521   */\n  0x7f\n    /* \"#utility.yul\":2509:2515   */\n  dup3\n    /* \"#utility.yul\":2505:2522   */\n  and\n    /* \"#utility.yul\":2495:2522   */\n  swap2\n  pop\n    /* \"#utility.yul\":2451:2532   */\ntag_68:\n    /* \"#utility.yul\":2579:2581   */\n  0x20\n    /* \"#utility.yul\":2571:2577   */\n  dup3\n    /* \"#utility.yul\":2568:2582   */\n  lt\n    /* \"#utility.yul\":2548:2566   */\n  dup2\n    /* \"#utility.yul\":2545:2583   */\n  eq\n    /* \"#utility.yul\":2542:2626   */\n  iszero\n  tag_69\n  jumpi\n    /* \"#utility.yul\":2598:2616   */\n  tag_70\n  tag_71\n  jump\t// in\ntag_70:\n    /* \"#utility.yul\":2542:2626   */\ntag_69:\n    /* \"#utility.yul\":2363:2632   */\n  pop\n    /* \"#utility.yul\":2312:2632   */\n  swap2\n  swap1\n  pop\n  jump\t// out\n    /* \"#utility.yul\":2638:2818   */\ntag_65:\n    /* \"#utility.yul\":2686:2763   */\n  0x4e487b7100000000000000000000000000000000000000000000000000000000\n    /* \"#utility.yul\":2683:2684   */\n  0x00\n    /* \"#utility.yul\":2676:2764   */\n  mstore\n    /* \"#utility.yul\":2783:2787   */\n  0x11\n    /* \"#utility.yul\":2780:2781   */\n  0x04\n    /* \"#utility.yul\":2773:2788   */\n  mstore\n    /* \"#utility.yul\":2807:2811   */\n  0x24\n    /* \"#utility.yul\":2804:2805   */\n  0x00\n    /* \"#utility.yul\":2797:2812   */\n  revert\n    /* \"#utility.yul\":2824:3004   */\ntag_71:\n    /* \"#utility.yul\":2872:2949   */\n  0x4e487b7100000000000000000000000000000000000000000000000000000000\n    /* \"#utility.yul\":2869:2870   */\n  0x00\n    /* \"#utility.yul\":2862:2950   */\n  mstore\n    /* \"#utility.yul\":2969:2973   */\n  0x22\n    /* \"#utility.yul\":2966:2967   */\n  0x04\n    /* \"#utility.yul\":2959:2974   */\n  mstore\n    /* \"#utility.yul\":2993:2997   */\n  0x24\n    /* \"#utility.yul\":2990:2991   */\n  0x00\n    /* \"#utility.yul\":2983:2998   */\n  revert\n    /* \"#utility.yul\":3133:3250   */\ntag_41:\n    /* \"#utility.yul\":3242:3243   */\n  0x00\n    /* \"#utility.yul\":3239:3240   */\n  dup1\n    /* \"#utility.yul\":3232:3244   */\n  revert\n    /* \"#utility.yul\":3256:3427   */\ntag_48:\n    /* \"#utility.yul\":3396:3419   */\n  0x596f7520617265206e6f7420616e206f776e6572210000000000000000000000\n    /* \"#utility.yul\":3392:3393   */\n  0x00\n    /* \"#utility.yul\":3384:3390   */\n  dup3\n    /* \"#utility.yul\":3380:3394   */\n  add\n    /* \"#utility.yul\":3373:3420   */\n  mstore\n    /* \"#utility.yul\":3256:3427   */\n  pop\n  jump\t// out\n    /* \"#utility.yul\":3433:3555   */\ntag_37:\n    /* \"#utility.yul\":3506:3530   */\n  tag_79\n    /* \"#utility.yul\":3524:3529   */\n  dup2\n    /* \"#utility.yul\":3506:3530   */\n  tag_52\n  jump\t// in\ntag_79:\n    /* \"#utility.yul\":3499:3504   */\n  dup2\n    /* \"#utility.yul\":3496:3531   */\n  eq\n    /* \"#utility.yul\":3486:3549   */\n  tag_80\n  jumpi\n    /* \"#utility.yul\":3545:3546   */\n  0x00\n    /* \"#utility.yul\":3542:3543   */\n  dup1\n    /* \"#utility.yul\":3535:3547   */\n  revert\n    /* \"#utility.yul\":3486:3549   */\ntag_80:\n    /* \"#utility.yul\":3433:3555   */\n  pop\n  jump\t// out\n    /* \"contracts/TinToken.sol\":81:2360  contract TinToken is IERC20 {... */\ntag_11:\n  dataSize(sub_0)\n  dup1\n  dataOffset(sub_0)\n  0x00\n  codecopy\n  0x00\n  return\nstop\n\nsub_0: assembly {\n        /* \"contracts/TinToken.sol\":81:2360  contract TinToken is IERC20 {... */\n      mstore(0x40, 0x80)\n      jumpi(tag_1, lt(calldatasize, 0x04))\n      shr(0xe0, calldataload(0x00))\n      dup1\n      0x70a08231\n      gt\n      tag_15\n      jumpi\n      dup1\n      0x70a08231\n      eq\n      tag_9\n      jumpi\n      dup1\n      0x95d89b41\n      eq\n      tag_10\n      jumpi\n      dup1\n      0xa0712d68\n      eq\n      tag_11\n      jumpi\n      dup1\n      0xa9059cbb\n      eq\n      tag_12\n      jumpi\n      dup1\n      0xdd62ed3e\n      eq\n      tag_13\n      jumpi\n      dup1\n      0xe7c9922f\n      eq\n      tag_14\n      jumpi\n      jump(tag_2)\n    tag_15:\n      dup1\n      0x06fdde03\n      eq\n      tag_3\n      jumpi\n      dup1\n      0x095ea7b3\n      eq\n      tag_4\n      jumpi\n      dup1\n      0x18160ddd\n      eq\n      tag_5\n      jumpi\n      dup1\n      0x23b872dd\n      eq\n      tag_6\n      jumpi\n      dup1\n      0x313ce567\n      eq\n      tag_7\n      jumpi\n      dup1\n      0x42966c68\n      eq\n      tag_8\n      jumpi\n      jump(tag_2)\n    tag_1:\n      jumpi(tag_2, calldatasize)\n      stop\n    tag_2:\n      stop\n        /* \"contracts/TinToken.sol\":302:333  string public name = \"TinToken\" */\n    tag_3:\n      callvalue\n      dup1\n      iszero\n      tag_20\n      jumpi\n      0x00\n      dup1\n      revert\n    tag_20:\n      pop\n      tag_21\n      tag_22\n      jump\t// in\n    tag_21:\n      mload(0x40)\n      tag_23\n      swap2\n      swap1\n      tag_24\n      jump\t// in\n    tag_23:\n      mload(0x40)\n      dup1\n      swap2\n      sub\n      swap1\n      return\n        /* \"contracts/TinToken.sol\":1402:1576  function approve(address spender, uint amount) external override {... */\n    tag_4:\n      callvalue\n      dup1\n      iszero\n      tag_25\n      jumpi\n      0x00\n      dup1\n      revert\n    tag_25:\n      pop\n      tag_26\n      0x04\n      dup1\n      calldatasize\n      sub\n      dup2\n      add\n      swap1\n      tag_27\n      swap2\n      swap1\n      tag_28\n      jump\t// in\n    tag_27:\n      tag_29\n      jump\t// in\n    tag_26:\n      stop\n        /* \"contracts/TinToken.sol\":815:908  function totalSupply() public override view returns(uint) {... */\n    tag_5:\n      callvalue\n      dup1\n      iszero\n      tag_30\n      jumpi\n      0x00\n      dup1\n      revert\n    tag_30:\n      pop\n      tag_31\n      tag_32\n      jump\t// in\n    tag_31:\n      mload(0x40)\n      tag_33\n      swap2\n      swap1\n      tag_34\n      jump\t// in\n    tag_33:\n      mload(0x40)\n      dup1\n      swap2\n      sub\n      swap1\n      return\n        /* \"contracts/TinToken.sol\":1582:1878  function transferFrom(address sender, address recipient, uint amount) public override enoughTokens(sender, amount) {... */\n    tag_6:\n      callvalue\n      dup1\n      iszero\n      tag_35\n      jumpi\n      0x00\n      dup1\n      revert\n    tag_35:\n      pop\n      tag_36\n      0x04\n      dup1\n      calldatasize\n      sub\n      dup2\n      add\n      swap1\n      tag_37\n      swap2\n      swap1\n      tag_38\n      jump\t// in\n    tag_37:\n      tag_39\n      jump\t// in\n    tag_36:\n      stop\n        /* \"contracts/TinToken.sol\":729:809  function decimals() public override pure returns(uint) {... */\n    tag_7:\n      callvalue\n      dup1\n      iszero\n      tag_40\n      jumpi\n      0x00\n      dup1\n      revert\n    tag_40:\n      pop\n      tag_41\n      tag_42\n      jump\t// in\n    tag_41:\n      mload(0x40)\n      tag_43\n      swap2\n      swap1\n      tag_34\n      jump\t// in\n    tag_43:\n      mload(0x40)\n      dup1\n      swap2\n      sub\n      swap1\n      return\n        /* \"contracts/TinToken.sol\":2067:2277  function burn(uint amount) public enoughTokens(msg.sender, amount) onlyOwner {... */\n    tag_8:\n      callvalue\n      dup1\n      iszero\n      tag_44\n      jumpi\n      0x00\n      dup1\n      revert\n    tag_44:\n      pop\n      tag_45\n      0x04\n      dup1\n      calldatasize\n      sub\n      dup2\n      add\n      swap1\n      tag_46\n      swap2\n      swap1\n      tag_47\n      jump\t// in\n    tag_46:\n      tag_48\n      jump\t// in\n    tag_45:\n      stop\n        /* \"contracts/TinToken.sol\":914:1026  function balanceOf(address account) public override view returns(uint) {... */\n    tag_9:\n      callvalue\n      dup1\n      iszero\n      tag_49\n      jumpi\n      0x00\n      dup1\n      revert\n    tag_49:\n      pop\n      tag_50\n      0x04\n      dup1\n      calldatasize\n      sub\n      dup2\n      add\n      swap1\n      tag_51\n      swap2\n      swap1\n      tag_52\n      jump\t// in\n    tag_51:\n      tag_53\n      jump\t// in\n    tag_50:\n      mload(0x40)\n      tag_54\n      swap2\n      swap1\n      tag_34\n      jump\t// in\n    tag_54:\n      mload(0x40)\n      dup1\n      swap2\n      sub\n      swap1\n      return\n        /* \"contracts/TinToken.sol\":339:367  string public symbol = \"TTN\" */\n    tag_10:\n      callvalue\n      dup1\n      iszero\n      tag_55\n      jumpi\n      0x00\n      dup1\n      revert\n    tag_55:\n      pop\n      tag_56\n      tag_57\n      jump\t// in\n    tag_56:\n      mload(0x40)\n      tag_58\n      swap2\n      swap1\n      tag_24\n      jump\t// in\n    tag_58:\n      mload(0x40)\n      dup1\n      swap2\n      sub\n      swap1\n      return\n        /* \"contracts/TinToken.sol\":1884:2061  function mint(uint amount) public onlyOwner {... */\n    tag_11:\n      callvalue\n      dup1\n      iszero\n      tag_59\n      jumpi\n      0x00\n      dup1\n      revert\n    tag_59:\n      pop\n      tag_60\n      0x04\n      dup1\n      calldatasize\n      sub\n      dup2\n      add\n      swap1\n      tag_61\n      swap2\n      swap1\n      tag_47\n      jump\t// in\n    tag_61:\n      tag_62\n      jump\t// in\n    tag_60:\n      stop\n        /* \"contracts/TinToken.sol\":1032:1252  function transfer(address to, uint amount) external override enoughTokens(msg.sender, amount) {... */\n    tag_12:\n      callvalue\n      dup1\n      iszero\n      tag_63\n      jumpi\n      0x00\n      dup1\n      revert\n    tag_63:\n      pop\n      tag_64\n      0x04\n      dup1\n      calldatasize\n      sub\n      dup2\n      add\n      swap1\n      tag_65\n      swap2\n      swap1\n      tag_28\n      jump\t// in\n    tag_65:\n      tag_66\n      jump\t// in\n    tag_64:\n      stop\n        /* \"contracts/TinToken.sol\":1258:1396  function allowance(address owner, address spender) external override view returns(uint) {... */\n    tag_13:\n      callvalue\n      dup1\n      iszero\n      tag_67\n      jumpi\n      0x00\n      dup1\n      revert\n    tag_67:\n      pop\n      tag_68\n      0x04\n      dup1\n      calldatasize\n      sub\n      dup2\n      add\n      swap1\n      tag_69\n      swap2\n      swap1\n      tag_70\n      jump\t// in\n    tag_69:\n      tag_71\n      jump\t// in\n    tag_68:\n      mload(0x40)\n      tag_72\n      swap2\n      swap1\n      tag_34\n      jump\t// in\n    tag_72:\n      mload(0x40)\n      dup1\n      swap2\n      sub\n      swap1\n      return\n        /* \"contracts/TinToken.sol\":115:139  address public thisOwner */\n    tag_14:\n      callvalue\n      dup1\n      iszero\n      tag_73\n      jumpi\n      0x00\n      dup1\n      revert\n    tag_73:\n      pop\n      tag_74\n      tag_75\n      jump\t// in\n    tag_74:\n      mload(0x40)\n      tag_76\n      swap2\n      swap1\n      tag_77\n      jump\t// in\n    tag_76:\n      mload(0x40)\n      dup1\n      swap2\n      sub\n      swap1\n      return\n        /* \"contracts/TinToken.sol\":302:333  string public name = \"TinToken\" */\n    tag_22:\n      0x05\n      dup1\n      sload\n      tag_78\n      swap1\n      tag_79\n      jump\t// in\n    tag_78:\n      dup1\n      0x1f\n      add\n      0x20\n      dup1\n      swap2\n      div\n      mul\n      0x20\n      add\n      mload(0x40)\n      swap1\n      dup2\n      add\n      0x40\n      mstore\n      dup1\n      swap3\n      swap2\n      swap1\n      dup2\n      dup2\n      mstore\n      0x20\n      add\n      dup3\n      dup1\n      sload\n      tag_80\n      swap1\n      tag_79\n      jump\t// in\n    tag_80:\n      dup1\n      iszero\n      tag_81\n      jumpi\n      dup1\n      0x1f\n      lt\n      tag_82\n      jumpi\n      0x0100\n      dup1\n      dup4\n      sload\n      div\n      mul\n      dup4\n      mstore\n      swap2\n      0x20\n      add\n      swap2\n      jump(tag_81)\n    tag_82:\n      dup3\n      add\n      swap2\n      swap1\n      0x00\n      mstore\n      keccak256(0x00, 0x20)\n      swap1\n    tag_83:\n      dup2\n      sload\n      dup2\n      mstore\n      swap1\n      0x01\n      add\n      swap1\n      0x20\n      add\n      dup1\n      dup4\n      gt\n      tag_83\n      jumpi\n      dup3\n      swap1\n      sub\n      0x1f\n      and\n      dup3\n      add\n      swap2\n    tag_81:\n      pop\n      pop\n      pop\n      pop\n      pop\n      dup2\n      jump\t// out\n        /* \"contracts/TinToken.sol\":1402:1576  function approve(address spender, uint amount) external override {... */\n    tag_29:\n        /* \"contracts/TinToken.sol\":1511:1517  amount */\n      dup1\n        /* \"contracts/TinToken.sol\":1477:1487  allowances */\n      0x04\n        /* \"contracts/TinToken.sol\":1477:1499  allowances[msg.sender] */\n      0x00\n        /* \"contracts/TinToken.sol\":1488:1498  msg.sender */\n      caller\n        /* \"contracts/TinToken.sol\":1477:1499  allowances[msg.sender] */\n      0xffffffffffffffffffffffffffffffffffffffff\n      and\n      0xffffffffffffffffffffffffffffffffffffffff\n      and\n      dup2\n      mstore\n      0x20\n      add\n      swap1\n      dup2\n      mstore\n      0x20\n      add\n      0x00\n      keccak256\n        /* \"contracts/TinToken.sol\":1477:1508  allowances[msg.sender][spender] */\n      0x00\n        /* \"contracts/TinToken.sol\":1500:1507  spender */\n      dup5\n        /* \"contracts/TinToken.sol\":1477:1508  allowances[msg.sender][spender] */\n      0xffffffffffffffffffffffffffffffffffffffff\n      and\n      0xffffffffffffffffffffffffffffffffffffffff\n      and\n      dup2\n      mstore\n      0x20\n      add\n      swap1\n      dup2\n      mstore\n      0x20\n      add\n      0x00\n      keccak256\n        /* \"contracts/TinToken.sol\":1477:1517  allowances[msg.sender][spender] = amount */\n      dup2\n      swap1\n      sstore\n      pop\n        /* \"contracts/TinToken.sol\":1553:1560  spender */\n      dup2\n        /* \"contracts/TinToken.sol\":1532:1569  Approval(msg.sender, spender, amount) */\n      0xffffffffffffffffffffffffffffffffffffffff\n      and\n        /* \"contracts/TinToken.sol\":1541:1551  msg.sender */\n      caller\n        /* \"contracts/TinToken.sol\":1532:1569  Approval(msg.sender, spender, amount) */\n      0xffffffffffffffffffffffffffffffffffffffff\n      and\n      0x8c5be1e5ebec7d5bd14f71427d1e84f3dd0314c0f7b2291e5b200ac8c7c3b925\n        /* \"contracts/TinToken.sol\":1562:1568  amount */\n      dup4\n        /* \"contracts/TinToken.sol\":1532:1569  Approval(msg.sender, spender, amount) */\n      mload(0x40)\n      tag_85\n      swap2\n      swap1\n      tag_34\n      jump\t// in\n    tag_85:\n      mload(0x40)\n      dup1\n      swap2\n      sub\n      swap1\n      log3\n        /* \"contracts/TinToken.sol\":1402:1576  function approve(address spender, uint amount) external override {... */\n      pop\n      pop\n      jump\t// out\n        /* \"contracts/TinToken.sol\":815:908  function totalSupply() public override view returns(uint) {... */\n    tag_32:\n        /* \"contracts/TinToken.sol\":867:871  uint */\n      0x00\n        /* \"contracts/TinToken.sol\":890:901  totalTokens */\n      sload(0x02)\n        /* \"contracts/TinToken.sol\":883:901  return totalTokens */\n      swap1\n      pop\n        /* \"contracts/TinToken.sol\":815:908  function totalSupply() public override view returns(uint) {... */\n      swap1\n      jump\t// out\n        /* \"contracts/TinToken.sol\":1582:1878  function transferFrom(address sender, address recipient, uint amount) public override enoughTokens(sender, amount) {... */\n    tag_39:\n        /* \"contracts/TinToken.sol\":1681:1687  sender */\n      dup3\n        /* \"contracts/TinToken.sol\":1689:1695  amount */\n      dup2\n        /* \"contracts/TinToken.sol\":565:572  _amount */\n      dup1\n        /* \"contracts/TinToken.sol\":545:561  balanceOf(_from) */\n      tag_88\n        /* \"contracts/TinToken.sol\":555:560  _from */\n      dup4\n        /* \"contracts/TinToken.sol\":545:554  balanceOf */\n      tag_53\n        /* \"contracts/TinToken.sol\":545:561  balanceOf(_from) */\n      jump\t// in\n    tag_88:\n        /* \"contracts/TinToken.sol\":545:572  balanceOf(_from) >= _amount */\n      lt\n      iszero\n        /* \"contracts/TinToken.sol\":537:595  require(balanceOf(_from) >= _amount, \"Not enough tokens!\") */\n      tag_89\n      jumpi\n      mload(0x40)\n      0x08c379a000000000000000000000000000000000000000000000000000000000\n      dup2\n      mstore\n      0x04\n      add\n      tag_90\n      swap1\n      tag_91\n      jump\t// in\n    tag_90:\n      mload(0x40)\n      dup1\n      swap2\n      sub\n      swap1\n      revert\n    tag_89:\n        /* \"contracts/TinToken.sol\":1740:1746  amount */\n      dup3\n        /* \"contracts/TinToken.sol\":1707:1717  allowances */\n      0x04\n        /* \"contracts/TinToken.sol\":1707:1725  allowances[sender] */\n      0x00\n        /* \"contracts/TinToken.sol\":1718:1724  sender */\n      dup8\n        /* \"contracts/TinToken.sol\":1707:1725  allowances[sender] */\n      0xffffffffffffffffffffffffffffffffffffffff\n      and\n      0xffffffffffffffffffffffffffffffffffffffff\n      and\n      dup2\n      mstore\n      0x20\n      add\n      swap1\n      dup2\n      mstore\n      0x20\n      add\n      0x00\n      keccak256\n        /* \"contracts/TinToken.sol\":1707:1736  allowances[sender][recipient] */\n      0x00\n        /* \"contracts/TinToken.sol\":1726:1735  recipient */\n      dup7\n        /* \"contracts/TinToken.sol\":1707:1736  allowances[sender][recipient] */\n      0xffffffffffffffffffffffffffffffffffffffff\n      and\n      0xffffffffffffffffffffffffffffffffffffffff\n      and\n      dup2\n      mstore\n      0x20\n      add\n      swap1\n      dup2\n      mstore\n      0x20\n      add\n      0x00\n      keccak256\n      0x00\n        /* \"contracts/TinToken.sol\":1707:1746  allowances[sender][recipient] -= amount */\n      dup3\n      dup3\n      sload\n      tag_93\n      swap2\n      swap1\n      tag_94\n      jump\t// in\n    tag_93:\n      swap3\n      pop\n      pop\n      dup2\n      swap1\n      sstore\n      pop\n        /* \"contracts/TinToken.sol\":1776:1782  amount */\n      dup3\n        /* \"contracts/TinToken.sol\":1756:1764  balances */\n      0x03\n        /* \"contracts/TinToken.sol\":1756:1772  balances[sender] */\n      0x00\n        /* \"contracts/TinToken.sol\":1765:1771  sender */\n      dup8\n        /* \"contracts/TinToken.sol\":1756:1772  balances[sender] */\n      0xffffffffffffffffffffffffffffffffffffffff\n      and\n      0xffffffffffffffffffffffffffffffffffffffff\n      and\n      dup2\n      mstore\n      0x20\n      add\n      swap1\n      dup2\n      mstore\n      0x20\n      add\n      0x00\n      keccak256\n      0x00\n        /* \"contracts/TinToken.sol\":1756:1782  balances[sender] -= amount */\n      dup3\n      dup3\n      sload\n      tag_95\n      swap2\n      swap1\n      tag_94\n      jump\t// in\n    tag_95:\n      swap3\n      pop\n      pop\n      dup2\n      swap1\n      sstore\n      pop\n        /* \"contracts/TinToken.sol\":1815:1821  amount */\n      dup3\n        /* \"contracts/TinToken.sol\":1792:1800  balances */\n      0x03\n        /* \"contracts/TinToken.sol\":1792:1811  balances[recipient] */\n      0x00\n        /* \"contracts/TinToken.sol\":1801:1810  recipient */\n      dup7\n        /* \"contracts/TinToken.sol\":1792:1811  balances[recipient] */\n      0xffffffffffffffffffffffffffffffffffffffff\n      and\n      0xffffffffffffffffffffffffffffffffffffffff\n      and\n      dup2\n      mstore\n      0x20\n      add\n      swap1\n      dup2\n      mstore\n      0x20\n      add\n      0x00\n      keccak256\n      0x00\n        /* \"contracts/TinToken.sol\":1792:1821  balances[recipient] += amount */\n      dup3\n      dup3\n      sload\n      tag_96\n      swap2\n      swap1\n      tag_97\n      jump\t// in\n    tag_96:\n      swap3\n      pop\n      pop\n      dup2\n      swap1\n      sstore\n      pop\n        /* \"contracts/TinToken.sol\":1853:1862  recipient */\n      dup4\n        /* \"contracts/TinToken.sol\":1836:1871  Transfer(sender, recipient, amount) */\n      0xffffffffffffffffffffffffffffffffffffffff\n      and\n        /* \"contracts/TinToken.sol\":1845:1851  sender */\n      dup6\n        /* \"contracts/TinToken.sol\":1836:1871  Transfer(sender, recipient, amount) */\n      0xffffffffffffffffffffffffffffffffffffffff\n      and\n      0xddf252ad1be2c89b69c2b068fc378daa952ba7f163c4a11628f55a4df523b3ef\n        /* \"contracts/TinToken.sol\":1864:1870  amount */\n      dup6\n        /* \"contracts/TinToken.sol\":1836:1871  Transfer(sender, recipient, amount) */\n      mload(0x40)\n      tag_98\n      swap2\n      swap1\n      tag_34\n      jump\t// in\n    tag_98:\n      mload(0x40)\n      dup1\n      swap2\n      sub\n      swap1\n      log3\n        /* \"contracts/TinToken.sol\":1582:1878  function transferFrom(address sender, address recipient, uint amount) public override enoughTokens(sender, amount) {... */\n      pop\n      pop\n      pop\n      pop\n      pop\n      jump\t// out\n        /* \"contracts/TinToken.sol\":729:809  function decimals() public override pure returns(uint) {... */\n    tag_42:\n        /* \"contracts/TinToken.sol\":778:782  uint */\n      0x00\n        /* \"contracts/TinToken.sol\":801:802  3 */\n      0x03\n        /* \"contracts/TinToken.sol\":794:802  return 3 */\n      swap1\n      pop\n        /* \"contracts/TinToken.sol\":729:809  function decimals() public override pure returns(uint) {... */\n      swap1\n      jump\t// out\n        /* \"contracts/TinToken.sol\":2067:2277  function burn(uint amount) public enoughTokens(msg.sender, amount) onlyOwner {... */\n    tag_48:\n        /* \"contracts/TinToken.sol\":2114:2124  msg.sender */\n      caller\n        /* \"contracts/TinToken.sol\":2126:2132  amount */\n      dup2\n        /* \"contracts/TinToken.sol\":565:572  _amount */\n      dup1\n        /* \"contracts/TinToken.sol\":545:561  balanceOf(_from) */\n      tag_101\n        /* \"contracts/TinToken.sol\":555:560  _from */\n      dup4\n        /* \"contracts/TinToken.sol\":545:554  balanceOf */\n      tag_53\n        /* \"contracts/TinToken.sol\":545:561  balanceOf(_from) */\n      jump\t// in\n    tag_101:\n        /* \"contracts/TinToken.sol\":545:572  balanceOf(_from) >= _amount */\n      lt\n      iszero\n        /* \"contracts/TinToken.sol\":537:595  require(balanceOf(_from) >= _amount, \"Not enough tokens!\") */\n      tag_102\n      jumpi\n      mload(0x40)\n      0x08c379a000000000000000000000000000000000000000000000000000000000\n      dup2\n      mstore\n      0x04\n      add\n      tag_103\n      swap1\n      tag_91\n      jump\t// in\n    tag_103:\n      mload(0x40)\n      dup1\n      swap2\n      sub\n      swap1\n      revert\n    tag_102:\n        /* \"contracts/TinToken.sol\":670:679  thisOwner */\n      0x00\n      dup1\n      sload\n      swap1\n      0x0100\n      exp\n      swap1\n      div\n      0xffffffffffffffffffffffffffffffffffffffff\n      and\n        /* \"contracts/TinToken.sol\":656:679  msg.sender == thisOwner */\n      0xffffffffffffffffffffffffffffffffffffffff\n      and\n        /* \"contracts/TinToken.sol\":656:666  msg.sender */\n      caller\n        /* \"contracts/TinToken.sol\":656:679  msg.sender == thisOwner */\n      0xffffffffffffffffffffffffffffffffffffffff\n      and\n      eq\n        /* \"contracts/TinToken.sol\":648:705  require(msg.sender == thisOwner, \"You are not an owner!\") */\n      tag_105\n      jumpi\n      mload(0x40)\n      0x08c379a000000000000000000000000000000000000000000000000000000000\n      dup2\n      mstore\n      0x04\n      add\n      tag_106\n      swap1\n      tag_107\n      jump\t// in\n    tag_106:\n      mload(0x40)\n      dup1\n      swap2\n      sub\n      swap1\n      revert\n    tag_105:\n        /* \"contracts/TinToken.sol\":2178:2184  amount */\n      dup3\n        /* \"contracts/TinToken.sol\":2154:2162  balances */\n      0x03\n        /* \"contracts/TinToken.sol\":2154:2174  balances[msg.sender] */\n      0x00\n        /* \"contracts/TinToken.sol\":2163:2173  msg.sender */\n      caller\n        /* \"contracts/TinToken.sol\":2154:2174  balances[msg.sender] */\n      0xffffffffffffffffffffffffffffffffffffffff\n      and\n      0xffffffffffffffffffffffffffffffffffffffff\n      and\n      dup2\n      mstore\n      0x20\n      add\n      swap1\n      dup2\n      mstore\n      0x20\n      add\n      0x00\n      keccak256\n      0x00\n        /* \"contracts/TinToken.sol\":2154:2184  balances[msg.sender] -= amount */\n      dup3\n      dup3\n      sload\n      tag_109\n      swap2\n      swap1\n      tag_94\n      jump\t// in\n    tag_109:\n      swap3\n      pop\n      pop\n      dup2\n      swap1\n      sstore\n      pop\n        /* \"contracts/TinToken.sol\":2209:2215  amount */\n      dup3\n        /* \"contracts/TinToken.sol\":2194:2205  totalTokens */\n      0x02\n      0x00\n        /* \"contracts/TinToken.sol\":2194:2215  totalTokens -= amount */\n      dup3\n      dup3\n      sload\n      tag_110\n      swap2\n      swap1\n      tag_94\n      jump\t// in\n    tag_110:\n      swap3\n      pop\n      pop\n      dup2\n      swap1\n      sstore\n      pop\n        /* \"contracts/TinToken.sol\":2259:2260  0 */\n      0x00\n        /* \"contracts/TinToken.sol\":2230:2270  Transfer(msg.sender, address(0), amount) */\n      0xffffffffffffffffffffffffffffffffffffffff\n      and\n        /* \"contracts/TinToken.sol\":2239:2249  msg.sender */\n      caller\n        /* \"contracts/TinToken.sol\":2230:2270  Transfer(msg.sender, address(0), amount) */\n      0xffffffffffffffffffffffffffffffffffffffff\n      and\n      0xddf252ad1be2c89b69c2b068fc378daa952ba7f163c4a11628f55a4df523b3ef\n        /* \"contracts/TinToken.sol\":2263:2269  amount */\n      dup6\n        /* \"contracts/TinToken.sol\":2230:2270  Transfer(msg.sender, address(0), amount) */\n      mload(0x40)\n      tag_111\n      swap2\n      swap1\n      tag_34\n      jump\t// in\n    tag_111:\n      mload(0x40)\n      dup1\n      swap2\n      sub\n      swap1\n      log3\n        /* \"contracts/TinToken.sol\":2067:2277  function burn(uint amount) public enoughTokens(msg.sender, amount) onlyOwner {... */\n      pop\n      pop\n      pop\n      jump\t// out\n        /* \"contracts/TinToken.sol\":914:1026  function balanceOf(address account) public override view returns(uint) {... */\n    tag_53:\n        /* \"contracts/TinToken.sol\":979:983  uint */\n      0x00\n        /* \"contracts/TinToken.sol\":1002:1010  balances */\n      0x03\n        /* \"contracts/TinToken.sol\":1002:1019  balances[account] */\n      0x00\n        /* \"contracts/TinToken.sol\":1011:1018  account */\n      dup4\n        /* \"contracts/TinToken.sol\":1002:1019  balances[account] */\n      0xffffffffffffffffffffffffffffffffffffffff\n      and\n      0xffffffffffffffffffffffffffffffffffffffff\n      and\n      dup2\n      mstore\n      0x20\n      add\n      swap1\n      dup2\n      mstore\n      0x20\n      add\n      0x00\n      keccak256\n      sload\n        /* \"contracts/TinToken.sol\":995:1019  return balances[account] */\n      swap1\n      pop\n        /* \"contracts/TinToken.sol\":914:1026  function balanceOf(address account) public override view returns(uint) {... */\n      swap2\n      swap1\n      pop\n      jump\t// out\n        /* \"contracts/TinToken.sol\":339:367  string public symbol = \"TTN\" */\n    tag_57:\n      0x06\n      dup1\n      sload\n      tag_113\n      swap1\n      tag_79\n      jump\t// in\n    tag_113:\n      dup1\n      0x1f\n      add\n      0x20\n      dup1\n      swap2\n      div\n      mul\n      0x20\n      add\n      mload(0x40)\n      swap1\n      dup2\n      add\n      0x40\n      mstore\n      dup1\n      swap3\n      swap2\n      swap1\n      dup2\n      dup2\n      mstore\n      0x20\n      add\n      dup3\n      dup1\n      sload\n      tag_114\n      swap1\n      tag_79\n      jump\t// in\n    tag_114:\n      dup1\n      iszero\n      tag_115\n      jumpi\n      dup1\n      0x1f\n      lt\n      tag_116\n      jumpi\n      0x0100\n      dup1\n      dup4\n      sload\n      div\n      mul\n      dup4\n      mstore\n      swap2\n      0x20\n      add\n      swap2\n      jump(tag_115)\n    tag_116:\n      dup3\n      add\n      swap2\n      swap1\n      0x00\n      mstore\n      keccak256(0x00, 0x20)\n      swap1\n    tag_117:\n      dup2\n      sload\n      dup2\n      mstore\n      swap1\n      0x01\n      add\n      swap1\n      0x20\n      add\n      dup1\n      dup4\n      gt\n      tag_117\n      jumpi\n      dup3\n      swap1\n      sub\n      0x1f\n      and\n      dup3\n      add\n      swap2\n    tag_115:\n      pop\n      pop\n      pop\n      pop\n      pop\n      dup2\n      jump\t// out\n        /* \"contracts/TinToken.sol\":1884:2061  function mint(uint amount) public onlyOwner {... */\n    tag_62:\n        /* \"contracts/TinToken.sol\":670:679  thisOwner */\n      0x00\n      dup1\n      sload\n      swap1\n      0x0100\n      exp\n      swap1\n      div\n      0xffffffffffffffffffffffffffffffffffffffff\n      and\n        /* \"contracts/TinToken.sol\":656:679  msg.sender == thisOwner */\n      0xffffffffffffffffffffffffffffffffffffffff\n      and\n        /* \"contracts/TinToken.sol\":656:666  msg.sender */\n      caller\n        /* \"contracts/TinToken.sol\":656:679  msg.sender == thisOwner */\n      0xffffffffffffffffffffffffffffffffffffffff\n      and\n      eq\n        /* \"contracts/TinToken.sol\":648:705  require(msg.sender == thisOwner, \"You are not an owner!\") */\n      tag_119\n      jumpi\n      mload(0x40)\n      0x08c379a000000000000000000000000000000000000000000000000000000000\n      dup2\n      mstore\n      0x04\n      add\n      tag_120\n      swap1\n      tag_107\n      jump\t// in\n    tag_120:\n      mload(0x40)\n      dup1\n      swap2\n      sub\n      swap1\n      revert\n    tag_119:\n        /* \"contracts/TinToken.sol\":1962:1968  amount */\n      dup1\n        /* \"contracts/TinToken.sol\":1938:1946  balances */\n      0x03\n        /* \"contracts/TinToken.sol\":1938:1958  balances[msg.sender] */\n      0x00\n        /* \"contracts/TinToken.sol\":1947:1957  msg.sender */\n      caller\n        /* \"contracts/TinToken.sol\":1938:1958  balances[msg.sender] */\n      0xffffffffffffffffffffffffffffffffffffffff\n      and\n      0xffffffffffffffffffffffffffffffffffffffff\n      and\n      dup2\n      mstore\n      0x20\n      add\n      swap1\n      dup2\n      mstore\n      0x20\n      add\n      0x00\n      keccak256\n      0x00\n        /* \"contracts/TinToken.sol\":1938:1968  balances[msg.sender] += amount */\n      dup3\n      dup3\n      sload\n      tag_122\n      swap2\n      swap1\n      tag_97\n      jump\t// in\n    tag_122:\n      swap3\n      pop\n      pop\n      dup2\n      swap1\n      sstore\n      pop\n        /* \"contracts/TinToken.sol\":1993:1999  amount */\n      dup1\n        /* \"contracts/TinToken.sol\":1978:1989  totalTokens */\n      0x02\n      0x00\n        /* \"contracts/TinToken.sol\":1978:1999  totalTokens += amount */\n      dup3\n      dup3\n      sload\n      tag_123\n      swap2\n      swap1\n      tag_97\n      jump\t// in\n    tag_123:\n      swap3\n      pop\n      pop\n      dup2\n      swap1\n      sstore\n      pop\n        /* \"contracts/TinToken.sol\":2035:2045  msg.sender */\n      caller\n        /* \"contracts/TinToken.sol\":2014:2054  Transfer(address(0), msg.sender, amount) */\n      0xffffffffffffffffffffffffffffffffffffffff\n      and\n        /* \"contracts/TinToken.sol\":2031:2032  0 */\n      0x00\n        /* \"contracts/TinToken.sol\":2014:2054  Transfer(address(0), msg.sender, amount) */\n      0xffffffffffffffffffffffffffffffffffffffff\n      and\n      0xddf252ad1be2c89b69c2b068fc378daa952ba7f163c4a11628f55a4df523b3ef\n        /* \"contracts/TinToken.sol\":2047:2053  amount */\n      dup4\n        /* \"contracts/TinToken.sol\":2014:2054  Transfer(address(0), msg.sender, amount) */\n      mload(0x40)\n      tag_124\n      swap2\n      swap1\n      tag_34\n      jump\t// in\n    tag_124:\n      mload(0x40)\n      dup1\n      swap2\n      sub\n      swap1\n      log3\n        /* \"contracts/TinToken.sol\":1884:2061  function mint(uint amount) public onlyOwner {... */\n      pop\n      jump\t// out\n        /* \"contracts/TinToken.sol\":1032:1252  function transfer(address to, uint amount) external override enoughTokens(msg.sender, amount) {... */\n    tag_66:\n        /* \"contracts/TinToken.sol\":1106:1116  msg.sender */\n      caller\n        /* \"contracts/TinToken.sol\":1118:1124  amount */\n      dup2\n        /* \"contracts/TinToken.sol\":565:572  _amount */\n      dup1\n        /* \"contracts/TinToken.sol\":545:561  balanceOf(_from) */\n      tag_126\n        /* \"contracts/TinToken.sol\":555:560  _from */\n      dup4\n        /* \"contracts/TinToken.sol\":545:554  balanceOf */\n      tag_53\n        /* \"contracts/TinToken.sol\":545:561  balanceOf(_from) */\n      jump\t// in\n    tag_126:\n        /* \"contracts/TinToken.sol\":545:572  balanceOf(_from) >= _amount */\n      lt\n      iszero\n        /* \"contracts/TinToken.sol\":537:595  require(balanceOf(_from) >= _amount, \"Not enough tokens!\") */\n      tag_127\n      jumpi\n      mload(0x40)\n      0x08c379a000000000000000000000000000000000000000000000000000000000\n      dup2\n      mstore\n      0x04\n      add\n      tag_128\n      swap1\n      tag_91\n      jump\t// in\n    tag_128:\n      mload(0x40)\n      dup1\n      swap2\n      sub\n      swap1\n      revert\n    tag_127:\n        /* \"contracts/TinToken.sol\":1160:1166  amount */\n      dup3\n        /* \"contracts/TinToken.sol\":1136:1144  balances */\n      0x03\n        /* \"contracts/TinToken.sol\":1136:1156  balances[msg.sender] */\n      0x00\n        /* \"contracts/TinToken.sol\":1145:1155  msg.sender */\n      caller\n        /* \"contracts/TinToken.sol\":1136:1156  balances[msg.sender] */\n      0xffffffffffffffffffffffffffffffffffffffff\n      and\n      0xffffffffffffffffffffffffffffffffffffffff\n      and\n      dup2\n      mstore\n      0x20\n      add\n      swap1\n      dup2\n      mstore\n      0x20\n      add\n      0x00\n      keccak256\n      0x00\n        /* \"contracts/TinToken.sol\":1136:1166  balances[msg.sender] -= amount */\n      dup3\n      dup3\n      sload\n      tag_130\n      swap2\n      swap1\n      tag_94\n      jump\t// in\n    tag_130:\n      swap3\n      pop\n      pop\n      dup2\n      swap1\n      sstore\n      pop\n        /* \"contracts/TinToken.sol\":1192:1198  amount */\n      dup3\n        /* \"contracts/TinToken.sol\":1176:1184  balances */\n      0x03\n        /* \"contracts/TinToken.sol\":1176:1188  balances[to] */\n      0x00\n        /* \"contracts/TinToken.sol\":1185:1187  to */\n      dup7\n        /* \"contracts/TinToken.sol\":1176:1188  balances[to] */\n      0xffffffffffffffffffffffffffffffffffffffff\n      and\n      0xffffffffffffffffffffffffffffffffffffffff\n      and\n      dup2\n      mstore\n      0x20\n      add\n      swap1\n      dup2\n      mstore\n      0x20\n      add\n      0x00\n      keccak256\n      0x00\n        /* \"contracts/TinToken.sol\":1176:1198  balances[to] += amount */\n      dup3\n      dup3\n      sload\n      tag_131\n      swap2\n      swap1\n      tag_97\n      jump\t// in\n    tag_131:\n      swap3\n      pop\n      pop\n      dup2\n      swap1\n      sstore\n      pop\n        /* \"contracts/TinToken.sol\":1234:1236  to */\n      dup4\n        /* \"contracts/TinToken.sol\":1213:1245  Transfer(msg.sender, to ,amount) */\n      0xffffffffffffffffffffffffffffffffffffffff\n      and\n        /* \"contracts/TinToken.sol\":1222:1232  msg.sender */\n      caller\n        /* \"contracts/TinToken.sol\":1213:1245  Transfer(msg.sender, to ,amount) */\n      0xffffffffffffffffffffffffffffffffffffffff\n      and\n      0xddf252ad1be2c89b69c2b068fc378daa952ba7f163c4a11628f55a4df523b3ef\n        /* \"contracts/TinToken.sol\":1238:1244  amount */\n      dup6\n        /* \"contracts/TinToken.sol\":1213:1245  Transfer(msg.sender, to ,amount) */\n      mload(0x40)\n      tag_132\n      swap2\n      swap1\n      tag_34\n      jump\t// in\n    tag_132:\n      mload(0x40)\n      dup1\n      swap2\n      sub\n      swap1\n      log3\n        /* \"contracts/TinToken.sol\":1032:1252  function transfer(address to, uint amount) external override enoughTokens(msg.sender, amount) {... */\n      pop\n      pop\n      pop\n      pop\n      jump\t// out\n        /* \"contracts/TinToken.sol\":1258:1396  function allowance(address owner, address spender) external override view returns(uint) {... */\n    tag_71:\n        /* \"contracts/TinToken.sol\":1340:1344  uint */\n      0x00\n        /* \"contracts/TinToken.sol\":1363:1373  allowances */\n      0x04\n        /* \"contracts/TinToken.sol\":1363:1380  allowances[owner] */\n      0x00\n        /* \"contracts/TinToken.sol\":1374:1379  owner */\n      dup5\n        /* \"contracts/TinToken.sol\":1363:1380  allowances[owner] */\n      0xffffffffffffffffffffffffffffffffffffffff\n      and\n      0xffffffffffffffffffffffffffffffffffffffff\n      and\n      dup2\n      mstore\n      0x20\n      add\n      swap1\n      dup2\n      mstore\n      0x20\n      add\n      0x00\n      keccak256\n        /* \"contracts/TinToken.sol\":1363:1389  allowances[owner][spender] */\n      0x00\n        /* \"contracts/TinToken.sol\":1381:1388  spender */\n      dup4\n        /* \"contracts/TinToken.sol\":1363:1389  allowances[owner][spender] */\n      0xffffffffffffffffffffffffffffffffffffffff\n      and\n      0xffffffffffffffffffffffffffffffffffffffff\n      and\n      dup2\n      mstore\n      0x20\n      add\n      swap1\n      dup2\n      mstore\n      0x20\n      add\n      0x00\n      keccak256\n      sload\n        /* \"contracts/TinToken.sol\":1356:1389  return allowances[owner][spender] */\n      swap1\n      pop\n        /* \"contracts/TinToken.sol\":1258:1396  function allowance(address owner, address spender) external override view returns(uint) {... */\n      swap3\n      swap2\n      pop\n      pop\n      jump\t// out\n        /* \"contracts/TinToken.sol\":115:139  address public thisOwner */\n    tag_75:\n      0x00\n      dup1\n      sload\n      swap1\n      0x0100\n      exp\n      swap1\n      div\n      0xffffffffffffffffffffffffffffffffffffffff\n      and\n      dup2\n      jump\t// out\n        /* \"#utility.yul\":7:146   */\n    tag_135:\n        /* \"#utility.yul\":53:58   */\n      0x00\n        /* \"#utility.yul\":91:97   */\n      dup2\n        /* \"#utility.yul\":78:98   */\n      calldataload\n        /* \"#utility.yul\":69:98   */\n      swap1\n      pop\n        /* \"#utility.yul\":107:140   */\n      tag_137\n        /* \"#utility.yul\":134:139   */\n      dup2\n        /* \"#utility.yul\":107:140   */\n      tag_138\n      jump\t// in\n    tag_137:\n        /* \"#utility.yul\":7:146   */\n      swap3\n      swap2\n      pop\n      pop\n      jump\t// out\n        /* \"#utility.yul\":152:291   */\n    tag_139:\n        /* \"#utility.yul\":198:203   */\n      0x00\n        /* \"#utility.yul\":236:242   */\n      dup2\n        /* \"#utility.yul\":223:243   */\n      calldataload\n        /* \"#utility.yul\":214:243   */\n      swap1\n      pop\n        /* \"#utility.yul\":252:285   */\n      tag_141\n        /* \"#utility.yul\":279:284   */\n      dup2\n        /* \"#utility.yul\":252:285   */\n      tag_142\n      jump\t// in\n    tag_141:\n        /* \"#utility.yul\":152:291   */\n      swap3\n      swap2\n      pop\n      pop\n      jump\t// out\n        /* \"#utility.yul\":297:626   */\n    tag_52:\n        /* \"#utility.yul\":356:362   */\n      0x00\n        /* \"#utility.yul\":405:407   */\n      0x20\n        /* \"#utility.yul\":393:402   */\n      dup3\n        /* \"#utility.yul\":384:391   */\n      dup5\n        /* \"#utility.yul\":380:403   */\n      sub\n        /* \"#utility.yul\":376:408   */\n      slt\n        /* \"#utility.yul\":373:492   */\n      iszero\n      tag_144\n      jumpi\n        /* \"#utility.yul\":411:490   */\n      tag_145\n      tag_146\n      jump\t// in\n    tag_145:\n        /* \"#utility.yul\":373:492   */\n    tag_144:\n        /* \"#utility.yul\":531:532   */\n      0x00\n        /* \"#utility.yul\":556:609   */\n      tag_147\n        /* \"#utility.yul\":601:608   */\n      dup5\n        /* \"#utility.yul\":592:598   */\n      dup3\n        /* \"#utility.yul\":581:590   */\n      dup6\n        /* \"#utility.yul\":577:599   */\n      add\n        /* \"#utility.yul\":556:609   */\n      tag_135\n      jump\t// in\n    tag_147:\n        /* \"#utility.yul\":546:609   */\n      swap2\n      pop\n        /* \"#utility.yul\":502:619   */\n      pop\n        /* \"#utility.yul\":297:626   */\n      swap3\n      swap2\n      pop\n      pop\n      jump\t// out\n        /* \"#utility.yul\":632:1106   */\n    tag_70:\n        /* \"#utility.yul\":700:706   */\n      0x00\n        /* \"#utility.yul\":708:714   */\n      dup1\n        /* \"#utility.yul\":757:759   */\n      0x40\n        /* \"#utility.yul\":745:754   */\n      dup4\n        /* \"#utility.yul\":736:743   */\n      dup6\n        /* \"#utility.yul\":732:755   */\n      sub\n        /* \"#utility.yul\":728:760   */\n      slt\n        /* \"#utility.yul\":725:844   */\n      iszero\n      tag_149\n      jumpi\n        /* \"#utility.yul\":763:842   */\n      tag_150\n      tag_146\n      jump\t// in\n    tag_150:\n        /* \"#utility.yul\":725:844   */\n    tag_149:\n        /* \"#utility.yul\":883:884   */\n      0x00\n        /* \"#utility.yul\":908:961   */\n      tag_151\n        /* \"#utility.yul\":953:960   */\n      dup6\n        /* \"#utility.yul\":944:950   */\n      dup3\n        /* \"#utility.yul\":933:942   */\n      dup7\n        /* \"#utility.yul\":929:951   */\n      add\n        /* \"#utility.yul\":908:961   */\n      tag_135\n      jump\t// in\n    tag_151:\n        /* \"#utility.yul\":898:961   */\n      swap3\n      pop\n        /* \"#utility.yul\":854:971   */\n      pop\n        /* \"#utility.yul\":1010:1012   */\n      0x20\n        /* \"#utility.yul\":1036:1089   */\n      tag_152\n        /* \"#utility.yul\":1081:1088   */\n      dup6\n        /* \"#utility.yul\":1072:1078   */\n      dup3\n        /* \"#utility.yul\":1061:1070   */\n      dup7\n        /* \"#utility.yul\":1057:1079   */\n      add\n        /* \"#utility.yul\":1036:1089   */\n      tag_135\n      jump\t// in\n    tag_152:\n        /* \"#utility.yul\":1026:1089   */\n      swap2\n      pop\n        /* \"#utility.yul\":981:1099   */\n      pop\n        /* \"#utility.yul\":632:1106   */\n      swap3\n      pop\n      swap3\n      swap1\n      pop\n      jump\t// out\n        /* \"#utility.yul\":1112:1731   */\n    tag_38:\n        /* \"#utility.yul\":1189:1195   */\n      0x00\n        /* \"#utility.yul\":1197:1203   */\n      dup1\n        /* \"#utility.yul\":1205:1211   */\n      0x00\n        /* \"#utility.yul\":1254:1256   */\n      0x60\n        /* \"#utility.yul\":1242:1251   */\n      dup5\n        /* \"#utility.yul\":1233:1240   */\n      dup7\n        /* \"#utility.yul\":1229:1252   */\n      sub\n        /* \"#utility.yul\":1225:1257   */\n      slt\n        /* \"#utility.yul\":1222:1341   */\n      iszero\n      tag_154\n      jumpi\n        /* \"#utility.yul\":1260:1339   */\n      tag_155\n      tag_146\n      jump\t// in\n    tag_155:\n        /* \"#utility.yul\":1222:1341   */\n    tag_154:\n        /* \"#utility.yul\":1380:1381   */\n      0x00\n        /* \"#utility.yul\":1405:1458   */\n      tag_156\n        /* \"#utility.yul\":1450:1457   */\n      dup7\n        /* \"#utility.yul\":1441:1447   */\n      dup3\n        /* \"#utility.yul\":1430:1439   */\n      dup8\n        /* \"#utility.yul\":1426:1448   */\n      add\n        /* \"#utility.yul\":1405:1458   */\n      tag_135\n      jump\t// in\n    tag_156:\n        /* \"#utility.yul\":1395:1458   */\n      swap4\n      pop\n        /* \"#utility.yul\":1351:1468   */\n      pop\n        /* \"#utility.yul\":1507:1509   */\n      0x20\n        /* \"#utility.yul\":1533:1586   */\n      tag_157\n        /* \"#utility.yul\":1578:1585   */\n      dup7\n        /* \"#utility.yul\":1569:1575   */\n      dup3\n        /* \"#utility.yul\":1558:1567   */\n      dup8\n        /* \"#utility.yul\":1554:1576   */\n      add\n        /* \"#utility.yul\":1533:1586   */\n      tag_135\n      jump\t// in\n    tag_157:\n        /* \"#utility.yul\":1523:1586   */\n      swap3\n      pop\n        /* \"#utility.yul\":1478:1596   */\n      pop\n        /* \"#utility.yul\":1635:1637   */\n      0x40\n        /* \"#utility.yul\":1661:1714   */\n      tag_158\n        /* \"#utility.yul\":1706:1713   */\n      dup7\n        /* \"#utility.yul\":1697:1703   */\n      dup3\n        /* \"#utility.yul\":1686:1695   */\n      dup8\n        /* \"#utility.yul\":1682:1704   */\n      add\n        /* \"#utility.yul\":1661:1714   */\n      tag_139\n      jump\t// in\n    tag_158:\n        /* \"#utility.yul\":1651:1714   */\n      swap2\n      pop\n        /* \"#utility.yul\":1606:1724   */\n      pop\n        /* \"#utility.yul\":1112:1731   */\n      swap3\n      pop\n      swap3\n      pop\n      swap3\n      jump\t// out\n        /* \"#utility.yul\":1737:2211   */\n    tag_28:\n        /* \"#utility.yul\":1805:1811   */\n      0x00\n        /* \"#utility.yul\":1813:1819   */\n      dup1\n        /* \"#utility.yul\":1862:1864   */\n      0x40\n        /* \"#utility.yul\":1850:1859   */\n      dup4\n        /* \"#utility.yul\":1841:1848   */\n      dup6\n        /* \"#utility.yul\":1837:1860   */\n      sub\n        /* \"#utility.yul\":1833:1865   */\n      slt\n        /* \"#utility.yul\":1830:1949   */\n      iszero\n      tag_160\n      jumpi\n        /* \"#utility.yul\":1868:1947   */\n      tag_161\n      tag_146\n      jump\t// in\n    tag_161:\n        /* \"#utility.yul\":1830:1949   */\n    tag_160:\n        /* \"#utility.yul\":1988:1989   */\n      0x00\n        /* \"#utility.yul\":2013:2066   */\n      tag_162\n        /* \"#utility.yul\":2058:2065   */\n      dup6\n        /* \"#utility.yul\":2049:2055   */\n      dup3\n        /* \"#utility.yul\":2038:2047   */\n      dup7\n        /* \"#utility.yul\":2034:2056   */\n      add\n        /* \"#utility.yul\":2013:2066   */\n      tag_135\n      jump\t// in\n    tag_162:\n        /* \"#utility.yul\":2003:2066   */\n      swap3\n      pop\n        /* \"#utility.yul\":1959:2076   */\n      pop\n        /* \"#utility.yul\":2115:2117   */\n      0x20\n        /* \"#utility.yul\":2141:2194   */\n      tag_163\n        /* \"#utility.yul\":2186:2193   */\n      dup6\n        /* \"#utility.yul\":2177:2183   */\n      dup3\n        /* \"#utility.yul\":2166:2175   */\n      dup7\n        /* \"#utility.yul\":2162:2184   */\n      add\n        /* \"#utility.yul\":2141:2194   */\n      tag_139\n      jump\t// in\n    tag_163:\n        /* \"#utility.yul\":2131:2194   */\n      swap2\n      pop\n        /* \"#utility.yul\":2086:2204   */\n      pop\n        /* \"#utility.yul\":1737:2211   */\n      swap3\n      pop\n      swap3\n      swap1\n      pop\n      jump\t// out\n        /* \"#utility.yul\":2217:2546   */\n    tag_47:\n        /* \"#utility.yul\":2276:2282   */\n      0x00\n        /* \"#utility.yul\":2325:2327   */\n      0x20\n        /* \"#utility.yul\":2313:2322   */\n      dup3\n        /* \"#utility.yul\":2304:2311   */\n      dup5\n        /* \"#utility.yul\":2300:2323   */\n      sub\n        /* \"#utility.yul\":2296:2328   */\n      slt\n        /* \"#utility.yul\":2293:2412   */\n      iszero\n      tag_165\n      jumpi\n        /* \"#utility.yul\":2331:2410   */\n      tag_166\n      tag_146\n      jump\t// in\n    tag_166:\n        /* \"#utility.yul\":2293:2412   */\n    tag_165:\n        /* \"#utility.yul\":2451:2452   */\n      0x00\n        /* \"#utility.yul\":2476:2529   */\n      tag_167\n        /* \"#utility.yul\":2521:2528   */\n      dup5\n        /* \"#utility.yul\":2512:2518   */\n      dup3\n        /* \"#utility.yul\":2501:2510   */\n      dup6\n        /* \"#utility.yul\":2497:2519   */\n      add\n        /* \"#utility.yul\":2476:2529   */\n      tag_139\n      jump\t// in\n    tag_167:\n        /* \"#utility.yul\":2466:2529   */\n      swap2\n      pop\n        /* \"#utility.yul\":2422:2539   */\n      pop\n        /* \"#utility.yul\":2217:2546   */\n      swap3\n      swap2\n      pop\n      pop\n      jump\t// out\n        /* \"#utility.yul\":2552:2670   */\n    tag_168:\n        /* \"#utility.yul\":2639:2663   */\n      tag_170\n        /* \"#utility.yul\":2657:2662   */\n      dup2\n        /* \"#utility.yul\":2639:2663   */\n      tag_171\n      jump\t// in\n    tag_170:\n        /* \"#utility.yul\":2634:2637   */\n      dup3\n        /* \"#utility.yul\":2627:2664   */\n      mstore\n        /* \"#utility.yul\":2552:2670   */\n      pop\n      pop\n      jump\t// out\n        /* \"#utility.yul\":2676:3040   */\n    tag_172:\n        /* \"#utility.yul\":2764:2767   */\n      0x00\n        /* \"#utility.yul\":2792:2831   */\n      tag_174\n        /* \"#utility.yul\":2825:2830   */\n      dup3\n        /* \"#utility.yul\":2792:2831   */\n      tag_175\n      jump\t// in\n    tag_174:\n        /* \"#utility.yul\":2847:2918   */\n      tag_176\n        /* \"#utility.yul\":2911:2917   */\n      dup2\n        /* \"#utility.yul\":2906:2909   */\n      dup6\n        /* \"#utility.yul\":2847:2918   */\n      tag_177\n      jump\t// in\n    tag_176:\n        /* \"#utility.yul\":2840:2918   */\n      swap4\n      pop\n        /* \"#utility.yul\":2927:2979   */\n      tag_178\n        /* \"#utility.yul\":2972:2978   */\n      dup2\n        /* \"#utility.yul\":2967:2970   */\n      dup6\n        /* \"#utility.yul\":2960:2964   */\n      0x20\n        /* \"#utility.yul\":2953:2958   */\n      dup7\n        /* \"#utility.yul\":2949:2965   */\n      add\n        /* \"#utility.yul\":2927:2979   */\n      tag_179\n      jump\t// in\n    tag_178:\n        /* \"#utility.yul\":3004:3033   */\n      tag_180\n        /* \"#utility.yul\":3026:3032   */\n      dup2\n        /* \"#utility.yul\":3004:3033   */\n      tag_181\n      jump\t// in\n    tag_180:\n        /* \"#utility.yul\":2999:3002   */\n      dup5\n        /* \"#utility.yul\":2995:3034   */\n      add\n        /* \"#utility.yul\":2988:3034   */\n      swap2\n      pop\n        /* \"#utility.yul\":2768:3040   */\n      pop\n        /* \"#utility.yul\":2676:3040   */\n      swap3\n      swap2\n      pop\n      pop\n      jump\t// out\n        /* \"#utility.yul\":3046:3412   */\n    tag_182:\n        /* \"#utility.yul\":3188:3191   */\n      0x00\n        /* \"#utility.yul\":3209:3276   */\n      tag_184\n        /* \"#utility.yul\":3273:3275   */\n      0x15\n        /* \"#utility.yul\":3268:3271   */\n      dup4\n        /* \"#utility.yul\":3209:3276   */\n      tag_177\n      jump\t// in\n    tag_184:\n        /* \"#utility.yul\":3202:3276   */\n      swap2\n      pop\n        /* \"#utility.yul\":3285:3378   */\n      tag_185\n        /* \"#utility.yul\":3374:3377   */\n      dup3\n        /* \"#utility.yul\":3285:3378   */\n      tag_186\n      jump\t// in\n    tag_185:\n        /* \"#utility.yul\":3403:3405   */\n      0x20\n        /* \"#utility.yul\":3398:3401   */\n      dup3\n        /* \"#utility.yul\":3394:3406   */\n      add\n        /* \"#utility.yul\":3387:3406   */\n      swap1\n      pop\n        /* \"#utility.yul\":3046:3412   */\n      swap2\n      swap1\n      pop\n      jump\t// out\n        /* \"#utility.yul\":3418:3784   */\n    tag_187:\n        /* \"#utility.yul\":3560:3563   */\n      0x00\n        /* \"#utility.yul\":3581:3648   */\n      tag_189\n        /* \"#utility.yul\":3645:3647   */\n      0x12\n        /* \"#utility.yul\":3640:3643   */\n      dup4\n        /* \"#utility.yul\":3581:3648   */\n      tag_177\n      jump\t// in\n    tag_189:\n        /* \"#utility.yul\":3574:3648   */\n      swap2\n      pop\n        /* \"#utility.yul\":3657:3750   */\n      tag_190\n        /* \"#utility.yul\":3746:3749   */\n      dup3\n        /* \"#utility.yul\":3657:3750   */\n      tag_191\n      jump\t// in\n    tag_190:\n        /* \"#utility.yul\":3775:3777   */\n      0x20\n        /* \"#utility.yul\":3770:3773   */\n      dup3\n        /* \"#utility.yul\":3766:3778   */\n      add\n        /* \"#utility.yul\":3759:3778   */\n      swap1\n      pop\n        /* \"#utility.yul\":3418:3784   */\n      swap2\n      swap1\n      pop\n      jump\t// out\n        /* \"#utility.yul\":3790:3908   */\n    tag_192:\n        /* \"#utility.yul\":3877:3901   */\n      tag_194\n        /* \"#utility.yul\":3895:3900   */\n      dup2\n        /* \"#utility.yul\":3877:3901   */\n      tag_195\n      jump\t// in\n    tag_194:\n        /* \"#utility.yul\":3872:3875   */\n      dup3\n        /* \"#utility.yul\":3865:3902   */\n      mstore\n        /* \"#utility.yul\":3790:3908   */\n      pop\n      pop\n      jump\t// out\n        /* \"#utility.yul\":3914:4136   */\n    tag_77:\n        /* \"#utility.yul\":4007:4011   */\n      0x00\n        /* \"#utility.yul\":4045:4047   */\n      0x20\n        /* \"#utility.yul\":4034:4043   */\n      dup3\n        /* \"#utility.yul\":4030:4048   */\n      add\n        /* \"#utility.yul\":4022:4048   */\n      swap1\n      pop\n        /* \"#utility.yul\":4058:4129   */\n      tag_197\n        /* \"#utility.yul\":4126:4127   */\n      0x00\n        /* \"#utility.yul\":4115:4124   */\n      dup4\n        /* \"#utility.yul\":4111:4128   */\n      add\n        /* \"#utility.yul\":4102:4108   */\n      dup5\n        /* \"#utility.yul\":4058:4129   */\n      tag_168\n      jump\t// in\n    tag_197:\n        /* \"#utility.yul\":3914:4136   */\n      swap3\n      swap2\n      pop\n      pop\n      jump\t// out\n        /* \"#utility.yul\":4142:4455   */\n    tag_24:\n        /* \"#utility.yul\":4255:4259   */\n      0x00\n        /* \"#utility.yul\":4293:4295   */\n      0x20\n        /* \"#utility.yul\":4282:4291   */\n      dup3\n        /* \"#utility.yul\":4278:4296   */\n      add\n        /* \"#utility.yul\":4270:4296   */\n      swap1\n      pop\n        /* \"#utility.yul\":4342:4351   */\n      dup2\n        /* \"#utility.yul\":4336:4340   */\n      dup2\n        /* \"#utility.yul\":4332:4352   */\n      sub\n        /* \"#utility.yul\":4328:4329   */\n      0x00\n        /* \"#utility.yul\":4317:4326   */\n      dup4\n        /* \"#utility.yul\":4313:4330   */\n      add\n        /* \"#utility.yul\":4306:4353   */\n      mstore\n        /* \"#utility.yul\":4370:4448   */\n      tag_199\n        /* \"#utility.yul\":4443:4447   */\n      dup2\n        /* \"#utility.yul\":4434:4440   */\n      dup5\n        /* \"#utility.yul\":4370:4448   */\n      tag_172\n      jump\t// in\n    tag_199:\n        /* \"#utility.yul\":4362:4448   */\n      swap1\n      pop\n        /* \"#utility.yul\":4142:4455   */\n      swap3\n      swap2\n      pop\n      pop\n      jump\t// out\n        /* \"#utility.yul\":4461:4880   */\n    tag_107:\n        /* \"#utility.yul\":4627:4631   */\n      0x00\n        /* \"#utility.yul\":4665:4667   */\n      0x20\n        /* \"#utility.yul\":4654:4663   */\n      dup3\n        /* \"#utility.yul\":4650:4668   */\n      add\n        /* \"#utility.yul\":4642:4668   */\n      swap1\n      pop\n        /* \"#utility.yul\":4714:4723   */\n      dup2\n        /* \"#utility.yul\":4708:4712   */\n      dup2\n        /* \"#utility.yul\":4704:4724   */\n      sub\n        /* \"#utility.yul\":4700:4701   */\n      0x00\n        /* \"#utility.yul\":4689:4698   */\n      dup4\n        /* \"#utility.yul\":4685:4702   */\n      add\n        /* \"#utility.yul\":4678:4725   */\n      mstore\n        /* \"#utility.yul\":4742:4873   */\n      tag_201\n        /* \"#utility.yul\":4868:4872   */\n      dup2\n        /* \"#utility.yul\":4742:4873   */\n      tag_182\n      jump\t// in\n    tag_201:\n        /* \"#utility.yul\":4734:4873   */\n      swap1\n      pop\n        /* \"#utility.yul\":4461:4880   */\n      swap2\n      swap1\n      pop\n      jump\t// out\n        /* \"#utility.yul\":4886:5305   */\n    tag_91:\n        /* \"#utility.yul\":5052:5056   */\n      0x00\n        /* \"#utility.yul\":5090:5092   */\n      0x20\n        /* \"#utility.yul\":5079:5088   */\n      dup3\n        /* \"#utility.yul\":5075:5093   */\n      add\n        /* \"#utility.yul\":5067:5093   */\n      swap1\n      pop\n        /* \"#utility.yul\":5139:5148   */\n      dup2\n        /* \"#utility.yul\":5133:5137   */\n      dup2\n        /* \"#utility.yul\":5129:5149   */\n      sub\n        /* \"#utility.yul\":5125:5126   */\n      0x00\n        /* \"#utility.yul\":5114:5123   */\n      dup4\n        /* \"#utility.yul\":5110:5127   */\n      add\n        /* \"#utility.yul\":5103:5150   */\n      mstore\n        /* \"#utility.yul\":5167:5298   */\n      tag_203\n        /* \"#utility.yul\":5293:5297   */\n      dup2\n        /* \"#utility.yul\":5167:5298   */\n      tag_187\n      jump\t// in\n    tag_203:\n        /* \"#utility.yul\":5159:5298   */\n      swap1\n      pop\n        /* \"#utility.yul\":4886:5305   */\n      swap2\n      swap1\n      pop\n      jump\t// out\n        /* \"#utility.yul\":5311:5533   */\n    tag_34:\n        /* \"#utility.yul\":5404:5408   */\n      0x00\n        /* \"#utility.yul\":5442:5444   */\n      0x20\n        /* \"#utility.yul\":5431:5440   */\n      dup3\n        /* \"#utility.yul\":5427:5445   */\n      add\n        /* \"#utility.yul\":5419:5445   */\n      swap1\n      pop\n        /* \"#utility.yul\":5455:5526   */\n      tag_205\n        /* \"#utility.yul\":5523:5524   */\n      0x00\n        /* \"#utility.yul\":5512:5521   */\n      dup4\n        /* \"#utility.yul\":5508:5525   */\n      add\n        /* \"#utility.yul\":5499:5505   */\n      dup5\n        /* \"#utility.yul\":5455:5526   */\n      tag_192\n      jump\t// in\n    tag_205:\n        /* \"#utility.yul\":5311:5533   */\n      swap3\n      swap2\n      pop\n      pop\n      jump\t// out\n        /* \"#utility.yul\":5620:5719   */\n    tag_175:\n        /* \"#utility.yul\":5672:5678   */\n      0x00\n        /* \"#utility.yul\":5706:5711   */\n      dup2\n        /* \"#utility.yul\":5700:5712   */\n      mload\n        /* \"#utility.yul\":5690:5712   */\n      swap1\n      pop\n        /* \"#utility.yul\":5620:5719   */\n      swap2\n      swap1\n      pop\n      jump\t// out\n        /* \"#utility.yul\":5725:5894   */\n    tag_177:\n        /* \"#utility.yul\":5809:5820   */\n      0x00\n        /* \"#utility.yul\":5843:5849   */\n      dup3\n        /* \"#utility.yul\":5838:5841   */\n      dup3\n        /* \"#utility.yul\":5831:5850   */\n      mstore\n        /* \"#utility.yul\":5883:5887   */\n      0x20\n        /* \"#utility.yul\":5878:5881   */\n      dup3\n        /* \"#utility.yul\":5874:5888   */\n      add\n        /* \"#utility.yul\":5859:5888   */\n      swap1\n      pop\n        /* \"#utility.yul\":5725:5894   */\n      swap3\n      swap2\n      pop\n      pop\n      jump\t// out\n        /* \"#utility.yul\":5900:6205   */\n    tag_97:\n        /* \"#utility.yul\":5940:5943   */\n      0x00\n        /* \"#utility.yul\":5959:5979   */\n      tag_211\n        /* \"#utility.yul\":5977:5978   */\n      dup3\n        /* \"#utility.yul\":5959:5979   */\n      tag_195\n      jump\t// in\n    tag_211:\n        /* \"#utility.yul\":5954:5979   */\n      swap2\n      pop\n        /* \"#utility.yul\":5993:6013   */\n      tag_212\n        /* \"#utility.yul\":6011:6012   */\n      dup4\n        /* \"#utility.yul\":5993:6013   */\n      tag_195\n      jump\t// in\n    tag_212:\n        /* \"#utility.yul\":5988:6013   */\n      swap3\n      pop\n        /* \"#utility.yul\":6147:6148   */\n      dup3\n        /* \"#utility.yul\":6079:6145   */\n      0xffffffffffffffffffffffffffffffffffffffffffffffffffffffffffffffff\n        /* \"#utility.yul\":6075:6149   */\n      sub\n        /* \"#utility.yul\":6072:6073   */\n      dup3\n        /* \"#utility.yul\":6069:6150   */\n      gt\n        /* \"#utility.yul\":6066:6173   */\n      iszero\n      tag_213\n      jumpi\n        /* \"#utility.yul\":6153:6171   */\n      tag_214\n      tag_215\n      jump\t// in\n    tag_214:\n        /* \"#utility.yul\":6066:6173   */\n    tag_213:\n        /* \"#utility.yul\":6197:6198   */\n      dup3\n        /* \"#utility.yul\":6194:6195   */\n      dup3\n        /* \"#utility.yul\":6190:6199   */\n      add\n        /* \"#utility.yul\":6183:6199   */\n      swap1\n      pop\n        /* \"#utility.yul\":5900:6205   */\n      swap3\n      swap2\n      pop\n      pop\n      jump\t// out\n        /* \"#utility.yul\":6211:6402   */\n    tag_94:\n        /* \"#utility.yul\":6251:6255   */\n      0x00\n        /* \"#utility.yul\":6271:6291   */\n      tag_217\n        /* \"#utility.yul\":6289:6290   */\n      dup3\n        /* \"#utility.yul\":6271:6291   */\n      tag_195\n      jump\t// in\n    tag_217:\n        /* \"#utility.yul\":6266:6291   */\n      swap2\n      pop\n        /* \"#utility.yul\":6305:6325   */\n      tag_218\n        /* \"#utility.yul\":6323:6324   */\n      dup4\n        /* \"#utility.yul\":6305:6325   */\n      tag_195\n      jump\t// in\n    tag_218:\n        /* \"#utility.yul\":6300:6325   */\n      swap3\n      pop\n        /* \"#utility.yul\":6344:6345   */\n      dup3\n        /* \"#utility.yul\":6341:6342   */\n      dup3\n        /* \"#utility.yul\":6338:6346   */\n      lt\n        /* \"#utility.yul\":6335:6369   */\n      iszero\n      tag_219\n      jumpi\n        /* \"#utility.yul\":6349:6367   */\n      tag_220\n      tag_215\n      jump\t// in\n    tag_220:\n        /* \"#utility.yul\":6335:6369   */\n    tag_219:\n        /* \"#utility.yul\":6394:6395   */\n      dup3\n        /* \"#utility.yul\":6391:6392   */\n      dup3\n        /* \"#utility.yul\":6387:6396   */\n      sub\n        /* \"#utility.yul\":6379:6396   */\n      swap1\n      pop\n        /* \"#utility.yul\":6211:6402   */\n      swap3\n      swap2\n      pop\n      pop\n      jump\t// out\n        /* \"#utility.yul\":6408:6504   */\n    tag_171:\n        /* \"#utility.yul\":6445:6452   */\n      0x00\n        /* \"#utility.yul\":6474:6498   */\n      tag_222\n        /* \"#utility.yul\":6492:6497   */\n      dup3\n        /* \"#utility.yul\":6474:6498   */\n      tag_223\n      jump\t// in\n    tag_222:\n        /* \"#utility.yul\":6463:6498   */\n      swap1\n      pop\n        /* \"#utility.yul\":6408:6504   */\n      swap2\n      swap1\n      pop\n      jump\t// out\n        /* \"#utility.yul\":6510:6636   */\n    tag_223:\n        /* \"#utility.yul\":6547:6554   */\n      0x00\n        /* \"#utility.yul\":6587:6629   */\n      0xffffffffffffffffffffffffffffffffffffffff\n        /* \"#utility.yul\":6580:6585   */\n      dup3\n        /* \"#utility.yul\":6576:6630   */\n      and\n        /* \"#utility.yul\":6565:6630   */\n      swap1\n      pop\n        /* \"#utility.yul\":6510:6636   */\n      swap2\n      swap1\n      pop\n      jump\t// out\n        /* \"#utility.yul\":6642:6719   */\n    tag_195:\n        /* \"#utility.yul\":6679:6686   */\n      0x00\n        /* \"#utility.yul\":6708:6713   */\n      dup2\n        /* \"#utility.yul\":6697:6713   */\n      swap1\n      pop\n        /* \"#utility.yul\":6642:6719   */\n      swap2\n      swap1\n      pop\n      jump\t// out\n        /* \"#utility.yul\":6725:7032   */\n    tag_179:\n        /* \"#utility.yul\":6793:6794   */\n      0x00\n        /* \"#utility.yul\":6803:6916   */\n    tag_227:\n        /* \"#utility.yul\":6817:6823   */\n      dup4\n        /* \"#utility.yul\":6814:6815   */\n      dup2\n        /* \"#utility.yul\":6811:6824   */\n      lt\n        /* \"#utility.yul\":6803:6916   */\n      iszero\n      tag_229\n      jumpi\n        /* \"#utility.yul\":6902:6903   */\n      dup1\n        /* \"#utility.yul\":6897:6900   */\n      dup3\n        /* \"#utility.yul\":6893:6904   */\n      add\n        /* \"#utility.yul\":6887:6905   */\n      mload\n        /* \"#utility.yul\":6883:6884   */\n      dup2\n        /* \"#utility.yul\":6878:6881   */\n      dup5\n        /* \"#utility.yul\":6874:6885   */\n      add\n        /* \"#utility.yul\":6867:6906   */\n      mstore\n        /* \"#utility.yul\":6839:6841   */\n      0x20\n        /* \"#utility.yul\":6836:6837   */\n      dup2\n        /* \"#utility.yul\":6832:6842   */\n      add\n        /* \"#utility.yul\":6827:6842   */\n      swap1\n      pop\n        /* \"#utility.yul\":6803:6916   */\n      jump(tag_227)\n    tag_229:\n        /* \"#utility.yul\":6934:6940   */\n      dup4\n        /* \"#utility.yul\":6931:6932   */\n      dup2\n        /* \"#utility.yul\":6928:6941   */\n      gt\n        /* \"#utility.yul\":6925:7026   */\n      iszero\n      tag_230\n      jumpi\n        /* \"#utility.yul\":7014:7015   */\n      0x00\n        /* \"#utility.yul\":7005:7011   */\n      dup5\n        /* \"#utility.yul\":7000:7003   */\n      dup5\n        /* \"#utility.yul\":6996:7012   */\n      add\n        /* \"#utility.yul\":6989:7016   */\n      mstore\n        /* \"#utility.yul\":6925:7026   */\n    tag_230:\n        /* \"#utility.yul\":6774:7032   */\n      pop\n        /* \"#utility.yul\":6725:7032   */\n      pop\n      pop\n      pop\n      jump\t// out\n        /* \"#utility.yul\":7038:7358   */\n    tag_79:\n        /* \"#utility.yul\":7082:7088   */\n      0x00\n        /* \"#utility.yul\":7119:7120   */\n      0x02\n        /* \"#utility.yul\":7113:7117   */\n      dup3\n        /* \"#utility.yul\":7109:7121   */\n      div\n        /* \"#utility.yul\":7099:7121   */\n      swap1\n      pop\n        /* \"#utility.yul\":7166:7167   */\n      0x01\n        /* \"#utility.yul\":7160:7164   */\n      dup3\n        /* \"#utility.yul\":7156:7168   */\n      and\n        /* \"#utility.yul\":7187:7205   */\n      dup1\n        /* \"#utility.yul\":7177:7258   */\n      tag_232\n      jumpi\n        /* \"#utility.yul\":7243:7247   */\n      0x7f\n        /* \"#utility.yul\":7235:7241   */\n      dup3\n        /* \"#utility.yul\":7231:7248   */\n      and\n        /* \"#utility.yul\":7221:7248   */\n      swap2\n      pop\n        /* \"#utility.yul\":7177:7258   */\n    tag_232:\n        /* \"#utility.yul\":7305:7307   */\n      0x20\n        /* \"#utility.yul\":7297:7303   */\n      dup3\n        /* \"#utility.yul\":7294:7308   */\n      lt\n        /* \"#utility.yul\":7274:7292   */\n      dup2\n        /* \"#utility.yul\":7271:7309   */\n      eq\n        /* \"#utility.yul\":7268:7352   */\n      iszero\n      tag_233\n      jumpi\n        /* \"#utility.yul\":7324:7342   */\n      tag_234\n      tag_235\n      jump\t// in\n    tag_234:\n        /* \"#utility.yul\":7268:7352   */\n    tag_233:\n        /* \"#utility.yul\":7089:7358   */\n      pop\n        /* \"#utility.yul\":7038:7358   */\n      swap2\n      swap1\n      pop\n      jump\t// out\n        /* \"#utility.yul\":7364:7544   */\n    tag_215:\n        /* \"#utility.yul\":7412:7489   */\n      0x4e487b7100000000000000000000000000000000000000000000000000000000\n        /* \"#utility.yul\":7409:7410   */\n      0x00\n        /* \"#utility.yul\":7402:7490   */\n      mstore\n        /* \"#utility.yul\":7509:7513   */\n      0x11\n        /* \"#utility.yul\":7506:7507   */\n      0x04\n        /* \"#utility.yul\":7499:7514   */\n      mstore\n        /* \"#utility.yul\":7533:7537   */\n      0x24\n        /* \"#utility.yul\":7530:7531   */\n      0x00\n        /* \"#utility.yul\":7523:7538   */\n      revert\n        /* \"#utility.yul\":7550:7730   */\n    tag_235:\n        /* \"#utility.yul\":7598:7675   */\n      0x4e487b7100000000000000000000000000000000000000000000000000000000\n        /* \"#utility.yul\":7595:7596   */\n      0x00\n        /* \"#utility.yul\":7588:7676   */\n      mstore\n        /* \"#utility.yul\":7695:7699   */\n      0x22\n        /* \"#utility.yul\":7692:7693   */\n      0x04\n        /* \"#utility.yul\":7685:7700   */\n      mstore\n        /* \"#utility.yul\":7719:7723   */\n      0x24\n        /* \"#utility.yul\":7716:7717   */\n      0x00\n        /* \"#utility.yul\":7709:7724   */\n      revert\n        /* \"#utility.yul\":7859:7976   */\n    tag_146:\n        /* \"#utility.yul\":7968:7969   */\n      0x00\n        /* \"#utility.yul\":7965:7966   */\n      dup1\n        /* \"#utility.yul\":7958:7970   */\n      revert\n        /* \"#utility.yul\":7982:8084   */\n    tag_181:\n        /* \"#utility.yul\":8023:8029   */\n      0x00\n        /* \"#utility.yul\":8074:8076   */\n      0x1f\n        /* \"#utility.yul\":8070:8077   */\n      not\n        /* \"#utility.yul\":8065:8067   */\n      0x1f\n        /* \"#utility.yul\":8058:8063   */\n      dup4\n        /* \"#utility.yul\":8054:8068   */\n      add\n        /* \"#utility.yul\":8050:8078   */\n      and\n        /* \"#utility.yul\":8040:8078   */\n      swap1\n      pop\n        /* \"#utility.yul\":7982:8084   */\n      swap2\n      swap1\n      pop\n      jump\t// out\n        /* \"#utility.yul\":8090:8261   */\n    tag_186:\n        /* \"#utility.yul\":8230:8253   */\n      0x596f7520617265206e6f7420616e206f776e6572210000000000000000000000\n        /* \"#utility.yul\":8226:8227   */\n      0x00\n        /* \"#utility.yul\":8218:8224   */\n      dup3\n        /* \"#utility.yul\":8214:8228   */\n      add\n        /* \"#utility.yul\":8207:8254   */\n      mstore\n        /* \"#utility.yul\":8090:8261   */\n      pop\n      jump\t// out\n        /* \"#utility.yul\":8267:8435   */\n    tag_191:\n        /* \"#utility.yul\":8407:8427   */\n      0x4e6f7420656e6f75676820746f6b656e73210000000000000000000000000000\n        /* \"#utility.yul\":8403:8404   */\n      0x00\n        /* \"#utility.yul\":8395:8401   */\n      dup3\n        /* \"#utility.yul\":8391:8405   */\n      add\n        /* \"#utility.yul\":8384:8428   */\n      mstore\n        /* \"#utility.yul\":8267:8435   */\n      pop\n      jump\t// out\n        /* \"#utility.yul\":8441:8563   */\n    tag_138:\n        /* \"#utility.yul\":8514:8538   */\n      tag_245\n        /* \"#utility.yul\":8532:8537   */\n      dup2\n        /* \"#utility.yul\":8514:8538   */\n      tag_171\n      jump\t// in\n    tag_245:\n        /* \"#utility.yul\":8507:8512   */\n      dup2\n        /* \"#utility.yul\":8504:8539   */\n      eq\n        /* \"#utility.yul\":8494:8557   */\n      tag_246\n      jumpi\n        /* \"#utility.yul\":8553:8554   */\n      0x00\n        /* \"#utility.yul\":8550:8551   */\n      dup1\n        /* \"#utility.yul\":8543:8555   */\n      revert\n        /* \"#utility.yul\":8494:8557   */\n    tag_246:\n        /* \"#utility.yul\":8441:8563   */\n      pop\n      jump\t// out\n        /* \"#utility.yul\":8569:8691   */\n    tag_142:\n        /* \"#utility.yul\":8642:8666   */\n      tag_248\n        /* \"#utility.yul\":8660:8665   */\n      dup2\n        /* \"#utility.yul\":8642:8666   */\n      tag_195\n      jump\t// in\n    tag_248:\n        /* \"#utility.yul\":8635:8640   */\n      dup2\n        /* \"#utility.yul\":8632:8667   */\n      eq\n        /* \"#utility.yul\":8622:8685   */\n      tag_249\n      jumpi\n        /* \"#utility.yul\":8681:8682   */\n      0x00\n        /* \"#utility.yul\":8678:8679   */\n      dup1\n        /* \"#utility.yul\":8671:8683   */\n      revert\n        /* \"#utility.yul\":8622:8685   */\n    tag_249:\n        /* \"#utility.yul\":8569:8691   */\n      pop\n      jump\t// out\n\n    auxdata: 0xa2646970667358221220070bf57db496ed5408d396fc76bcf43bad7f1f8a288f7750ecf61a628f16b50f64736f6c63430008070033\n}\n",
				"bytecode": {
					"linkReferences": {},
					"object": "6080604052633b9aca006001556040518060400160405280600881526020017f54696e546f6b656e0000000000000000000000000000000000000000000000008152506005908051906020019062000059929190620002a2565b506040518060400160405280600381526020017f54544e000000000000000000000000000000000000000000000000000000000081525060069080519060200190620000a7929190620002a2565b50348015620000b557600080fd5b50604051620016c9380380620016c98339818101604052810190620000db919062000369565b336000806101000a81548173ffffffffffffffffffffffffffffffffffffffff021916908373ffffffffffffffffffffffffffffffffffffffff1602179055506200012c816200013360201b60201c565b5062000566565b60008054906101000a900473ffffffffffffffffffffffffffffffffffffffff1673ffffffffffffffffffffffffffffffffffffffff163373ffffffffffffffffffffffffffffffffffffffff1614620001c4576040517f08c379a0000000000000000000000000000000000000000000000000000000008152600401620001bb90620003d3565b60405180910390fd5b80600360003373ffffffffffffffffffffffffffffffffffffffff1673ffffffffffffffffffffffffffffffffffffffff168152602001908152602001600020600082825462000215919062000423565b92505081905550806002600082825462000230919062000423565b925050819055503373ffffffffffffffffffffffffffffffffffffffff16600073ffffffffffffffffffffffffffffffffffffffff167fddf252ad1be2c89b69c2b068fc378daa952ba7f163c4a11628f55a4df523b3ef83604051620002979190620003f5565b60405180910390a350565b828054620002b0906200048a565b90600052602060002090601f016020900481019282620002d4576000855562000320565b82601f10620002ef57805160ff191683800117855562000320565b8280016001018555821562000320579182015b828111156200031f57825182559160200191906001019062000302565b5b5090506200032f919062000333565b5090565b5b808211156200034e57600081600090555060010162000334565b5090565b60008151905062000363816200054c565b92915050565b6000602082840312156200038257620003816200051e565b5b6000620003928482850162000352565b91505092915050565b6000620003aa60158362000412565b9150620003b78262000523565b602082019050919050565b620003cd8162000480565b82525050565b60006020820190508181036000830152620003ee816200039b565b9050919050565b60006020820190506200040c6000830184620003c2565b92915050565b600082825260208201905092915050565b6000620004308262000480565b91506200043d8362000480565b9250827fffffffffffffffffffffffffffffffffffffffffffffffffffffffffffffffff03821115620004755762000474620004c0565b5b828201905092915050565b6000819050919050565b60006002820490506001821680620004a357607f821691505b60208210811415620004ba57620004b9620004ef565b5b50919050565b7f4e487b7100000000000000000000000000000000000000000000000000000000600052601160045260246000fd5b7f4e487b7100000000000000000000000000000000000000000000000000000000600052602260045260246000fd5b600080fd5b7f596f7520617265206e6f7420616e206f776e6572210000000000000000000000600082015250565b620005578162000480565b81146200056357600080fd5b50565b61115380620005766000396000f3fe6080604052600436106100ab5760003560e01c806370a082311161006457806370a08231146101b057806395d89b41146101ed578063a0712d6814610218578063a9059cbb14610241578063dd62ed3e1461026a578063e7c9922f146102a7576100b2565b806306fdde03146100b4578063095ea7b3146100df57806318160ddd1461010857806323b872dd14610133578063313ce5671461015c57806342966c6814610187576100b2565b366100b257005b005b3480156100c057600080fd5b506100c96102d2565b6040516100d69190610e65565b60405180910390f35b3480156100eb57600080fd5b5061010660048036038101906101019190610d40565b610360565b005b34801561011457600080fd5b5061011d61044a565b60405161012a9190610ec7565b60405180910390f35b34801561013f57600080fd5b5061015a60048036038101906101559190610ced565b610454565b005b34801561016857600080fd5b5061017161064c565b60405161017e9190610ec7565b60405180910390f35b34801561019357600080fd5b506101ae60048036038101906101a99190610d80565b610655565b005b3480156101bc57600080fd5b506101d760048036038101906101d29190610c80565b61080a565b6040516101e49190610ec7565b60405180910390f35b3480156101f957600080fd5b50610202610853565b60405161020f9190610e65565b60405180910390f35b34801561022457600080fd5b5061023f600480360381019061023a9190610d80565b6108e1565b005b34801561024d57600080fd5b5061026860048036038101906102639190610d40565b610a47565b005b34801561027657600080fd5b50610291600480360381019061028c9190610cad565b610bab565b60405161029e9190610ec7565b60405180910390f35b3480156102b357600080fd5b506102bc610c32565b6040516102c99190610e4a565b60405180910390f35b600580546102df90610ff7565b80601f016020809104026020016040519081016040528092919081815260200182805461030b90610ff7565b80156103585780601f1061032d57610100808354040283529160200191610358565b820191906000526020600020905b81548152906001019060200180831161033b57829003601f168201915b505050505081565b80600460003373ffffffffffffffffffffffffffffffffffffffff1673ffffffffffffffffffffffffffffffffffffffff16815260200190815260200160002060008473ffffffffffffffffffffffffffffffffffffffff1673ffffffffffffffffffffffffffffffffffffffff168152602001908152602001600020819055508173ffffffffffffffffffffffffffffffffffffffff163373ffffffffffffffffffffffffffffffffffffffff167f8c5be1e5ebec7d5bd14f71427d1e84f3dd0314c0f7b2291e5b200ac8c7c3b9258360405161043e9190610ec7565b60405180910390a35050565b6000600254905090565b8281806104608361080a565b10156104a1576040517f08c379a000000000000000000000000000000000000000000000000000000000815260040161049890610ea7565b60405180910390fd5b82600460008773ffffffffffffffffffffffffffffffffffffffff1673ffffffffffffffffffffffffffffffffffffffff16815260200190815260200160002060008673ffffffffffffffffffffffffffffffffffffffff1673ffffffffffffffffffffffffffffffffffffffff168152602001908152602001600020600082825461052d9190610f54565b9250508190555082600360008773ffffffffffffffffffffffffffffffffffffffff1673ffffffffffffffffffffffffffffffffffffffff16815260200190815260200160002060008282546105839190610f54565b9250508190555082600360008673ffffffffffffffffffffffffffffffffffffffff1673ffffffffffffffffffffffffffffffffffffffff16815260200190815260200160002060008282546105d99190610efe565b925050819055508373ffffffffffffffffffffffffffffffffffffffff168573ffffffffffffffffffffffffffffffffffffffff167fddf252ad1be2c89b69c2b068fc378daa952ba7f163c4a11628f55a4df523b3ef8560405161063d9190610ec7565b60405180910390a35050505050565b60006003905090565b3381806106618361080a565b10156106a2576040517f08c379a000000000000000000000000000000000000000000000000000000000815260040161069990610ea7565b60405180910390fd5b60008054906101000a900473ffffffffffffffffffffffffffffffffffffffff1673ffffffffffffffffffffffffffffffffffffffff163373ffffffffffffffffffffffffffffffffffffffff1614610730576040517f08c379a000000000000000000000000000000000000000000000000000000000815260040161072790610e87565b60405180910390fd5b82600360003373ffffffffffffffffffffffffffffffffffffffff1673ffffffffffffffffffffffffffffffffffffffff168152602001908152602001600020600082825461077f9190610f54565b9250508190555082600260008282546107989190610f54565b92505081905550600073ffffffffffffffffffffffffffffffffffffffff163373ffffffffffffffffffffffffffffffffffffffff167fddf252ad1be2c89b69c2b068fc378daa952ba7f163c4a11628f55a4df523b3ef856040516107fd9190610ec7565b60405180910390a3505050565b6000600360008373ffffffffffffffffffffffffffffffffffffffff1673ffffffffffffffffffffffffffffffffffffffff168152602001908152602001600020549050919050565b6006805461086090610ff7565b80601f016020809104026020016040519081016040528092919081815260200182805461088c90610ff7565b80156108d95780601f106108ae576101008083540402835291602001916108d9565b820191906000526020600020905b8154815290600101906020018083116108bc57829003601f168201915b505050505081565b60008054906101000a900473ffffffffffffffffffffffffffffffffffffffff1673ffffffffffffffffffffffffffffffffffffffff163373ffffffffffffffffffffffffffffffffffffffff161461096f576040517f08c379a000000000000000000000000000000000000000000000000000000000815260040161096690610e87565b60405180910390fd5b80600360003373ffffffffffffffffffffffffffffffffffffffff1673ffffffffffffffffffffffffffffffffffffffff16815260200190815260200160002060008282546109be9190610efe565b9250508190555080600260008282546109d79190610efe565b925050819055503373ffffffffffffffffffffffffffffffffffffffff16600073ffffffffffffffffffffffffffffffffffffffff167fddf252ad1be2c89b69c2b068fc378daa952ba7f163c4a11628f55a4df523b3ef83604051610a3c9190610ec7565b60405180910390a350565b338180610a538361080a565b1015610a94576040517f08c379a0000000000000000000000000000000000000000000000000000000008152600401610a8b90610ea7565b60405180910390fd5b82600360003373ffffffffffffffffffffffffffffffffffffffff1673ffffffffffffffffffffffffffffffffffffffff1681526020019081526020016000206000828254610ae39190610f54565b9250508190555082600360008673ffffffffffffffffffffffffffffffffffffffff1673ffffffffffffffffffffffffffffffffffffffff1681526020019081526020016000206000828254610b399190610efe565b925050819055508373ffffffffffffffffffffffffffffffffffffffff163373ffffffffffffffffffffffffffffffffffffffff167fddf252ad1be2c89b69c2b068fc378daa952ba7f163c4a11628f55a4df523b3ef85604051610b9d9190610ec7565b60405180910390a350505050565b6000600460008473ffffffffffffffffffffffffffffffffffffffff1673ffffffffffffffffffffffffffffffffffffffff16815260200190815260200160002060008373ffffffffffffffffffffffffffffffffffffffff1673ffffffffffffffffffffffffffffffffffffffff16815260200190815260200160002054905092915050565b60008054906101000a900473ffffffffffffffffffffffffffffffffffffffff1681565b600081359050610c65816110ef565b92915050565b600081359050610c7a81611106565b92915050565b600060208284031215610c9657610c95611087565b5b6000610ca484828501610c56565b91505092915050565b60008060408385031215610cc457610cc3611087565b5b6000610cd285828601610c56565b9250506020610ce385828601610c56565b9150509250929050565b600080600060608486031215610d0657610d05611087565b5b6000610d1486828701610c56565b9350506020610d2586828701610c56565b9250506040610d3686828701610c6b565b9150509250925092565b60008060408385031215610d5757610d56611087565b5b6000610d6585828601610c56565b9250506020610d7685828601610c6b565b9150509250929050565b600060208284031215610d9657610d95611087565b5b6000610da484828501610c6b565b91505092915050565b610db681610f88565b82525050565b6000610dc782610ee2565b610dd18185610eed565b9350610de1818560208601610fc4565b610dea8161108c565b840191505092915050565b6000610e02601583610eed565b9150610e0d8261109d565b602082019050919050565b6000610e25601283610eed565b9150610e30826110c6565b602082019050919050565b610e4481610fba565b82525050565b6000602082019050610e5f6000830184610dad565b92915050565b60006020820190508181036000830152610e7f8184610dbc565b905092915050565b60006020820190508181036000830152610ea081610df5565b9050919050565b60006020820190508181036000830152610ec081610e18565b9050919050565b6000602082019050610edc6000830184610e3b565b92915050565b600081519050919050565b600082825260208201905092915050565b6000610f0982610fba565b9150610f1483610fba565b9250827fffffffffffffffffffffffffffffffffffffffffffffffffffffffffffffffff03821115610f4957610f48611029565b5b828201905092915050565b6000610f5f82610fba565b9150610f6a83610fba565b925082821015610f7d57610f7c611029565b5b828203905092915050565b6000610f9382610f9a565b9050919050565b600073ffffffffffffffffffffffffffffffffffffffff82169050919050565b6000819050919050565b60005b83811015610fe2578082015181840152602081019050610fc7565b83811115610ff1576000848401525b50505050565b6000600282049050600182168061100f57607f821691505b6020821081141561102357611022611058565b5b50919050565b7f4e487b7100000000000000000000000000000000000000000000000000000000600052601160045260246000fd5b7f4e487b7100000000000000000000000000000000000000000000000000000000600052602260045260246000fd5b600080fd5b6000601f19601f8301169050919050565b7f596f7520617265206e6f7420616e206f776e6572210000000000000000000000600082015250565b7f4e6f7420656e6f75676820746f6b656e73210000000000000000000000000000600082015250565b6110f881610f88565b811461110357600080fd5b50565b61110f81610fba565b811461111a57600080fd5b5056fea2646970667358221220070bf57db496ed5408d396fc76bcf43bad7f1f8a288f7750ecf61a628f16b50f64736f6c63430008070033",
					"opcodes": "PUSH1 0x80 PUSH1 0x40 MSTORE PUSH4 0x3B9ACA00 PUSH1 0x1 SSTORE PUSH1 0x40 MLOAD DUP1 PUSH1 0x40 ADD PUSH1 0x40 MSTORE DUP1 PUSH1 0x8 DUP2 MSTORE PUSH1 0x20 ADD PUSH32 0x54696E546F6B656E000000000000000000000000000000000000000000000000 DUP2 MSTORE POP PUSH1 0x5 SWAP1 DUP1 MLOAD SWAP1 PUSH1 0x20 ADD SWAP1 PUSH3 0x59 SWAP3 SWAP2 SWAP1 PUSH3 0x2A2 JUMP JUMPDEST POP PUSH1 0x40 MLOAD DUP1 PUSH1 0x40 ADD PUSH1 0x40 MSTORE DUP1 PUSH1 0x3 DUP2 MSTORE PUSH1 0x20 ADD PUSH32 0x54544E0000000000000000000000000000000000000000000000000000000000 DUP2 MSTORE POP PUSH1 0x6 SWAP1 DUP1 MLOAD SWAP1 PUSH1 0x20 ADD SWAP1 PUSH3 0xA7 SWAP3 SWAP2 SWAP1 PUSH3 0x2A2 JUMP JUMPDEST POP CALLVALUE DUP1 ISZERO PUSH3 0xB5 JUMPI PUSH1 0x0 DUP1 REVERT JUMPDEST POP PUSH1 0x40 MLOAD PUSH3 0x16C9 CODESIZE SUB DUP1 PUSH3 0x16C9 DUP4 CODECOPY DUP2 DUP2 ADD PUSH1 0x40 MSTORE DUP2 ADD SWAP1 PUSH3 0xDB SWAP2 SWAP1 PUSH3 0x369 JUMP JUMPDEST CALLER PUSH1 0x0 DUP1 PUSH2 0x100 EXP DUP2 SLOAD DUP2 PUSH20 0xFFFFFFFFFFFFFFFFFFFFFFFFFFFFFFFFFFFFFFFF MUL NOT AND SWAP1 DUP4 PUSH20 0xFFFFFFFFFFFFFFFFFFFFFFFFFFFFFFFFFFFFFFFF AND MUL OR SWAP1 SSTORE POP PUSH3 0x12C DUP2 PUSH3 0x133 PUSH1 0x20 SHL PUSH1 0x20 SHR JUMP JUMPDEST POP PUSH3 0x566 JUMP JUMPDEST PUSH1 0x0 DUP1 SLOAD SWAP1 PUSH2 0x100 EXP SWAP1 DIV PUSH20 0xFFFFFFFFFFFFFFFFFFFFFFFFFFFFFFFFFFFFFFFF AND PUSH20 0xFFFFFFFFFFFFFFFFFFFFFFFFFFFFFFFFFFFFFFFF AND CALLER PUSH20 0xFFFFFFFFFFFFFFFFFFFFFFFFFFFFFFFFFFFFFFFF AND EQ PUSH3 0x1C4 JUMPI PUSH1 0x40 MLOAD PUSH32 0x8C379A000000000000000000000000000000000000000000000000000000000 DUP2 MSTORE PUSH1 0x4 ADD PUSH3 0x1BB SWAP1 PUSH3 0x3D3 JUMP JUMPDEST PUSH1 0x40 MLOAD DUP1 SWAP2 SUB SWAP1 REVERT JUMPDEST DUP1 PUSH1 0x3 PUSH1 0x0 CALLER PUSH20 0xFFFFFFFFFFFFFFFFFFFFFFFFFFFFFFFFFFFFFFFF AND PUSH20 0xFFFFFFFFFFFFFFFFFFFFFFFFFFFFFFFFFFFFFFFF AND DUP2 MSTORE PUSH1 0x20 ADD SWAP1 DUP2 MSTORE PUSH1 0x20 ADD PUSH1 0x0 KECCAK256 PUSH1 0x0 DUP3 DUP3 SLOAD PUSH3 0x215 SWAP2 SWAP1 PUSH3 0x423 JUMP JUMPDEST SWAP3 POP POP DUP2 SWAP1 SSTORE POP DUP1 PUSH1 0x2 PUSH1 0x0 DUP3 DUP3 SLOAD PUSH3 0x230 SWAP2 SWAP1 PUSH3 0x423 JUMP JUMPDEST SWAP3 POP POP DUP2 SWAP1 SSTORE POP CALLER PUSH20 0xFFFFFFFFFFFFFFFFFFFFFFFFFFFFFFFFFFFFFFFF AND PUSH1 0x0 PUSH20 0xFFFFFFFFFFFFFFFFFFFFFFFFFFFFFFFFFFFFFFFF AND PUSH32 0xDDF252AD1BE2C89B69C2B068FC378DAA952BA7F163C4A11628F55A4DF523B3EF DUP4 PUSH1 0x40 MLOAD PUSH3 0x297 SWAP2 SWAP1 PUSH3 0x3F5 JUMP JUMPDEST PUSH1 0x40 MLOAD DUP1 SWAP2 SUB SWAP1 LOG3 POP JUMP JUMPDEST DUP3 DUP1 SLOAD PUSH3 0x2B0 SWAP1 PUSH3 0x48A JUMP JUMPDEST SWAP1 PUSH1 0x0 MSTORE PUSH1 0x20 PUSH1 0x0 KECCAK256 SWAP1 PUSH1 0x1F ADD PUSH1 0x20 SWAP1 DIV DUP2 ADD SWAP3 DUP3 PUSH3 0x2D4 JUMPI PUSH1 0x0 DUP6 SSTORE PUSH3 0x320 JUMP JUMPDEST DUP3 PUSH1 0x1F LT PUSH3 0x2EF JUMPI DUP1 MLOAD PUSH1 0xFF NOT AND DUP4 DUP1 ADD OR DUP6 SSTORE PUSH3 0x320 JUMP JUMPDEST DUP3 DUP1 ADD PUSH1 0x1 ADD DUP6 SSTORE DUP3 ISZERO PUSH3 0x320 JUMPI SWAP2 DUP3 ADD JUMPDEST DUP3 DUP2 GT ISZERO PUSH3 0x31F JUMPI DUP3 MLOAD DUP3 SSTORE SWAP2 PUSH1 0x20 ADD SWAP2 SWAP1 PUSH1 0x1 ADD SWAP1 PUSH3 0x302 JUMP JUMPDEST JUMPDEST POP SWAP1 POP PUSH3 0x32F SWAP2 SWAP1 PUSH3 0x333 JUMP JUMPDEST POP SWAP1 JUMP JUMPDEST JUMPDEST DUP1 DUP3 GT ISZERO PUSH3 0x34E JUMPI PUSH1 0x0 DUP2 PUSH1 0x0 SWAP1 SSTORE POP PUSH1 0x1 ADD PUSH3 0x334 JUMP JUMPDEST POP SWAP1 JUMP JUMPDEST PUSH1 0x0 DUP2 MLOAD SWAP1 POP PUSH3 0x363 DUP2 PUSH3 0x54C JUMP JUMPDEST SWAP3 SWAP2 POP POP JUMP JUMPDEST PUSH1 0x0 PUSH1 0x20 DUP3 DUP5 SUB SLT ISZERO PUSH3 0x382 JUMPI PUSH3 0x381 PUSH3 0x51E JUMP JUMPDEST JUMPDEST PUSH1 0x0 PUSH3 0x392 DUP5 DUP3 DUP6 ADD PUSH3 0x352 JUMP JUMPDEST SWAP2 POP POP SWAP3 SWAP2 POP POP JUMP JUMPDEST PUSH1 0x0 PUSH3 0x3AA PUSH1 0x15 DUP4 PUSH3 0x412 JUMP JUMPDEST SWAP2 POP PUSH3 0x3B7 DUP3 PUSH3 0x523 JUMP JUMPDEST PUSH1 0x20 DUP3 ADD SWAP1 POP SWAP2 SWAP1 POP JUMP JUMPDEST PUSH3 0x3CD DUP2 PUSH3 0x480 JUMP JUMPDEST DUP3 MSTORE POP POP JUMP JUMPDEST PUSH1 0x0 PUSH1 0x20 DUP3 ADD SWAP1 POP DUP2 DUP2 SUB PUSH1 0x0 DUP4 ADD MSTORE PUSH3 0x3EE DUP2 PUSH3 0x39B JUMP JUMPDEST SWAP1 POP SWAP2 SWAP1 POP JUMP JUMPDEST PUSH1 0x0 PUSH1 0x20 DUP3 ADD SWAP1 POP PUSH3 0x40C PUSH1 0x0 DUP4 ADD DUP5 PUSH3 0x3C2 JUMP JUMPDEST SWAP3 SWAP2 POP POP JUMP JUMPDEST PUSH1 0x0 DUP3 DUP3 MSTORE PUSH1 0x20 DUP3 ADD SWAP1 POP SWAP3 SWAP2 POP POP JUMP JUMPDEST PUSH1 0x0 PUSH3 0x430 DUP3 PUSH3 0x480 JUMP JUMPDEST SWAP2 POP PUSH3 0x43D DUP4 PUSH3 0x480 JUMP JUMPDEST SWAP3 POP DUP3 PUSH32 0xFFFFFFFFFFFFFFFFFFFFFFFFFFFFFFFFFFFFFFFFFFFFFFFFFFFFFFFFFFFFFFFF SUB DUP3 GT ISZERO PUSH3 0x475 JUMPI PUSH3 0x474 PUSH3 0x4C0 JUMP JUMPDEST JUMPDEST DUP3 DUP3 ADD SWAP1 POP SWAP3 SWAP2 POP POP JUMP JUMPDEST PUSH1 0x0 DUP2 SWAP1 POP SWAP2 SWAP1 POP JUMP JUMPDEST PUSH1 0x0 PUSH1 0x2 DUP3 DIV SWAP1 POP PUSH1 0x1 DUP3 AND DUP1 PUSH3 0x4A3 JUMPI PUSH1 0x7F DUP3 AND SWAP2 POP JUMPDEST PUSH1 0x20 DUP3 LT DUP2 EQ ISZERO PUSH3 0x4BA JUMPI PUSH3 0x4B9 PUSH3 0x4EF JUMP JUMPDEST JUMPDEST POP SWAP2 SWAP1 POP JUMP JUMPDEST PUSH32 0x4E487B7100000000000000000000000000000000000000000000000000000000 PUSH1 0x0 MSTORE PUSH1 0x11 PUSH1 0x4 MSTORE PUSH1 0x24 PUSH1 0x0 REVERT JUMPDEST PUSH32 0x4E487B7100000000000000000000000000000000000000000000000000000000 PUSH1 0x0 MSTORE PUSH1 0x22 PUSH1 0x4 MSTORE PUSH1 0x24 PUSH1 0x0 REVERT JUMPDEST PUSH1 0x0 DUP1 REVERT JUMPDEST PUSH32 0x596F7520617265206E6F7420616E206F776E6572210000000000000000000000 PUSH1 0x0 DUP3 ADD MSTORE POP JUMP JUMPDEST PUSH3 0x557 DUP2 PUSH3 0x480 JUMP JUMPDEST DUP2 EQ PUSH3 0x563 JUMPI PUSH1 0x0 DUP1 REVERT JUMPDEST POP JUMP JUMPDEST PUSH2 0x1153 DUP1 PUSH3 0x576 PUSH1 0x0 CODECOPY PUSH1 0x0 RETURN INVALID PUSH1 0x80 PUSH1 0x40 MSTORE PUSH1 0x4 CALLDATASIZE LT PUSH2 0xAB JUMPI PUSH1 0x0 CALLDATALOAD PUSH1 0xE0 SHR DUP1 PUSH4 0x70A08231 GT PUSH2 0x64 JUMPI DUP1 PUSH4 0x70A08231 EQ PUSH2 0x1B0 JUMPI DUP1 PUSH4 0x95D89B41 EQ PUSH2 0x1ED JUMPI DUP1 PUSH4 0xA0712D68 EQ PUSH2 0x218 JUMPI DUP1 PUSH4 0xA9059CBB EQ PUSH2 0x241 JUMPI DUP1 PUSH4 0xDD62ED3E EQ PUSH2 0x26A JUMPI DUP1 PUSH4 0xE7C9922F EQ PUSH2 0x2A7 JUMPI PUSH2 0xB2 JUMP JUMPDEST DUP1 PUSH4 0x6FDDE03 EQ PUSH2 0xB4 JUMPI DUP1 PUSH4 0x95EA7B3 EQ PUSH2 0xDF JUMPI DUP1 PUSH4 0x18160DDD EQ PUSH2 0x108 JUMPI DUP1 PUSH4 0x23B872DD EQ PUSH2 0x133 JUMPI DUP1 PUSH4 0x313CE567 EQ PUSH2 0x15C JUMPI DUP1 PUSH4 0x42966C68 EQ PUSH2 0x187 JUMPI PUSH2 0xB2 JUMP JUMPDEST CALLDATASIZE PUSH2 0xB2 JUMPI STOP JUMPDEST STOP JUMPDEST CALLVALUE DUP1 ISZERO PUSH2 0xC0 JUMPI PUSH1 0x0 DUP1 REVERT JUMPDEST POP PUSH2 0xC9 PUSH2 0x2D2 JUMP JUMPDEST PUSH1 0x40 MLOAD PUSH2 0xD6 SWAP2 SWAP1 PUSH2 0xE65 JUMP JUMPDEST PUSH1 0x40 MLOAD DUP1 SWAP2 SUB SWAP1 RETURN JUMPDEST CALLVALUE DUP1 ISZERO PUSH2 0xEB JUMPI PUSH1 0x0 DUP1 REVERT JUMPDEST POP PUSH2 0x106 PUSH1 0x4 DUP1 CALLDATASIZE SUB DUP2 ADD SWAP1 PUSH2 0x101 SWAP2 SWAP1 PUSH2 0xD40 JUMP JUMPDEST PUSH2 0x360 JUMP JUMPDEST STOP JUMPDEST CALLVALUE DUP1 ISZERO PUSH2 0x114 JUMPI PUSH1 0x0 DUP1 REVERT JUMPDEST POP PUSH2 0x11D PUSH2 0x44A JUMP JUMPDEST PUSH1 0x40 MLOAD PUSH2 0x12A SWAP2 SWAP1 PUSH2 0xEC7 JUMP JUMPDEST PUSH1 0x40 MLOAD DUP1 SWAP2 SUB SWAP1 RETURN JUMPDEST CALLVALUE DUP1 ISZERO PUSH2 0x13F JUMPI PUSH1 0x0 DUP1 REVERT JUMPDEST POP PUSH2 0x15A PUSH1 0x4 DUP1 CALLDATASIZE SUB DUP2 ADD SWAP1 PUSH2 0x155 SWAP2 SWAP1 PUSH2 0xCED JUMP JUMPDEST PUSH2 0x454 JUMP JUMPDEST STOP JUMPDEST CALLVALUE DUP1 ISZERO PUSH2 0x168 JUMPI PUSH1 0x0 DUP1 REVERT JUMPDEST POP PUSH2 0x171 PUSH2 0x64C JUMP JUMPDEST PUSH1 0x40 MLOAD PUSH2 0x17E SWAP2 SWAP1 PUSH2 0xEC7 JUMP JUMPDEST PUSH1 0x40 MLOAD DUP1 SWAP2 SUB SWAP1 RETURN JUMPDEST CALLVALUE DUP1 ISZERO PUSH2 0x193 JUMPI PUSH1 0x0 DUP1 REVERT JUMPDEST POP PUSH2 0x1AE PUSH1 0x4 DUP1 CALLDATASIZE SUB DUP2 ADD SWAP1 PUSH2 0x1A9 SWAP2 SWAP1 PUSH2 0xD80 JUMP JUMPDEST PUSH2 0x655 JUMP JUMPDEST STOP JUMPDEST CALLVALUE DUP1 ISZERO PUSH2 0x1BC JUMPI PUSH1 0x0 DUP1 REVERT JUMPDEST POP PUSH2 0x1D7 PUSH1 0x4 DUP1 CALLDATASIZE SUB DUP2 ADD SWAP1 PUSH2 0x1D2 SWAP2 SWAP1 PUSH2 0xC80 JUMP JUMPDEST PUSH2 0x80A JUMP JUMPDEST PUSH1 0x40 MLOAD PUSH2 0x1E4 SWAP2 SWAP1 PUSH2 0xEC7 JUMP JUMPDEST PUSH1 0x40 MLOAD DUP1 SWAP2 SUB SWAP1 RETURN JUMPDEST CALLVALUE DUP1 ISZERO PUSH2 0x1F9 JUMPI PUSH1 0x0 DUP1 REVERT JUMPDEST POP PUSH2 0x202 PUSH2 0x853 JUMP JUMPDEST PUSH1 0x40 MLOAD PUSH2 0x20F SWAP2 SWAP1 PUSH2 0xE65 JUMP JUMPDEST PUSH1 0x40 MLOAD DUP1 SWAP2 SUB SWAP1 RETURN JUMPDEST CALLVALUE DUP1 ISZERO PUSH2 0x224 JUMPI PUSH1 0x0 DUP1 REVERT JUMPDEST POP PUSH2 0x23F PUSH1 0x4 DUP1 CALLDATASIZE SUB DUP2 ADD SWAP1 PUSH2 0x23A SWAP2 SWAP1 PUSH2 0xD80 JUMP JUMPDEST PUSH2 0x8E1 JUMP JUMPDEST STOP JUMPDEST CALLVALUE DUP1 ISZERO PUSH2 0x24D JUMPI PUSH1 0x0 DUP1 REVERT JUMPDEST POP PUSH2 0x268 PUSH1 0x4 DUP1 CALLDATASIZE SUB DUP2 ADD SWAP1 PUSH2 0x263 SWAP2 SWAP1 PUSH2 0xD40 JUMP JUMPDEST PUSH2 0xA47 JUMP JUMPDEST STOP JUMPDEST CALLVALUE DUP1 ISZERO PUSH2 0x276 JUMPI PUSH1 0x0 DUP1 REVERT JUMPDEST POP PUSH2 0x291 PUSH1 0x4 DUP1 CALLDATASIZE SUB DUP2 ADD SWAP1 PUSH2 0x28C SWAP2 SWAP1 PUSH2 0xCAD JUMP JUMPDEST PUSH2 0xBAB JUMP JUMPDEST PUSH1 0x40 MLOAD PUSH2 0x29E SWAP2 SWAP1 PUSH2 0xEC7 JUMP JUMPDEST PUSH1 0x40 MLOAD DUP1 SWAP2 SUB SWAP1 RETURN JUMPDEST CALLVALUE DUP1 ISZERO PUSH2 0x2B3 JUMPI PUSH1 0x0 DUP1 REVERT JUMPDEST POP PUSH2 0x2BC PUSH2 0xC32 JUMP JUMPDEST PUSH1 0x40 MLOAD PUSH2 0x2C9 SWAP2 SWAP1 PUSH2 0xE4A JUMP JUMPDEST PUSH1 0x40 MLOAD DUP1 SWAP2 SUB SWAP1 RETURN JUMPDEST PUSH1 0x5 DUP1 SLOAD PUSH2 0x2DF SWAP1 PUSH2 0xFF7 JUMP JUMPDEST DUP1 PUSH1 0x1F ADD PUSH1 0x20 DUP1 SWAP2 DIV MUL PUSH1 0x20 ADD PUSH1 0x40 MLOAD SWAP1 DUP2 ADD PUSH1 0x40 MSTORE DUP1 SWAP3 SWAP2 SWAP1 DUP2 DUP2 MSTORE PUSH1 0x20 ADD DUP3 DUP1 SLOAD PUSH2 0x30B SWAP1 PUSH2 0xFF7 JUMP JUMPDEST DUP1 ISZERO PUSH2 0x358 JUMPI DUP1 PUSH1 0x1F LT PUSH2 0x32D JUMPI PUSH2 0x100 DUP1 DUP4 SLOAD DIV MUL DUP4 MSTORE SWAP2 PUSH1 0x20 ADD SWAP2 PUSH2 0x358 JUMP JUMPDEST DUP3 ADD SWAP2 SWAP1 PUSH1 0x0 MSTORE PUSH1 0x20 PUSH1 0x0 KECCAK256 SWAP1 JUMPDEST DUP2 SLOAD DUP2 MSTORE SWAP1 PUSH1 0x1 ADD SWAP1 PUSH1 0x20 ADD DUP1 DUP4 GT PUSH2 0x33B JUMPI DUP3 SWAP1 SUB PUSH1 0x1F AND DUP3 ADD SWAP2 JUMPDEST POP POP POP POP POP DUP2 JUMP JUMPDEST DUP1 PUSH1 0x4 PUSH1 0x0 CALLER PUSH20 0xFFFFFFFFFFFFFFFFFFFFFFFFFFFFFFFFFFFFFFFF AND PUSH20 0xFFFFFFFFFFFFFFFFFFFFFFFFFFFFFFFFFFFFFFFF AND DUP2 MSTORE PUSH1 0x20 ADD SWAP1 DUP2 MSTORE PUSH1 0x20 ADD PUSH1 0x0 KECCAK256 PUSH1 0x0 DUP5 PUSH20 0xFFFFFFFFFFFFFFFFFFFFFFFFFFFFFFFFFFFFFFFF AND PUSH20 0xFFFFFFFFFFFFFFFFFFFFFFFFFFFFFFFFFFFFFFFF AND DUP2 MSTORE PUSH1 0x20 ADD SWAP1 DUP2 MSTORE PUSH1 0x20 ADD PUSH1 0x0 KECCAK256 DUP2 SWAP1 SSTORE POP DUP2 PUSH20 0xFFFFFFFFFFFFFFFFFFFFFFFFFFFFFFFFFFFFFFFF AND CALLER PUSH20 0xFFFFFFFFFFFFFFFFFFFFFFFFFFFFFFFFFFFFFFFF AND PUSH32 0x8C5BE1E5EBEC7D5BD14F71427D1E84F3DD0314C0F7B2291E5B200AC8C7C3B925 DUP4 PUSH1 0x40 MLOAD PUSH2 0x43E SWAP2 SWAP1 PUSH2 0xEC7 JUMP JUMPDEST PUSH1 0x40 MLOAD DUP1 SWAP2 SUB SWAP1 LOG3 POP POP JUMP JUMPDEST PUSH1 0x0 PUSH1 0x2 SLOAD SWAP1 POP SWAP1 JUMP JUMPDEST DUP3 DUP2 DUP1 PUSH2 0x460 DUP4 PUSH2 0x80A JUMP JUMPDEST LT ISZERO PUSH2 0x4A1 JUMPI PUSH1 0x40 MLOAD PUSH32 0x8C379A000000000000000000000000000000000000000000000000000000000 DUP2 MSTORE PUSH1 0x4 ADD PUSH2 0x498 SWAP1 PUSH2 0xEA7 JUMP JUMPDEST PUSH1 0x40 MLOAD DUP1 SWAP2 SUB SWAP1 REVERT JUMPDEST DUP3 PUSH1 0x4 PUSH1 0x0 DUP8 PUSH20 0xFFFFFFFFFFFFFFFFFFFFFFFFFFFFFFFFFFFFFFFF AND PUSH20 0xFFFFFFFFFFFFFFFFFFFFFFFFFFFFFFFFFFFFFFFF AND DUP2 MSTORE PUSH1 0x20 ADD SWAP1 DUP2 MSTORE PUSH1 0x20 ADD PUSH1 0x0 KECCAK256 PUSH1 0x0 DUP7 PUSH20 0xFFFFFFFFFFFFFFFFFFFFFFFFFFFFFFFFFFFFFFFF AND PUSH20 0xFFFFFFFFFFFFFFFFFFFFFFFFFFFFFFFFFFFFFFFF AND DUP2 MSTORE PUSH1 0x20 ADD SWAP1 DUP2 MSTORE PUSH1 0x20 ADD PUSH1 0x0 KECCAK256 PUSH1 0x0 DUP3 DUP3 SLOAD PUSH2 0x52D SWAP2 SWAP1 PUSH2 0xF54 JUMP JUMPDEST SWAP3 POP POP DUP2 SWAP1 SSTORE POP DUP3 PUSH1 0x3 PUSH1 0x0 DUP8 PUSH20 0xFFFFFFFFFFFFFFFFFFFFFFFFFFFFFFFFFFFFFFFF AND PUSH20 0xFFFFFFFFFFFFFFFFFFFFFFFFFFFFFFFFFFFFFFFF AND DUP2 MSTORE PUSH1 0x20 ADD SWAP1 DUP2 MSTORE PUSH1 0x20 ADD PUSH1 0x0 KECCAK256 PUSH1 0x0 DUP3 DUP3 SLOAD PUSH2 0x583 SWAP2 SWAP1 PUSH2 0xF54 JUMP JUMPDEST SWAP3 POP POP DUP2 SWAP1 SSTORE POP DUP3 PUSH1 0x3 PUSH1 0x0 DUP7 PUSH20 0xFFFFFFFFFFFFFFFFFFFFFFFFFFFFFFFFFFFFFFFF AND PUSH20 0xFFFFFFFFFFFFFFFFFFFFFFFFFFFFFFFFFFFFFFFF AND DUP2 MSTORE PUSH1 0x20 ADD SWAP1 DUP2 MSTORE PUSH1 0x20 ADD PUSH1 0x0 KECCAK256 PUSH1 0x0 DUP3 DUP3 SLOAD PUSH2 0x5D9 SWAP2 SWAP1 PUSH2 0xEFE JUMP JUMPDEST SWAP3 POP POP DUP2 SWAP1 SSTORE POP DUP4 PUSH20 0xFFFFFFFFFFFFFFFFFFFFFFFFFFFFFFFFFFFFFFFF AND DUP6 PUSH20 0xFFFFFFFFFFFFFFFFFFFFFFFFFFFFFFFFFFFFFFFF AND PUSH32 0xDDF252AD1BE2C89B69C2B068FC378DAA952BA7F163C4A11628F55A4DF523B3EF DUP6 PUSH1 0x40 MLOAD PUSH2 0x63D SWAP2 SWAP1 PUSH2 0xEC7 JUMP JUMPDEST PUSH1 0x40 MLOAD DUP1 SWAP2 SUB SWAP1 LOG3 POP POP POP POP POP JUMP JUMPDEST PUSH1 0x0 PUSH1 0x3 SWAP1 POP SWAP1 JUMP JUMPDEST CALLER DUP2 DUP1 PUSH2 0x661 DUP4 PUSH2 0x80A JUMP JUMPDEST LT ISZERO PUSH2 0x6A2 JUMPI PUSH1 0x40 MLOAD PUSH32 0x8C379A000000000000000000000000000000000000000000000000000000000 DUP2 MSTORE PUSH1 0x4 ADD PUSH2 0x699 SWAP1 PUSH2 0xEA7 JUMP JUMPDEST PUSH1 0x40 MLOAD DUP1 SWAP2 SUB SWAP1 REVERT JUMPDEST PUSH1 0x0 DUP1 SLOAD SWAP1 PUSH2 0x100 EXP SWAP1 DIV PUSH20 0xFFFFFFFFFFFFFFFFFFFFFFFFFFFFFFFFFFFFFFFF AND PUSH20 0xFFFFFFFFFFFFFFFFFFFFFFFFFFFFFFFFFFFFFFFF AND CALLER PUSH20 0xFFFFFFFFFFFFFFFFFFFFFFFFFFFFFFFFFFFFFFFF AND EQ PUSH2 0x730 JUMPI PUSH1 0x40 MLOAD PUSH32 0x8C379A000000000000000000000000000000000000000000000000000000000 DUP2 MSTORE PUSH1 0x4 ADD PUSH2 0x727 SWAP1 PUSH2 0xE87 JUMP JUMPDEST PUSH1 0x40 MLOAD DUP1 SWAP2 SUB SWAP1 REVERT JUMPDEST DUP3 PUSH1 0x3 PUSH1 0x0 CALLER PUSH20 0xFFFFFFFFFFFFFFFFFFFFFFFFFFFFFFFFFFFFFFFF AND PUSH20 0xFFFFFFFFFFFFFFFFFFFFFFFFFFFFFFFFFFFFFFFF AND DUP2 MSTORE PUSH1 0x20 ADD SWAP1 DUP2 MSTORE PUSH1 0x20 ADD PUSH1 0x0 KECCAK256 PUSH1 0x0 DUP3 DUP3 SLOAD PUSH2 0x77F SWAP2 SWAP1 PUSH2 0xF54 JUMP JUMPDEST SWAP3 POP POP DUP2 SWAP1 SSTORE POP DUP3 PUSH1 0x2 PUSH1 0x0 DUP3 DUP3 SLOAD PUSH2 0x798 SWAP2 SWAP1 PUSH2 0xF54 JUMP JUMPDEST SWAP3 POP POP DUP2 SWAP1 SSTORE POP PUSH1 0x0 PUSH20 0xFFFFFFFFFFFFFFFFFFFFFFFFFFFFFFFFFFFFFFFF AND CALLER PUSH20 0xFFFFFFFFFFFFFFFFFFFFFFFFFFFFFFFFFFFFFFFF AND PUSH32 0xDDF252AD1BE2C89B69C2B068FC378DAA952BA7F163C4A11628F55A4DF523B3EF DUP6 PUSH1 0x40 MLOAD PUSH2 0x7FD SWAP2 SWAP1 PUSH2 0xEC7 JUMP JUMPDEST PUSH1 0x40 MLOAD DUP1 SWAP2 SUB SWAP1 LOG3 POP POP POP JUMP JUMPDEST PUSH1 0x0 PUSH1 0x3 PUSH1 0x0 DUP4 PUSH20 0xFFFFFFFFFFFFFFFFFFFFFFFFFFFFFFFFFFFFFFFF AND PUSH20 0xFFFFFFFFFFFFFFFFFFFFFFFFFFFFFFFFFFFFFFFF AND DUP2 MSTORE PUSH1 0x20 ADD SWAP1 DUP2 MSTORE PUSH1 0x20 ADD PUSH1 0x0 KECCAK256 SLOAD SWAP1 POP SWAP2 SWAP1 POP JUMP JUMPDEST PUSH1 0x6 DUP1 SLOAD PUSH2 0x860 SWAP1 PUSH2 0xFF7 JUMP JUMPDEST DUP1 PUSH1 0x1F ADD PUSH1 0x20 DUP1 SWAP2 DIV MUL PUSH1 0x20 ADD PUSH1 0x40 MLOAD SWAP1 DUP2 ADD PUSH1 0x40 MSTORE DUP1 SWAP3 SWAP2 SWAP1 DUP2 DUP2 MSTORE PUSH1 0x20 ADD DUP3 DUP1 SLOAD PUSH2 0x88C SWAP1 PUSH2 0xFF7 JUMP JUMPDEST DUP1 ISZERO PUSH2 0x8D9 JUMPI DUP1 PUSH1 0x1F LT PUSH2 0x8AE JUMPI PUSH2 0x100 DUP1 DUP4 SLOAD DIV MUL DUP4 MSTORE SWAP2 PUSH1 0x20 ADD SWAP2 PUSH2 0x8D9 JUMP JUMPDEST DUP3 ADD SWAP2 SWAP1 PUSH1 0x0 MSTORE PUSH1 0x20 PUSH1 0x0 KECCAK256 SWAP1 JUMPDEST DUP2 SLOAD DUP2 MSTORE SWAP1 PUSH1 0x1 ADD SWAP1 PUSH1 0x20 ADD DUP1 DUP4 GT PUSH2 0x8BC JUMPI DUP3 SWAP1 SUB PUSH1 0x1F AND DUP3 ADD SWAP2 JUMPDEST POP POP POP POP POP DUP2 JUMP JUMPDEST PUSH1 0x0 DUP1 SLOAD SWAP1 PUSH2 0x100 EXP SWAP1 DIV PUSH20 0xFFFFFFFFFFFFFFFFFFFFFFFFFFFFFFFFFFFFFFFF AND PUSH20 0xFFFFFFFFFFFFFFFFFFFFFFFFFFFFFFFFFFFFFFFF AND CALLER PUSH20 0xFFFFFFFFFFFFFFFFFFFFFFFFFFFFFFFFFFFFFFFF AND EQ PUSH2 0x96F JUMPI PUSH1 0x40 MLOAD PUSH32 0x8C379A000000000000000000000000000000000000000000000000000000000 DUP2 MSTORE PUSH1 0x4 ADD PUSH2 0x966 SWAP1 PUSH2 0xE87 JUMP JUMPDEST PUSH1 0x40 MLOAD DUP1 SWAP2 SUB SWAP1 REVERT JUMPDEST DUP1 PUSH1 0x3 PUSH1 0x0 CALLER PUSH20 0xFFFFFFFFFFFFFFFFFFFFFFFFFFFFFFFFFFFFFFFF AND PUSH20 0xFFFFFFFFFFFFFFFFFFFFFFFFFFFFFFFFFFFFFFFF AND DUP2 MSTORE PUSH1 0x20 ADD SWAP1 DUP2 MSTORE PUSH1 0x20 ADD PUSH1 0x0 KECCAK256 PUSH1 0x0 DUP3 DUP3 SLOAD PUSH2 0x9BE SWAP2 SWAP1 PUSH2 0xEFE JUMP JUMPDEST SWAP3 POP POP DUP2 SWAP1 SSTORE POP DUP1 PUSH1 0x2 PUSH1 0x0 DUP3 DUP3 SLOAD PUSH2 0x9D7 SWAP2 SWAP1 PUSH2 0xEFE JUMP JUMPDEST SWAP3 POP POP DUP2 SWAP1 SSTORE POP CALLER PUSH20 0xFFFFFFFFFFFFFFFFFFFFFFFFFFFFFFFFFFFFFFFF AND PUSH1 0x0 PUSH20 0xFFFFFFFFFFFFFFFFFFFFFFFFFFFFFFFFFFFFFFFF AND PUSH32 0xDDF252AD1BE2C89B69C2B068FC378DAA952BA7F163C4A11628F55A4DF523B3EF DUP4 PUSH1 0x40 MLOAD PUSH2 0xA3C SWAP2 SWAP1 PUSH2 0xEC7 JUMP JUMPDEST PUSH1 0x40 MLOAD DUP1 SWAP2 SUB SWAP1 LOG3 POP JUMP JUMPDEST CALLER DUP2 DUP1 PUSH2 0xA53 DUP4 PUSH2 0x80A JUMP JUMPDEST LT ISZERO PUSH2 0xA94 JUMPI PUSH1 0x40 MLOAD PUSH32 0x8C379A000000000000000000000000000000000000000000000000000000000 DUP2 MSTORE PUSH1 0x4 ADD PUSH2 0xA8B SWAP1 PUSH2 0xEA7 JUMP JUMPDEST PUSH1 0x40 MLOAD DUP1 SWAP2 SUB SWAP1 REVERT JUMPDEST DUP3 PUSH1 0x3 PUSH1 0x0 CALLER PUSH20 0xFFFFFFFFFFFFFFFFFFFFFFFFFFFFFFFFFFFFFFFF AND PUSH20 0xFFFFFFFFFFFFFFFFFFFFFFFFFFFFFFFFFFFFFFFF AND DUP2 MSTORE PUSH1 0x20 ADD SWAP1 DUP2 MSTORE PUSH1 0x20 ADD PUSH1 0x0 KECCAK256 PUSH1 0x0 DUP3 DUP3 SLOAD PUSH2 0xAE3 SWAP2 SWAP1 PUSH2 0xF54 JUMP JUMPDEST SWAP3 POP POP DUP2 SWAP1 SSTORE POP DUP3 PUSH1 0x3 PUSH1 0x0 DUP7 PUSH20 0xFFFFFFFFFFFFFFFFFFFFFFFFFFFFFFFFFFFFFFFF AND PUSH20 0xFFFFFFFFFFFFFFFFFFFFFFFFFFFFFFFFFFFFFFFF AND DUP2 MSTORE PUSH1 0x20 ADD SWAP1 DUP2 MSTORE PUSH1 0x20 ADD PUSH1 0x0 KECCAK256 PUSH1 0x0 DUP3 DUP3 SLOAD PUSH2 0xB39 SWAP2 SWAP1 PUSH2 0xEFE JUMP JUMPDEST SWAP3 POP POP DUP2 SWAP1 SSTORE POP DUP4 PUSH20 0xFFFFFFFFFFFFFFFFFFFFFFFFFFFFFFFFFFFFFFFF AND CALLER PUSH20 0xFFFFFFFFFFFFFFFFFFFFFFFFFFFFFFFFFFFFFFFF AND PUSH32 0xDDF252AD1BE2C89B69C2B068FC378DAA952BA7F163C4A11628F55A4DF523B3EF DUP6 PUSH1 0x40 MLOAD PUSH2 0xB9D SWAP2 SWAP1 PUSH2 0xEC7 JUMP JUMPDEST PUSH1 0x40 MLOAD DUP1 SWAP2 SUB SWAP1 LOG3 POP POP POP POP JUMP JUMPDEST PUSH1 0x0 PUSH1 0x4 PUSH1 0x0 DUP5 PUSH20 0xFFFFFFFFFFFFFFFFFFFFFFFFFFFFFFFFFFFFFFFF AND PUSH20 0xFFFFFFFFFFFFFFFFFFFFFFFFFFFFFFFFFFFFFFFF AND DUP2 MSTORE PUSH1 0x20 ADD SWAP1 DUP2 MSTORE PUSH1 0x20 ADD PUSH1 0x0 KECCAK256 PUSH1 0x0 DUP4 PUSH20 0xFFFFFFFFFFFFFFFFFFFFFFFFFFFFFFFFFFFFFFFF AND PUSH20 0xFFFFFFFFFFFFFFFFFFFFFFFFFFFFFFFFFFFFFFFF AND DUP2 MSTORE PUSH1 0x20 ADD SWAP1 DUP2 MSTORE PUSH1 0x20 ADD PUSH1 0x0 KECCAK256 SLOAD SWAP1 POP SWAP3 SWAP2 POP POP JUMP JUMPDEST PUSH1 0x0 DUP1 SLOAD SWAP1 PUSH2 0x100 EXP SWAP1 DIV PUSH20 0xFFFFFFFFFFFFFFFFFFFFFFFFFFFFFFFFFFFFFFFF AND DUP2 JUMP JUMPDEST PUSH1 0x0 DUP2 CALLDATALOAD SWAP1 POP PUSH2 0xC65 DUP2 PUSH2 0x10EF JUMP JUMPDEST SWAP3 SWAP2 POP POP JUMP JUMPDEST PUSH1 0x0 DUP2 CALLDATALOAD SWAP1 POP PUSH2 0xC7A DUP2 PUSH2 0x1106 JUMP JUMPDEST SWAP3 SWAP2 POP POP JUMP JUMPDEST PUSH1 0x0 PUSH1 0x20 DUP3 DUP5 SUB SLT ISZERO PUSH2 0xC96 JUMPI PUSH2 0xC95 PUSH2 0x1087 JUMP JUMPDEST JUMPDEST PUSH1 0x0 PUSH2 0xCA4 DUP5 DUP3 DUP6 ADD PUSH2 0xC56 JUMP JUMPDEST SWAP2 POP POP SWAP3 SWAP2 POP POP JUMP JUMPDEST PUSH1 0x0 DUP1 PUSH1 0x40 DUP4 DUP6 SUB SLT ISZERO PUSH2 0xCC4 JUMPI PUSH2 0xCC3 PUSH2 0x1087 JUMP JUMPDEST JUMPDEST PUSH1 0x0 PUSH2 0xCD2 DUP6 DUP3 DUP7 ADD PUSH2 0xC56 JUMP JUMPDEST SWAP3 POP POP PUSH1 0x20 PUSH2 0xCE3 DUP6 DUP3 DUP7 ADD PUSH2 0xC56 JUMP JUMPDEST SWAP2 POP POP SWAP3 POP SWAP3 SWAP1 POP JUMP JUMPDEST PUSH1 0x0 DUP1 PUSH1 0x0 PUSH1 0x60 DUP5 DUP7 SUB SLT ISZERO PUSH2 0xD06 JUMPI PUSH2 0xD05 PUSH2 0x1087 JUMP JUMPDEST JUMPDEST PUSH1 0x0 PUSH2 0xD14 DUP7 DUP3 DUP8 ADD PUSH2 0xC56 JUMP JUMPDEST SWAP4 POP POP PUSH1 0x20 PUSH2 0xD25 DUP7 DUP3 DUP8 ADD PUSH2 0xC56 JUMP JUMPDEST SWAP3 POP POP PUSH1 0x40 PUSH2 0xD36 DUP7 DUP3 DUP8 ADD PUSH2 0xC6B JUMP JUMPDEST SWAP2 POP POP SWAP3 POP SWAP3 POP SWAP3 JUMP JUMPDEST PUSH1 0x0 DUP1 PUSH1 0x40 DUP4 DUP6 SUB SLT ISZERO PUSH2 0xD57 JUMPI PUSH2 0xD56 PUSH2 0x1087 JUMP JUMPDEST JUMPDEST PUSH1 0x0 PUSH2 0xD65 DUP6 DUP3 DUP7 ADD PUSH2 0xC56 JUMP JUMPDEST SWAP3 POP POP PUSH1 0x20 PUSH2 0xD76 DUP6 DUP3 DUP7 ADD PUSH2 0xC6B JUMP JUMPDEST SWAP2 POP POP SWAP3 POP SWAP3 SWAP1 POP JUMP JUMPDEST PUSH1 0x0 PUSH1 0x20 DUP3 DUP5 SUB SLT ISZERO PUSH2 0xD96 JUMPI PUSH2 0xD95 PUSH2 0x1087 JUMP JUMPDEST JUMPDEST PUSH1 0x0 PUSH2 0xDA4 DUP5 DUP3 DUP6 ADD PUSH2 0xC6B JUMP JUMPDEST SWAP2 POP POP SWAP3 SWAP2 POP POP JUMP JUMPDEST PUSH2 0xDB6 DUP2 PUSH2 0xF88 JUMP JUMPDEST DUP3 MSTORE POP POP JUMP JUMPDEST PUSH1 0x0 PUSH2 0xDC7 DUP3 PUSH2 0xEE2 JUMP JUMPDEST PUSH2 0xDD1 DUP2 DUP6 PUSH2 0xEED JUMP JUMPDEST SWAP4 POP PUSH2 0xDE1 DUP2 DUP6 PUSH1 0x20 DUP7 ADD PUSH2 0xFC4 JUMP JUMPDEST PUSH2 0xDEA DUP2 PUSH2 0x108C JUMP JUMPDEST DUP5 ADD SWAP2 POP POP SWAP3 SWAP2 POP POP JUMP JUMPDEST PUSH1 0x0 PUSH2 0xE02 PUSH1 0x15 DUP4 PUSH2 0xEED JUMP JUMPDEST SWAP2 POP PUSH2 0xE0D DUP3 PUSH2 0x109D JUMP JUMPDEST PUSH1 0x20 DUP3 ADD SWAP1 POP SWAP2 SWAP1 POP JUMP JUMPDEST PUSH1 0x0 PUSH2 0xE25 PUSH1 0x12 DUP4 PUSH2 0xEED JUMP JUMPDEST SWAP2 POP PUSH2 0xE30 DUP3 PUSH2 0x10C6 JUMP JUMPDEST PUSH1 0x20 DUP3 ADD SWAP1 POP SWAP2 SWAP1 POP JUMP JUMPDEST PUSH2 0xE44 DUP2 PUSH2 0xFBA JUMP JUMPDEST DUP3 MSTORE POP POP JUMP JUMPDEST PUSH1 0x0 PUSH1 0x20 DUP3 ADD SWAP1 POP PUSH2 0xE5F PUSH1 0x0 DUP4 ADD DUP5 PUSH2 0xDAD JUMP JUMPDEST SWAP3 SWAP2 POP POP JUMP JUMPDEST PUSH1 0x0 PUSH1 0x20 DUP3 ADD SWAP1 POP DUP2 DUP2 SUB PUSH1 0x0 DUP4 ADD MSTORE PUSH2 0xE7F DUP2 DUP5 PUSH2 0xDBC JUMP JUMPDEST SWAP1 POP SWAP3 SWAP2 POP POP JUMP JUMPDEST PUSH1 0x0 PUSH1 0x20 DUP3 ADD SWAP1 POP DUP2 DUP2 SUB PUSH1 0x0 DUP4 ADD MSTORE PUSH2 0xEA0 DUP2 PUSH2 0xDF5 JUMP JUMPDEST SWAP1 POP SWAP2 SWAP1 POP JUMP JUMPDEST PUSH1 0x0 PUSH1 0x20 DUP3 ADD SWAP1 POP DUP2 DUP2 SUB PUSH1 0x0 DUP4 ADD MSTORE PUSH2 0xEC0 DUP2 PUSH2 0xE18 JUMP JUMPDEST SWAP1 POP SWAP2 SWAP1 POP JUMP JUMPDEST PUSH1 0x0 PUSH1 0x20 DUP3 ADD SWAP1 POP PUSH2 0xEDC PUSH1 0x0 DUP4 ADD DUP5 PUSH2 0xE3B JUMP JUMPDEST SWAP3 SWAP2 POP POP JUMP JUMPDEST PUSH1 0x0 DUP2 MLOAD SWAP1 POP SWAP2 SWAP1 POP JUMP JUMPDEST PUSH1 0x0 DUP3 DUP3 MSTORE PUSH1 0x20 DUP3 ADD SWAP1 POP SWAP3 SWAP2 POP POP JUMP JUMPDEST PUSH1 0x0 PUSH2 0xF09 DUP3 PUSH2 0xFBA JUMP JUMPDEST SWAP2 POP PUSH2 0xF14 DUP4 PUSH2 0xFBA JUMP JUMPDEST SWAP3 POP DUP3 PUSH32 0xFFFFFFFFFFFFFFFFFFFFFFFFFFFFFFFFFFFFFFFFFFFFFFFFFFFFFFFFFFFFFFFF SUB DUP3 GT ISZERO PUSH2 0xF49 JUMPI PUSH2 0xF48 PUSH2 0x1029 JUMP JUMPDEST JUMPDEST DUP3 DUP3 ADD SWAP1 POP SWAP3 SWAP2 POP POP JUMP JUMPDEST PUSH1 0x0 PUSH2 0xF5F DUP3 PUSH2 0xFBA JUMP JUMPDEST SWAP2 POP PUSH2 0xF6A DUP4 PUSH2 0xFBA JUMP JUMPDEST SWAP3 POP DUP3 DUP3 LT ISZERO PUSH2 0xF7D JUMPI PUSH2 0xF7C PUSH2 0x1029 JUMP JUMPDEST JUMPDEST DUP3 DUP3 SUB SWAP1 POP SWAP3 SWAP2 POP POP JUMP JUMPDEST PUSH1 0x0 PUSH2 0xF93 DUP3 PUSH2 0xF9A JUMP JUMPDEST SWAP1 POP SWAP2 SWAP1 POP JUMP JUMPDEST PUSH1 0x0 PUSH20 0xFFFFFFFFFFFFFFFFFFFFFFFFFFFFFFFFFFFFFFFF DUP3 AND SWAP1 POP SWAP2 SWAP1 POP JUMP JUMPDEST PUSH1 0x0 DUP2 SWAP1 POP SWAP2 SWAP1 POP JUMP JUMPDEST PUSH1 0x0 JUMPDEST DUP4 DUP2 LT ISZERO PUSH2 0xFE2 JUMPI DUP1 DUP3 ADD MLOAD DUP2 DUP5 ADD MSTORE PUSH1 0x20 DUP2 ADD SWAP1 POP PUSH2 0xFC7 JUMP JUMPDEST DUP4 DUP2 GT ISZERO PUSH2 0xFF1 JUMPI PUSH1 0x0 DUP5 DUP5 ADD MSTORE JUMPDEST POP POP POP POP JUMP JUMPDEST PUSH1 0x0 PUSH1 0x2 DUP3 DIV SWAP1 POP PUSH1 0x1 DUP3 AND DUP1 PUSH2 0x100F JUMPI PUSH1 0x7F DUP3 AND SWAP2 POP JUMPDEST PUSH1 0x20 DUP3 LT DUP2 EQ ISZERO PUSH2 0x1023 JUMPI PUSH2 0x1022 PUSH2 0x1058 JUMP JUMPDEST JUMPDEST POP SWAP2 SWAP1 POP JUMP JUMPDEST PUSH32 0x4E487B7100000000000000000000000000000000000000000000000000000000 PUSH1 0x0 MSTORE PUSH1 0x11 PUSH1 0x4 MSTORE PUSH1 0x24 PUSH1 0x0 REVERT JUMPDEST PUSH32 0x4E487B7100000000000000000000000000000000000000000000000000000000 PUSH1 0x0 MSTORE PUSH1 0x22 PUSH1 0x4 MSTORE PUSH1 0x24 PUSH1 0x0 REVERT JUMPDEST PUSH1 0x0 DUP1 REVERT JUMPDEST PUSH1 0x0 PUSH1 0x1F NOT PUSH1 0x1F DUP4 ADD AND SWAP1 POP SWAP2 SWAP1 POP JUMP JUMPDEST PUSH32 0x596F7520617265206E6F7420616E206F776E6572210000000000000000000000 PUSH1 0x0 DUP3 ADD MSTORE POP JUMP JUMPDEST PUSH32 0x4E6F7420656E6F75676820746F6B656E73210000000000000000000000000000 PUSH1 0x0 DUP3 ADD MSTORE POP JUMP JUMPDEST PUSH2 0x10F8 DUP2 PUSH2 0xF88 JUMP JUMPDEST DUP2 EQ PUSH2 0x1103 JUMPI PUSH1 0x0 DUP1 REVERT JUMPDEST POP JUMP JUMPDEST PUSH2 0x110F DUP2 PUSH2 0xFBA JUMP JUMPDEST DUP2 EQ PUSH2 0x111A JUMPI PUSH1 0x0 DUP1 REVERT JUMPDEST POP JUMP INVALID LOG2 PUSH5 0x6970667358 0x22 SLT KECCAK256 SMOD SIGNEXTEND CREATE2 PUSH30 0xB496ED5408D396FC76BCF43BAD7F1F8A288F7750ECF61A628F16B50F6473 PUSH16 0x6C634300080700330000000000000000 "
				},
				"gasEstimates": {
					"creation": {
						"codeDepositCost": "887000",
						"executionCost": "infinite",
						"totalCost": "infinite"
					},
					"external": {
						"": "218",
						"allowance(address,address)": "infinite",
						"approve(address,uint256)": "infinite",
						"balanceOf(address)": "2841",
						"burn(uint256)": "infinite",
						"decimals()": "426",
						"mint(uint256)": "infinite",
						"name()": "infinite",
						"symbol()": "infinite",
						"thisOwner()": "2621",
						"totalSupply()": "2482",
						"transfer(address,uint256)": "infinite",
						"transferFrom(address,address,uint256)": "infinite"
					}
				},
				"methodIdentifiers": {
					"allowance(address,address)": "dd62ed3e",
					"approve(address,uint256)": "095ea7b3",
					"balanceOf(address)": "70a08231",
					"burn(uint256)": "42966c68",
					"decimals()": "313ce567",
					"mint(uint256)": "a0712d68",
					"name()": "06fdde03",
					"symbol()": "95d89b41",
					"thisOwner()": "e7c9922f",
					"totalSupply()": "18160ddd",
					"transfer(address,uint256)": "a9059cbb",
					"transferFrom(address,address,uint256)": "23b872dd"
				}
			},
			"storageLayout": {
				"storage": [
					{
						"astId": 74,
						"contract": "contracts/TinToken.sol:TinToken",
						"label": "thisOwner",
						"offset": 0,
						"slot": "0",
						"type": "t_address"
					},
					{
						"astId": 77,
						"contract": "contracts/TinToken.sol:TinToken",
						"label": "startSupply",
						"offset": 0,
						"slot": "1",
						"type": "t_uint256"
					},
					{
						"astId": 79,
						"contract": "contracts/TinToken.sol:TinToken",
						"label": "totalTokens",
						"offset": 0,
						"slot": "2",
						"type": "t_uint256"
					},
					{
						"astId": 83,
						"contract": "contracts/TinToken.sol:TinToken",
						"label": "balances",
						"offset": 0,
						"slot": "3",
						"type": "t_mapping(t_address,t_uint256)"
					},
					{
						"astId": 89,
						"contract": "contracts/TinToken.sol:TinToken",
						"label": "allowances",
						"offset": 0,
						"slot": "4",
						"type": "t_mapping(t_address,t_mapping(t_address,t_uint256))"
					},
					{
						"astId": 92,
						"contract": "contracts/TinToken.sol:TinToken",
						"label": "name",
						"offset": 0,
						"slot": "5",
						"type": "t_string_storage"
					},
					{
						"astId": 95,
						"contract": "contracts/TinToken.sol:TinToken",
						"label": "symbol",
						"offset": 0,
						"slot": "6",
						"type": "t_string_storage"
					}
				],
				"types": {
					"t_address": {
						"encoding": "inplace",
						"label": "address",
						"numberOfBytes": "20"
					},
					"t_mapping(t_address,t_mapping(t_address,t_uint256))": {
						"encoding": "mapping",
						"key": "t_address",
						"label": "mapping(address => mapping(address => uint256))",
						"numberOfBytes": "32",
						"value": "t_mapping(t_address,t_uint256)"
					},
					"t_mapping(t_address,t_uint256)": {
						"encoding": "mapping",
						"key": "t_address",
						"label": "mapping(address => uint256)",
						"numberOfBytes": "32",
						"value": "t_uint256"
					},
					"t_string_storage": {
						"encoding": "bytes",
						"label": "string",
						"numberOfBytes": "32"
					},
					"t_uint256": {
						"encoding": "inplace",
						"label": "uint256",
						"numberOfBytes": "32"
					}
				}
			},
			"userdoc": {
				"kind": "user",
				"methods": {},
				"version": 1
			}
		}
	}
}