{
	"contracts/TinToken.sol": {
		"TinToken": {
			"abi": [
				{
					"inputs": [
						{
							"internalType": "uint256",
							"name": "initialSupply",
							"type": "uint256"
						}
					],
					"stateMutability": "nonpayable",
					"type": "constructor"
				},
				{
					"anonymous": false,
					"inputs": [
						{
							"indexed": true,
							"internalType": "address",
							"name": "owner",
							"type": "address"
						},
						{
							"indexed": true,
							"internalType": "address",
							"name": "to",
							"type": "address"
						},
						{
							"indexed": false,
							"internalType": "uint256",
							"name": "amount",
							"type": "uint256"
						}
					],
					"name": "Approval",
					"type": "event"
				},
				{
					"anonymous": false,
					"inputs": [
						{
							"indexed": true,
							"internalType": "address",
							"name": "from",
							"type": "address"
						},
						{
							"indexed": true,
							"internalType": "address",
							"name": "to",
							"type": "address"
						},
						{
							"indexed": false,
							"internalType": "uint256",
							"name": "amount",
							"type": "uint256"
						}
					],
					"name": "Transfer",
					"type": "event"
				},
				{
					"stateMutability": "payable",
					"type": "fallback"
				},
				{
					"inputs": [
						{
							"internalType": "address",
							"name": "owner",
							"type": "address"
						},
						{
							"internalType": "address",
							"name": "spender",
							"type": "address"
						}
					],
					"name": "allowance",
					"outputs": [
						{
							"internalType": "uint256",
							"name": "",
							"type": "uint256"
						}
					],
					"stateMutability": "view",
					"type": "function"
				},
				{
					"inputs": [
						{
							"internalType": "address",
							"name": "spender",
							"type": "address"
						},
						{
							"internalType": "uint256",
							"name": "amount",
							"type": "uint256"
						}
					],
					"name": "approve",
					"outputs": [],
					"stateMutability": "nonpayable",
					"type": "function"
				},
				{
					"inputs": [
						{
							"internalType": "address",
							"name": "account",
							"type": "address"
						}
					],
					"name": "balanceOf",
					"outputs": [
						{
							"internalType": "uint256",
							"name": "",
							"type": "uint256"
						}
					],
					"stateMutability": "view",
					"type": "function"
				},
				{
					"inputs": [
						{
							"internalType": "uint256",
							"name": "amount",
							"type": "uint256"
						}
					],
					"name": "burn",
					"outputs": [],
					"stateMutability": "nonpayable",
					"type": "function"
				},
				{
					"inputs": [],
					"name": "decimals",
					"outputs": [
						{
							"internalType": "uint256",
							"name": "",
							"type": "uint256"
						}
					],
					"stateMutability": "pure",
					"type": "function"
				},
				{
					"inputs": [
						{
							"internalType": "uint256",
							"name": "amount",
							"type": "uint256"
						}
					],
					"name": "mint",
					"outputs": [],
					"stateMutability": "nonpayable",
					"type": "function"
				},
				{
					"inputs": [],
					"name": "name",
					"outputs": [
						{
							"internalType": "string",
							"name": "",
							"type": "string"
						}
					],
					"stateMutability": "view",
					"type": "function"
				},
				{
					"inputs": [],
					"name": "symbol",
					"outputs": [
						{
							"internalType": "string",
							"name": "",
							"type": "string"
						}
					],
					"stateMutability": "view",
					"type": "function"
				},
				{
					"inputs": [],
					"name": "totalSupply",
					"outputs": [
						{
							"internalType": "uint256",
							"name": "",
							"type": "uint256"
						}
					],
					"stateMutability": "view",
					"type": "function"
				},
				{
					"inputs": [
						{
							"internalType": "address",
							"name": "to",
							"type": "address"
						},
						{
							"internalType": "uint256",
							"name": "amount",
							"type": "uint256"
						}
					],
					"name": "transfer",
					"outputs": [],
					"stateMutability": "nonpayable",
					"type": "function"
				},
				{
					"inputs": [
						{
							"internalType": "address",
							"name": "sender",
							"type": "address"
						},
						{
							"internalType": "address",
							"name": "recipient",
							"type": "address"
						},
						{
							"internalType": "uint256",
							"name": "amount",
							"type": "uint256"
						}
					],
					"name": "transferFrom",
					"outputs": [],
					"stateMutability": "nonpayable",
					"type": "function"
				},
				{
					"stateMutability": "payable",
					"type": "receive"
				}
			],
			"devdoc": {
				"kind": "dev",
				"methods": {},
				"version": 1
			},
			"evm": {
				"assembly": "    /* \"contracts/TinToken.sol\":81:2056  contract TinToken is IERC20 {... */\n  mstore(0x40, 0x80)\n    /* \"contracts/TinToken.sol\":237:268  string public name = \"TinToken\" */\n  mload(0x40)\n  dup1\n  0x40\n  add\n  0x40\n  mstore\n  dup1\n  0x08\n  dup2\n  mstore\n  0x20\n  add\n  0x54696e546f6b656e000000000000000000000000000000000000000000000000\n  dup2\n  mstore\n  pop\n  0x03\n  swap1\n  dup1\n  mload\n  swap1\n  0x20\n  add\n  swap1\n  tag_1\n  swap3\n  swap2\n  swap1\n  tag_2\n  jump\t// in\ntag_1:\n  pop\n    /* \"contracts/TinToken.sol\":274:302  string public symbol = \"TTN\" */\n  mload(0x40)\n  dup1\n  0x40\n  add\n  0x40\n  mstore\n  dup1\n  0x03\n  dup2\n  mstore\n  0x20\n  add\n  0x54544e0000000000000000000000000000000000000000000000000000000000\n  dup2\n  mstore\n  pop\n  0x04\n  swap1\n  dup1\n  mload\n  swap1\n  0x20\n  add\n  swap1\n  tag_3\n  swap3\n  swap2\n  swap1\n  tag_2\n  jump\t// in\ntag_3:\n  pop\n    /* \"contracts/TinToken.sol\":309:377  constructor(uint initialSupply) {... */\n  callvalue\n  dup1\n  iszero\n  tag_4\n  jumpi\n  0x00\n  dup1\n  revert\ntag_4:\n  pop\n  mload(0x40)\n  sub(codesize, bytecodeSize)\n  dup1\n  bytecodeSize\n  dup4\n  codecopy\n  dup2\n  dup2\n  add\n  0x40\n  mstore\n  dup2\n  add\n  swap1\n  tag_5\n  swap2\n  swap1\n  tag_6\n  jump\t// in\ntag_5:\n    /* \"contracts/TinToken.sol\":351:370  mint(initialSupply) */\n  tag_9\n    /* \"contracts/TinToken.sol\":356:369  initialSupply */\n  dup2\n    /* \"contracts/TinToken.sol\":351:355  mint */\n  shl(0x20, tag_10)\n    /* \"contracts/TinToken.sol\":351:370  mint(initialSupply) */\n  0x20\n  shr\n  jump\t// in\ntag_9:\n    /* \"contracts/TinToken.sol\":309:377  constructor(uint initialSupply) {... */\n  pop\n    /* \"contracts/TinToken.sol\":81:2056  contract TinToken is IERC20 {... */\n  jump(tag_11)\n    /* \"contracts/TinToken.sol\":1633:1800  function mint(uint amount) public {... */\ntag_10:\n    /* \"contracts/TinToken.sol\":1701:1707  amount */\n  dup1\n    /* \"contracts/TinToken.sol\":1677:1685  balances */\n  0x01\n    /* \"contracts/TinToken.sol\":1677:1697  balances[msg.sender] */\n  0x00\n    /* \"contracts/TinToken.sol\":1686:1696  msg.sender */\n  caller\n    /* \"contracts/TinToken.sol\":1677:1697  balances[msg.sender] */\n  0xffffffffffffffffffffffffffffffffffffffff\n  and\n  0xffffffffffffffffffffffffffffffffffffffff\n  and\n  dup2\n  mstore\n  0x20\n  add\n  swap1\n  dup2\n  mstore\n  0x20\n  add\n  0x00\n  keccak256\n  0x00\n    /* \"contracts/TinToken.sol\":1677:1707  balances[msg.sender] += amount */\n  dup3\n  dup3\n  sload\n  tag_13\n  swap2\n  swap1\n  tag_14\n  jump\t// in\ntag_13:\n  swap3\n  pop\n  pop\n  dup2\n  swap1\n  sstore\n  pop\n    /* \"contracts/TinToken.sol\":1732:1738  amount */\n  dup1\n    /* \"contracts/TinToken.sol\":1717:1728  totalTokens */\n  0x00\n  dup1\n    /* \"contracts/TinToken.sol\":1717:1738  totalTokens += amount */\n  dup3\n  dup3\n  sload\n  tag_15\n  swap2\n  swap1\n  tag_14\n  jump\t// in\ntag_15:\n  swap3\n  pop\n  pop\n  dup2\n  swap1\n  sstore\n  pop\n    /* \"contracts/TinToken.sol\":1774:1784  msg.sender */\n  caller\n    /* \"contracts/TinToken.sol\":1753:1793  Transfer(address(0), msg.sender, amount) */\n  0xffffffffffffffffffffffffffffffffffffffff\n  and\n    /* \"contracts/TinToken.sol\":1770:1771  0 */\n  0x00\n    /* \"contracts/TinToken.sol\":1753:1793  Transfer(address(0), msg.sender, amount) */\n  0xffffffffffffffffffffffffffffffffffffffff\n  and\n  0xddf252ad1be2c89b69c2b068fc378daa952ba7f163c4a11628f55a4df523b3ef\n    /* \"contracts/TinToken.sol\":1786:1792  amount */\n  dup4\n    /* \"contracts/TinToken.sol\":1753:1793  Transfer(address(0), msg.sender, amount) */\n  mload(0x40)\n  tag_16\n  swap2\n  swap1\n  tag_17\n  jump\t// in\ntag_16:\n  mload(0x40)\n  dup1\n  swap2\n  sub\n  swap1\n  log3\n    /* \"contracts/TinToken.sol\":1633:1800  function mint(uint amount) public {... */\n  pop\n  jump\t// out\n    /* \"contracts/TinToken.sol\":81:2056  contract TinToken is IERC20 {... */\ntag_2:\n  dup3\n  dup1\n  sload\n  tag_18\n  swap1\n  tag_19\n  jump\t// in\ntag_18:\n  swap1\n  0x00\n  mstore\n  keccak256(0x00, 0x20)\n  swap1\n  0x1f\n  add\n  0x20\n  swap1\n  div\n  dup2\n  add\n  swap3\n  dup3\n  tag_21\n  jumpi\n  0x00\n  dup6\n  sstore\n  jump(tag_20)\ntag_21:\n  dup3\n  0x1f\n  lt\n  tag_22\n  jumpi\n  dup1\n  mload\n  not(0xff)\n  and\n  dup4\n  dup1\n  add\n  or\n  dup6\n  sstore\n  jump(tag_20)\ntag_22:\n  dup3\n  dup1\n  add\n  0x01\n  add\n  dup6\n  sstore\n  dup3\n  iszero\n  tag_20\n  jumpi\n  swap2\n  dup3\n  add\ntag_23:\n  dup3\n  dup2\n  gt\n  iszero\n  tag_24\n  jumpi\n  dup3\n  mload\n  dup3\n  sstore\n  swap2\n  0x20\n  add\n  swap2\n  swap1\n  0x01\n  add\n  swap1\n  jump(tag_23)\ntag_24:\ntag_20:\n  pop\n  swap1\n  pop\n  tag_25\n  swap2\n  swap1\n  tag_26\n  jump\t// in\ntag_25:\n  pop\n  swap1\n  jump\t// out\ntag_26:\ntag_27:\n  dup1\n  dup3\n  gt\n  iszero\n  tag_28\n  jumpi\n  0x00\n  dup2\n  0x00\n  swap1\n  sstore\n  pop\n  0x01\n  add\n  jump(tag_27)\ntag_28:\n  pop\n  swap1\n  jump\t// out\n    /* \"#utility.yul\":7:150   */\ntag_30:\n    /* \"#utility.yul\":64:69   */\n  0x00\n    /* \"#utility.yul\":95:101   */\n  dup2\n    /* \"#utility.yul\":89:102   */\n  mload\n    /* \"#utility.yul\":80:102   */\n  swap1\n  pop\n    /* \"#utility.yul\":111:144   */\n  tag_32\n    /* \"#utility.yul\":138:143   */\n  dup2\n    /* \"#utility.yul\":111:144   */\n  tag_33\n  jump\t// in\ntag_32:\n    /* \"#utility.yul\":7:150   */\n  swap3\n  swap2\n  pop\n  pop\n  jump\t// out\n    /* \"#utility.yul\":156:507   */\ntag_6:\n    /* \"#utility.yul\":226:232   */\n  0x00\n    /* \"#utility.yul\":275:277   */\n  0x20\n    /* \"#utility.yul\":263:272   */\n  dup3\n    /* \"#utility.yul\":254:261   */\n  dup5\n    /* \"#utility.yul\":250:273   */\n  sub\n    /* \"#utility.yul\":246:278   */\n  slt\n    /* \"#utility.yul\":243:362   */\n  iszero\n  tag_35\n  jumpi\n    /* \"#utility.yul\":281:360   */\n  tag_36\n  tag_37\n  jump\t// in\ntag_36:\n    /* \"#utility.yul\":243:362   */\ntag_35:\n    /* \"#utility.yul\":401:402   */\n  0x00\n    /* \"#utility.yul\":426:490   */\n  tag_38\n    /* \"#utility.yul\":482:489   */\n  dup5\n    /* \"#utility.yul\":473:479   */\n  dup3\n    /* \"#utility.yul\":462:471   */\n  dup6\n    /* \"#utility.yul\":458:480   */\n  add\n    /* \"#utility.yul\":426:490   */\n  tag_30\n  jump\t// in\ntag_38:\n    /* \"#utility.yul\":416:490   */\n  swap2\n  pop\n    /* \"#utility.yul\":372:500   */\n  pop\n    /* \"#utility.yul\":156:507   */\n  swap3\n  swap2\n  pop\n  pop\n  jump\t// out\n    /* \"#utility.yul\":513:631   */\ntag_39:\n    /* \"#utility.yul\":600:624   */\n  tag_41\n    /* \"#utility.yul\":618:623   */\n  dup2\n    /* \"#utility.yul\":600:624   */\n  tag_42\n  jump\t// in\ntag_41:\n    /* \"#utility.yul\":595:598   */\n  dup3\n    /* \"#utility.yul\":588:625   */\n  mstore\n    /* \"#utility.yul\":513:631   */\n  pop\n  pop\n  jump\t// out\n    /* \"#utility.yul\":637:859   */\ntag_17:\n    /* \"#utility.yul\":730:734   */\n  0x00\n    /* \"#utility.yul\":768:770   */\n  0x20\n    /* \"#utility.yul\":757:766   */\n  dup3\n    /* \"#utility.yul\":753:771   */\n  add\n    /* \"#utility.yul\":745:771   */\n  swap1\n  pop\n    /* \"#utility.yul\":781:852   */\n  tag_44\n    /* \"#utility.yul\":849:850   */\n  0x00\n    /* \"#utility.yul\":838:847   */\n  dup4\n    /* \"#utility.yul\":834:851   */\n  add\n    /* \"#utility.yul\":825:831   */\n  dup5\n    /* \"#utility.yul\":781:852   */\n  tag_39\n  jump\t// in\ntag_44:\n    /* \"#utility.yul\":637:859   */\n  swap3\n  swap2\n  pop\n  pop\n  jump\t// out\n    /* \"#utility.yul\":946:1251   */\ntag_14:\n    /* \"#utility.yul\":986:989   */\n  0x00\n    /* \"#utility.yul\":1005:1025   */\n  tag_48\n    /* \"#utility.yul\":1023:1024   */\n  dup3\n    /* \"#utility.yul\":1005:1025   */\n  tag_42\n  jump\t// in\ntag_48:\n    /* \"#utility.yul\":1000:1025   */\n  swap2\n  pop\n    /* \"#utility.yul\":1039:1059   */\n  tag_49\n    /* \"#utility.yul\":1057:1058   */\n  dup4\n    /* \"#utility.yul\":1039:1059   */\n  tag_42\n  jump\t// in\ntag_49:\n    /* \"#utility.yul\":1034:1059   */\n  swap3\n  pop\n    /* \"#utility.yul\":1193:1194   */\n  dup3\n    /* \"#utility.yul\":1125:1191   */\n  0xffffffffffffffffffffffffffffffffffffffffffffffffffffffffffffffff\n    /* \"#utility.yul\":1121:1195   */\n  sub\n    /* \"#utility.yul\":1118:1119   */\n  dup3\n    /* \"#utility.yul\":1115:1196   */\n  gt\n    /* \"#utility.yul\":1112:1219   */\n  iszero\n  tag_50\n  jumpi\n    /* \"#utility.yul\":1199:1217   */\n  tag_51\n  tag_52\n  jump\t// in\ntag_51:\n    /* \"#utility.yul\":1112:1219   */\ntag_50:\n    /* \"#utility.yul\":1243:1244   */\n  dup3\n    /* \"#utility.yul\":1240:1241   */\n  dup3\n    /* \"#utility.yul\":1236:1245   */\n  add\n    /* \"#utility.yul\":1229:1245   */\n  swap1\n  pop\n    /* \"#utility.yul\":946:1251   */\n  swap3\n  swap2\n  pop\n  pop\n  jump\t// out\n    /* \"#utility.yul\":1257:1334   */\ntag_42:\n    /* \"#utility.yul\":1294:1301   */\n  0x00\n    /* \"#utility.yul\":1323:1328   */\n  dup2\n    /* \"#utility.yul\":1312:1328   */\n  swap1\n  pop\n    /* \"#utility.yul\":1257:1334   */\n  swap2\n  swap1\n  pop\n  jump\t// out\n    /* \"#utility.yul\":1340:1660   */\ntag_19:\n    /* \"#utility.yul\":1384:1390   */\n  0x00\n    /* \"#utility.yul\":1421:1422   */\n  0x02\n    /* \"#utility.yul\":1415:1419   */\n  dup3\n    /* \"#utility.yul\":1411:1423   */\n  div\n    /* \"#utility.yul\":1401:1423   */\n  swap1\n  pop\n    /* \"#utility.yul\":1468:1469   */\n  0x01\n    /* \"#utility.yul\":1462:1466   */\n  dup3\n    /* \"#utility.yul\":1458:1470   */\n  and\n    /* \"#utility.yul\":1489:1507   */\n  dup1\n    /* \"#utility.yul\":1479:1560   */\n  tag_55\n  jumpi\n    /* \"#utility.yul\":1545:1549   */\n  0x7f\n    /* \"#utility.yul\":1537:1543   */\n  dup3\n    /* \"#utility.yul\":1533:1550   */\n  and\n    /* \"#utility.yul\":1523:1550   */\n  swap2\n  pop\n    /* \"#utility.yul\":1479:1560   */\ntag_55:\n    /* \"#utility.yul\":1607:1609   */\n  0x20\n    /* \"#utility.yul\":1599:1605   */\n  dup3\n    /* \"#utility.yul\":1596:1610   */\n  lt\n    /* \"#utility.yul\":1576:1594   */\n  dup2\n    /* \"#utility.yul\":1573:1611   */\n  eq\n    /* \"#utility.yul\":1570:1654   */\n  iszero\n  tag_56\n  jumpi\n    /* \"#utility.yul\":1626:1644   */\n  tag_57\n  tag_58\n  jump\t// in\ntag_57:\n    /* \"#utility.yul\":1570:1654   */\ntag_56:\n    /* \"#utility.yul\":1391:1660   */\n  pop\n    /* \"#utility.yul\":1340:1660   */\n  swap2\n  swap1\n  pop\n  jump\t// out\n    /* \"#utility.yul\":1666:1846   */\ntag_52:\n    /* \"#utility.yul\":1714:1791   */\n  0x4e487b7100000000000000000000000000000000000000000000000000000000\n    /* \"#utility.yul\":1711:1712   */\n  0x00\n    /* \"#utility.yul\":1704:1792   */\n  mstore\n    /* \"#utility.yul\":1811:1815   */\n  0x11\n    /* \"#utility.yul\":1808:1809   */\n  0x04\n    /* \"#utility.yul\":1801:1816   */\n  mstore\n    /* \"#utility.yul\":1835:1839   */\n  0x24\n    /* \"#utility.yul\":1832:1833   */\n  0x00\n    /* \"#utility.yul\":1825:1840   */\n  revert\n    /* \"#utility.yul\":1852:2032   */\ntag_58:\n    /* \"#utility.yul\":1900:1977   */\n  0x4e487b7100000000000000000000000000000000000000000000000000000000\n    /* \"#utility.yul\":1897:1898   */\n  0x00\n    /* \"#utility.yul\":1890:1978   */\n  mstore\n    /* \"#utility.yul\":1997:2001   */\n  0x22\n    /* \"#utility.yul\":1994:1995   */\n  0x04\n    /* \"#utility.yul\":1987:2002   */\n  mstore\n    /* \"#utility.yul\":2021:2025   */\n  0x24\n    /* \"#utility.yul\":2018:2019   */\n  0x00\n    /* \"#utility.yul\":2011:2026   */\n  revert\n    /* \"#utility.yul\":2161:2278   */\ntag_37:\n    /* \"#utility.yul\":2270:2271   */\n  0x00\n    /* \"#utility.yul\":2267:2268   */\n  dup1\n    /* \"#utility.yul\":2260:2272   */\n  revert\n    /* \"#utility.yul\":2284:2406   */\ntag_33:\n    /* \"#utility.yul\":2357:2381   */\n  tag_65\n    /* \"#utility.yul\":2375:2380   */\n  dup2\n    /* \"#utility.yul\":2357:2381   */\n  tag_42\n  jump\t// in\ntag_65:\n    /* \"#utility.yul\":2350:2355   */\n  dup2\n    /* \"#utility.yul\":2347:2382   */\n  eq\n    /* \"#utility.yul\":2337:2400   */\n  tag_66\n  jumpi\n    /* \"#utility.yul\":2396:2397   */\n  0x00\n    /* \"#utility.yul\":2393:2394   */\n  dup1\n    /* \"#utility.yul\":2386:2398   */\n  revert\n    /* \"#utility.yul\":2337:2400   */\ntag_66:\n    /* \"#utility.yul\":2284:2406   */\n  pop\n  jump\t// out\n    /* \"contracts/TinToken.sol\":81:2056  contract TinToken is IERC20 {... */\ntag_11:\n  dataSize(sub_0)\n  dup1\n  dataOffset(sub_0)\n  0x00\n  codecopy\n  0x00\n  return\nstop\n\nsub_0: assembly {\n        /* \"contracts/TinToken.sol\":81:2056  contract TinToken is IERC20 {... */\n      mstore(0x40, 0x80)\n      jumpi(tag_1, lt(calldatasize, 0x04))\n      shr(0xe0, calldataload(0x00))\n      dup1\n      0x42966c68\n      gt\n      tag_14\n      jumpi\n      dup1\n      0x42966c68\n      eq\n      tag_8\n      jumpi\n      dup1\n      0x70a08231\n      eq\n      tag_9\n      jumpi\n      dup1\n      0x95d89b41\n      eq\n      tag_10\n      jumpi\n      dup1\n      0xa0712d68\n      eq\n      tag_11\n      jumpi\n      dup1\n      0xa9059cbb\n      eq\n      tag_12\n      jumpi\n      dup1\n      0xdd62ed3e\n      eq\n      tag_13\n      jumpi\n      jump(tag_2)\n    tag_14:\n      dup1\n      0x06fdde03\n      eq\n      tag_3\n      jumpi\n      dup1\n      0x095ea7b3\n      eq\n      tag_4\n      jumpi\n      dup1\n      0x18160ddd\n      eq\n      tag_5\n      jumpi\n      dup1\n      0x23b872dd\n      eq\n      tag_6\n      jumpi\n      dup1\n      0x313ce567\n      eq\n      tag_7\n      jumpi\n      jump(tag_2)\n    tag_1:\n      jumpi(tag_2, calldatasize)\n      stop\n    tag_2:\n      stop\n        /* \"contracts/TinToken.sol\":237:268  string public name = \"TinToken\" */\n    tag_3:\n      callvalue\n      dup1\n      iszero\n      tag_19\n      jumpi\n      0x00\n      dup1\n      revert\n    tag_19:\n      pop\n      tag_20\n      tag_21\n      jump\t// in\n    tag_20:\n      mload(0x40)\n      tag_22\n      swap2\n      swap1\n      tag_23\n      jump\t// in\n    tag_22:\n      mload(0x40)\n      dup1\n      swap2\n      sub\n      swap1\n      return\n        /* \"contracts/TinToken.sol\":1178:1352  function approve(address spender, uint amount) external override {... */\n    tag_4:\n      callvalue\n      dup1\n      iszero\n      tag_24\n      jumpi\n      0x00\n      dup1\n      revert\n    tag_24:\n      pop\n      tag_25\n      0x04\n      dup1\n      calldatasize\n      sub\n      dup2\n      add\n      swap1\n      tag_26\n      swap2\n      swap1\n      tag_27\n      jump\t// in\n    tag_26:\n      tag_28\n      jump\t// in\n    tag_25:\n      stop\n        /* \"contracts/TinToken.sol\":624:717  function totalSupply() public override view returns(uint) {... */\n    tag_5:\n      callvalue\n      dup1\n      iszero\n      tag_29\n      jumpi\n      0x00\n      dup1\n      revert\n    tag_29:\n      pop\n      tag_30\n      tag_31\n      jump\t// in\n    tag_30:\n      mload(0x40)\n      tag_32\n      swap2\n      swap1\n      tag_33\n      jump\t// in\n    tag_32:\n      mload(0x40)\n      dup1\n      swap2\n      sub\n      swap1\n      return\n        /* \"contracts/TinToken.sol\":1358:1627  function transferFrom(address sender, address recipient, uint amount) external override {... */\n    tag_6:\n      callvalue\n      dup1\n      iszero\n      tag_34\n      jumpi\n      0x00\n      dup1\n      revert\n    tag_34:\n      pop\n      tag_35\n      0x04\n      dup1\n      calldatasize\n      sub\n      dup2\n      add\n      swap1\n      tag_36\n      swap2\n      swap1\n      tag_37\n      jump\t// in\n    tag_36:\n      tag_38\n      jump\t// in\n    tag_35:\n      stop\n        /* \"contracts/TinToken.sol\":526:618  function decimals() external override pure returns(uint) {... */\n    tag_7:\n      callvalue\n      dup1\n      iszero\n      tag_39\n      jumpi\n      0x00\n      dup1\n      revert\n    tag_39:\n      pop\n      tag_40\n      tag_41\n      jump\t// in\n    tag_40:\n      mload(0x40)\n      tag_42\n      swap2\n      swap1\n      tag_33\n      jump\t// in\n    tag_42:\n      mload(0x40)\n      dup1\n      swap2\n      sub\n      swap1\n      return\n        /* \"contracts/TinToken.sol\":1806:1973  function burn(uint amount) public {... */\n    tag_8:\n      callvalue\n      dup1\n      iszero\n      tag_43\n      jumpi\n      0x00\n      dup1\n      revert\n    tag_43:\n      pop\n      tag_44\n      0x04\n      dup1\n      calldatasize\n      sub\n      dup2\n      add\n      swap1\n      tag_45\n      swap2\n      swap1\n      tag_46\n      jump\t// in\n    tag_45:\n      tag_47\n      jump\t// in\n    tag_44:\n      stop\n        /* \"contracts/TinToken.sol\":723:835  function balanceOf(address account) public override view returns(uint) {... */\n    tag_9:\n      callvalue\n      dup1\n      iszero\n      tag_48\n      jumpi\n      0x00\n      dup1\n      revert\n    tag_48:\n      pop\n      tag_49\n      0x04\n      dup1\n      calldatasize\n      sub\n      dup2\n      add\n      swap1\n      tag_50\n      swap2\n      swap1\n      tag_51\n      jump\t// in\n    tag_50:\n      tag_52\n      jump\t// in\n    tag_49:\n      mload(0x40)\n      tag_53\n      swap2\n      swap1\n      tag_33\n      jump\t// in\n    tag_53:\n      mload(0x40)\n      dup1\n      swap2\n      sub\n      swap1\n      return\n        /* \"contracts/TinToken.sol\":274:302  string public symbol = \"TTN\" */\n    tag_10:\n      callvalue\n      dup1\n      iszero\n      tag_54\n      jumpi\n      0x00\n      dup1\n      revert\n    tag_54:\n      pop\n      tag_55\n      tag_56\n      jump\t// in\n    tag_55:\n      mload(0x40)\n      tag_57\n      swap2\n      swap1\n      tag_23\n      jump\t// in\n    tag_57:\n      mload(0x40)\n      dup1\n      swap2\n      sub\n      swap1\n      return\n        /* \"contracts/TinToken.sol\":1633:1800  function mint(uint amount) public {... */\n    tag_11:\n      callvalue\n      dup1\n      iszero\n      tag_58\n      jumpi\n      0x00\n      dup1\n      revert\n    tag_58:\n      pop\n      tag_59\n      0x04\n      dup1\n      calldatasize\n      sub\n      dup2\n      add\n      swap1\n      tag_60\n      swap2\n      swap1\n      tag_46\n      jump\t// in\n    tag_60:\n      tag_61\n      jump\t// in\n    tag_59:\n      stop\n        /* \"contracts/TinToken.sol\":841:1028  function transfer(address to, uint amount) external override {... */\n    tag_12:\n      callvalue\n      dup1\n      iszero\n      tag_62\n      jumpi\n      0x00\n      dup1\n      revert\n    tag_62:\n      pop\n      tag_63\n      0x04\n      dup1\n      calldatasize\n      sub\n      dup2\n      add\n      swap1\n      tag_64\n      swap2\n      swap1\n      tag_27\n      jump\t// in\n    tag_64:\n      tag_65\n      jump\t// in\n    tag_63:\n      stop\n        /* \"contracts/TinToken.sol\":1034:1172  function allowance(address owner, address spender) external override view returns(uint) {... */\n    tag_13:\n      callvalue\n      dup1\n      iszero\n      tag_66\n      jumpi\n      0x00\n      dup1\n      revert\n    tag_66:\n      pop\n      tag_67\n      0x04\n      dup1\n      calldatasize\n      sub\n      dup2\n      add\n      swap1\n      tag_68\n      swap2\n      swap1\n      tag_69\n      jump\t// in\n    tag_68:\n      tag_70\n      jump\t// in\n    tag_67:\n      mload(0x40)\n      tag_71\n      swap2\n      swap1\n      tag_33\n      jump\t// in\n    tag_71:\n      mload(0x40)\n      dup1\n      swap2\n      sub\n      swap1\n      return\n        /* \"contracts/TinToken.sol\":237:268  string public name = \"TinToken\" */\n    tag_21:\n      0x03\n      dup1\n      sload\n      tag_72\n      swap1\n      tag_73\n      jump\t// in\n    tag_72:\n      dup1\n      0x1f\n      add\n      0x20\n      dup1\n      swap2\n      div\n      mul\n      0x20\n      add\n      mload(0x40)\n      swap1\n      dup2\n      add\n      0x40\n      mstore\n      dup1\n      swap3\n      swap2\n      swap1\n      dup2\n      dup2\n      mstore\n      0x20\n      add\n      dup3\n      dup1\n      sload\n      tag_74\n      swap1\n      tag_73\n      jump\t// in\n    tag_74:\n      dup1\n      iszero\n      tag_75\n      jumpi\n      dup1\n      0x1f\n      lt\n      tag_76\n      jumpi\n      0x0100\n      dup1\n      dup4\n      sload\n      div\n      mul\n      dup4\n      mstore\n      swap2\n      0x20\n      add\n      swap2\n      jump(tag_75)\n    tag_76:\n      dup3\n      add\n      swap2\n      swap1\n      0x00\n      mstore\n      keccak256(0x00, 0x20)\n      swap1\n    tag_77:\n      dup2\n      sload\n      dup2\n      mstore\n      swap1\n      0x01\n      add\n      swap1\n      0x20\n      add\n      dup1\n      dup4\n      gt\n      tag_77\n      jumpi\n      dup3\n      swap1\n      sub\n      0x1f\n      and\n      dup3\n      add\n      swap2\n    tag_75:\n      pop\n      pop\n      pop\n      pop\n      pop\n      dup2\n      jump\t// out\n        /* \"contracts/TinToken.sol\":1178:1352  function approve(address spender, uint amount) external override {... */\n    tag_28:\n        /* \"contracts/TinToken.sol\":1287:1293  amount */\n      dup1\n        /* \"contracts/TinToken.sol\":1253:1263  allowances */\n      0x02\n        /* \"contracts/TinToken.sol\":1253:1275  allowances[msg.sender] */\n      0x00\n        /* \"contracts/TinToken.sol\":1264:1274  msg.sender */\n      caller\n        /* \"contracts/TinToken.sol\":1253:1275  allowances[msg.sender] */\n      0xffffffffffffffffffffffffffffffffffffffff\n      and\n      0xffffffffffffffffffffffffffffffffffffffff\n      and\n      dup2\n      mstore\n      0x20\n      add\n      swap1\n      dup2\n      mstore\n      0x20\n      add\n      0x00\n      keccak256\n        /* \"contracts/TinToken.sol\":1253:1284  allowances[msg.sender][spender] */\n      0x00\n        /* \"contracts/TinToken.sol\":1276:1283  spender */\n      dup5\n        /* \"contracts/TinToken.sol\":1253:1284  allowances[msg.sender][spender] */\n      0xffffffffffffffffffffffffffffffffffffffff\n      and\n      0xffffffffffffffffffffffffffffffffffffffff\n      and\n      dup2\n      mstore\n      0x20\n      add\n      swap1\n      dup2\n      mstore\n      0x20\n      add\n      0x00\n      keccak256\n        /* \"contracts/TinToken.sol\":1253:1293  allowances[msg.sender][spender] = amount */\n      dup2\n      swap1\n      sstore\n      pop\n        /* \"contracts/TinToken.sol\":1329:1336  spender */\n      dup2\n        /* \"contracts/TinToken.sol\":1308:1345  Approval(msg.sender, spender, amount) */\n      0xffffffffffffffffffffffffffffffffffffffff\n      and\n        /* \"contracts/TinToken.sol\":1317:1327  msg.sender */\n      caller\n        /* \"contracts/TinToken.sol\":1308:1345  Approval(msg.sender, spender, amount) */\n      0xffffffffffffffffffffffffffffffffffffffff\n      and\n      0x8c5be1e5ebec7d5bd14f71427d1e84f3dd0314c0f7b2291e5b200ac8c7c3b925\n        /* \"contracts/TinToken.sol\":1338:1344  amount */\n      dup4\n        /* \"contracts/TinToken.sol\":1308:1345  Approval(msg.sender, spender, amount) */\n      mload(0x40)\n      tag_79\n      swap2\n      swap1\n      tag_33\n      jump\t// in\n    tag_79:\n      mload(0x40)\n      dup1\n      swap2\n      sub\n      swap1\n      log3\n        /* \"contracts/TinToken.sol\":1178:1352  function approve(address spender, uint amount) external override {... */\n      pop\n      pop\n      jump\t// out\n        /* \"contracts/TinToken.sol\":624:717  function totalSupply() public override view returns(uint) {... */\n    tag_31:\n        /* \"contracts/TinToken.sol\":676:680  uint */\n      0x00\n        /* \"contracts/TinToken.sol\":699:710  totalTokens */\n      dup1\n      sload\n        /* \"contracts/TinToken.sol\":692:710  return totalTokens */\n      swap1\n      pop\n        /* \"contracts/TinToken.sol\":624:717  function totalSupply() public override view returns(uint) {... */\n      swap1\n      jump\t// out\n        /* \"contracts/TinToken.sol\":1358:1627  function transferFrom(address sender, address recipient, uint amount) external override {... */\n    tag_38:\n        /* \"contracts/TinToken.sol\":1489:1495  amount */\n      dup1\n        /* \"contracts/TinToken.sol\":1456:1466  allowances */\n      0x02\n        /* \"contracts/TinToken.sol\":1456:1474  allowances[sender] */\n      0x00\n        /* \"contracts/TinToken.sol\":1467:1473  sender */\n      dup6\n        /* \"contracts/TinToken.sol\":1456:1474  allowances[sender] */\n      0xffffffffffffffffffffffffffffffffffffffff\n      and\n      0xffffffffffffffffffffffffffffffffffffffff\n      and\n      dup2\n      mstore\n      0x20\n      add\n      swap1\n      dup2\n      mstore\n      0x20\n      add\n      0x00\n      keccak256\n        /* \"contracts/TinToken.sol\":1456:1485  allowances[sender][recipient] */\n      0x00\n        /* \"contracts/TinToken.sol\":1475:1484  recipient */\n      dup5\n        /* \"contracts/TinToken.sol\":1456:1485  allowances[sender][recipient] */\n      0xffffffffffffffffffffffffffffffffffffffff\n      and\n      0xffffffffffffffffffffffffffffffffffffffff\n      and\n      dup2\n      mstore\n      0x20\n      add\n      swap1\n      dup2\n      mstore\n      0x20\n      add\n      0x00\n      keccak256\n      0x00\n        /* \"contracts/TinToken.sol\":1456:1495  allowances[sender][recipient] -= amount */\n      dup3\n      dup3\n      sload\n      tag_82\n      swap2\n      swap1\n      tag_83\n      jump\t// in\n    tag_82:\n      swap3\n      pop\n      pop\n      dup2\n      swap1\n      sstore\n      pop\n        /* \"contracts/TinToken.sol\":1525:1531  amount */\n      dup1\n        /* \"contracts/TinToken.sol\":1505:1513  balances */\n      0x01\n        /* \"contracts/TinToken.sol\":1505:1521  balances[sender] */\n      0x00\n        /* \"contracts/TinToken.sol\":1514:1520  sender */\n      dup6\n        /* \"contracts/TinToken.sol\":1505:1521  balances[sender] */\n      0xffffffffffffffffffffffffffffffffffffffff\n      and\n      0xffffffffffffffffffffffffffffffffffffffff\n      and\n      dup2\n      mstore\n      0x20\n      add\n      swap1\n      dup2\n      mstore\n      0x20\n      add\n      0x00\n      keccak256\n      0x00\n        /* \"contracts/TinToken.sol\":1505:1531  balances[sender] -= amount */\n      dup3\n      dup3\n      sload\n      tag_84\n      swap2\n      swap1\n      tag_83\n      jump\t// in\n    tag_84:\n      swap3\n      pop\n      pop\n      dup2\n      swap1\n      sstore\n      pop\n        /* \"contracts/TinToken.sol\":1564:1570  amount */\n      dup1\n        /* \"contracts/TinToken.sol\":1541:1549  balances */\n      0x01\n        /* \"contracts/TinToken.sol\":1541:1560  balances[recipient] */\n      0x00\n        /* \"contracts/TinToken.sol\":1550:1559  recipient */\n      dup5\n        /* \"contracts/TinToken.sol\":1541:1560  balances[recipient] */\n      0xffffffffffffffffffffffffffffffffffffffff\n      and\n      0xffffffffffffffffffffffffffffffffffffffff\n      and\n      dup2\n      mstore\n      0x20\n      add\n      swap1\n      dup2\n      mstore\n      0x20\n      add\n      0x00\n      keccak256\n      0x00\n        /* \"contracts/TinToken.sol\":1541:1570  balances[recipient] += amount */\n      dup3\n      dup3\n      sload\n      tag_85\n      swap2\n      swap1\n      tag_86\n      jump\t// in\n    tag_85:\n      swap3\n      pop\n      pop\n      dup2\n      swap1\n      sstore\n      pop\n        /* \"contracts/TinToken.sol\":1602:1611  recipient */\n      dup2\n        /* \"contracts/TinToken.sol\":1585:1620  Transfer(sender, recipient, amount) */\n      0xffffffffffffffffffffffffffffffffffffffff\n      and\n        /* \"contracts/TinToken.sol\":1594:1600  sender */\n      dup4\n        /* \"contracts/TinToken.sol\":1585:1620  Transfer(sender, recipient, amount) */\n      0xffffffffffffffffffffffffffffffffffffffff\n      and\n      0xddf252ad1be2c89b69c2b068fc378daa952ba7f163c4a11628f55a4df523b3ef\n        /* \"contracts/TinToken.sol\":1613:1619  amount */\n      dup4\n        /* \"contracts/TinToken.sol\":1585:1620  Transfer(sender, recipient, amount) */\n      mload(0x40)\n      tag_87\n      swap2\n      swap1\n      tag_33\n      jump\t// in\n    tag_87:\n      mload(0x40)\n      dup1\n      swap2\n      sub\n      swap1\n      log3\n        /* \"contracts/TinToken.sol\":1358:1627  function transferFrom(address sender, address recipient, uint amount) external override {... */\n      pop\n      pop\n      pop\n      jump\t// out\n        /* \"contracts/TinToken.sol\":526:618  function decimals() external override pure returns(uint) {... */\n    tag_41:\n        /* \"contracts/TinToken.sol\":577:581  uint */\n      0x00\n        /* \"contracts/TinToken.sol\":600:601  3 */\n      0x03\n        /* \"contracts/TinToken.sol\":593:601  return 3 */\n      swap1\n      pop\n        /* \"contracts/TinToken.sol\":526:618  function decimals() external override pure returns(uint) {... */\n      swap1\n      jump\t// out\n        /* \"contracts/TinToken.sol\":1806:1973  function burn(uint amount) public {... */\n    tag_47:\n        /* \"contracts/TinToken.sol\":1874:1880  amount */\n      dup1\n        /* \"contracts/TinToken.sol\":1850:1858  balances */\n      0x01\n        /* \"contracts/TinToken.sol\":1850:1870  balances[msg.sender] */\n      0x00\n        /* \"contracts/TinToken.sol\":1859:1869  msg.sender */\n      caller\n        /* \"contracts/TinToken.sol\":1850:1870  balances[msg.sender] */\n      0xffffffffffffffffffffffffffffffffffffffff\n      and\n      0xffffffffffffffffffffffffffffffffffffffff\n      and\n      dup2\n      mstore\n      0x20\n      add\n      swap1\n      dup2\n      mstore\n      0x20\n      add\n      0x00\n      keccak256\n      0x00\n        /* \"contracts/TinToken.sol\":1850:1880  balances[msg.sender] -= amount */\n      dup3\n      dup3\n      sload\n      tag_90\n      swap2\n      swap1\n      tag_83\n      jump\t// in\n    tag_90:\n      swap3\n      pop\n      pop\n      dup2\n      swap1\n      sstore\n      pop\n        /* \"contracts/TinToken.sol\":1905:1911  amount */\n      dup1\n        /* \"contracts/TinToken.sol\":1890:1901  totalTokens */\n      0x00\n      dup1\n        /* \"contracts/TinToken.sol\":1890:1911  totalTokens -= amount */\n      dup3\n      dup3\n      sload\n      tag_91\n      swap2\n      swap1\n      tag_83\n      jump\t// in\n    tag_91:\n      swap3\n      pop\n      pop\n      dup2\n      swap1\n      sstore\n      pop\n        /* \"contracts/TinToken.sol\":1955:1956  0 */\n      0x00\n        /* \"contracts/TinToken.sol\":1926:1966  Transfer(msg.sender, address(0), amount) */\n      0xffffffffffffffffffffffffffffffffffffffff\n      and\n        /* \"contracts/TinToken.sol\":1935:1945  msg.sender */\n      caller\n        /* \"contracts/TinToken.sol\":1926:1966  Transfer(msg.sender, address(0), amount) */\n      0xffffffffffffffffffffffffffffffffffffffff\n      and\n      0xddf252ad1be2c89b69c2b068fc378daa952ba7f163c4a11628f55a4df523b3ef\n        /* \"contracts/TinToken.sol\":1959:1965  amount */\n      dup4\n        /* \"contracts/TinToken.sol\":1926:1966  Transfer(msg.sender, address(0), amount) */\n      mload(0x40)\n      tag_92\n      swap2\n      swap1\n      tag_33\n      jump\t// in\n    tag_92:\n      mload(0x40)\n      dup1\n      swap2\n      sub\n      swap1\n      log3\n        /* \"contracts/TinToken.sol\":1806:1973  function burn(uint amount) public {... */\n      pop\n      jump\t// out\n        /* \"contracts/TinToken.sol\":723:835  function balanceOf(address account) public override view returns(uint) {... */\n    tag_52:\n        /* \"contracts/TinToken.sol\":788:792  uint */\n      0x00\n        /* \"contracts/TinToken.sol\":811:819  balances */\n      0x01\n        /* \"contracts/TinToken.sol\":811:828  balances[account] */\n      0x00\n        /* \"contracts/TinToken.sol\":820:827  account */\n      dup4\n        /* \"contracts/TinToken.sol\":811:828  balances[account] */\n      0xffffffffffffffffffffffffffffffffffffffff\n      and\n      0xffffffffffffffffffffffffffffffffffffffff\n      and\n      dup2\n      mstore\n      0x20\n      add\n      swap1\n      dup2\n      mstore\n      0x20\n      add\n      0x00\n      keccak256\n      sload\n        /* \"contracts/TinToken.sol\":804:828  return balances[account] */\n      swap1\n      pop\n        /* \"contracts/TinToken.sol\":723:835  function balanceOf(address account) public override view returns(uint) {... */\n      swap2\n      swap1\n      pop\n      jump\t// out\n        /* \"contracts/TinToken.sol\":274:302  string public symbol = \"TTN\" */\n    tag_56:\n      0x04\n      dup1\n      sload\n      tag_94\n      swap1\n      tag_73\n      jump\t// in\n    tag_94:\n      dup1\n      0x1f\n      add\n      0x20\n      dup1\n      swap2\n      div\n      mul\n      0x20\n      add\n      mload(0x40)\n      swap1\n      dup2\n      add\n      0x40\n      mstore\n      dup1\n      swap3\n      swap2\n      swap1\n      dup2\n      dup2\n      mstore\n      0x20\n      add\n      dup3\n      dup1\n      sload\n      tag_95\n      swap1\n      tag_73\n      jump\t// in\n    tag_95:\n      dup1\n      iszero\n      tag_96\n      jumpi\n      dup1\n      0x1f\n      lt\n      tag_97\n      jumpi\n      0x0100\n      dup1\n      dup4\n      sload\n      div\n      mul\n      dup4\n      mstore\n      swap2\n      0x20\n      add\n      swap2\n      jump(tag_96)\n    tag_97:\n      dup3\n      add\n      swap2\n      swap1\n      0x00\n      mstore\n      keccak256(0x00, 0x20)\n      swap1\n    tag_98:\n      dup2\n      sload\n      dup2\n      mstore\n      swap1\n      0x01\n      add\n      swap1\n      0x20\n      add\n      dup1\n      dup4\n      gt\n      tag_98\n      jumpi\n      dup3\n      swap1\n      sub\n      0x1f\n      and\n      dup3\n      add\n      swap2\n    tag_96:\n      pop\n      pop\n      pop\n      pop\n      pop\n      dup2\n      jump\t// out\n        /* \"contracts/TinToken.sol\":1633:1800  function mint(uint amount) public {... */\n    tag_61:\n        /* \"contracts/TinToken.sol\":1701:1707  amount */\n      dup1\n        /* \"contracts/TinToken.sol\":1677:1685  balances */\n      0x01\n        /* \"contracts/TinToken.sol\":1677:1697  balances[msg.sender] */\n      0x00\n        /* \"contracts/TinToken.sol\":1686:1696  msg.sender */\n      caller\n        /* \"contracts/TinToken.sol\":1677:1697  balances[msg.sender] */\n      0xffffffffffffffffffffffffffffffffffffffff\n      and\n      0xffffffffffffffffffffffffffffffffffffffff\n      and\n      dup2\n      mstore\n      0x20\n      add\n      swap1\n      dup2\n      mstore\n      0x20\n      add\n      0x00\n      keccak256\n      0x00\n        /* \"contracts/TinToken.sol\":1677:1707  balances[msg.sender] += amount */\n      dup3\n      dup3\n      sload\n      tag_100\n      swap2\n      swap1\n      tag_86\n      jump\t// in\n    tag_100:\n      swap3\n      pop\n      pop\n      dup2\n      swap1\n      sstore\n      pop\n        /* \"contracts/TinToken.sol\":1732:1738  amount */\n      dup1\n        /* \"contracts/TinToken.sol\":1717:1728  totalTokens */\n      0x00\n      dup1\n        /* \"contracts/TinToken.sol\":1717:1738  totalTokens += amount */\n      dup3\n      dup3\n      sload\n      tag_101\n      swap2\n      swap1\n      tag_86\n      jump\t// in\n    tag_101:\n      swap3\n      pop\n      pop\n      dup2\n      swap1\n      sstore\n      pop\n        /* \"contracts/TinToken.sol\":1774:1784  msg.sender */\n      caller\n        /* \"contracts/TinToken.sol\":1753:1793  Transfer(address(0), msg.sender, amount) */\n      0xffffffffffffffffffffffffffffffffffffffff\n      and\n        /* \"contracts/TinToken.sol\":1770:1771  0 */\n      0x00\n        /* \"contracts/TinToken.sol\":1753:1793  Transfer(address(0), msg.sender, amount) */\n      0xffffffffffffffffffffffffffffffffffffffff\n      and\n      0xddf252ad1be2c89b69c2b068fc378daa952ba7f163c4a11628f55a4df523b3ef\n        /* \"contracts/TinToken.sol\":1786:1792  amount */\n      dup4\n        /* \"contracts/TinToken.sol\":1753:1793  Transfer(address(0), msg.sender, amount) */\n      mload(0x40)\n      tag_102\n      swap2\n      swap1\n      tag_33\n      jump\t// in\n    tag_102:\n      mload(0x40)\n      dup1\n      swap2\n      sub\n      swap1\n      log3\n        /* \"contracts/TinToken.sol\":1633:1800  function mint(uint amount) public {... */\n      pop\n      jump\t// out\n        /* \"contracts/TinToken.sol\":841:1028  function transfer(address to, uint amount) external override {... */\n    tag_65:\n        /* \"contracts/TinToken.sol\":936:942  amount */\n      dup1\n        /* \"contracts/TinToken.sol\":912:920  balances */\n      0x01\n        /* \"contracts/TinToken.sol\":912:932  balances[msg.sender] */\n      0x00\n        /* \"contracts/TinToken.sol\":921:931  msg.sender */\n      caller\n        /* \"contracts/TinToken.sol\":912:932  balances[msg.sender] */\n      0xffffffffffffffffffffffffffffffffffffffff\n      and\n      0xffffffffffffffffffffffffffffffffffffffff\n      and\n      dup2\n      mstore\n      0x20\n      add\n      swap1\n      dup2\n      mstore\n      0x20\n      add\n      0x00\n      keccak256\n      0x00\n        /* \"contracts/TinToken.sol\":912:942  balances[msg.sender] -= amount */\n      dup3\n      dup3\n      sload\n      tag_104\n      swap2\n      swap1\n      tag_83\n      jump\t// in\n    tag_104:\n      swap3\n      pop\n      pop\n      dup2\n      swap1\n      sstore\n      pop\n        /* \"contracts/TinToken.sol\":968:974  amount */\n      dup1\n        /* \"contracts/TinToken.sol\":952:960  balances */\n      0x01\n        /* \"contracts/TinToken.sol\":952:964  balances[to] */\n      0x00\n        /* \"contracts/TinToken.sol\":961:963  to */\n      dup5\n        /* \"contracts/TinToken.sol\":952:964  balances[to] */\n      0xffffffffffffffffffffffffffffffffffffffff\n      and\n      0xffffffffffffffffffffffffffffffffffffffff\n      and\n      dup2\n      mstore\n      0x20\n      add\n      swap1\n      dup2\n      mstore\n      0x20\n      add\n      0x00\n      keccak256\n      0x00\n        /* \"contracts/TinToken.sol\":952:974  balances[to] += amount */\n      dup3\n      dup3\n      sload\n      tag_105\n      swap2\n      swap1\n      tag_86\n      jump\t// in\n    tag_105:\n      swap3\n      pop\n      pop\n      dup2\n      swap1\n      sstore\n      pop\n        /* \"contracts/TinToken.sol\":1010:1012  to */\n      dup2\n        /* \"contracts/TinToken.sol\":989:1021  Transfer(msg.sender, to ,amount) */\n      0xffffffffffffffffffffffffffffffffffffffff\n      and\n        /* \"contracts/TinToken.sol\":998:1008  msg.sender */\n      caller\n        /* \"contracts/TinToken.sol\":989:1021  Transfer(msg.sender, to ,amount) */\n      0xffffffffffffffffffffffffffffffffffffffff\n      and\n      0xddf252ad1be2c89b69c2b068fc378daa952ba7f163c4a11628f55a4df523b3ef\n        /* \"contracts/TinToken.sol\":1014:1020  amount */\n      dup4\n        /* \"contracts/TinToken.sol\":989:1021  Transfer(msg.sender, to ,amount) */\n      mload(0x40)\n      tag_106\n      swap2\n      swap1\n      tag_33\n      jump\t// in\n    tag_106:\n      mload(0x40)\n      dup1\n      swap2\n      sub\n      swap1\n      log3\n        /* \"contracts/TinToken.sol\":841:1028  function transfer(address to, uint amount) external override {... */\n      pop\n      pop\n      jump\t// out\n        /* \"contracts/TinToken.sol\":1034:1172  function allowance(address owner, address spender) external override view returns(uint) {... */\n    tag_70:\n        /* \"contracts/TinToken.sol\":1116:1120  uint */\n      0x00\n        /* \"contracts/TinToken.sol\":1139:1149  allowances */\n      0x02\n        /* \"contracts/TinToken.sol\":1139:1156  allowances[owner] */\n      0x00\n        /* \"contracts/TinToken.sol\":1150:1155  owner */\n      dup5\n        /* \"contracts/TinToken.sol\":1139:1156  allowances[owner] */\n      0xffffffffffffffffffffffffffffffffffffffff\n      and\n      0xffffffffffffffffffffffffffffffffffffffff\n      and\n      dup2\n      mstore\n      0x20\n      add\n      swap1\n      dup2\n      mstore\n      0x20\n      add\n      0x00\n      keccak256\n        /* \"contracts/TinToken.sol\":1139:1165  allowances[owner][spender] */\n      0x00\n        /* \"contracts/TinToken.sol\":1157:1164  spender */\n      dup4\n        /* \"contracts/TinToken.sol\":1139:1165  allowances[owner][spender] */\n      0xffffffffffffffffffffffffffffffffffffffff\n      and\n      0xffffffffffffffffffffffffffffffffffffffff\n      and\n      dup2\n      mstore\n      0x20\n      add\n      swap1\n      dup2\n      mstore\n      0x20\n      add\n      0x00\n      keccak256\n      sload\n        /* \"contracts/TinToken.sol\":1132:1165  return allowances[owner][spender] */\n      swap1\n      pop\n        /* \"contracts/TinToken.sol\":1034:1172  function allowance(address owner, address spender) external override view returns(uint) {... */\n      swap3\n      swap2\n      pop\n      pop\n      jump\t// out\n        /* \"#utility.yul\":7:146   */\n    tag_109:\n        /* \"#utility.yul\":53:58   */\n      0x00\n        /* \"#utility.yul\":91:97   */\n      dup2\n        /* \"#utility.yul\":78:98   */\n      calldataload\n        /* \"#utility.yul\":69:98   */\n      swap1\n      pop\n        /* \"#utility.yul\":107:140   */\n      tag_111\n        /* \"#utility.yul\":134:139   */\n      dup2\n        /* \"#utility.yul\":107:140   */\n      tag_112\n      jump\t// in\n    tag_111:\n        /* \"#utility.yul\":7:146   */\n      swap3\n      swap2\n      pop\n      pop\n      jump\t// out\n        /* \"#utility.yul\":152:291   */\n    tag_113:\n        /* \"#utility.yul\":198:203   */\n      0x00\n        /* \"#utility.yul\":236:242   */\n      dup2\n        /* \"#utility.yul\":223:243   */\n      calldataload\n        /* \"#utility.yul\":214:243   */\n      swap1\n      pop\n        /* \"#utility.yul\":252:285   */\n      tag_115\n        /* \"#utility.yul\":279:284   */\n      dup2\n        /* \"#utility.yul\":252:285   */\n      tag_116\n      jump\t// in\n    tag_115:\n        /* \"#utility.yul\":152:291   */\n      swap3\n      swap2\n      pop\n      pop\n      jump\t// out\n        /* \"#utility.yul\":297:626   */\n    tag_51:\n        /* \"#utility.yul\":356:362   */\n      0x00\n        /* \"#utility.yul\":405:407   */\n      0x20\n        /* \"#utility.yul\":393:402   */\n      dup3\n        /* \"#utility.yul\":384:391   */\n      dup5\n        /* \"#utility.yul\":380:403   */\n      sub\n        /* \"#utility.yul\":376:408   */\n      slt\n        /* \"#utility.yul\":373:492   */\n      iszero\n      tag_118\n      jumpi\n        /* \"#utility.yul\":411:490   */\n      tag_119\n      tag_120\n      jump\t// in\n    tag_119:\n        /* \"#utility.yul\":373:492   */\n    tag_118:\n        /* \"#utility.yul\":531:532   */\n      0x00\n        /* \"#utility.yul\":556:609   */\n      tag_121\n        /* \"#utility.yul\":601:608   */\n      dup5\n        /* \"#utility.yul\":592:598   */\n      dup3\n        /* \"#utility.yul\":581:590   */\n      dup6\n        /* \"#utility.yul\":577:599   */\n      add\n        /* \"#utility.yul\":556:609   */\n      tag_109\n      jump\t// in\n    tag_121:\n        /* \"#utility.yul\":546:609   */\n      swap2\n      pop\n        /* \"#utility.yul\":502:619   */\n      pop\n        /* \"#utility.yul\":297:626   */\n      swap3\n      swap2\n      pop\n      pop\n      jump\t// out\n        /* \"#utility.yul\":632:1106   */\n    tag_69:\n        /* \"#utility.yul\":700:706   */\n      0x00\n        /* \"#utility.yul\":708:714   */\n      dup1\n        /* \"#utility.yul\":757:759   */\n      0x40\n        /* \"#utility.yul\":745:754   */\n      dup4\n        /* \"#utility.yul\":736:743   */\n      dup6\n        /* \"#utility.yul\":732:755   */\n      sub\n        /* \"#utility.yul\":728:760   */\n      slt\n        /* \"#utility.yul\":725:844   */\n      iszero\n      tag_123\n      jumpi\n        /* \"#utility.yul\":763:842   */\n      tag_124\n      tag_120\n      jump\t// in\n    tag_124:\n        /* \"#utility.yul\":725:844   */\n    tag_123:\n        /* \"#utility.yul\":883:884   */\n      0x00\n        /* \"#utility.yul\":908:961   */\n      tag_125\n        /* \"#utility.yul\":953:960   */\n      dup6\n        /* \"#utility.yul\":944:950   */\n      dup3\n        /* \"#utility.yul\":933:942   */\n      dup7\n        /* \"#utility.yul\":929:951   */\n      add\n        /* \"#utility.yul\":908:961   */\n      tag_109\n      jump\t// in\n    tag_125:\n        /* \"#utility.yul\":898:961   */\n      swap3\n      pop\n        /* \"#utility.yul\":854:971   */\n      pop\n        /* \"#utility.yul\":1010:1012   */\n      0x20\n        /* \"#utility.yul\":1036:1089   */\n      tag_126\n        /* \"#utility.yul\":1081:1088   */\n      dup6\n        /* \"#utility.yul\":1072:1078   */\n      dup3\n        /* \"#utility.yul\":1061:1070   */\n      dup7\n        /* \"#utility.yul\":1057:1079   */\n      add\n        /* \"#utility.yul\":1036:1089   */\n      tag_109\n      jump\t// in\n    tag_126:\n        /* \"#utility.yul\":1026:1089   */\n      swap2\n      pop\n        /* \"#utility.yul\":981:1099   */\n      pop\n        /* \"#utility.yul\":632:1106   */\n      swap3\n      pop\n      swap3\n      swap1\n      pop\n      jump\t// out\n        /* \"#utility.yul\":1112:1731   */\n    tag_37:\n        /* \"#utility.yul\":1189:1195   */\n      0x00\n        /* \"#utility.yul\":1197:1203   */\n      dup1\n        /* \"#utility.yul\":1205:1211   */\n      0x00\n        /* \"#utility.yul\":1254:1256   */\n      0x60\n        /* \"#utility.yul\":1242:1251   */\n      dup5\n        /* \"#utility.yul\":1233:1240   */\n      dup7\n        /* \"#utility.yul\":1229:1252   */\n      sub\n        /* \"#utility.yul\":1225:1257   */\n      slt\n        /* \"#utility.yul\":1222:1341   */\n      iszero\n      tag_128\n      jumpi\n        /* \"#utility.yul\":1260:1339   */\n      tag_129\n      tag_120\n      jump\t// in\n    tag_129:\n        /* \"#utility.yul\":1222:1341   */\n    tag_128:\n        /* \"#utility.yul\":1380:1381   */\n      0x00\n        /* \"#utility.yul\":1405:1458   */\n      tag_130\n        /* \"#utility.yul\":1450:1457   */\n      dup7\n        /* \"#utility.yul\":1441:1447   */\n      dup3\n        /* \"#utility.yul\":1430:1439   */\n      dup8\n        /* \"#utility.yul\":1426:1448   */\n      add\n        /* \"#utility.yul\":1405:1458   */\n      tag_109\n      jump\t// in\n    tag_130:\n        /* \"#utility.yul\":1395:1458   */\n      swap4\n      pop\n        /* \"#utility.yul\":1351:1468   */\n      pop\n        /* \"#utility.yul\":1507:1509   */\n      0x20\n        /* \"#utility.yul\":1533:1586   */\n      tag_131\n        /* \"#utility.yul\":1578:1585   */\n      dup7\n        /* \"#utility.yul\":1569:1575   */\n      dup3\n        /* \"#utility.yul\":1558:1567   */\n      dup8\n        /* \"#utility.yul\":1554:1576   */\n      add\n        /* \"#utility.yul\":1533:1586   */\n      tag_109\n      jump\t// in\n    tag_131:\n        /* \"#utility.yul\":1523:1586   */\n      swap3\n      pop\n        /* \"#utility.yul\":1478:1596   */\n      pop\n        /* \"#utility.yul\":1635:1637   */\n      0x40\n        /* \"#utility.yul\":1661:1714   */\n      tag_132\n        /* \"#utility.yul\":1706:1713   */\n      dup7\n        /* \"#utility.yul\":1697:1703   */\n      dup3\n        /* \"#utility.yul\":1686:1695   */\n      dup8\n        /* \"#utility.yul\":1682:1704   */\n      add\n        /* \"#utility.yul\":1661:1714   */\n      tag_113\n      jump\t// in\n    tag_132:\n        /* \"#utility.yul\":1651:1714   */\n      swap2\n      pop\n        /* \"#utility.yul\":1606:1724   */\n      pop\n        /* \"#utility.yul\":1112:1731   */\n      swap3\n      pop\n      swap3\n      pop\n      swap3\n      jump\t// out\n        /* \"#utility.yul\":1737:2211   */\n    tag_27:\n        /* \"#utility.yul\":1805:1811   */\n      0x00\n        /* \"#utility.yul\":1813:1819   */\n      dup1\n        /* \"#utility.yul\":1862:1864   */\n      0x40\n        /* \"#utility.yul\":1850:1859   */\n      dup4\n        /* \"#utility.yul\":1841:1848   */\n      dup6\n        /* \"#utility.yul\":1837:1860   */\n      sub\n        /* \"#utility.yul\":1833:1865   */\n      slt\n        /* \"#utility.yul\":1830:1949   */\n      iszero\n      tag_134\n      jumpi\n        /* \"#utility.yul\":1868:1947   */\n      tag_135\n      tag_120\n      jump\t// in\n    tag_135:\n        /* \"#utility.yul\":1830:1949   */\n    tag_134:\n        /* \"#utility.yul\":1988:1989   */\n      0x00\n        /* \"#utility.yul\":2013:2066   */\n      tag_136\n        /* \"#utility.yul\":2058:2065   */\n      dup6\n        /* \"#utility.yul\":2049:2055   */\n      dup3\n        /* \"#utility.yul\":2038:2047   */\n      dup7\n        /* \"#utility.yul\":2034:2056   */\n      add\n        /* \"#utility.yul\":2013:2066   */\n      tag_109\n      jump\t// in\n    tag_136:\n        /* \"#utility.yul\":2003:2066   */\n      swap3\n      pop\n        /* \"#utility.yul\":1959:2076   */\n      pop\n        /* \"#utility.yul\":2115:2117   */\n      0x20\n        /* \"#utility.yul\":2141:2194   */\n      tag_137\n        /* \"#utility.yul\":2186:2193   */\n      dup6\n        /* \"#utility.yul\":2177:2183   */\n      dup3\n        /* \"#utility.yul\":2166:2175   */\n      dup7\n        /* \"#utility.yul\":2162:2184   */\n      add\n        /* \"#utility.yul\":2141:2194   */\n      tag_113\n      jump\t// in\n    tag_137:\n        /* \"#utility.yul\":2131:2194   */\n      swap2\n      pop\n        /* \"#utility.yul\":2086:2204   */\n      pop\n        /* \"#utility.yul\":1737:2211   */\n      swap3\n      pop\n      swap3\n      swap1\n      pop\n      jump\t// out\n        /* \"#utility.yul\":2217:2546   */\n    tag_46:\n        /* \"#utility.yul\":2276:2282   */\n      0x00\n        /* \"#utility.yul\":2325:2327   */\n      0x20\n        /* \"#utility.yul\":2313:2322   */\n      dup3\n        /* \"#utility.yul\":2304:2311   */\n      dup5\n        /* \"#utility.yul\":2300:2323   */\n      sub\n        /* \"#utility.yul\":2296:2328   */\n      slt\n        /* \"#utility.yul\":2293:2412   */\n      iszero\n      tag_139\n      jumpi\n        /* \"#utility.yul\":2331:2410   */\n      tag_140\n      tag_120\n      jump\t// in\n    tag_140:\n        /* \"#utility.yul\":2293:2412   */\n    tag_139:\n        /* \"#utility.yul\":2451:2452   */\n      0x00\n        /* \"#utility.yul\":2476:2529   */\n      tag_141\n        /* \"#utility.yul\":2521:2528   */\n      dup5\n        /* \"#utility.yul\":2512:2518   */\n      dup3\n        /* \"#utility.yul\":2501:2510   */\n      dup6\n        /* \"#utility.yul\":2497:2519   */\n      add\n        /* \"#utility.yul\":2476:2529   */\n      tag_113\n      jump\t// in\n    tag_141:\n        /* \"#utility.yul\":2466:2529   */\n      swap2\n      pop\n        /* \"#utility.yul\":2422:2539   */\n      pop\n        /* \"#utility.yul\":2217:2546   */\n      swap3\n      swap2\n      pop\n      pop\n      jump\t// out\n        /* \"#utility.yul\":2552:2916   */\n    tag_142:\n        /* \"#utility.yul\":2640:2643   */\n      0x00\n        /* \"#utility.yul\":2668:2707   */\n      tag_144\n        /* \"#utility.yul\":2701:2706   */\n      dup3\n        /* \"#utility.yul\":2668:2707   */\n      tag_145\n      jump\t// in\n    tag_144:\n        /* \"#utility.yul\":2723:2794   */\n      tag_146\n        /* \"#utility.yul\":2787:2793   */\n      dup2\n        /* \"#utility.yul\":2782:2785   */\n      dup6\n        /* \"#utility.yul\":2723:2794   */\n      tag_147\n      jump\t// in\n    tag_146:\n        /* \"#utility.yul\":2716:2794   */\n      swap4\n      pop\n        /* \"#utility.yul\":2803:2855   */\n      tag_148\n        /* \"#utility.yul\":2848:2854   */\n      dup2\n        /* \"#utility.yul\":2843:2846   */\n      dup6\n        /* \"#utility.yul\":2836:2840   */\n      0x20\n        /* \"#utility.yul\":2829:2834   */\n      dup7\n        /* \"#utility.yul\":2825:2841   */\n      add\n        /* \"#utility.yul\":2803:2855   */\n      tag_149\n      jump\t// in\n    tag_148:\n        /* \"#utility.yul\":2880:2909   */\n      tag_150\n        /* \"#utility.yul\":2902:2908   */\n      dup2\n        /* \"#utility.yul\":2880:2909   */\n      tag_151\n      jump\t// in\n    tag_150:\n        /* \"#utility.yul\":2875:2878   */\n      dup5\n        /* \"#utility.yul\":2871:2910   */\n      add\n        /* \"#utility.yul\":2864:2910   */\n      swap2\n      pop\n        /* \"#utility.yul\":2644:2916   */\n      pop\n        /* \"#utility.yul\":2552:2916   */\n      swap3\n      swap2\n      pop\n      pop\n      jump\t// out\n        /* \"#utility.yul\":2922:3040   */\n    tag_152:\n        /* \"#utility.yul\":3009:3033   */\n      tag_154\n        /* \"#utility.yul\":3027:3032   */\n      dup2\n        /* \"#utility.yul\":3009:3033   */\n      tag_155\n      jump\t// in\n    tag_154:\n        /* \"#utility.yul\":3004:3007   */\n      dup3\n        /* \"#utility.yul\":2997:3034   */\n      mstore\n        /* \"#utility.yul\":2922:3040   */\n      pop\n      pop\n      jump\t// out\n        /* \"#utility.yul\":3046:3359   */\n    tag_23:\n        /* \"#utility.yul\":3159:3163   */\n      0x00\n        /* \"#utility.yul\":3197:3199   */\n      0x20\n        /* \"#utility.yul\":3186:3195   */\n      dup3\n        /* \"#utility.yul\":3182:3200   */\n      add\n        /* \"#utility.yul\":3174:3200   */\n      swap1\n      pop\n        /* \"#utility.yul\":3246:3255   */\n      dup2\n        /* \"#utility.yul\":3240:3244   */\n      dup2\n        /* \"#utility.yul\":3236:3256   */\n      sub\n        /* \"#utility.yul\":3232:3233   */\n      0x00\n        /* \"#utility.yul\":3221:3230   */\n      dup4\n        /* \"#utility.yul\":3217:3234   */\n      add\n        /* \"#utility.yul\":3210:3257   */\n      mstore\n        /* \"#utility.yul\":3274:3352   */\n      tag_157\n        /* \"#utility.yul\":3347:3351   */\n      dup2\n        /* \"#utility.yul\":3338:3344   */\n      dup5\n        /* \"#utility.yul\":3274:3352   */\n      tag_142\n      jump\t// in\n    tag_157:\n        /* \"#utility.yul\":3266:3352   */\n      swap1\n      pop\n        /* \"#utility.yul\":3046:3359   */\n      swap3\n      swap2\n      pop\n      pop\n      jump\t// out\n        /* \"#utility.yul\":3365:3587   */\n    tag_33:\n        /* \"#utility.yul\":3458:3462   */\n      0x00\n        /* \"#utility.yul\":3496:3498   */\n      0x20\n        /* \"#utility.yul\":3485:3494   */\n      dup3\n        /* \"#utility.yul\":3481:3499   */\n      add\n        /* \"#utility.yul\":3473:3499   */\n      swap1\n      pop\n        /* \"#utility.yul\":3509:3580   */\n      tag_159\n        /* \"#utility.yul\":3577:3578   */\n      0x00\n        /* \"#utility.yul\":3566:3575   */\n      dup4\n        /* \"#utility.yul\":3562:3579   */\n      add\n        /* \"#utility.yul\":3553:3559   */\n      dup5\n        /* \"#utility.yul\":3509:3580   */\n      tag_152\n      jump\t// in\n    tag_159:\n        /* \"#utility.yul\":3365:3587   */\n      swap3\n      swap2\n      pop\n      pop\n      jump\t// out\n        /* \"#utility.yul\":3674:3773   */\n    tag_145:\n        /* \"#utility.yul\":3726:3732   */\n      0x00\n        /* \"#utility.yul\":3760:3765   */\n      dup2\n        /* \"#utility.yul\":3754:3766   */\n      mload\n        /* \"#utility.yul\":3744:3766   */\n      swap1\n      pop\n        /* \"#utility.yul\":3674:3773   */\n      swap2\n      swap1\n      pop\n      jump\t// out\n        /* \"#utility.yul\":3779:3948   */\n    tag_147:\n        /* \"#utility.yul\":3863:3874   */\n      0x00\n        /* \"#utility.yul\":3897:3903   */\n      dup3\n        /* \"#utility.yul\":3892:3895   */\n      dup3\n        /* \"#utility.yul\":3885:3904   */\n      mstore\n        /* \"#utility.yul\":3937:3941   */\n      0x20\n        /* \"#utility.yul\":3932:3935   */\n      dup3\n        /* \"#utility.yul\":3928:3942   */\n      add\n        /* \"#utility.yul\":3913:3942   */\n      swap1\n      pop\n        /* \"#utility.yul\":3779:3948   */\n      swap3\n      swap2\n      pop\n      pop\n      jump\t// out\n        /* \"#utility.yul\":3954:4259   */\n    tag_86:\n        /* \"#utility.yul\":3994:3997   */\n      0x00\n        /* \"#utility.yul\":4013:4033   */\n      tag_165\n        /* \"#utility.yul\":4031:4032   */\n      dup3\n        /* \"#utility.yul\":4013:4033   */\n      tag_155\n      jump\t// in\n    tag_165:\n        /* \"#utility.yul\":4008:4033   */\n      swap2\n      pop\n        /* \"#utility.yul\":4047:4067   */\n      tag_166\n        /* \"#utility.yul\":4065:4066   */\n      dup4\n        /* \"#utility.yul\":4047:4067   */\n      tag_155\n      jump\t// in\n    tag_166:\n        /* \"#utility.yul\":4042:4067   */\n      swap3\n      pop\n        /* \"#utility.yul\":4201:4202   */\n      dup3\n        /* \"#utility.yul\":4133:4199   */\n      0xffffffffffffffffffffffffffffffffffffffffffffffffffffffffffffffff\n        /* \"#utility.yul\":4129:4203   */\n      sub\n        /* \"#utility.yul\":4126:4127   */\n      dup3\n        /* \"#utility.yul\":4123:4204   */\n      gt\n        /* \"#utility.yul\":4120:4227   */\n      iszero\n      tag_167\n      jumpi\n        /* \"#utility.yul\":4207:4225   */\n      tag_168\n      tag_169\n      jump\t// in\n    tag_168:\n        /* \"#utility.yul\":4120:4227   */\n    tag_167:\n        /* \"#utility.yul\":4251:4252   */\n      dup3\n        /* \"#utility.yul\":4248:4249   */\n      dup3\n        /* \"#utility.yul\":4244:4253   */\n      add\n        /* \"#utility.yul\":4237:4253   */\n      swap1\n      pop\n        /* \"#utility.yul\":3954:4259   */\n      swap3\n      swap2\n      pop\n      pop\n      jump\t// out\n        /* \"#utility.yul\":4265:4456   */\n    tag_83:\n        /* \"#utility.yul\":4305:4309   */\n      0x00\n        /* \"#utility.yul\":4325:4345   */\n      tag_171\n        /* \"#utility.yul\":4343:4344   */\n      dup3\n        /* \"#utility.yul\":4325:4345   */\n      tag_155\n      jump\t// in\n    tag_171:\n        /* \"#utility.yul\":4320:4345   */\n      swap2\n      pop\n        /* \"#utility.yul\":4359:4379   */\n      tag_172\n        /* \"#utility.yul\":4377:4378   */\n      dup4\n        /* \"#utility.yul\":4359:4379   */\n      tag_155\n      jump\t// in\n    tag_172:\n        /* \"#utility.yul\":4354:4379   */\n      swap3\n      pop\n        /* \"#utility.yul\":4398:4399   */\n      dup3\n        /* \"#utility.yul\":4395:4396   */\n      dup3\n        /* \"#utility.yul\":4392:4400   */\n      lt\n        /* \"#utility.yul\":4389:4423   */\n      iszero\n      tag_173\n      jumpi\n        /* \"#utility.yul\":4403:4421   */\n      tag_174\n      tag_169\n      jump\t// in\n    tag_174:\n        /* \"#utility.yul\":4389:4423   */\n    tag_173:\n        /* \"#utility.yul\":4448:4449   */\n      dup3\n        /* \"#utility.yul\":4445:4446   */\n      dup3\n        /* \"#utility.yul\":4441:4450   */\n      sub\n        /* \"#utility.yul\":4433:4450   */\n      swap1\n      pop\n        /* \"#utility.yul\":4265:4456   */\n      swap3\n      swap2\n      pop\n      pop\n      jump\t// out\n        /* \"#utility.yul\":4462:4558   */\n    tag_175:\n        /* \"#utility.yul\":4499:4506   */\n      0x00\n        /* \"#utility.yul\":4528:4552   */\n      tag_177\n        /* \"#utility.yul\":4546:4551   */\n      dup3\n        /* \"#utility.yul\":4528:4552   */\n      tag_178\n      jump\t// in\n    tag_177:\n        /* \"#utility.yul\":4517:4552   */\n      swap1\n      pop\n        /* \"#utility.yul\":4462:4558   */\n      swap2\n      swap1\n      pop\n      jump\t// out\n        /* \"#utility.yul\":4564:4690   */\n    tag_178:\n        /* \"#utility.yul\":4601:4608   */\n      0x00\n        /* \"#utility.yul\":4641:4683   */\n      0xffffffffffffffffffffffffffffffffffffffff\n        /* \"#utility.yul\":4634:4639   */\n      dup3\n        /* \"#utility.yul\":4630:4684   */\n      and\n        /* \"#utility.yul\":4619:4684   */\n      swap1\n      pop\n        /* \"#utility.yul\":4564:4690   */\n      swap2\n      swap1\n      pop\n      jump\t// out\n        /* \"#utility.yul\":4696:4773   */\n    tag_155:\n        /* \"#utility.yul\":4733:4740   */\n      0x00\n        /* \"#utility.yul\":4762:4767   */\n      dup2\n        /* \"#utility.yul\":4751:4767   */\n      swap1\n      pop\n        /* \"#utility.yul\":4696:4773   */\n      swap2\n      swap1\n      pop\n      jump\t// out\n        /* \"#utility.yul\":4779:5086   */\n    tag_149:\n        /* \"#utility.yul\":4847:4848   */\n      0x00\n        /* \"#utility.yul\":4857:4970   */\n    tag_182:\n        /* \"#utility.yul\":4871:4877   */\n      dup4\n        /* \"#utility.yul\":4868:4869   */\n      dup2\n        /* \"#utility.yul\":4865:4878   */\n      lt\n        /* \"#utility.yul\":4857:4970   */\n      iszero\n      tag_184\n      jumpi\n        /* \"#utility.yul\":4956:4957   */\n      dup1\n        /* \"#utility.yul\":4951:4954   */\n      dup3\n        /* \"#utility.yul\":4947:4958   */\n      add\n        /* \"#utility.yul\":4941:4959   */\n      mload\n        /* \"#utility.yul\":4937:4938   */\n      dup2\n        /* \"#utility.yul\":4932:4935   */\n      dup5\n        /* \"#utility.yul\":4928:4939   */\n      add\n        /* \"#utility.yul\":4921:4960   */\n      mstore\n        /* \"#utility.yul\":4893:4895   */\n      0x20\n        /* \"#utility.yul\":4890:4891   */\n      dup2\n        /* \"#utility.yul\":4886:4896   */\n      add\n        /* \"#utility.yul\":4881:4896   */\n      swap1\n      pop\n        /* \"#utility.yul\":4857:4970   */\n      jump(tag_182)\n    tag_184:\n        /* \"#utility.yul\":4988:4994   */\n      dup4\n        /* \"#utility.yul\":4985:4986   */\n      dup2\n        /* \"#utility.yul\":4982:4995   */\n      gt\n        /* \"#utility.yul\":4979:5080   */\n      iszero\n      tag_185\n      jumpi\n        /* \"#utility.yul\":5068:5069   */\n      0x00\n        /* \"#utility.yul\":5059:5065   */\n      dup5\n        /* \"#utility.yul\":5054:5057   */\n      dup5\n        /* \"#utility.yul\":5050:5066   */\n      add\n        /* \"#utility.yul\":5043:5070   */\n      mstore\n        /* \"#utility.yul\":4979:5080   */\n    tag_185:\n        /* \"#utility.yul\":4828:5086   */\n      pop\n        /* \"#utility.yul\":4779:5086   */\n      pop\n      pop\n      pop\n      jump\t// out\n        /* \"#utility.yul\":5092:5412   */\n    tag_73:\n        /* \"#utility.yul\":5136:5142   */\n      0x00\n        /* \"#utility.yul\":5173:5174   */\n      0x02\n        /* \"#utility.yul\":5167:5171   */\n      dup3\n        /* \"#utility.yul\":5163:5175   */\n      div\n        /* \"#utility.yul\":5153:5175   */\n      swap1\n      pop\n        /* \"#utility.yul\":5220:5221   */\n      0x01\n        /* \"#utility.yul\":5214:5218   */\n      dup3\n        /* \"#utility.yul\":5210:5222   */\n      and\n        /* \"#utility.yul\":5241:5259   */\n      dup1\n        /* \"#utility.yul\":5231:5312   */\n      tag_187\n      jumpi\n        /* \"#utility.yul\":5297:5301   */\n      0x7f\n        /* \"#utility.yul\":5289:5295   */\n      dup3\n        /* \"#utility.yul\":5285:5302   */\n      and\n        /* \"#utility.yul\":5275:5302   */\n      swap2\n      pop\n        /* \"#utility.yul\":5231:5312   */\n    tag_187:\n        /* \"#utility.yul\":5359:5361   */\n      0x20\n        /* \"#utility.yul\":5351:5357   */\n      dup3\n        /* \"#utility.yul\":5348:5362   */\n      lt\n        /* \"#utility.yul\":5328:5346   */\n      dup2\n        /* \"#utility.yul\":5325:5363   */\n      eq\n        /* \"#utility.yul\":5322:5406   */\n      iszero\n      tag_188\n      jumpi\n        /* \"#utility.yul\":5378:5396   */\n      tag_189\n      tag_190\n      jump\t// in\n    tag_189:\n        /* \"#utility.yul\":5322:5406   */\n    tag_188:\n        /* \"#utility.yul\":5143:5412   */\n      pop\n        /* \"#utility.yul\":5092:5412   */\n      swap2\n      swap1\n      pop\n      jump\t// out\n        /* \"#utility.yul\":5418:5598   */\n    tag_169:\n        /* \"#utility.yul\":5466:5543   */\n      0x4e487b7100000000000000000000000000000000000000000000000000000000\n        /* \"#utility.yul\":5463:5464   */\n      0x00\n        /* \"#utility.yul\":5456:5544   */\n      mstore\n        /* \"#utility.yul\":5563:5567   */\n      0x11\n        /* \"#utility.yul\":5560:5561   */\n      0x04\n        /* \"#utility.yul\":5553:5568   */\n      mstore\n        /* \"#utility.yul\":5587:5591   */\n      0x24\n        /* \"#utility.yul\":5584:5585   */\n      0x00\n        /* \"#utility.yul\":5577:5592   */\n      revert\n        /* \"#utility.yul\":5604:5784   */\n    tag_190:\n        /* \"#utility.yul\":5652:5729   */\n      0x4e487b7100000000000000000000000000000000000000000000000000000000\n        /* \"#utility.yul\":5649:5650   */\n      0x00\n        /* \"#utility.yul\":5642:5730   */\n      mstore\n        /* \"#utility.yul\":5749:5753   */\n      0x22\n        /* \"#utility.yul\":5746:5747   */\n      0x04\n        /* \"#utility.yul\":5739:5754   */\n      mstore\n        /* \"#utility.yul\":5773:5777   */\n      0x24\n        /* \"#utility.yul\":5770:5771   */\n      0x00\n        /* \"#utility.yul\":5763:5778   */\n      revert\n        /* \"#utility.yul\":5913:6030   */\n    tag_120:\n        /* \"#utility.yul\":6022:6023   */\n      0x00\n        /* \"#utility.yul\":6019:6020   */\n      dup1\n        /* \"#utility.yul\":6012:6024   */\n      revert\n        /* \"#utility.yul\":6036:6138   */\n    tag_151:\n        /* \"#utility.yul\":6077:6083   */\n      0x00\n        /* \"#utility.yul\":6128:6130   */\n      0x1f\n        /* \"#utility.yul\":6124:6131   */\n      not\n        /* \"#utility.yul\":6119:6121   */\n      0x1f\n        /* \"#utility.yul\":6112:6117   */\n      dup4\n        /* \"#utility.yul\":6108:6122   */\n      add\n        /* \"#utility.yul\":6104:6132   */\n      and\n        /* \"#utility.yul\":6094:6132   */\n      swap1\n      pop\n        /* \"#utility.yul\":6036:6138   */\n      swap2\n      swap1\n      pop\n      jump\t// out\n        /* \"#utility.yul\":6144:6266   */\n    tag_112:\n        /* \"#utility.yul\":6217:6241   */\n      tag_198\n        /* \"#utility.yul\":6235:6240   */\n      dup2\n        /* \"#utility.yul\":6217:6241   */\n      tag_175\n      jump\t// in\n    tag_198:\n        /* \"#utility.yul\":6210:6215   */\n      dup2\n        /* \"#utility.yul\":6207:6242   */\n      eq\n        /* \"#utility.yul\":6197:6260   */\n      tag_199\n      jumpi\n        /* \"#utility.yul\":6256:6257   */\n      0x00\n        /* \"#utility.yul\":6253:6254   */\n      dup1\n        /* \"#utility.yul\":6246:6258   */\n      revert\n        /* \"#utility.yul\":6197:6260   */\n    tag_199:\n        /* \"#utility.yul\":6144:6266   */\n      pop\n      jump\t// out\n        /* \"#utility.yul\":6272:6394   */\n    tag_116:\n        /* \"#utility.yul\":6345:6369   */\n      tag_201\n        /* \"#utility.yul\":6363:6368   */\n      dup2\n        /* \"#utility.yul\":6345:6369   */\n      tag_155\n      jump\t// in\n    tag_201:\n        /* \"#utility.yul\":6338:6343   */\n      dup2\n        /* \"#utility.yul\":6335:6370   */\n      eq\n        /* \"#utility.yul\":6325:6388   */\n      tag_202\n      jumpi\n        /* \"#utility.yul\":6384:6385   */\n      0x00\n        /* \"#utility.yul\":6381:6382   */\n      dup1\n        /* \"#utility.yul\":6374:6386   */\n      revert\n        /* \"#utility.yul\":6325:6388   */\n    tag_202:\n        /* \"#utility.yul\":6272:6394   */\n      pop\n      jump\t// out\n\n    auxdata: 0xa264697066735822122045cb044d5f15778c70475893fde31faa5f096fd127d3189d0890cc3dba274d5c64736f6c63430008070033\n}\n",
				"bytecode": {
					"linkReferences": {},
					"object": "60806040526040518060400160405280600881526020017f54696e546f6b656e0000000000000000000000000000000000000000000000008152506003908051906020019062000051929190620001c8565b506040518060400160405280600381526020017f54544e0000000000000000000000000000000000000000000000000000000000815250600490805190602001906200009f929190620001c8565b50348015620000ad57600080fd5b5060405162001204380380620012048339818101604052810190620000d391906200028f565b620000e481620000eb60201b60201c565b5062000409565b80600160003373ffffffffffffffffffffffffffffffffffffffff1673ffffffffffffffffffffffffffffffffffffffff16815260200190815260200160002060008282546200013c9190620002ef565b9250508190555080600080828254620001569190620002ef565b925050819055503373ffffffffffffffffffffffffffffffffffffffff16600073ffffffffffffffffffffffffffffffffffffffff167fddf252ad1be2c89b69c2b068fc378daa952ba7f163c4a11628f55a4df523b3ef83604051620001bd9190620002d2565b60405180910390a350565b828054620001d69062000356565b90600052602060002090601f016020900481019282620001fa576000855562000246565b82601f106200021557805160ff191683800117855562000246565b8280016001018555821562000246579182015b828111156200024557825182559160200191906001019062000228565b5b50905062000255919062000259565b5090565b5b80821115620002745760008160009055506001016200025a565b5090565b6000815190506200028981620003ef565b92915050565b600060208284031215620002a857620002a7620003ea565b5b6000620002b88482850162000278565b91505092915050565b620002cc816200034c565b82525050565b6000602082019050620002e96000830184620002c1565b92915050565b6000620002fc826200034c565b915062000309836200034c565b9250827fffffffffffffffffffffffffffffffffffffffffffffffffffffffffffffffff038211156200034157620003406200038c565b5b828201905092915050565b6000819050919050565b600060028204905060018216806200036f57607f821691505b60208210811415620003865762000385620003bb565b5b50919050565b7f4e487b7100000000000000000000000000000000000000000000000000000000600052601160045260246000fd5b7f4e487b7100000000000000000000000000000000000000000000000000000000600052602260045260246000fd5b600080fd5b620003fa816200034c565b81146200040657600080fd5b50565b610deb80620004196000396000f3fe6080604052600436106100a05760003560e01c806342966c681161006457806342966c681461017c57806370a08231146101a557806395d89b41146101e2578063a0712d681461020d578063a9059cbb14610236578063dd62ed3e1461025f576100a7565b806306fdde03146100a9578063095ea7b3146100d457806318160ddd146100fd57806323b872dd14610128578063313ce56714610151576100a7565b366100a757005b005b3480156100b557600080fd5b506100be61029c565b6040516100cb9190610b8f565b60405180910390f35b3480156100e057600080fd5b506100fb60048036038101906100f69190610ada565b61032a565b005b34801561010957600080fd5b50610112610414565b60405161011f9190610bb1565b60405180910390f35b34801561013457600080fd5b5061014f600480360381019061014a9190610a87565b61041d565b005b34801561015d57600080fd5b506101666105c6565b6040516101739190610bb1565b60405180910390f35b34801561018857600080fd5b506101a3600480360381019061019e9190610b1a565b6105cf565b005b3480156101b157600080fd5b506101cc60048036038101906101c79190610a1a565b6106a6565b6040516101d99190610bb1565b60405180910390f35b3480156101ee57600080fd5b506101f76106ef565b6040516102049190610b8f565b60405180910390f35b34801561021957600080fd5b50610234600480360381019061022f9190610b1a565b61077d565b005b34801561024257600080fd5b5061025d60048036038101906102589190610ada565b610854565b005b34801561026b57600080fd5b5061028660048036038101906102819190610a47565b610969565b6040516102939190610bb1565b60405180910390f35b600380546102a990610ce1565b80601f01602080910402602001604051908101604052809291908181526020018280546102d590610ce1565b80156103225780601f106102f757610100808354040283529160200191610322565b820191906000526020600020905b81548152906001019060200180831161030557829003601f168201915b505050505081565b80600260003373ffffffffffffffffffffffffffffffffffffffff1673ffffffffffffffffffffffffffffffffffffffff16815260200190815260200160002060008473ffffffffffffffffffffffffffffffffffffffff1673ffffffffffffffffffffffffffffffffffffffff168152602001908152602001600020819055508173ffffffffffffffffffffffffffffffffffffffff163373ffffffffffffffffffffffffffffffffffffffff167f8c5be1e5ebec7d5bd14f71427d1e84f3dd0314c0f7b2291e5b200ac8c7c3b925836040516104089190610bb1565b60405180910390a35050565b60008054905090565b80600260008573ffffffffffffffffffffffffffffffffffffffff1673ffffffffffffffffffffffffffffffffffffffff16815260200190815260200160002060008473ffffffffffffffffffffffffffffffffffffffff1673ffffffffffffffffffffffffffffffffffffffff16815260200190815260200160002060008282546104a99190610c3e565b9250508190555080600160008573ffffffffffffffffffffffffffffffffffffffff1673ffffffffffffffffffffffffffffffffffffffff16815260200190815260200160002060008282546104ff9190610c3e565b9250508190555080600160008473ffffffffffffffffffffffffffffffffffffffff1673ffffffffffffffffffffffffffffffffffffffff16815260200190815260200160002060008282546105559190610be8565b925050819055508173ffffffffffffffffffffffffffffffffffffffff168373ffffffffffffffffffffffffffffffffffffffff167fddf252ad1be2c89b69c2b068fc378daa952ba7f163c4a11628f55a4df523b3ef836040516105b99190610bb1565b60405180910390a3505050565b60006003905090565b80600160003373ffffffffffffffffffffffffffffffffffffffff1673ffffffffffffffffffffffffffffffffffffffff168152602001908152602001600020600082825461061e9190610c3e565b92505081905550806000808282546106369190610c3e565b92505081905550600073ffffffffffffffffffffffffffffffffffffffff163373ffffffffffffffffffffffffffffffffffffffff167fddf252ad1be2c89b69c2b068fc378daa952ba7f163c4a11628f55a4df523b3ef8360405161069b9190610bb1565b60405180910390a350565b6000600160008373ffffffffffffffffffffffffffffffffffffffff1673ffffffffffffffffffffffffffffffffffffffff168152602001908152602001600020549050919050565b600480546106fc90610ce1565b80601f016020809104026020016040519081016040528092919081815260200182805461072890610ce1565b80156107755780601f1061074a57610100808354040283529160200191610775565b820191906000526020600020905b81548152906001019060200180831161075857829003601f168201915b505050505081565b80600160003373ffffffffffffffffffffffffffffffffffffffff1673ffffffffffffffffffffffffffffffffffffffff16815260200190815260200160002060008282546107cc9190610be8565b92505081905550806000808282546107e49190610be8565b925050819055503373ffffffffffffffffffffffffffffffffffffffff16600073ffffffffffffffffffffffffffffffffffffffff167fddf252ad1be2c89b69c2b068fc378daa952ba7f163c4a11628f55a4df523b3ef836040516108499190610bb1565b60405180910390a350565b80600160003373ffffffffffffffffffffffffffffffffffffffff1673ffffffffffffffffffffffffffffffffffffffff16815260200190815260200160002060008282546108a39190610c3e565b9250508190555080600160008473ffffffffffffffffffffffffffffffffffffffff1673ffffffffffffffffffffffffffffffffffffffff16815260200190815260200160002060008282546108f99190610be8565b925050819055508173ffffffffffffffffffffffffffffffffffffffff163373ffffffffffffffffffffffffffffffffffffffff167fddf252ad1be2c89b69c2b068fc378daa952ba7f163c4a11628f55a4df523b3ef8360405161095d9190610bb1565b60405180910390a35050565b6000600260008473ffffffffffffffffffffffffffffffffffffffff1673ffffffffffffffffffffffffffffffffffffffff16815260200190815260200160002060008373ffffffffffffffffffffffffffffffffffffffff1673ffffffffffffffffffffffffffffffffffffffff16815260200190815260200160002054905092915050565b6000813590506109ff81610d87565b92915050565b600081359050610a1481610d9e565b92915050565b600060208284031215610a3057610a2f610d71565b5b6000610a3e848285016109f0565b91505092915050565b60008060408385031215610a5e57610a5d610d71565b5b6000610a6c858286016109f0565b9250506020610a7d858286016109f0565b9150509250929050565b600080600060608486031215610aa057610a9f610d71565b5b6000610aae868287016109f0565b9350506020610abf868287016109f0565b9250506040610ad086828701610a05565b9150509250925092565b60008060408385031215610af157610af0610d71565b5b6000610aff858286016109f0565b9250506020610b1085828601610a05565b9150509250929050565b600060208284031215610b3057610b2f610d71565b5b6000610b3e84828501610a05565b91505092915050565b6000610b5282610bcc565b610b5c8185610bd7565b9350610b6c818560208601610cae565b610b7581610d76565b840191505092915050565b610b8981610ca4565b82525050565b60006020820190508181036000830152610ba98184610b47565b905092915050565b6000602082019050610bc66000830184610b80565b92915050565b600081519050919050565b600082825260208201905092915050565b6000610bf382610ca4565b9150610bfe83610ca4565b9250827fffffffffffffffffffffffffffffffffffffffffffffffffffffffffffffffff03821115610c3357610c32610d13565b5b828201905092915050565b6000610c4982610ca4565b9150610c5483610ca4565b925082821015610c6757610c66610d13565b5b828203905092915050565b6000610c7d82610c84565b9050919050565b600073ffffffffffffffffffffffffffffffffffffffff82169050919050565b6000819050919050565b60005b83811015610ccc578082015181840152602081019050610cb1565b83811115610cdb576000848401525b50505050565b60006002820490506001821680610cf957607f821691505b60208210811415610d0d57610d0c610d42565b5b50919050565b7f4e487b7100000000000000000000000000000000000000000000000000000000600052601160045260246000fd5b7f4e487b7100000000000000000000000000000000000000000000000000000000600052602260045260246000fd5b600080fd5b6000601f19601f8301169050919050565b610d9081610c72565b8114610d9b57600080fd5b50565b610da781610ca4565b8114610db257600080fd5b5056fea264697066735822122045cb044d5f15778c70475893fde31faa5f096fd127d3189d0890cc3dba274d5c64736f6c63430008070033",
					"opcodes": "PUSH1 0x80 PUSH1 0x40 MSTORE PUSH1 0x40 MLOAD DUP1 PUSH1 0x40 ADD PUSH1 0x40 MSTORE DUP1 PUSH1 0x8 DUP2 MSTORE PUSH1 0x20 ADD PUSH32 0x54696E546F6B656E000000000000000000000000000000000000000000000000 DUP2 MSTORE POP PUSH1 0x3 SWAP1 DUP1 MLOAD SWAP1 PUSH1 0x20 ADD SWAP1 PUSH3 0x51 SWAP3 SWAP2 SWAP1 PUSH3 0x1C8 JUMP JUMPDEST POP PUSH1 0x40 MLOAD DUP1 PUSH1 0x40 ADD PUSH1 0x40 MSTORE DUP1 PUSH1 0x3 DUP2 MSTORE PUSH1 0x20 ADD PUSH32 0x54544E0000000000000000000000000000000000000000000000000000000000 DUP2 MSTORE POP PUSH1 0x4 SWAP1 DUP1 MLOAD SWAP1 PUSH1 0x20 ADD SWAP1 PUSH3 0x9F SWAP3 SWAP2 SWAP1 PUSH3 0x1C8 JUMP JUMPDEST POP CALLVALUE DUP1 ISZERO PUSH3 0xAD JUMPI PUSH1 0x0 DUP1 REVERT JUMPDEST POP PUSH1 0x40 MLOAD PUSH3 0x1204 CODESIZE SUB DUP1 PUSH3 0x1204 DUP4 CODECOPY DUP2 DUP2 ADD PUSH1 0x40 MSTORE DUP2 ADD SWAP1 PUSH3 0xD3 SWAP2 SWAP1 PUSH3 0x28F JUMP JUMPDEST PUSH3 0xE4 DUP2 PUSH3 0xEB PUSH1 0x20 SHL PUSH1 0x20 SHR JUMP JUMPDEST POP PUSH3 0x409 JUMP JUMPDEST DUP1 PUSH1 0x1 PUSH1 0x0 CALLER PUSH20 0xFFFFFFFFFFFFFFFFFFFFFFFFFFFFFFFFFFFFFFFF AND PUSH20 0xFFFFFFFFFFFFFFFFFFFFFFFFFFFFFFFFFFFFFFFF AND DUP2 MSTORE PUSH1 0x20 ADD SWAP1 DUP2 MSTORE PUSH1 0x20 ADD PUSH1 0x0 KECCAK256 PUSH1 0x0 DUP3 DUP3 SLOAD PUSH3 0x13C SWAP2 SWAP1 PUSH3 0x2EF JUMP JUMPDEST SWAP3 POP POP DUP2 SWAP1 SSTORE POP DUP1 PUSH1 0x0 DUP1 DUP3 DUP3 SLOAD PUSH3 0x156 SWAP2 SWAP1 PUSH3 0x2EF JUMP JUMPDEST SWAP3 POP POP DUP2 SWAP1 SSTORE POP CALLER PUSH20 0xFFFFFFFFFFFFFFFFFFFFFFFFFFFFFFFFFFFFFFFF AND PUSH1 0x0 PUSH20 0xFFFFFFFFFFFFFFFFFFFFFFFFFFFFFFFFFFFFFFFF AND PUSH32 0xDDF252AD1BE2C89B69C2B068FC378DAA952BA7F163C4A11628F55A4DF523B3EF DUP4 PUSH1 0x40 MLOAD PUSH3 0x1BD SWAP2 SWAP1 PUSH3 0x2D2 JUMP JUMPDEST PUSH1 0x40 MLOAD DUP1 SWAP2 SUB SWAP1 LOG3 POP JUMP JUMPDEST DUP3 DUP1 SLOAD PUSH3 0x1D6 SWAP1 PUSH3 0x356 JUMP JUMPDEST SWAP1 PUSH1 0x0 MSTORE PUSH1 0x20 PUSH1 0x0 KECCAK256 SWAP1 PUSH1 0x1F ADD PUSH1 0x20 SWAP1 DIV DUP2 ADD SWAP3 DUP3 PUSH3 0x1FA JUMPI PUSH1 0x0 DUP6 SSTORE PUSH3 0x246 JUMP JUMPDEST DUP3 PUSH1 0x1F LT PUSH3 0x215 JUMPI DUP1 MLOAD PUSH1 0xFF NOT AND DUP4 DUP1 ADD OR DUP6 SSTORE PUSH3 0x246 JUMP JUMPDEST DUP3 DUP1 ADD PUSH1 0x1 ADD DUP6 SSTORE DUP3 ISZERO PUSH3 0x246 JUMPI SWAP2 DUP3 ADD JUMPDEST DUP3 DUP2 GT ISZERO PUSH3 0x245 JUMPI DUP3 MLOAD DUP3 SSTORE SWAP2 PUSH1 0x20 ADD SWAP2 SWAP1 PUSH1 0x1 ADD SWAP1 PUSH3 0x228 JUMP JUMPDEST JUMPDEST POP SWAP1 POP PUSH3 0x255 SWAP2 SWAP1 PUSH3 0x259 JUMP JUMPDEST POP SWAP1 JUMP JUMPDEST JUMPDEST DUP1 DUP3 GT ISZERO PUSH3 0x274 JUMPI PUSH1 0x0 DUP2 PUSH1 0x0 SWAP1 SSTORE POP PUSH1 0x1 ADD PUSH3 0x25A JUMP JUMPDEST POP SWAP1 JUMP JUMPDEST PUSH1 0x0 DUP2 MLOAD SWAP1 POP PUSH3 0x289 DUP2 PUSH3 0x3EF JUMP JUMPDEST SWAP3 SWAP2 POP POP JUMP JUMPDEST PUSH1 0x0 PUSH1 0x20 DUP3 DUP5 SUB SLT ISZERO PUSH3 0x2A8 JUMPI PUSH3 0x2A7 PUSH3 0x3EA JUMP JUMPDEST JUMPDEST PUSH1 0x0 PUSH3 0x2B8 DUP5 DUP3 DUP6 ADD PUSH3 0x278 JUMP JUMPDEST SWAP2 POP POP SWAP3 SWAP2 POP POP JUMP JUMPDEST PUSH3 0x2CC DUP2 PUSH3 0x34C JUMP JUMPDEST DUP3 MSTORE POP POP JUMP JUMPDEST PUSH1 0x0 PUSH1 0x20 DUP3 ADD SWAP1 POP PUSH3 0x2E9 PUSH1 0x0 DUP4 ADD DUP5 PUSH3 0x2C1 JUMP JUMPDEST SWAP3 SWAP2 POP POP JUMP JUMPDEST PUSH1 0x0 PUSH3 0x2FC DUP3 PUSH3 0x34C JUMP JUMPDEST SWAP2 POP PUSH3 0x309 DUP4 PUSH3 0x34C JUMP JUMPDEST SWAP3 POP DUP3 PUSH32 0xFFFFFFFFFFFFFFFFFFFFFFFFFFFFFFFFFFFFFFFFFFFFFFFFFFFFFFFFFFFFFFFF SUB DUP3 GT ISZERO PUSH3 0x341 JUMPI PUSH3 0x340 PUSH3 0x38C JUMP JUMPDEST JUMPDEST DUP3 DUP3 ADD SWAP1 POP SWAP3 SWAP2 POP POP JUMP JUMPDEST PUSH1 0x0 DUP2 SWAP1 POP SWAP2 SWAP1 POP JUMP JUMPDEST PUSH1 0x0 PUSH1 0x2 DUP3 DIV SWAP1 POP PUSH1 0x1 DUP3 AND DUP1 PUSH3 0x36F JUMPI PUSH1 0x7F DUP3 AND SWAP2 POP JUMPDEST PUSH1 0x20 DUP3 LT DUP2 EQ ISZERO PUSH3 0x386 JUMPI PUSH3 0x385 PUSH3 0x3BB JUMP JUMPDEST JUMPDEST POP SWAP2 SWAP1 POP JUMP JUMPDEST PUSH32 0x4E487B7100000000000000000000000000000000000000000000000000000000 PUSH1 0x0 MSTORE PUSH1 0x11 PUSH1 0x4 MSTORE PUSH1 0x24 PUSH1 0x0 REVERT JUMPDEST PUSH32 0x4E487B7100000000000000000000000000000000000000000000000000000000 PUSH1 0x0 MSTORE PUSH1 0x22 PUSH1 0x4 MSTORE PUSH1 0x24 PUSH1 0x0 REVERT JUMPDEST PUSH1 0x0 DUP1 REVERT JUMPDEST PUSH3 0x3FA DUP2 PUSH3 0x34C JUMP JUMPDEST DUP2 EQ PUSH3 0x406 JUMPI PUSH1 0x0 DUP1 REVERT JUMPDEST POP JUMP JUMPDEST PUSH2 0xDEB DUP1 PUSH3 0x419 PUSH1 0x0 CODECOPY PUSH1 0x0 RETURN INVALID PUSH1 0x80 PUSH1 0x40 MSTORE PUSH1 0x4 CALLDATASIZE LT PUSH2 0xA0 JUMPI PUSH1 0x0 CALLDATALOAD PUSH1 0xE0 SHR DUP1 PUSH4 0x42966C68 GT PUSH2 0x64 JUMPI DUP1 PUSH4 0x42966C68 EQ PUSH2 0x17C JUMPI DUP1 PUSH4 0x70A08231 EQ PUSH2 0x1A5 JUMPI DUP1 PUSH4 0x95D89B41 EQ PUSH2 0x1E2 JUMPI DUP1 PUSH4 0xA0712D68 EQ PUSH2 0x20D JUMPI DUP1 PUSH4 0xA9059CBB EQ PUSH2 0x236 JUMPI DUP1 PUSH4 0xDD62ED3E EQ PUSH2 0x25F JUMPI PUSH2 0xA7 JUMP JUMPDEST DUP1 PUSH4 0x6FDDE03 EQ PUSH2 0xA9 JUMPI DUP1 PUSH4 0x95EA7B3 EQ PUSH2 0xD4 JUMPI DUP1 PUSH4 0x18160DDD EQ PUSH2 0xFD JUMPI DUP1 PUSH4 0x23B872DD EQ PUSH2 0x128 JUMPI DUP1 PUSH4 0x313CE567 EQ PUSH2 0x151 JUMPI PUSH2 0xA7 JUMP JUMPDEST CALLDATASIZE PUSH2 0xA7 JUMPI STOP JUMPDEST STOP JUMPDEST CALLVALUE DUP1 ISZERO PUSH2 0xB5 JUMPI PUSH1 0x0 DUP1 REVERT JUMPDEST POP PUSH2 0xBE PUSH2 0x29C JUMP JUMPDEST PUSH1 0x40 MLOAD PUSH2 0xCB SWAP2 SWAP1 PUSH2 0xB8F JUMP JUMPDEST PUSH1 0x40 MLOAD DUP1 SWAP2 SUB SWAP1 RETURN JUMPDEST CALLVALUE DUP1 ISZERO PUSH2 0xE0 JUMPI PUSH1 0x0 DUP1 REVERT JUMPDEST POP PUSH2 0xFB PUSH1 0x4 DUP1 CALLDATASIZE SUB DUP2 ADD SWAP1 PUSH2 0xF6 SWAP2 SWAP1 PUSH2 0xADA JUMP JUMPDEST PUSH2 0x32A JUMP JUMPDEST STOP JUMPDEST CALLVALUE DUP1 ISZERO PUSH2 0x109 JUMPI PUSH1 0x0 DUP1 REVERT JUMPDEST POP PUSH2 0x112 PUSH2 0x414 JUMP JUMPDEST PUSH1 0x40 MLOAD PUSH2 0x11F SWAP2 SWAP1 PUSH2 0xBB1 JUMP JUMPDEST PUSH1 0x40 MLOAD DUP1 SWAP2 SUB SWAP1 RETURN JUMPDEST CALLVALUE DUP1 ISZERO PUSH2 0x134 JUMPI PUSH1 0x0 DUP1 REVERT JUMPDEST POP PUSH2 0x14F PUSH1 0x4 DUP1 CALLDATASIZE SUB DUP2 ADD SWAP1 PUSH2 0x14A SWAP2 SWAP1 PUSH2 0xA87 JUMP JUMPDEST PUSH2 0x41D JUMP JUMPDEST STOP JUMPDEST CALLVALUE DUP1 ISZERO PUSH2 0x15D JUMPI PUSH1 0x0 DUP1 REVERT JUMPDEST POP PUSH2 0x166 PUSH2 0x5C6 JUMP JUMPDEST PUSH1 0x40 MLOAD PUSH2 0x173 SWAP2 SWAP1 PUSH2 0xBB1 JUMP JUMPDEST PUSH1 0x40 MLOAD DUP1 SWAP2 SUB SWAP1 RETURN JUMPDEST CALLVALUE DUP1 ISZERO PUSH2 0x188 JUMPI PUSH1 0x0 DUP1 REVERT JUMPDEST POP PUSH2 0x1A3 PUSH1 0x4 DUP1 CALLDATASIZE SUB DUP2 ADD SWAP1 PUSH2 0x19E SWAP2 SWAP1 PUSH2 0xB1A JUMP JUMPDEST PUSH2 0x5CF JUMP JUMPDEST STOP JUMPDEST CALLVALUE DUP1 ISZERO PUSH2 0x1B1 JUMPI PUSH1 0x0 DUP1 REVERT JUMPDEST POP PUSH2 0x1CC PUSH1 0x4 DUP1 CALLDATASIZE SUB DUP2 ADD SWAP1 PUSH2 0x1C7 SWAP2 SWAP1 PUSH2 0xA1A JUMP JUMPDEST PUSH2 0x6A6 JUMP JUMPDEST PUSH1 0x40 MLOAD PUSH2 0x1D9 SWAP2 SWAP1 PUSH2 0xBB1 JUMP JUMPDEST PUSH1 0x40 MLOAD DUP1 SWAP2 SUB SWAP1 RETURN JUMPDEST CALLVALUE DUP1 ISZERO PUSH2 0x1EE JUMPI PUSH1 0x0 DUP1 REVERT JUMPDEST POP PUSH2 0x1F7 PUSH2 0x6EF JUMP JUMPDEST PUSH1 0x40 MLOAD PUSH2 0x204 SWAP2 SWAP1 PUSH2 0xB8F JUMP JUMPDEST PUSH1 0x40 MLOAD DUP1 SWAP2 SUB SWAP1 RETURN JUMPDEST CALLVALUE DUP1 ISZERO PUSH2 0x219 JUMPI PUSH1 0x0 DUP1 REVERT JUMPDEST POP PUSH2 0x234 PUSH1 0x4 DUP1 CALLDATASIZE SUB DUP2 ADD SWAP1 PUSH2 0x22F SWAP2 SWAP1 PUSH2 0xB1A JUMP JUMPDEST PUSH2 0x77D JUMP JUMPDEST STOP JUMPDEST CALLVALUE DUP1 ISZERO PUSH2 0x242 JUMPI PUSH1 0x0 DUP1 REVERT JUMPDEST POP PUSH2 0x25D PUSH1 0x4 DUP1 CALLDATASIZE SUB DUP2 ADD SWAP1 PUSH2 0x258 SWAP2 SWAP1 PUSH2 0xADA JUMP JUMPDEST PUSH2 0x854 JUMP JUMPDEST STOP JUMPDEST CALLVALUE DUP1 ISZERO PUSH2 0x26B JUMPI PUSH1 0x0 DUP1 REVERT JUMPDEST POP PUSH2 0x286 PUSH1 0x4 DUP1 CALLDATASIZE SUB DUP2 ADD SWAP1 PUSH2 0x281 SWAP2 SWAP1 PUSH2 0xA47 JUMP JUMPDEST PUSH2 0x969 JUMP JUMPDEST PUSH1 0x40 MLOAD PUSH2 0x293 SWAP2 SWAP1 PUSH2 0xBB1 JUMP JUMPDEST PUSH1 0x40 MLOAD DUP1 SWAP2 SUB SWAP1 RETURN JUMPDEST PUSH1 0x3 DUP1 SLOAD PUSH2 0x2A9 SWAP1 PUSH2 0xCE1 JUMP JUMPDEST DUP1 PUSH1 0x1F ADD PUSH1 0x20 DUP1 SWAP2 DIV MUL PUSH1 0x20 ADD PUSH1 0x40 MLOAD SWAP1 DUP2 ADD PUSH1 0x40 MSTORE DUP1 SWAP3 SWAP2 SWAP1 DUP2 DUP2 MSTORE PUSH1 0x20 ADD DUP3 DUP1 SLOAD PUSH2 0x2D5 SWAP1 PUSH2 0xCE1 JUMP JUMPDEST DUP1 ISZERO PUSH2 0x322 JUMPI DUP1 PUSH1 0x1F LT PUSH2 0x2F7 JUMPI PUSH2 0x100 DUP1 DUP4 SLOAD DIV MUL DUP4 MSTORE SWAP2 PUSH1 0x20 ADD SWAP2 PUSH2 0x322 JUMP JUMPDEST DUP3 ADD SWAP2 SWAP1 PUSH1 0x0 MSTORE PUSH1 0x20 PUSH1 0x0 KECCAK256 SWAP1 JUMPDEST DUP2 SLOAD DUP2 MSTORE SWAP1 PUSH1 0x1 ADD SWAP1 PUSH1 0x20 ADD DUP1 DUP4 GT PUSH2 0x305 JUMPI DUP3 SWAP1 SUB PUSH1 0x1F AND DUP3 ADD SWAP2 JUMPDEST POP POP POP POP POP DUP2 JUMP JUMPDEST DUP1 PUSH1 0x2 PUSH1 0x0 CALLER PUSH20 0xFFFFFFFFFFFFFFFFFFFFFFFFFFFFFFFFFFFFFFFF AND PUSH20 0xFFFFFFFFFFFFFFFFFFFFFFFFFFFFFFFFFFFFFFFF AND DUP2 MSTORE PUSH1 0x20 ADD SWAP1 DUP2 MSTORE PUSH1 0x20 ADD PUSH1 0x0 KECCAK256 PUSH1 0x0 DUP5 PUSH20 0xFFFFFFFFFFFFFFFFFFFFFFFFFFFFFFFFFFFFFFFF AND PUSH20 0xFFFFFFFFFFFFFFFFFFFFFFFFFFFFFFFFFFFFFFFF AND DUP2 MSTORE PUSH1 0x20 ADD SWAP1 DUP2 MSTORE PUSH1 0x20 ADD PUSH1 0x0 KECCAK256 DUP2 SWAP1 SSTORE POP DUP2 PUSH20 0xFFFFFFFFFFFFFFFFFFFFFFFFFFFFFFFFFFFFFFFF AND CALLER PUSH20 0xFFFFFFFFFFFFFFFFFFFFFFFFFFFFFFFFFFFFFFFF AND PUSH32 0x8C5BE1E5EBEC7D5BD14F71427D1E84F3DD0314C0F7B2291E5B200AC8C7C3B925 DUP4 PUSH1 0x40 MLOAD PUSH2 0x408 SWAP2 SWAP1 PUSH2 0xBB1 JUMP JUMPDEST PUSH1 0x40 MLOAD DUP1 SWAP2 SUB SWAP1 LOG3 POP POP JUMP JUMPDEST PUSH1 0x0 DUP1 SLOAD SWAP1 POP SWAP1 JUMP JUMPDEST DUP1 PUSH1 0x2 PUSH1 0x0 DUP6 PUSH20 0xFFFFFFFFFFFFFFFFFFFFFFFFFFFFFFFFFFFFFFFF AND PUSH20 0xFFFFFFFFFFFFFFFFFFFFFFFFFFFFFFFFFFFFFFFF AND DUP2 MSTORE PUSH1 0x20 ADD SWAP1 DUP2 MSTORE PUSH1 0x20 ADD PUSH1 0x0 KECCAK256 PUSH1 0x0 DUP5 PUSH20 0xFFFFFFFFFFFFFFFFFFFFFFFFFFFFFFFFFFFFFFFF AND PUSH20 0xFFFFFFFFFFFFFFFFFFFFFFFFFFFFFFFFFFFFFFFF AND DUP2 MSTORE PUSH1 0x20 ADD SWAP1 DUP2 MSTORE PUSH1 0x20 ADD PUSH1 0x0 KECCAK256 PUSH1 0x0 DUP3 DUP3 SLOAD PUSH2 0x4A9 SWAP2 SWAP1 PUSH2 0xC3E JUMP JUMPDEST SWAP3 POP POP DUP2 SWAP1 SSTORE POP DUP1 PUSH1 0x1 PUSH1 0x0 DUP6 PUSH20 0xFFFFFFFFFFFFFFFFFFFFFFFFFFFFFFFFFFFFFFFF AND PUSH20 0xFFFFFFFFFFFFFFFFFFFFFFFFFFFFFFFFFFFFFFFF AND DUP2 MSTORE PUSH1 0x20 ADD SWAP1 DUP2 MSTORE PUSH1 0x20 ADD PUSH1 0x0 KECCAK256 PUSH1 0x0 DUP3 DUP3 SLOAD PUSH2 0x4FF SWAP2 SWAP1 PUSH2 0xC3E JUMP JUMPDEST SWAP3 POP POP DUP2 SWAP1 SSTORE POP DUP1 PUSH1 0x1 PUSH1 0x0 DUP5 PUSH20 0xFFFFFFFFFFFFFFFFFFFFFFFFFFFFFFFFFFFFFFFF AND PUSH20 0xFFFFFFFFFFFFFFFFFFFFFFFFFFFFFFFFFFFFFFFF AND DUP2 MSTORE PUSH1 0x20 ADD SWAP1 DUP2 MSTORE PUSH1 0x20 ADD PUSH1 0x0 KECCAK256 PUSH1 0x0 DUP3 DUP3 SLOAD PUSH2 0x555 SWAP2 SWAP1 PUSH2 0xBE8 JUMP JUMPDEST SWAP3 POP POP DUP2 SWAP1 SSTORE POP DUP2 PUSH20 0xFFFFFFFFFFFFFFFFFFFFFFFFFFFFFFFFFFFFFFFF AND DUP4 PUSH20 0xFFFFFFFFFFFFFFFFFFFFFFFFFFFFFFFFFFFFFFFF AND PUSH32 0xDDF252AD1BE2C89B69C2B068FC378DAA952BA7F163C4A11628F55A4DF523B3EF DUP4 PUSH1 0x40 MLOAD PUSH2 0x5B9 SWAP2 SWAP1 PUSH2 0xBB1 JUMP JUMPDEST PUSH1 0x40 MLOAD DUP1 SWAP2 SUB SWAP1 LOG3 POP POP POP JUMP JUMPDEST PUSH1 0x0 PUSH1 0x3 SWAP1 POP SWAP1 JUMP JUMPDEST DUP1 PUSH1 0x1 PUSH1 0x0 CALLER PUSH20 0xFFFFFFFFFFFFFFFFFFFFFFFFFFFFFFFFFFFFFFFF AND PUSH20 0xFFFFFFFFFFFFFFFFFFFFFFFFFFFFFFFFFFFFFFFF AND DUP2 MSTORE PUSH1 0x20 ADD SWAP1 DUP2 MSTORE PUSH1 0x20 ADD PUSH1 0x0 KECCAK256 PUSH1 0x0 DUP3 DUP3 SLOAD PUSH2 0x61E SWAP2 SWAP1 PUSH2 0xC3E JUMP JUMPDEST SWAP3 POP POP DUP2 SWAP1 SSTORE POP DUP1 PUSH1 0x0 DUP1 DUP3 DUP3 SLOAD PUSH2 0x636 SWAP2 SWAP1 PUSH2 0xC3E JUMP JUMPDEST SWAP3 POP POP DUP2 SWAP1 SSTORE POP PUSH1 0x0 PUSH20 0xFFFFFFFFFFFFFFFFFFFFFFFFFFFFFFFFFFFFFFFF AND CALLER PUSH20 0xFFFFFFFFFFFFFFFFFFFFFFFFFFFFFFFFFFFFFFFF AND PUSH32 0xDDF252AD1BE2C89B69C2B068FC378DAA952BA7F163C4A11628F55A4DF523B3EF DUP4 PUSH1 0x40 MLOAD PUSH2 0x69B SWAP2 SWAP1 PUSH2 0xBB1 JUMP JUMPDEST PUSH1 0x40 MLOAD DUP1 SWAP2 SUB SWAP1 LOG3 POP JUMP JUMPDEST PUSH1 0x0 PUSH1 0x1 PUSH1 0x0 DUP4 PUSH20 0xFFFFFFFFFFFFFFFFFFFFFFFFFFFFFFFFFFFFFFFF AND PUSH20 0xFFFFFFFFFFFFFFFFFFFFFFFFFFFFFFFFFFFFFFFF AND DUP2 MSTORE PUSH1 0x20 ADD SWAP1 DUP2 MSTORE PUSH1 0x20 ADD PUSH1 0x0 KECCAK256 SLOAD SWAP1 POP SWAP2 SWAP1 POP JUMP JUMPDEST PUSH1 0x4 DUP1 SLOAD PUSH2 0x6FC SWAP1 PUSH2 0xCE1 JUMP JUMPDEST DUP1 PUSH1 0x1F ADD PUSH1 0x20 DUP1 SWAP2 DIV MUL PUSH1 0x20 ADD PUSH1 0x40 MLOAD SWAP1 DUP2 ADD PUSH1 0x40 MSTORE DUP1 SWAP3 SWAP2 SWAP1 DUP2 DUP2 MSTORE PUSH1 0x20 ADD DUP3 DUP1 SLOAD PUSH2 0x728 SWAP1 PUSH2 0xCE1 JUMP JUMPDEST DUP1 ISZERO PUSH2 0x775 JUMPI DUP1 PUSH1 0x1F LT PUSH2 0x74A JUMPI PUSH2 0x100 DUP1 DUP4 SLOAD DIV MUL DUP4 MSTORE SWAP2 PUSH1 0x20 ADD SWAP2 PUSH2 0x775 JUMP JUMPDEST DUP3 ADD SWAP2 SWAP1 PUSH1 0x0 MSTORE PUSH1 0x20 PUSH1 0x0 KECCAK256 SWAP1 JUMPDEST DUP2 SLOAD DUP2 MSTORE SWAP1 PUSH1 0x1 ADD SWAP1 PUSH1 0x20 ADD DUP1 DUP4 GT PUSH2 0x758 JUMPI DUP3 SWAP1 SUB PUSH1 0x1F AND DUP3 ADD SWAP2 JUMPDEST POP POP POP POP POP DUP2 JUMP JUMPDEST DUP1 PUSH1 0x1 PUSH1 0x0 CALLER PUSH20 0xFFFFFFFFFFFFFFFFFFFFFFFFFFFFFFFFFFFFFFFF AND PUSH20 0xFFFFFFFFFFFFFFFFFFFFFFFFFFFFFFFFFFFFFFFF AND DUP2 MSTORE PUSH1 0x20 ADD SWAP1 DUP2 MSTORE PUSH1 0x20 ADD PUSH1 0x0 KECCAK256 PUSH1 0x0 DUP3 DUP3 SLOAD PUSH2 0x7CC SWAP2 SWAP1 PUSH2 0xBE8 JUMP JUMPDEST SWAP3 POP POP DUP2 SWAP1 SSTORE POP DUP1 PUSH1 0x0 DUP1 DUP3 DUP3 SLOAD PUSH2 0x7E4 SWAP2 SWAP1 PUSH2 0xBE8 JUMP JUMPDEST SWAP3 POP POP DUP2 SWAP1 SSTORE POP CALLER PUSH20 0xFFFFFFFFFFFFFFFFFFFFFFFFFFFFFFFFFFFFFFFF AND PUSH1 0x0 PUSH20 0xFFFFFFFFFFFFFFFFFFFFFFFFFFFFFFFFFFFFFFFF AND PUSH32 0xDDF252AD1BE2C89B69C2B068FC378DAA952BA7F163C4A11628F55A4DF523B3EF DUP4 PUSH1 0x40 MLOAD PUSH2 0x849 SWAP2 SWAP1 PUSH2 0xBB1 JUMP JUMPDEST PUSH1 0x40 MLOAD DUP1 SWAP2 SUB SWAP1 LOG3 POP JUMP JUMPDEST DUP1 PUSH1 0x1 PUSH1 0x0 CALLER PUSH20 0xFFFFFFFFFFFFFFFFFFFFFFFFFFFFFFFFFFFFFFFF AND PUSH20 0xFFFFFFFFFFFFFFFFFFFFFFFFFFFFFFFFFFFFFFFF AND DUP2 MSTORE PUSH1 0x20 ADD SWAP1 DUP2 MSTORE PUSH1 0x20 ADD PUSH1 0x0 KECCAK256 PUSH1 0x0 DUP3 DUP3 SLOAD PUSH2 0x8A3 SWAP2 SWAP1 PUSH2 0xC3E JUMP JUMPDEST SWAP3 POP POP DUP2 SWAP1 SSTORE POP DUP1 PUSH1 0x1 PUSH1 0x0 DUP5 PUSH20 0xFFFFFFFFFFFFFFFFFFFFFFFFFFFFFFFFFFFFFFFF AND PUSH20 0xFFFFFFFFFFFFFFFFFFFFFFFFFFFFFFFFFFFFFFFF AND DUP2 MSTORE PUSH1 0x20 ADD SWAP1 DUP2 MSTORE PUSH1 0x20 ADD PUSH1 0x0 KECCAK256 PUSH1 0x0 DUP3 DUP3 SLOAD PUSH2 0x8F9 SWAP2 SWAP1 PUSH2 0xBE8 JUMP JUMPDEST SWAP3 POP POP DUP2 SWAP1 SSTORE POP DUP2 PUSH20 0xFFFFFFFFFFFFFFFFFFFFFFFFFFFFFFFFFFFFFFFF AND CALLER PUSH20 0xFFFFFFFFFFFFFFFFFFFFFFFFFFFFFFFFFFFFFFFF AND PUSH32 0xDDF252AD1BE2C89B69C2B068FC378DAA952BA7F163C4A11628F55A4DF523B3EF DUP4 PUSH1 0x40 MLOAD PUSH2 0x95D SWAP2 SWAP1 PUSH2 0xBB1 JUMP JUMPDEST PUSH1 0x40 MLOAD DUP1 SWAP2 SUB SWAP1 LOG3 POP POP JUMP JUMPDEST PUSH1 0x0 PUSH1 0x2 PUSH1 0x0 DUP5 PUSH20 0xFFFFFFFFFFFFFFFFFFFFFFFFFFFFFFFFFFFFFFFF AND PUSH20 0xFFFFFFFFFFFFFFFFFFFFFFFFFFFFFFFFFFFFFFFF AND DUP2 MSTORE PUSH1 0x20 ADD SWAP1 DUP2 MSTORE PUSH1 0x20 ADD PUSH1 0x0 KECCAK256 PUSH1 0x0 DUP4 PUSH20 0xFFFFFFFFFFFFFFFFFFFFFFFFFFFFFFFFFFFFFFFF AND PUSH20 0xFFFFFFFFFFFFFFFFFFFFFFFFFFFFFFFFFFFFFFFF AND DUP2 MSTORE PUSH1 0x20 ADD SWAP1 DUP2 MSTORE PUSH1 0x20 ADD PUSH1 0x0 KECCAK256 SLOAD SWAP1 POP SWAP3 SWAP2 POP POP JUMP JUMPDEST PUSH1 0x0 DUP2 CALLDATALOAD SWAP1 POP PUSH2 0x9FF DUP2 PUSH2 0xD87 JUMP JUMPDEST SWAP3 SWAP2 POP POP JUMP JUMPDEST PUSH1 0x0 DUP2 CALLDATALOAD SWAP1 POP PUSH2 0xA14 DUP2 PUSH2 0xD9E JUMP JUMPDEST SWAP3 SWAP2 POP POP JUMP JUMPDEST PUSH1 0x0 PUSH1 0x20 DUP3 DUP5 SUB SLT ISZERO PUSH2 0xA30 JUMPI PUSH2 0xA2F PUSH2 0xD71 JUMP JUMPDEST JUMPDEST PUSH1 0x0 PUSH2 0xA3E DUP5 DUP3 DUP6 ADD PUSH2 0x9F0 JUMP JUMPDEST SWAP2 POP POP SWAP3 SWAP2 POP POP JUMP JUMPDEST PUSH1 0x0 DUP1 PUSH1 0x40 DUP4 DUP6 SUB SLT ISZERO PUSH2 0xA5E JUMPI PUSH2 0xA5D PUSH2 0xD71 JUMP JUMPDEST JUMPDEST PUSH1 0x0 PUSH2 0xA6C DUP6 DUP3 DUP7 ADD PUSH2 0x9F0 JUMP JUMPDEST SWAP3 POP POP PUSH1 0x20 PUSH2 0xA7D DUP6 DUP3 DUP7 ADD PUSH2 0x9F0 JUMP JUMPDEST SWAP2 POP POP SWAP3 POP SWAP3 SWAP1 POP JUMP JUMPDEST PUSH1 0x0 DUP1 PUSH1 0x0 PUSH1 0x60 DUP5 DUP7 SUB SLT ISZERO PUSH2 0xAA0 JUMPI PUSH2 0xA9F PUSH2 0xD71 JUMP JUMPDEST JUMPDEST PUSH1 0x0 PUSH2 0xAAE DUP7 DUP3 DUP8 ADD PUSH2 0x9F0 JUMP JUMPDEST SWAP4 POP POP PUSH1 0x20 PUSH2 0xABF DUP7 DUP3 DUP8 ADD PUSH2 0x9F0 JUMP JUMPDEST SWAP3 POP POP PUSH1 0x40 PUSH2 0xAD0 DUP7 DUP3 DUP8 ADD PUSH2 0xA05 JUMP JUMPDEST SWAP2 POP POP SWAP3 POP SWAP3 POP SWAP3 JUMP JUMPDEST PUSH1 0x0 DUP1 PUSH1 0x40 DUP4 DUP6 SUB SLT ISZERO PUSH2 0xAF1 JUMPI PUSH2 0xAF0 PUSH2 0xD71 JUMP JUMPDEST JUMPDEST PUSH1 0x0 PUSH2 0xAFF DUP6 DUP3 DUP7 ADD PUSH2 0x9F0 JUMP JUMPDEST SWAP3 POP POP PUSH1 0x20 PUSH2 0xB10 DUP6 DUP3 DUP7 ADD PUSH2 0xA05 JUMP JUMPDEST SWAP2 POP POP SWAP3 POP SWAP3 SWAP1 POP JUMP JUMPDEST PUSH1 0x0 PUSH1 0x20 DUP3 DUP5 SUB SLT ISZERO PUSH2 0xB30 JUMPI PUSH2 0xB2F PUSH2 0xD71 JUMP JUMPDEST JUMPDEST PUSH1 0x0 PUSH2 0xB3E DUP5 DUP3 DUP6 ADD PUSH2 0xA05 JUMP JUMPDEST SWAP2 POP POP SWAP3 SWAP2 POP POP JUMP JUMPDEST PUSH1 0x0 PUSH2 0xB52 DUP3 PUSH2 0xBCC JUMP JUMPDEST PUSH2 0xB5C DUP2 DUP6 PUSH2 0xBD7 JUMP JUMPDEST SWAP4 POP PUSH2 0xB6C DUP2 DUP6 PUSH1 0x20 DUP7 ADD PUSH2 0xCAE JUMP JUMPDEST PUSH2 0xB75 DUP2 PUSH2 0xD76 JUMP JUMPDEST DUP5 ADD SWAP2 POP POP SWAP3 SWAP2 POP POP JUMP JUMPDEST PUSH2 0xB89 DUP2 PUSH2 0xCA4 JUMP JUMPDEST DUP3 MSTORE POP POP JUMP JUMPDEST PUSH1 0x0 PUSH1 0x20 DUP3 ADD SWAP1 POP DUP2 DUP2 SUB PUSH1 0x0 DUP4 ADD MSTORE PUSH2 0xBA9 DUP2 DUP5 PUSH2 0xB47 JUMP JUMPDEST SWAP1 POP SWAP3 SWAP2 POP POP JUMP JUMPDEST PUSH1 0x0 PUSH1 0x20 DUP3 ADD SWAP1 POP PUSH2 0xBC6 PUSH1 0x0 DUP4 ADD DUP5 PUSH2 0xB80 JUMP JUMPDEST SWAP3 SWAP2 POP POP JUMP JUMPDEST PUSH1 0x0 DUP2 MLOAD SWAP1 POP SWAP2 SWAP1 POP JUMP JUMPDEST PUSH1 0x0 DUP3 DUP3 MSTORE PUSH1 0x20 DUP3 ADD SWAP1 POP SWAP3 SWAP2 POP POP JUMP JUMPDEST PUSH1 0x0 PUSH2 0xBF3 DUP3 PUSH2 0xCA4 JUMP JUMPDEST SWAP2 POP PUSH2 0xBFE DUP4 PUSH2 0xCA4 JUMP JUMPDEST SWAP3 POP DUP3 PUSH32 0xFFFFFFFFFFFFFFFFFFFFFFFFFFFFFFFFFFFFFFFFFFFFFFFFFFFFFFFFFFFFFFFF SUB DUP3 GT ISZERO PUSH2 0xC33 JUMPI PUSH2 0xC32 PUSH2 0xD13 JUMP JUMPDEST JUMPDEST DUP3 DUP3 ADD SWAP1 POP SWAP3 SWAP2 POP POP JUMP JUMPDEST PUSH1 0x0 PUSH2 0xC49 DUP3 PUSH2 0xCA4 JUMP JUMPDEST SWAP2 POP PUSH2 0xC54 DUP4 PUSH2 0xCA4 JUMP JUMPDEST SWAP3 POP DUP3 DUP3 LT ISZERO PUSH2 0xC67 JUMPI PUSH2 0xC66 PUSH2 0xD13 JUMP JUMPDEST JUMPDEST DUP3 DUP3 SUB SWAP1 POP SWAP3 SWAP2 POP POP JUMP JUMPDEST PUSH1 0x0 PUSH2 0xC7D DUP3 PUSH2 0xC84 JUMP JUMPDEST SWAP1 POP SWAP2 SWAP1 POP JUMP JUMPDEST PUSH1 0x0 PUSH20 0xFFFFFFFFFFFFFFFFFFFFFFFFFFFFFFFFFFFFFFFF DUP3 AND SWAP1 POP SWAP2 SWAP1 POP JUMP JUMPDEST PUSH1 0x0 DUP2 SWAP1 POP SWAP2 SWAP1 POP JUMP JUMPDEST PUSH1 0x0 JUMPDEST DUP4 DUP2 LT ISZERO PUSH2 0xCCC JUMPI DUP1 DUP3 ADD MLOAD DUP2 DUP5 ADD MSTORE PUSH1 0x20 DUP2 ADD SWAP1 POP PUSH2 0xCB1 JUMP JUMPDEST DUP4 DUP2 GT ISZERO PUSH2 0xCDB JUMPI PUSH1 0x0 DUP5 DUP5 ADD MSTORE JUMPDEST POP POP POP POP JUMP JUMPDEST PUSH1 0x0 PUSH1 0x2 DUP3 DIV SWAP1 POP PUSH1 0x1 DUP3 AND DUP1 PUSH2 0xCF9 JUMPI PUSH1 0x7F DUP3 AND SWAP2 POP JUMPDEST PUSH1 0x20 DUP3 LT DUP2 EQ ISZERO PUSH2 0xD0D JUMPI PUSH2 0xD0C PUSH2 0xD42 JUMP JUMPDEST JUMPDEST POP SWAP2 SWAP1 POP JUMP JUMPDEST PUSH32 0x4E487B7100000000000000000000000000000000000000000000000000000000 PUSH1 0x0 MSTORE PUSH1 0x11 PUSH1 0x4 MSTORE PUSH1 0x24 PUSH1 0x0 REVERT JUMPDEST PUSH32 0x4E487B7100000000000000000000000000000000000000000000000000000000 PUSH1 0x0 MSTORE PUSH1 0x22 PUSH1 0x4 MSTORE PUSH1 0x24 PUSH1 0x0 REVERT JUMPDEST PUSH1 0x0 DUP1 REVERT JUMPDEST PUSH1 0x0 PUSH1 0x1F NOT PUSH1 0x1F DUP4 ADD AND SWAP1 POP SWAP2 SWAP1 POP JUMP JUMPDEST PUSH2 0xD90 DUP2 PUSH2 0xC72 JUMP JUMPDEST DUP2 EQ PUSH2 0xD9B JUMPI PUSH1 0x0 DUP1 REVERT JUMPDEST POP JUMP JUMPDEST PUSH2 0xDA7 DUP2 PUSH2 0xCA4 JUMP JUMPDEST DUP2 EQ PUSH2 0xDB2 JUMPI PUSH1 0x0 DUP1 REVERT JUMPDEST POP JUMP INVALID LOG2 PUSH5 0x6970667358 0x22 SLT KECCAK256 GASLIMIT 0xCB DIV 0x4D 0x5F ISZERO PUSH24 0x8C70475893FDE31FAA5F096FD127D3189D0890CC3DBA274D 0x5C PUSH5 0x736F6C6343 STOP ADDMOD SMOD STOP CALLER "
				},
				"gasEstimates": {
					"creation": {
						"codeDepositCost": "712600",
						"executionCost": "infinite",
						"totalCost": "infinite"
					},
					"external": {
						"": "196",
						"allowance(address,address)": "infinite",
						"approve(address,uint256)": "infinite",
						"balanceOf(address)": "2863",
						"burn(uint256)": "infinite",
						"decimals()": "426",
						"mint(uint256)": "infinite",
						"name()": "infinite",
						"symbol()": "infinite",
						"totalSupply()": "2482",
						"transfer(address,uint256)": "infinite",
						"transferFrom(address,address,uint256)": "infinite"
					}
				},
				"methodIdentifiers": {
					"allowance(address,address)": "dd62ed3e",
					"approve(address,uint256)": "095ea7b3",
					"balanceOf(address)": "70a08231",
					"burn(uint256)": "42966c68",
					"decimals()": "313ce567",
					"mint(uint256)": "a0712d68",
					"name()": "06fdde03",
					"symbol()": "95d89b41",
					"totalSupply()": "18160ddd",
					"transfer(address,uint256)": "a9059cbb",
					"transferFrom(address,address,uint256)": "23b872dd"
				}
			},
			"storageLayout": {
				"storage": [
					{
						"astId": 74,
						"contract": "contracts/TinToken.sol:TinToken",
						"label": "totalTokens",
						"offset": 0,
						"slot": "0",
						"type": "t_uint256"
					},
					{
						"astId": 78,
						"contract": "contracts/TinToken.sol:TinToken",
						"label": "balances",
						"offset": 0,
						"slot": "1",
						"type": "t_mapping(t_address,t_uint256)"
					},
					{
						"astId": 84,
						"contract": "contracts/TinToken.sol:TinToken",
						"label": "allowances",
						"offset": 0,
						"slot": "2",
						"type": "t_mapping(t_address,t_mapping(t_address,t_uint256))"
					},
					{
						"astId": 87,
						"contract": "contracts/TinToken.sol:TinToken",
						"label": "name",
						"offset": 0,
						"slot": "3",
						"type": "t_string_storage"
					},
					{
						"astId": 90,
						"contract": "contracts/TinToken.sol:TinToken",
						"label": "symbol",
						"offset": 0,
						"slot": "4",
						"type": "t_string_storage"
					}
				],
				"types": {
					"t_address": {
						"encoding": "inplace",
						"label": "address",
						"numberOfBytes": "20"
					},
					"t_mapping(t_address,t_mapping(t_address,t_uint256))": {
						"encoding": "mapping",
						"key": "t_address",
						"label": "mapping(address => mapping(address => uint256))",
						"numberOfBytes": "32",
						"value": "t_mapping(t_address,t_uint256)"
					},
					"t_mapping(t_address,t_uint256)": {
						"encoding": "mapping",
						"key": "t_address",
						"label": "mapping(address => uint256)",
						"numberOfBytes": "32",
						"value": "t_uint256"
					},
					"t_string_storage": {
						"encoding": "bytes",
						"label": "string",
						"numberOfBytes": "32"
					},
					"t_uint256": {
						"encoding": "inplace",
						"label": "uint256",
						"numberOfBytes": "32"
					}
				}
			},
			"userdoc": {
				"kind": "user",
				"methods": {},
				"version": 1
			}
		}
	}
}