{
	"contracts/MarketPlace.sol": {
		"MarketPlace": {
			"abi": [
				{
					"inputs": [
						{
							"internalType": "contract IERC20",
							"name": "_token",
							"type": "address"
						}
					],
					"stateMutability": "nonpayable",
					"type": "constructor"
				},
				{
					"anonymous": false,
					"inputs": [
						{
							"indexed": true,
							"internalType": "address",
							"name": "buyer",
							"type": "address"
						},
						{
							"indexed": false,
							"internalType": "uint256",
							"name": "amount",
							"type": "uint256"
						}
					],
					"name": "Bought",
					"type": "event"
				},
				{
					"anonymous": false,
					"inputs": [
						{
							"indexed": true,
							"internalType": "address",
							"name": "seller",
							"type": "address"
						},
						{
							"indexed": false,
							"internalType": "uint256",
							"name": "amount",
							"type": "uint256"
						}
					],
					"name": "Sell",
					"type": "event"
				},
				{
					"inputs": [],
					"name": "buy",
					"outputs": [],
					"stateMutability": "payable",
					"type": "function"
				},
				{
					"inputs": [],
					"name": "marketBalance",
					"outputs": [
						{
							"internalType": "uint256",
							"name": "",
							"type": "uint256"
						}
					],
					"stateMutability": "view",
					"type": "function"
				},
				{
					"inputs": [],
					"name": "thisAddr",
					"outputs": [
						{
							"internalType": "address",
							"name": "",
							"type": "address"
						}
					],
					"stateMutability": "view",
					"type": "function"
				},
				{
					"inputs": [],
					"name": "token",
					"outputs": [
						{
							"internalType": "contract IERC20",
							"name": "",
							"type": "address"
						}
					],
					"stateMutability": "view",
					"type": "function"
				}
			],
			"devdoc": {
				"kind": "dev",
				"methods": {},
				"version": 1
			},
			"evm": {
				"assembly": "    /* \"contracts/MarketPlace.sol\":84:1060  contract MarketPlace {... */\n  mstore(0x40, 0x80)\n    /* \"contracts/MarketPlace.sol\":189:193  this */\n  address\n    /* \"contracts/MarketPlace.sol\":155:194  address public thisAddr = address(this) */\n  0x02\n  exp(0x0100, 0x00)\n  dup2\n  sload\n  dup2\n  0xffffffffffffffffffffffffffffffffffffffff\n  mul\n  not\n  and\n  swap1\n  dup4\n  0xffffffffffffffffffffffffffffffffffffffff\n  and\n  mul\n  or\n  swap1\n  sstore\n  pop\n    /* \"contracts/MarketPlace.sol\":309:395  constructor(IERC20 _token) {... */\n  callvalue\n  dup1\n  iszero\n  tag_1\n  jumpi\n  0x00\n  dup1\n  revert\ntag_1:\n  pop\n  mload(0x40)\n  sub(codesize, bytecodeSize)\n  dup1\n  bytecodeSize\n  dup4\n  codecopy\n  dup2\n  dup2\n  add\n  0x40\n  mstore\n  dup2\n  add\n  swap1\n  tag_2\n  swap2\n  swap1\n  tag_3\n  jump\t// in\ntag_2:\n    /* \"contracts/MarketPlace.sol\":354:360  _token */\n  dup1\n    /* \"contracts/MarketPlace.sol\":346:351  token */\n  0x00\n  dup1\n    /* \"contracts/MarketPlace.sol\":346:360  token = _token */\n  0x0100\n  exp\n  dup2\n  sload\n  dup2\n  0xffffffffffffffffffffffffffffffffffffffff\n  mul\n  not\n  and\n  swap1\n  dup4\n  0xffffffffffffffffffffffffffffffffffffffff\n  and\n  mul\n  or\n  swap1\n  sstore\n  pop\n    /* \"contracts/MarketPlace.sol\":378:388  msg.sender */\n  caller\n    /* \"contracts/MarketPlace.sol\":370:375  owner */\n  0x01\n  0x00\n    /* \"contracts/MarketPlace.sol\":370:388  owner = msg.sender */\n  0x0100\n  exp\n  dup2\n  sload\n  dup2\n  0xffffffffffffffffffffffffffffffffffffffff\n  mul\n  not\n  and\n  swap1\n  dup4\n  0xffffffffffffffffffffffffffffffffffffffff\n  and\n  mul\n  or\n  swap1\n  sstore\n  pop\n    /* \"contracts/MarketPlace.sol\":309:395  constructor(IERC20 _token) {... */\n  pop\n    /* \"contracts/MarketPlace.sol\":84:1060  contract MarketPlace {... */\n  jump(tag_6)\n    /* \"#utility.yul\":7:176   */\ntag_8:\n    /* \"#utility.yul\":77:82   */\n  0x00\n    /* \"#utility.yul\":108:114   */\n  dup2\n    /* \"#utility.yul\":102:115   */\n  mload\n    /* \"#utility.yul\":93:115   */\n  swap1\n  pop\n    /* \"#utility.yul\":124:170   */\n  tag_10\n    /* \"#utility.yul\":164:169   */\n  dup2\n    /* \"#utility.yul\":124:170   */\n  tag_11\n  jump\t// in\ntag_10:\n    /* \"#utility.yul\":7:176   */\n  swap3\n  swap2\n  pop\n  pop\n  jump\t// out\n    /* \"#utility.yul\":182:559   */\ntag_3:\n    /* \"#utility.yul\":265:271   */\n  0x00\n    /* \"#utility.yul\":314:316   */\n  0x20\n    /* \"#utility.yul\":302:311   */\n  dup3\n    /* \"#utility.yul\":293:300   */\n  dup5\n    /* \"#utility.yul\":289:312   */\n  sub\n    /* \"#utility.yul\":285:317   */\n  slt\n    /* \"#utility.yul\":282:401   */\n  iszero\n  tag_13\n  jumpi\n    /* \"#utility.yul\":320:399   */\n  tag_14\n  tag_15\n  jump\t// in\ntag_14:\n    /* \"#utility.yul\":282:401   */\ntag_13:\n    /* \"#utility.yul\":440:441   */\n  0x00\n    /* \"#utility.yul\":465:542   */\n  tag_16\n    /* \"#utility.yul\":534:541   */\n  dup5\n    /* \"#utility.yul\":525:531   */\n  dup3\n    /* \"#utility.yul\":514:523   */\n  dup6\n    /* \"#utility.yul\":510:532   */\n  add\n    /* \"#utility.yul\":465:542   */\n  tag_8\n  jump\t// in\ntag_16:\n    /* \"#utility.yul\":455:542   */\n  swap2\n  pop\n    /* \"#utility.yul\":411:552   */\n  pop\n    /* \"#utility.yul\":182:559   */\n  swap3\n  swap2\n  pop\n  pop\n  jump\t// out\n    /* \"#utility.yul\":646:742   */\ntag_19:\n    /* \"#utility.yul\":683:690   */\n  0x00\n    /* \"#utility.yul\":712:736   */\n  tag_21\n    /* \"#utility.yul\":730:735   */\n  dup3\n    /* \"#utility.yul\":712:736   */\n  tag_22\n  jump\t// in\ntag_21:\n    /* \"#utility.yul\":701:736   */\n  swap1\n  pop\n    /* \"#utility.yul\":646:742   */\n  swap2\n  swap1\n  pop\n  jump\t// out\n    /* \"#utility.yul\":748:857   */\ntag_23:\n    /* \"#utility.yul\":798:805   */\n  0x00\n    /* \"#utility.yul\":827:851   */\n  tag_25\n    /* \"#utility.yul\":845:850   */\n  dup3\n    /* \"#utility.yul\":827:851   */\n  tag_19\n  jump\t// in\ntag_25:\n    /* \"#utility.yul\":816:851   */\n  swap1\n  pop\n    /* \"#utility.yul\":748:857   */\n  swap2\n  swap1\n  pop\n  jump\t// out\n    /* \"#utility.yul\":863:989   */\ntag_22:\n    /* \"#utility.yul\":900:907   */\n  0x00\n    /* \"#utility.yul\":940:982   */\n  0xffffffffffffffffffffffffffffffffffffffff\n    /* \"#utility.yul\":933:938   */\n  dup3\n    /* \"#utility.yul\":929:983   */\n  and\n    /* \"#utility.yul\":918:983   */\n  swap1\n  pop\n    /* \"#utility.yul\":863:989   */\n  swap2\n  swap1\n  pop\n  jump\t// out\n    /* \"#utility.yul\":1118:1235   */\ntag_15:\n    /* \"#utility.yul\":1227:1228   */\n  0x00\n    /* \"#utility.yul\":1224:1225   */\n  dup1\n    /* \"#utility.yul\":1217:1229   */\n  revert\n    /* \"#utility.yul\":1241:1389   */\ntag_11:\n    /* \"#utility.yul\":1327:1364   */\n  tag_31\n    /* \"#utility.yul\":1358:1363   */\n  dup2\n    /* \"#utility.yul\":1327:1364   */\n  tag_23\n  jump\t// in\ntag_31:\n    /* \"#utility.yul\":1320:1325   */\n  dup2\n    /* \"#utility.yul\":1317:1365   */\n  eq\n    /* \"#utility.yul\":1307:1383   */\n  tag_32\n  jumpi\n    /* \"#utility.yul\":1379:1380   */\n  0x00\n    /* \"#utility.yul\":1376:1377   */\n  dup1\n    /* \"#utility.yul\":1369:1381   */\n  revert\n    /* \"#utility.yul\":1307:1383   */\ntag_32:\n    /* \"#utility.yul\":1241:1389   */\n  pop\n  jump\t// out\n    /* \"contracts/MarketPlace.sol\":84:1060  contract MarketPlace {... */\ntag_6:\n  dataSize(sub_0)\n  dup1\n  dataOffset(sub_0)\n  0x00\n  codecopy\n  0x00\n  return\nstop\n\nsub_0: assembly {\n        /* \"contracts/MarketPlace.sol\":84:1060  contract MarketPlace {... */\n      mstore(0x40, 0x80)\n      jumpi(tag_1, lt(calldatasize, 0x04))\n      shr(0xe0, calldataload(0x00))\n      dup1\n      0xa6f2ae3a\n      eq\n      tag_2\n      jumpi\n      dup1\n      0xd9ef58a5\n      eq\n      tag_3\n      jumpi\n      dup1\n      0xfc0c546a\n      eq\n      tag_4\n      jumpi\n      dup1\n      0xfca02c21\n      eq\n      tag_5\n      jumpi\n    tag_1:\n      0x00\n      dup1\n      revert\n        /* \"contracts/MarketPlace.sol\":596:961  function buy() public payable {... */\n    tag_2:\n      tag_6\n      tag_7\n      jump\t// in\n    tag_6:\n      stop\n        /* \"contracts/MarketPlace.sol\":155:194  address public thisAddr = address(this) */\n    tag_3:\n      callvalue\n      dup1\n      iszero\n      tag_8\n      jumpi\n      0x00\n      dup1\n      revert\n    tag_8:\n      pop\n      tag_9\n      tag_10\n      jump\t// in\n    tag_9:\n      mload(0x40)\n      tag_11\n      swap2\n      swap1\n      tag_12\n      jump\t// in\n    tag_11:\n      mload(0x40)\n      dup1\n      swap2\n      sub\n      swap1\n      return\n        /* \"contracts/MarketPlace.sol\":111:130  IERC20 public token */\n    tag_4:\n      callvalue\n      dup1\n      iszero\n      tag_13\n      jumpi\n      0x00\n      dup1\n      revert\n    tag_13:\n      pop\n      tag_14\n      tag_15\n      jump\t// in\n    tag_14:\n      mload(0x40)\n      tag_16\n      swap2\n      swap1\n      tag_17\n      jump\t// in\n    tag_16:\n      mload(0x40)\n      dup1\n      swap2\n      sub\n      swap1\n      return\n        /* \"contracts/MarketPlace.sol\":499:590  function marketBalance() public view returns(uint) {... */\n    tag_5:\n      callvalue\n      dup1\n      iszero\n      tag_18\n      jumpi\n      0x00\n      dup1\n      revert\n    tag_18:\n      pop\n      tag_19\n      tag_20\n      jump\t// in\n    tag_19:\n      mload(0x40)\n      tag_21\n      swap2\n      swap1\n      tag_22\n      jump\t// in\n    tag_21:\n      mload(0x40)\n      dup1\n      swap2\n      sub\n      swap1\n      return\n        /* \"contracts/MarketPlace.sol\":596:961  function buy() public payable {... */\n    tag_7:\n        /* \"contracts/MarketPlace.sol\":657:664  _rate() */\n      tag_24\n        /* \"contracts/MarketPlace.sol\":657:662  _rate */\n      tag_25\n        /* \"contracts/MarketPlace.sol\":657:664  _rate() */\n      jump\t// in\n    tag_24:\n        /* \"contracts/MarketPlace.sol\":644:653  msg.value */\n      callvalue\n        /* \"contracts/MarketPlace.sol\":644:664  msg.value >= _rate() */\n      lt\n      iszero\n        /* \"contracts/MarketPlace.sol\":636:682  require(msg.value >= _rate(), \"Incorrect sum\") */\n      tag_26\n      jumpi\n      mload(0x40)\n      0x08c379a000000000000000000000000000000000000000000000000000000000\n      dup2\n      mstore\n      0x04\n      add\n      tag_27\n      swap1\n      tag_28\n      jump\t// in\n    tag_27:\n      mload(0x40)\n      dup1\n      swap2\n      sub\n      swap1\n      revert\n    tag_26:\n        /* \"contracts/MarketPlace.sol\":692:712  uint tokensAvailable */\n      0x00\n        /* \"contracts/MarketPlace.sol\":715:720  token */\n      dup1\n      0x00\n      swap1\n      sload\n      swap1\n      0x0100\n      exp\n      swap1\n      div\n      0xffffffffffffffffffffffffffffffffffffffff\n      and\n        /* \"contracts/MarketPlace.sol\":715:730  token.balanceOf */\n      0xffffffffffffffffffffffffffffffffffffffff\n      and\n      0x70a08231\n        /* \"contracts/MarketPlace.sol\":731:739  thisAddr */\n      0x02\n      0x00\n      swap1\n      sload\n      swap1\n      0x0100\n      exp\n      swap1\n      div\n      0xffffffffffffffffffffffffffffffffffffffff\n      and\n        /* \"contracts/MarketPlace.sol\":715:740  token.balanceOf(thisAddr) */\n      mload(0x40)\n      dup3\n      0xffffffff\n      and\n      0xe0\n      shl\n      dup2\n      mstore\n      0x04\n      add\n      tag_29\n      swap2\n      swap1\n      tag_12\n      jump\t// in\n    tag_29:\n      0x20\n      mload(0x40)\n      dup1\n      dup4\n      sub\n      dup2\n      dup7\n      dup1\n      extcodesize\n      iszero\n      dup1\n      iszero\n      tag_30\n      jumpi\n      0x00\n      dup1\n      revert\n    tag_30:\n      pop\n      gas\n      staticcall\n      iszero\n      dup1\n      iszero\n      tag_32\n      jumpi\n      returndatasize\n      0x00\n      dup1\n      returndatacopy\n      revert(0x00, returndatasize)\n    tag_32:\n      pop\n      pop\n      pop\n      pop\n      mload(0x40)\n      returndatasize\n      not(0x1f)\n      0x1f\n      dup3\n      add\n      and\n      dup3\n      add\n      dup1\n      0x40\n      mstore\n      pop\n      dup2\n      add\n      swap1\n      tag_33\n      swap2\n      swap1\n      tag_34\n      jump\t// in\n    tag_33:\n        /* \"contracts/MarketPlace.sol\":692:740  uint tokensAvailable = token.balanceOf(thisAddr) */\n      swap1\n      pop\n        /* \"contracts/MarketPlace.sol\":750:766  uint tokensToBuy */\n      0x00\n        /* \"contracts/MarketPlace.sol\":781:788  _rate() */\n      tag_35\n        /* \"contracts/MarketPlace.sol\":781:786  _rate */\n      tag_25\n        /* \"contracts/MarketPlace.sol\":781:788  _rate() */\n      jump\t// in\n    tag_35:\n        /* \"contracts/MarketPlace.sol\":769:778  msg.value */\n      callvalue\n        /* \"contracts/MarketPlace.sol\":769:788  msg.value / _rate() */\n      tag_36\n      swap2\n      swap1\n      tag_37\n      jump\t// in\n    tag_36:\n        /* \"contracts/MarketPlace.sol\":750:788  uint tokensToBuy = msg.value / _rate() */\n      swap1\n      pop\n        /* \"contracts/MarketPlace.sol\":821:836  tokensAvailable */\n      dup2\n        /* \"contracts/MarketPlace.sol\":806:817  tokensToBuy */\n      dup2\n        /* \"contracts/MarketPlace.sol\":806:836  tokensToBuy <= tokensAvailable */\n      gt\n      iszero\n        /* \"contracts/MarketPlace.sol\":798:859  require(tokensToBuy <= tokensAvailable, \"Not enouth tokens!\") */\n      tag_38\n      jumpi\n      mload(0x40)\n      0x08c379a000000000000000000000000000000000000000000000000000000000\n      dup2\n      mstore\n      0x04\n      add\n      tag_39\n      swap1\n      tag_40\n      jump\t// in\n    tag_39:\n      mload(0x40)\n      dup1\n      swap2\n      sub\n      swap1\n      revert\n    tag_38:\n        /* \"contracts/MarketPlace.sol\":869:874  token */\n      0x00\n      dup1\n      sload\n      swap1\n      0x0100\n      exp\n      swap1\n      div\n      0xffffffffffffffffffffffffffffffffffffffff\n      and\n        /* \"contracts/MarketPlace.sol\":869:883  token.transfer */\n      0xffffffffffffffffffffffffffffffffffffffff\n      and\n      0xa9059cbb\n        /* \"contracts/MarketPlace.sol\":884:894  msg.sender */\n      caller\n        /* \"contracts/MarketPlace.sol\":896:907  tokensToBuy */\n      dup4\n        /* \"contracts/MarketPlace.sol\":869:908  token.transfer(msg.sender, tokensToBuy) */\n      mload(0x40)\n      dup4\n      0xffffffff\n      and\n      0xe0\n      shl\n      dup2\n      mstore\n      0x04\n      add\n      tag_41\n      swap3\n      swap2\n      swap1\n      tag_42\n      jump\t// in\n    tag_41:\n      0x00\n      mload(0x40)\n      dup1\n      dup4\n      sub\n      dup2\n      0x00\n      dup8\n      dup1\n      extcodesize\n      iszero\n      dup1\n      iszero\n      tag_43\n      jumpi\n      0x00\n      dup1\n      revert\n    tag_43:\n      pop\n      gas\n      call\n      iszero\n      dup1\n      iszero\n      tag_45\n      jumpi\n      returndatasize\n      0x00\n      dup1\n      returndatacopy\n      revert(0x00, returndatasize)\n    tag_45:\n      pop\n      pop\n      pop\n      pop\n        /* \"contracts/MarketPlace.sol\":930:940  msg.sender */\n      caller\n        /* \"contracts/MarketPlace.sol\":923:954  Bought(msg.sender, tokensToBuy) */\n      0xffffffffffffffffffffffffffffffffffffffff\n      and\n      0xc55650ccda1011e1cdc769b1fbf546ebb8c97800b6072b49e06cd560305b1d67\n        /* \"contracts/MarketPlace.sol\":942:953  tokensToBuy */\n      dup3\n        /* \"contracts/MarketPlace.sol\":923:954  Bought(msg.sender, tokensToBuy) */\n      mload(0x40)\n      tag_46\n      swap2\n      swap1\n      tag_22\n      jump\t// in\n    tag_46:\n      mload(0x40)\n      dup1\n      swap2\n      sub\n      swap1\n      log2\n        /* \"contracts/MarketPlace.sol\":626:961  {... */\n      pop\n      pop\n        /* \"contracts/MarketPlace.sol\":596:961  function buy() public payable {... */\n      jump\t// out\n        /* \"contracts/MarketPlace.sol\":155:194  address public thisAddr = address(this) */\n    tag_10:\n      0x02\n      0x00\n      swap1\n      sload\n      swap1\n      0x0100\n      exp\n      swap1\n      div\n      0xffffffffffffffffffffffffffffffffffffffff\n      and\n      dup2\n      jump\t// out\n        /* \"contracts/MarketPlace.sol\":111:130  IERC20 public token */\n    tag_15:\n      0x00\n      dup1\n      sload\n      swap1\n      0x0100\n      exp\n      swap1\n      div\n      0xffffffffffffffffffffffffffffffffffffffff\n      and\n      dup2\n      jump\t// out\n        /* \"contracts/MarketPlace.sol\":499:590  function marketBalance() public view returns(uint) {... */\n    tag_20:\n        /* \"contracts/MarketPlace.sol\":544:548  uint */\n      0x00\n        /* \"contracts/MarketPlace.sol\":567:575  thisAddr */\n      0x02\n      0x00\n      swap1\n      sload\n      swap1\n      0x0100\n      exp\n      swap1\n      div\n      0xffffffffffffffffffffffffffffffffffffffff\n      and\n        /* \"contracts/MarketPlace.sol\":567:583  thisAddr.balance */\n      0xffffffffffffffffffffffffffffffffffffffff\n      and\n      balance\n        /* \"contracts/MarketPlace.sol\":560:583  return thisAddr.balance */\n      swap1\n      pop\n        /* \"contracts/MarketPlace.sol\":499:590  function marketBalance() public view returns(uint) {... */\n      swap1\n      jump\t// out\n        /* \"contracts/MarketPlace.sol\":967:1058  function _rate() private pure returns(uint) {... */\n    tag_25:\n        /* \"contracts/MarketPlace.sol\":1005:1009  uint */\n      0x00\n        /* \"contracts/MarketPlace.sol\":1028:1039  0.001 ether */\n      0x038d7ea4c68000\n        /* \"contracts/MarketPlace.sol\":1021:1039  return 0.001 ether */\n      swap1\n      pop\n        /* \"contracts/MarketPlace.sol\":967:1058  function _rate() private pure returns(uint) {... */\n      swap1\n      jump\t// out\n        /* \"#utility.yul\":7:150   */\n    tag_50:\n        /* \"#utility.yul\":64:69   */\n      0x00\n        /* \"#utility.yul\":95:101   */\n      dup2\n        /* \"#utility.yul\":89:102   */\n      mload\n        /* \"#utility.yul\":80:102   */\n      swap1\n      pop\n        /* \"#utility.yul\":111:144   */\n      tag_52\n        /* \"#utility.yul\":138:143   */\n      dup2\n        /* \"#utility.yul\":111:144   */\n      tag_53\n      jump\t// in\n    tag_52:\n        /* \"#utility.yul\":7:150   */\n      swap3\n      swap2\n      pop\n      pop\n      jump\t// out\n        /* \"#utility.yul\":156:507   */\n    tag_34:\n        /* \"#utility.yul\":226:232   */\n      0x00\n        /* \"#utility.yul\":275:277   */\n      0x20\n        /* \"#utility.yul\":263:272   */\n      dup3\n        /* \"#utility.yul\":254:261   */\n      dup5\n        /* \"#utility.yul\":250:273   */\n      sub\n        /* \"#utility.yul\":246:278   */\n      slt\n        /* \"#utility.yul\":243:362   */\n      iszero\n      tag_55\n      jumpi\n        /* \"#utility.yul\":281:360   */\n      tag_56\n      tag_57\n      jump\t// in\n    tag_56:\n        /* \"#utility.yul\":243:362   */\n    tag_55:\n        /* \"#utility.yul\":401:402   */\n      0x00\n        /* \"#utility.yul\":426:490   */\n      tag_58\n        /* \"#utility.yul\":482:489   */\n      dup5\n        /* \"#utility.yul\":473:479   */\n      dup3\n        /* \"#utility.yul\":462:471   */\n      dup6\n        /* \"#utility.yul\":458:480   */\n      add\n        /* \"#utility.yul\":426:490   */\n      tag_50\n      jump\t// in\n    tag_58:\n        /* \"#utility.yul\":416:490   */\n      swap2\n      pop\n        /* \"#utility.yul\":372:500   */\n      pop\n        /* \"#utility.yul\":156:507   */\n      swap3\n      swap2\n      pop\n      pop\n      jump\t// out\n        /* \"#utility.yul\":513:631   */\n    tag_59:\n        /* \"#utility.yul\":600:624   */\n      tag_61\n        /* \"#utility.yul\":618:623   */\n      dup2\n        /* \"#utility.yul\":600:624   */\n      tag_62\n      jump\t// in\n    tag_61:\n        /* \"#utility.yul\":595:598   */\n      dup3\n        /* \"#utility.yul\":588:625   */\n      mstore\n        /* \"#utility.yul\":513:631   */\n      pop\n      pop\n      jump\t// out\n        /* \"#utility.yul\":637:794   */\n    tag_63:\n        /* \"#utility.yul\":737:787   */\n      tag_65\n        /* \"#utility.yul\":781:786   */\n      dup2\n        /* \"#utility.yul\":737:787   */\n      tag_66\n      jump\t// in\n    tag_65:\n        /* \"#utility.yul\":732:735   */\n      dup3\n        /* \"#utility.yul\":725:788   */\n      mstore\n        /* \"#utility.yul\":637:794   */\n      pop\n      pop\n      jump\t// out\n        /* \"#utility.yul\":800:1166   */\n    tag_67:\n        /* \"#utility.yul\":942:945   */\n      0x00\n        /* \"#utility.yul\":963:1030   */\n      tag_69\n        /* \"#utility.yul\":1027:1029   */\n      0x0d\n        /* \"#utility.yul\":1022:1025   */\n      dup4\n        /* \"#utility.yul\":963:1030   */\n      tag_70\n      jump\t// in\n    tag_69:\n        /* \"#utility.yul\":956:1030   */\n      swap2\n      pop\n        /* \"#utility.yul\":1039:1132   */\n      tag_71\n        /* \"#utility.yul\":1128:1131   */\n      dup3\n        /* \"#utility.yul\":1039:1132   */\n      tag_72\n      jump\t// in\n    tag_71:\n        /* \"#utility.yul\":1157:1159   */\n      0x20\n        /* \"#utility.yul\":1152:1155   */\n      dup3\n        /* \"#utility.yul\":1148:1160   */\n      add\n        /* \"#utility.yul\":1141:1160   */\n      swap1\n      pop\n        /* \"#utility.yul\":800:1166   */\n      swap2\n      swap1\n      pop\n      jump\t// out\n        /* \"#utility.yul\":1172:1538   */\n    tag_73:\n        /* \"#utility.yul\":1314:1317   */\n      0x00\n        /* \"#utility.yul\":1335:1402   */\n      tag_75\n        /* \"#utility.yul\":1399:1401   */\n      0x12\n        /* \"#utility.yul\":1394:1397   */\n      dup4\n        /* \"#utility.yul\":1335:1402   */\n      tag_70\n      jump\t// in\n    tag_75:\n        /* \"#utility.yul\":1328:1402   */\n      swap2\n      pop\n        /* \"#utility.yul\":1411:1504   */\n      tag_76\n        /* \"#utility.yul\":1500:1503   */\n      dup3\n        /* \"#utility.yul\":1411:1504   */\n      tag_77\n      jump\t// in\n    tag_76:\n        /* \"#utility.yul\":1529:1531   */\n      0x20\n        /* \"#utility.yul\":1524:1527   */\n      dup3\n        /* \"#utility.yul\":1520:1532   */\n      add\n        /* \"#utility.yul\":1513:1532   */\n      swap1\n      pop\n        /* \"#utility.yul\":1172:1538   */\n      swap2\n      swap1\n      pop\n      jump\t// out\n        /* \"#utility.yul\":1544:1662   */\n    tag_78:\n        /* \"#utility.yul\":1631:1655   */\n      tag_80\n        /* \"#utility.yul\":1649:1654   */\n      dup2\n        /* \"#utility.yul\":1631:1655   */\n      tag_81\n      jump\t// in\n    tag_80:\n        /* \"#utility.yul\":1626:1629   */\n      dup3\n        /* \"#utility.yul\":1619:1656   */\n      mstore\n        /* \"#utility.yul\":1544:1662   */\n      pop\n      pop\n      jump\t// out\n        /* \"#utility.yul\":1668:1890   */\n    tag_12:\n        /* \"#utility.yul\":1761:1765   */\n      0x00\n        /* \"#utility.yul\":1799:1801   */\n      0x20\n        /* \"#utility.yul\":1788:1797   */\n      dup3\n        /* \"#utility.yul\":1784:1802   */\n      add\n        /* \"#utility.yul\":1776:1802   */\n      swap1\n      pop\n        /* \"#utility.yul\":1812:1883   */\n      tag_83\n        /* \"#utility.yul\":1880:1881   */\n      0x00\n        /* \"#utility.yul\":1869:1878   */\n      dup4\n        /* \"#utility.yul\":1865:1882   */\n      add\n        /* \"#utility.yul\":1856:1862   */\n      dup5\n        /* \"#utility.yul\":1812:1883   */\n      tag_59\n      jump\t// in\n    tag_83:\n        /* \"#utility.yul\":1668:1890   */\n      swap3\n      swap2\n      pop\n      pop\n      jump\t// out\n        /* \"#utility.yul\":1896:2228   */\n    tag_42:\n        /* \"#utility.yul\":2017:2021   */\n      0x00\n        /* \"#utility.yul\":2055:2057   */\n      0x40\n        /* \"#utility.yul\":2044:2053   */\n      dup3\n        /* \"#utility.yul\":2040:2058   */\n      add\n        /* \"#utility.yul\":2032:2058   */\n      swap1\n      pop\n        /* \"#utility.yul\":2068:2139   */\n      tag_85\n        /* \"#utility.yul\":2136:2137   */\n      0x00\n        /* \"#utility.yul\":2125:2134   */\n      dup4\n        /* \"#utility.yul\":2121:2138   */\n      add\n        /* \"#utility.yul\":2112:2118   */\n      dup6\n        /* \"#utility.yul\":2068:2139   */\n      tag_59\n      jump\t// in\n    tag_85:\n        /* \"#utility.yul\":2149:2221   */\n      tag_86\n        /* \"#utility.yul\":2217:2219   */\n      0x20\n        /* \"#utility.yul\":2206:2215   */\n      dup4\n        /* \"#utility.yul\":2202:2220   */\n      add\n        /* \"#utility.yul\":2193:2199   */\n      dup5\n        /* \"#utility.yul\":2149:2221   */\n      tag_78\n      jump\t// in\n    tag_86:\n        /* \"#utility.yul\":1896:2228   */\n      swap4\n      swap3\n      pop\n      pop\n      pop\n      jump\t// out\n        /* \"#utility.yul\":2234:2482   */\n    tag_17:\n        /* \"#utility.yul\":2340:2344   */\n      0x00\n        /* \"#utility.yul\":2378:2380   */\n      0x20\n        /* \"#utility.yul\":2367:2376   */\n      dup3\n        /* \"#utility.yul\":2363:2381   */\n      add\n        /* \"#utility.yul\":2355:2381   */\n      swap1\n      pop\n        /* \"#utility.yul\":2391:2475   */\n      tag_88\n        /* \"#utility.yul\":2472:2473   */\n      0x00\n        /* \"#utility.yul\":2461:2470   */\n      dup4\n        /* \"#utility.yul\":2457:2474   */\n      add\n        /* \"#utility.yul\":2448:2454   */\n      dup5\n        /* \"#utility.yul\":2391:2475   */\n      tag_63\n      jump\t// in\n    tag_88:\n        /* \"#utility.yul\":2234:2482   */\n      swap3\n      swap2\n      pop\n      pop\n      jump\t// out\n        /* \"#utility.yul\":2488:2907   */\n    tag_28:\n        /* \"#utility.yul\":2654:2658   */\n      0x00\n        /* \"#utility.yul\":2692:2694   */\n      0x20\n        /* \"#utility.yul\":2681:2690   */\n      dup3\n        /* \"#utility.yul\":2677:2695   */\n      add\n        /* \"#utility.yul\":2669:2695   */\n      swap1\n      pop\n        /* \"#utility.yul\":2741:2750   */\n      dup2\n        /* \"#utility.yul\":2735:2739   */\n      dup2\n        /* \"#utility.yul\":2731:2751   */\n      sub\n        /* \"#utility.yul\":2727:2728   */\n      0x00\n        /* \"#utility.yul\":2716:2725   */\n      dup4\n        /* \"#utility.yul\":2712:2729   */\n      add\n        /* \"#utility.yul\":2705:2752   */\n      mstore\n        /* \"#utility.yul\":2769:2900   */\n      tag_90\n        /* \"#utility.yul\":2895:2899   */\n      dup2\n        /* \"#utility.yul\":2769:2900   */\n      tag_67\n      jump\t// in\n    tag_90:\n        /* \"#utility.yul\":2761:2900   */\n      swap1\n      pop\n        /* \"#utility.yul\":2488:2907   */\n      swap2\n      swap1\n      pop\n      jump\t// out\n        /* \"#utility.yul\":2913:3332   */\n    tag_40:\n        /* \"#utility.yul\":3079:3083   */\n      0x00\n        /* \"#utility.yul\":3117:3119   */\n      0x20\n        /* \"#utility.yul\":3106:3115   */\n      dup3\n        /* \"#utility.yul\":3102:3120   */\n      add\n        /* \"#utility.yul\":3094:3120   */\n      swap1\n      pop\n        /* \"#utility.yul\":3166:3175   */\n      dup2\n        /* \"#utility.yul\":3160:3164   */\n      dup2\n        /* \"#utility.yul\":3156:3176   */\n      sub\n        /* \"#utility.yul\":3152:3153   */\n      0x00\n        /* \"#utility.yul\":3141:3150   */\n      dup4\n        /* \"#utility.yul\":3137:3154   */\n      add\n        /* \"#utility.yul\":3130:3177   */\n      mstore\n        /* \"#utility.yul\":3194:3325   */\n      tag_92\n        /* \"#utility.yul\":3320:3324   */\n      dup2\n        /* \"#utility.yul\":3194:3325   */\n      tag_73\n      jump\t// in\n    tag_92:\n        /* \"#utility.yul\":3186:3325   */\n      swap1\n      pop\n        /* \"#utility.yul\":2913:3332   */\n      swap2\n      swap1\n      pop\n      jump\t// out\n        /* \"#utility.yul\":3338:3560   */\n    tag_22:\n        /* \"#utility.yul\":3431:3435   */\n      0x00\n        /* \"#utility.yul\":3469:3471   */\n      0x20\n        /* \"#utility.yul\":3458:3467   */\n      dup3\n        /* \"#utility.yul\":3454:3472   */\n      add\n        /* \"#utility.yul\":3446:3472   */\n      swap1\n      pop\n        /* \"#utility.yul\":3482:3553   */\n      tag_94\n        /* \"#utility.yul\":3550:3551   */\n      0x00\n        /* \"#utility.yul\":3539:3548   */\n      dup4\n        /* \"#utility.yul\":3535:3552   */\n      add\n        /* \"#utility.yul\":3526:3532   */\n      dup5\n        /* \"#utility.yul\":3482:3553   */\n      tag_78\n      jump\t// in\n    tag_94:\n        /* \"#utility.yul\":3338:3560   */\n      swap3\n      swap2\n      pop\n      pop\n      jump\t// out\n        /* \"#utility.yul\":3647:3816   */\n    tag_70:\n        /* \"#utility.yul\":3731:3742   */\n      0x00\n        /* \"#utility.yul\":3765:3771   */\n      dup3\n        /* \"#utility.yul\":3760:3763   */\n      dup3\n        /* \"#utility.yul\":3753:3772   */\n      mstore\n        /* \"#utility.yul\":3805:3809   */\n      0x20\n        /* \"#utility.yul\":3800:3803   */\n      dup3\n        /* \"#utility.yul\":3796:3810   */\n      add\n        /* \"#utility.yul\":3781:3810   */\n      swap1\n      pop\n        /* \"#utility.yul\":3647:3816   */\n      swap3\n      swap2\n      pop\n      pop\n      jump\t// out\n        /* \"#utility.yul\":3822:4007   */\n    tag_37:\n        /* \"#utility.yul\":3862:3863   */\n      0x00\n        /* \"#utility.yul\":3879:3899   */\n      tag_99\n        /* \"#utility.yul\":3897:3898   */\n      dup3\n        /* \"#utility.yul\":3879:3899   */\n      tag_81\n      jump\t// in\n    tag_99:\n        /* \"#utility.yul\":3874:3899   */\n      swap2\n      pop\n        /* \"#utility.yul\":3913:3933   */\n      tag_100\n        /* \"#utility.yul\":3931:3932   */\n      dup4\n        /* \"#utility.yul\":3913:3933   */\n      tag_81\n      jump\t// in\n    tag_100:\n        /* \"#utility.yul\":3908:3933   */\n      swap3\n      pop\n        /* \"#utility.yul\":3952:3953   */\n      dup3\n        /* \"#utility.yul\":3942:3977   */\n      tag_101\n      jumpi\n        /* \"#utility.yul\":3957:3975   */\n      tag_102\n      tag_103\n      jump\t// in\n    tag_102:\n        /* \"#utility.yul\":3942:3977   */\n    tag_101:\n        /* \"#utility.yul\":3999:4000   */\n      dup3\n        /* \"#utility.yul\":3996:3997   */\n      dup3\n        /* \"#utility.yul\":3992:4001   */\n      div\n        /* \"#utility.yul\":3987:4001   */\n      swap1\n      pop\n        /* \"#utility.yul\":3822:4007   */\n      swap3\n      swap2\n      pop\n      pop\n      jump\t// out\n        /* \"#utility.yul\":4013:4109   */\n    tag_62:\n        /* \"#utility.yul\":4050:4057   */\n      0x00\n        /* \"#utility.yul\":4079:4103   */\n      tag_105\n        /* \"#utility.yul\":4097:4102   */\n      dup3\n        /* \"#utility.yul\":4079:4103   */\n      tag_106\n      jump\t// in\n    tag_105:\n        /* \"#utility.yul\":4068:4103   */\n      swap1\n      pop\n        /* \"#utility.yul\":4013:4109   */\n      swap2\n      swap1\n      pop\n      jump\t// out\n        /* \"#utility.yul\":4115:4241   */\n    tag_106:\n        /* \"#utility.yul\":4152:4159   */\n      0x00\n        /* \"#utility.yul\":4192:4234   */\n      0xffffffffffffffffffffffffffffffffffffffff\n        /* \"#utility.yul\":4185:4190   */\n      dup3\n        /* \"#utility.yul\":4181:4235   */\n      and\n        /* \"#utility.yul\":4170:4235   */\n      swap1\n      pop\n        /* \"#utility.yul\":4115:4241   */\n      swap2\n      swap1\n      pop\n      jump\t// out\n        /* \"#utility.yul\":4247:4324   */\n    tag_81:\n        /* \"#utility.yul\":4284:4291   */\n      0x00\n        /* \"#utility.yul\":4313:4318   */\n      dup2\n        /* \"#utility.yul\":4302:4318   */\n      swap1\n      pop\n        /* \"#utility.yul\":4247:4324   */\n      swap2\n      swap1\n      pop\n      jump\t// out\n        /* \"#utility.yul\":4330:4469   */\n    tag_66:\n        /* \"#utility.yul\":4393:4402   */\n      0x00\n        /* \"#utility.yul\":4426:4463   */\n      tag_110\n        /* \"#utility.yul\":4457:4462   */\n      dup3\n        /* \"#utility.yul\":4426:4463   */\n      tag_111\n      jump\t// in\n    tag_110:\n        /* \"#utility.yul\":4413:4463   */\n      swap1\n      pop\n        /* \"#utility.yul\":4330:4469   */\n      swap2\n      swap1\n      pop\n      jump\t// out\n        /* \"#utility.yul\":4475:4601   */\n    tag_111:\n        /* \"#utility.yul\":4525:4534   */\n      0x00\n        /* \"#utility.yul\":4558:4595   */\n      tag_113\n        /* \"#utility.yul\":4589:4594   */\n      dup3\n        /* \"#utility.yul\":4558:4595   */\n      tag_114\n      jump\t// in\n    tag_113:\n        /* \"#utility.yul\":4545:4595   */\n      swap1\n      pop\n        /* \"#utility.yul\":4475:4601   */\n      swap2\n      swap1\n      pop\n      jump\t// out\n        /* \"#utility.yul\":4607:4720   */\n    tag_114:\n        /* \"#utility.yul\":4657:4666   */\n      0x00\n        /* \"#utility.yul\":4690:4714   */\n      tag_116\n        /* \"#utility.yul\":4708:4713   */\n      dup3\n        /* \"#utility.yul\":4690:4714   */\n      tag_106\n      jump\t// in\n    tag_116:\n        /* \"#utility.yul\":4677:4714   */\n      swap1\n      pop\n        /* \"#utility.yul\":4607:4720   */\n      swap2\n      swap1\n      pop\n      jump\t// out\n        /* \"#utility.yul\":4912:5092   */\n    tag_103:\n        /* \"#utility.yul\":4960:5037   */\n      0x4e487b7100000000000000000000000000000000000000000000000000000000\n        /* \"#utility.yul\":4957:4958   */\n      0x00\n        /* \"#utility.yul\":4950:5038   */\n      mstore\n        /* \"#utility.yul\":5057:5061   */\n      0x12\n        /* \"#utility.yul\":5054:5055   */\n      0x04\n        /* \"#utility.yul\":5047:5062   */\n      mstore\n        /* \"#utility.yul\":5081:5085   */\n      0x24\n        /* \"#utility.yul\":5078:5079   */\n      0x00\n        /* \"#utility.yul\":5071:5086   */\n      revert\n        /* \"#utility.yul\":5221:5338   */\n    tag_57:\n        /* \"#utility.yul\":5330:5331   */\n      0x00\n        /* \"#utility.yul\":5327:5328   */\n      dup1\n        /* \"#utility.yul\":5320:5332   */\n      revert\n        /* \"#utility.yul\":5344:5507   */\n    tag_72:\n        /* \"#utility.yul\":5484:5499   */\n      0x496e636f72726563742073756d00000000000000000000000000000000000000\n        /* \"#utility.yul\":5480:5481   */\n      0x00\n        /* \"#utility.yul\":5472:5478   */\n      dup3\n        /* \"#utility.yul\":5468:5482   */\n      add\n        /* \"#utility.yul\":5461:5500   */\n      mstore\n        /* \"#utility.yul\":5344:5507   */\n      pop\n      jump\t// out\n        /* \"#utility.yul\":5513:5681   */\n    tag_77:\n        /* \"#utility.yul\":5653:5673   */\n      0x4e6f7420656e6f75746820746f6b656e73210000000000000000000000000000\n        /* \"#utility.yul\":5649:5650   */\n      0x00\n        /* \"#utility.yul\":5641:5647   */\n      dup3\n        /* \"#utility.yul\":5637:5651   */\n      add\n        /* \"#utility.yul\":5630:5674   */\n      mstore\n        /* \"#utility.yul\":5513:5681   */\n      pop\n      jump\t// out\n        /* \"#utility.yul\":5687:5809   */\n    tag_53:\n        /* \"#utility.yul\":5760:5784   */\n      tag_126\n        /* \"#utility.yul\":5778:5783   */\n      dup2\n        /* \"#utility.yul\":5760:5784   */\n      tag_81\n      jump\t// in\n    tag_126:\n        /* \"#utility.yul\":5753:5758   */\n      dup2\n        /* \"#utility.yul\":5750:5785   */\n      eq\n        /* \"#utility.yul\":5740:5803   */\n      tag_127\n      jumpi\n        /* \"#utility.yul\":5799:5800   */\n      0x00\n        /* \"#utility.yul\":5796:5797   */\n      dup1\n        /* \"#utility.yul\":5789:5801   */\n      revert\n        /* \"#utility.yul\":5740:5803   */\n    tag_127:\n        /* \"#utility.yul\":5687:5809   */\n      pop\n      jump\t// out\n\n    auxdata: 0xa26469706673582212205193f64977c0da8e982cf20ca8791312510f7afebb99625d2d00a6b1a937f1eb64736f6c63430008070033\n}\n",
				"bytecode": {
					"linkReferences": {},
					"object": "608060405230600260006101000a81548173ffffffffffffffffffffffffffffffffffffffff021916908373ffffffffffffffffffffffffffffffffffffffff16021790555034801561005157600080fd5b5060405161085d38038061085d8339818101604052810190610073919061010f565b806000806101000a81548173ffffffffffffffffffffffffffffffffffffffff021916908373ffffffffffffffffffffffffffffffffffffffff16021790555033600160006101000a81548173ffffffffffffffffffffffffffffffffffffffff021916908373ffffffffffffffffffffffffffffffffffffffff1602179055505061019c565b60008151905061010981610185565b92915050565b60006020828403121561012557610124610180565b5b6000610133848285016100fa565b91505092915050565b600061014782610160565b9050919050565b60006101598261013c565b9050919050565b600073ffffffffffffffffffffffffffffffffffffffff82169050919050565b600080fd5b61018e8161014e565b811461019957600080fd5b50565b6106b2806101ab6000396000f3fe60806040526004361061003f5760003560e01c8063a6f2ae3a14610044578063d9ef58a51461004e578063fc0c546a14610079578063fca02c21146100a4575b600080fd5b61004c6100cf565b005b34801561005a57600080fd5b50610063610322565b6040516100709190610471565b60405180910390f35b34801561008557600080fd5b5061008e610348565b60405161009b91906104b5565b60405180910390f35b3480156100b057600080fd5b506100b961036c565b6040516100c69190610510565b60405180910390f35b6100d76103ad565b341015610119576040517f08c379a0000000000000000000000000000000000000000000000000000000008152600401610110906104d0565b60405180910390fd5b60008060009054906101000a900473ffffffffffffffffffffffffffffffffffffffff1673ffffffffffffffffffffffffffffffffffffffff166370a08231600260009054906101000a900473ffffffffffffffffffffffffffffffffffffffff166040518263ffffffff1660e01b81526004016101979190610471565b60206040518083038186803b1580156101af57600080fd5b505afa1580156101c3573d6000803e3d6000fd5b505050506040513d601f19601f820116820180604052508101906101e791906103d1565b905060006101f36103ad565b346101fe919061053c565b905081811115610243576040517f08c379a000000000000000000000000000000000000000000000000000000000815260040161023a906104f0565b60405180910390fd5b60008054906101000a900473ffffffffffffffffffffffffffffffffffffffff1673ffffffffffffffffffffffffffffffffffffffff1663a9059cbb33836040518363ffffffff1660e01b815260040161029e92919061048c565b600060405180830381600087803b1580156102b857600080fd5b505af11580156102cc573d6000803e3d6000fd5b505050503373ffffffffffffffffffffffffffffffffffffffff167fc55650ccda1011e1cdc769b1fbf546ebb8c97800b6072b49e06cd560305b1d67826040516103169190610510565b60405180910390a25050565b600260009054906101000a900473ffffffffffffffffffffffffffffffffffffffff1681565b60008054906101000a900473ffffffffffffffffffffffffffffffffffffffff1681565b6000600260009054906101000a900473ffffffffffffffffffffffffffffffffffffffff1673ffffffffffffffffffffffffffffffffffffffff1631905090565b600066038d7ea4c68000905090565b6000815190506103cb81610665565b92915050565b6000602082840312156103e7576103e661060e565b5b60006103f5848285016103bc565b91505092915050565b6104078161056d565b82525050565b610416816105a9565b82525050565b6000610429600d8361052b565b915061043482610613565b602082019050919050565b600061044c60128361052b565b91506104578261063c565b602082019050919050565b61046b8161059f565b82525050565b600060208201905061048660008301846103fe565b92915050565b60006040820190506104a160008301856103fe565b6104ae6020830184610462565b9392505050565b60006020820190506104ca600083018461040d565b92915050565b600060208201905081810360008301526104e98161041c565b9050919050565b600060208201905081810360008301526105098161043f565b9050919050565b60006020820190506105256000830184610462565b92915050565b600082825260208201905092915050565b60006105478261059f565b91506105528361059f565b925082610562576105616105df565b5b828204905092915050565b60006105788261057f565b9050919050565b600073ffffffffffffffffffffffffffffffffffffffff82169050919050565b6000819050919050565b60006105b4826105bb565b9050919050565b60006105c6826105cd565b9050919050565b60006105d88261057f565b9050919050565b7f4e487b7100000000000000000000000000000000000000000000000000000000600052601260045260246000fd5b600080fd5b7f496e636f72726563742073756d00000000000000000000000000000000000000600082015250565b7f4e6f7420656e6f75746820746f6b656e73210000000000000000000000000000600082015250565b61066e8161059f565b811461067957600080fd5b5056fea26469706673582212205193f64977c0da8e982cf20ca8791312510f7afebb99625d2d00a6b1a937f1eb64736f6c63430008070033",
					"opcodes": "PUSH1 0x80 PUSH1 0x40 MSTORE ADDRESS PUSH1 0x2 PUSH1 0x0 PUSH2 0x100 EXP DUP2 SLOAD DUP2 PUSH20 0xFFFFFFFFFFFFFFFFFFFFFFFFFFFFFFFFFFFFFFFF MUL NOT AND SWAP1 DUP4 PUSH20 0xFFFFFFFFFFFFFFFFFFFFFFFFFFFFFFFFFFFFFFFF AND MUL OR SWAP1 SSTORE POP CALLVALUE DUP1 ISZERO PUSH2 0x51 JUMPI PUSH1 0x0 DUP1 REVERT JUMPDEST POP PUSH1 0x40 MLOAD PUSH2 0x85D CODESIZE SUB DUP1 PUSH2 0x85D DUP4 CODECOPY DUP2 DUP2 ADD PUSH1 0x40 MSTORE DUP2 ADD SWAP1 PUSH2 0x73 SWAP2 SWAP1 PUSH2 0x10F JUMP JUMPDEST DUP1 PUSH1 0x0 DUP1 PUSH2 0x100 EXP DUP2 SLOAD DUP2 PUSH20 0xFFFFFFFFFFFFFFFFFFFFFFFFFFFFFFFFFFFFFFFF MUL NOT AND SWAP1 DUP4 PUSH20 0xFFFFFFFFFFFFFFFFFFFFFFFFFFFFFFFFFFFFFFFF AND MUL OR SWAP1 SSTORE POP CALLER PUSH1 0x1 PUSH1 0x0 PUSH2 0x100 EXP DUP2 SLOAD DUP2 PUSH20 0xFFFFFFFFFFFFFFFFFFFFFFFFFFFFFFFFFFFFFFFF MUL NOT AND SWAP1 DUP4 PUSH20 0xFFFFFFFFFFFFFFFFFFFFFFFFFFFFFFFFFFFFFFFF AND MUL OR SWAP1 SSTORE POP POP PUSH2 0x19C JUMP JUMPDEST PUSH1 0x0 DUP2 MLOAD SWAP1 POP PUSH2 0x109 DUP2 PUSH2 0x185 JUMP JUMPDEST SWAP3 SWAP2 POP POP JUMP JUMPDEST PUSH1 0x0 PUSH1 0x20 DUP3 DUP5 SUB SLT ISZERO PUSH2 0x125 JUMPI PUSH2 0x124 PUSH2 0x180 JUMP JUMPDEST JUMPDEST PUSH1 0x0 PUSH2 0x133 DUP5 DUP3 DUP6 ADD PUSH2 0xFA JUMP JUMPDEST SWAP2 POP POP SWAP3 SWAP2 POP POP JUMP JUMPDEST PUSH1 0x0 PUSH2 0x147 DUP3 PUSH2 0x160 JUMP JUMPDEST SWAP1 POP SWAP2 SWAP1 POP JUMP JUMPDEST PUSH1 0x0 PUSH2 0x159 DUP3 PUSH2 0x13C JUMP JUMPDEST SWAP1 POP SWAP2 SWAP1 POP JUMP JUMPDEST PUSH1 0x0 PUSH20 0xFFFFFFFFFFFFFFFFFFFFFFFFFFFFFFFFFFFFFFFF DUP3 AND SWAP1 POP SWAP2 SWAP1 POP JUMP JUMPDEST PUSH1 0x0 DUP1 REVERT JUMPDEST PUSH2 0x18E DUP2 PUSH2 0x14E JUMP JUMPDEST DUP2 EQ PUSH2 0x199 JUMPI PUSH1 0x0 DUP1 REVERT JUMPDEST POP JUMP JUMPDEST PUSH2 0x6B2 DUP1 PUSH2 0x1AB PUSH1 0x0 CODECOPY PUSH1 0x0 RETURN INVALID PUSH1 0x80 PUSH1 0x40 MSTORE PUSH1 0x4 CALLDATASIZE LT PUSH2 0x3F JUMPI PUSH1 0x0 CALLDATALOAD PUSH1 0xE0 SHR DUP1 PUSH4 0xA6F2AE3A EQ PUSH2 0x44 JUMPI DUP1 PUSH4 0xD9EF58A5 EQ PUSH2 0x4E JUMPI DUP1 PUSH4 0xFC0C546A EQ PUSH2 0x79 JUMPI DUP1 PUSH4 0xFCA02C21 EQ PUSH2 0xA4 JUMPI JUMPDEST PUSH1 0x0 DUP1 REVERT JUMPDEST PUSH2 0x4C PUSH2 0xCF JUMP JUMPDEST STOP JUMPDEST CALLVALUE DUP1 ISZERO PUSH2 0x5A JUMPI PUSH1 0x0 DUP1 REVERT JUMPDEST POP PUSH2 0x63 PUSH2 0x322 JUMP JUMPDEST PUSH1 0x40 MLOAD PUSH2 0x70 SWAP2 SWAP1 PUSH2 0x471 JUMP JUMPDEST PUSH1 0x40 MLOAD DUP1 SWAP2 SUB SWAP1 RETURN JUMPDEST CALLVALUE DUP1 ISZERO PUSH2 0x85 JUMPI PUSH1 0x0 DUP1 REVERT JUMPDEST POP PUSH2 0x8E PUSH2 0x348 JUMP JUMPDEST PUSH1 0x40 MLOAD PUSH2 0x9B SWAP2 SWAP1 PUSH2 0x4B5 JUMP JUMPDEST PUSH1 0x40 MLOAD DUP1 SWAP2 SUB SWAP1 RETURN JUMPDEST CALLVALUE DUP1 ISZERO PUSH2 0xB0 JUMPI PUSH1 0x0 DUP1 REVERT JUMPDEST POP PUSH2 0xB9 PUSH2 0x36C JUMP JUMPDEST PUSH1 0x40 MLOAD PUSH2 0xC6 SWAP2 SWAP1 PUSH2 0x510 JUMP JUMPDEST PUSH1 0x40 MLOAD DUP1 SWAP2 SUB SWAP1 RETURN JUMPDEST PUSH2 0xD7 PUSH2 0x3AD JUMP JUMPDEST CALLVALUE LT ISZERO PUSH2 0x119 JUMPI PUSH1 0x40 MLOAD PUSH32 0x8C379A000000000000000000000000000000000000000000000000000000000 DUP2 MSTORE PUSH1 0x4 ADD PUSH2 0x110 SWAP1 PUSH2 0x4D0 JUMP JUMPDEST PUSH1 0x40 MLOAD DUP1 SWAP2 SUB SWAP1 REVERT JUMPDEST PUSH1 0x0 DUP1 PUSH1 0x0 SWAP1 SLOAD SWAP1 PUSH2 0x100 EXP SWAP1 DIV PUSH20 0xFFFFFFFFFFFFFFFFFFFFFFFFFFFFFFFFFFFFFFFF AND PUSH20 0xFFFFFFFFFFFFFFFFFFFFFFFFFFFFFFFFFFFFFFFF AND PUSH4 0x70A08231 PUSH1 0x2 PUSH1 0x0 SWAP1 SLOAD SWAP1 PUSH2 0x100 EXP SWAP1 DIV PUSH20 0xFFFFFFFFFFFFFFFFFFFFFFFFFFFFFFFFFFFFFFFF AND PUSH1 0x40 MLOAD DUP3 PUSH4 0xFFFFFFFF AND PUSH1 0xE0 SHL DUP2 MSTORE PUSH1 0x4 ADD PUSH2 0x197 SWAP2 SWAP1 PUSH2 0x471 JUMP JUMPDEST PUSH1 0x20 PUSH1 0x40 MLOAD DUP1 DUP4 SUB DUP2 DUP7 DUP1 EXTCODESIZE ISZERO DUP1 ISZERO PUSH2 0x1AF JUMPI PUSH1 0x0 DUP1 REVERT JUMPDEST POP GAS STATICCALL ISZERO DUP1 ISZERO PUSH2 0x1C3 JUMPI RETURNDATASIZE PUSH1 0x0 DUP1 RETURNDATACOPY RETURNDATASIZE PUSH1 0x0 REVERT JUMPDEST POP POP POP POP PUSH1 0x40 MLOAD RETURNDATASIZE PUSH1 0x1F NOT PUSH1 0x1F DUP3 ADD AND DUP3 ADD DUP1 PUSH1 0x40 MSTORE POP DUP2 ADD SWAP1 PUSH2 0x1E7 SWAP2 SWAP1 PUSH2 0x3D1 JUMP JUMPDEST SWAP1 POP PUSH1 0x0 PUSH2 0x1F3 PUSH2 0x3AD JUMP JUMPDEST CALLVALUE PUSH2 0x1FE SWAP2 SWAP1 PUSH2 0x53C JUMP JUMPDEST SWAP1 POP DUP2 DUP2 GT ISZERO PUSH2 0x243 JUMPI PUSH1 0x40 MLOAD PUSH32 0x8C379A000000000000000000000000000000000000000000000000000000000 DUP2 MSTORE PUSH1 0x4 ADD PUSH2 0x23A SWAP1 PUSH2 0x4F0 JUMP JUMPDEST PUSH1 0x40 MLOAD DUP1 SWAP2 SUB SWAP1 REVERT JUMPDEST PUSH1 0x0 DUP1 SLOAD SWAP1 PUSH2 0x100 EXP SWAP1 DIV PUSH20 0xFFFFFFFFFFFFFFFFFFFFFFFFFFFFFFFFFFFFFFFF AND PUSH20 0xFFFFFFFFFFFFFFFFFFFFFFFFFFFFFFFFFFFFFFFF AND PUSH4 0xA9059CBB CALLER DUP4 PUSH1 0x40 MLOAD DUP4 PUSH4 0xFFFFFFFF AND PUSH1 0xE0 SHL DUP2 MSTORE PUSH1 0x4 ADD PUSH2 0x29E SWAP3 SWAP2 SWAP1 PUSH2 0x48C JUMP JUMPDEST PUSH1 0x0 PUSH1 0x40 MLOAD DUP1 DUP4 SUB DUP2 PUSH1 0x0 DUP8 DUP1 EXTCODESIZE ISZERO DUP1 ISZERO PUSH2 0x2B8 JUMPI PUSH1 0x0 DUP1 REVERT JUMPDEST POP GAS CALL ISZERO DUP1 ISZERO PUSH2 0x2CC JUMPI RETURNDATASIZE PUSH1 0x0 DUP1 RETURNDATACOPY RETURNDATASIZE PUSH1 0x0 REVERT JUMPDEST POP POP POP POP CALLER PUSH20 0xFFFFFFFFFFFFFFFFFFFFFFFFFFFFFFFFFFFFFFFF AND PUSH32 0xC55650CCDA1011E1CDC769B1FBF546EBB8C97800B6072B49E06CD560305B1D67 DUP3 PUSH1 0x40 MLOAD PUSH2 0x316 SWAP2 SWAP1 PUSH2 0x510 JUMP JUMPDEST PUSH1 0x40 MLOAD DUP1 SWAP2 SUB SWAP1 LOG2 POP POP JUMP JUMPDEST PUSH1 0x2 PUSH1 0x0 SWAP1 SLOAD SWAP1 PUSH2 0x100 EXP SWAP1 DIV PUSH20 0xFFFFFFFFFFFFFFFFFFFFFFFFFFFFFFFFFFFFFFFF AND DUP2 JUMP JUMPDEST PUSH1 0x0 DUP1 SLOAD SWAP1 PUSH2 0x100 EXP SWAP1 DIV PUSH20 0xFFFFFFFFFFFFFFFFFFFFFFFFFFFFFFFFFFFFFFFF AND DUP2 JUMP JUMPDEST PUSH1 0x0 PUSH1 0x2 PUSH1 0x0 SWAP1 SLOAD SWAP1 PUSH2 0x100 EXP SWAP1 DIV PUSH20 0xFFFFFFFFFFFFFFFFFFFFFFFFFFFFFFFFFFFFFFFF AND PUSH20 0xFFFFFFFFFFFFFFFFFFFFFFFFFFFFFFFFFFFFFFFF AND BALANCE SWAP1 POP SWAP1 JUMP JUMPDEST PUSH1 0x0 PUSH7 0x38D7EA4C68000 SWAP1 POP SWAP1 JUMP JUMPDEST PUSH1 0x0 DUP2 MLOAD SWAP1 POP PUSH2 0x3CB DUP2 PUSH2 0x665 JUMP JUMPDEST SWAP3 SWAP2 POP POP JUMP JUMPDEST PUSH1 0x0 PUSH1 0x20 DUP3 DUP5 SUB SLT ISZERO PUSH2 0x3E7 JUMPI PUSH2 0x3E6 PUSH2 0x60E JUMP JUMPDEST JUMPDEST PUSH1 0x0 PUSH2 0x3F5 DUP5 DUP3 DUP6 ADD PUSH2 0x3BC JUMP JUMPDEST SWAP2 POP POP SWAP3 SWAP2 POP POP JUMP JUMPDEST PUSH2 0x407 DUP2 PUSH2 0x56D JUMP JUMPDEST DUP3 MSTORE POP POP JUMP JUMPDEST PUSH2 0x416 DUP2 PUSH2 0x5A9 JUMP JUMPDEST DUP3 MSTORE POP POP JUMP JUMPDEST PUSH1 0x0 PUSH2 0x429 PUSH1 0xD DUP4 PUSH2 0x52B JUMP JUMPDEST SWAP2 POP PUSH2 0x434 DUP3 PUSH2 0x613 JUMP JUMPDEST PUSH1 0x20 DUP3 ADD SWAP1 POP SWAP2 SWAP1 POP JUMP JUMPDEST PUSH1 0x0 PUSH2 0x44C PUSH1 0x12 DUP4 PUSH2 0x52B JUMP JUMPDEST SWAP2 POP PUSH2 0x457 DUP3 PUSH2 0x63C JUMP JUMPDEST PUSH1 0x20 DUP3 ADD SWAP1 POP SWAP2 SWAP1 POP JUMP JUMPDEST PUSH2 0x46B DUP2 PUSH2 0x59F JUMP JUMPDEST DUP3 MSTORE POP POP JUMP JUMPDEST PUSH1 0x0 PUSH1 0x20 DUP3 ADD SWAP1 POP PUSH2 0x486 PUSH1 0x0 DUP4 ADD DUP5 PUSH2 0x3FE JUMP JUMPDEST SWAP3 SWAP2 POP POP JUMP JUMPDEST PUSH1 0x0 PUSH1 0x40 DUP3 ADD SWAP1 POP PUSH2 0x4A1 PUSH1 0x0 DUP4 ADD DUP6 PUSH2 0x3FE JUMP JUMPDEST PUSH2 0x4AE PUSH1 0x20 DUP4 ADD DUP5 PUSH2 0x462 JUMP JUMPDEST SWAP4 SWAP3 POP POP POP JUMP JUMPDEST PUSH1 0x0 PUSH1 0x20 DUP3 ADD SWAP1 POP PUSH2 0x4CA PUSH1 0x0 DUP4 ADD DUP5 PUSH2 0x40D JUMP JUMPDEST SWAP3 SWAP2 POP POP JUMP JUMPDEST PUSH1 0x0 PUSH1 0x20 DUP3 ADD SWAP1 POP DUP2 DUP2 SUB PUSH1 0x0 DUP4 ADD MSTORE PUSH2 0x4E9 DUP2 PUSH2 0x41C JUMP JUMPDEST SWAP1 POP SWAP2 SWAP1 POP JUMP JUMPDEST PUSH1 0x0 PUSH1 0x20 DUP3 ADD SWAP1 POP DUP2 DUP2 SUB PUSH1 0x0 DUP4 ADD MSTORE PUSH2 0x509 DUP2 PUSH2 0x43F JUMP JUMPDEST SWAP1 POP SWAP2 SWAP1 POP JUMP JUMPDEST PUSH1 0x0 PUSH1 0x20 DUP3 ADD SWAP1 POP PUSH2 0x525 PUSH1 0x0 DUP4 ADD DUP5 PUSH2 0x462 JUMP JUMPDEST SWAP3 SWAP2 POP POP JUMP JUMPDEST PUSH1 0x0 DUP3 DUP3 MSTORE PUSH1 0x20 DUP3 ADD SWAP1 POP SWAP3 SWAP2 POP POP JUMP JUMPDEST PUSH1 0x0 PUSH2 0x547 DUP3 PUSH2 0x59F JUMP JUMPDEST SWAP2 POP PUSH2 0x552 DUP4 PUSH2 0x59F JUMP JUMPDEST SWAP3 POP DUP3 PUSH2 0x562 JUMPI PUSH2 0x561 PUSH2 0x5DF JUMP JUMPDEST JUMPDEST DUP3 DUP3 DIV SWAP1 POP SWAP3 SWAP2 POP POP JUMP JUMPDEST PUSH1 0x0 PUSH2 0x578 DUP3 PUSH2 0x57F JUMP JUMPDEST SWAP1 POP SWAP2 SWAP1 POP JUMP JUMPDEST PUSH1 0x0 PUSH20 0xFFFFFFFFFFFFFFFFFFFFFFFFFFFFFFFFFFFFFFFF DUP3 AND SWAP1 POP SWAP2 SWAP1 POP JUMP JUMPDEST PUSH1 0x0 DUP2 SWAP1 POP SWAP2 SWAP1 POP JUMP JUMPDEST PUSH1 0x0 PUSH2 0x5B4 DUP3 PUSH2 0x5BB JUMP JUMPDEST SWAP1 POP SWAP2 SWAP1 POP JUMP JUMPDEST PUSH1 0x0 PUSH2 0x5C6 DUP3 PUSH2 0x5CD JUMP JUMPDEST SWAP1 POP SWAP2 SWAP1 POP JUMP JUMPDEST PUSH1 0x0 PUSH2 0x5D8 DUP3 PUSH2 0x57F JUMP JUMPDEST SWAP1 POP SWAP2 SWAP1 POP JUMP JUMPDEST PUSH32 0x4E487B7100000000000000000000000000000000000000000000000000000000 PUSH1 0x0 MSTORE PUSH1 0x12 PUSH1 0x4 MSTORE PUSH1 0x24 PUSH1 0x0 REVERT JUMPDEST PUSH1 0x0 DUP1 REVERT JUMPDEST PUSH32 0x496E636F72726563742073756D00000000000000000000000000000000000000 PUSH1 0x0 DUP3 ADD MSTORE POP JUMP JUMPDEST PUSH32 0x4E6F7420656E6F75746820746F6B656E73210000000000000000000000000000 PUSH1 0x0 DUP3 ADD MSTORE POP JUMP JUMPDEST PUSH2 0x66E DUP2 PUSH2 0x59F JUMP JUMPDEST DUP2 EQ PUSH2 0x679 JUMPI PUSH1 0x0 DUP1 REVERT JUMPDEST POP JUMP INVALID LOG2 PUSH5 0x6970667358 0x22 SLT KECCAK256 MLOAD SWAP4 0xF6 0x49 PUSH24 0xC0DA8E982CF20CA8791312510F7AFEBB99625D2D00A6B1A9 CALLDATACOPY CALL 0xEB PUSH5 0x736F6C6343 STOP ADDMOD SMOD STOP CALLER "
				},
				"gasEstimates": {
					"creation": {
						"codeDepositCost": "342800",
						"executionCost": "infinite",
						"totalCost": "infinite"
					},
					"external": {
						"buy()": "infinite",
						"marketBalance()": "5123",
						"thisAddr()": "2514",
						"token()": "2619"
					},
					"internal": {
						"_rate()": "23"
					}
				},
				"methodIdentifiers": {
					"buy()": "a6f2ae3a",
					"marketBalance()": "fca02c21",
					"thisAddr()": "d9ef58a5",
					"token()": "fc0c546a"
				}
			},
			"storageLayout": {
				"storage": [
					{
						"astId": 73,
						"contract": "contracts/MarketPlace.sol:MarketPlace",
						"label": "token",
						"offset": 0,
						"slot": "0",
						"type": "t_contract(IERC20)67"
					},
					{
						"astId": 75,
						"contract": "contracts/MarketPlace.sol:MarketPlace",
						"label": "owner",
						"offset": 0,
						"slot": "1",
						"type": "t_address"
					},
					{
						"astId": 81,
						"contract": "contracts/MarketPlace.sol:MarketPlace",
						"label": "thisAddr",
						"offset": 0,
						"slot": "2",
						"type": "t_address"
					}
				],
				"types": {
					"t_address": {
						"encoding": "inplace",
						"label": "address",
						"numberOfBytes": "20"
					},
					"t_contract(IERC20)67": {
						"encoding": "inplace",
						"label": "contract IERC20",
						"numberOfBytes": "20"
					}
				}
			},
			"userdoc": {
				"kind": "user",
				"methods": {},
				"version": 1
			}
		}
	}
}